{
	"contracts/HelloWorld6.sol": {
		"ShareDistribution": {
			"abi": [
				{
					"inputs": [
						{
							"internalType": "uint256",
							"name": "n",
							"type": "uint256"
						},
						{
							"internalType": "uint256",
							"name": "t",
							"type": "uint256"
						},
						{
							"internalType": "uint256",
							"name": "size",
							"type": "uint256"
						}
					],
					"stateMutability": "nonpayable",
					"type": "constructor"
				},
				{
					"inputs": [],
					"name": "constructShare",
					"outputs": [],
					"stateMutability": "nonpayable",
					"type": "function"
				},
				{
					"inputs": [],
					"name": "displayParameter",
					"outputs": [
						{
							"internalType": "uint256",
							"name": "",
							"type": "uint256"
						},
						{
							"internalType": "uint256",
							"name": "",
							"type": "uint256"
						},
						{
							"internalType": "uint256[]",
							"name": "",
							"type": "uint256[]"
						}
					],
					"stateMutability": "view",
					"type": "function"
				},
				{
					"inputs": [],
					"name": "displayShares",
					"outputs": [
						{
							"internalType": "uint256[]",
							"name": "",
							"type": "uint256[]"
						}
					],
					"stateMutability": "view",
					"type": "function"
				},
				{
					"inputs": [
						{
							"internalType": "uint256[]",
							"name": "indices",
							"type": "uint256[]"
						}
					],
					"name": "reConstruction",
					"outputs": [
						{
							"internalType": "uint256",
							"name": "",
							"type": "uint256"
						}
					],
					"stateMutability": "view",
					"type": "function"
				}
			],
			"devdoc": {
				"kind": "dev",
				"methods": {},
				"version": 1
			},
			"evm": {
				"assembly": "    /* \"contracts/HelloWorld6.sol\":57:3828  contract ShareDistribution {... */\n  mstore(0x40, 0x80)\n    /* \"contracts/HelloWorld6.sol\":555:1062  constructor(uint256 n, uint256 t, uint256 size) {... */\n  callvalue\n  dup1\n  iszero\n  tag_1\n  jumpi\n  0x00\n  dup1\n  revert\ntag_1:\n  pop\n  mload(0x40)\n  sub(codesize, bytecodeSize)\n  dup1\n  bytecodeSize\n  dup4\n  codecopy\n  dup2\n  dup2\n  add\n  0x40\n  mstore\n  dup2\n  add\n  swap1\n  tag_2\n  swap2\n  swap1\n  tag_3\n  jump\t// in\ntag_2:\n    /* \"contracts/HelloWorld6.sol\":629:630  n */\n  dup3\n    /* \"contracts/HelloWorld6.sol\":613:626  numberOfParty */\n  0x02\n    /* \"contracts/HelloWorld6.sol\":613:630  numberOfParty = n */\n  dup2\n  swap1\n  sstore\n  pop\n    /* \"contracts/HelloWorld6.sol\":652:653  t */\n  dup2\n    /* \"contracts/HelloWorld6.sol\":640:649  threshold */\n  0x04\n    /* \"contracts/HelloWorld6.sol\":640:653  threshold = t */\n  dup2\n  swap1\n  sstore\n  pop\n    /* \"contracts/HelloWorld6.sol\":704:705  1 */\n  0x01\n    /* \"contracts/HelloWorld6.sol\":692:701  threshold */\n  sload(0x04)\n    /* \"contracts/HelloWorld6.sol\":692:705  threshold - 1 */\n  tag_6\n  swap2\n  swap1\n  tag_7\n  jump\t// in\ntag_6:\n    /* \"contracts/HelloWorld6.sol\":678:706  new uint256[](threshold - 1) */\n  0xffffffffffffffff\n  dup2\n  gt\n  iszero\n  tag_8\n  jumpi\n  tag_9\n  tag_10\n  jump\t// in\ntag_9:\ntag_8:\n  mload(0x40)\n  swap1\n  dup1\n  dup3\n  mstore\n  dup1\n  0x20\n  mul\n  0x20\n  add\n  dup3\n  add\n  0x40\n  mstore\n  dup1\n  iszero\n  tag_11\n  jumpi\n  dup2\n  0x20\n  add\n  0x20\n  dup3\n  mul\n  dup1\n  calldatasize\n  dup4\n  calldatacopy\n  dup1\n  dup3\n  add\n  swap2\n  pop\n  pop\n  swap1\n  pop\ntag_11:\n  pop\n    /* \"contracts/HelloWorld6.sol\":663:675  coefficients */\n  0x05\n    /* \"contracts/HelloWorld6.sol\":663:706  coefficients = new uint256[](threshold - 1) */\n  swap1\n  dup1\n  mload\n  swap1\n  0x20\n  add\n  swap1\n  tag_12\n  swap3\n  swap2\n  swap1\n  tag_13\n  jump\t// in\ntag_12:\n  pop\n    /* \"contracts/HelloWorld6.sol\":724:743  generatePrime(size) */\n  tag_14\n    /* \"contracts/HelloWorld6.sol\":738:742  size */\n  dup2\n    /* \"contracts/HelloWorld6.sol\":724:737  generatePrime */\n  shl(0x20, tag_15)\n    /* \"contracts/HelloWorld6.sol\":724:743  generatePrime(size) */\n  0x20\n  shr\n  jump\t// in\ntag_14:\n    /* \"contracts/HelloWorld6.sol\":716:721  prime */\n  0x00\n    /* \"contracts/HelloWorld6.sol\":716:743  prime = generatePrime(size) */\n  dup2\n  swap1\n  sstore\n  pop\n    /* \"contracts/HelloWorld6.sol\":827:832  prime */\n  sload(0x00)\n    /* \"contracts/HelloWorld6.sol\":806:821  block.timestamp */\n  timestamp\n    /* \"contracts/HelloWorld6.sol\":789:822  abi.encodePacked(block.timestamp) */\n  add(0x20, mload(0x40))\n  tag_16\n  swap2\n  swap1\n  tag_17\n  jump\t// in\ntag_16:\n  mload(0x40)\n  0x20\n  dup2\n  dup4\n  sub\n  sub\n  dup2\n  mstore\n  swap1\n  0x40\n  mstore\n    /* \"contracts/HelloWorld6.sol\":779:823  keccak256(abi.encodePacked(block.timestamp)) */\n  dup1\n  mload\n  swap1\n  0x20\n  add\n  keccak256\n    /* \"contracts/HelloWorld6.sol\":771:824  uint256(keccak256(abi.encodePacked(block.timestamp))) */\n  0x00\n  shr\n    /* \"contracts/HelloWorld6.sol\":771:832  uint256(keccak256(abi.encodePacked(block.timestamp))) % prime */\n  tag_18\n  swap2\n  swap1\n  tag_19\n  jump\t// in\ntag_18:\n    /* \"contracts/HelloWorld6.sol\":762:768  secret */\n  0x01\n    /* \"contracts/HelloWorld6.sol\":762:832  secret = uint256(keccak256(abi.encodePacked(block.timestamp))) % prime */\n  dup2\n  swap1\n  sstore\n  pop\n    /* \"contracts/HelloWorld6.sol\":884:893  uint256 i */\n  0x00\n    /* \"contracts/HelloWorld6.sol\":879:1056  for (uint256 i = 0; i < threshold - 1; i++) {... */\ntag_20:\n    /* \"contracts/HelloWorld6.sol\":915:916  1 */\n  0x01\n    /* \"contracts/HelloWorld6.sol\":903:912  threshold */\n  sload(0x04)\n    /* \"contracts/HelloWorld6.sol\":903:916  threshold - 1 */\n  tag_23\n  swap2\n  swap1\n  tag_7\n  jump\t// in\ntag_23:\n    /* \"contracts/HelloWorld6.sol\":899:900  i */\n  dup2\n    /* \"contracts/HelloWorld6.sol\":899:916  i < threshold - 1 */\n  lt\n    /* \"contracts/HelloWorld6.sol\":879:1056  for (uint256 i = 0; i < threshold - 1; i++) {... */\n  iszero\n  tag_21\n  jumpi\n    /* \"contracts/HelloWorld6.sol\":1015:1020  prime */\n  sload(0x00)\n    /* \"contracts/HelloWorld6.sol\":1008:1009  i */\n  dup2\n    /* \"contracts/HelloWorld6.sol\":990:1005  block.timestamp */\n  timestamp\n    /* \"contracts/HelloWorld6.sol\":990:1009  block.timestamp + i */\n  tag_24\n  swap2\n  swap1\n  tag_25\n  jump\t// in\ntag_24:\n    /* \"contracts/HelloWorld6.sol\":973:1010  abi.encodePacked(block.timestamp + i) */\n  add(0x20, mload(0x40))\n  tag_26\n  swap2\n  swap1\n  tag_17\n  jump\t// in\ntag_26:\n  mload(0x40)\n  0x20\n  dup2\n  dup4\n  sub\n  sub\n  dup2\n  mstore\n  swap1\n  0x40\n  mstore\n    /* \"contracts/HelloWorld6.sol\":963:1011  keccak256(abi.encodePacked(block.timestamp + i)) */\n  dup1\n  mload\n  swap1\n  0x20\n  add\n  keccak256\n    /* \"contracts/HelloWorld6.sol\":955:1012  uint256(keccak256(abi.encodePacked(block.timestamp + i))) */\n  0x00\n  shr\n    /* \"contracts/HelloWorld6.sol\":955:1020  uint256(keccak256(abi.encodePacked(block.timestamp + i))) % prime */\n  tag_27\n  swap2\n  swap1\n  tag_19\n  jump\t// in\ntag_27:\n    /* \"contracts/HelloWorld6.sol\":937:949  coefficients */\n  0x05\n    /* \"contracts/HelloWorld6.sol\":950:951  i */\n  dup3\n    /* \"contracts/HelloWorld6.sol\":937:952  coefficients[i] */\n  dup2\n  sload\n  dup2\n  lt\n  tag_28\n  jumpi\n  tag_29\n  tag_30\n  jump\t// in\ntag_29:\ntag_28:\n  swap1\n  0x00\n  mstore\n  keccak256(0x00, 0x20)\n  add\n    /* \"contracts/HelloWorld6.sol\":937:1020  coefficients[i] = uint256(keccak256(abi.encodePacked(block.timestamp + i))) % prime */\n  dup2\n  swap1\n  sstore\n  pop\n    /* \"contracts/HelloWorld6.sol\":918:921  i++ */\n  dup1\n  dup1\n  0x01\n  add\n  swap2\n  pop\n  pop\n    /* \"contracts/HelloWorld6.sol\":879:1056  for (uint256 i = 0; i < threshold - 1; i++) {... */\n  jump(tag_20)\ntag_21:\n  pop\n    /* \"contracts/HelloWorld6.sol\":555:1062  constructor(uint256 n, uint256 t, uint256 size) {... */\n  pop\n  pop\n  pop\n    /* \"contracts/HelloWorld6.sol\":57:3828  contract ShareDistribution {... */\n  jump(tag_32)\n    /* \"contracts/HelloWorld6.sol\":2558:2904  function generatePrime(uint256 size) private view returns (uint256) {... */\ntag_15:\n    /* \"contracts/HelloWorld6.sol\":2617:2624  uint256 */\n  0x00\n    /* \"contracts/HelloWorld6.sol\":2636:2653  uint256 candidate */\n  dup1\n    /* \"contracts/HelloWorld6.sol\":2718:2722  size */\n  dup3\n    /* \"contracts/HelloWorld6.sol\":2713:2714  2 */\n  0x02\n    /* \"contracts/HelloWorld6.sol\":2713:2722  2 ** size */\n  tag_34\n  swap2\n  swap1\n  tag_35\n  jump\t// in\ntag_34:\n    /* \"contracts/HelloWorld6.sol\":2691:2706  block.timestamp */\n  timestamp\n    /* \"contracts/HelloWorld6.sol\":2674:2707  abi.encodePacked(block.timestamp) */\n  add(0x20, mload(0x40))\n  tag_36\n  swap2\n  swap1\n  tag_17\n  jump\t// in\ntag_36:\n  mload(0x40)\n  0x20\n  dup2\n  dup4\n  sub\n  sub\n  dup2\n  mstore\n  swap1\n  0x40\n  mstore\n    /* \"contracts/HelloWorld6.sol\":2664:2708  keccak256(abi.encodePacked(block.timestamp)) */\n  dup1\n  mload\n  swap1\n  0x20\n  add\n  keccak256\n    /* \"contracts/HelloWorld6.sol\":2656:2709  uint256(keccak256(abi.encodePacked(block.timestamp))) */\n  0x00\n  shr\n    /* \"contracts/HelloWorld6.sol\":2656:2723  uint256(keccak256(abi.encodePacked(block.timestamp))) % (2 ** size) */\n  tag_37\n  swap2\n  swap1\n  tag_19\n  jump\t// in\ntag_37:\n    /* \"contracts/HelloWorld6.sol\":2636:2723  uint256 candidate = uint256(keccak256(abi.encodePacked(block.timestamp))) % (2 ** size) */\n  swap1\n  pop\n    /* \"contracts/HelloWorld6.sol\":2754:2755  0 */\n  0x00\n    /* \"contracts/HelloWorld6.sol\":2749:2750  2 */\n  0x02\n    /* \"contracts/HelloWorld6.sol\":2737:2746  candidate */\n  dup3\n    /* \"contracts/HelloWorld6.sol\":2737:2750  candidate % 2 */\n  tag_38\n  swap2\n  swap1\n  tag_19\n  jump\t// in\ntag_38:\n    /* \"contracts/HelloWorld6.sol\":2737:2755  candidate % 2 == 0 */\n  sub\n    /* \"contracts/HelloWorld6.sol\":2733:2796  if (candidate % 2 == 0) {... */\n  tag_39\n  jumpi\n    /* \"contracts/HelloWorld6.sol\":2784:2785  1 */\n  0x01\n    /* \"contracts/HelloWorld6.sol\":2771:2785  candidate += 1 */\n  dup2\n  tag_40\n  swap2\n  swap1\n  tag_25\n  jump\t// in\ntag_40:\n  swap1\n  pop\n    /* \"contracts/HelloWorld6.sol\":2733:2796  if (candidate % 2 == 0) {... */\ntag_39:\n    /* \"contracts/HelloWorld6.sol\":2805:2872  while (!isPrime(candidate)) {... */\ntag_41:\n    /* \"contracts/HelloWorld6.sol\":2813:2831  isPrime(candidate) */\n  tag_43\n    /* \"contracts/HelloWorld6.sol\":2821:2830  candidate */\n  dup2\n    /* \"contracts/HelloWorld6.sol\":2813:2820  isPrime */\n  shl(0x20, tag_44)\n    /* \"contracts/HelloWorld6.sol\":2813:2831  isPrime(candidate) */\n  0x20\n  shr\n  jump\t// in\ntag_43:\n    /* \"contracts/HelloWorld6.sol\":2805:2872  while (!isPrime(candidate)) {... */\n  tag_42\n  jumpi\n    /* \"contracts/HelloWorld6.sol\":2860:2861  2 */\n  0x02\n    /* \"contracts/HelloWorld6.sol\":2847:2861  candidate += 2 */\n  dup2\n  tag_45\n  swap2\n  swap1\n  tag_25\n  jump\t// in\ntag_45:\n  swap1\n  pop\n    /* \"contracts/HelloWorld6.sol\":2805:2872  while (!isPrime(candidate)) {... */\n  jump(tag_41)\ntag_42:\n    /* \"contracts/HelloWorld6.sol\":2888:2897  candidate */\n  dup1\n    /* \"contracts/HelloWorld6.sol\":2881:2897  return candidate */\n  swap2\n  pop\n  pop\n    /* \"contracts/HelloWorld6.sol\":2558:2904  function generatePrime(uint256 size) private view returns (uint256) {... */\n  swap2\n  swap1\n  pop\n  jump\t// out\n    /* \"contracts/HelloWorld6.sol\":2914:3343  function isPrime(uint256 n) private pure returns (bool) {... */\ntag_44:\n    /* \"contracts/HelloWorld6.sol\":2964:2968  bool */\n  0x00\n    /* \"contracts/HelloWorld6.sol\":2989:2990  1 */\n  0x01\n    /* \"contracts/HelloWorld6.sol\":2984:2985  n */\n  dup3\n    /* \"contracts/HelloWorld6.sol\":2984:2990  n <= 1 */\n  gt\n    /* \"contracts/HelloWorld6.sol\":2980:3029  if (n <= 1) {... */\n  tag_47\n  jumpi\n    /* \"contracts/HelloWorld6.sol\":3013:3018  false */\n  0x00\n    /* \"contracts/HelloWorld6.sol\":3006:3018  return false */\n  swap1\n  pop\n  jump(tag_46)\n    /* \"contracts/HelloWorld6.sol\":2980:3029  if (n <= 1) {... */\ntag_47:\n    /* \"contracts/HelloWorld6.sol\":3047:3048  3 */\n  0x03\n    /* \"contracts/HelloWorld6.sol\":3042:3043  n */\n  dup3\n    /* \"contracts/HelloWorld6.sol\":3042:3048  n <= 3 */\n  gt\n    /* \"contracts/HelloWorld6.sol\":3038:3086  if (n <= 3) {... */\n  tag_48\n  jumpi\n    /* \"contracts/HelloWorld6.sol\":3071:3075  true */\n  0x01\n    /* \"contracts/HelloWorld6.sol\":3064:3075  return true */\n  swap1\n  pop\n  jump(tag_46)\n    /* \"contracts/HelloWorld6.sol\":3038:3086  if (n <= 3) {... */\ntag_48:\n    /* \"contracts/HelloWorld6.sol\":3108:3109  0 */\n  0x00\n    /* \"contracts/HelloWorld6.sol\":3103:3104  2 */\n  0x02\n    /* \"contracts/HelloWorld6.sol\":3099:3100  n */\n  dup4\n    /* \"contracts/HelloWorld6.sol\":3099:3104  n % 2 */\n  tag_49\n  swap2\n  swap1\n  tag_19\n  jump\t// in\ntag_49:\n    /* \"contracts/HelloWorld6.sol\":3099:3109  n % 2 == 0 */\n  eq\n    /* \"contracts/HelloWorld6.sol\":3099:3123  n % 2 == 0 || n % 3 == 0 */\n  dup1\n  tag_50\n  jumpi\n  pop\n    /* \"contracts/HelloWorld6.sol\":3122:3123  0 */\n  0x00\n    /* \"contracts/HelloWorld6.sol\":3117:3118  3 */\n  0x03\n    /* \"contracts/HelloWorld6.sol\":3113:3114  n */\n  dup4\n    /* \"contracts/HelloWorld6.sol\":3113:3118  n % 3 */\n  tag_51\n  swap2\n  swap1\n  tag_19\n  jump\t// in\ntag_51:\n    /* \"contracts/HelloWorld6.sol\":3113:3123  n % 3 == 0 */\n  eq\n    /* \"contracts/HelloWorld6.sol\":3099:3123  n % 2 == 0 || n % 3 == 0 */\ntag_50:\n    /* \"contracts/HelloWorld6.sol\":3095:3162  if (n % 2 == 0 || n % 3 == 0) {... */\n  iszero\n  tag_52\n  jumpi\n    /* \"contracts/HelloWorld6.sol\":3146:3151  false */\n  0x00\n    /* \"contracts/HelloWorld6.sol\":3139:3151  return false */\n  swap1\n  pop\n  jump(tag_46)\n    /* \"contracts/HelloWorld6.sol\":3095:3162  if (n % 2 == 0 || n % 3 == 0) {... */\ntag_52:\n    /* \"contracts/HelloWorld6.sol\":3176:3185  uint256 i */\n  0x00\n    /* \"contracts/HelloWorld6.sol\":3188:3189  5 */\n  0x05\n    /* \"contracts/HelloWorld6.sol\":3176:3189  uint256 i = 5 */\n  swap1\n  pop\n    /* \"contracts/HelloWorld6.sol\":3171:3316  for (uint256 i = 5; i * i <= n; i += 6) {... */\ntag_53:\n    /* \"contracts/HelloWorld6.sol\":3200:3201  n */\n  dup3\n    /* \"contracts/HelloWorld6.sol\":3195:3196  i */\n  dup2\n    /* \"contracts/HelloWorld6.sol\":3191:3192  i */\n  dup3\n    /* \"contracts/HelloWorld6.sol\":3191:3196  i * i */\n  tag_56\n  swap2\n  swap1\n  tag_57\n  jump\t// in\ntag_56:\n    /* \"contracts/HelloWorld6.sol\":3191:3201  i * i <= n */\n  gt\n    /* \"contracts/HelloWorld6.sol\":3171:3316  for (uint256 i = 5; i * i <= n; i += 6) {... */\n  tag_54\n  jumpi\n    /* \"contracts/HelloWorld6.sol\":3238:3239  0 */\n  0x00\n    /* \"contracts/HelloWorld6.sol\":3233:3234  i */\n  dup2\n    /* \"contracts/HelloWorld6.sol\":3229:3230  n */\n  dup5\n    /* \"contracts/HelloWorld6.sol\":3229:3234  n % i */\n  tag_58\n  swap2\n  swap1\n  tag_19\n  jump\t// in\ntag_58:\n    /* \"contracts/HelloWorld6.sol\":3229:3239  n % i == 0 */\n  eq\n    /* \"contracts/HelloWorld6.sol\":3229:3259  n % i == 0 || n % (i + 2) == 0 */\n  dup1\n  tag_59\n  jumpi\n  pop\n    /* \"contracts/HelloWorld6.sol\":3258:3259  0 */\n  0x00\n    /* \"contracts/HelloWorld6.sol\":3252:3253  2 */\n  0x02\n    /* \"contracts/HelloWorld6.sol\":3248:3249  i */\n  dup3\n    /* \"contracts/HelloWorld6.sol\":3248:3253  i + 2 */\n  tag_60\n  swap2\n  swap1\n  tag_25\n  jump\t// in\ntag_60:\n    /* \"contracts/HelloWorld6.sol\":3243:3244  n */\n  dup5\n    /* \"contracts/HelloWorld6.sol\":3243:3254  n % (i + 2) */\n  tag_61\n  swap2\n  swap1\n  tag_19\n  jump\t// in\ntag_61:\n    /* \"contracts/HelloWorld6.sol\":3243:3259  n % (i + 2) == 0 */\n  eq\n    /* \"contracts/HelloWorld6.sol\":3229:3259  n % i == 0 || n % (i + 2) == 0 */\ntag_59:\n    /* \"contracts/HelloWorld6.sol\":3225:3306  if (n % i == 0 || n % (i + 2) == 0) {... */\n  iszero\n  tag_62\n  jumpi\n    /* \"contracts/HelloWorld6.sol\":3286:3291  false */\n  0x00\n    /* \"contracts/HelloWorld6.sol\":3279:3291  return false */\n  swap2\n  pop\n  pop\n  jump(tag_46)\n    /* \"contracts/HelloWorld6.sol\":3225:3306  if (n % i == 0 || n % (i + 2) == 0) {... */\ntag_62:\n    /* \"contracts/HelloWorld6.sol\":3208:3209  6 */\n  0x06\n    /* \"contracts/HelloWorld6.sol\":3203:3209  i += 6 */\n  dup2\n  tag_63\n  swap2\n  swap1\n  tag_25\n  jump\t// in\ntag_63:\n  swap1\n  pop\n    /* \"contracts/HelloWorld6.sol\":3171:3316  for (uint256 i = 5; i * i <= n; i += 6) {... */\n  jump(tag_53)\ntag_54:\n  pop\n    /* \"contracts/HelloWorld6.sol\":3332:3336  true */\n  0x01\n    /* \"contracts/HelloWorld6.sol\":3325:3336  return true */\n  swap1\n  pop\n    /* \"contracts/HelloWorld6.sol\":2914:3343  function isPrime(uint256 n) private pure returns (bool) {... */\ntag_46:\n  swap2\n  swap1\n  pop\n  jump\t// out\n    /* \"contracts/HelloWorld6.sol\":57:3828  contract ShareDistribution {... */\ntag_13:\n  dup3\n  dup1\n  sload\n  dup3\n  dup3\n  sstore\n  swap1\n  0x00\n  mstore\n  keccak256(0x00, 0x20)\n  swap1\n  dup2\n  add\n  swap3\n  dup3\n  iszero\n  tag_64\n  jumpi\n  swap2\n  0x20\n  mul\n  dup3\n  add\ntag_65:\n  dup3\n  dup2\n  gt\n  iszero\n  tag_66\n  jumpi\n  dup3\n  mload\n  dup3\n  sstore\n  swap2\n  0x20\n  add\n  swap2\n  swap1\n  0x01\n  add\n  swap1\n  jump(tag_65)\ntag_66:\ntag_64:\n  pop\n  swap1\n  pop\n  tag_67\n  swap2\n  swap1\n  tag_68\n  jump\t// in\ntag_67:\n  pop\n  swap1\n  jump\t// out\ntag_68:\ntag_69:\n  dup1\n  dup3\n  gt\n  iszero\n  tag_70\n  jumpi\n  0x00\n  dup2\n  0x00\n  swap1\n  sstore\n  pop\n  0x01\n  add\n  jump(tag_69)\ntag_70:\n  pop\n  swap1\n  jump\t// out\n    /* \"#utility.yul\":88:205   */\ntag_72:\n    /* \"#utility.yul\":197:198   */\n  0x00\n    /* \"#utility.yul\":194:195   */\n  dup1\n    /* \"#utility.yul\":187:199   */\n  revert\n    /* \"#utility.yul\":334:411   */\ntag_74:\n    /* \"#utility.yul\":371:378   */\n  0x00\n    /* \"#utility.yul\":400:405   */\n  dup2\n    /* \"#utility.yul\":389:405   */\n  swap1\n  pop\n    /* \"#utility.yul\":334:411   */\n  swap2\n  swap1\n  pop\n  jump\t// out\n    /* \"#utility.yul\":417:539   */\ntag_75:\n    /* \"#utility.yul\":490:514   */\n  tag_90\n    /* \"#utility.yul\":508:513   */\n  dup2\n    /* \"#utility.yul\":490:514   */\n  tag_74\n  jump\t// in\ntag_90:\n    /* \"#utility.yul\":483:488   */\n  dup2\n    /* \"#utility.yul\":480:515   */\n  eq\n    /* \"#utility.yul\":470:533   */\n  tag_91\n  jumpi\n    /* \"#utility.yul\":529:530   */\n  0x00\n    /* \"#utility.yul\":526:527   */\n  dup1\n    /* \"#utility.yul\":519:531   */\n  revert\n    /* \"#utility.yul\":470:533   */\ntag_91:\n    /* \"#utility.yul\":417:539   */\n  pop\n  jump\t// out\n    /* \"#utility.yul\":545:688   */\ntag_76:\n    /* \"#utility.yul\":602:607   */\n  0x00\n    /* \"#utility.yul\":633:639   */\n  dup2\n    /* \"#utility.yul\":627:640   */\n  mload\n    /* \"#utility.yul\":618:640   */\n  swap1\n  pop\n    /* \"#utility.yul\":649:682   */\n  tag_93\n    /* \"#utility.yul\":676:681   */\n  dup2\n    /* \"#utility.yul\":649:682   */\n  tag_75\n  jump\t// in\ntag_93:\n    /* \"#utility.yul\":545:688   */\n  swap3\n  swap2\n  pop\n  pop\n  jump\t// out\n    /* \"#utility.yul\":694:1357   */\ntag_3:\n    /* \"#utility.yul\":782:788   */\n  0x00\n    /* \"#utility.yul\":790:796   */\n  dup1\n    /* \"#utility.yul\":798:804   */\n  0x00\n    /* \"#utility.yul\":847:849   */\n  0x60\n    /* \"#utility.yul\":835:844   */\n  dup5\n    /* \"#utility.yul\":826:833   */\n  dup7\n    /* \"#utility.yul\":822:845   */\n  sub\n    /* \"#utility.yul\":818:850   */\n  slt\n    /* \"#utility.yul\":815:934   */\n  iszero\n  tag_95\n  jumpi\n    /* \"#utility.yul\":853:932   */\n  tag_96\n  tag_72\n  jump\t// in\ntag_96:\n    /* \"#utility.yul\":815:934   */\ntag_95:\n    /* \"#utility.yul\":973:974   */\n  0x00\n    /* \"#utility.yul\":998:1062   */\n  tag_97\n    /* \"#utility.yul\":1054:1061   */\n  dup7\n    /* \"#utility.yul\":1045:1051   */\n  dup3\n    /* \"#utility.yul\":1034:1043   */\n  dup8\n    /* \"#utility.yul\":1030:1052   */\n  add\n    /* \"#utility.yul\":998:1062   */\n  tag_76\n  jump\t// in\ntag_97:\n    /* \"#utility.yul\":988:1062   */\n  swap4\n  pop\n    /* \"#utility.yul\":944:1072   */\n  pop\n    /* \"#utility.yul\":1111:1113   */\n  0x20\n    /* \"#utility.yul\":1137:1201   */\n  tag_98\n    /* \"#utility.yul\":1193:1200   */\n  dup7\n    /* \"#utility.yul\":1184:1190   */\n  dup3\n    /* \"#utility.yul\":1173:1182   */\n  dup8\n    /* \"#utility.yul\":1169:1191   */\n  add\n    /* \"#utility.yul\":1137:1201   */\n  tag_76\n  jump\t// in\ntag_98:\n    /* \"#utility.yul\":1127:1201   */\n  swap3\n  pop\n    /* \"#utility.yul\":1082:1211   */\n  pop\n    /* \"#utility.yul\":1250:1252   */\n  0x40\n    /* \"#utility.yul\":1276:1340   */\n  tag_99\n    /* \"#utility.yul\":1332:1339   */\n  dup7\n    /* \"#utility.yul\":1323:1329   */\n  dup3\n    /* \"#utility.yul\":1312:1321   */\n  dup8\n    /* \"#utility.yul\":1308:1330   */\n  add\n    /* \"#utility.yul\":1276:1340   */\n  tag_76\n  jump\t// in\ntag_99:\n    /* \"#utility.yul\":1266:1340   */\n  swap2\n  pop\n    /* \"#utility.yul\":1221:1350   */\n  pop\n    /* \"#utility.yul\":694:1357   */\n  swap3\n  pop\n  swap3\n  pop\n  swap3\n  jump\t// out\n    /* \"#utility.yul\":1363:1543   */\ntag_77:\n    /* \"#utility.yul\":1411:1488   */\n  0x4e487b7100000000000000000000000000000000000000000000000000000000\n    /* \"#utility.yul\":1408:1409   */\n  0x00\n    /* \"#utility.yul\":1401:1489   */\n  mstore\n    /* \"#utility.yul\":1508:1512   */\n  0x11\n    /* \"#utility.yul\":1505:1506   */\n  0x04\n    /* \"#utility.yul\":1498:1513   */\n  mstore\n    /* \"#utility.yul\":1532:1536   */\n  0x24\n    /* \"#utility.yul\":1529:1530   */\n  0x00\n    /* \"#utility.yul\":1522:1537   */\n  revert\n    /* \"#utility.yul\":1549:1743   */\ntag_7:\n    /* \"#utility.yul\":1589:1593   */\n  0x00\n    /* \"#utility.yul\":1609:1629   */\n  tag_102\n    /* \"#utility.yul\":1627:1628   */\n  dup3\n    /* \"#utility.yul\":1609:1629   */\n  tag_74\n  jump\t// in\ntag_102:\n    /* \"#utility.yul\":1604:1629   */\n  swap2\n  pop\n    /* \"#utility.yul\":1643:1663   */\n  tag_103\n    /* \"#utility.yul\":1661:1662   */\n  dup4\n    /* \"#utility.yul\":1643:1663   */\n  tag_74\n  jump\t// in\ntag_103:\n    /* \"#utility.yul\":1638:1663   */\n  swap3\n  pop\n    /* \"#utility.yul\":1687:1688   */\n  dup3\n    /* \"#utility.yul\":1684:1685   */\n  dup3\n    /* \"#utility.yul\":1680:1689   */\n  sub\n    /* \"#utility.yul\":1672:1689   */\n  swap1\n  pop\n    /* \"#utility.yul\":1711:1712   */\n  dup2\n    /* \"#utility.yul\":1705:1709   */\n  dup2\n    /* \"#utility.yul\":1702:1713   */\n  gt\n    /* \"#utility.yul\":1699:1736   */\n  iszero\n  tag_104\n  jumpi\n    /* \"#utility.yul\":1716:1734   */\n  tag_105\n  tag_77\n  jump\t// in\ntag_105:\n    /* \"#utility.yul\":1699:1736   */\ntag_104:\n    /* \"#utility.yul\":1549:1743   */\n  swap3\n  swap2\n  pop\n  pop\n  jump\t// out\n    /* \"#utility.yul\":1749:1929   */\ntag_10:\n    /* \"#utility.yul\":1797:1874   */\n  0x4e487b7100000000000000000000000000000000000000000000000000000000\n    /* \"#utility.yul\":1794:1795   */\n  0x00\n    /* \"#utility.yul\":1787:1875   */\n  mstore\n    /* \"#utility.yul\":1894:1898   */\n  0x41\n    /* \"#utility.yul\":1891:1892   */\n  0x04\n    /* \"#utility.yul\":1884:1899   */\n  mstore\n    /* \"#utility.yul\":1918:1922   */\n  0x24\n    /* \"#utility.yul\":1915:1916   */\n  0x00\n    /* \"#utility.yul\":1908:1923   */\n  revert\n    /* \"#utility.yul\":1935:2014   */\ntag_78:\n    /* \"#utility.yul\":1974:1981   */\n  0x00\n    /* \"#utility.yul\":2003:2008   */\n  dup2\n    /* \"#utility.yul\":1992:2008   */\n  swap1\n  pop\n    /* \"#utility.yul\":1935:2014   */\n  swap2\n  swap1\n  pop\n  jump\t// out\n    /* \"#utility.yul\":2020:2177   */\ntag_79:\n    /* \"#utility.yul\":2125:2170   */\n  tag_109\n    /* \"#utility.yul\":2145:2169   */\n  tag_110\n    /* \"#utility.yul\":2163:2168   */\n  dup3\n    /* \"#utility.yul\":2145:2169   */\n  tag_74\n  jump\t// in\ntag_110:\n    /* \"#utility.yul\":2125:2170   */\n  tag_78\n  jump\t// in\ntag_109:\n    /* \"#utility.yul\":2120:2123   */\n  dup3\n    /* \"#utility.yul\":2113:2171   */\n  mstore\n    /* \"#utility.yul\":2020:2177   */\n  pop\n  pop\n  jump\t// out\n    /* \"#utility.yul\":2183:2439   */\ntag_17:\n    /* \"#utility.yul\":2295:2298   */\n  0x00\n    /* \"#utility.yul\":2310:2385   */\n  tag_112\n    /* \"#utility.yul\":2381:2384   */\n  dup3\n    /* \"#utility.yul\":2372:2378   */\n  dup5\n    /* \"#utility.yul\":2310:2385   */\n  tag_79\n  jump\t// in\ntag_112:\n    /* \"#utility.yul\":2410:2412   */\n  0x20\n    /* \"#utility.yul\":2405:2408   */\n  dup3\n    /* \"#utility.yul\":2401:2413   */\n  add\n    /* \"#utility.yul\":2394:2413   */\n  swap2\n  pop\n    /* \"#utility.yul\":2430:2433   */\n  dup2\n    /* \"#utility.yul\":2423:2433   */\n  swap1\n  pop\n    /* \"#utility.yul\":2183:2439   */\n  swap3\n  swap2\n  pop\n  pop\n  jump\t// out\n    /* \"#utility.yul\":2445:2625   */\ntag_80:\n    /* \"#utility.yul\":2493:2570   */\n  0x4e487b7100000000000000000000000000000000000000000000000000000000\n    /* \"#utility.yul\":2490:2491   */\n  0x00\n    /* \"#utility.yul\":2483:2571   */\n  mstore\n    /* \"#utility.yul\":2590:2594   */\n  0x12\n    /* \"#utility.yul\":2587:2588   */\n  0x04\n    /* \"#utility.yul\":2580:2595   */\n  mstore\n    /* \"#utility.yul\":2614:2618   */\n  0x24\n    /* \"#utility.yul\":2611:2612   */\n  0x00\n    /* \"#utility.yul\":2604:2619   */\n  revert\n    /* \"#utility.yul\":2631:2807   */\ntag_19:\n    /* \"#utility.yul\":2663:2664   */\n  0x00\n    /* \"#utility.yul\":2680:2700   */\n  tag_115\n    /* \"#utility.yul\":2698:2699   */\n  dup3\n    /* \"#utility.yul\":2680:2700   */\n  tag_74\n  jump\t// in\ntag_115:\n    /* \"#utility.yul\":2675:2700   */\n  swap2\n  pop\n    /* \"#utility.yul\":2714:2734   */\n  tag_116\n    /* \"#utility.yul\":2732:2733   */\n  dup4\n    /* \"#utility.yul\":2714:2734   */\n  tag_74\n  jump\t// in\ntag_116:\n    /* \"#utility.yul\":2709:2734   */\n  swap3\n  pop\n    /* \"#utility.yul\":2753:2754   */\n  dup3\n    /* \"#utility.yul\":2743:2778   */\n  tag_117\n  jumpi\n    /* \"#utility.yul\":2758:2776   */\n  tag_118\n  tag_80\n  jump\t// in\ntag_118:\n    /* \"#utility.yul\":2743:2778   */\ntag_117:\n    /* \"#utility.yul\":2799:2800   */\n  dup3\n    /* \"#utility.yul\":2796:2797   */\n  dup3\n    /* \"#utility.yul\":2792:2801   */\n  mod\n    /* \"#utility.yul\":2787:2801   */\n  swap1\n  pop\n    /* \"#utility.yul\":2631:2807   */\n  swap3\n  swap2\n  pop\n  pop\n  jump\t// out\n    /* \"#utility.yul\":2813:3004   */\ntag_25:\n    /* \"#utility.yul\":2853:2856   */\n  0x00\n    /* \"#utility.yul\":2872:2892   */\n  tag_120\n    /* \"#utility.yul\":2890:2891   */\n  dup3\n    /* \"#utility.yul\":2872:2892   */\n  tag_74\n  jump\t// in\ntag_120:\n    /* \"#utility.yul\":2867:2892   */\n  swap2\n  pop\n    /* \"#utility.yul\":2906:2926   */\n  tag_121\n    /* \"#utility.yul\":2924:2925   */\n  dup4\n    /* \"#utility.yul\":2906:2926   */\n  tag_74\n  jump\t// in\ntag_121:\n    /* \"#utility.yul\":2901:2926   */\n  swap3\n  pop\n    /* \"#utility.yul\":2949:2950   */\n  dup3\n    /* \"#utility.yul\":2946:2947   */\n  dup3\n    /* \"#utility.yul\":2942:2951   */\n  add\n    /* \"#utility.yul\":2935:2951   */\n  swap1\n  pop\n    /* \"#utility.yul\":2970:2973   */\n  dup1\n    /* \"#utility.yul\":2967:2968   */\n  dup3\n    /* \"#utility.yul\":2964:2974   */\n  gt\n    /* \"#utility.yul\":2961:2997   */\n  iszero\n  tag_122\n  jumpi\n    /* \"#utility.yul\":2977:2995   */\n  tag_123\n  tag_77\n  jump\t// in\ntag_123:\n    /* \"#utility.yul\":2961:2997   */\ntag_122:\n    /* \"#utility.yul\":2813:3004   */\n  swap3\n  swap2\n  pop\n  pop\n  jump\t// out\n    /* \"#utility.yul\":3010:3190   */\ntag_30:\n    /* \"#utility.yul\":3058:3135   */\n  0x4e487b7100000000000000000000000000000000000000000000000000000000\n    /* \"#utility.yul\":3055:3056   */\n  0x00\n    /* \"#utility.yul\":3048:3136   */\n  mstore\n    /* \"#utility.yul\":3155:3159   */\n  0x32\n    /* \"#utility.yul\":3152:3153   */\n  0x04\n    /* \"#utility.yul\":3145:3160   */\n  mstore\n    /* \"#utility.yul\":3179:3183   */\n  0x24\n    /* \"#utility.yul\":3176:3177   */\n  0x00\n    /* \"#utility.yul\":3169:3184   */\n  revert\n    /* \"#utility.yul\":3196:3298   */\ntag_81:\n    /* \"#utility.yul\":3238:3246   */\n  0x00\n    /* \"#utility.yul\":3285:3290   */\n  dup2\n    /* \"#utility.yul\":3282:3283   */\n  0x01\n    /* \"#utility.yul\":3278:3291   */\n  shr\n    /* \"#utility.yul\":3257:3291   */\n  swap1\n  pop\n    /* \"#utility.yul\":3196:3298   */\n  swap2\n  swap1\n  pop\n  jump\t// out\n    /* \"#utility.yul\":3304:4152   */\ntag_82:\n    /* \"#utility.yul\":3365:3370   */\n  0x00\n    /* \"#utility.yul\":3372:3376   */\n  dup1\n    /* \"#utility.yul\":3396:3402   */\n  dup3\n    /* \"#utility.yul\":3387:3402   */\n  swap2\n  pop\n    /* \"#utility.yul\":3420:3425   */\n  dup4\n    /* \"#utility.yul\":3411:3425   */\n  swap1\n  pop\n    /* \"#utility.yul\":3434:4146   */\ntag_127:\n    /* \"#utility.yul\":3455:3456   */\n  0x01\n    /* \"#utility.yul\":3445:3453   */\n  dup6\n    /* \"#utility.yul\":3442:3457   */\n  gt\n    /* \"#utility.yul\":3434:4146   */\n  iszero\n  tag_129\n  jumpi\n    /* \"#utility.yul\":3550:3554   */\n  dup1\n    /* \"#utility.yul\":3545:3548   */\n  dup7\n    /* \"#utility.yul\":3541:3555   */\n  div\n    /* \"#utility.yul\":3535:3539   */\n  dup2\n    /* \"#utility.yul\":3532:3556   */\n  gt\n    /* \"#utility.yul\":3529:3579   */\n  iszero\n  tag_130\n  jumpi\n    /* \"#utility.yul\":3559:3577   */\n  tag_131\n  tag_77\n  jump\t// in\ntag_131:\n    /* \"#utility.yul\":3529:3579   */\ntag_130:\n    /* \"#utility.yul\":3609:3610   */\n  0x01\n    /* \"#utility.yul\":3599:3607   */\n  dup6\n    /* \"#utility.yul\":3595:3611   */\n  and\n    /* \"#utility.yul\":3592:4043   */\n  iszero\n  tag_132\n  jumpi\n    /* \"#utility.yul\":4024:4028   */\n  dup1\n    /* \"#utility.yul\":4017:4022   */\n  dup3\n    /* \"#utility.yul\":4013:4029   */\n  mul\n    /* \"#utility.yul\":4004:4029   */\n  swap2\n  pop\n    /* \"#utility.yul\":3592:4043   */\ntag_132:\n    /* \"#utility.yul\":4074:4078   */\n  dup1\n    /* \"#utility.yul\":4068:4072   */\n  dup2\n    /* \"#utility.yul\":4064:4079   */\n  mul\n    /* \"#utility.yul\":4056:4079   */\n  swap1\n  pop\n    /* \"#utility.yul\":4104:4136   */\n  tag_133\n    /* \"#utility.yul\":4127:4135   */\n  dup6\n    /* \"#utility.yul\":4104:4136   */\n  tag_81\n  jump\t// in\ntag_133:\n    /* \"#utility.yul\":4092:4136   */\n  swap5\n  pop\n    /* \"#utility.yul\":3434:4146   */\n  jump(tag_127)\ntag_129:\n    /* \"#utility.yul\":3304:4152   */\n  swap5\n  pop\n  swap5\n  swap3\n  pop\n  pop\n  pop\n  jump\t// out\n    /* \"#utility.yul\":4158:5231   */\ntag_83:\n    /* \"#utility.yul\":4212:4217   */\n  0x00\n    /* \"#utility.yul\":4403:4411   */\n  dup3\n    /* \"#utility.yul\":4393:4433   */\n  tag_135\n  jumpi\n    /* \"#utility.yul\":4424:4425   */\n  0x01\n    /* \"#utility.yul\":4415:4425   */\n  swap1\n  pop\n    /* \"#utility.yul\":4426:4431   */\n  jump(tag_134)\n    /* \"#utility.yul\":4393:4433   */\ntag_135:\n    /* \"#utility.yul\":4452:4456   */\n  dup2\n    /* \"#utility.yul\":4442:4478   */\n  tag_136\n  jumpi\n    /* \"#utility.yul\":4469:4470   */\n  0x00\n    /* \"#utility.yul\":4460:4470   */\n  swap1\n  pop\n    /* \"#utility.yul\":4471:4476   */\n  jump(tag_134)\n    /* \"#utility.yul\":4442:4478   */\ntag_136:\n    /* \"#utility.yul\":4538:4542   */\n  dup2\n    /* \"#utility.yul\":4586:4587   */\n  0x01\n    /* \"#utility.yul\":4581:4608   */\n  dup2\n  eq\n  tag_138\n  jumpi\n    /* \"#utility.yul\":4622:4623   */\n  0x02\n    /* \"#utility.yul\":4617:4808   */\n  dup2\n  eq\n  tag_139\n  jumpi\n    /* \"#utility.yul\":4531:4808   */\n  jump(tag_137)\n    /* \"#utility.yul\":4581:4608   */\ntag_138:\n    /* \"#utility.yul\":4599:4600   */\n  0x01\n    /* \"#utility.yul\":4590:4600   */\n  swap2\n  pop\n    /* \"#utility.yul\":4601:4606   */\n  pop\n  jump(tag_134)\n    /* \"#utility.yul\":4617:4808   */\ntag_139:\n    /* \"#utility.yul\":4662:4665   */\n  0xff\n    /* \"#utility.yul\":4652:4660   */\n  dup5\n    /* \"#utility.yul\":4649:4666   */\n  gt\n    /* \"#utility.yul\":4646:4689   */\n  iszero\n  tag_140\n  jumpi\n    /* \"#utility.yul\":4669:4687   */\n  tag_141\n  tag_77\n  jump\t// in\ntag_141:\n    /* \"#utility.yul\":4646:4689   */\ntag_140:\n    /* \"#utility.yul\":4718:4726   */\n  dup4\n    /* \"#utility.yul\":4715:4716   */\n  0x02\n    /* \"#utility.yul\":4711:4727   */\n  exp\n    /* \"#utility.yul\":4702:4727   */\n  swap2\n  pop\n    /* \"#utility.yul\":4753:4756   */\n  dup5\n    /* \"#utility.yul\":4746:4751   */\n  dup3\n    /* \"#utility.yul\":4743:4757   */\n  gt\n    /* \"#utility.yul\":4740:4780   */\n  iszero\n  tag_142\n  jumpi\n    /* \"#utility.yul\":4760:4778   */\n  tag_143\n  tag_77\n  jump\t// in\ntag_143:\n    /* \"#utility.yul\":4740:4780   */\ntag_142:\n    /* \"#utility.yul\":4793:4798   */\n  pop\n  jump(tag_134)\n    /* \"#utility.yul\":4531:4808   */\ntag_137:\n  pop\n    /* \"#utility.yul\":4917:4919   */\n  0x20\n    /* \"#utility.yul\":4907:4915   */\n  dup4\n    /* \"#utility.yul\":4904:4920   */\n  lt\n    /* \"#utility.yul\":4898:4901   */\n  0x0133\n    /* \"#utility.yul\":4892:4896   */\n  dup4\n    /* \"#utility.yul\":4889:4902   */\n  lt\n    /* \"#utility.yul\":4885:4921   */\n  and\n    /* \"#utility.yul\":4867:4869   */\n  0x4e\n    /* \"#utility.yul\":4857:4865   */\n  dup5\n    /* \"#utility.yul\":4854:4870   */\n  lt\n    /* \"#utility.yul\":4849:4851   */\n  0x0b\n    /* \"#utility.yul\":4843:4847   */\n  dup5\n    /* \"#utility.yul\":4840:4852   */\n  lt\n    /* \"#utility.yul\":4836:4871   */\n  and\n    /* \"#utility.yul\":4820:4931   */\n  or\n    /* \"#utility.yul\":4817:5063   */\n  iszero\n  tag_144\n  jumpi\n    /* \"#utility.yul\":4973:4981   */\n  dup3\n    /* \"#utility.yul\":4967:4971   */\n  dup3\n    /* \"#utility.yul\":4963:4982   */\n  exp\n    /* \"#utility.yul\":4954:4982   */\n  swap1\n  pop\n    /* \"#utility.yul\":5008:5011   */\n  dup4\n    /* \"#utility.yul\":5001:5006   */\n  dup2\n    /* \"#utility.yul\":4998:5012   */\n  gt\n    /* \"#utility.yul\":4995:5035   */\n  iszero\n  tag_145\n  jumpi\n    /* \"#utility.yul\":5015:5033   */\n  tag_146\n  tag_77\n  jump\t// in\ntag_146:\n    /* \"#utility.yul\":4995:5035   */\ntag_145:\n    /* \"#utility.yul\":5048:5053   */\n  jump(tag_134)\n    /* \"#utility.yul\":4817:5063   */\ntag_144:\n    /* \"#utility.yul\":5088:5130   */\n  tag_147\n    /* \"#utility.yul\":5126:5129   */\n  dup5\n    /* \"#utility.yul\":5116:5124   */\n  dup5\n    /* \"#utility.yul\":5110:5114   */\n  dup5\n    /* \"#utility.yul\":5107:5108   */\n  0x01\n    /* \"#utility.yul\":5088:5130   */\n  tag_82\n  jump\t// in\ntag_147:\n    /* \"#utility.yul\":5073:5130   */\n  swap3\n  pop\n  swap1\n  pop\n    /* \"#utility.yul\":5162:5166   */\n  dup2\n    /* \"#utility.yul\":5157:5160   */\n  dup5\n    /* \"#utility.yul\":5153:5167   */\n  div\n    /* \"#utility.yul\":5146:5151   */\n  dup2\n    /* \"#utility.yul\":5143:5168   */\n  gt\n    /* \"#utility.yul\":5140:5191   */\n  iszero\n  tag_148\n  jumpi\n    /* \"#utility.yul\":5171:5189   */\n  tag_149\n  tag_77\n  jump\t// in\ntag_149:\n    /* \"#utility.yul\":5140:5191   */\ntag_148:\n    /* \"#utility.yul\":5220:5224   */\n  dup2\n    /* \"#utility.yul\":5213:5218   */\n  dup2\n    /* \"#utility.yul\":5209:5225   */\n  mul\n    /* \"#utility.yul\":5200:5225   */\n  swap1\n  pop\n    /* \"#utility.yul\":4158:5231   */\ntag_134:\n  swap4\n  swap3\n  pop\n  pop\n  pop\n  jump\t// out\n    /* \"#utility.yul\":5237:5522   */\ntag_35:\n    /* \"#utility.yul\":5297:5302   */\n  0x00\n    /* \"#utility.yul\":5321:5344   */\n  tag_151\n    /* \"#utility.yul\":5339:5343   */\n  dup3\n    /* \"#utility.yul\":5321:5344   */\n  tag_74\n  jump\t// in\ntag_151:\n    /* \"#utility.yul\":5313:5344   */\n  swap2\n  pop\n    /* \"#utility.yul\":5365:5392   */\n  tag_152\n    /* \"#utility.yul\":5383:5391   */\n  dup4\n    /* \"#utility.yul\":5365:5392   */\n  tag_74\n  jump\t// in\ntag_152:\n    /* \"#utility.yul\":5353:5392   */\n  swap3\n  pop\n    /* \"#utility.yul\":5411:5515   */\n  tag_153\n    /* \"#utility.yul\":5448:5514   */\n  0xffffffffffffffffffffffffffffffffffffffffffffffffffffffffffffffff\n    /* \"#utility.yul\":5438:5446   */\n  dup5\n    /* \"#utility.yul\":5432:5436   */\n  dup5\n    /* \"#utility.yul\":5411:5515   */\n  tag_83\n  jump\t// in\ntag_153:\n    /* \"#utility.yul\":5402:5515   */\n  swap1\n  pop\n    /* \"#utility.yul\":5237:5522   */\n  swap3\n  swap2\n  pop\n  pop\n  jump\t// out\n    /* \"#utility.yul\":5528:5938   */\ntag_57:\n    /* \"#utility.yul\":5568:5575   */\n  0x00\n    /* \"#utility.yul\":5591:5611   */\n  tag_155\n    /* \"#utility.yul\":5609:5610   */\n  dup3\n    /* \"#utility.yul\":5591:5611   */\n  tag_74\n  jump\t// in\ntag_155:\n    /* \"#utility.yul\":5586:5611   */\n  swap2\n  pop\n    /* \"#utility.yul\":5625:5645   */\n  tag_156\n    /* \"#utility.yul\":5643:5644   */\n  dup4\n    /* \"#utility.yul\":5625:5645   */\n  tag_74\n  jump\t// in\ntag_156:\n    /* \"#utility.yul\":5620:5645   */\n  swap3\n  pop\n    /* \"#utility.yul\":5680:5681   */\n  dup3\n    /* \"#utility.yul\":5677:5678   */\n  dup3\n    /* \"#utility.yul\":5673:5682   */\n  mul\n    /* \"#utility.yul\":5702:5732   */\n  tag_157\n    /* \"#utility.yul\":5720:5731   */\n  dup2\n    /* \"#utility.yul\":5702:5732   */\n  tag_74\n  jump\t// in\ntag_157:\n    /* \"#utility.yul\":5691:5732   */\n  swap2\n  pop\n    /* \"#utility.yul\":5881:5882   */\n  dup3\n    /* \"#utility.yul\":5872:5879   */\n  dup3\n    /* \"#utility.yul\":5868:5883   */\n  div\n    /* \"#utility.yul\":5865:5866   */\n  dup5\n    /* \"#utility.yul\":5862:5884   */\n  eq\n    /* \"#utility.yul\":5842:5843   */\n  dup4\n    /* \"#utility.yul\":5835:5844   */\n  iszero\n    /* \"#utility.yul\":5815:5898   */\n  or\n    /* \"#utility.yul\":5792:5931   */\n  tag_158\n  jumpi\n    /* \"#utility.yul\":5911:5929   */\n  tag_159\n  tag_77\n  jump\t// in\ntag_159:\n    /* \"#utility.yul\":5792:5931   */\ntag_158:\n    /* \"#utility.yul\":5576:5938   */\n  pop\n    /* \"#utility.yul\":5528:5938   */\n  swap3\n  swap2\n  pop\n  pop\n  jump\t// out\n    /* \"contracts/HelloWorld6.sol\":57:3828  contract ShareDistribution {... */\ntag_32:\n  dataSize(sub_0)\n  dup1\n  dataOffset(sub_0)\n  0x00\n  codecopy\n  0x00\n  return\nstop\n\nsub_0: assembly {\n        /* \"contracts/HelloWorld6.sol\":57:3828  contract ShareDistribution {... */\n      mstore(0x40, 0x80)\n      callvalue\n      dup1\n      iszero\n      tag_1\n      jumpi\n      0x00\n      dup1\n      revert\n    tag_1:\n      pop\n      jumpi(tag_2, lt(calldatasize, 0x04))\n      shr(0xe0, calldataload(0x00))\n      dup1\n      0x1d55bcd0\n      eq\n      tag_3\n      jumpi\n      dup1\n      0x26ecb26c\n      eq\n      tag_4\n      jumpi\n      dup1\n      0x2c29fe7e\n      eq\n      tag_5\n      jumpi\n      dup1\n      0x498edc2d\n      eq\n      tag_6\n      jumpi\n    tag_2:\n      0x00\n      dup1\n      revert\n        /* \"contracts/HelloWorld6.sol\":1914:2548  function reConstruction(uint256[] memory indices) public view returns (uint256) {... */\n    tag_3:\n      tag_7\n      0x04\n      dup1\n      calldatasize\n      sub\n      dup2\n      add\n      swap1\n      tag_8\n      swap2\n      swap1\n      tag_9\n      jump\t// in\n    tag_8:\n      tag_10\n      jump\t// in\n    tag_7:\n      mload(0x40)\n      tag_11\n      swap2\n      swap1\n      tag_12\n      jump\t// in\n    tag_11:\n      mload(0x40)\n      dup1\n      swap2\n      sub\n      swap1\n      return\n        /* \"contracts/HelloWorld6.sol\":1220:1628  function constructShare() public {... */\n    tag_4:\n      tag_13\n      tag_14\n      jump\t// in\n    tag_13:\n      stop\n        /* \"contracts/HelloWorld6.sol\":1072:1210  function displayParameter() public view returns (uint256, uint256, uint256[] memory) {... */\n    tag_5:\n      tag_15\n      tag_16\n      jump\t// in\n    tag_15:\n      mload(0x40)\n      tag_17\n      swap4\n      swap3\n      swap2\n      swap1\n      tag_18\n      jump\t// in\n    tag_17:\n      mload(0x40)\n      dup1\n      swap2\n      sub\n      swap1\n      return\n        /* \"contracts/HelloWorld6.sol\":1638:1904  function displayShares() public view returns (uint256[] memory) {... */\n    tag_6:\n      tag_19\n      tag_20\n      jump\t// in\n    tag_19:\n      mload(0x40)\n      tag_21\n      swap2\n      swap1\n      tag_22\n      jump\t// in\n    tag_21:\n      mload(0x40)\n      dup1\n      swap2\n      sub\n      swap1\n      return\n        /* \"contracts/HelloWorld6.sol\":1914:2548  function reConstruction(uint256[] memory indices) public view returns (uint256) {... */\n    tag_10:\n        /* \"contracts/HelloWorld6.sol\":1985:1992  uint256 */\n      0x00\n        /* \"contracts/HelloWorld6.sol\":2030:2039  threshold */\n      sload(0x04)\n        /* \"contracts/HelloWorld6.sol\":2012:2019  indices */\n      dup3\n        /* \"contracts/HelloWorld6.sol\":2012:2026  indices.length */\n      mload\n        /* \"contracts/HelloWorld6.sol\":2012:2039  indices.length >= threshold */\n      lt\n      iszero\n        /* \"contracts/HelloWorld6.sol\":2004:2073  require(indices.length >= threshold, \"Insufficient shares provided.\") */\n      tag_24\n      jumpi\n      mload(0x40)\n      0x08c379a000000000000000000000000000000000000000000000000000000000\n      dup2\n      mstore\n      0x04\n      add\n      tag_25\n      swap1\n      tag_26\n      jump\t// in\n    tag_25:\n      mload(0x40)\n      dup1\n      swap2\n      sub\n      swap1\n      revert\n    tag_24:\n        /* \"contracts/HelloWorld6.sol\":2092:2111  uint256 shareRecons */\n      0x00\n        /* \"contracts/HelloWorld6.sol\":2130:2139  uint256 i */\n      dup1\n        /* \"contracts/HelloWorld6.sol\":2125:2506  for (uint256 i = 0; i < threshold; i++) {... */\n    tag_27:\n        /* \"contracts/HelloWorld6.sol\":2149:2158  threshold */\n      sload(0x04)\n        /* \"contracts/HelloWorld6.sol\":2145:2146  i */\n      dup2\n        /* \"contracts/HelloWorld6.sol\":2145:2158  i < threshold */\n      lt\n        /* \"contracts/HelloWorld6.sol\":2125:2506  for (uint256 i = 0; i < threshold; i++) {... */\n      iszero\n      tag_28\n      jumpi\n        /* \"contracts/HelloWorld6.sol\":2179:2191  uint256 term */\n      0x00\n        /* \"contracts/HelloWorld6.sol\":2194:2204  partyShare */\n      0x03\n        /* \"contracts/HelloWorld6.sol\":2194:2216  partyShare[indices[i]] */\n      0x00\n        /* \"contracts/HelloWorld6.sol\":2205:2212  indices */\n      dup7\n        /* \"contracts/HelloWorld6.sol\":2213:2214  i */\n      dup5\n        /* \"contracts/HelloWorld6.sol\":2205:2215  indices[i] */\n      dup2\n      mload\n      dup2\n      lt\n      tag_30\n      jumpi\n      tag_31\n      tag_32\n      jump\t// in\n    tag_31:\n    tag_30:\n      0x20\n      mul\n      0x20\n      add\n      add\n      mload\n        /* \"contracts/HelloWorld6.sol\":2194:2216  partyShare[indices[i]] */\n      dup2\n      mstore\n      0x20\n      add\n      swap1\n      dup2\n      mstore\n      0x20\n      add\n      0x00\n      keccak256\n      sload\n        /* \"contracts/HelloWorld6.sol\":2179:2216  uint256 term = partyShare[indices[i]] */\n      swap1\n      pop\n        /* \"contracts/HelloWorld6.sol\":2235:2244  uint256 j */\n      0x00\n        /* \"contracts/HelloWorld6.sol\":2230:2463  for (uint256 j = 0; j < threshold; j++) {... */\n    tag_33:\n        /* \"contracts/HelloWorld6.sol\":2254:2263  threshold */\n      sload(0x04)\n        /* \"contracts/HelloWorld6.sol\":2250:2251  j */\n      dup2\n        /* \"contracts/HelloWorld6.sol\":2250:2263  j < threshold */\n      lt\n        /* \"contracts/HelloWorld6.sol\":2230:2463  for (uint256 j = 0; j < threshold; j++) {... */\n      iszero\n      tag_34\n      jumpi\n        /* \"contracts/HelloWorld6.sol\":2297:2298  j */\n      dup1\n        /* \"contracts/HelloWorld6.sol\":2292:2293  i */\n      dup4\n        /* \"contracts/HelloWorld6.sol\":2292:2298  i != j */\n      eq\n        /* \"contracts/HelloWorld6.sol\":2288:2449  if (i != j) {... */\n      tag_36\n      jumpi\n        /* \"contracts/HelloWorld6.sol\":2353:2395  modInverse(indices[i] - indices[j], prime) */\n      tag_37\n        /* \"contracts/HelloWorld6.sol\":2377:2384  indices */\n      dup7\n        /* \"contracts/HelloWorld6.sol\":2385:2386  j */\n      dup3\n        /* \"contracts/HelloWorld6.sol\":2377:2387  indices[j] */\n      dup2\n      mload\n      dup2\n      lt\n      tag_38\n      jumpi\n      tag_39\n      tag_32\n      jump\t// in\n    tag_39:\n    tag_38:\n      0x20\n      mul\n      0x20\n      add\n      add\n      mload\n        /* \"contracts/HelloWorld6.sol\":2364:2371  indices */\n      dup8\n        /* \"contracts/HelloWorld6.sol\":2372:2373  i */\n      dup6\n        /* \"contracts/HelloWorld6.sol\":2364:2374  indices[i] */\n      dup2\n      mload\n      dup2\n      lt\n      tag_40\n      jumpi\n      tag_41\n      tag_32\n      jump\t// in\n    tag_41:\n    tag_40:\n      0x20\n      mul\n      0x20\n      add\n      add\n      mload\n        /* \"contracts/HelloWorld6.sol\":2364:2387  indices[i] - indices[j] */\n      tag_42\n      swap2\n      swap1\n      tag_43\n      jump\t// in\n    tag_42:\n        /* \"contracts/HelloWorld6.sol\":2389:2394  prime */\n      sload(0x00)\n        /* \"contracts/HelloWorld6.sol\":2353:2363  modInverse */\n      tag_44\n        /* \"contracts/HelloWorld6.sol\":2353:2395  modInverse(indices[i] - indices[j], prime) */\n      jump\t// in\n    tag_37:\n        /* \"contracts/HelloWorld6.sol\":2339:2346  indices */\n      dup7\n        /* \"contracts/HelloWorld6.sol\":2347:2348  j */\n      dup3\n        /* \"contracts/HelloWorld6.sol\":2339:2349  indices[j] */\n      dup2\n      mload\n      dup2\n      lt\n      tag_45\n      jumpi\n      tag_46\n      tag_32\n      jump\t// in\n    tag_46:\n    tag_45:\n      0x20\n      mul\n      0x20\n      add\n      add\n      mload\n        /* \"contracts/HelloWorld6.sol\":2331:2336  prime */\n      sload(0x00)\n        /* \"contracts/HelloWorld6.sol\":2331:2349  prime - indices[j] */\n      tag_47\n      swap2\n      swap1\n      tag_43\n      jump\t// in\n    tag_47:\n        /* \"contracts/HelloWorld6.sol\":2330:2395  (prime - indices[j]) * modInverse(indices[i] - indices[j], prime) */\n      tag_48\n      swap2\n      swap1\n      tag_49\n      jump\t// in\n    tag_48:\n        /* \"contracts/HelloWorld6.sol\":2322:2395  term *= (prime - indices[j]) * modInverse(indices[i] - indices[j], prime) */\n      dup3\n      tag_50\n      swap2\n      swap1\n      tag_49\n      jump\t// in\n    tag_50:\n      swap2\n      pop\n        /* \"contracts/HelloWorld6.sol\":2425:2430  prime */\n      sload(0x00)\n        /* \"contracts/HelloWorld6.sol\":2417:2430  term %= prime */\n      dup3\n      tag_51\n      swap2\n      swap1\n      tag_52\n      jump\t// in\n    tag_51:\n      swap2\n      pop\n        /* \"contracts/HelloWorld6.sol\":2288:2449  if (i != j) {... */\n    tag_36:\n        /* \"contracts/HelloWorld6.sol\":2265:2268  j++ */\n      dup1\n      dup1\n      0x01\n      add\n      swap2\n      pop\n      pop\n        /* \"contracts/HelloWorld6.sol\":2230:2463  for (uint256 j = 0; j < threshold; j++) {... */\n      jump(tag_33)\n    tag_34:\n      pop\n        /* \"contracts/HelloWorld6.sol\":2491:2495  term */\n      dup1\n        /* \"contracts/HelloWorld6.sol\":2476:2495  shareRecons += term */\n      dup4\n      tag_53\n      swap2\n      swap1\n      tag_54\n      jump\t// in\n    tag_53:\n      swap3\n      pop\n        /* \"contracts/HelloWorld6.sol\":2165:2506  {... */\n      pop\n        /* \"contracts/HelloWorld6.sol\":2160:2163  i++ */\n      dup1\n      dup1\n      0x01\n      add\n      swap2\n      pop\n      pop\n        /* \"contracts/HelloWorld6.sol\":2125:2506  for (uint256 i = 0; i < threshold; i++) {... */\n      jump(tag_27)\n    tag_28:\n      pop\n        /* \"contracts/HelloWorld6.sol\":2536:2541  prime */\n      sload(0x00)\n        /* \"contracts/HelloWorld6.sol\":2522:2533  shareRecons */\n      dup2\n        /* \"contracts/HelloWorld6.sol\":2522:2541  shareRecons % prime */\n      tag_55\n      swap2\n      swap1\n      tag_52\n      jump\t// in\n    tag_55:\n        /* \"contracts/HelloWorld6.sol\":2515:2541  return shareRecons % prime */\n      swap2\n      pop\n      pop\n        /* \"contracts/HelloWorld6.sol\":1914:2548  function reConstruction(uint256[] memory indices) public view returns (uint256) {... */\n      swap2\n      swap1\n      pop\n      jump\t// out\n        /* \"contracts/HelloWorld6.sol\":1220:1628  function constructShare() public {... */\n    tag_14:\n        /* \"contracts/HelloWorld6.sol\":1268:1277  uint256 j */\n      0x00\n        /* \"contracts/HelloWorld6.sol\":1280:1281  1 */\n      0x01\n        /* \"contracts/HelloWorld6.sol\":1268:1281  uint256 j = 1 */\n      swap1\n      pop\n        /* \"contracts/HelloWorld6.sol\":1263:1622  for (uint256 j = 1; j <= numberOfParty; j++) {... */\n    tag_57:\n        /* \"contracts/HelloWorld6.sol\":1288:1301  numberOfParty */\n      sload(0x02)\n        /* \"contracts/HelloWorld6.sol\":1283:1284  j */\n      dup2\n        /* \"contracts/HelloWorld6.sol\":1283:1301  j <= numberOfParty */\n      gt\n        /* \"contracts/HelloWorld6.sol\":1263:1622  for (uint256 j = 1; j <= numberOfParty; j++) {... */\n      tag_58\n      jumpi\n        /* \"contracts/HelloWorld6.sol\":1322:1335  uint256 index */\n      0x00\n        /* \"contracts/HelloWorld6.sol\":1338:1339  j */\n      dup2\n        /* \"contracts/HelloWorld6.sol\":1322:1339  uint256 index = j */\n      swap1\n      pop\n        /* \"contracts/HelloWorld6.sol\":1353:1366  uint256 share */\n      0x00\n        /* \"contracts/HelloWorld6.sol\":1389:1398  uint256 i */\n      dup1\n        /* \"contracts/HelloWorld6.sol\":1384:1558  for (uint256 i = 0; i < threshold - 1; i++) {... */\n    tag_60:\n        /* \"contracts/HelloWorld6.sol\":1420:1421  1 */\n      0x01\n        /* \"contracts/HelloWorld6.sol\":1408:1417  threshold */\n      sload(0x04)\n        /* \"contracts/HelloWorld6.sol\":1408:1421  threshold - 1 */\n      tag_63\n      swap2\n      swap1\n      tag_43\n      jump\t// in\n    tag_63:\n        /* \"contracts/HelloWorld6.sol\":1404:1405  i */\n      dup2\n        /* \"contracts/HelloWorld6.sol\":1404:1421  i < threshold - 1 */\n      lt\n        /* \"contracts/HelloWorld6.sol\":1384:1558  for (uint256 i = 0; i < threshold - 1; i++) {... */\n      iszero\n      tag_61\n      jumpi\n        /* \"contracts/HelloWorld6.sol\":1506:1511  prime */\n      sload(0x00)\n        /* \"contracts/HelloWorld6.sol\":1500:1501  i */\n      dup2\n        /* \"contracts/HelloWorld6.sol\":1496:1497  1 */\n      0x01\n        /* \"contracts/HelloWorld6.sol\":1484:1493  threshold */\n      sload(0x04)\n        /* \"contracts/HelloWorld6.sol\":1484:1497  threshold - 1 */\n      tag_64\n      swap2\n      swap1\n      tag_43\n      jump\t// in\n    tag_64:\n        /* \"contracts/HelloWorld6.sol\":1484:1501  threshold - 1 - i */\n      tag_65\n      swap2\n      swap1\n      tag_43\n      jump\t// in\n    tag_65:\n        /* \"contracts/HelloWorld6.sol\":1474:1479  index */\n      dup5\n        /* \"contracts/HelloWorld6.sol\":1474:1502  index ** (threshold - 1 - i) */\n      tag_66\n      swap2\n      swap1\n      tag_67\n      jump\t// in\n    tag_66:\n        /* \"contracts/HelloWorld6.sol\":1456:1468  coefficients */\n      0x05\n        /* \"contracts/HelloWorld6.sol\":1469:1470  i */\n      dup4\n        /* \"contracts/HelloWorld6.sol\":1456:1471  coefficients[i] */\n      dup2\n      sload\n      dup2\n      lt\n      tag_68\n      jumpi\n      tag_69\n      tag_32\n      jump\t// in\n    tag_69:\n    tag_68:\n      swap1\n      0x00\n      mstore\n      keccak256(0x00, 0x20)\n      add\n      sload\n        /* \"contracts/HelloWorld6.sol\":1456:1502  coefficients[i] * index ** (threshold - 1 - i) */\n      tag_71\n      swap2\n      swap1\n      tag_49\n      jump\t// in\n    tag_71:\n        /* \"contracts/HelloWorld6.sol\":1455:1511  (coefficients[i] * index ** (threshold - 1 - i)) % prime */\n      tag_72\n      swap2\n      swap1\n      tag_52\n      jump\t// in\n    tag_72:\n        /* \"contracts/HelloWorld6.sol\":1446:1511  share += (coefficients[i] * index ** (threshold - 1 - i)) % prime */\n      dup3\n      tag_73\n      swap2\n      swap1\n      tag_54\n      jump\t// in\n    tag_73:\n      swap2\n      pop\n        /* \"contracts/HelloWorld6.sol\":1423:1426  i++ */\n      dup1\n      dup1\n      0x01\n      add\n      swap2\n      pop\n      pop\n        /* \"contracts/HelloWorld6.sol\":1384:1558  for (uint256 i = 0; i < threshold - 1; i++) {... */\n      jump(tag_60)\n    tag_61:\n      pop\n        /* \"contracts/HelloWorld6.sol\":1606:1611  prime */\n      sload(0x00)\n        /* \"contracts/HelloWorld6.sol\":1596:1602  secret */\n      sload(0x01)\n        /* \"contracts/HelloWorld6.sol\":1588:1593  share */\n      dup3\n        /* \"contracts/HelloWorld6.sol\":1588:1602  share + secret */\n      tag_74\n      swap2\n      swap1\n      tag_54\n      jump\t// in\n    tag_74:\n        /* \"contracts/HelloWorld6.sol\":1587:1611  (share + secret) % prime */\n      tag_75\n      swap2\n      swap1\n      tag_52\n      jump\t// in\n    tag_75:\n        /* \"contracts/HelloWorld6.sol\":1571:1581  partyShare */\n      0x03\n        /* \"contracts/HelloWorld6.sol\":1571:1584  partyShare[j] */\n      0x00\n        /* \"contracts/HelloWorld6.sol\":1582:1583  j */\n      dup6\n        /* \"contracts/HelloWorld6.sol\":1571:1584  partyShare[j] */\n      dup2\n      mstore\n      0x20\n      add\n      swap1\n      dup2\n      mstore\n      0x20\n      add\n      0x00\n      keccak256\n        /* \"contracts/HelloWorld6.sol\":1571:1611  partyShare[j] = (share + secret) % prime */\n      dup2\n      swap1\n      sstore\n      pop\n        /* \"contracts/HelloWorld6.sol\":1308:1622  {... */\n      pop\n      pop\n        /* \"contracts/HelloWorld6.sol\":1303:1306  j++ */\n      dup1\n      dup1\n      tag_76\n      swap1\n      tag_77\n      jump\t// in\n    tag_76:\n      swap2\n      pop\n      pop\n        /* \"contracts/HelloWorld6.sol\":1263:1622  for (uint256 j = 1; j <= numberOfParty; j++) {... */\n      jump(tag_57)\n    tag_58:\n      pop\n        /* \"contracts/HelloWorld6.sol\":1220:1628  function constructShare() public {... */\n      jump\t// out\n        /* \"contracts/HelloWorld6.sol\":1072:1210  function displayParameter() public view returns (uint256, uint256, uint256[] memory) {... */\n    tag_16:\n        /* \"contracts/HelloWorld6.sol\":1121:1128  uint256 */\n      0x00\n        /* \"contracts/HelloWorld6.sol\":1130:1137  uint256 */\n      dup1\n        /* \"contracts/HelloWorld6.sol\":1139:1155  uint256[] memory */\n      0x60\n        /* \"contracts/HelloWorld6.sol\":1175:1180  prime */\n      sload(0x00)\n        /* \"contracts/HelloWorld6.sol\":1182:1188  secret */\n      sload(0x01)\n        /* \"contracts/HelloWorld6.sol\":1190:1202  coefficients */\n      0x05\n        /* \"contracts/HelloWorld6.sol\":1167:1203  return (prime, secret, coefficients) */\n      dup1\n      dup1\n      sload\n      dup1\n      0x20\n      mul\n      0x20\n      add\n      mload(0x40)\n      swap1\n      dup2\n      add\n      0x40\n      mstore\n      dup1\n      swap3\n      swap2\n      swap1\n      dup2\n      dup2\n      mstore\n      0x20\n      add\n      dup3\n      dup1\n      sload\n      dup1\n      iszero\n      tag_79\n      jumpi\n      0x20\n      mul\n      dup3\n      add\n      swap2\n      swap1\n      0x00\n      mstore\n      keccak256(0x00, 0x20)\n      swap1\n    tag_80:\n      dup2\n      sload\n      dup2\n      mstore\n      0x20\n      add\n      swap1\n      0x01\n      add\n      swap1\n      dup1\n      dup4\n      gt\n      tag_80\n      jumpi\n    tag_79:\n      pop\n      pop\n      pop\n      pop\n      pop\n      swap1\n      pop\n      swap3\n      pop\n      swap3\n      pop\n      swap3\n      pop\n        /* \"contracts/HelloWorld6.sol\":1072:1210  function displayParameter() public view returns (uint256, uint256, uint256[] memory) {... */\n      swap1\n      swap2\n      swap3\n      jump\t// out\n        /* \"contracts/HelloWorld6.sol\":1638:1904  function displayShares() public view returns (uint256[] memory) {... */\n    tag_20:\n        /* \"contracts/HelloWorld6.sol\":1684:1700  uint256[] memory */\n      0x60\n        /* \"contracts/HelloWorld6.sol\":1712:1735  uint256[] memory shares */\n      0x00\n        /* \"contracts/HelloWorld6.sol\":1752:1765  numberOfParty */\n      sload(0x02)\n        /* \"contracts/HelloWorld6.sol\":1738:1766  new uint256[](numberOfParty) */\n      0xffffffffffffffff\n      dup2\n      gt\n      iszero\n      tag_82\n      jumpi\n      tag_83\n      tag_84\n      jump\t// in\n    tag_83:\n    tag_82:\n      mload(0x40)\n      swap1\n      dup1\n      dup3\n      mstore\n      dup1\n      0x20\n      mul\n      0x20\n      add\n      dup3\n      add\n      0x40\n      mstore\n      dup1\n      iszero\n      tag_85\n      jumpi\n      dup2\n      0x20\n      add\n      0x20\n      dup3\n      mul\n      dup1\n      calldatasize\n      dup4\n      calldatacopy\n      dup1\n      dup3\n      add\n      swap2\n      pop\n      pop\n      swap1\n      pop\n    tag_85:\n      pop\n        /* \"contracts/HelloWorld6.sol\":1712:1766  uint256[] memory shares = new uint256[](numberOfParty) */\n      swap1\n      pop\n        /* \"contracts/HelloWorld6.sol\":1781:1790  uint256 j */\n      0x00\n        /* \"contracts/HelloWorld6.sol\":1793:1794  1 */\n      0x01\n        /* \"contracts/HelloWorld6.sol\":1781:1794  uint256 j = 1 */\n      swap1\n      pop\n        /* \"contracts/HelloWorld6.sol\":1776:1875  for (uint256 j = 1; j <= numberOfParty; j++) {... */\n    tag_86:\n        /* \"contracts/HelloWorld6.sol\":1801:1814  numberOfParty */\n      sload(0x02)\n        /* \"contracts/HelloWorld6.sol\":1796:1797  j */\n      dup2\n        /* \"contracts/HelloWorld6.sol\":1796:1814  j <= numberOfParty */\n      gt\n        /* \"contracts/HelloWorld6.sol\":1776:1875  for (uint256 j = 1; j <= numberOfParty; j++) {... */\n      tag_87\n      jumpi\n        /* \"contracts/HelloWorld6.sol\":1851:1861  partyShare */\n      0x03\n        /* \"contracts/HelloWorld6.sol\":1851:1864  partyShare[j] */\n      0x00\n        /* \"contracts/HelloWorld6.sol\":1862:1863  j */\n      dup3\n        /* \"contracts/HelloWorld6.sol\":1851:1864  partyShare[j] */\n      dup2\n      mstore\n      0x20\n      add\n      swap1\n      dup2\n      mstore\n      0x20\n      add\n      0x00\n      keccak256\n      sload\n        /* \"contracts/HelloWorld6.sol\":1835:1841  shares */\n      dup3\n        /* \"contracts/HelloWorld6.sol\":1846:1847  1 */\n      0x01\n        /* \"contracts/HelloWorld6.sol\":1842:1843  j */\n      dup4\n        /* \"contracts/HelloWorld6.sol\":1842:1847  j - 1 */\n      tag_89\n      swap2\n      swap1\n      tag_43\n      jump\t// in\n    tag_89:\n        /* \"contracts/HelloWorld6.sol\":1835:1848  shares[j - 1] */\n      dup2\n      mload\n      dup2\n      lt\n      tag_90\n      jumpi\n      tag_91\n      tag_32\n      jump\t// in\n    tag_91:\n    tag_90:\n      0x20\n      mul\n      0x20\n      add\n      add\n        /* \"contracts/HelloWorld6.sol\":1835:1864  shares[j - 1] = partyShare[j] */\n      dup2\n      dup2\n      mstore\n      pop\n      pop\n        /* \"contracts/HelloWorld6.sol\":1816:1819  j++ */\n      dup1\n      dup1\n      tag_92\n      swap1\n      tag_77\n      jump\t// in\n    tag_92:\n      swap2\n      pop\n      pop\n        /* \"contracts/HelloWorld6.sol\":1776:1875  for (uint256 j = 1; j <= numberOfParty; j++) {... */\n      jump(tag_86)\n    tag_87:\n      pop\n        /* \"contracts/HelloWorld6.sol\":1891:1897  shares */\n      dup1\n        /* \"contracts/HelloWorld6.sol\":1884:1897  return shares */\n      swap2\n      pop\n      pop\n        /* \"contracts/HelloWorld6.sol\":1638:1904  function displayShares() public view returns (uint256[] memory) {... */\n      swap1\n      jump\t// out\n        /* \"contracts/HelloWorld6.sol\":3353:3826  function modInverse(uint256 a, uint256 m) private pure returns (uint256) {... */\n    tag_44:\n        /* \"contracts/HelloWorld6.sol\":3417:3424  uint256 */\n      0x00\n        /* \"contracts/HelloWorld6.sol\":3436:3446  uint256 m0 */\n      dup1\n        /* \"contracts/HelloWorld6.sol\":3449:3450  m */\n      dup3\n        /* \"contracts/HelloWorld6.sol\":3436:3450  uint256 m0 = m */\n      swap1\n      pop\n        /* \"contracts/HelloWorld6.sol\":3460:3469  uint256 y */\n      0x00\n        /* \"contracts/HelloWorld6.sol\":3483:3492  uint256 x */\n      dup1\n        /* \"contracts/HelloWorld6.sol\":3495:3496  1 */\n      0x01\n        /* \"contracts/HelloWorld6.sol\":3483:3496  uint256 x = 1 */\n      swap1\n      pop\n        /* \"contracts/HelloWorld6.sol\":3515:3516  1 */\n      0x01\n        /* \"contracts/HelloWorld6.sol\":3510:3511  m */\n      dup6\n        /* \"contracts/HelloWorld6.sol\":3510:3516  m == 1 */\n      sub\n        /* \"contracts/HelloWorld6.sol\":3506:3551  if (m == 1) {... */\n      tag_94\n      jumpi\n        /* \"contracts/HelloWorld6.sol\":3539:3540  0 */\n      0x00\n        /* \"contracts/HelloWorld6.sol\":3532:3540  return 0 */\n      swap4\n      pop\n      pop\n      pop\n      pop\n      jump(tag_93)\n        /* \"contracts/HelloWorld6.sol\":3506:3551  if (m == 1) {... */\n    tag_94:\n        /* \"contracts/HelloWorld6.sol\":3560:3750  while (a > 1) {... */\n    tag_95:\n        /* \"contracts/HelloWorld6.sol\":3571:3572  1 */\n      0x01\n        /* \"contracts/HelloWorld6.sol\":3567:3568  a */\n      dup7\n        /* \"contracts/HelloWorld6.sol\":3567:3572  a > 1 */\n      gt\n        /* \"contracts/HelloWorld6.sol\":3560:3750  while (a > 1) {... */\n      iszero\n      tag_96\n      jumpi\n        /* \"contracts/HelloWorld6.sol\":3588:3597  uint256 q */\n      0x00\n        /* \"contracts/HelloWorld6.sol\":3604:3605  m */\n      dup6\n        /* \"contracts/HelloWorld6.sol\":3600:3601  a */\n      dup8\n        /* \"contracts/HelloWorld6.sol\":3600:3605  a / m */\n      tag_97\n      swap2\n      swap1\n      tag_98\n      jump\t// in\n    tag_97:\n        /* \"contracts/HelloWorld6.sol\":3588:3605  uint256 q = a / m */\n      swap1\n      pop\n        /* \"contracts/HelloWorld6.sol\":3619:3628  uint256 t */\n      0x00\n        /* \"contracts/HelloWorld6.sol\":3631:3632  m */\n      dup7\n        /* \"contracts/HelloWorld6.sol\":3619:3632  uint256 t = m */\n      swap1\n      pop\n        /* \"contracts/HelloWorld6.sol\":3654:3655  m */\n      dup7\n        /* \"contracts/HelloWorld6.sol\":3650:3651  a */\n      dup9\n        /* \"contracts/HelloWorld6.sol\":3650:3655  a % m */\n      tag_99\n      swap2\n      swap1\n      tag_52\n      jump\t// in\n    tag_99:\n        /* \"contracts/HelloWorld6.sol\":3646:3655  m = a % m */\n      swap7\n      pop\n        /* \"contracts/HelloWorld6.sol\":3673:3674  t */\n      dup1\n        /* \"contracts/HelloWorld6.sol\":3669:3674  a = t */\n      swap8\n      pop\n        /* \"contracts/HelloWorld6.sol\":3692:3693  y */\n      dup4\n        /* \"contracts/HelloWorld6.sol\":3688:3693  t = y */\n      swap1\n      pop\n        /* \"contracts/HelloWorld6.sol\":3719:3720  y */\n      dup4\n        /* \"contracts/HelloWorld6.sol\":3715:3716  q */\n      dup3\n        /* \"contracts/HelloWorld6.sol\":3715:3720  q * y */\n      tag_100\n      swap2\n      swap1\n      tag_49\n      jump\t// in\n    tag_100:\n        /* \"contracts/HelloWorld6.sol\":3711:3712  x */\n      dup4\n        /* \"contracts/HelloWorld6.sol\":3711:3720  x - q * y */\n      tag_101\n      swap2\n      swap1\n      tag_43\n      jump\t// in\n    tag_101:\n        /* \"contracts/HelloWorld6.sol\":3707:3720  y = x - q * y */\n      swap4\n      pop\n        /* \"contracts/HelloWorld6.sol\":3738:3739  t */\n      dup1\n        /* \"contracts/HelloWorld6.sol\":3734:3739  x = t */\n      swap3\n      pop\n        /* \"contracts/HelloWorld6.sol\":3574:3750  {... */\n      pop\n      pop\n        /* \"contracts/HelloWorld6.sol\":3560:3750  while (a > 1) {... */\n      jump(tag_95)\n    tag_96:\n        /* \"contracts/HelloWorld6.sol\":3767:3768  0 */\n      0x00\n        /* \"contracts/HelloWorld6.sol\":3763:3764  x */\n      dup2\n        /* \"contracts/HelloWorld6.sol\":3763:3768  x < 0 */\n      lt\n        /* \"contracts/HelloWorld6.sol\":3759:3802  if (x < 0) {... */\n      iszero\n      tag_102\n      jumpi\n        /* \"contracts/HelloWorld6.sol\":3789:3791  m0 */\n      dup3\n        /* \"contracts/HelloWorld6.sol\":3784:3791  x += m0 */\n      dup2\n      tag_103\n      swap2\n      swap1\n      tag_54\n      jump\t// in\n    tag_103:\n      swap1\n      pop\n        /* \"contracts/HelloWorld6.sol\":3759:3802  if (x < 0) {... */\n    tag_102:\n        /* \"contracts/HelloWorld6.sol\":3818:3819  x */\n      dup1\n        /* \"contracts/HelloWorld6.sol\":3811:3819  return x */\n      swap4\n      pop\n      pop\n      pop\n      pop\n        /* \"contracts/HelloWorld6.sol\":3353:3826  function modInverse(uint256 a, uint256 m) private pure returns (uint256) {... */\n    tag_93:\n      swap3\n      swap2\n      pop\n      pop\n      jump\t// out\n        /* \"#utility.yul\":7:82   */\n    tag_104:\n        /* \"#utility.yul\":40:46   */\n      0x00\n        /* \"#utility.yul\":73:75   */\n      0x40\n        /* \"#utility.yul\":67:76   */\n      mload\n        /* \"#utility.yul\":57:76   */\n      swap1\n      pop\n        /* \"#utility.yul\":7:82   */\n      swap1\n      jump\t// out\n        /* \"#utility.yul\":88:205   */\n    tag_105:\n        /* \"#utility.yul\":197:198   */\n      0x00\n        /* \"#utility.yul\":194:195   */\n      dup1\n        /* \"#utility.yul\":187:199   */\n      revert\n        /* \"#utility.yul\":211:328   */\n    tag_106:\n        /* \"#utility.yul\":320:321   */\n      0x00\n        /* \"#utility.yul\":317:318   */\n      dup1\n        /* \"#utility.yul\":310:322   */\n      revert\n        /* \"#utility.yul\":334:451   */\n    tag_107:\n        /* \"#utility.yul\":443:444   */\n      0x00\n        /* \"#utility.yul\":440:441   */\n      dup1\n        /* \"#utility.yul\":433:445   */\n      revert\n        /* \"#utility.yul\":457:559   */\n    tag_108:\n        /* \"#utility.yul\":498:504   */\n      0x00\n        /* \"#utility.yul\":549:551   */\n      0x1f\n        /* \"#utility.yul\":545:552   */\n      not\n        /* \"#utility.yul\":540:542   */\n      0x1f\n        /* \"#utility.yul\":533:538   */\n      dup4\n        /* \"#utility.yul\":529:543   */\n      add\n        /* \"#utility.yul\":525:553   */\n      and\n        /* \"#utility.yul\":515:553   */\n      swap1\n      pop\n        /* \"#utility.yul\":457:559   */\n      swap2\n      swap1\n      pop\n      jump\t// out\n        /* \"#utility.yul\":565:745   */\n    tag_84:\n        /* \"#utility.yul\":613:690   */\n      0x4e487b7100000000000000000000000000000000000000000000000000000000\n        /* \"#utility.yul\":610:611   */\n      0x00\n        /* \"#utility.yul\":603:691   */\n      mstore\n        /* \"#utility.yul\":710:714   */\n      0x41\n        /* \"#utility.yul\":707:708   */\n      0x04\n        /* \"#utility.yul\":700:715   */\n      mstore\n        /* \"#utility.yul\":734:738   */\n      0x24\n        /* \"#utility.yul\":731:732   */\n      0x00\n        /* \"#utility.yul\":724:739   */\n      revert\n        /* \"#utility.yul\":751:1032   */\n    tag_109:\n        /* \"#utility.yul\":834:861   */\n      tag_142\n        /* \"#utility.yul\":856:860   */\n      dup3\n        /* \"#utility.yul\":834:861   */\n      tag_108\n      jump\t// in\n    tag_142:\n        /* \"#utility.yul\":826:832   */\n      dup2\n        /* \"#utility.yul\":822:862   */\n      add\n        /* \"#utility.yul\":964:970   */\n      dup2\n        /* \"#utility.yul\":952:962   */\n      dup2\n        /* \"#utility.yul\":949:971   */\n      lt\n        /* \"#utility.yul\":928:946   */\n      0xffffffffffffffff\n        /* \"#utility.yul\":916:926   */\n      dup3\n        /* \"#utility.yul\":913:947   */\n      gt\n        /* \"#utility.yul\":910:972   */\n      or\n        /* \"#utility.yul\":907:995   */\n      iszero\n      tag_143\n      jumpi\n        /* \"#utility.yul\":975:993   */\n      tag_144\n      tag_84\n      jump\t// in\n    tag_144:\n        /* \"#utility.yul\":907:995   */\n    tag_143:\n        /* \"#utility.yul\":1015:1025   */\n      dup1\n        /* \"#utility.yul\":1011:1013   */\n      0x40\n        /* \"#utility.yul\":1004:1026   */\n      mstore\n        /* \"#utility.yul\":794:1032   */\n      pop\n        /* \"#utility.yul\":751:1032   */\n      pop\n      pop\n      jump\t// out\n        /* \"#utility.yul\":1038:1167   */\n    tag_110:\n        /* \"#utility.yul\":1072:1078   */\n      0x00\n        /* \"#utility.yul\":1099:1119   */\n      tag_146\n      tag_104\n      jump\t// in\n    tag_146:\n        /* \"#utility.yul\":1089:1119   */\n      swap1\n      pop\n        /* \"#utility.yul\":1128:1161   */\n      tag_147\n        /* \"#utility.yul\":1156:1160   */\n      dup3\n        /* \"#utility.yul\":1148:1154   */\n      dup3\n        /* \"#utility.yul\":1128:1161   */\n      tag_109\n      jump\t// in\n    tag_147:\n        /* \"#utility.yul\":1038:1167   */\n      swap2\n      swap1\n      pop\n      jump\t// out\n        /* \"#utility.yul\":1173:1484   */\n    tag_111:\n        /* \"#utility.yul\":1250:1254   */\n      0x00\n        /* \"#utility.yul\":1340:1358   */\n      0xffffffffffffffff\n        /* \"#utility.yul\":1332:1338   */\n      dup3\n        /* \"#utility.yul\":1329:1359   */\n      gt\n        /* \"#utility.yul\":1326:1382   */\n      iszero\n      tag_149\n      jumpi\n        /* \"#utility.yul\":1362:1380   */\n      tag_150\n      tag_84\n      jump\t// in\n    tag_150:\n        /* \"#utility.yul\":1326:1382   */\n    tag_149:\n        /* \"#utility.yul\":1412:1416   */\n      0x20\n        /* \"#utility.yul\":1404:1410   */\n      dup3\n        /* \"#utility.yul\":1400:1417   */\n      mul\n        /* \"#utility.yul\":1392:1417   */\n      swap1\n      pop\n        /* \"#utility.yul\":1472:1476   */\n      0x20\n        /* \"#utility.yul\":1466:1470   */\n      dup2\n        /* \"#utility.yul\":1462:1477   */\n      add\n        /* \"#utility.yul\":1454:1477   */\n      swap1\n      pop\n        /* \"#utility.yul\":1173:1484   */\n      swap2\n      swap1\n      pop\n      jump\t// out\n        /* \"#utility.yul\":1490:1607   */\n    tag_112:\n        /* \"#utility.yul\":1599:1600   */\n      0x00\n        /* \"#utility.yul\":1596:1597   */\n      dup1\n        /* \"#utility.yul\":1589:1601   */\n      revert\n        /* \"#utility.yul\":1613:1690   */\n    tag_113:\n        /* \"#utility.yul\":1650:1657   */\n      0x00\n        /* \"#utility.yul\":1679:1684   */\n      dup2\n        /* \"#utility.yul\":1668:1684   */\n      swap1\n      pop\n        /* \"#utility.yul\":1613:1690   */\n      swap2\n      swap1\n      pop\n      jump\t// out\n        /* \"#utility.yul\":1696:1818   */\n    tag_114:\n        /* \"#utility.yul\":1769:1793   */\n      tag_154\n        /* \"#utility.yul\":1787:1792   */\n      dup2\n        /* \"#utility.yul\":1769:1793   */\n      tag_113\n      jump\t// in\n    tag_154:\n        /* \"#utility.yul\":1762:1767   */\n      dup2\n        /* \"#utility.yul\":1759:1794   */\n      eq\n        /* \"#utility.yul\":1749:1812   */\n      tag_155\n      jumpi\n        /* \"#utility.yul\":1808:1809   */\n      0x00\n        /* \"#utility.yul\":1805:1806   */\n      dup1\n        /* \"#utility.yul\":1798:1810   */\n      revert\n        /* \"#utility.yul\":1749:1812   */\n    tag_155:\n        /* \"#utility.yul\":1696:1818   */\n      pop\n      jump\t// out\n        /* \"#utility.yul\":1824:1963   */\n    tag_115:\n        /* \"#utility.yul\":1870:1875   */\n      0x00\n        /* \"#utility.yul\":1908:1914   */\n      dup2\n        /* \"#utility.yul\":1895:1915   */\n      calldataload\n        /* \"#utility.yul\":1886:1915   */\n      swap1\n      pop\n        /* \"#utility.yul\":1924:1957   */\n      tag_157\n        /* \"#utility.yul\":1951:1956   */\n      dup2\n        /* \"#utility.yul\":1924:1957   */\n      tag_114\n      jump\t// in\n    tag_157:\n        /* \"#utility.yul\":1824:1963   */\n      swap3\n      swap2\n      pop\n      pop\n      jump\t// out\n        /* \"#utility.yul\":1986:2696   */\n    tag_116:\n        /* \"#utility.yul\":2082:2087   */\n      0x00\n        /* \"#utility.yul\":2107:2188   */\n      tag_159\n        /* \"#utility.yul\":2123:2187   */\n      tag_160\n        /* \"#utility.yul\":2180:2186   */\n      dup5\n        /* \"#utility.yul\":2123:2187   */\n      tag_111\n      jump\t// in\n    tag_160:\n        /* \"#utility.yul\":2107:2188   */\n      tag_110\n      jump\t// in\n    tag_159:\n        /* \"#utility.yul\":2098:2188   */\n      swap1\n      pop\n        /* \"#utility.yul\":2208:2213   */\n      dup1\n        /* \"#utility.yul\":2237:2243   */\n      dup4\n        /* \"#utility.yul\":2230:2235   */\n      dup3\n        /* \"#utility.yul\":2223:2244   */\n      mstore\n        /* \"#utility.yul\":2271:2275   */\n      0x20\n        /* \"#utility.yul\":2264:2269   */\n      dup3\n        /* \"#utility.yul\":2260:2276   */\n      add\n        /* \"#utility.yul\":2253:2276   */\n      swap1\n      pop\n        /* \"#utility.yul\":2324:2328   */\n      0x20\n        /* \"#utility.yul\":2316:2322   */\n      dup5\n        /* \"#utility.yul\":2312:2329   */\n      mul\n        /* \"#utility.yul\":2304:2310   */\n      dup4\n        /* \"#utility.yul\":2300:2330   */\n      add\n        /* \"#utility.yul\":2353:2356   */\n      dup6\n        /* \"#utility.yul\":2345:2351   */\n      dup2\n        /* \"#utility.yul\":2342:2357   */\n      gt\n        /* \"#utility.yul\":2339:2461   */\n      iszero\n      tag_161\n      jumpi\n        /* \"#utility.yul\":2372:2451   */\n      tag_162\n      tag_112\n      jump\t// in\n    tag_162:\n        /* \"#utility.yul\":2339:2461   */\n    tag_161:\n        /* \"#utility.yul\":2487:2493   */\n      dup4\n        /* \"#utility.yul\":2470:2690   */\n    tag_163:\n        /* \"#utility.yul\":2504:2510   */\n      dup2\n        /* \"#utility.yul\":2499:2502   */\n      dup2\n        /* \"#utility.yul\":2496:2511   */\n      lt\n        /* \"#utility.yul\":2470:2690   */\n      iszero\n      tag_165\n      jumpi\n        /* \"#utility.yul\":2579:2582   */\n      dup1\n        /* \"#utility.yul\":2608:2645   */\n      tag_166\n        /* \"#utility.yul\":2641:2644   */\n      dup9\n        /* \"#utility.yul\":2629:2639   */\n      dup3\n        /* \"#utility.yul\":2608:2645   */\n      tag_115\n      jump\t// in\n    tag_166:\n        /* \"#utility.yul\":2603:2606   */\n      dup5\n        /* \"#utility.yul\":2596:2646   */\n      mstore\n        /* \"#utility.yul\":2675:2679   */\n      0x20\n        /* \"#utility.yul\":2670:2673   */\n      dup5\n        /* \"#utility.yul\":2666:2680   */\n      add\n        /* \"#utility.yul\":2659:2680   */\n      swap4\n      pop\n        /* \"#utility.yul\":2546:2690   */\n      pop\n        /* \"#utility.yul\":2530:2534   */\n      0x20\n        /* \"#utility.yul\":2525:2528   */\n      dup2\n        /* \"#utility.yul\":2521:2535   */\n      add\n        /* \"#utility.yul\":2514:2535   */\n      swap1\n      pop\n        /* \"#utility.yul\":2470:2690   */\n      jump(tag_163)\n    tag_165:\n        /* \"#utility.yul\":2474:2495   */\n      pop\n        /* \"#utility.yul\":2088:2696   */\n      pop\n      pop\n        /* \"#utility.yul\":1986:2696   */\n      swap4\n      swap3\n      pop\n      pop\n      pop\n      jump\t// out\n        /* \"#utility.yul\":2719:3089   */\n    tag_117:\n        /* \"#utility.yul\":2790:2795   */\n      0x00\n        /* \"#utility.yul\":2839:2842   */\n      dup3\n        /* \"#utility.yul\":2832:2836   */\n      0x1f\n        /* \"#utility.yul\":2824:2830   */\n      dup4\n        /* \"#utility.yul\":2820:2837   */\n      add\n        /* \"#utility.yul\":2816:2843   */\n      slt\n        /* \"#utility.yul\":2806:2928   */\n      tag_168\n      jumpi\n        /* \"#utility.yul\":2847:2926   */\n      tag_169\n      tag_107\n      jump\t// in\n    tag_169:\n        /* \"#utility.yul\":2806:2928   */\n    tag_168:\n        /* \"#utility.yul\":2964:2970   */\n      dup2\n        /* \"#utility.yul\":2951:2971   */\n      calldataload\n        /* \"#utility.yul\":2989:3083   */\n      tag_170\n        /* \"#utility.yul\":3079:3082   */\n      dup5\n        /* \"#utility.yul\":3071:3077   */\n      dup3\n        /* \"#utility.yul\":3064:3068   */\n      0x20\n        /* \"#utility.yul\":3056:3062   */\n      dup7\n        /* \"#utility.yul\":3052:3069   */\n      add\n        /* \"#utility.yul\":2989:3083   */\n      tag_116\n      jump\t// in\n    tag_170:\n        /* \"#utility.yul\":2980:3083   */\n      swap2\n      pop\n        /* \"#utility.yul\":2796:3089   */\n      pop\n        /* \"#utility.yul\":2719:3089   */\n      swap3\n      swap2\n      pop\n      pop\n      jump\t// out\n        /* \"#utility.yul\":3095:3634   */\n    tag_9:\n        /* \"#utility.yul\":3179:3185   */\n      0x00\n        /* \"#utility.yul\":3228:3230   */\n      0x20\n        /* \"#utility.yul\":3216:3225   */\n      dup3\n        /* \"#utility.yul\":3207:3214   */\n      dup5\n        /* \"#utility.yul\":3203:3226   */\n      sub\n        /* \"#utility.yul\":3199:3231   */\n      slt\n        /* \"#utility.yul\":3196:3315   */\n      iszero\n      tag_172\n      jumpi\n        /* \"#utility.yul\":3234:3313   */\n      tag_173\n      tag_105\n      jump\t// in\n    tag_173:\n        /* \"#utility.yul\":3196:3315   */\n    tag_172:\n        /* \"#utility.yul\":3382:3383   */\n      0x00\n        /* \"#utility.yul\":3371:3380   */\n      dup3\n        /* \"#utility.yul\":3367:3384   */\n      add\n        /* \"#utility.yul\":3354:3385   */\n      calldataload\n        /* \"#utility.yul\":3412:3430   */\n      0xffffffffffffffff\n        /* \"#utility.yul\":3404:3410   */\n      dup2\n        /* \"#utility.yul\":3401:3431   */\n      gt\n        /* \"#utility.yul\":3398:3515   */\n      iszero\n      tag_174\n      jumpi\n        /* \"#utility.yul\":3434:3513   */\n      tag_175\n      tag_106\n      jump\t// in\n    tag_175:\n        /* \"#utility.yul\":3398:3515   */\n    tag_174:\n        /* \"#utility.yul\":3539:3617   */\n      tag_176\n        /* \"#utility.yul\":3609:3616   */\n      dup5\n        /* \"#utility.yul\":3600:3606   */\n      dup3\n        /* \"#utility.yul\":3589:3598   */\n      dup6\n        /* \"#utility.yul\":3585:3607   */\n      add\n        /* \"#utility.yul\":3539:3617   */\n      tag_117\n      jump\t// in\n    tag_176:\n        /* \"#utility.yul\":3529:3617   */\n      swap2\n      pop\n        /* \"#utility.yul\":3325:3627   */\n      pop\n        /* \"#utility.yul\":3095:3634   */\n      swap3\n      swap2\n      pop\n      pop\n      jump\t// out\n        /* \"#utility.yul\":3640:3758   */\n    tag_118:\n        /* \"#utility.yul\":3727:3751   */\n      tag_178\n        /* \"#utility.yul\":3745:3750   */\n      dup2\n        /* \"#utility.yul\":3727:3751   */\n      tag_113\n      jump\t// in\n    tag_178:\n        /* \"#utility.yul\":3722:3725   */\n      dup3\n        /* \"#utility.yul\":3715:3752   */\n      mstore\n        /* \"#utility.yul\":3640:3758   */\n      pop\n      pop\n      jump\t// out\n        /* \"#utility.yul\":3764:3986   */\n    tag_12:\n        /* \"#utility.yul\":3857:3861   */\n      0x00\n        /* \"#utility.yul\":3895:3897   */\n      0x20\n        /* \"#utility.yul\":3884:3893   */\n      dup3\n        /* \"#utility.yul\":3880:3898   */\n      add\n        /* \"#utility.yul\":3872:3898   */\n      swap1\n      pop\n        /* \"#utility.yul\":3908:3979   */\n      tag_180\n        /* \"#utility.yul\":3976:3977   */\n      0x00\n        /* \"#utility.yul\":3965:3974   */\n      dup4\n        /* \"#utility.yul\":3961:3978   */\n      add\n        /* \"#utility.yul\":3952:3958   */\n      dup5\n        /* \"#utility.yul\":3908:3979   */\n      tag_118\n      jump\t// in\n    tag_180:\n        /* \"#utility.yul\":3764:3986   */\n      swap3\n      swap2\n      pop\n      pop\n      jump\t// out\n        /* \"#utility.yul\":3992:4106   */\n    tag_119:\n        /* \"#utility.yul\":4059:4065   */\n      0x00\n        /* \"#utility.yul\":4093:4098   */\n      dup2\n        /* \"#utility.yul\":4087:4099   */\n      mload\n        /* \"#utility.yul\":4077:4099   */\n      swap1\n      pop\n        /* \"#utility.yul\":3992:4106   */\n      swap2\n      swap1\n      pop\n      jump\t// out\n        /* \"#utility.yul\":4112:4296   */\n    tag_120:\n        /* \"#utility.yul\":4211:4222   */\n      0x00\n        /* \"#utility.yul\":4245:4251   */\n      dup3\n        /* \"#utility.yul\":4240:4243   */\n      dup3\n        /* \"#utility.yul\":4233:4252   */\n      mstore\n        /* \"#utility.yul\":4285:4289   */\n      0x20\n        /* \"#utility.yul\":4280:4283   */\n      dup3\n        /* \"#utility.yul\":4276:4290   */\n      add\n        /* \"#utility.yul\":4261:4290   */\n      swap1\n      pop\n        /* \"#utility.yul\":4112:4296   */\n      swap3\n      swap2\n      pop\n      pop\n      jump\t// out\n        /* \"#utility.yul\":4302:4434   */\n    tag_121:\n        /* \"#utility.yul\":4369:4373   */\n      0x00\n        /* \"#utility.yul\":4392:4395   */\n      dup2\n        /* \"#utility.yul\":4384:4395   */\n      swap1\n      pop\n        /* \"#utility.yul\":4422:4426   */\n      0x20\n        /* \"#utility.yul\":4417:4420   */\n      dup3\n        /* \"#utility.yul\":4413:4427   */\n      add\n        /* \"#utility.yul\":4405:4427   */\n      swap1\n      pop\n        /* \"#utility.yul\":4302:4434   */\n      swap2\n      swap1\n      pop\n      jump\t// out\n        /* \"#utility.yul\":4440:4548   */\n    tag_122:\n        /* \"#utility.yul\":4517:4541   */\n      tag_185\n        /* \"#utility.yul\":4535:4540   */\n      dup2\n        /* \"#utility.yul\":4517:4541   */\n      tag_113\n      jump\t// in\n    tag_185:\n        /* \"#utility.yul\":4512:4515   */\n      dup3\n        /* \"#utility.yul\":4505:4542   */\n      mstore\n        /* \"#utility.yul\":4440:4548   */\n      pop\n      pop\n      jump\t// out\n        /* \"#utility.yul\":4554:4733   */\n    tag_123:\n        /* \"#utility.yul\":4623:4633   */\n      0x00\n        /* \"#utility.yul\":4644:4690   */\n      tag_187\n        /* \"#utility.yul\":4686:4689   */\n      dup4\n        /* \"#utility.yul\":4678:4684   */\n      dup4\n        /* \"#utility.yul\":4644:4690   */\n      tag_122\n      jump\t// in\n    tag_187:\n        /* \"#utility.yul\":4722:4726   */\n      0x20\n        /* \"#utility.yul\":4717:4720   */\n      dup4\n        /* \"#utility.yul\":4713:4727   */\n      add\n        /* \"#utility.yul\":4699:4727   */\n      swap1\n      pop\n        /* \"#utility.yul\":4554:4733   */\n      swap3\n      swap2\n      pop\n      pop\n      jump\t// out\n        /* \"#utility.yul\":4739:4852   */\n    tag_124:\n        /* \"#utility.yul\":4809:4813   */\n      0x00\n        /* \"#utility.yul\":4841:4845   */\n      0x20\n        /* \"#utility.yul\":4836:4839   */\n      dup3\n        /* \"#utility.yul\":4832:4846   */\n      add\n        /* \"#utility.yul\":4824:4846   */\n      swap1\n      pop\n        /* \"#utility.yul\":4739:4852   */\n      swap2\n      swap1\n      pop\n      jump\t// out\n        /* \"#utility.yul\":4888:5620   */\n    tag_125:\n        /* \"#utility.yul\":5007:5010   */\n      0x00\n        /* \"#utility.yul\":5036:5090   */\n      tag_190\n        /* \"#utility.yul\":5084:5089   */\n      dup3\n        /* \"#utility.yul\":5036:5090   */\n      tag_119\n      jump\t// in\n    tag_190:\n        /* \"#utility.yul\":5106:5192   */\n      tag_191\n        /* \"#utility.yul\":5185:5191   */\n      dup2\n        /* \"#utility.yul\":5180:5183   */\n      dup6\n        /* \"#utility.yul\":5106:5192   */\n      tag_120\n      jump\t// in\n    tag_191:\n        /* \"#utility.yul\":5099:5192   */\n      swap4\n      pop\n        /* \"#utility.yul\":5216:5272   */\n      tag_192\n        /* \"#utility.yul\":5266:5271   */\n      dup4\n        /* \"#utility.yul\":5216:5272   */\n      tag_121\n      jump\t// in\n    tag_192:\n        /* \"#utility.yul\":5295:5302   */\n      dup1\n        /* \"#utility.yul\":5326:5327   */\n      0x00\n        /* \"#utility.yul\":5311:5595   */\n    tag_193:\n        /* \"#utility.yul\":5336:5342   */\n      dup4\n        /* \"#utility.yul\":5333:5334   */\n      dup2\n        /* \"#utility.yul\":5330:5343   */\n      lt\n        /* \"#utility.yul\":5311:5595   */\n      iszero\n      tag_195\n      jumpi\n        /* \"#utility.yul\":5412:5418   */\n      dup2\n        /* \"#utility.yul\":5406:5419   */\n      mload\n        /* \"#utility.yul\":5439:5502   */\n      tag_196\n        /* \"#utility.yul\":5498:5501   */\n      dup9\n        /* \"#utility.yul\":5483:5496   */\n      dup3\n        /* \"#utility.yul\":5439:5502   */\n      tag_123\n      jump\t// in\n    tag_196:\n        /* \"#utility.yul\":5432:5502   */\n      swap8\n      pop\n        /* \"#utility.yul\":5525:5585   */\n      tag_197\n        /* \"#utility.yul\":5578:5584   */\n      dup4\n        /* \"#utility.yul\":5525:5585   */\n      tag_124\n      jump\t// in\n    tag_197:\n        /* \"#utility.yul\":5515:5585   */\n      swap3\n      pop\n        /* \"#utility.yul\":5371:5595   */\n      pop\n        /* \"#utility.yul\":5358:5359   */\n      0x01\n        /* \"#utility.yul\":5355:5356   */\n      dup2\n        /* \"#utility.yul\":5351:5360   */\n      add\n        /* \"#utility.yul\":5346:5360   */\n      swap1\n      pop\n        /* \"#utility.yul\":5311:5595   */\n      jump(tag_193)\n    tag_195:\n        /* \"#utility.yul\":5315:5329   */\n      pop\n        /* \"#utility.yul\":5611:5614   */\n      dup6\n        /* \"#utility.yul\":5604:5614   */\n      swap4\n      pop\n        /* \"#utility.yul\":5012:5620   */\n      pop\n      pop\n      pop\n        /* \"#utility.yul\":4888:5620   */\n      swap3\n      swap2\n      pop\n      pop\n      jump\t// out\n        /* \"#utility.yul\":5626:6219   */\n    tag_18:\n        /* \"#utility.yul\":5825:5829   */\n      0x00\n        /* \"#utility.yul\":5863:5865   */\n      0x60\n        /* \"#utility.yul\":5852:5861   */\n      dup3\n        /* \"#utility.yul\":5848:5866   */\n      add\n        /* \"#utility.yul\":5840:5866   */\n      swap1\n      pop\n        /* \"#utility.yul\":5876:5947   */\n      tag_199\n        /* \"#utility.yul\":5944:5945   */\n      0x00\n        /* \"#utility.yul\":5933:5942   */\n      dup4\n        /* \"#utility.yul\":5929:5946   */\n      add\n        /* \"#utility.yul\":5920:5926   */\n      dup7\n        /* \"#utility.yul\":5876:5947   */\n      tag_118\n      jump\t// in\n    tag_199:\n        /* \"#utility.yul\":5957:6029   */\n      tag_200\n        /* \"#utility.yul\":6025:6027   */\n      0x20\n        /* \"#utility.yul\":6014:6023   */\n      dup4\n        /* \"#utility.yul\":6010:6028   */\n      add\n        /* \"#utility.yul\":6001:6007   */\n      dup6\n        /* \"#utility.yul\":5957:6029   */\n      tag_118\n      jump\t// in\n    tag_200:\n        /* \"#utility.yul\":6076:6085   */\n      dup2\n        /* \"#utility.yul\":6070:6074   */\n      dup2\n        /* \"#utility.yul\":6066:6086   */\n      sub\n        /* \"#utility.yul\":6061:6063   */\n      0x40\n        /* \"#utility.yul\":6050:6059   */\n      dup4\n        /* \"#utility.yul\":6046:6064   */\n      add\n        /* \"#utility.yul\":6039:6087   */\n      mstore\n        /* \"#utility.yul\":6104:6212   */\n      tag_201\n        /* \"#utility.yul\":6207:6211   */\n      dup2\n        /* \"#utility.yul\":6198:6204   */\n      dup5\n        /* \"#utility.yul\":6104:6212   */\n      tag_125\n      jump\t// in\n    tag_201:\n        /* \"#utility.yul\":6096:6212   */\n      swap1\n      pop\n        /* \"#utility.yul\":5626:6219   */\n      swap5\n      swap4\n      pop\n      pop\n      pop\n      pop\n      jump\t// out\n        /* \"#utility.yul\":6225:6598   */\n    tag_22:\n        /* \"#utility.yul\":6368:6372   */\n      0x00\n        /* \"#utility.yul\":6406:6408   */\n      0x20\n        /* \"#utility.yul\":6395:6404   */\n      dup3\n        /* \"#utility.yul\":6391:6409   */\n      add\n        /* \"#utility.yul\":6383:6409   */\n      swap1\n      pop\n        /* \"#utility.yul\":6455:6464   */\n      dup2\n        /* \"#utility.yul\":6449:6453   */\n      dup2\n        /* \"#utility.yul\":6445:6465   */\n      sub\n        /* \"#utility.yul\":6441:6442   */\n      0x00\n        /* \"#utility.yul\":6430:6439   */\n      dup4\n        /* \"#utility.yul\":6426:6443   */\n      add\n        /* \"#utility.yul\":6419:6466   */\n      mstore\n        /* \"#utility.yul\":6483:6591   */\n      tag_203\n        /* \"#utility.yul\":6586:6590   */\n      dup2\n        /* \"#utility.yul\":6577:6583   */\n      dup5\n        /* \"#utility.yul\":6483:6591   */\n      tag_125\n      jump\t// in\n    tag_203:\n        /* \"#utility.yul\":6475:6591   */\n      swap1\n      pop\n        /* \"#utility.yul\":6225:6598   */\n      swap3\n      swap2\n      pop\n      pop\n      jump\t// out\n        /* \"#utility.yul\":6604:6773   */\n    tag_126:\n        /* \"#utility.yul\":6688:6699   */\n      0x00\n        /* \"#utility.yul\":6722:6728   */\n      dup3\n        /* \"#utility.yul\":6717:6720   */\n      dup3\n        /* \"#utility.yul\":6710:6729   */\n      mstore\n        /* \"#utility.yul\":6762:6766   */\n      0x20\n        /* \"#utility.yul\":6757:6760   */\n      dup3\n        /* \"#utility.yul\":6753:6767   */\n      add\n        /* \"#utility.yul\":6738:6767   */\n      swap1\n      pop\n        /* \"#utility.yul\":6604:6773   */\n      swap3\n      swap2\n      pop\n      pop\n      jump\t// out\n        /* \"#utility.yul\":6779:6958   */\n    tag_127:\n        /* \"#utility.yul\":6919:6950   */\n      0x496e73756666696369656e74207368617265732070726f76696465642e000000\n        /* \"#utility.yul\":6915:6916   */\n      0x00\n        /* \"#utility.yul\":6907:6913   */\n      dup3\n        /* \"#utility.yul\":6903:6917   */\n      add\n        /* \"#utility.yul\":6896:6951   */\n      mstore\n        /* \"#utility.yul\":6779:6958   */\n      pop\n      jump\t// out\n        /* \"#utility.yul\":6964:7330   */\n    tag_128:\n        /* \"#utility.yul\":7106:7109   */\n      0x00\n        /* \"#utility.yul\":7127:7194   */\n      tag_207\n        /* \"#utility.yul\":7191:7193   */\n      0x1d\n        /* \"#utility.yul\":7186:7189   */\n      dup4\n        /* \"#utility.yul\":7127:7194   */\n      tag_126\n      jump\t// in\n    tag_207:\n        /* \"#utility.yul\":7120:7194   */\n      swap2\n      pop\n        /* \"#utility.yul\":7203:7296   */\n      tag_208\n        /* \"#utility.yul\":7292:7295   */\n      dup3\n        /* \"#utility.yul\":7203:7296   */\n      tag_127\n      jump\t// in\n    tag_208:\n        /* \"#utility.yul\":7321:7323   */\n      0x20\n        /* \"#utility.yul\":7316:7319   */\n      dup3\n        /* \"#utility.yul\":7312:7324   */\n      add\n        /* \"#utility.yul\":7305:7324   */\n      swap1\n      pop\n        /* \"#utility.yul\":6964:7330   */\n      swap2\n      swap1\n      pop\n      jump\t// out\n        /* \"#utility.yul\":7336:7755   */\n    tag_26:\n        /* \"#utility.yul\":7502:7506   */\n      0x00\n        /* \"#utility.yul\":7540:7542   */\n      0x20\n        /* \"#utility.yul\":7529:7538   */\n      dup3\n        /* \"#utility.yul\":7525:7543   */\n      add\n        /* \"#utility.yul\":7517:7543   */\n      swap1\n      pop\n        /* \"#utility.yul\":7589:7598   */\n      dup2\n        /* \"#utility.yul\":7583:7587   */\n      dup2\n        /* \"#utility.yul\":7579:7599   */\n      sub\n        /* \"#utility.yul\":7575:7576   */\n      0x00\n        /* \"#utility.yul\":7564:7573   */\n      dup4\n        /* \"#utility.yul\":7560:7577   */\n      add\n        /* \"#utility.yul\":7553:7600   */\n      mstore\n        /* \"#utility.yul\":7617:7748   */\n      tag_210\n        /* \"#utility.yul\":7743:7747   */\n      dup2\n        /* \"#utility.yul\":7617:7748   */\n      tag_128\n      jump\t// in\n    tag_210:\n        /* \"#utility.yul\":7609:7748   */\n      swap1\n      pop\n        /* \"#utility.yul\":7336:7755   */\n      swap2\n      swap1\n      pop\n      jump\t// out\n        /* \"#utility.yul\":7761:7941   */\n    tag_32:\n        /* \"#utility.yul\":7809:7886   */\n      0x4e487b7100000000000000000000000000000000000000000000000000000000\n        /* \"#utility.yul\":7806:7807   */\n      0x00\n        /* \"#utility.yul\":7799:7887   */\n      mstore\n        /* \"#utility.yul\":7906:7910   */\n      0x32\n        /* \"#utility.yul\":7903:7904   */\n      0x04\n        /* \"#utility.yul\":7896:7911   */\n      mstore\n        /* \"#utility.yul\":7930:7934   */\n      0x24\n        /* \"#utility.yul\":7927:7928   */\n      0x00\n        /* \"#utility.yul\":7920:7935   */\n      revert\n        /* \"#utility.yul\":7947:8127   */\n    tag_129:\n        /* \"#utility.yul\":7995:8072   */\n      0x4e487b7100000000000000000000000000000000000000000000000000000000\n        /* \"#utility.yul\":7992:7993   */\n      0x00\n        /* \"#utility.yul\":7985:8073   */\n      mstore\n        /* \"#utility.yul\":8092:8096   */\n      0x11\n        /* \"#utility.yul\":8089:8090   */\n      0x04\n        /* \"#utility.yul\":8082:8097   */\n      mstore\n        /* \"#utility.yul\":8116:8120   */\n      0x24\n        /* \"#utility.yul\":8113:8114   */\n      0x00\n        /* \"#utility.yul\":8106:8121   */\n      revert\n        /* \"#utility.yul\":8133:8327   */\n    tag_43:\n        /* \"#utility.yul\":8173:8177   */\n      0x00\n        /* \"#utility.yul\":8193:8213   */\n      tag_214\n        /* \"#utility.yul\":8211:8212   */\n      dup3\n        /* \"#utility.yul\":8193:8213   */\n      tag_113\n      jump\t// in\n    tag_214:\n        /* \"#utility.yul\":8188:8213   */\n      swap2\n      pop\n        /* \"#utility.yul\":8227:8247   */\n      tag_215\n        /* \"#utility.yul\":8245:8246   */\n      dup4\n        /* \"#utility.yul\":8227:8247   */\n      tag_113\n      jump\t// in\n    tag_215:\n        /* \"#utility.yul\":8222:8247   */\n      swap3\n      pop\n        /* \"#utility.yul\":8271:8272   */\n      dup3\n        /* \"#utility.yul\":8268:8269   */\n      dup3\n        /* \"#utility.yul\":8264:8273   */\n      sub\n        /* \"#utility.yul\":8256:8273   */\n      swap1\n      pop\n        /* \"#utility.yul\":8295:8296   */\n      dup2\n        /* \"#utility.yul\":8289:8293   */\n      dup2\n        /* \"#utility.yul\":8286:8297   */\n      gt\n        /* \"#utility.yul\":8283:8320   */\n      iszero\n      tag_216\n      jumpi\n        /* \"#utility.yul\":8300:8318   */\n      tag_217\n      tag_129\n      jump\t// in\n    tag_217:\n        /* \"#utility.yul\":8283:8320   */\n    tag_216:\n        /* \"#utility.yul\":8133:8327   */\n      swap3\n      swap2\n      pop\n      pop\n      jump\t// out\n        /* \"#utility.yul\":8333:8743   */\n    tag_49:\n        /* \"#utility.yul\":8373:8380   */\n      0x00\n        /* \"#utility.yul\":8396:8416   */\n      tag_219\n        /* \"#utility.yul\":8414:8415   */\n      dup3\n        /* \"#utility.yul\":8396:8416   */\n      tag_113\n      jump\t// in\n    tag_219:\n        /* \"#utility.yul\":8391:8416   */\n      swap2\n      pop\n        /* \"#utility.yul\":8430:8450   */\n      tag_220\n        /* \"#utility.yul\":8448:8449   */\n      dup4\n        /* \"#utility.yul\":8430:8450   */\n      tag_113\n      jump\t// in\n    tag_220:\n        /* \"#utility.yul\":8425:8450   */\n      swap3\n      pop\n        /* \"#utility.yul\":8485:8486   */\n      dup3\n        /* \"#utility.yul\":8482:8483   */\n      dup3\n        /* \"#utility.yul\":8478:8487   */\n      mul\n        /* \"#utility.yul\":8507:8537   */\n      tag_221\n        /* \"#utility.yul\":8525:8536   */\n      dup2\n        /* \"#utility.yul\":8507:8537   */\n      tag_113\n      jump\t// in\n    tag_221:\n        /* \"#utility.yul\":8496:8537   */\n      swap2\n      pop\n        /* \"#utility.yul\":8686:8687   */\n      dup3\n        /* \"#utility.yul\":8677:8684   */\n      dup3\n        /* \"#utility.yul\":8673:8688   */\n      div\n        /* \"#utility.yul\":8670:8671   */\n      dup5\n        /* \"#utility.yul\":8667:8689   */\n      eq\n        /* \"#utility.yul\":8647:8648   */\n      dup4\n        /* \"#utility.yul\":8640:8649   */\n      iszero\n        /* \"#utility.yul\":8620:8703   */\n      or\n        /* \"#utility.yul\":8597:8736   */\n      tag_222\n      jumpi\n        /* \"#utility.yul\":8716:8734   */\n      tag_223\n      tag_129\n      jump\t// in\n    tag_223:\n        /* \"#utility.yul\":8597:8736   */\n    tag_222:\n        /* \"#utility.yul\":8381:8743   */\n      pop\n        /* \"#utility.yul\":8333:8743   */\n      swap3\n      swap2\n      pop\n      pop\n      jump\t// out\n        /* \"#utility.yul\":8749:8929   */\n    tag_130:\n        /* \"#utility.yul\":8797:8874   */\n      0x4e487b7100000000000000000000000000000000000000000000000000000000\n        /* \"#utility.yul\":8794:8795   */\n      0x00\n        /* \"#utility.yul\":8787:8875   */\n      mstore\n        /* \"#utility.yul\":8894:8898   */\n      0x12\n        /* \"#utility.yul\":8891:8892   */\n      0x04\n        /* \"#utility.yul\":8884:8899   */\n      mstore\n        /* \"#utility.yul\":8918:8922   */\n      0x24\n        /* \"#utility.yul\":8915:8916   */\n      0x00\n        /* \"#utility.yul\":8908:8923   */\n      revert\n        /* \"#utility.yul\":8935:9111   */\n    tag_52:\n        /* \"#utility.yul\":8967:8968   */\n      0x00\n        /* \"#utility.yul\":8984:9004   */\n      tag_226\n        /* \"#utility.yul\":9002:9003   */\n      dup3\n        /* \"#utility.yul\":8984:9004   */\n      tag_113\n      jump\t// in\n    tag_226:\n        /* \"#utility.yul\":8979:9004   */\n      swap2\n      pop\n        /* \"#utility.yul\":9018:9038   */\n      tag_227\n        /* \"#utility.yul\":9036:9037   */\n      dup4\n        /* \"#utility.yul\":9018:9038   */\n      tag_113\n      jump\t// in\n    tag_227:\n        /* \"#utility.yul\":9013:9038   */\n      swap3\n      pop\n        /* \"#utility.yul\":9057:9058   */\n      dup3\n        /* \"#utility.yul\":9047:9082   */\n      tag_228\n      jumpi\n        /* \"#utility.yul\":9062:9080   */\n      tag_229\n      tag_130\n      jump\t// in\n    tag_229:\n        /* \"#utility.yul\":9047:9082   */\n    tag_228:\n        /* \"#utility.yul\":9103:9104   */\n      dup3\n        /* \"#utility.yul\":9100:9101   */\n      dup3\n        /* \"#utility.yul\":9096:9105   */\n      mod\n        /* \"#utility.yul\":9091:9105   */\n      swap1\n      pop\n        /* \"#utility.yul\":8935:9111   */\n      swap3\n      swap2\n      pop\n      pop\n      jump\t// out\n        /* \"#utility.yul\":9117:9308   */\n    tag_54:\n        /* \"#utility.yul\":9157:9160   */\n      0x00\n        /* \"#utility.yul\":9176:9196   */\n      tag_231\n        /* \"#utility.yul\":9194:9195   */\n      dup3\n        /* \"#utility.yul\":9176:9196   */\n      tag_113\n      jump\t// in\n    tag_231:\n        /* \"#utility.yul\":9171:9196   */\n      swap2\n      pop\n        /* \"#utility.yul\":9210:9230   */\n      tag_232\n        /* \"#utility.yul\":9228:9229   */\n      dup4\n        /* \"#utility.yul\":9210:9230   */\n      tag_113\n      jump\t// in\n    tag_232:\n        /* \"#utility.yul\":9205:9230   */\n      swap3\n      pop\n        /* \"#utility.yul\":9253:9254   */\n      dup3\n        /* \"#utility.yul\":9250:9251   */\n      dup3\n        /* \"#utility.yul\":9246:9255   */\n      add\n        /* \"#utility.yul\":9239:9255   */\n      swap1\n      pop\n        /* \"#utility.yul\":9274:9277   */\n      dup1\n        /* \"#utility.yul\":9271:9272   */\n      dup3\n        /* \"#utility.yul\":9268:9278   */\n      gt\n        /* \"#utility.yul\":9265:9301   */\n      iszero\n      tag_233\n      jumpi\n        /* \"#utility.yul\":9281:9299   */\n      tag_234\n      tag_129\n      jump\t// in\n    tag_234:\n        /* \"#utility.yul\":9265:9301   */\n    tag_233:\n        /* \"#utility.yul\":9117:9308   */\n      swap3\n      swap2\n      pop\n      pop\n      jump\t// out\n        /* \"#utility.yul\":9314:9416   */\n    tag_131:\n        /* \"#utility.yul\":9356:9364   */\n      0x00\n        /* \"#utility.yul\":9403:9408   */\n      dup2\n        /* \"#utility.yul\":9400:9401   */\n      0x01\n        /* \"#utility.yul\":9396:9409   */\n      shr\n        /* \"#utility.yul\":9375:9409   */\n      swap1\n      pop\n        /* \"#utility.yul\":9314:9416   */\n      swap2\n      swap1\n      pop\n      jump\t// out\n        /* \"#utility.yul\":9422:10270   */\n    tag_132:\n        /* \"#utility.yul\":9483:9488   */\n      0x00\n        /* \"#utility.yul\":9490:9494   */\n      dup1\n        /* \"#utility.yul\":9514:9520   */\n      dup3\n        /* \"#utility.yul\":9505:9520   */\n      swap2\n      pop\n        /* \"#utility.yul\":9538:9543   */\n      dup4\n        /* \"#utility.yul\":9529:9543   */\n      swap1\n      pop\n        /* \"#utility.yul\":9552:10264   */\n    tag_237:\n        /* \"#utility.yul\":9573:9574   */\n      0x01\n        /* \"#utility.yul\":9563:9571   */\n      dup6\n        /* \"#utility.yul\":9560:9575   */\n      gt\n        /* \"#utility.yul\":9552:10264   */\n      iszero\n      tag_239\n      jumpi\n        /* \"#utility.yul\":9668:9672   */\n      dup1\n        /* \"#utility.yul\":9663:9666   */\n      dup7\n        /* \"#utility.yul\":9659:9673   */\n      div\n        /* \"#utility.yul\":9653:9657   */\n      dup2\n        /* \"#utility.yul\":9650:9674   */\n      gt\n        /* \"#utility.yul\":9647:9697   */\n      iszero\n      tag_240\n      jumpi\n        /* \"#utility.yul\":9677:9695   */\n      tag_241\n      tag_129\n      jump\t// in\n    tag_241:\n        /* \"#utility.yul\":9647:9697   */\n    tag_240:\n        /* \"#utility.yul\":9727:9728   */\n      0x01\n        /* \"#utility.yul\":9717:9725   */\n      dup6\n        /* \"#utility.yul\":9713:9729   */\n      and\n        /* \"#utility.yul\":9710:10161   */\n      iszero\n      tag_242\n      jumpi\n        /* \"#utility.yul\":10142:10146   */\n      dup1\n        /* \"#utility.yul\":10135:10140   */\n      dup3\n        /* \"#utility.yul\":10131:10147   */\n      mul\n        /* \"#utility.yul\":10122:10147   */\n      swap2\n      pop\n        /* \"#utility.yul\":9710:10161   */\n    tag_242:\n        /* \"#utility.yul\":10192:10196   */\n      dup1\n        /* \"#utility.yul\":10186:10190   */\n      dup2\n        /* \"#utility.yul\":10182:10197   */\n      mul\n        /* \"#utility.yul\":10174:10197   */\n      swap1\n      pop\n        /* \"#utility.yul\":10222:10254   */\n      tag_243\n        /* \"#utility.yul\":10245:10253   */\n      dup6\n        /* \"#utility.yul\":10222:10254   */\n      tag_131\n      jump\t// in\n    tag_243:\n        /* \"#utility.yul\":10210:10254   */\n      swap5\n      pop\n        /* \"#utility.yul\":9552:10264   */\n      jump(tag_237)\n    tag_239:\n        /* \"#utility.yul\":9422:10270   */\n      swap5\n      pop\n      swap5\n      swap3\n      pop\n      pop\n      pop\n      jump\t// out\n        /* \"#utility.yul\":10276:11349   */\n    tag_133:\n        /* \"#utility.yul\":10330:10335   */\n      0x00\n        /* \"#utility.yul\":10521:10529   */\n      dup3\n        /* \"#utility.yul\":10511:10551   */\n      tag_245\n      jumpi\n        /* \"#utility.yul\":10542:10543   */\n      0x01\n        /* \"#utility.yul\":10533:10543   */\n      swap1\n      pop\n        /* \"#utility.yul\":10544:10549   */\n      jump(tag_244)\n        /* \"#utility.yul\":10511:10551   */\n    tag_245:\n        /* \"#utility.yul\":10570:10574   */\n      dup2\n        /* \"#utility.yul\":10560:10596   */\n      tag_246\n      jumpi\n        /* \"#utility.yul\":10587:10588   */\n      0x00\n        /* \"#utility.yul\":10578:10588   */\n      swap1\n      pop\n        /* \"#utility.yul\":10589:10594   */\n      jump(tag_244)\n        /* \"#utility.yul\":10560:10596   */\n    tag_246:\n        /* \"#utility.yul\":10656:10660   */\n      dup2\n        /* \"#utility.yul\":10704:10705   */\n      0x01\n        /* \"#utility.yul\":10699:10726   */\n      dup2\n      eq\n      tag_248\n      jumpi\n        /* \"#utility.yul\":10740:10741   */\n      0x02\n        /* \"#utility.yul\":10735:10926   */\n      dup2\n      eq\n      tag_249\n      jumpi\n        /* \"#utility.yul\":10649:10926   */\n      jump(tag_247)\n        /* \"#utility.yul\":10699:10726   */\n    tag_248:\n        /* \"#utility.yul\":10717:10718   */\n      0x01\n        /* \"#utility.yul\":10708:10718   */\n      swap2\n      pop\n        /* \"#utility.yul\":10719:10724   */\n      pop\n      jump(tag_244)\n        /* \"#utility.yul\":10735:10926   */\n    tag_249:\n        /* \"#utility.yul\":10780:10783   */\n      0xff\n        /* \"#utility.yul\":10770:10778   */\n      dup5\n        /* \"#utility.yul\":10767:10784   */\n      gt\n        /* \"#utility.yul\":10764:10807   */\n      iszero\n      tag_250\n      jumpi\n        /* \"#utility.yul\":10787:10805   */\n      tag_251\n      tag_129\n      jump\t// in\n    tag_251:\n        /* \"#utility.yul\":10764:10807   */\n    tag_250:\n        /* \"#utility.yul\":10836:10844   */\n      dup4\n        /* \"#utility.yul\":10833:10834   */\n      0x02\n        /* \"#utility.yul\":10829:10845   */\n      exp\n        /* \"#utility.yul\":10820:10845   */\n      swap2\n      pop\n        /* \"#utility.yul\":10871:10874   */\n      dup5\n        /* \"#utility.yul\":10864:10869   */\n      dup3\n        /* \"#utility.yul\":10861:10875   */\n      gt\n        /* \"#utility.yul\":10858:10898   */\n      iszero\n      tag_252\n      jumpi\n        /* \"#utility.yul\":10878:10896   */\n      tag_253\n      tag_129\n      jump\t// in\n    tag_253:\n        /* \"#utility.yul\":10858:10898   */\n    tag_252:\n        /* \"#utility.yul\":10911:10916   */\n      pop\n      jump(tag_244)\n        /* \"#utility.yul\":10649:10926   */\n    tag_247:\n      pop\n        /* \"#utility.yul\":11035:11037   */\n      0x20\n        /* \"#utility.yul\":11025:11033   */\n      dup4\n        /* \"#utility.yul\":11022:11038   */\n      lt\n        /* \"#utility.yul\":11016:11019   */\n      0x0133\n        /* \"#utility.yul\":11010:11014   */\n      dup4\n        /* \"#utility.yul\":11007:11020   */\n      lt\n        /* \"#utility.yul\":11003:11039   */\n      and\n        /* \"#utility.yul\":10985:10987   */\n      0x4e\n        /* \"#utility.yul\":10975:10983   */\n      dup5\n        /* \"#utility.yul\":10972:10988   */\n      lt\n        /* \"#utility.yul\":10967:10969   */\n      0x0b\n        /* \"#utility.yul\":10961:10965   */\n      dup5\n        /* \"#utility.yul\":10958:10970   */\n      lt\n        /* \"#utility.yul\":10954:10989   */\n      and\n        /* \"#utility.yul\":10938:11049   */\n      or\n        /* \"#utility.yul\":10935:11181   */\n      iszero\n      tag_254\n      jumpi\n        /* \"#utility.yul\":11091:11099   */\n      dup3\n        /* \"#utility.yul\":11085:11089   */\n      dup3\n        /* \"#utility.yul\":11081:11100   */\n      exp\n        /* \"#utility.yul\":11072:11100   */\n      swap1\n      pop\n        /* \"#utility.yul\":11126:11129   */\n      dup4\n        /* \"#utility.yul\":11119:11124   */\n      dup2\n        /* \"#utility.yul\":11116:11130   */\n      gt\n        /* \"#utility.yul\":11113:11153   */\n      iszero\n      tag_255\n      jumpi\n        /* \"#utility.yul\":11133:11151   */\n      tag_256\n      tag_129\n      jump\t// in\n    tag_256:\n        /* \"#utility.yul\":11113:11153   */\n    tag_255:\n        /* \"#utility.yul\":11166:11171   */\n      jump(tag_244)\n        /* \"#utility.yul\":10935:11181   */\n    tag_254:\n        /* \"#utility.yul\":11206:11248   */\n      tag_257\n        /* \"#utility.yul\":11244:11247   */\n      dup5\n        /* \"#utility.yul\":11234:11242   */\n      dup5\n        /* \"#utility.yul\":11228:11232   */\n      dup5\n        /* \"#utility.yul\":11225:11226   */\n      0x01\n        /* \"#utility.yul\":11206:11248   */\n      tag_132\n      jump\t// in\n    tag_257:\n        /* \"#utility.yul\":11191:11248   */\n      swap3\n      pop\n      swap1\n      pop\n        /* \"#utility.yul\":11280:11284   */\n      dup2\n        /* \"#utility.yul\":11275:11278   */\n      dup5\n        /* \"#utility.yul\":11271:11285   */\n      div\n        /* \"#utility.yul\":11264:11269   */\n      dup2\n        /* \"#utility.yul\":11261:11286   */\n      gt\n        /* \"#utility.yul\":11258:11309   */\n      iszero\n      tag_258\n      jumpi\n        /* \"#utility.yul\":11289:11307   */\n      tag_259\n      tag_129\n      jump\t// in\n    tag_259:\n        /* \"#utility.yul\":11258:11309   */\n    tag_258:\n        /* \"#utility.yul\":11338:11342   */\n      dup2\n        /* \"#utility.yul\":11331:11336   */\n      dup2\n        /* \"#utility.yul\":11327:11343   */\n      mul\n        /* \"#utility.yul\":11318:11343   */\n      swap1\n      pop\n        /* \"#utility.yul\":10276:11349   */\n    tag_244:\n      swap4\n      swap3\n      pop\n      pop\n      pop\n      jump\t// out\n        /* \"#utility.yul\":11355:11640   */\n    tag_67:\n        /* \"#utility.yul\":11415:11420   */\n      0x00\n        /* \"#utility.yul\":11439:11462   */\n      tag_261\n        /* \"#utility.yul\":11457:11461   */\n      dup3\n        /* \"#utility.yul\":11439:11462   */\n      tag_113\n      jump\t// in\n    tag_261:\n        /* \"#utility.yul\":11431:11462   */\n      swap2\n      pop\n        /* \"#utility.yul\":11483:11510   */\n      tag_262\n        /* \"#utility.yul\":11501:11509   */\n      dup4\n        /* \"#utility.yul\":11483:11510   */\n      tag_113\n      jump\t// in\n    tag_262:\n        /* \"#utility.yul\":11471:11510   */\n      swap3\n      pop\n        /* \"#utility.yul\":11529:11633   */\n      tag_263\n        /* \"#utility.yul\":11566:11632   */\n      0xffffffffffffffffffffffffffffffffffffffffffffffffffffffffffffffff\n        /* \"#utility.yul\":11556:11564   */\n      dup5\n        /* \"#utility.yul\":11550:11554   */\n      dup5\n        /* \"#utility.yul\":11529:11633   */\n      tag_133\n      jump\t// in\n    tag_263:\n        /* \"#utility.yul\":11520:11633   */\n      swap1\n      pop\n        /* \"#utility.yul\":11355:11640   */\n      swap3\n      swap2\n      pop\n      pop\n      jump\t// out\n        /* \"#utility.yul\":11646:11879   */\n    tag_77:\n        /* \"#utility.yul\":11685:11688   */\n      0x00\n        /* \"#utility.yul\":11708:11732   */\n      tag_265\n        /* \"#utility.yul\":11726:11731   */\n      dup3\n        /* \"#utility.yul\":11708:11732   */\n      tag_113\n      jump\t// in\n    tag_265:\n        /* \"#utility.yul\":11699:11732   */\n      swap2\n      pop\n        /* \"#utility.yul\":11754:11820   */\n      0xffffffffffffffffffffffffffffffffffffffffffffffffffffffffffffffff\n        /* \"#utility.yul\":11747:11752   */\n      dup3\n        /* \"#utility.yul\":11744:11821   */\n      sub\n        /* \"#utility.yul\":11741:11844   */\n      tag_266\n      jumpi\n        /* \"#utility.yul\":11824:11842   */\n      tag_267\n      tag_129\n      jump\t// in\n    tag_267:\n        /* \"#utility.yul\":11741:11844   */\n    tag_266:\n        /* \"#utility.yul\":11871:11872   */\n      0x01\n        /* \"#utility.yul\":11864:11869   */\n      dup3\n        /* \"#utility.yul\":11860:11873   */\n      add\n        /* \"#utility.yul\":11853:11873   */\n      swap1\n      pop\n        /* \"#utility.yul\":11646:11879   */\n      swap2\n      swap1\n      pop\n      jump\t// out\n        /* \"#utility.yul\":11885:12070   */\n    tag_98:\n        /* \"#utility.yul\":11925:11926   */\n      0x00\n        /* \"#utility.yul\":11942:11962   */\n      tag_269\n        /* \"#utility.yul\":11960:11961   */\n      dup3\n        /* \"#utility.yul\":11942:11962   */\n      tag_113\n      jump\t// in\n    tag_269:\n        /* \"#utility.yul\":11937:11962   */\n      swap2\n      pop\n        /* \"#utility.yul\":11976:11996   */\n      tag_270\n        /* \"#utility.yul\":11994:11995   */\n      dup4\n        /* \"#utility.yul\":11976:11996   */\n      tag_113\n      jump\t// in\n    tag_270:\n        /* \"#utility.yul\":11971:11996   */\n      swap3\n      pop\n        /* \"#utility.yul\":12015:12016   */\n      dup3\n        /* \"#utility.yul\":12005:12040   */\n      tag_271\n      jumpi\n        /* \"#utility.yul\":12020:12038   */\n      tag_272\n      tag_130\n      jump\t// in\n    tag_272:\n        /* \"#utility.yul\":12005:12040   */\n    tag_271:\n        /* \"#utility.yul\":12062:12063   */\n      dup3\n        /* \"#utility.yul\":12059:12060   */\n      dup3\n        /* \"#utility.yul\":12055:12064   */\n      div\n        /* \"#utility.yul\":12050:12064   */\n      swap1\n      pop\n        /* \"#utility.yul\":11885:12070   */\n      swap3\n      swap2\n      pop\n      pop\n      jump\t// out\n\n    auxdata: 0xa2646970667358221220616fdb7309db7228b55fb3f3def7621fc7432bbb5bafc1860f9986dac8bcece564736f6c63430008180033\n}\n",
				"bytecode": {
					"linkReferences": {},
					"object": "608060405234801562000010575f80fd5b50604051620013ad380380620013ad8339818101604052810190620000369190620003de565b8260028190555081600481905550600160045462000055919062000464565b67ffffffffffffffff8111156200007157620000706200049e565b5b604051908082528060200260200182016040528015620000a05781602001602082028036833780820191505090505b5060059080519060200190620000b892919062000335565b50620000ca81620001aa60201b60201c565b5f819055505f5442604051602001620000e49190620004ef565b604051602081830303815290604052805190602001205f1c62000108919062000538565b6001819055505f5b600160045462000121919062000464565b811015620001a0575f5481426200013991906200056f565b6040516020016200014b9190620004ef565b604051602081830303815290604052805190602001205f1c6200016f919062000538565b60058281548110620001865762000185620005a9565b5b905f5260205f200181905550808060010191505062000110565b50505050620007c0565b5f80826002620001bb919062000726565b42604051602001620001ce9190620004ef565b604051602081830303815290604052805190602001205f1c620001f2919062000538565b90505f60028262000204919062000538565b036200021c576001816200021991906200056f565b90505b5b6200022e816200025360201b60201c565b6200024a576002816200024291906200056f565b90506200021d565b80915050919050565b5f6001821162000266575f905062000330565b6003821162000279576001905062000330565b5f60028362000289919062000538565b1480620002a357505f600383620002a1919062000538565b145b15620002b2575f905062000330565b5f600590505b828182620002c7919062000776565b116200032a575f8184620002dc919062000538565b14806200030357505f600282620002f491906200056f565b8462000301919062000538565b145b1562000313575f91505062000330565b6006816200032291906200056f565b9050620002b8565b50600190505b919050565b828054828255905f5260205f2090810192821562000372579160200282015b828111156200037157825182559160200191906001019062000354565b5b50905062000381919062000385565b5090565b5b808211156200039e575f815f90555060010162000386565b5090565b5f80fd5b5f819050919050565b620003ba81620003a6565b8114620003c5575f80fd5b50565b5f81519050620003d881620003af565b92915050565b5f805f60608486031215620003f857620003f7620003a2565b5b5f6200040786828701620003c8565b93505060206200041a86828701620003c8565b92505060406200042d86828701620003c8565b9150509250925092565b7f4e487b71000000000000000000000000000000000000000000000000000000005f52601160045260245ffd5b5f6200047082620003a6565b91506200047d83620003a6565b925082820390508181111562000498576200049762000437565b5b92915050565b7f4e487b71000000000000000000000000000000000000000000000000000000005f52604160045260245ffd5b5f819050919050565b620004e9620004e382620003a6565b620004cb565b82525050565b5f620004fc8284620004d4565b60208201915081905092915050565b7f4e487b71000000000000000000000000000000000000000000000000000000005f52601260045260245ffd5b5f6200054482620003a6565b91506200055183620003a6565b9250826200056457620005636200050b565b5b828206905092915050565b5f6200057b82620003a6565b91506200058883620003a6565b9250828201905080821115620005a357620005a262000437565b5b92915050565b7f4e487b71000000000000000000000000000000000000000000000000000000005f52603260045260245ffd5b5f8160011c9050919050565b5f808291508390505b600185111562000633578086048111156200060b576200060a62000437565b5b60018516156200061b5780820291505b80810290506200062b85620005d6565b9450620005eb565b94509492505050565b5f826200064d57600190506200071f565b816200065c575f90506200071f565b81600181146200067557600281146200068057620006b6565b60019150506200071f565b60ff84111562000695576200069462000437565b5b8360020a915084821115620006af57620006ae62000437565b5b506200071f565b5060208310610133831016604e8410600b8410161715620006f05782820a905083811115620006ea57620006e962000437565b5b6200071f565b620006ff8484846001620005e2565b9250905081840481111562000719576200071862000437565b5b81810290505b9392505050565b5f6200073282620003a6565b91506200073f83620003a6565b92506200076e7fffffffffffffffffffffffffffffffffffffffffffffffffffffffffffffffff84846200063c565b905092915050565b5f6200078282620003a6565b91506200078f83620003a6565b92508282026200079f81620003a6565b91508282048414831517620007b957620007b862000437565b5b5092915050565b610bdf80620007ce5f395ff3fe608060405234801561000f575f80fd5b506004361061004a575f3560e01c80631d55bcd01461004e57806326ecb26c1461007e5780632c29fe7e14610088578063498edc2d146100a8575b5f80fd5b61006860048036038101906100639190610661565b6100c6565b60405161007591906106b7565b60405180910390f35b610086610234565b005b61009061031a565b60405161009f93929190610787565b60405180910390f35b6100b0610380565b6040516100bd91906107c3565b60405180910390f35b5f6004548251101561010d576040517f08c379a00000000000000000000000000000000000000000000000000000000081526004016101049061083d565b60405180910390fd5b5f805b60045481101561021e575f60035f8684815181106101315761013061085b565b5b602002602001015181526020019081526020015f205490505f5b600454811015610201578083146101f4576101a68682815181106101725761017161085b565b5b602002602001015187858151811061018d5761018c61085b565b5b602002602001015161019f91906108b5565b5f54610437565b8682815181106101b9576101b861085b565b5b60200260200101515f546101cd91906108b5565b6101d791906108e8565b826101e291906108e8565b91505f54826101f19190610956565b91505b808060010191505061014b565b50808361020e9190610986565b9250508080600101915050610110565b505f548161022c9190610956565b915050919050565b5f600190505b6002548111610317575f8190505f805b600160045461025991906108b5565b8110156102d2575f5481600160045461027291906108b5565b61027c91906108b5565b846102879190610ae8565b6005838154811061029b5761029a61085b565b5b905f5260205f2001546102ae91906108e8565b6102b89190610956565b826102c39190610986565b9150808060010191505061024a565b505f54600154826102e39190610986565b6102ed9190610956565b60035f8581526020019081526020015f20819055505050808061030f90610b32565b91505061023a565b50565b5f8060605f5460015460058080548060200260200160405190810160405280929190818152602001828054801561036e57602002820191905f5260205f20905b81548152602001906001019080831161035a575b50505050509050925092509250909192565b60605f60025467ffffffffffffffff81111561039f5761039e6104f2565b5b6040519080825280602002602001820160405280156103cd5781602001602082028036833780820191505090505b5090505f600190505b600254811161042f5760035f8281526020019081526020015f2054826001836103ff91906108b5565b815181106104105761040f61085b565b5b602002602001018181525050808061042790610b32565b9150506103d6565b508091505090565b5f808290505f806001905060018503610455575f93505050506104c7565b5b60018611156104a9575f858761046c9190610b79565b90505f869050868861047e9190610956565b9650809750839050838261049291906108e8565b8361049d91906108b5565b93508092505050610456565b5f8110156104c05782816104bd9190610986565b90505b8093505050505b92915050565b5f604051905090565b5f80fd5b5f80fd5b5f80fd5b5f601f19601f8301169050919050565b7f4e487b71000000000000000000000000000000000000000000000000000000005f52604160045260245ffd5b610528826104e2565b810181811067ffffffffffffffff82111715610547576105466104f2565b5b80604052505050565b5f6105596104cd565b9050610565828261051f565b919050565b5f67ffffffffffffffff821115610584576105836104f2565b5b602082029050602081019050919050565b5f80fd5b5f819050919050565b6105ab81610599565b81146105b5575f80fd5b50565b5f813590506105c6816105a2565b92915050565b5f6105de6105d98461056a565b610550565b9050808382526020820190506020840283018581111561060157610600610595565b5b835b8181101561062a578061061688826105b8565b845260208401935050602081019050610603565b5050509392505050565b5f82601f830112610648576106476104de565b5b81356106588482602086016105cc565b91505092915050565b5f60208284031215610676576106756104d6565b5b5f82013567ffffffffffffffff811115610693576106926104da565b5b61069f84828501610634565b91505092915050565b6106b181610599565b82525050565b5f6020820190506106ca5f8301846106a8565b92915050565b5f81519050919050565b5f82825260208201905092915050565b5f819050602082019050919050565b61070281610599565b82525050565b5f61071383836106f9565b60208301905092915050565b5f602082019050919050565b5f610735826106d0565b61073f81856106da565b935061074a836106ea565b805f5b8381101561077a5781516107618882610708565b975061076c8361071f565b92505060018101905061074d565b5085935050505092915050565b5f60608201905061079a5f8301866106a8565b6107a760208301856106a8565b81810360408301526107b9818461072b565b9050949350505050565b5f6020820190508181035f8301526107db818461072b565b905092915050565b5f82825260208201905092915050565b7f496e73756666696369656e74207368617265732070726f76696465642e0000005f82015250565b5f610827601d836107e3565b9150610832826107f3565b602082019050919050565b5f6020820190508181035f8301526108548161081b565b9050919050565b7f4e487b71000000000000000000000000000000000000000000000000000000005f52603260045260245ffd5b7f4e487b71000000000000000000000000000000000000000000000000000000005f52601160045260245ffd5b5f6108bf82610599565b91506108ca83610599565b92508282039050818111156108e2576108e1610888565b5b92915050565b5f6108f282610599565b91506108fd83610599565b925082820261090b81610599565b9150828204841483151761092257610921610888565b5b5092915050565b7f4e487b71000000000000000000000000000000000000000000000000000000005f52601260045260245ffd5b5f61096082610599565b915061096b83610599565b92508261097b5761097a610929565b5b828206905092915050565b5f61099082610599565b915061099b83610599565b92508282019050808211156109b3576109b2610888565b5b92915050565b5f8160011c9050919050565b5f808291508390505b6001851115610a0e578086048111156109ea576109e9610888565b5b60018516156109f95780820291505b8081029050610a07856109b9565b94506109ce565b94509492505050565b5f82610a265760019050610ae1565b81610a33575f9050610ae1565b8160018114610a495760028114610a5357610a82565b6001915050610ae1565b60ff841115610a6557610a64610888565b5b8360020a915084821115610a7c57610a7b610888565b5b50610ae1565b5060208310610133831016604e8410600b8410161715610ab75782820a905083811115610ab257610ab1610888565b5b610ae1565b610ac484848460016109c5565b92509050818404811115610adb57610ada610888565b5b81810290505b9392505050565b5f610af282610599565b9150610afd83610599565b9250610b2a7fffffffffffffffffffffffffffffffffffffffffffffffffffffffffffffffff8484610a17565b905092915050565b5f610b3c82610599565b91507fffffffffffffffffffffffffffffffffffffffffffffffffffffffffffffffff8203610b6e57610b6d610888565b5b600182019050919050565b5f610b8382610599565b9150610b8e83610599565b925082610b9e57610b9d610929565b5b82820490509291505056fea2646970667358221220616fdb7309db7228b55fb3f3def7621fc7432bbb5bafc1860f9986dac8bcece564736f6c63430008180033",
					"opcodes": "PUSH1 0x80 PUSH1 0x40 MSTORE CALLVALUE DUP1 ISZERO PUSH3 0x10 JUMPI PUSH0 DUP1 REVERT JUMPDEST POP PUSH1 0x40 MLOAD PUSH3 0x13AD CODESIZE SUB DUP1 PUSH3 0x13AD DUP4 CODECOPY DUP2 DUP2 ADD PUSH1 0x40 MSTORE DUP2 ADD SWAP1 PUSH3 0x36 SWAP2 SWAP1 PUSH3 0x3DE JUMP JUMPDEST DUP3 PUSH1 0x2 DUP2 SWAP1 SSTORE POP DUP2 PUSH1 0x4 DUP2 SWAP1 SSTORE POP PUSH1 0x1 PUSH1 0x4 SLOAD PUSH3 0x55 SWAP2 SWAP1 PUSH3 0x464 JUMP JUMPDEST PUSH8 0xFFFFFFFFFFFFFFFF DUP2 GT ISZERO PUSH3 0x71 JUMPI PUSH3 0x70 PUSH3 0x49E JUMP JUMPDEST JUMPDEST PUSH1 0x40 MLOAD SWAP1 DUP1 DUP3 MSTORE DUP1 PUSH1 0x20 MUL PUSH1 0x20 ADD DUP3 ADD PUSH1 0x40 MSTORE DUP1 ISZERO PUSH3 0xA0 JUMPI DUP2 PUSH1 0x20 ADD PUSH1 0x20 DUP3 MUL DUP1 CALLDATASIZE DUP4 CALLDATACOPY DUP1 DUP3 ADD SWAP2 POP POP SWAP1 POP JUMPDEST POP PUSH1 0x5 SWAP1 DUP1 MLOAD SWAP1 PUSH1 0x20 ADD SWAP1 PUSH3 0xB8 SWAP3 SWAP2 SWAP1 PUSH3 0x335 JUMP JUMPDEST POP PUSH3 0xCA DUP2 PUSH3 0x1AA PUSH1 0x20 SHL PUSH1 0x20 SHR JUMP JUMPDEST PUSH0 DUP2 SWAP1 SSTORE POP PUSH0 SLOAD TIMESTAMP PUSH1 0x40 MLOAD PUSH1 0x20 ADD PUSH3 0xE4 SWAP2 SWAP1 PUSH3 0x4EF JUMP JUMPDEST PUSH1 0x40 MLOAD PUSH1 0x20 DUP2 DUP4 SUB SUB DUP2 MSTORE SWAP1 PUSH1 0x40 MSTORE DUP1 MLOAD SWAP1 PUSH1 0x20 ADD KECCAK256 PUSH0 SHR PUSH3 0x108 SWAP2 SWAP1 PUSH3 0x538 JUMP JUMPDEST PUSH1 0x1 DUP2 SWAP1 SSTORE POP PUSH0 JUMPDEST PUSH1 0x1 PUSH1 0x4 SLOAD PUSH3 0x121 SWAP2 SWAP1 PUSH3 0x464 JUMP JUMPDEST DUP2 LT ISZERO PUSH3 0x1A0 JUMPI PUSH0 SLOAD DUP2 TIMESTAMP PUSH3 0x139 SWAP2 SWAP1 PUSH3 0x56F JUMP JUMPDEST PUSH1 0x40 MLOAD PUSH1 0x20 ADD PUSH3 0x14B SWAP2 SWAP1 PUSH3 0x4EF JUMP JUMPDEST PUSH1 0x40 MLOAD PUSH1 0x20 DUP2 DUP4 SUB SUB DUP2 MSTORE SWAP1 PUSH1 0x40 MSTORE DUP1 MLOAD SWAP1 PUSH1 0x20 ADD KECCAK256 PUSH0 SHR PUSH3 0x16F SWAP2 SWAP1 PUSH3 0x538 JUMP JUMPDEST PUSH1 0x5 DUP3 DUP2 SLOAD DUP2 LT PUSH3 0x186 JUMPI PUSH3 0x185 PUSH3 0x5A9 JUMP JUMPDEST JUMPDEST SWAP1 PUSH0 MSTORE PUSH1 0x20 PUSH0 KECCAK256 ADD DUP2 SWAP1 SSTORE POP DUP1 DUP1 PUSH1 0x1 ADD SWAP2 POP POP PUSH3 0x110 JUMP JUMPDEST POP POP POP POP PUSH3 0x7C0 JUMP JUMPDEST PUSH0 DUP1 DUP3 PUSH1 0x2 PUSH3 0x1BB SWAP2 SWAP1 PUSH3 0x726 JUMP JUMPDEST TIMESTAMP PUSH1 0x40 MLOAD PUSH1 0x20 ADD PUSH3 0x1CE SWAP2 SWAP1 PUSH3 0x4EF JUMP JUMPDEST PUSH1 0x40 MLOAD PUSH1 0x20 DUP2 DUP4 SUB SUB DUP2 MSTORE SWAP1 PUSH1 0x40 MSTORE DUP1 MLOAD SWAP1 PUSH1 0x20 ADD KECCAK256 PUSH0 SHR PUSH3 0x1F2 SWAP2 SWAP1 PUSH3 0x538 JUMP JUMPDEST SWAP1 POP PUSH0 PUSH1 0x2 DUP3 PUSH3 0x204 SWAP2 SWAP1 PUSH3 0x538 JUMP JUMPDEST SUB PUSH3 0x21C JUMPI PUSH1 0x1 DUP2 PUSH3 0x219 SWAP2 SWAP1 PUSH3 0x56F JUMP JUMPDEST SWAP1 POP JUMPDEST JUMPDEST PUSH3 0x22E DUP2 PUSH3 0x253 PUSH1 0x20 SHL PUSH1 0x20 SHR JUMP JUMPDEST PUSH3 0x24A JUMPI PUSH1 0x2 DUP2 PUSH3 0x242 SWAP2 SWAP1 PUSH3 0x56F JUMP JUMPDEST SWAP1 POP PUSH3 0x21D JUMP JUMPDEST DUP1 SWAP2 POP POP SWAP2 SWAP1 POP JUMP JUMPDEST PUSH0 PUSH1 0x1 DUP3 GT PUSH3 0x266 JUMPI PUSH0 SWAP1 POP PUSH3 0x330 JUMP JUMPDEST PUSH1 0x3 DUP3 GT PUSH3 0x279 JUMPI PUSH1 0x1 SWAP1 POP PUSH3 0x330 JUMP JUMPDEST PUSH0 PUSH1 0x2 DUP4 PUSH3 0x289 SWAP2 SWAP1 PUSH3 0x538 JUMP JUMPDEST EQ DUP1 PUSH3 0x2A3 JUMPI POP PUSH0 PUSH1 0x3 DUP4 PUSH3 0x2A1 SWAP2 SWAP1 PUSH3 0x538 JUMP JUMPDEST EQ JUMPDEST ISZERO PUSH3 0x2B2 JUMPI PUSH0 SWAP1 POP PUSH3 0x330 JUMP JUMPDEST PUSH0 PUSH1 0x5 SWAP1 POP JUMPDEST DUP3 DUP2 DUP3 PUSH3 0x2C7 SWAP2 SWAP1 PUSH3 0x776 JUMP JUMPDEST GT PUSH3 0x32A JUMPI PUSH0 DUP2 DUP5 PUSH3 0x2DC SWAP2 SWAP1 PUSH3 0x538 JUMP JUMPDEST EQ DUP1 PUSH3 0x303 JUMPI POP PUSH0 PUSH1 0x2 DUP3 PUSH3 0x2F4 SWAP2 SWAP1 PUSH3 0x56F JUMP JUMPDEST DUP5 PUSH3 0x301 SWAP2 SWAP1 PUSH3 0x538 JUMP JUMPDEST EQ JUMPDEST ISZERO PUSH3 0x313 JUMPI PUSH0 SWAP2 POP POP PUSH3 0x330 JUMP JUMPDEST PUSH1 0x6 DUP2 PUSH3 0x322 SWAP2 SWAP1 PUSH3 0x56F JUMP JUMPDEST SWAP1 POP PUSH3 0x2B8 JUMP JUMPDEST POP PUSH1 0x1 SWAP1 POP JUMPDEST SWAP2 SWAP1 POP JUMP JUMPDEST DUP3 DUP1 SLOAD DUP3 DUP3 SSTORE SWAP1 PUSH0 MSTORE PUSH1 0x20 PUSH0 KECCAK256 SWAP1 DUP2 ADD SWAP3 DUP3 ISZERO PUSH3 0x372 JUMPI SWAP2 PUSH1 0x20 MUL DUP3 ADD JUMPDEST DUP3 DUP2 GT ISZERO PUSH3 0x371 JUMPI DUP3 MLOAD DUP3 SSTORE SWAP2 PUSH1 0x20 ADD SWAP2 SWAP1 PUSH1 0x1 ADD SWAP1 PUSH3 0x354 JUMP JUMPDEST JUMPDEST POP SWAP1 POP PUSH3 0x381 SWAP2 SWAP1 PUSH3 0x385 JUMP JUMPDEST POP SWAP1 JUMP JUMPDEST JUMPDEST DUP1 DUP3 GT ISZERO PUSH3 0x39E JUMPI PUSH0 DUP2 PUSH0 SWAP1 SSTORE POP PUSH1 0x1 ADD PUSH3 0x386 JUMP JUMPDEST POP SWAP1 JUMP JUMPDEST PUSH0 DUP1 REVERT JUMPDEST PUSH0 DUP2 SWAP1 POP SWAP2 SWAP1 POP JUMP JUMPDEST PUSH3 0x3BA DUP2 PUSH3 0x3A6 JUMP JUMPDEST DUP2 EQ PUSH3 0x3C5 JUMPI PUSH0 DUP1 REVERT JUMPDEST POP JUMP JUMPDEST PUSH0 DUP2 MLOAD SWAP1 POP PUSH3 0x3D8 DUP2 PUSH3 0x3AF JUMP JUMPDEST SWAP3 SWAP2 POP POP JUMP JUMPDEST PUSH0 DUP1 PUSH0 PUSH1 0x60 DUP5 DUP7 SUB SLT ISZERO PUSH3 0x3F8 JUMPI PUSH3 0x3F7 PUSH3 0x3A2 JUMP JUMPDEST JUMPDEST PUSH0 PUSH3 0x407 DUP7 DUP3 DUP8 ADD PUSH3 0x3C8 JUMP JUMPDEST SWAP4 POP POP PUSH1 0x20 PUSH3 0x41A DUP7 DUP3 DUP8 ADD PUSH3 0x3C8 JUMP JUMPDEST SWAP3 POP POP PUSH1 0x40 PUSH3 0x42D DUP7 DUP3 DUP8 ADD PUSH3 0x3C8 JUMP JUMPDEST SWAP2 POP POP SWAP3 POP SWAP3 POP SWAP3 JUMP JUMPDEST PUSH32 0x4E487B7100000000000000000000000000000000000000000000000000000000 PUSH0 MSTORE PUSH1 0x11 PUSH1 0x4 MSTORE PUSH1 0x24 PUSH0 REVERT JUMPDEST PUSH0 PUSH3 0x470 DUP3 PUSH3 0x3A6 JUMP JUMPDEST SWAP2 POP PUSH3 0x47D DUP4 PUSH3 0x3A6 JUMP JUMPDEST SWAP3 POP DUP3 DUP3 SUB SWAP1 POP DUP2 DUP2 GT ISZERO PUSH3 0x498 JUMPI PUSH3 0x497 PUSH3 0x437 JUMP JUMPDEST JUMPDEST SWAP3 SWAP2 POP POP JUMP JUMPDEST PUSH32 0x4E487B7100000000000000000000000000000000000000000000000000000000 PUSH0 MSTORE PUSH1 0x41 PUSH1 0x4 MSTORE PUSH1 0x24 PUSH0 REVERT JUMPDEST PUSH0 DUP2 SWAP1 POP SWAP2 SWAP1 POP JUMP JUMPDEST PUSH3 0x4E9 PUSH3 0x4E3 DUP3 PUSH3 0x3A6 JUMP JUMPDEST PUSH3 0x4CB JUMP JUMPDEST DUP3 MSTORE POP POP JUMP JUMPDEST PUSH0 PUSH3 0x4FC DUP3 DUP5 PUSH3 0x4D4 JUMP JUMPDEST PUSH1 0x20 DUP3 ADD SWAP2 POP DUP2 SWAP1 POP SWAP3 SWAP2 POP POP JUMP JUMPDEST PUSH32 0x4E487B7100000000000000000000000000000000000000000000000000000000 PUSH0 MSTORE PUSH1 0x12 PUSH1 0x4 MSTORE PUSH1 0x24 PUSH0 REVERT JUMPDEST PUSH0 PUSH3 0x544 DUP3 PUSH3 0x3A6 JUMP JUMPDEST SWAP2 POP PUSH3 0x551 DUP4 PUSH3 0x3A6 JUMP JUMPDEST SWAP3 POP DUP3 PUSH3 0x564 JUMPI PUSH3 0x563 PUSH3 0x50B JUMP JUMPDEST JUMPDEST DUP3 DUP3 MOD SWAP1 POP SWAP3 SWAP2 POP POP JUMP JUMPDEST PUSH0 PUSH3 0x57B DUP3 PUSH3 0x3A6 JUMP JUMPDEST SWAP2 POP PUSH3 0x588 DUP4 PUSH3 0x3A6 JUMP JUMPDEST SWAP3 POP DUP3 DUP3 ADD SWAP1 POP DUP1 DUP3 GT ISZERO PUSH3 0x5A3 JUMPI PUSH3 0x5A2 PUSH3 0x437 JUMP JUMPDEST JUMPDEST SWAP3 SWAP2 POP POP JUMP JUMPDEST PUSH32 0x4E487B7100000000000000000000000000000000000000000000000000000000 PUSH0 MSTORE PUSH1 0x32 PUSH1 0x4 MSTORE PUSH1 0x24 PUSH0 REVERT JUMPDEST PUSH0 DUP2 PUSH1 0x1 SHR SWAP1 POP SWAP2 SWAP1 POP JUMP JUMPDEST PUSH0 DUP1 DUP3 SWAP2 POP DUP4 SWAP1 POP JUMPDEST PUSH1 0x1 DUP6 GT ISZERO PUSH3 0x633 JUMPI DUP1 DUP7 DIV DUP2 GT ISZERO PUSH3 0x60B JUMPI PUSH3 0x60A PUSH3 0x437 JUMP JUMPDEST JUMPDEST PUSH1 0x1 DUP6 AND ISZERO PUSH3 0x61B JUMPI DUP1 DUP3 MUL SWAP2 POP JUMPDEST DUP1 DUP2 MUL SWAP1 POP PUSH3 0x62B DUP6 PUSH3 0x5D6 JUMP JUMPDEST SWAP5 POP PUSH3 0x5EB JUMP JUMPDEST SWAP5 POP SWAP5 SWAP3 POP POP POP JUMP JUMPDEST PUSH0 DUP3 PUSH3 0x64D JUMPI PUSH1 0x1 SWAP1 POP PUSH3 0x71F JUMP JUMPDEST DUP2 PUSH3 0x65C JUMPI PUSH0 SWAP1 POP PUSH3 0x71F JUMP JUMPDEST DUP2 PUSH1 0x1 DUP2 EQ PUSH3 0x675 JUMPI PUSH1 0x2 DUP2 EQ PUSH3 0x680 JUMPI PUSH3 0x6B6 JUMP JUMPDEST PUSH1 0x1 SWAP2 POP POP PUSH3 0x71F JUMP JUMPDEST PUSH1 0xFF DUP5 GT ISZERO PUSH3 0x695 JUMPI PUSH3 0x694 PUSH3 0x437 JUMP JUMPDEST JUMPDEST DUP4 PUSH1 0x2 EXP SWAP2 POP DUP5 DUP3 GT ISZERO PUSH3 0x6AF JUMPI PUSH3 0x6AE PUSH3 0x437 JUMP JUMPDEST JUMPDEST POP PUSH3 0x71F JUMP JUMPDEST POP PUSH1 0x20 DUP4 LT PUSH2 0x133 DUP4 LT AND PUSH1 0x4E DUP5 LT PUSH1 0xB DUP5 LT AND OR ISZERO PUSH3 0x6F0 JUMPI DUP3 DUP3 EXP SWAP1 POP DUP4 DUP2 GT ISZERO PUSH3 0x6EA JUMPI PUSH3 0x6E9 PUSH3 0x437 JUMP JUMPDEST JUMPDEST PUSH3 0x71F JUMP JUMPDEST PUSH3 0x6FF DUP5 DUP5 DUP5 PUSH1 0x1 PUSH3 0x5E2 JUMP JUMPDEST SWAP3 POP SWAP1 POP DUP2 DUP5 DIV DUP2 GT ISZERO PUSH3 0x719 JUMPI PUSH3 0x718 PUSH3 0x437 JUMP JUMPDEST JUMPDEST DUP2 DUP2 MUL SWAP1 POP JUMPDEST SWAP4 SWAP3 POP POP POP JUMP JUMPDEST PUSH0 PUSH3 0x732 DUP3 PUSH3 0x3A6 JUMP JUMPDEST SWAP2 POP PUSH3 0x73F DUP4 PUSH3 0x3A6 JUMP JUMPDEST SWAP3 POP PUSH3 0x76E PUSH32 0xFFFFFFFFFFFFFFFFFFFFFFFFFFFFFFFFFFFFFFFFFFFFFFFFFFFFFFFFFFFFFFFF DUP5 DUP5 PUSH3 0x63C JUMP JUMPDEST SWAP1 POP SWAP3 SWAP2 POP POP JUMP JUMPDEST PUSH0 PUSH3 0x782 DUP3 PUSH3 0x3A6 JUMP JUMPDEST SWAP2 POP PUSH3 0x78F DUP4 PUSH3 0x3A6 JUMP JUMPDEST SWAP3 POP DUP3 DUP3 MUL PUSH3 0x79F DUP2 PUSH3 0x3A6 JUMP JUMPDEST SWAP2 POP DUP3 DUP3 DIV DUP5 EQ DUP4 ISZERO OR PUSH3 0x7B9 JUMPI PUSH3 0x7B8 PUSH3 0x437 JUMP JUMPDEST JUMPDEST POP SWAP3 SWAP2 POP POP JUMP JUMPDEST PUSH2 0xBDF DUP1 PUSH3 0x7CE PUSH0 CODECOPY PUSH0 RETURN INVALID PUSH1 0x80 PUSH1 0x40 MSTORE CALLVALUE DUP1 ISZERO PUSH2 0xF JUMPI PUSH0 DUP1 REVERT JUMPDEST POP PUSH1 0x4 CALLDATASIZE LT PUSH2 0x4A JUMPI PUSH0 CALLDATALOAD PUSH1 0xE0 SHR DUP1 PUSH4 0x1D55BCD0 EQ PUSH2 0x4E JUMPI DUP1 PUSH4 0x26ECB26C EQ PUSH2 0x7E JUMPI DUP1 PUSH4 0x2C29FE7E EQ PUSH2 0x88 JUMPI DUP1 PUSH4 0x498EDC2D EQ PUSH2 0xA8 JUMPI JUMPDEST PUSH0 DUP1 REVERT JUMPDEST PUSH2 0x68 PUSH1 0x4 DUP1 CALLDATASIZE SUB DUP2 ADD SWAP1 PUSH2 0x63 SWAP2 SWAP1 PUSH2 0x661 JUMP JUMPDEST PUSH2 0xC6 JUMP JUMPDEST PUSH1 0x40 MLOAD PUSH2 0x75 SWAP2 SWAP1 PUSH2 0x6B7 JUMP JUMPDEST PUSH1 0x40 MLOAD DUP1 SWAP2 SUB SWAP1 RETURN JUMPDEST PUSH2 0x86 PUSH2 0x234 JUMP JUMPDEST STOP JUMPDEST PUSH2 0x90 PUSH2 0x31A JUMP JUMPDEST PUSH1 0x40 MLOAD PUSH2 0x9F SWAP4 SWAP3 SWAP2 SWAP1 PUSH2 0x787 JUMP JUMPDEST PUSH1 0x40 MLOAD DUP1 SWAP2 SUB SWAP1 RETURN JUMPDEST PUSH2 0xB0 PUSH2 0x380 JUMP JUMPDEST PUSH1 0x40 MLOAD PUSH2 0xBD SWAP2 SWAP1 PUSH2 0x7C3 JUMP JUMPDEST PUSH1 0x40 MLOAD DUP1 SWAP2 SUB SWAP1 RETURN JUMPDEST PUSH0 PUSH1 0x4 SLOAD DUP3 MLOAD LT ISZERO PUSH2 0x10D JUMPI PUSH1 0x40 MLOAD PUSH32 0x8C379A000000000000000000000000000000000000000000000000000000000 DUP2 MSTORE PUSH1 0x4 ADD PUSH2 0x104 SWAP1 PUSH2 0x83D JUMP JUMPDEST PUSH1 0x40 MLOAD DUP1 SWAP2 SUB SWAP1 REVERT JUMPDEST PUSH0 DUP1 JUMPDEST PUSH1 0x4 SLOAD DUP2 LT ISZERO PUSH2 0x21E JUMPI PUSH0 PUSH1 0x3 PUSH0 DUP7 DUP5 DUP2 MLOAD DUP2 LT PUSH2 0x131 JUMPI PUSH2 0x130 PUSH2 0x85B JUMP JUMPDEST JUMPDEST PUSH1 0x20 MUL PUSH1 0x20 ADD ADD MLOAD DUP2 MSTORE PUSH1 0x20 ADD SWAP1 DUP2 MSTORE PUSH1 0x20 ADD PUSH0 KECCAK256 SLOAD SWAP1 POP PUSH0 JUMPDEST PUSH1 0x4 SLOAD DUP2 LT ISZERO PUSH2 0x201 JUMPI DUP1 DUP4 EQ PUSH2 0x1F4 JUMPI PUSH2 0x1A6 DUP7 DUP3 DUP2 MLOAD DUP2 LT PUSH2 0x172 JUMPI PUSH2 0x171 PUSH2 0x85B JUMP JUMPDEST JUMPDEST PUSH1 0x20 MUL PUSH1 0x20 ADD ADD MLOAD DUP8 DUP6 DUP2 MLOAD DUP2 LT PUSH2 0x18D JUMPI PUSH2 0x18C PUSH2 0x85B JUMP JUMPDEST JUMPDEST PUSH1 0x20 MUL PUSH1 0x20 ADD ADD MLOAD PUSH2 0x19F SWAP2 SWAP1 PUSH2 0x8B5 JUMP JUMPDEST PUSH0 SLOAD PUSH2 0x437 JUMP JUMPDEST DUP7 DUP3 DUP2 MLOAD DUP2 LT PUSH2 0x1B9 JUMPI PUSH2 0x1B8 PUSH2 0x85B JUMP JUMPDEST JUMPDEST PUSH1 0x20 MUL PUSH1 0x20 ADD ADD MLOAD PUSH0 SLOAD PUSH2 0x1CD SWAP2 SWAP1 PUSH2 0x8B5 JUMP JUMPDEST PUSH2 0x1D7 SWAP2 SWAP1 PUSH2 0x8E8 JUMP JUMPDEST DUP3 PUSH2 0x1E2 SWAP2 SWAP1 PUSH2 0x8E8 JUMP JUMPDEST SWAP2 POP PUSH0 SLOAD DUP3 PUSH2 0x1F1 SWAP2 SWAP1 PUSH2 0x956 JUMP JUMPDEST SWAP2 POP JUMPDEST DUP1 DUP1 PUSH1 0x1 ADD SWAP2 POP POP PUSH2 0x14B JUMP JUMPDEST POP DUP1 DUP4 PUSH2 0x20E SWAP2 SWAP1 PUSH2 0x986 JUMP JUMPDEST SWAP3 POP POP DUP1 DUP1 PUSH1 0x1 ADD SWAP2 POP POP PUSH2 0x110 JUMP JUMPDEST POP PUSH0 SLOAD DUP2 PUSH2 0x22C SWAP2 SWAP1 PUSH2 0x956 JUMP JUMPDEST SWAP2 POP POP SWAP2 SWAP1 POP JUMP JUMPDEST PUSH0 PUSH1 0x1 SWAP1 POP JUMPDEST PUSH1 0x2 SLOAD DUP2 GT PUSH2 0x317 JUMPI PUSH0 DUP2 SWAP1 POP PUSH0 DUP1 JUMPDEST PUSH1 0x1 PUSH1 0x4 SLOAD PUSH2 0x259 SWAP2 SWAP1 PUSH2 0x8B5 JUMP JUMPDEST DUP2 LT ISZERO PUSH2 0x2D2 JUMPI PUSH0 SLOAD DUP2 PUSH1 0x1 PUSH1 0x4 SLOAD PUSH2 0x272 SWAP2 SWAP1 PUSH2 0x8B5 JUMP JUMPDEST PUSH2 0x27C SWAP2 SWAP1 PUSH2 0x8B5 JUMP JUMPDEST DUP5 PUSH2 0x287 SWAP2 SWAP1 PUSH2 0xAE8 JUMP JUMPDEST PUSH1 0x5 DUP4 DUP2 SLOAD DUP2 LT PUSH2 0x29B JUMPI PUSH2 0x29A PUSH2 0x85B JUMP JUMPDEST JUMPDEST SWAP1 PUSH0 MSTORE PUSH1 0x20 PUSH0 KECCAK256 ADD SLOAD PUSH2 0x2AE SWAP2 SWAP1 PUSH2 0x8E8 JUMP JUMPDEST PUSH2 0x2B8 SWAP2 SWAP1 PUSH2 0x956 JUMP JUMPDEST DUP3 PUSH2 0x2C3 SWAP2 SWAP1 PUSH2 0x986 JUMP JUMPDEST SWAP2 POP DUP1 DUP1 PUSH1 0x1 ADD SWAP2 POP POP PUSH2 0x24A JUMP JUMPDEST POP PUSH0 SLOAD PUSH1 0x1 SLOAD DUP3 PUSH2 0x2E3 SWAP2 SWAP1 PUSH2 0x986 JUMP JUMPDEST PUSH2 0x2ED SWAP2 SWAP1 PUSH2 0x956 JUMP JUMPDEST PUSH1 0x3 PUSH0 DUP6 DUP2 MSTORE PUSH1 0x20 ADD SWAP1 DUP2 MSTORE PUSH1 0x20 ADD PUSH0 KECCAK256 DUP2 SWAP1 SSTORE POP POP POP DUP1 DUP1 PUSH2 0x30F SWAP1 PUSH2 0xB32 JUMP JUMPDEST SWAP2 POP POP PUSH2 0x23A JUMP JUMPDEST POP JUMP JUMPDEST PUSH0 DUP1 PUSH1 0x60 PUSH0 SLOAD PUSH1 0x1 SLOAD PUSH1 0x5 DUP1 DUP1 SLOAD DUP1 PUSH1 0x20 MUL PUSH1 0x20 ADD PUSH1 0x40 MLOAD SWAP1 DUP2 ADD PUSH1 0x40 MSTORE DUP1 SWAP3 SWAP2 SWAP1 DUP2 DUP2 MSTORE PUSH1 0x20 ADD DUP3 DUP1 SLOAD DUP1 ISZERO PUSH2 0x36E JUMPI PUSH1 0x20 MUL DUP3 ADD SWAP2 SWAP1 PUSH0 MSTORE PUSH1 0x20 PUSH0 KECCAK256 SWAP1 JUMPDEST DUP2 SLOAD DUP2 MSTORE PUSH1 0x20 ADD SWAP1 PUSH1 0x1 ADD SWAP1 DUP1 DUP4 GT PUSH2 0x35A JUMPI JUMPDEST POP POP POP POP POP SWAP1 POP SWAP3 POP SWAP3 POP SWAP3 POP SWAP1 SWAP2 SWAP3 JUMP JUMPDEST PUSH1 0x60 PUSH0 PUSH1 0x2 SLOAD PUSH8 0xFFFFFFFFFFFFFFFF DUP2 GT ISZERO PUSH2 0x39F JUMPI PUSH2 0x39E PUSH2 0x4F2 JUMP JUMPDEST JUMPDEST PUSH1 0x40 MLOAD SWAP1 DUP1 DUP3 MSTORE DUP1 PUSH1 0x20 MUL PUSH1 0x20 ADD DUP3 ADD PUSH1 0x40 MSTORE DUP1 ISZERO PUSH2 0x3CD JUMPI DUP2 PUSH1 0x20 ADD PUSH1 0x20 DUP3 MUL DUP1 CALLDATASIZE DUP4 CALLDATACOPY DUP1 DUP3 ADD SWAP2 POP POP SWAP1 POP JUMPDEST POP SWAP1 POP PUSH0 PUSH1 0x1 SWAP1 POP JUMPDEST PUSH1 0x2 SLOAD DUP2 GT PUSH2 0x42F JUMPI PUSH1 0x3 PUSH0 DUP3 DUP2 MSTORE PUSH1 0x20 ADD SWAP1 DUP2 MSTORE PUSH1 0x20 ADD PUSH0 KECCAK256 SLOAD DUP3 PUSH1 0x1 DUP4 PUSH2 0x3FF SWAP2 SWAP1 PUSH2 0x8B5 JUMP JUMPDEST DUP2 MLOAD DUP2 LT PUSH2 0x410 JUMPI PUSH2 0x40F PUSH2 0x85B JUMP JUMPDEST JUMPDEST PUSH1 0x20 MUL PUSH1 0x20 ADD ADD DUP2 DUP2 MSTORE POP POP DUP1 DUP1 PUSH2 0x427 SWAP1 PUSH2 0xB32 JUMP JUMPDEST SWAP2 POP POP PUSH2 0x3D6 JUMP JUMPDEST POP DUP1 SWAP2 POP POP SWAP1 JUMP JUMPDEST PUSH0 DUP1 DUP3 SWAP1 POP PUSH0 DUP1 PUSH1 0x1 SWAP1 POP PUSH1 0x1 DUP6 SUB PUSH2 0x455 JUMPI PUSH0 SWAP4 POP POP POP POP PUSH2 0x4C7 JUMP JUMPDEST JUMPDEST PUSH1 0x1 DUP7 GT ISZERO PUSH2 0x4A9 JUMPI PUSH0 DUP6 DUP8 PUSH2 0x46C SWAP2 SWAP1 PUSH2 0xB79 JUMP JUMPDEST SWAP1 POP PUSH0 DUP7 SWAP1 POP DUP7 DUP9 PUSH2 0x47E SWAP2 SWAP1 PUSH2 0x956 JUMP JUMPDEST SWAP7 POP DUP1 SWAP8 POP DUP4 SWAP1 POP DUP4 DUP3 PUSH2 0x492 SWAP2 SWAP1 PUSH2 0x8E8 JUMP JUMPDEST DUP4 PUSH2 0x49D SWAP2 SWAP1 PUSH2 0x8B5 JUMP JUMPDEST SWAP4 POP DUP1 SWAP3 POP POP POP PUSH2 0x456 JUMP JUMPDEST PUSH0 DUP2 LT ISZERO PUSH2 0x4C0 JUMPI DUP3 DUP2 PUSH2 0x4BD SWAP2 SWAP1 PUSH2 0x986 JUMP JUMPDEST SWAP1 POP JUMPDEST DUP1 SWAP4 POP POP POP POP JUMPDEST SWAP3 SWAP2 POP POP JUMP JUMPDEST PUSH0 PUSH1 0x40 MLOAD SWAP1 POP SWAP1 JUMP JUMPDEST PUSH0 DUP1 REVERT JUMPDEST PUSH0 DUP1 REVERT JUMPDEST PUSH0 DUP1 REVERT JUMPDEST PUSH0 PUSH1 0x1F NOT PUSH1 0x1F DUP4 ADD AND SWAP1 POP SWAP2 SWAP1 POP JUMP JUMPDEST PUSH32 0x4E487B7100000000000000000000000000000000000000000000000000000000 PUSH0 MSTORE PUSH1 0x41 PUSH1 0x4 MSTORE PUSH1 0x24 PUSH0 REVERT JUMPDEST PUSH2 0x528 DUP3 PUSH2 0x4E2 JUMP JUMPDEST DUP2 ADD DUP2 DUP2 LT PUSH8 0xFFFFFFFFFFFFFFFF DUP3 GT OR ISZERO PUSH2 0x547 JUMPI PUSH2 0x546 PUSH2 0x4F2 JUMP JUMPDEST JUMPDEST DUP1 PUSH1 0x40 MSTORE POP POP POP JUMP JUMPDEST PUSH0 PUSH2 0x559 PUSH2 0x4CD JUMP JUMPDEST SWAP1 POP PUSH2 0x565 DUP3 DUP3 PUSH2 0x51F JUMP JUMPDEST SWAP2 SWAP1 POP JUMP JUMPDEST PUSH0 PUSH8 0xFFFFFFFFFFFFFFFF DUP3 GT ISZERO PUSH2 0x584 JUMPI PUSH2 0x583 PUSH2 0x4F2 JUMP JUMPDEST JUMPDEST PUSH1 0x20 DUP3 MUL SWAP1 POP PUSH1 0x20 DUP2 ADD SWAP1 POP SWAP2 SWAP1 POP JUMP JUMPDEST PUSH0 DUP1 REVERT JUMPDEST PUSH0 DUP2 SWAP1 POP SWAP2 SWAP1 POP JUMP JUMPDEST PUSH2 0x5AB DUP2 PUSH2 0x599 JUMP JUMPDEST DUP2 EQ PUSH2 0x5B5 JUMPI PUSH0 DUP1 REVERT JUMPDEST POP JUMP JUMPDEST PUSH0 DUP2 CALLDATALOAD SWAP1 POP PUSH2 0x5C6 DUP2 PUSH2 0x5A2 JUMP JUMPDEST SWAP3 SWAP2 POP POP JUMP JUMPDEST PUSH0 PUSH2 0x5DE PUSH2 0x5D9 DUP5 PUSH2 0x56A JUMP JUMPDEST PUSH2 0x550 JUMP JUMPDEST SWAP1 POP DUP1 DUP4 DUP3 MSTORE PUSH1 0x20 DUP3 ADD SWAP1 POP PUSH1 0x20 DUP5 MUL DUP4 ADD DUP6 DUP2 GT ISZERO PUSH2 0x601 JUMPI PUSH2 0x600 PUSH2 0x595 JUMP JUMPDEST JUMPDEST DUP4 JUMPDEST DUP2 DUP2 LT ISZERO PUSH2 0x62A JUMPI DUP1 PUSH2 0x616 DUP9 DUP3 PUSH2 0x5B8 JUMP JUMPDEST DUP5 MSTORE PUSH1 0x20 DUP5 ADD SWAP4 POP POP PUSH1 0x20 DUP2 ADD SWAP1 POP PUSH2 0x603 JUMP JUMPDEST POP POP POP SWAP4 SWAP3 POP POP POP JUMP JUMPDEST PUSH0 DUP3 PUSH1 0x1F DUP4 ADD SLT PUSH2 0x648 JUMPI PUSH2 0x647 PUSH2 0x4DE JUMP JUMPDEST JUMPDEST DUP2 CALLDATALOAD PUSH2 0x658 DUP5 DUP3 PUSH1 0x20 DUP7 ADD PUSH2 0x5CC JUMP JUMPDEST SWAP2 POP POP SWAP3 SWAP2 POP POP JUMP JUMPDEST PUSH0 PUSH1 0x20 DUP3 DUP5 SUB SLT ISZERO PUSH2 0x676 JUMPI PUSH2 0x675 PUSH2 0x4D6 JUMP JUMPDEST JUMPDEST PUSH0 DUP3 ADD CALLDATALOAD PUSH8 0xFFFFFFFFFFFFFFFF DUP2 GT ISZERO PUSH2 0x693 JUMPI PUSH2 0x692 PUSH2 0x4DA JUMP JUMPDEST JUMPDEST PUSH2 0x69F DUP5 DUP3 DUP6 ADD PUSH2 0x634 JUMP JUMPDEST SWAP2 POP POP SWAP3 SWAP2 POP POP JUMP JUMPDEST PUSH2 0x6B1 DUP2 PUSH2 0x599 JUMP JUMPDEST DUP3 MSTORE POP POP JUMP JUMPDEST PUSH0 PUSH1 0x20 DUP3 ADD SWAP1 POP PUSH2 0x6CA PUSH0 DUP4 ADD DUP5 PUSH2 0x6A8 JUMP JUMPDEST SWAP3 SWAP2 POP POP JUMP JUMPDEST PUSH0 DUP2 MLOAD SWAP1 POP SWAP2 SWAP1 POP JUMP JUMPDEST PUSH0 DUP3 DUP3 MSTORE PUSH1 0x20 DUP3 ADD SWAP1 POP SWAP3 SWAP2 POP POP JUMP JUMPDEST PUSH0 DUP2 SWAP1 POP PUSH1 0x20 DUP3 ADD SWAP1 POP SWAP2 SWAP1 POP JUMP JUMPDEST PUSH2 0x702 DUP2 PUSH2 0x599 JUMP JUMPDEST DUP3 MSTORE POP POP JUMP JUMPDEST PUSH0 PUSH2 0x713 DUP4 DUP4 PUSH2 0x6F9 JUMP JUMPDEST PUSH1 0x20 DUP4 ADD SWAP1 POP SWAP3 SWAP2 POP POP JUMP JUMPDEST PUSH0 PUSH1 0x20 DUP3 ADD SWAP1 POP SWAP2 SWAP1 POP JUMP JUMPDEST PUSH0 PUSH2 0x735 DUP3 PUSH2 0x6D0 JUMP JUMPDEST PUSH2 0x73F DUP2 DUP6 PUSH2 0x6DA JUMP JUMPDEST SWAP4 POP PUSH2 0x74A DUP4 PUSH2 0x6EA JUMP JUMPDEST DUP1 PUSH0 JUMPDEST DUP4 DUP2 LT ISZERO PUSH2 0x77A JUMPI DUP2 MLOAD PUSH2 0x761 DUP9 DUP3 PUSH2 0x708 JUMP JUMPDEST SWAP8 POP PUSH2 0x76C DUP4 PUSH2 0x71F JUMP JUMPDEST SWAP3 POP POP PUSH1 0x1 DUP2 ADD SWAP1 POP PUSH2 0x74D JUMP JUMPDEST POP DUP6 SWAP4 POP POP POP POP SWAP3 SWAP2 POP POP JUMP JUMPDEST PUSH0 PUSH1 0x60 DUP3 ADD SWAP1 POP PUSH2 0x79A PUSH0 DUP4 ADD DUP7 PUSH2 0x6A8 JUMP JUMPDEST PUSH2 0x7A7 PUSH1 0x20 DUP4 ADD DUP6 PUSH2 0x6A8 JUMP JUMPDEST DUP2 DUP2 SUB PUSH1 0x40 DUP4 ADD MSTORE PUSH2 0x7B9 DUP2 DUP5 PUSH2 0x72B JUMP JUMPDEST SWAP1 POP SWAP5 SWAP4 POP POP POP POP JUMP JUMPDEST PUSH0 PUSH1 0x20 DUP3 ADD SWAP1 POP DUP2 DUP2 SUB PUSH0 DUP4 ADD MSTORE PUSH2 0x7DB DUP2 DUP5 PUSH2 0x72B JUMP JUMPDEST SWAP1 POP SWAP3 SWAP2 POP POP JUMP JUMPDEST PUSH0 DUP3 DUP3 MSTORE PUSH1 0x20 DUP3 ADD SWAP1 POP SWAP3 SWAP2 POP POP JUMP JUMPDEST PUSH32 0x496E73756666696369656E74207368617265732070726F76696465642E000000 PUSH0 DUP3 ADD MSTORE POP JUMP JUMPDEST PUSH0 PUSH2 0x827 PUSH1 0x1D DUP4 PUSH2 0x7E3 JUMP JUMPDEST SWAP2 POP PUSH2 0x832 DUP3 PUSH2 0x7F3 JUMP JUMPDEST PUSH1 0x20 DUP3 ADD SWAP1 POP SWAP2 SWAP1 POP JUMP JUMPDEST PUSH0 PUSH1 0x20 DUP3 ADD SWAP1 POP DUP2 DUP2 SUB PUSH0 DUP4 ADD MSTORE PUSH2 0x854 DUP2 PUSH2 0x81B JUMP JUMPDEST SWAP1 POP SWAP2 SWAP1 POP JUMP JUMPDEST PUSH32 0x4E487B7100000000000000000000000000000000000000000000000000000000 PUSH0 MSTORE PUSH1 0x32 PUSH1 0x4 MSTORE PUSH1 0x24 PUSH0 REVERT JUMPDEST PUSH32 0x4E487B7100000000000000000000000000000000000000000000000000000000 PUSH0 MSTORE PUSH1 0x11 PUSH1 0x4 MSTORE PUSH1 0x24 PUSH0 REVERT JUMPDEST PUSH0 PUSH2 0x8BF DUP3 PUSH2 0x599 JUMP JUMPDEST SWAP2 POP PUSH2 0x8CA DUP4 PUSH2 0x599 JUMP JUMPDEST SWAP3 POP DUP3 DUP3 SUB SWAP1 POP DUP2 DUP2 GT ISZERO PUSH2 0x8E2 JUMPI PUSH2 0x8E1 PUSH2 0x888 JUMP JUMPDEST JUMPDEST SWAP3 SWAP2 POP POP JUMP JUMPDEST PUSH0 PUSH2 0x8F2 DUP3 PUSH2 0x599 JUMP JUMPDEST SWAP2 POP PUSH2 0x8FD DUP4 PUSH2 0x599 JUMP JUMPDEST SWAP3 POP DUP3 DUP3 MUL PUSH2 0x90B DUP2 PUSH2 0x599 JUMP JUMPDEST SWAP2 POP DUP3 DUP3 DIV DUP5 EQ DUP4 ISZERO OR PUSH2 0x922 JUMPI PUSH2 0x921 PUSH2 0x888 JUMP JUMPDEST JUMPDEST POP SWAP3 SWAP2 POP POP JUMP JUMPDEST PUSH32 0x4E487B7100000000000000000000000000000000000000000000000000000000 PUSH0 MSTORE PUSH1 0x12 PUSH1 0x4 MSTORE PUSH1 0x24 PUSH0 REVERT JUMPDEST PUSH0 PUSH2 0x960 DUP3 PUSH2 0x599 JUMP JUMPDEST SWAP2 POP PUSH2 0x96B DUP4 PUSH2 0x599 JUMP JUMPDEST SWAP3 POP DUP3 PUSH2 0x97B JUMPI PUSH2 0x97A PUSH2 0x929 JUMP JUMPDEST JUMPDEST DUP3 DUP3 MOD SWAP1 POP SWAP3 SWAP2 POP POP JUMP JUMPDEST PUSH0 PUSH2 0x990 DUP3 PUSH2 0x599 JUMP JUMPDEST SWAP2 POP PUSH2 0x99B DUP4 PUSH2 0x599 JUMP JUMPDEST SWAP3 POP DUP3 DUP3 ADD SWAP1 POP DUP1 DUP3 GT ISZERO PUSH2 0x9B3 JUMPI PUSH2 0x9B2 PUSH2 0x888 JUMP JUMPDEST JUMPDEST SWAP3 SWAP2 POP POP JUMP JUMPDEST PUSH0 DUP2 PUSH1 0x1 SHR SWAP1 POP SWAP2 SWAP1 POP JUMP JUMPDEST PUSH0 DUP1 DUP3 SWAP2 POP DUP4 SWAP1 POP JUMPDEST PUSH1 0x1 DUP6 GT ISZERO PUSH2 0xA0E JUMPI DUP1 DUP7 DIV DUP2 GT ISZERO PUSH2 0x9EA JUMPI PUSH2 0x9E9 PUSH2 0x888 JUMP JUMPDEST JUMPDEST PUSH1 0x1 DUP6 AND ISZERO PUSH2 0x9F9 JUMPI DUP1 DUP3 MUL SWAP2 POP JUMPDEST DUP1 DUP2 MUL SWAP1 POP PUSH2 0xA07 DUP6 PUSH2 0x9B9 JUMP JUMPDEST SWAP5 POP PUSH2 0x9CE JUMP JUMPDEST SWAP5 POP SWAP5 SWAP3 POP POP POP JUMP JUMPDEST PUSH0 DUP3 PUSH2 0xA26 JUMPI PUSH1 0x1 SWAP1 POP PUSH2 0xAE1 JUMP JUMPDEST DUP2 PUSH2 0xA33 JUMPI PUSH0 SWAP1 POP PUSH2 0xAE1 JUMP JUMPDEST DUP2 PUSH1 0x1 DUP2 EQ PUSH2 0xA49 JUMPI PUSH1 0x2 DUP2 EQ PUSH2 0xA53 JUMPI PUSH2 0xA82 JUMP JUMPDEST PUSH1 0x1 SWAP2 POP POP PUSH2 0xAE1 JUMP JUMPDEST PUSH1 0xFF DUP5 GT ISZERO PUSH2 0xA65 JUMPI PUSH2 0xA64 PUSH2 0x888 JUMP JUMPDEST JUMPDEST DUP4 PUSH1 0x2 EXP SWAP2 POP DUP5 DUP3 GT ISZERO PUSH2 0xA7C JUMPI PUSH2 0xA7B PUSH2 0x888 JUMP JUMPDEST JUMPDEST POP PUSH2 0xAE1 JUMP JUMPDEST POP PUSH1 0x20 DUP4 LT PUSH2 0x133 DUP4 LT AND PUSH1 0x4E DUP5 LT PUSH1 0xB DUP5 LT AND OR ISZERO PUSH2 0xAB7 JUMPI DUP3 DUP3 EXP SWAP1 POP DUP4 DUP2 GT ISZERO PUSH2 0xAB2 JUMPI PUSH2 0xAB1 PUSH2 0x888 JUMP JUMPDEST JUMPDEST PUSH2 0xAE1 JUMP JUMPDEST PUSH2 0xAC4 DUP5 DUP5 DUP5 PUSH1 0x1 PUSH2 0x9C5 JUMP JUMPDEST SWAP3 POP SWAP1 POP DUP2 DUP5 DIV DUP2 GT ISZERO PUSH2 0xADB JUMPI PUSH2 0xADA PUSH2 0x888 JUMP JUMPDEST JUMPDEST DUP2 DUP2 MUL SWAP1 POP JUMPDEST SWAP4 SWAP3 POP POP POP JUMP JUMPDEST PUSH0 PUSH2 0xAF2 DUP3 PUSH2 0x599 JUMP JUMPDEST SWAP2 POP PUSH2 0xAFD DUP4 PUSH2 0x599 JUMP JUMPDEST SWAP3 POP PUSH2 0xB2A PUSH32 0xFFFFFFFFFFFFFFFFFFFFFFFFFFFFFFFFFFFFFFFFFFFFFFFFFFFFFFFFFFFFFFFF DUP5 DUP5 PUSH2 0xA17 JUMP JUMPDEST SWAP1 POP SWAP3 SWAP2 POP POP JUMP JUMPDEST PUSH0 PUSH2 0xB3C DUP3 PUSH2 0x599 JUMP JUMPDEST SWAP2 POP PUSH32 0xFFFFFFFFFFFFFFFFFFFFFFFFFFFFFFFFFFFFFFFFFFFFFFFFFFFFFFFFFFFFFFFF DUP3 SUB PUSH2 0xB6E JUMPI PUSH2 0xB6D PUSH2 0x888 JUMP JUMPDEST JUMPDEST PUSH1 0x1 DUP3 ADD SWAP1 POP SWAP2 SWAP1 POP JUMP JUMPDEST PUSH0 PUSH2 0xB83 DUP3 PUSH2 0x599 JUMP JUMPDEST SWAP2 POP PUSH2 0xB8E DUP4 PUSH2 0x599 JUMP JUMPDEST SWAP3 POP DUP3 PUSH2 0xB9E JUMPI PUSH2 0xB9D PUSH2 0x929 JUMP JUMPDEST JUMPDEST DUP3 DUP3 DIV SWAP1 POP SWAP3 SWAP2 POP POP JUMP INVALID LOG2 PUSH5 0x6970667358 0x22 SLT KECCAK256 PUSH2 0x6FDB PUSH20 0x9DB7228B55FB3F3DEF7621FC7432BBB5BAFC186 0xF SWAP10 DUP7 0xDA 0xC8 0xBC 0xEC 0xE5 PUSH5 0x736F6C6343 STOP ADDMOD XOR STOP CALLER "
				},
				"gasEstimates": {
					"creation": {
						"codeDepositCost": "607800",
						"executionCost": "infinite",
						"totalCost": "infinite"
					},
					"external": {
						"constructShare()": "infinite",
						"displayParameter()": "infinite",
						"displayShares()": "infinite",
						"reConstruction(uint256[])": "infinite"
					},
					"internal": {
						"generatePrime(uint256)": "infinite",
						"isPrime(uint256)": "infinite",
						"modInverse(uint256,uint256)": "infinite"
					}
				},
				"methodIdentifiers": {
					"constructShare()": "26ecb26c",
					"displayParameter()": "2c29fe7e",
					"displayShares()": "498edc2d",
					"reConstruction(uint256[])": "1d55bcd0"
				}
			},
			"storageLayout": {
				"storage": [
					{
						"astId": 3,
						"contract": "contracts/HelloWorld6.sol:ShareDistribution",
						"label": "prime",
						"offset": 0,
						"slot": "0",
						"type": "t_uint256"
					},
					{
						"astId": 5,
						"contract": "contracts/HelloWorld6.sol:ShareDistribution",
						"label": "secret",
						"offset": 0,
						"slot": "1",
						"type": "t_uint256"
					},
					{
						"astId": 7,
						"contract": "contracts/HelloWorld6.sol:ShareDistribution",
						"label": "numberOfParty",
						"offset": 0,
						"slot": "2",
						"type": "t_uint256"
					},
					{
						"astId": 11,
						"contract": "contracts/HelloWorld6.sol:ShareDistribution",
						"label": "partyShare",
						"offset": 0,
						"slot": "3",
						"type": "t_mapping(t_uint256,t_uint256)"
					},
					{
						"astId": 13,
						"contract": "contracts/HelloWorld6.sol:ShareDistribution",
						"label": "threshold",
						"offset": 0,
						"slot": "4",
						"type": "t_uint256"
					},
					{
						"astId": 16,
						"contract": "contracts/HelloWorld6.sol:ShareDistribution",
						"label": "coefficients",
						"offset": 0,
						"slot": "5",
						"type": "t_array(t_uint256)dyn_storage"
					}
				],
				"types": {
					"t_array(t_uint256)dyn_storage": {
						"base": "t_uint256",
						"encoding": "dynamic_array",
						"label": "uint256[]",
						"numberOfBytes": "32"
					},
					"t_mapping(t_uint256,t_uint256)": {
						"encoding": "mapping",
						"key": "t_uint256",
						"label": "mapping(uint256 => uint256)",
						"numberOfBytes": "32",
						"value": "t_uint256"
					},
					"t_uint256": {
						"encoding": "inplace",
						"label": "uint256",
						"numberOfBytes": "32"
					}
				}
			},
			"userdoc": {
				"kind": "user",
				"methods": {},
				"version": 1
			}
		}
	}
}