{
	"contracts/test.sol": {
		"ShamirSecretSharing": {
			"abi": [
				{
					"inputs": [],
					"stateMutability": "nonpayable",
					"type": "constructor"
				},
				{
					"inputs": [],
					"name": "owner",
					"outputs": [
						{
							"internalType": "address",
							"name": "",
							"type": "address"
						}
					],
					"stateMutability": "view",
					"type": "function"
				},
				{
					"inputs": [],
					"name": "remainingChunks",
					"outputs": [
						{
							"internalType": "uint256",
							"name": "",
							"type": "uint256"
						}
					],
					"stateMutability": "view",
					"type": "function"
				},
				{
					"inputs": [],
					"name": "secret",
					"outputs": [
						{
							"internalType": "uint256",
							"name": "",
							"type": "uint256"
						}
					],
					"stateMutability": "view",
					"type": "function"
				},
				{
					"inputs": [
						{
							"internalType": "uint256",
							"name": "_secret",
							"type": "uint256"
						}
					],
					"name": "setSecret",
					"outputs": [],
					"stateMutability": "nonpayable",
					"type": "function"
				}
			],
			"devdoc": {
				"kind": "dev",
				"methods": {},
				"version": 1
			},
			"evm": {
				"assembly": "    /* \"contracts/test.sol\":60:1438  contract ShamirSecretSharing {... */\n  mstore(0x40, 0x80)\n    /* \"contracts/test.sol\":329:380  constructor() {... */\n  callvalue\n  dup1\n  iszero\n  tag_1\n  jumpi\n  0x00\n  dup1\n  revert\ntag_1:\n  pop\n    /* \"contracts/test.sol\":362:372  msg.sender */\n  caller\n    /* \"contracts/test.sol\":354:359  owner */\n  0x01\n  0x00\n    /* \"contracts/test.sol\":354:372  owner = msg.sender */\n  0x0100\n  exp\n  dup2\n  sload\n  dup2\n  0xffffffffffffffffffffffffffffffffffffffff\n  mul\n  not\n  and\n  swap1\n  dup4\n  0xffffffffffffffffffffffffffffffffffffffff\n  and\n  mul\n  or\n  swap1\n  sstore\n  pop\n    /* \"contracts/test.sol\":60:1438  contract ShamirSecretSharing {... */\n  dataSize(sub_0)\n  dup1\n  dataOffset(sub_0)\n  0x00\n  codecopy\n  0x00\n  return\nstop\n\nsub_0: assembly {\n        /* \"contracts/test.sol\":60:1438  contract ShamirSecretSharing {... */\n      mstore(0x40, 0x80)\n      callvalue\n      dup1\n      iszero\n      tag_1\n      jumpi\n      0x00\n      dup1\n      revert\n    tag_1:\n      pop\n      jumpi(tag_2, lt(calldatasize, 0x04))\n      shr(0xe0, calldataload(0x00))\n      dup1\n      0x3b4dbf8b\n      eq\n      tag_3\n      jumpi\n      dup1\n      0x8da5cb5b\n      eq\n      tag_4\n      jumpi\n      dup1\n      0xb5144bcb\n      eq\n      tag_5\n      jumpi\n      dup1\n      0xd1efd30d\n      eq\n      tag_6\n      jumpi\n    tag_2:\n      0x00\n      dup1\n      revert\n        /* \"contracts/test.sol\":513:771  function setSecret(uint256 _secret) external onlyOwner {... */\n    tag_3:\n      tag_7\n      0x04\n      dup1\n      calldatasize\n      sub\n      dup2\n      add\n      swap1\n      tag_8\n      swap2\n      swap1\n      tag_9\n      jump\t// in\n    tag_8:\n      tag_10\n      jump\t// in\n    tag_7:\n      stop\n        /* \"contracts/test.sol\":124:144  address public owner */\n    tag_4:\n      tag_11\n      tag_12\n      jump\t// in\n    tag_11:\n      mload(0x40)\n      tag_13\n      swap2\n      swap1\n      tag_14\n      jump\t// in\n    tag_13:\n      mload(0x40)\n      dup1\n      swap2\n      sub\n      swap1\n      return\n        /* \"contracts/test.sol\":151:181  uint256 public remainingChunks */\n    tag_5:\n      tag_15\n      tag_16\n      jump\t// in\n    tag_15:\n      mload(0x40)\n      tag_17\n      swap2\n      swap1\n      tag_18\n      jump\t// in\n    tag_17:\n      mload(0x40)\n      dup1\n      swap2\n      sub\n      swap1\n      return\n        /* \"contracts/test.sol\":96:117  uint256 public secret */\n    tag_6:\n      tag_19\n      tag_20\n      jump\t// in\n    tag_19:\n      mload(0x40)\n      tag_21\n      swap2\n      swap1\n      tag_18\n      jump\t// in\n    tag_21:\n      mload(0x40)\n      dup1\n      swap2\n      sub\n      swap1\n      return\n        /* \"contracts/test.sol\":513:771  function setSecret(uint256 _secret) external onlyOwner {... */\n    tag_10:\n        /* \"contracts/test.sol\":442:447  owner */\n      0x01\n      0x00\n      swap1\n      sload\n      swap1\n      0x0100\n      exp\n      swap1\n      div\n      0xffffffffffffffffffffffffffffffffffffffff\n      and\n        /* \"contracts/test.sol\":428:447  msg.sender == owner */\n      0xffffffffffffffffffffffffffffffffffffffff\n      and\n        /* \"contracts/test.sol\":428:438  msg.sender */\n      caller\n        /* \"contracts/test.sol\":428:447  msg.sender == owner */\n      0xffffffffffffffffffffffffffffffffffffffff\n      and\n      eq\n        /* \"contracts/test.sol\":420:485  require(msg.sender == owner, \"Only owner can call this function\") */\n      tag_23\n      jumpi\n      mload(0x40)\n      0x08c379a000000000000000000000000000000000000000000000000000000000\n      dup2\n      mstore\n      0x04\n      add\n      tag_24\n      swap1\n      tag_25\n      jump\t// in\n    tag_24:\n      mload(0x40)\n      dup1\n      swap2\n      sub\n      swap1\n      revert\n    tag_23:\n        /* \"contracts/test.sol\":598:604  secret */\n      sload(0x00)\n        /* \"contracts/test.sol\":587:594  _secret */\n      dup2\n        /* \"contracts/test.sol\":587:604  _secret != secret */\n      sub\n        /* \"contracts/test.sol\":579:658  require(_secret != secret, \"New secret must be different from the current one\") */\n      tag_27\n      jumpi\n      mload(0x40)\n      0x08c379a000000000000000000000000000000000000000000000000000000000\n      dup2\n      mstore\n      0x04\n      add\n      tag_28\n      swap1\n      tag_29\n      jump\t// in\n    tag_28:\n      mload(0x40)\n      dup1\n      swap2\n      sub\n      swap1\n      revert\n    tag_27:\n        /* \"contracts/test.sol\":684:691  _secret */\n      dup1\n        /* \"contracts/test.sol\":671:681  _newSecret */\n      0x03\n        /* \"contracts/test.sol\":671:691  _newSecret = _secret */\n      dup2\n      swap1\n      sstore\n      pop\n        /* \"contracts/test.sol\":295:297  32 */\n      0x20\n        /* \"contracts/test.sol\":702:717  remainingChunks */\n      0x02\n        /* \"contracts/test.sol\":702:730  remainingChunks = CHUNK_SIZE */\n      dup2\n      swap1\n      sstore\n      pop\n        /* \"contracts/test.sol\":743:763  _updateSecretChunk() */\n      tag_30\n        /* \"contracts/test.sol\":743:761  _updateSecretChunk */\n      tag_31\n        /* \"contracts/test.sol\":743:763  _updateSecretChunk() */\n      jump\t// in\n    tag_30:\n        /* \"contracts/test.sol\":513:771  function setSecret(uint256 _secret) external onlyOwner {... */\n      pop\n      jump\t// out\n        /* \"contracts/test.sol\":124:144  address public owner */\n    tag_12:\n      0x01\n      0x00\n      swap1\n      sload\n      swap1\n      0x0100\n      exp\n      swap1\n      div\n      0xffffffffffffffffffffffffffffffffffffffff\n      and\n      dup2\n      jump\t// out\n        /* \"contracts/test.sol\":151:181  uint256 public remainingChunks */\n    tag_16:\n      sload(0x02)\n      dup2\n      jump\t// out\n        /* \"contracts/test.sol\":96:117  uint256 public secret */\n    tag_20:\n      sload(0x00)\n      dup2\n      jump\t// out\n        /* \"contracts/test.sol\":779:1435  function _updateSecretChunk() private {... */\n    tag_31:\n        /* \"contracts/test.sol\":854:855  0 */\n      0x00\n        /* \"contracts/test.sol\":836:851  remainingChunks */\n      sload(0x02)\n        /* \"contracts/test.sol\":836:855  remainingChunks > 0 */\n      gt\n        /* \"contracts/test.sol\":828:878  require(remainingChunks > 0, \"All chunks updated\") */\n      tag_33\n      jumpi\n      mload(0x40)\n      0x08c379a000000000000000000000000000000000000000000000000000000000\n      dup2\n      mstore\n      0x04\n      add\n      tag_34\n      swap1\n      tag_35\n      jump\t// in\n    tag_34:\n      mload(0x40)\n      dup1\n      swap2\n      sub\n      swap1\n      revert\n    tag_33:\n        /* \"contracts/test.sol\":891:908  uint256 startByte */\n      0x00\n        /* \"contracts/test.sol\":944:945  8 */\n      0x08\n        /* \"contracts/test.sol\":925:940  remainingChunks */\n      sload(0x02)\n        /* \"contracts/test.sol\":295:297  32 */\n      0x20\n        /* \"contracts/test.sol\":912:940  CHUNK_SIZE - remainingChunks */\n      tag_36\n      swap2\n      swap1\n      tag_37\n      jump\t// in\n    tag_36:\n        /* \"contracts/test.sol\":911:945  (CHUNK_SIZE - remainingChunks) * 8 */\n      tag_38\n      swap2\n      swap1\n      tag_39\n      jump\t// in\n    tag_38:\n        /* \"contracts/test.sol\":891:945  uint256 startByte = (CHUNK_SIZE - remainingChunks) * 8 */\n      swap1\n      pop\n        /* \"contracts/test.sol\":956:980  uint256 currentChunkData */\n      0x00\n        /* \"contracts/test.sol\":1036:1037  1 */\n      0x01\n        /* \"contracts/test.sol\":295:297  32 */\n      0x20\n        /* \"contracts/test.sol\":1018:1019  8 */\n      0x08\n        /* \"contracts/test.sol\":1018:1032  8 * CHUNK_SIZE */\n      tag_40\n      swap2\n      swap1\n      tag_39\n      jump\t// in\n    tag_40:\n        /* \"contracts/test.sol\":1013:1014  1 */\n      0x01\n        /* \"contracts/test.sol\":1013:1032  1 << 8 * CHUNK_SIZE */\n      swap1\n      shl\n        /* \"contracts/test.sol\":1012:1037  (1 << 8 * CHUNK_SIZE) - 1 */\n      tag_41\n      swap2\n      swap1\n      tag_37\n      jump\t// in\n    tag_41:\n        /* \"contracts/test.sol\":998:1007  startByte */\n      dup3\n        /* \"contracts/test.sol\":984:994  _newSecret */\n      sload(0x03)\n        /* \"contracts/test.sol\":984:1007  _newSecret >> startByte */\n      swap1\n      shr\n        /* \"contracts/test.sol\":983:1038  (_newSecret >> startByte) & ((1 << 8 * CHUNK_SIZE) - 1) */\n      and\n        /* \"contracts/test.sol\":956:1038  uint256 currentChunkData = (_newSecret >> startByte) & ((1 << 8 * CHUNK_SIZE) - 1) */\n      swap1\n      pop\n        /* \"contracts/test.sol\":1103:1119  currentChunkData */\n      dup1\n        /* \"contracts/test.sol\":1090:1101  secret.slot */\n      0x00\n        /* \"contracts/test.sol\":1083:1120  sstore(secret.slot, currentChunkData) */\n      sstore\n        /* \"contracts/test.sol\":1143:1158  remainingChunks */\n      0x02\n      0x00\n        /* \"contracts/test.sol\":1143:1160  remainingChunks-- */\n      dup2\n      sload\n      dup1\n      swap3\n      swap2\n      swap1\n      tag_42\n      swap1\n      tag_43\n      jump\t// in\n    tag_42:\n      swap2\n      swap1\n      pop\n      sstore\n      pop\n        /* \"contracts/test.sol\":1195:1196  0 */\n      0x00\n        /* \"contracts/test.sol\":1177:1192  remainingChunks */\n      sload(0x02)\n        /* \"contracts/test.sol\":1177:1196  remainingChunks > 0 */\n      gt\n        /* \"contracts/test.sol\":1173:1428  if (remainingChunks > 0) {... */\n      iszero\n      tag_44\n      jumpi\n        /* \"contracts/test.sol\":1213:1226  _currentChunk */\n      0x04\n      0x00\n        /* \"contracts/test.sol\":1213:1228  _currentChunk++ */\n      dup2\n      sload\n      dup1\n      swap3\n      swap2\n      swap1\n      tag_45\n      swap1\n      tag_46\n      jump\t// in\n    tag_45:\n      swap2\n      swap1\n      pop\n      sstore\n      pop\n        /* \"contracts/test.sol\":1269:1270  0 */\n      0x00\n        /* \"contracts/test.sol\":1263:1265  50 */\n      0x32\n        /* \"contracts/test.sol\":1247:1260  _currentChunk */\n      sload(0x04)\n        /* \"contracts/test.sol\":1247:1265  _currentChunk % 50 */\n      tag_47\n      swap2\n      swap1\n      tag_48\n      jump\t// in\n    tag_47:\n        /* \"contracts/test.sol\":1247:1270  _currentChunk % 50 == 0 */\n      sub\n        /* \"contracts/test.sol\":1243:1382  if (_currentChunk % 50 == 0) { // Limiting the iterations per transaction to prevent gas exhaustion... */\n      tag_49\n      jumpi\n        /* \"contracts/test.sol\":1360:1367  return; */\n      pop\n      pop\n      jump(tag_32)\n        /* \"contracts/test.sol\":1243:1382  if (_currentChunk % 50 == 0) { // Limiting the iterations per transaction to prevent gas exhaustion... */\n    tag_49:\n        /* \"contracts/test.sol\":1396:1416  _updateSecretChunk() */\n      tag_50\n        /* \"contracts/test.sol\":1396:1414  _updateSecretChunk */\n      tag_31\n        /* \"contracts/test.sol\":1396:1416  _updateSecretChunk() */\n      jump\t// in\n    tag_50:\n        /* \"contracts/test.sol\":1173:1428  if (remainingChunks > 0) {... */\n    tag_44:\n        /* \"contracts/test.sol\":817:1435  {... */\n      pop\n      pop\n        /* \"contracts/test.sol\":779:1435  function _updateSecretChunk() private {... */\n    tag_32:\n      jump\t// out\n        /* \"#utility.yul\":88:205   */\n    tag_52:\n        /* \"#utility.yul\":197:198   */\n      0x00\n        /* \"#utility.yul\":194:195   */\n      dup1\n        /* \"#utility.yul\":187:199   */\n      revert\n        /* \"#utility.yul\":334:411   */\n    tag_54:\n        /* \"#utility.yul\":371:378   */\n      0x00\n        /* \"#utility.yul\":400:405   */\n      dup2\n        /* \"#utility.yul\":389:405   */\n      swap1\n      pop\n        /* \"#utility.yul\":334:411   */\n      swap2\n      swap1\n      pop\n      jump\t// out\n        /* \"#utility.yul\":417:539   */\n    tag_55:\n        /* \"#utility.yul\":490:514   */\n      tag_76\n        /* \"#utility.yul\":508:513   */\n      dup2\n        /* \"#utility.yul\":490:514   */\n      tag_54\n      jump\t// in\n    tag_76:\n        /* \"#utility.yul\":483:488   */\n      dup2\n        /* \"#utility.yul\":480:515   */\n      eq\n        /* \"#utility.yul\":470:533   */\n      tag_77\n      jumpi\n        /* \"#utility.yul\":529:530   */\n      0x00\n        /* \"#utility.yul\":526:527   */\n      dup1\n        /* \"#utility.yul\":519:531   */\n      revert\n        /* \"#utility.yul\":470:533   */\n    tag_77:\n        /* \"#utility.yul\":417:539   */\n      pop\n      jump\t// out\n        /* \"#utility.yul\":545:684   */\n    tag_56:\n        /* \"#utility.yul\":591:596   */\n      0x00\n        /* \"#utility.yul\":629:635   */\n      dup2\n        /* \"#utility.yul\":616:636   */\n      calldataload\n        /* \"#utility.yul\":607:636   */\n      swap1\n      pop\n        /* \"#utility.yul\":645:678   */\n      tag_79\n        /* \"#utility.yul\":672:677   */\n      dup2\n        /* \"#utility.yul\":645:678   */\n      tag_55\n      jump\t// in\n    tag_79:\n        /* \"#utility.yul\":545:684   */\n      swap3\n      swap2\n      pop\n      pop\n      jump\t// out\n        /* \"#utility.yul\":690:1019   */\n    tag_9:\n        /* \"#utility.yul\":749:755   */\n      0x00\n        /* \"#utility.yul\":798:800   */\n      0x20\n        /* \"#utility.yul\":786:795   */\n      dup3\n        /* \"#utility.yul\":777:784   */\n      dup5\n        /* \"#utility.yul\":773:796   */\n      sub\n        /* \"#utility.yul\":769:801   */\n      slt\n        /* \"#utility.yul\":766:885   */\n      iszero\n      tag_81\n      jumpi\n        /* \"#utility.yul\":804:883   */\n      tag_82\n      tag_52\n      jump\t// in\n    tag_82:\n        /* \"#utility.yul\":766:885   */\n    tag_81:\n        /* \"#utility.yul\":924:925   */\n      0x00\n        /* \"#utility.yul\":949:1002   */\n      tag_83\n        /* \"#utility.yul\":994:1001   */\n      dup5\n        /* \"#utility.yul\":985:991   */\n      dup3\n        /* \"#utility.yul\":974:983   */\n      dup6\n        /* \"#utility.yul\":970:992   */\n      add\n        /* \"#utility.yul\":949:1002   */\n      tag_56\n      jump\t// in\n    tag_83:\n        /* \"#utility.yul\":939:1002   */\n      swap2\n      pop\n        /* \"#utility.yul\":895:1012   */\n      pop\n        /* \"#utility.yul\":690:1019   */\n      swap3\n      swap2\n      pop\n      pop\n      jump\t// out\n        /* \"#utility.yul\":1025:1151   */\n    tag_57:\n        /* \"#utility.yul\":1062:1069   */\n      0x00\n        /* \"#utility.yul\":1102:1144   */\n      0xffffffffffffffffffffffffffffffffffffffff\n        /* \"#utility.yul\":1095:1100   */\n      dup3\n        /* \"#utility.yul\":1091:1145   */\n      and\n        /* \"#utility.yul\":1080:1145   */\n      swap1\n      pop\n        /* \"#utility.yul\":1025:1151   */\n      swap2\n      swap1\n      pop\n      jump\t// out\n        /* \"#utility.yul\":1157:1253   */\n    tag_58:\n        /* \"#utility.yul\":1194:1201   */\n      0x00\n        /* \"#utility.yul\":1223:1247   */\n      tag_86\n        /* \"#utility.yul\":1241:1246   */\n      dup3\n        /* \"#utility.yul\":1223:1247   */\n      tag_57\n      jump\t// in\n    tag_86:\n        /* \"#utility.yul\":1212:1247   */\n      swap1\n      pop\n        /* \"#utility.yul\":1157:1253   */\n      swap2\n      swap1\n      pop\n      jump\t// out\n        /* \"#utility.yul\":1259:1377   */\n    tag_59:\n        /* \"#utility.yul\":1346:1370   */\n      tag_88\n        /* \"#utility.yul\":1364:1369   */\n      dup2\n        /* \"#utility.yul\":1346:1370   */\n      tag_58\n      jump\t// in\n    tag_88:\n        /* \"#utility.yul\":1341:1344   */\n      dup3\n        /* \"#utility.yul\":1334:1371   */\n      mstore\n        /* \"#utility.yul\":1259:1377   */\n      pop\n      pop\n      jump\t// out\n        /* \"#utility.yul\":1383:1605   */\n    tag_14:\n        /* \"#utility.yul\":1476:1480   */\n      0x00\n        /* \"#utility.yul\":1514:1516   */\n      0x20\n        /* \"#utility.yul\":1503:1512   */\n      dup3\n        /* \"#utility.yul\":1499:1517   */\n      add\n        /* \"#utility.yul\":1491:1517   */\n      swap1\n      pop\n        /* \"#utility.yul\":1527:1598   */\n      tag_90\n        /* \"#utility.yul\":1595:1596   */\n      0x00\n        /* \"#utility.yul\":1584:1593   */\n      dup4\n        /* \"#utility.yul\":1580:1597   */\n      add\n        /* \"#utility.yul\":1571:1577   */\n      dup5\n        /* \"#utility.yul\":1527:1598   */\n      tag_59\n      jump\t// in\n    tag_90:\n        /* \"#utility.yul\":1383:1605   */\n      swap3\n      swap2\n      pop\n      pop\n      jump\t// out\n        /* \"#utility.yul\":1611:1729   */\n    tag_60:\n        /* \"#utility.yul\":1698:1722   */\n      tag_92\n        /* \"#utility.yul\":1716:1721   */\n      dup2\n        /* \"#utility.yul\":1698:1722   */\n      tag_54\n      jump\t// in\n    tag_92:\n        /* \"#utility.yul\":1693:1696   */\n      dup3\n        /* \"#utility.yul\":1686:1723   */\n      mstore\n        /* \"#utility.yul\":1611:1729   */\n      pop\n      pop\n      jump\t// out\n        /* \"#utility.yul\":1735:1957   */\n    tag_18:\n        /* \"#utility.yul\":1828:1832   */\n      0x00\n        /* \"#utility.yul\":1866:1868   */\n      0x20\n        /* \"#utility.yul\":1855:1864   */\n      dup3\n        /* \"#utility.yul\":1851:1869   */\n      add\n        /* \"#utility.yul\":1843:1869   */\n      swap1\n      pop\n        /* \"#utility.yul\":1879:1950   */\n      tag_94\n        /* \"#utility.yul\":1947:1948   */\n      0x00\n        /* \"#utility.yul\":1936:1945   */\n      dup4\n        /* \"#utility.yul\":1932:1949   */\n      add\n        /* \"#utility.yul\":1923:1929   */\n      dup5\n        /* \"#utility.yul\":1879:1950   */\n      tag_60\n      jump\t// in\n    tag_94:\n        /* \"#utility.yul\":1735:1957   */\n      swap3\n      swap2\n      pop\n      pop\n      jump\t// out\n        /* \"#utility.yul\":1963:2132   */\n    tag_61:\n        /* \"#utility.yul\":2047:2058   */\n      0x00\n        /* \"#utility.yul\":2081:2087   */\n      dup3\n        /* \"#utility.yul\":2076:2079   */\n      dup3\n        /* \"#utility.yul\":2069:2088   */\n      mstore\n        /* \"#utility.yul\":2121:2125   */\n      0x20\n        /* \"#utility.yul\":2116:2119   */\n      dup3\n        /* \"#utility.yul\":2112:2126   */\n      add\n        /* \"#utility.yul\":2097:2126   */\n      swap1\n      pop\n        /* \"#utility.yul\":1963:2132   */\n      swap3\n      swap2\n      pop\n      pop\n      jump\t// out\n        /* \"#utility.yul\":2138:2358   */\n    tag_62:\n        /* \"#utility.yul\":2278:2312   */\n      0x4f6e6c79206f776e65722063616e2063616c6c20746869732066756e6374696f\n        /* \"#utility.yul\":2274:2275   */\n      0x00\n        /* \"#utility.yul\":2266:2272   */\n      dup3\n        /* \"#utility.yul\":2262:2276   */\n      add\n        /* \"#utility.yul\":2255:2313   */\n      mstore\n        /* \"#utility.yul\":2347:2350   */\n      0x6e00000000000000000000000000000000000000000000000000000000000000\n        /* \"#utility.yul\":2342:2344   */\n      0x20\n        /* \"#utility.yul\":2334:2340   */\n      dup3\n        /* \"#utility.yul\":2330:2345   */\n      add\n        /* \"#utility.yul\":2323:2351   */\n      mstore\n        /* \"#utility.yul\":2138:2358   */\n      pop\n      jump\t// out\n        /* \"#utility.yul\":2364:2730   */\n    tag_63:\n        /* \"#utility.yul\":2506:2509   */\n      0x00\n        /* \"#utility.yul\":2527:2594   */\n      tag_98\n        /* \"#utility.yul\":2591:2593   */\n      0x21\n        /* \"#utility.yul\":2586:2589   */\n      dup4\n        /* \"#utility.yul\":2527:2594   */\n      tag_61\n      jump\t// in\n    tag_98:\n        /* \"#utility.yul\":2520:2594   */\n      swap2\n      pop\n        /* \"#utility.yul\":2603:2696   */\n      tag_99\n        /* \"#utility.yul\":2692:2695   */\n      dup3\n        /* \"#utility.yul\":2603:2696   */\n      tag_62\n      jump\t// in\n    tag_99:\n        /* \"#utility.yul\":2721:2723   */\n      0x40\n        /* \"#utility.yul\":2716:2719   */\n      dup3\n        /* \"#utility.yul\":2712:2724   */\n      add\n        /* \"#utility.yul\":2705:2724   */\n      swap1\n      pop\n        /* \"#utility.yul\":2364:2730   */\n      swap2\n      swap1\n      pop\n      jump\t// out\n        /* \"#utility.yul\":2736:3155   */\n    tag_25:\n        /* \"#utility.yul\":2902:2906   */\n      0x00\n        /* \"#utility.yul\":2940:2942   */\n      0x20\n        /* \"#utility.yul\":2929:2938   */\n      dup3\n        /* \"#utility.yul\":2925:2943   */\n      add\n        /* \"#utility.yul\":2917:2943   */\n      swap1\n      pop\n        /* \"#utility.yul\":2989:2998   */\n      dup2\n        /* \"#utility.yul\":2983:2987   */\n      dup2\n        /* \"#utility.yul\":2979:2999   */\n      sub\n        /* \"#utility.yul\":2975:2976   */\n      0x00\n        /* \"#utility.yul\":2964:2973   */\n      dup4\n        /* \"#utility.yul\":2960:2977   */\n      add\n        /* \"#utility.yul\":2953:3000   */\n      mstore\n        /* \"#utility.yul\":3017:3148   */\n      tag_101\n        /* \"#utility.yul\":3143:3147   */\n      dup2\n        /* \"#utility.yul\":3017:3148   */\n      tag_63\n      jump\t// in\n    tag_101:\n        /* \"#utility.yul\":3009:3148   */\n      swap1\n      pop\n        /* \"#utility.yul\":2736:3155   */\n      swap2\n      swap1\n      pop\n      jump\t// out\n        /* \"#utility.yul\":3161:3397   */\n    tag_64:\n        /* \"#utility.yul\":3301:3335   */\n      0x4e657720736563726574206d75737420626520646966666572656e742066726f\n        /* \"#utility.yul\":3297:3298   */\n      0x00\n        /* \"#utility.yul\":3289:3295   */\n      dup3\n        /* \"#utility.yul\":3285:3299   */\n      add\n        /* \"#utility.yul\":3278:3336   */\n      mstore\n        /* \"#utility.yul\":3370:3389   */\n      0x6d207468652063757272656e74206f6e65000000000000000000000000000000\n        /* \"#utility.yul\":3365:3367   */\n      0x20\n        /* \"#utility.yul\":3357:3363   */\n      dup3\n        /* \"#utility.yul\":3353:3368   */\n      add\n        /* \"#utility.yul\":3346:3390   */\n      mstore\n        /* \"#utility.yul\":3161:3397   */\n      pop\n      jump\t// out\n        /* \"#utility.yul\":3403:3769   */\n    tag_65:\n        /* \"#utility.yul\":3545:3548   */\n      0x00\n        /* \"#utility.yul\":3566:3633   */\n      tag_104\n        /* \"#utility.yul\":3630:3632   */\n      0x31\n        /* \"#utility.yul\":3625:3628   */\n      dup4\n        /* \"#utility.yul\":3566:3633   */\n      tag_61\n      jump\t// in\n    tag_104:\n        /* \"#utility.yul\":3559:3633   */\n      swap2\n      pop\n        /* \"#utility.yul\":3642:3735   */\n      tag_105\n        /* \"#utility.yul\":3731:3734   */\n      dup3\n        /* \"#utility.yul\":3642:3735   */\n      tag_64\n      jump\t// in\n    tag_105:\n        /* \"#utility.yul\":3760:3762   */\n      0x40\n        /* \"#utility.yul\":3755:3758   */\n      dup3\n        /* \"#utility.yul\":3751:3763   */\n      add\n        /* \"#utility.yul\":3744:3763   */\n      swap1\n      pop\n        /* \"#utility.yul\":3403:3769   */\n      swap2\n      swap1\n      pop\n      jump\t// out\n        /* \"#utility.yul\":3775:4194   */\n    tag_29:\n        /* \"#utility.yul\":3941:3945   */\n      0x00\n        /* \"#utility.yul\":3979:3981   */\n      0x20\n        /* \"#utility.yul\":3968:3977   */\n      dup3\n        /* \"#utility.yul\":3964:3982   */\n      add\n        /* \"#utility.yul\":3956:3982   */\n      swap1\n      pop\n        /* \"#utility.yul\":4028:4037   */\n      dup2\n        /* \"#utility.yul\":4022:4026   */\n      dup2\n        /* \"#utility.yul\":4018:4038   */\n      sub\n        /* \"#utility.yul\":4014:4015   */\n      0x00\n        /* \"#utility.yul\":4003:4012   */\n      dup4\n        /* \"#utility.yul\":3999:4016   */\n      add\n        /* \"#utility.yul\":3992:4039   */\n      mstore\n        /* \"#utility.yul\":4056:4187   */\n      tag_107\n        /* \"#utility.yul\":4182:4186   */\n      dup2\n        /* \"#utility.yul\":4056:4187   */\n      tag_65\n      jump\t// in\n    tag_107:\n        /* \"#utility.yul\":4048:4187   */\n      swap1\n      pop\n        /* \"#utility.yul\":3775:4194   */\n      swap2\n      swap1\n      pop\n      jump\t// out\n        /* \"#utility.yul\":4200:4368   */\n    tag_66:\n        /* \"#utility.yul\":4340:4360   */\n      0x416c6c206368756e6b7320757064617465640000000000000000000000000000\n        /* \"#utility.yul\":4336:4337   */\n      0x00\n        /* \"#utility.yul\":4328:4334   */\n      dup3\n        /* \"#utility.yul\":4324:4338   */\n      add\n        /* \"#utility.yul\":4317:4361   */\n      mstore\n        /* \"#utility.yul\":4200:4368   */\n      pop\n      jump\t// out\n        /* \"#utility.yul\":4374:4740   */\n    tag_67:\n        /* \"#utility.yul\":4516:4519   */\n      0x00\n        /* \"#utility.yul\":4537:4604   */\n      tag_110\n        /* \"#utility.yul\":4601:4603   */\n      0x12\n        /* \"#utility.yul\":4596:4599   */\n      dup4\n        /* \"#utility.yul\":4537:4604   */\n      tag_61\n      jump\t// in\n    tag_110:\n        /* \"#utility.yul\":4530:4604   */\n      swap2\n      pop\n        /* \"#utility.yul\":4613:4706   */\n      tag_111\n        /* \"#utility.yul\":4702:4705   */\n      dup3\n        /* \"#utility.yul\":4613:4706   */\n      tag_66\n      jump\t// in\n    tag_111:\n        /* \"#utility.yul\":4731:4733   */\n      0x20\n        /* \"#utility.yul\":4726:4729   */\n      dup3\n        /* \"#utility.yul\":4722:4734   */\n      add\n        /* \"#utility.yul\":4715:4734   */\n      swap1\n      pop\n        /* \"#utility.yul\":4374:4740   */\n      swap2\n      swap1\n      pop\n      jump\t// out\n        /* \"#utility.yul\":4746:5165   */\n    tag_35:\n        /* \"#utility.yul\":4912:4916   */\n      0x00\n        /* \"#utility.yul\":4950:4952   */\n      0x20\n        /* \"#utility.yul\":4939:4948   */\n      dup3\n        /* \"#utility.yul\":4935:4953   */\n      add\n        /* \"#utility.yul\":4927:4953   */\n      swap1\n      pop\n        /* \"#utility.yul\":4999:5008   */\n      dup2\n        /* \"#utility.yul\":4993:4997   */\n      dup2\n        /* \"#utility.yul\":4989:5009   */\n      sub\n        /* \"#utility.yul\":4985:4986   */\n      0x00\n        /* \"#utility.yul\":4974:4983   */\n      dup4\n        /* \"#utility.yul\":4970:4987   */\n      add\n        /* \"#utility.yul\":4963:5010   */\n      mstore\n        /* \"#utility.yul\":5027:5158   */\n      tag_113\n        /* \"#utility.yul\":5153:5157   */\n      dup2\n        /* \"#utility.yul\":5027:5158   */\n      tag_67\n      jump\t// in\n    tag_113:\n        /* \"#utility.yul\":5019:5158   */\n      swap1\n      pop\n        /* \"#utility.yul\":4746:5165   */\n      swap2\n      swap1\n      pop\n      jump\t// out\n        /* \"#utility.yul\":5171:5351   */\n    tag_68:\n        /* \"#utility.yul\":5219:5296   */\n      0x4e487b7100000000000000000000000000000000000000000000000000000000\n        /* \"#utility.yul\":5216:5217   */\n      0x00\n        /* \"#utility.yul\":5209:5297   */\n      mstore\n        /* \"#utility.yul\":5316:5320   */\n      0x11\n        /* \"#utility.yul\":5313:5314   */\n      0x04\n        /* \"#utility.yul\":5306:5321   */\n      mstore\n        /* \"#utility.yul\":5340:5344   */\n      0x24\n        /* \"#utility.yul\":5337:5338   */\n      0x00\n        /* \"#utility.yul\":5330:5345   */\n      revert\n        /* \"#utility.yul\":5357:5551   */\n    tag_37:\n        /* \"#utility.yul\":5397:5401   */\n      0x00\n        /* \"#utility.yul\":5417:5437   */\n      tag_116\n        /* \"#utility.yul\":5435:5436   */\n      dup3\n        /* \"#utility.yul\":5417:5437   */\n      tag_54\n      jump\t// in\n    tag_116:\n        /* \"#utility.yul\":5412:5437   */\n      swap2\n      pop\n        /* \"#utility.yul\":5451:5471   */\n      tag_117\n        /* \"#utility.yul\":5469:5470   */\n      dup4\n        /* \"#utility.yul\":5451:5471   */\n      tag_54\n      jump\t// in\n    tag_117:\n        /* \"#utility.yul\":5446:5471   */\n      swap3\n      pop\n        /* \"#utility.yul\":5495:5496   */\n      dup3\n        /* \"#utility.yul\":5492:5493   */\n      dup3\n        /* \"#utility.yul\":5488:5497   */\n      sub\n        /* \"#utility.yul\":5480:5497   */\n      swap1\n      pop\n        /* \"#utility.yul\":5519:5520   */\n      dup2\n        /* \"#utility.yul\":5513:5517   */\n      dup2\n        /* \"#utility.yul\":5510:5521   */\n      gt\n        /* \"#utility.yul\":5507:5544   */\n      iszero\n      tag_118\n      jumpi\n        /* \"#utility.yul\":5524:5542   */\n      tag_119\n      tag_68\n      jump\t// in\n    tag_119:\n        /* \"#utility.yul\":5507:5544   */\n    tag_118:\n        /* \"#utility.yul\":5357:5551   */\n      swap3\n      swap2\n      pop\n      pop\n      jump\t// out\n        /* \"#utility.yul\":5557:5967   */\n    tag_39:\n        /* \"#utility.yul\":5597:5604   */\n      0x00\n        /* \"#utility.yul\":5620:5640   */\n      tag_121\n        /* \"#utility.yul\":5638:5639   */\n      dup3\n        /* \"#utility.yul\":5620:5640   */\n      tag_54\n      jump\t// in\n    tag_121:\n        /* \"#utility.yul\":5615:5640   */\n      swap2\n      pop\n        /* \"#utility.yul\":5654:5674   */\n      tag_122\n        /* \"#utility.yul\":5672:5673   */\n      dup4\n        /* \"#utility.yul\":5654:5674   */\n      tag_54\n      jump\t// in\n    tag_122:\n        /* \"#utility.yul\":5649:5674   */\n      swap3\n      pop\n        /* \"#utility.yul\":5709:5710   */\n      dup3\n        /* \"#utility.yul\":5706:5707   */\n      dup3\n        /* \"#utility.yul\":5702:5711   */\n      mul\n        /* \"#utility.yul\":5731:5761   */\n      tag_123\n        /* \"#utility.yul\":5749:5760   */\n      dup2\n        /* \"#utility.yul\":5731:5761   */\n      tag_54\n      jump\t// in\n    tag_123:\n        /* \"#utility.yul\":5720:5761   */\n      swap2\n      pop\n        /* \"#utility.yul\":5910:5911   */\n      dup3\n        /* \"#utility.yul\":5901:5908   */\n      dup3\n        /* \"#utility.yul\":5897:5912   */\n      div\n        /* \"#utility.yul\":5894:5895   */\n      dup5\n        /* \"#utility.yul\":5891:5913   */\n      eq\n        /* \"#utility.yul\":5871:5872   */\n      dup4\n        /* \"#utility.yul\":5864:5873   */\n      iszero\n        /* \"#utility.yul\":5844:5927   */\n      or\n        /* \"#utility.yul\":5821:5960   */\n      tag_124\n      jumpi\n        /* \"#utility.yul\":5940:5958   */\n      tag_125\n      tag_68\n      jump\t// in\n    tag_125:\n        /* \"#utility.yul\":5821:5960   */\n    tag_124:\n        /* \"#utility.yul\":5605:5967   */\n      pop\n        /* \"#utility.yul\":5557:5967   */\n      swap3\n      swap2\n      pop\n      pop\n      jump\t// out\n        /* \"#utility.yul\":5973:6144   */\n    tag_43:\n        /* \"#utility.yul\":6012:6015   */\n      0x00\n        /* \"#utility.yul\":6035:6059   */\n      tag_127\n        /* \"#utility.yul\":6053:6058   */\n      dup3\n        /* \"#utility.yul\":6035:6059   */\n      tag_54\n      jump\t// in\n    tag_127:\n        /* \"#utility.yul\":6026:6059   */\n      swap2\n      pop\n        /* \"#utility.yul\":6081:6085   */\n      0x00\n        /* \"#utility.yul\":6074:6079   */\n      dup3\n        /* \"#utility.yul\":6071:6086   */\n      sub\n        /* \"#utility.yul\":6068:6109   */\n      tag_128\n      jumpi\n        /* \"#utility.yul\":6089:6107   */\n      tag_129\n      tag_68\n      jump\t// in\n    tag_129:\n        /* \"#utility.yul\":6068:6109   */\n    tag_128:\n        /* \"#utility.yul\":6136:6137   */\n      0x01\n        /* \"#utility.yul\":6129:6134   */\n      dup3\n        /* \"#utility.yul\":6125:6138   */\n      sub\n        /* \"#utility.yul\":6118:6138   */\n      swap1\n      pop\n        /* \"#utility.yul\":5973:6144   */\n      swap2\n      swap1\n      pop\n      jump\t// out\n        /* \"#utility.yul\":6150:6383   */\n    tag_46:\n        /* \"#utility.yul\":6189:6192   */\n      0x00\n        /* \"#utility.yul\":6212:6236   */\n      tag_131\n        /* \"#utility.yul\":6230:6235   */\n      dup3\n        /* \"#utility.yul\":6212:6236   */\n      tag_54\n      jump\t// in\n    tag_131:\n        /* \"#utility.yul\":6203:6236   */\n      swap2\n      pop\n        /* \"#utility.yul\":6258:6324   */\n      0xffffffffffffffffffffffffffffffffffffffffffffffffffffffffffffffff\n        /* \"#utility.yul\":6251:6256   */\n      dup3\n        /* \"#utility.yul\":6248:6325   */\n      sub\n        /* \"#utility.yul\":6245:6348   */\n      tag_132\n      jumpi\n        /* \"#utility.yul\":6328:6346   */\n      tag_133\n      tag_68\n      jump\t// in\n    tag_133:\n        /* \"#utility.yul\":6245:6348   */\n    tag_132:\n        /* \"#utility.yul\":6375:6376   */\n      0x01\n        /* \"#utility.yul\":6368:6373   */\n      dup3\n        /* \"#utility.yul\":6364:6377   */\n      add\n        /* \"#utility.yul\":6357:6377   */\n      swap1\n      pop\n        /* \"#utility.yul\":6150:6383   */\n      swap2\n      swap1\n      pop\n      jump\t// out\n        /* \"#utility.yul\":6389:6569   */\n    tag_69:\n        /* \"#utility.yul\":6437:6514   */\n      0x4e487b7100000000000000000000000000000000000000000000000000000000\n        /* \"#utility.yul\":6434:6435   */\n      0x00\n        /* \"#utility.yul\":6427:6515   */\n      mstore\n        /* \"#utility.yul\":6534:6538   */\n      0x12\n        /* \"#utility.yul\":6531:6532   */\n      0x04\n        /* \"#utility.yul\":6524:6539   */\n      mstore\n        /* \"#utility.yul\":6558:6562   */\n      0x24\n        /* \"#utility.yul\":6555:6556   */\n      0x00\n        /* \"#utility.yul\":6548:6563   */\n      revert\n        /* \"#utility.yul\":6575:6751   */\n    tag_48:\n        /* \"#utility.yul\":6607:6608   */\n      0x00\n        /* \"#utility.yul\":6624:6644   */\n      tag_136\n        /* \"#utility.yul\":6642:6643   */\n      dup3\n        /* \"#utility.yul\":6624:6644   */\n      tag_54\n      jump\t// in\n    tag_136:\n        /* \"#utility.yul\":6619:6644   */\n      swap2\n      pop\n        /* \"#utility.yul\":6658:6678   */\n      tag_137\n        /* \"#utility.yul\":6676:6677   */\n      dup4\n        /* \"#utility.yul\":6658:6678   */\n      tag_54\n      jump\t// in\n    tag_137:\n        /* \"#utility.yul\":6653:6678   */\n      swap3\n      pop\n        /* \"#utility.yul\":6697:6698   */\n      dup3\n        /* \"#utility.yul\":6687:6722   */\n      tag_138\n      jumpi\n        /* \"#utility.yul\":6702:6720   */\n      tag_139\n      tag_69\n      jump\t// in\n    tag_139:\n        /* \"#utility.yul\":6687:6722   */\n    tag_138:\n        /* \"#utility.yul\":6743:6744   */\n      dup3\n        /* \"#utility.yul\":6740:6741   */\n      dup3\n        /* \"#utility.yul\":6736:6745   */\n      mod\n        /* \"#utility.yul\":6731:6745   */\n      swap1\n      pop\n        /* \"#utility.yul\":6575:6751   */\n      swap3\n      swap2\n      pop\n      pop\n      jump\t// out\n\n    auxdata: 0xa26469706673582212202d9d57b1bfef1fb3d1bbf00ba6aa47c3cc1bb79aa641ce98d1e3bad7538f2ae664736f6c63430008190033\n}\n",
				"bytecode": {
					"linkReferences": {},
					"object": "6080604052348015600e575f80fd5b503360015f6101000a81548173ffffffffffffffffffffffffffffffffffffffff021916908373ffffffffffffffffffffffffffffffffffffffff1602179055506106e78061005c5f395ff3fe608060405234801561000f575f80fd5b506004361061004a575f3560e01c80633b4dbf8b1461004e5780638da5cb5b1461006a578063b5144bcb14610088578063d1efd30d146100a6575b5f80fd5b61006860048036038101906100639190610306565b6100c4565b005b6100726101b0565b60405161007f9190610370565b60405180910390f35b6100906101d5565b60405161009d9190610398565b60405180910390f35b6100ae6101db565b6040516100bb9190610398565b60405180910390f35b60015f9054906101000a900473ffffffffffffffffffffffffffffffffffffffff1673ffffffffffffffffffffffffffffffffffffffff163373ffffffffffffffffffffffffffffffffffffffff1614610153576040517f08c379a000000000000000000000000000000000000000000000000000000000815260040161014a90610431565b60405180910390fd5b5f548103610196576040517f08c379a000000000000000000000000000000000000000000000000000000000815260040161018d906104bf565b60405180910390fd5b8060038190555060206002819055506101ad6101e0565b50565b60015f9054906101000a900473ffffffffffffffffffffffffffffffffffffffff1681565b60025481565b5f5481565b5f60025411610224576040517f08c379a000000000000000000000000000000000000000000000000000000000815260040161021b90610527565b60405180910390fd5b5f600860025460206102369190610572565b61024091906105a5565b90505f60016020600861025391906105a5565b6001901b6102619190610572565b82600354901c169050805f5560025f81548092919061027f906105e6565b91905055505f60025411156102ca5760045f8154809291906102a09061060d565b91905055505f60326004546102b59190610681565b036102c15750506102cd565b6102c96101e0565b5b50505b565b5f80fd5b5f819050919050565b6102e5816102d3565b81146102ef575f80fd5b50565b5f81359050610300816102dc565b92915050565b5f6020828403121561031b5761031a6102cf565b5b5f610328848285016102f2565b91505092915050565b5f73ffffffffffffffffffffffffffffffffffffffff82169050919050565b5f61035a82610331565b9050919050565b61036a81610350565b82525050565b5f6020820190506103835f830184610361565b92915050565b610392816102d3565b82525050565b5f6020820190506103ab5f830184610389565b92915050565b5f82825260208201905092915050565b7f4f6e6c79206f776e65722063616e2063616c6c20746869732066756e6374696f5f8201527f6e00000000000000000000000000000000000000000000000000000000000000602082015250565b5f61041b6021836103b1565b9150610426826103c1565b604082019050919050565b5f6020820190508181035f8301526104488161040f565b9050919050565b7f4e657720736563726574206d75737420626520646966666572656e742066726f5f8201527f6d207468652063757272656e74206f6e65000000000000000000000000000000602082015250565b5f6104a96031836103b1565b91506104b48261044f565b604082019050919050565b5f6020820190508181035f8301526104d68161049d565b9050919050565b7f416c6c206368756e6b73207570646174656400000000000000000000000000005f82015250565b5f6105116012836103b1565b915061051c826104dd565b602082019050919050565b5f6020820190508181035f83015261053e81610505565b9050919050565b7f4e487b71000000000000000000000000000000000000000000000000000000005f52601160045260245ffd5b5f61057c826102d3565b9150610587836102d3565b925082820390508181111561059f5761059e610545565b5b92915050565b5f6105af826102d3565b91506105ba836102d3565b92508282026105c8816102d3565b915082820484148315176105df576105de610545565b5b5092915050565b5f6105f0826102d3565b91505f820361060257610601610545565b5b600182039050919050565b5f610617826102d3565b91507fffffffffffffffffffffffffffffffffffffffffffffffffffffffffffffffff820361064957610648610545565b5b600182019050919050565b7f4e487b71000000000000000000000000000000000000000000000000000000005f52601260045260245ffd5b5f61068b826102d3565b9150610696836102d3565b9250826106a6576106a5610654565b5b82820690509291505056fea26469706673582212202d9d57b1bfef1fb3d1bbf00ba6aa47c3cc1bb79aa641ce98d1e3bad7538f2ae664736f6c63430008190033",
					"opcodes": "PUSH1 0x80 PUSH1 0x40 MSTORE CALLVALUE DUP1 ISZERO PUSH1 0xE JUMPI PUSH0 DUP1 REVERT JUMPDEST POP CALLER PUSH1 0x1 PUSH0 PUSH2 0x100 EXP DUP2 SLOAD DUP2 PUSH20 0xFFFFFFFFFFFFFFFFFFFFFFFFFFFFFFFFFFFFFFFF MUL NOT AND SWAP1 DUP4 PUSH20 0xFFFFFFFFFFFFFFFFFFFFFFFFFFFFFFFFFFFFFFFF AND MUL OR SWAP1 SSTORE POP PUSH2 0x6E7 DUP1 PUSH2 0x5C PUSH0 CODECOPY PUSH0 RETURN INVALID PUSH1 0x80 PUSH1 0x40 MSTORE CALLVALUE DUP1 ISZERO PUSH2 0xF JUMPI PUSH0 DUP1 REVERT JUMPDEST POP PUSH1 0x4 CALLDATASIZE LT PUSH2 0x4A JUMPI PUSH0 CALLDATALOAD PUSH1 0xE0 SHR DUP1 PUSH4 0x3B4DBF8B EQ PUSH2 0x4E JUMPI DUP1 PUSH4 0x8DA5CB5B EQ PUSH2 0x6A JUMPI DUP1 PUSH4 0xB5144BCB EQ PUSH2 0x88 JUMPI DUP1 PUSH4 0xD1EFD30D EQ PUSH2 0xA6 JUMPI JUMPDEST PUSH0 DUP1 REVERT JUMPDEST PUSH2 0x68 PUSH1 0x4 DUP1 CALLDATASIZE SUB DUP2 ADD SWAP1 PUSH2 0x63 SWAP2 SWAP1 PUSH2 0x306 JUMP JUMPDEST PUSH2 0xC4 JUMP JUMPDEST STOP JUMPDEST PUSH2 0x72 PUSH2 0x1B0 JUMP JUMPDEST PUSH1 0x40 MLOAD PUSH2 0x7F SWAP2 SWAP1 PUSH2 0x370 JUMP JUMPDEST PUSH1 0x40 MLOAD DUP1 SWAP2 SUB SWAP1 RETURN JUMPDEST PUSH2 0x90 PUSH2 0x1D5 JUMP JUMPDEST PUSH1 0x40 MLOAD PUSH2 0x9D SWAP2 SWAP1 PUSH2 0x398 JUMP JUMPDEST PUSH1 0x40 MLOAD DUP1 SWAP2 SUB SWAP1 RETURN JUMPDEST PUSH2 0xAE PUSH2 0x1DB JUMP JUMPDEST PUSH1 0x40 MLOAD PUSH2 0xBB SWAP2 SWAP1 PUSH2 0x398 JUMP JUMPDEST PUSH1 0x40 MLOAD DUP1 SWAP2 SUB SWAP1 RETURN JUMPDEST PUSH1 0x1 PUSH0 SWAP1 SLOAD SWAP1 PUSH2 0x100 EXP SWAP1 DIV PUSH20 0xFFFFFFFFFFFFFFFFFFFFFFFFFFFFFFFFFFFFFFFF AND PUSH20 0xFFFFFFFFFFFFFFFFFFFFFFFFFFFFFFFFFFFFFFFF AND CALLER PUSH20 0xFFFFFFFFFFFFFFFFFFFFFFFFFFFFFFFFFFFFFFFF AND EQ PUSH2 0x153 JUMPI PUSH1 0x40 MLOAD PUSH32 0x8C379A000000000000000000000000000000000000000000000000000000000 DUP2 MSTORE PUSH1 0x4 ADD PUSH2 0x14A SWAP1 PUSH2 0x431 JUMP JUMPDEST PUSH1 0x40 MLOAD DUP1 SWAP2 SUB SWAP1 REVERT JUMPDEST PUSH0 SLOAD DUP2 SUB PUSH2 0x196 JUMPI PUSH1 0x40 MLOAD PUSH32 0x8C379A000000000000000000000000000000000000000000000000000000000 DUP2 MSTORE PUSH1 0x4 ADD PUSH2 0x18D SWAP1 PUSH2 0x4BF JUMP JUMPDEST PUSH1 0x40 MLOAD DUP1 SWAP2 SUB SWAP1 REVERT JUMPDEST DUP1 PUSH1 0x3 DUP2 SWAP1 SSTORE POP PUSH1 0x20 PUSH1 0x2 DUP2 SWAP1 SSTORE POP PUSH2 0x1AD PUSH2 0x1E0 JUMP JUMPDEST POP JUMP JUMPDEST PUSH1 0x1 PUSH0 SWAP1 SLOAD SWAP1 PUSH2 0x100 EXP SWAP1 DIV PUSH20 0xFFFFFFFFFFFFFFFFFFFFFFFFFFFFFFFFFFFFFFFF AND DUP2 JUMP JUMPDEST PUSH1 0x2 SLOAD DUP2 JUMP JUMPDEST PUSH0 SLOAD DUP2 JUMP JUMPDEST PUSH0 PUSH1 0x2 SLOAD GT PUSH2 0x224 JUMPI PUSH1 0x40 MLOAD PUSH32 0x8C379A000000000000000000000000000000000000000000000000000000000 DUP2 MSTORE PUSH1 0x4 ADD PUSH2 0x21B SWAP1 PUSH2 0x527 JUMP JUMPDEST PUSH1 0x40 MLOAD DUP1 SWAP2 SUB SWAP1 REVERT JUMPDEST PUSH0 PUSH1 0x8 PUSH1 0x2 SLOAD PUSH1 0x20 PUSH2 0x236 SWAP2 SWAP1 PUSH2 0x572 JUMP JUMPDEST PUSH2 0x240 SWAP2 SWAP1 PUSH2 0x5A5 JUMP JUMPDEST SWAP1 POP PUSH0 PUSH1 0x1 PUSH1 0x20 PUSH1 0x8 PUSH2 0x253 SWAP2 SWAP1 PUSH2 0x5A5 JUMP JUMPDEST PUSH1 0x1 SWAP1 SHL PUSH2 0x261 SWAP2 SWAP1 PUSH2 0x572 JUMP JUMPDEST DUP3 PUSH1 0x3 SLOAD SWAP1 SHR AND SWAP1 POP DUP1 PUSH0 SSTORE PUSH1 0x2 PUSH0 DUP2 SLOAD DUP1 SWAP3 SWAP2 SWAP1 PUSH2 0x27F SWAP1 PUSH2 0x5E6 JUMP JUMPDEST SWAP2 SWAP1 POP SSTORE POP PUSH0 PUSH1 0x2 SLOAD GT ISZERO PUSH2 0x2CA JUMPI PUSH1 0x4 PUSH0 DUP2 SLOAD DUP1 SWAP3 SWAP2 SWAP1 PUSH2 0x2A0 SWAP1 PUSH2 0x60D JUMP JUMPDEST SWAP2 SWAP1 POP SSTORE POP PUSH0 PUSH1 0x32 PUSH1 0x4 SLOAD PUSH2 0x2B5 SWAP2 SWAP1 PUSH2 0x681 JUMP JUMPDEST SUB PUSH2 0x2C1 JUMPI POP POP PUSH2 0x2CD JUMP JUMPDEST PUSH2 0x2C9 PUSH2 0x1E0 JUMP JUMPDEST JUMPDEST POP POP JUMPDEST JUMP JUMPDEST PUSH0 DUP1 REVERT JUMPDEST PUSH0 DUP2 SWAP1 POP SWAP2 SWAP1 POP JUMP JUMPDEST PUSH2 0x2E5 DUP2 PUSH2 0x2D3 JUMP JUMPDEST DUP2 EQ PUSH2 0x2EF JUMPI PUSH0 DUP1 REVERT JUMPDEST POP JUMP JUMPDEST PUSH0 DUP2 CALLDATALOAD SWAP1 POP PUSH2 0x300 DUP2 PUSH2 0x2DC JUMP JUMPDEST SWAP3 SWAP2 POP POP JUMP JUMPDEST PUSH0 PUSH1 0x20 DUP3 DUP5 SUB SLT ISZERO PUSH2 0x31B JUMPI PUSH2 0x31A PUSH2 0x2CF JUMP JUMPDEST JUMPDEST PUSH0 PUSH2 0x328 DUP5 DUP3 DUP6 ADD PUSH2 0x2F2 JUMP JUMPDEST SWAP2 POP POP SWAP3 SWAP2 POP POP JUMP JUMPDEST PUSH0 PUSH20 0xFFFFFFFFFFFFFFFFFFFFFFFFFFFFFFFFFFFFFFFF DUP3 AND SWAP1 POP SWAP2 SWAP1 POP JUMP JUMPDEST PUSH0 PUSH2 0x35A DUP3 PUSH2 0x331 JUMP JUMPDEST SWAP1 POP SWAP2 SWAP1 POP JUMP JUMPDEST PUSH2 0x36A DUP2 PUSH2 0x350 JUMP JUMPDEST DUP3 MSTORE POP POP JUMP JUMPDEST PUSH0 PUSH1 0x20 DUP3 ADD SWAP1 POP PUSH2 0x383 PUSH0 DUP4 ADD DUP5 PUSH2 0x361 JUMP JUMPDEST SWAP3 SWAP2 POP POP JUMP JUMPDEST PUSH2 0x392 DUP2 PUSH2 0x2D3 JUMP JUMPDEST DUP3 MSTORE POP POP JUMP JUMPDEST PUSH0 PUSH1 0x20 DUP3 ADD SWAP1 POP PUSH2 0x3AB PUSH0 DUP4 ADD DUP5 PUSH2 0x389 JUMP JUMPDEST SWAP3 SWAP2 POP POP JUMP JUMPDEST PUSH0 DUP3 DUP3 MSTORE PUSH1 0x20 DUP3 ADD SWAP1 POP SWAP3 SWAP2 POP POP JUMP JUMPDEST PUSH32 0x4F6E6C79206F776E65722063616E2063616C6C20746869732066756E6374696F PUSH0 DUP3 ADD MSTORE PUSH32 0x6E00000000000000000000000000000000000000000000000000000000000000 PUSH1 0x20 DUP3 ADD MSTORE POP JUMP JUMPDEST PUSH0 PUSH2 0x41B PUSH1 0x21 DUP4 PUSH2 0x3B1 JUMP JUMPDEST SWAP2 POP PUSH2 0x426 DUP3 PUSH2 0x3C1 JUMP JUMPDEST PUSH1 0x40 DUP3 ADD SWAP1 POP SWAP2 SWAP1 POP JUMP JUMPDEST PUSH0 PUSH1 0x20 DUP3 ADD SWAP1 POP DUP2 DUP2 SUB PUSH0 DUP4 ADD MSTORE PUSH2 0x448 DUP2 PUSH2 0x40F JUMP JUMPDEST SWAP1 POP SWAP2 SWAP1 POP JUMP JUMPDEST PUSH32 0x4E657720736563726574206D75737420626520646966666572656E742066726F PUSH0 DUP3 ADD MSTORE PUSH32 0x6D207468652063757272656E74206F6E65000000000000000000000000000000 PUSH1 0x20 DUP3 ADD MSTORE POP JUMP JUMPDEST PUSH0 PUSH2 0x4A9 PUSH1 0x31 DUP4 PUSH2 0x3B1 JUMP JUMPDEST SWAP2 POP PUSH2 0x4B4 DUP3 PUSH2 0x44F JUMP JUMPDEST PUSH1 0x40 DUP3 ADD SWAP1 POP SWAP2 SWAP1 POP JUMP JUMPDEST PUSH0 PUSH1 0x20 DUP3 ADD SWAP1 POP DUP2 DUP2 SUB PUSH0 DUP4 ADD MSTORE PUSH2 0x4D6 DUP2 PUSH2 0x49D JUMP JUMPDEST SWAP1 POP SWAP2 SWAP1 POP JUMP JUMPDEST PUSH32 0x416C6C206368756E6B7320757064617465640000000000000000000000000000 PUSH0 DUP3 ADD MSTORE POP JUMP JUMPDEST PUSH0 PUSH2 0x511 PUSH1 0x12 DUP4 PUSH2 0x3B1 JUMP JUMPDEST SWAP2 POP PUSH2 0x51C DUP3 PUSH2 0x4DD JUMP JUMPDEST PUSH1 0x20 DUP3 ADD SWAP1 POP SWAP2 SWAP1 POP JUMP JUMPDEST PUSH0 PUSH1 0x20 DUP3 ADD SWAP1 POP DUP2 DUP2 SUB PUSH0 DUP4 ADD MSTORE PUSH2 0x53E DUP2 PUSH2 0x505 JUMP JUMPDEST SWAP1 POP SWAP2 SWAP1 POP JUMP JUMPDEST PUSH32 0x4E487B7100000000000000000000000000000000000000000000000000000000 PUSH0 MSTORE PUSH1 0x11 PUSH1 0x4 MSTORE PUSH1 0x24 PUSH0 REVERT JUMPDEST PUSH0 PUSH2 0x57C DUP3 PUSH2 0x2D3 JUMP JUMPDEST SWAP2 POP PUSH2 0x587 DUP4 PUSH2 0x2D3 JUMP JUMPDEST SWAP3 POP DUP3 DUP3 SUB SWAP1 POP DUP2 DUP2 GT ISZERO PUSH2 0x59F JUMPI PUSH2 0x59E PUSH2 0x545 JUMP JUMPDEST JUMPDEST SWAP3 SWAP2 POP POP JUMP JUMPDEST PUSH0 PUSH2 0x5AF DUP3 PUSH2 0x2D3 JUMP JUMPDEST SWAP2 POP PUSH2 0x5BA DUP4 PUSH2 0x2D3 JUMP JUMPDEST SWAP3 POP DUP3 DUP3 MUL PUSH2 0x5C8 DUP2 PUSH2 0x2D3 JUMP JUMPDEST SWAP2 POP DUP3 DUP3 DIV DUP5 EQ DUP4 ISZERO OR PUSH2 0x5DF JUMPI PUSH2 0x5DE PUSH2 0x545 JUMP JUMPDEST JUMPDEST POP SWAP3 SWAP2 POP POP JUMP JUMPDEST PUSH0 PUSH2 0x5F0 DUP3 PUSH2 0x2D3 JUMP JUMPDEST SWAP2 POP PUSH0 DUP3 SUB PUSH2 0x602 JUMPI PUSH2 0x601 PUSH2 0x545 JUMP JUMPDEST JUMPDEST PUSH1 0x1 DUP3 SUB SWAP1 POP SWAP2 SWAP1 POP JUMP JUMPDEST PUSH0 PUSH2 0x617 DUP3 PUSH2 0x2D3 JUMP JUMPDEST SWAP2 POP PUSH32 0xFFFFFFFFFFFFFFFFFFFFFFFFFFFFFFFFFFFFFFFFFFFFFFFFFFFFFFFFFFFFFFFF DUP3 SUB PUSH2 0x649 JUMPI PUSH2 0x648 PUSH2 0x545 JUMP JUMPDEST JUMPDEST PUSH1 0x1 DUP3 ADD SWAP1 POP SWAP2 SWAP1 POP JUMP JUMPDEST PUSH32 0x4E487B7100000000000000000000000000000000000000000000000000000000 PUSH0 MSTORE PUSH1 0x12 PUSH1 0x4 MSTORE PUSH1 0x24 PUSH0 REVERT JUMPDEST PUSH0 PUSH2 0x68B DUP3 PUSH2 0x2D3 JUMP JUMPDEST SWAP2 POP PUSH2 0x696 DUP4 PUSH2 0x2D3 JUMP JUMPDEST SWAP3 POP DUP3 PUSH2 0x6A6 JUMPI PUSH2 0x6A5 PUSH2 0x654 JUMP JUMPDEST JUMPDEST DUP3 DUP3 MOD SWAP1 POP SWAP3 SWAP2 POP POP JUMP INVALID LOG2 PUSH5 0x6970667358 0x22 SLT KECCAK256 0x2D SWAP14 JUMPI 0xB1 0xBF 0xEF 0x1F 0xB3 0xD1 0xBB CREATE SIGNEXTEND 0xA6 0xAA SELFBALANCE 0xC3 0xCC SHL 0xB7 SWAP11 0xA6 COINBASE 0xCE SWAP9 0xD1 0xE3 0xBA 0xD7 MSTORE8 DUP16 0x2A 0xE6 PUSH5 0x736F6C6343 STOP ADDMOD NOT STOP CALLER "
				},
				"gasEstimates": {
					"creation": {
						"codeDepositCost": "353400",
						"executionCost": "24656",
						"totalCost": "378056"
					},
					"external": {
						"owner()": "2508",
						"remainingChunks()": "2447",
						"secret()": "2468",
						"setSecret(uint256)": "infinite"
					},
					"internal": {
						"_updateSecretChunk()": "infinite"
					}
				},
				"methodIdentifiers": {
					"owner()": "8da5cb5b",
					"remainingChunks()": "b5144bcb",
					"secret()": "d1efd30d",
					"setSecret(uint256)": "3b4dbf8b"
				}
			},
			"storageLayout": {
				"storage": [
					{
						"astId": 3,
						"contract": "contracts/test.sol:ShamirSecretSharing",
						"label": "secret",
						"offset": 0,
						"slot": "0",
						"type": "t_uint256"
					},
					{
						"astId": 5,
						"contract": "contracts/test.sol:ShamirSecretSharing",
						"label": "owner",
						"offset": 0,
						"slot": "1",
						"type": "t_address"
					},
					{
						"astId": 7,
						"contract": "contracts/test.sol:ShamirSecretSharing",
						"label": "remainingChunks",
						"offset": 0,
						"slot": "2",
						"type": "t_uint256"
					},
					{
						"astId": 9,
						"contract": "contracts/test.sol:ShamirSecretSharing",
						"label": "_newSecret",
						"offset": 0,
						"slot": "3",
						"type": "t_uint256"
					},
					{
						"astId": 11,
						"contract": "contracts/test.sol:ShamirSecretSharing",
						"label": "_currentChunk",
						"offset": 0,
						"slot": "4",
						"type": "t_uint256"
					}
				],
				"types": {
					"t_address": {
						"encoding": "inplace",
						"label": "address",
						"numberOfBytes": "20"
					},
					"t_uint256": {
						"encoding": "inplace",
						"label": "uint256",
						"numberOfBytes": "32"
					}
				}
			},
			"userdoc": {
				"kind": "user",
				"methods": {},
				"version": 1
			}
		}
	}
}