{
	"contracts/ShamirSecretSharring.sol": {
		"ShamirSecretSharing": {
			"abi": [
				{
					"inputs": [
						{
							"internalType": "uint256",
							"name": "secret",
							"type": "uint256"
						},
						{
							"internalType": "uint256",
							"name": "threshold",
							"type": "uint256"
						},
						{
							"internalType": "uint256",
							"name": "numShares",
							"type": "uint256"
						}
					],
					"name": "generateShares",
					"outputs": [
						{
							"internalType": "uint256[]",
							"name": "",
							"type": "uint256[]"
						}
					],
					"stateMutability": "pure",
					"type": "function"
				},
				{
					"inputs": [],
					"name": "prime",
					"outputs": [
						{
							"internalType": "uint256",
							"name": "",
							"type": "uint256"
						}
					],
					"stateMutability": "view",
					"type": "function"
				},
				{
					"inputs": [
						{
							"internalType": "uint256[]",
							"name": "shares",
							"type": "uint256[]"
						},
						{
							"internalType": "uint256[]",
							"name": "indices",
							"type": "uint256[]"
						}
					],
					"name": "reconstructSecret",
					"outputs": [
						{
							"internalType": "uint256",
							"name": "",
							"type": "uint256"
						}
					],
					"stateMutability": "pure",
					"type": "function"
				}
			],
			"devdoc": {
				"kind": "dev",
				"methods": {},
				"version": 1
			},
			"evm": {
				"assembly": "    /* \"contracts/ShamirSecretSharring.sol\":57:3089  contract ShamirSecretSharing {... */\n  mstore(0x40, 0x80)\n  callvalue\n  dup1\n  iszero\n  tag_1\n  jumpi\n  0x00\n  dup1\n  revert\ntag_1:\n  pop\n  dataSize(sub_0)\n  dup1\n  dataOffset(sub_0)\n  0x00\n  codecopy\n  0x00\n  return\nstop\n\nsub_0: assembly {\n        /* \"contracts/ShamirSecretSharring.sol\":57:3089  contract ShamirSecretSharing {... */\n      mstore(0x40, 0x80)\n      callvalue\n      dup1\n      iszero\n      tag_1\n      jumpi\n      0x00\n      dup1\n      revert\n    tag_1:\n      pop\n      jumpi(tag_2, lt(calldatasize, 0x04))\n      shr(0xe0, calldataload(0x00))\n      dup1\n      0x39430740\n      eq\n      tag_3\n      jumpi\n      dup1\n      0xb4df6f00\n      eq\n      tag_4\n      jumpi\n      dup1\n      0xc7ee005e\n      eq\n      tag_5\n      jumpi\n    tag_2:\n      0x00\n      dup1\n      revert\n        /* \"contracts/ShamirSecretSharring.sol\":1685:2547  function reconstructSecret(uint256[] memory shares, uint256[] memory indices) public pure returns (uint256) {... */\n    tag_3:\n      tag_6\n      0x04\n      dup1\n      calldatasize\n      sub\n      dup2\n      add\n      swap1\n      tag_7\n      swap2\n      swap1\n      tag_8\n      jump\t// in\n    tag_7:\n      tag_9\n      jump\t// in\n    tag_6:\n      mload(0x40)\n      tag_10\n      swap2\n      swap1\n      tag_11\n      jump\t// in\n    tag_10:\n      mload(0x40)\n      dup1\n      swap2\n      sub\n      swap1\n      return\n        /* \"contracts/ShamirSecretSharring.sol\":228:1193  function generateShares(uint256 secret, uint256 threshold, uint256 numShares) public pure returns (uint256[] memory) {... */\n    tag_4:\n      tag_12\n      0x04\n      dup1\n      calldatasize\n      sub\n      dup2\n      add\n      swap1\n      tag_13\n      swap2\n      swap1\n      tag_14\n      jump\t// in\n    tag_13:\n      tag_15\n      jump\t// in\n    tag_12:\n      mload(0x40)\n      tag_16\n      swap2\n      swap1\n      tag_17\n      jump\t// in\n    tag_16:\n      mload(0x40)\n      dup1\n      swap2\n      sub\n      swap1\n      return\n        /* \"contracts/ShamirSecretSharring.sol\":92:202  uint256 constant public prime = 115792089237316195423570985008687907853269984665640564039457584007913129639747 */\n    tag_5:\n      tag_18\n      tag_19\n      jump\t// in\n    tag_18:\n      mload(0x40)\n      tag_20\n      swap2\n      swap1\n      tag_11\n      jump\t// in\n    tag_20:\n      mload(0x40)\n      dup1\n      swap2\n      sub\n      swap1\n      return\n        /* \"contracts/ShamirSecretSharring.sol\":1685:2547  function reconstructSecret(uint256[] memory shares, uint256[] memory indices) public pure returns (uint256) {... */\n    tag_9:\n        /* \"contracts/ShamirSecretSharring.sol\":1784:1791  uint256 */\n      0x00\n        /* \"contracts/ShamirSecretSharring.sol\":1828:1835  indices */\n      dup2\n        /* \"contracts/ShamirSecretSharring.sol\":1828:1842  indices.length */\n      mload\n        /* \"contracts/ShamirSecretSharring.sol\":1811:1817  shares */\n      dup4\n        /* \"contracts/ShamirSecretSharring.sol\":1811:1824  shares.length */\n      mload\n        /* \"contracts/ShamirSecretSharring.sol\":1811:1842  shares.length == indices.length */\n      eq\n        /* \"contracts/ShamirSecretSharring.sol\":1811:1863  shares.length == indices.length && shares.length > 0 */\n      dup1\n      iszero\n      tag_22\n      jumpi\n      pop\n        /* \"contracts/ShamirSecretSharring.sol\":1862:1863  0 */\n      0x00\n        /* \"contracts/ShamirSecretSharring.sol\":1846:1852  shares */\n      dup4\n        /* \"contracts/ShamirSecretSharring.sol\":1846:1859  shares.length */\n      mload\n        /* \"contracts/ShamirSecretSharring.sol\":1846:1863  shares.length > 0 */\n      gt\n        /* \"contracts/ShamirSecretSharring.sol\":1811:1863  shares.length == indices.length && shares.length > 0 */\n    tag_22:\n        /* \"contracts/ShamirSecretSharring.sol\":1803:1881  require(shares.length == indices.length && shares.length > 0, \"Invalid input\") */\n      tag_23\n      jumpi\n      mload(0x40)\n      0x08c379a000000000000000000000000000000000000000000000000000000000\n      dup2\n      mstore\n      0x04\n      add\n      tag_24\n      swap1\n      tag_25\n      jump\t// in\n    tag_24:\n      mload(0x40)\n      dup1\n      swap2\n      sub\n      swap1\n      revert\n    tag_23:\n        /* \"contracts/ShamirSecretSharring.sol\":1900:1914  uint256 secret */\n      0x00\n        /* \"contracts/ShamirSecretSharring.sol\":1942:1951  uint256 i */\n      dup1\n        /* \"contracts/ShamirSecretSharring.sol\":1937:2509  for (uint256 i = 0; i < shares.length; i++) {... */\n    tag_26:\n        /* \"contracts/ShamirSecretSharring.sol\":1961:1967  shares */\n      dup5\n        /* \"contracts/ShamirSecretSharring.sol\":1961:1974  shares.length */\n      mload\n        /* \"contracts/ShamirSecretSharring.sol\":1957:1958  i */\n      dup2\n        /* \"contracts/ShamirSecretSharring.sol\":1957:1974  i < shares.length */\n      lt\n        /* \"contracts/ShamirSecretSharring.sol\":1937:2509  for (uint256 i = 0; i < shares.length; i++) {... */\n      iszero\n      tag_27\n      jumpi\n        /* \"contracts/ShamirSecretSharring.sol\":1995:2012  uint256 numerator */\n      0x00\n        /* \"contracts/ShamirSecretSharring.sol\":2015:2021  shares */\n      dup6\n        /* \"contracts/ShamirSecretSharring.sol\":2022:2023  i */\n      dup3\n        /* \"contracts/ShamirSecretSharring.sol\":2015:2024  shares[i] */\n      dup2\n      mload\n      dup2\n      lt\n      tag_29\n      jumpi\n      tag_30\n      tag_31\n      jump\t// in\n    tag_30:\n    tag_29:\n      0x20\n      mul\n      0x20\n      add\n      add\n      mload\n        /* \"contracts/ShamirSecretSharring.sol\":1995:2024  uint256 numerator = shares[i] */\n      swap1\n      pop\n        /* \"contracts/ShamirSecretSharring.sol\":2038:2057  uint256 denominator */\n      0x00\n        /* \"contracts/ShamirSecretSharring.sol\":2060:2061  1 */\n      0x01\n        /* \"contracts/ShamirSecretSharring.sol\":2038:2061  uint256 denominator = 1 */\n      swap1\n      pop\n        /* \"contracts/ShamirSecretSharring.sol\":2093:2102  uint256 j */\n      0x00\n        /* \"contracts/ShamirSecretSharring.sol\":2088:2338  for (uint256 j = 0; j < shares.length; j++) {... */\n    tag_32:\n        /* \"contracts/ShamirSecretSharring.sol\":2112:2118  shares */\n      dup8\n        /* \"contracts/ShamirSecretSharring.sol\":2112:2125  shares.length */\n      mload\n        /* \"contracts/ShamirSecretSharring.sol\":2108:2109  j */\n      dup2\n        /* \"contracts/ShamirSecretSharring.sol\":2108:2125  j < shares.length */\n      lt\n        /* \"contracts/ShamirSecretSharring.sol\":2088:2338  for (uint256 j = 0; j < shares.length; j++) {... */\n      iszero\n      tag_33\n      jumpi\n        /* \"contracts/ShamirSecretSharring.sol\":2159:2160  j */\n      dup1\n        /* \"contracts/ShamirSecretSharring.sol\":2154:2155  i */\n      dup5\n        /* \"contracts/ShamirSecretSharring.sol\":2154:2160  i == j */\n      sub\n        /* \"contracts/ShamirSecretSharring.sol\":2150:2170  if (i == j) continue */\n      iszero\n        /* \"contracts/ShamirSecretSharring.sol\":2162:2170  continue */\n      tag_34\n        /* \"contracts/ShamirSecretSharring.sol\":2150:2170  if (i == j) continue */\n      jumpi\n        /* \"contracts/ShamirSecretSharring.sol\":124:202  115792089237316195423570985008687907853269984665640564039457584007913129639747 */\n      0xffffffffffffffffffffffffffffffffffffffffffffffffffffffffffffff43\n        /* \"contracts/ShamirSecretSharring.sol\":2222:2229  indices */\n      dup8\n        /* \"contracts/ShamirSecretSharring.sol\":2230:2231  j */\n      dup3\n        /* \"contracts/ShamirSecretSharring.sol\":2222:2232  indices[j] */\n      dup2\n      mload\n      dup2\n      lt\n      tag_36\n      jumpi\n      tag_37\n      tag_31\n      jump\t// in\n    tag_37:\n    tag_36:\n      0x20\n      mul\n      0x20\n      add\n      add\n      mload\n        /* \"contracts/ShamirSecretSharring.sol\":124:202  115792089237316195423570985008687907853269984665640564039457584007913129639747 */\n      0xffffffffffffffffffffffffffffffffffffffffffffffffffffffffffffff43\n        /* \"contracts/ShamirSecretSharring.sol\":2214:2232  prime - indices[j] */\n      tag_38\n      swap2\n      swap1\n      tag_39\n      jump\t// in\n    tag_38:\n        /* \"contracts/ShamirSecretSharring.sol\":2201:2210  numerator */\n      dup5\n        /* \"contracts/ShamirSecretSharring.sol\":2201:2233  numerator * (prime - indices[j]) */\n      tag_40\n      swap2\n      swap1\n      tag_41\n      jump\t// in\n    tag_40:\n        /* \"contracts/ShamirSecretSharring.sol\":2200:2242  (numerator * (prime - indices[j])) % prime */\n      tag_42\n      swap2\n      swap1\n      tag_43\n      jump\t// in\n    tag_42:\n        /* \"contracts/ShamirSecretSharring.sol\":2188:2242  numerator = (numerator * (prime - indices[j])) % prime */\n      swap3\n      pop\n        /* \"contracts/ShamirSecretSharring.sol\":124:202  115792089237316195423570985008687907853269984665640564039457584007913129639747 */\n      0xffffffffffffffffffffffffffffffffffffffffffffffffffffffffffffff43\n        /* \"contracts/ShamirSecretSharring.sol\":2303:2310  indices */\n      dup8\n        /* \"contracts/ShamirSecretSharring.sol\":2311:2312  j */\n      dup3\n        /* \"contracts/ShamirSecretSharring.sol\":2303:2313  indices[j] */\n      dup2\n      mload\n      dup2\n      lt\n      tag_44\n      jumpi\n      tag_45\n      tag_31\n      jump\t// in\n    tag_45:\n    tag_44:\n      0x20\n      mul\n      0x20\n      add\n      add\n      mload\n        /* \"contracts/ShamirSecretSharring.sol\":2290:2297  indices */\n      dup9\n        /* \"contracts/ShamirSecretSharring.sol\":2298:2299  i */\n      dup7\n        /* \"contracts/ShamirSecretSharring.sol\":2290:2300  indices[i] */\n      dup2\n      mload\n      dup2\n      lt\n      tag_46\n      jumpi\n      tag_47\n      tag_31\n      jump\t// in\n    tag_47:\n    tag_46:\n      0x20\n      mul\n      0x20\n      add\n      add\n      mload\n        /* \"contracts/ShamirSecretSharring.sol\":2290:2313  indices[i] - indices[j] */\n      tag_48\n      swap2\n      swap1\n      tag_39\n      jump\t// in\n    tag_48:\n        /* \"contracts/ShamirSecretSharring.sol\":2275:2286  denominator */\n      dup4\n        /* \"contracts/ShamirSecretSharring.sol\":2275:2314  denominator * (indices[i] - indices[j]) */\n      tag_49\n      swap2\n      swap1\n      tag_41\n      jump\t// in\n    tag_49:\n        /* \"contracts/ShamirSecretSharring.sol\":2274:2323  (denominator * (indices[i] - indices[j])) % prime */\n      tag_50\n      swap2\n      swap1\n      tag_43\n      jump\t// in\n    tag_50:\n        /* \"contracts/ShamirSecretSharring.sol\":2260:2323  denominator = (denominator * (indices[i] - indices[j])) % prime */\n      swap2\n      pop\n        /* \"contracts/ShamirSecretSharring.sol\":2088:2338  for (uint256 j = 0; j < shares.length; j++) {... */\n    tag_34:\n        /* \"contracts/ShamirSecretSharring.sol\":2127:2130  j++ */\n      dup1\n      dup1\n      0x01\n      add\n      swap2\n      pop\n      pop\n        /* \"contracts/ShamirSecretSharring.sol\":2088:2338  for (uint256 j = 0; j < shares.length; j++) {... */\n      jump(tag_32)\n    tag_33:\n      pop\n        /* \"contracts/ShamirSecretSharring.sol\":2364:2391  uint256 lagrangeCoefficient */\n      0x00\n        /* \"contracts/ShamirSecretSharring.sol\":124:202  115792089237316195423570985008687907853269984665640564039457584007913129639747 */\n      0xffffffffffffffffffffffffffffffffffffffffffffffffffffffffffffff43\n        /* \"contracts/ShamirSecretSharring.sol\":2420:2429  numerator */\n      dup4\n        /* \"contracts/ShamirSecretSharring.sol\":2394:2417  modInverse(denominator) */\n      tag_51\n        /* \"contracts/ShamirSecretSharring.sol\":2405:2416  denominator */\n      dup5\n        /* \"contracts/ShamirSecretSharring.sol\":2394:2404  modInverse */\n      tag_52\n        /* \"contracts/ShamirSecretSharring.sol\":2394:2417  modInverse(denominator) */\n      jump\t// in\n    tag_51:\n        /* \"contracts/ShamirSecretSharring.sol\":2394:2429  modInverse(denominator) * numerator */\n      tag_53\n      swap2\n      swap1\n      tag_41\n      jump\t// in\n    tag_53:\n        /* \"contracts/ShamirSecretSharring.sol\":2394:2437  modInverse(denominator) * numerator % prime */\n      tag_54\n      swap2\n      swap1\n      tag_43\n      jump\t// in\n    tag_54:\n        /* \"contracts/ShamirSecretSharring.sol\":2364:2437  uint256 lagrangeCoefficient = modInverse(denominator) * numerator % prime */\n      swap1\n      pop\n        /* \"contracts/ShamirSecretSharring.sol\":124:202  115792089237316195423570985008687907853269984665640564039457584007913129639747 */\n      0xffffffffffffffffffffffffffffffffffffffffffffffffffffffffffffff43\n        /* \"contracts/ShamirSecretSharring.sol\":2470:2489  lagrangeCoefficient */\n      dup2\n        /* \"contracts/ShamirSecretSharring.sol\":2461:2467  secret */\n      dup7\n        /* \"contracts/ShamirSecretSharring.sol\":2461:2489  secret + lagrangeCoefficient */\n      tag_55\n      swap2\n      swap1\n      tag_56\n      jump\t// in\n    tag_55:\n        /* \"contracts/ShamirSecretSharring.sol\":2460:2498  (secret + lagrangeCoefficient) % prime */\n      tag_57\n      swap2\n      swap1\n      tag_43\n      jump\t// in\n    tag_57:\n        /* \"contracts/ShamirSecretSharring.sol\":2451:2498  secret = (secret + lagrangeCoefficient) % prime */\n      swap5\n      pop\n        /* \"contracts/ShamirSecretSharring.sol\":1981:2509  {... */\n      pop\n      pop\n      pop\n        /* \"contracts/ShamirSecretSharring.sol\":1976:1979  i++ */\n      dup1\n      dup1\n      0x01\n      add\n      swap2\n      pop\n      pop\n        /* \"contracts/ShamirSecretSharring.sol\":1937:2509  for (uint256 i = 0; i < shares.length; i++) {... */\n      jump(tag_26)\n    tag_27:\n      pop\n        /* \"contracts/ShamirSecretSharring.sol\":2534:2540  secret */\n      dup1\n        /* \"contracts/ShamirSecretSharring.sol\":2527:2540  return secret */\n      swap2\n      pop\n      pop\n        /* \"contracts/ShamirSecretSharring.sol\":1685:2547  function reconstructSecret(uint256[] memory shares, uint256[] memory indices) public pure returns (uint256) {... */\n      swap3\n      swap2\n      pop\n      pop\n      jump\t// out\n        /* \"contracts/ShamirSecretSharring.sol\":228:1193  function generateShares(uint256 secret, uint256 threshold, uint256 numShares) public pure returns (uint256[] memory) {... */\n    tag_15:\n        /* \"contracts/ShamirSecretSharring.sol\":327:343  uint256[] memory */\n      0x60\n        /* \"contracts/ShamirSecretSharring.sol\":375:376  0 */\n      0x00\n        /* \"contracts/ShamirSecretSharring.sol\":363:372  threshold */\n      dup4\n        /* \"contracts/ShamirSecretSharring.sol\":363:376  threshold > 0 */\n      gt\n        /* \"contracts/ShamirSecretSharring.sol\":363:402  threshold > 0 && threshold <= numShares */\n      dup1\n      iszero\n      tag_59\n      jumpi\n      pop\n        /* \"contracts/ShamirSecretSharring.sol\":393:402  numShares */\n      dup2\n        /* \"contracts/ShamirSecretSharring.sol\":380:389  threshold */\n      dup4\n        /* \"contracts/ShamirSecretSharring.sol\":380:402  threshold <= numShares */\n      gt\n      iszero\n        /* \"contracts/ShamirSecretSharring.sol\":363:402  threshold > 0 && threshold <= numShares */\n    tag_59:\n        /* \"contracts/ShamirSecretSharring.sol\":355:444  require(threshold > 0 && threshold <= numShares, \"Invalid threshold or number of shares\") */\n      tag_60\n      jumpi\n      mload(0x40)\n      0x08c379a000000000000000000000000000000000000000000000000000000000\n      dup2\n      mstore\n      0x04\n      add\n      tag_61\n      swap1\n      tag_62\n      jump\t// in\n    tag_61:\n      mload(0x40)\n      dup1\n      swap2\n      sub\n      swap1\n      revert\n    tag_60:\n        /* \"contracts/ShamirSecretSharring.sol\":463:486  uint256[] memory shares */\n      0x00\n        /* \"contracts/ShamirSecretSharring.sol\":503:512  numShares */\n      dup3\n        /* \"contracts/ShamirSecretSharring.sol\":489:513  new uint256[](numShares) */\n      0xffffffffffffffff\n      dup2\n      gt\n      iszero\n      tag_63\n      jumpi\n      tag_64\n      tag_65\n      jump\t// in\n    tag_64:\n    tag_63:\n      mload(0x40)\n      swap1\n      dup1\n      dup3\n      mstore\n      dup1\n      0x20\n      mul\n      0x20\n      add\n      dup3\n      add\n      0x40\n      mstore\n      dup1\n      iszero\n      tag_66\n      jumpi\n      dup2\n      0x20\n      add\n      0x20\n      dup3\n      mul\n      dup1\n      calldatasize\n      dup4\n      calldatacopy\n      dup1\n      dup3\n      add\n      swap2\n      pop\n      pop\n      swap1\n      pop\n    tag_66:\n      pop\n        /* \"contracts/ShamirSecretSharring.sol\":463:513  uint256[] memory shares = new uint256[](numShares) */\n      swap1\n      pop\n        /* \"contracts/ShamirSecretSharring.sol\":523:552  uint256[] memory coefficients */\n      0x00\n        /* \"contracts/ShamirSecretSharring.sol\":569:578  threshold */\n      dup5\n        /* \"contracts/ShamirSecretSharring.sol\":555:579  new uint256[](threshold) */\n      0xffffffffffffffff\n      dup2\n      gt\n      iszero\n      tag_67\n      jumpi\n      tag_68\n      tag_65\n      jump\t// in\n    tag_68:\n    tag_67:\n      mload(0x40)\n      swap1\n      dup1\n      dup3\n      mstore\n      dup1\n      0x20\n      mul\n      0x20\n      add\n      dup3\n      add\n      0x40\n      mstore\n      dup1\n      iszero\n      tag_69\n      jumpi\n      dup2\n      0x20\n      add\n      0x20\n      dup3\n      mul\n      dup1\n      calldatasize\n      dup4\n      calldatacopy\n      dup1\n      dup3\n      add\n      swap2\n      pop\n      pop\n      swap1\n      pop\n    tag_69:\n      pop\n        /* \"contracts/ShamirSecretSharring.sol\":523:579  uint256[] memory coefficients = new uint256[](threshold) */\n      swap1\n      pop\n        /* \"contracts/ShamirSecretSharring.sol\":616:622  secret */\n      dup6\n        /* \"contracts/ShamirSecretSharring.sol\":598:610  coefficients */\n      dup2\n        /* \"contracts/ShamirSecretSharring.sol\":611:612  0 */\n      0x00\n        /* \"contracts/ShamirSecretSharring.sol\":598:613  coefficients[0] */\n      dup2\n      mload\n      dup2\n      lt\n      tag_70\n      jumpi\n      tag_71\n      tag_31\n      jump\t// in\n    tag_71:\n    tag_70:\n      0x20\n      mul\n      0x20\n      add\n      add\n        /* \"contracts/ShamirSecretSharring.sol\":598:622  coefficients[0] = secret */\n      dup2\n      dup2\n      mstore\n      pop\n      pop\n        /* \"contracts/ShamirSecretSharring.sol\":749:758  uint256 i */\n      0x00\n        /* \"contracts/ShamirSecretSharring.sol\":761:762  1 */\n      0x01\n        /* \"contracts/ShamirSecretSharring.sol\":749:762  uint256 i = 1 */\n      swap1\n      pop\n        /* \"contracts/ShamirSecretSharring.sol\":744:874  for (uint256 i = 1; i < threshold; i++) {... */\n    tag_72:\n        /* \"contracts/ShamirSecretSharring.sol\":768:777  threshold */\n      dup6\n        /* \"contracts/ShamirSecretSharring.sol\":764:765  i */\n      dup2\n        /* \"contracts/ShamirSecretSharring.sol\":764:777  i < threshold */\n      lt\n        /* \"contracts/ShamirSecretSharring.sol\":744:874  for (uint256 i = 1; i < threshold; i++) {... */\n      iszero\n      tag_73\n      jumpi\n        /* \"contracts/ShamirSecretSharring.sol\":851:857  secret */\n      dup7\n        /* \"contracts/ShamirSecretSharring.sol\":859:860  i */\n      dup2\n        /* \"contracts/ShamirSecretSharring.sol\":834:861  abi.encodePacked(secret, i) */\n      add(0x20, mload(0x40))\n      tag_75\n      swap3\n      swap2\n      swap1\n      tag_76\n      jump\t// in\n    tag_75:\n      mload(0x40)\n      0x20\n      dup2\n      dup4\n      sub\n      sub\n      dup2\n      mstore\n      swap1\n      0x40\n      mstore\n        /* \"contracts/ShamirSecretSharring.sol\":824:862  keccak256(abi.encodePacked(secret, i)) */\n      dup1\n      mload\n      swap1\n      0x20\n      add\n      keccak256\n        /* \"contracts/ShamirSecretSharring.sol\":816:863  uint256(keccak256(abi.encodePacked(secret, i))) */\n      0x00\n      shr\n        /* \"contracts/ShamirSecretSharring.sol\":798:810  coefficients */\n      dup3\n        /* \"contracts/ShamirSecretSharring.sol\":811:812  i */\n      dup3\n        /* \"contracts/ShamirSecretSharring.sol\":798:813  coefficients[i] */\n      dup2\n      mload\n      dup2\n      lt\n      tag_77\n      jumpi\n      tag_78\n      tag_31\n      jump\t// in\n    tag_78:\n    tag_77:\n      0x20\n      mul\n      0x20\n      add\n      add\n        /* \"contracts/ShamirSecretSharring.sol\":798:863  coefficients[i] = uint256(keccak256(abi.encodePacked(secret, i))) */\n      dup2\n      dup2\n      mstore\n      pop\n      pop\n        /* \"contracts/ShamirSecretSharring.sol\":779:782  i++ */\n      dup1\n      dup1\n      0x01\n      add\n      swap2\n      pop\n      pop\n        /* \"contracts/ShamirSecretSharring.sol\":744:874  for (uint256 i = 1; i < threshold; i++) {... */\n      jump(tag_72)\n    tag_73:\n      pop\n        /* \"contracts/ShamirSecretSharring.sol\":974:983  uint256 j */\n      0x00\n        /* \"contracts/ShamirSecretSharring.sol\":969:1155  for (uint256 j = 0; j < numShares; j++) {... */\n    tag_79:\n        /* \"contracts/ShamirSecretSharring.sol\":993:1002  numShares */\n      dup5\n        /* \"contracts/ShamirSecretSharring.sol\":989:990  j */\n      dup2\n        /* \"contracts/ShamirSecretSharring.sol\":989:1002  j < numShares */\n      lt\n        /* \"contracts/ShamirSecretSharring.sol\":969:1155  for (uint256 j = 0; j < numShares; j++) {... */\n      iszero\n      tag_80\n      jumpi\n        /* \"contracts/ShamirSecretSharring.sol\":1023:1032  uint256 x */\n      0x00\n        /* \"contracts/ShamirSecretSharring.sol\":1039:1040  1 */\n      0x01\n        /* \"contracts/ShamirSecretSharring.sol\":1035:1036  j */\n      dup3\n        /* \"contracts/ShamirSecretSharring.sol\":1035:1040  j + 1 */\n      tag_82\n      swap2\n      swap1\n      tag_56\n      jump\t// in\n    tag_82:\n        /* \"contracts/ShamirSecretSharring.sol\":1023:1040  uint256 x = j + 1 */\n      swap1\n      pop\n        /* \"contracts/ShamirSecretSharring.sol\":1109:1144  evaluatePolynomial(coefficients, x) */\n      tag_83\n        /* \"contracts/ShamirSecretSharring.sol\":1128:1140  coefficients */\n      dup4\n        /* \"contracts/ShamirSecretSharring.sol\":1142:1143  x */\n      dup3\n        /* \"contracts/ShamirSecretSharring.sol\":1109:1127  evaluatePolynomial */\n      tag_84\n        /* \"contracts/ShamirSecretSharring.sol\":1109:1144  evaluatePolynomial(coefficients, x) */\n      jump\t// in\n    tag_83:\n        /* \"contracts/ShamirSecretSharring.sol\":1097:1103  shares */\n      dup5\n        /* \"contracts/ShamirSecretSharring.sol\":1104:1105  j */\n      dup4\n        /* \"contracts/ShamirSecretSharring.sol\":1097:1106  shares[j] */\n      dup2\n      mload\n      dup2\n      lt\n      tag_85\n      jumpi\n      tag_86\n      tag_31\n      jump\t// in\n    tag_86:\n    tag_85:\n      0x20\n      mul\n      0x20\n      add\n      add\n        /* \"contracts/ShamirSecretSharring.sol\":1097:1144  shares[j] = evaluatePolynomial(coefficients, x) */\n      dup2\n      dup2\n      mstore\n      pop\n      pop\n        /* \"contracts/ShamirSecretSharring.sol\":1009:1155  {... */\n      pop\n        /* \"contracts/ShamirSecretSharring.sol\":1004:1007  j++ */\n      dup1\n      dup1\n      0x01\n      add\n      swap2\n      pop\n      pop\n        /* \"contracts/ShamirSecretSharring.sol\":969:1155  for (uint256 j = 0; j < numShares; j++) {... */\n      jump(tag_79)\n    tag_80:\n      pop\n        /* \"contracts/ShamirSecretSharring.sol\":1180:1186  shares */\n      dup2\n        /* \"contracts/ShamirSecretSharring.sol\":1173:1186  return shares */\n      swap3\n      pop\n      pop\n      pop\n        /* \"contracts/ShamirSecretSharring.sol\":228:1193  function generateShares(uint256 secret, uint256 threshold, uint256 numShares) public pure returns (uint256[] memory) {... */\n      swap4\n      swap3\n      pop\n      pop\n      pop\n      jump\t// out\n        /* \"contracts/ShamirSecretSharring.sol\":92:202  uint256 constant public prime = 115792089237316195423570985008687907853269984665640564039457584007913129639747 */\n    tag_19:\n        /* \"contracts/ShamirSecretSharring.sol\":124:202  115792089237316195423570985008687907853269984665640564039457584007913129639747 */\n      0xffffffffffffffffffffffffffffffffffffffffffffffffffffffffffffff43\n        /* \"contracts/ShamirSecretSharring.sol\":92:202  uint256 constant public prime = 115792089237316195423570985008687907853269984665640564039457584007913129639747 */\n      dup2\n      jump\t// out\n        /* \"contracts/ShamirSecretSharring.sol\":2557:3087  function modInverse(uint256 a) internal pure returns (uint256) {... */\n    tag_52:\n        /* \"contracts/ShamirSecretSharring.sol\":2611:2618  uint256 */\n      0x00\n        /* \"contracts/ShamirSecretSharring.sol\":2630:2639  uint256 m */\n      dup1\n        /* \"contracts/ShamirSecretSharring.sol\":124:202  115792089237316195423570985008687907853269984665640564039457584007913129639747 */\n      0xffffffffffffffffffffffffffffffffffffffffffffffffffffffffffffff43\n        /* \"contracts/ShamirSecretSharring.sol\":2630:2647  uint256 m = prime */\n      swap1\n      pop\n        /* \"contracts/ShamirSecretSharring.sol\":2666:2667  0 */\n      0x00\n        /* \"contracts/ShamirSecretSharring.sol\":2661:2662  a */\n      dup4\n        /* \"contracts/ShamirSecretSharring.sol\":2661:2667  a == 0 */\n      eq\n        /* \"contracts/ShamirSecretSharring.sol\":2661:2677  a == 0 || a == 1 */\n      dup1\n      tag_88\n      jumpi\n      pop\n        /* \"contracts/ShamirSecretSharring.sol\":2676:2677  1 */\n      0x01\n        /* \"contracts/ShamirSecretSharring.sol\":2671:2672  a */\n      dup4\n        /* \"contracts/ShamirSecretSharring.sol\":2671:2677  a == 1 */\n      eq\n        /* \"contracts/ShamirSecretSharring.sol\":2661:2677  a == 0 || a == 1 */\n    tag_88:\n        /* \"contracts/ShamirSecretSharring.sol\":2657:2687  if (a == 0 || a == 1) return a */\n      iszero\n      tag_89\n      jumpi\n        /* \"contracts/ShamirSecretSharring.sol\":2686:2687  a */\n      dup3\n        /* \"contracts/ShamirSecretSharring.sol\":2679:2687  return a */\n      swap2\n      pop\n      pop\n      jump(tag_87)\n        /* \"contracts/ShamirSecretSharring.sol\":2657:2687  if (a == 0 || a == 1) return a */\n    tag_89:\n        /* \"contracts/ShamirSecretSharring.sol\":2697:2706  int256 m0 */\n      0x00\n        /* \"contracts/ShamirSecretSharring.sol\":2716:2717  m */\n      dup2\n        /* \"contracts/ShamirSecretSharring.sol\":2697:2718  int256 m0 = int256(m) */\n      swap1\n      pop\n        /* \"contracts/ShamirSecretSharring.sol\":2728:2737  int256 a0 */\n      0x00\n        /* \"contracts/ShamirSecretSharring.sol\":2747:2748  a */\n      dup5\n        /* \"contracts/ShamirSecretSharring.sol\":2728:2749  int256 a0 = int256(a) */\n      swap1\n      pop\n        /* \"contracts/ShamirSecretSharring.sol\":2759:2767  int256 y */\n      0x00\n        /* \"contracts/ShamirSecretSharring.sol\":2781:2789  int256 x */\n      dup1\n        /* \"contracts/ShamirSecretSharring.sol\":2792:2793  1 */\n      0x01\n        /* \"contracts/ShamirSecretSharring.sol\":2781:2793  int256 x = 1 */\n      swap1\n      pop\n        /* \"contracts/ShamirSecretSharring.sol\":2803:2999  while (a0 > 1) {... */\n    tag_90:\n        /* \"contracts/ShamirSecretSharring.sol\":2815:2816  1 */\n      0x01\n        /* \"contracts/ShamirSecretSharring.sol\":2810:2812  a0 */\n      dup4\n        /* \"contracts/ShamirSecretSharring.sol\":2810:2816  a0 > 1 */\n      sgt\n        /* \"contracts/ShamirSecretSharring.sol\":2803:2999  while (a0 > 1) {... */\n      iszero\n      tag_91\n      jumpi\n        /* \"contracts/ShamirSecretSharring.sol\":2832:2840  int256 q */\n      0x00\n        /* \"contracts/ShamirSecretSharring.sol\":2848:2850  m0 */\n      dup5\n        /* \"contracts/ShamirSecretSharring.sol\":2843:2845  a0 */\n      dup5\n        /* \"contracts/ShamirSecretSharring.sol\":2843:2850  a0 / m0 */\n      tag_92\n      swap2\n      swap1\n      tag_93\n      jump\t// in\n    tag_92:\n        /* \"contracts/ShamirSecretSharring.sol\":2832:2850  int256 q = a0 / m0 */\n      swap1\n      pop\n        /* \"contracts/ShamirSecretSharring.sol\":2864:2872  int256 t */\n      0x00\n        /* \"contracts/ShamirSecretSharring.sol\":2875:2877  m0 */\n      dup6\n        /* \"contracts/ShamirSecretSharring.sol\":2864:2877  int256 t = m0 */\n      swap1\n      pop\n        /* \"contracts/ShamirSecretSharring.sol\":2901:2903  m0 */\n      dup6\n        /* \"contracts/ShamirSecretSharring.sol\":2896:2898  a0 */\n      dup6\n        /* \"contracts/ShamirSecretSharring.sol\":2896:2903  a0 % m0 */\n      tag_94\n      swap2\n      swap1\n      tag_95\n      jump\t// in\n    tag_94:\n        /* \"contracts/ShamirSecretSharring.sol\":2891:2903  m0 = a0 % m0 */\n      swap6\n      pop\n        /* \"contracts/ShamirSecretSharring.sol\":2922:2923  t */\n      dup1\n        /* \"contracts/ShamirSecretSharring.sol\":2917:2923  a0 = t */\n      swap5\n      pop\n        /* \"contracts/ShamirSecretSharring.sol\":2941:2942  y */\n      dup4\n        /* \"contracts/ShamirSecretSharring.sol\":2937:2942  t = y */\n      swap1\n      pop\n        /* \"contracts/ShamirSecretSharring.sol\":2968:2969  y */\n      dup4\n        /* \"contracts/ShamirSecretSharring.sol\":2964:2965  q */\n      dup3\n        /* \"contracts/ShamirSecretSharring.sol\":2964:2969  q * y */\n      tag_96\n      swap2\n      swap1\n      tag_97\n      jump\t// in\n    tag_96:\n        /* \"contracts/ShamirSecretSharring.sol\":2960:2961  x */\n      dup4\n        /* \"contracts/ShamirSecretSharring.sol\":2960:2969  x - q * y */\n      tag_98\n      swap2\n      swap1\n      tag_99\n      jump\t// in\n    tag_98:\n        /* \"contracts/ShamirSecretSharring.sol\":2956:2969  y = x - q * y */\n      swap4\n      pop\n        /* \"contracts/ShamirSecretSharring.sol\":2987:2988  t */\n      dup1\n        /* \"contracts/ShamirSecretSharring.sol\":2983:2988  x = t */\n      swap3\n      pop\n        /* \"contracts/ShamirSecretSharring.sol\":2818:2999  {... */\n      pop\n      pop\n        /* \"contracts/ShamirSecretSharring.sol\":2803:2999  while (a0 > 1) {... */\n      jump(tag_90)\n    tag_91:\n        /* \"contracts/ShamirSecretSharring.sol\":3016:3017  0 */\n      0x00\n        /* \"contracts/ShamirSecretSharring.sol\":3012:3013  x */\n      dup2\n        /* \"contracts/ShamirSecretSharring.sol\":3012:3017  x < 0 */\n      slt\n        /* \"contracts/ShamirSecretSharring.sol\":3008:3033  if (x < 0) x += int256(m) */\n      iszero\n      tag_100\n      jumpi\n        /* \"contracts/ShamirSecretSharring.sol\":3031:3032  m */\n      dup5\n        /* \"contracts/ShamirSecretSharring.sol\":3019:3033  x += int256(m) */\n      dup2\n      tag_101\n      swap2\n      swap1\n      tag_102\n      jump\t// in\n    tag_101:\n      swap1\n      pop\n        /* \"contracts/ShamirSecretSharring.sol\":3008:3033  if (x < 0) x += int256(m) */\n    tag_100:\n        /* \"contracts/ShamirSecretSharring.sol\":3078:3079  x */\n      dup1\n        /* \"contracts/ShamirSecretSharring.sol\":3063:3080  return uint256(x) */\n      swap6\n      pop\n      pop\n      pop\n      pop\n      pop\n      pop\n        /* \"contracts/ShamirSecretSharring.sol\":2557:3087  function modInverse(uint256 a) internal pure returns (uint256) {... */\n    tag_87:\n      swap2\n      swap1\n      pop\n      jump\t// out\n        /* \"contracts/ShamirSecretSharring.sol\":1203:1675  function evaluatePolynomial(uint256[] memory coefficients, uint256 x) internal pure returns (uint256) {... */\n    tag_84:\n        /* \"contracts/ShamirSecretSharring.sol\":1296:1303  uint256 */\n      0x00\n        /* \"contracts/ShamirSecretSharring.sol\":1345:1346  0 */\n      dup1\n        /* \"contracts/ShamirSecretSharring.sol\":1323:1335  coefficients */\n      dup4\n        /* \"contracts/ShamirSecretSharring.sol\":1323:1342  coefficients.length */\n      mload\n        /* \"contracts/ShamirSecretSharring.sol\":1323:1346  coefficients.length > 0 */\n      gt\n        /* \"contracts/ShamirSecretSharring.sol\":1315:1375  require(coefficients.length > 0, \"No coefficients provided\") */\n      tag_104\n      jumpi\n      mload(0x40)\n      0x08c379a000000000000000000000000000000000000000000000000000000000\n      dup2\n      mstore\n      0x04\n      add\n      tag_105\n      swap1\n      tag_106\n      jump\t// in\n    tag_105:\n      mload(0x40)\n      dup1\n      swap2\n      sub\n      swap1\n      revert\n    tag_104:\n        /* \"contracts/ShamirSecretSharring.sol\":1394:1408  uint256 result */\n      0x00\n        /* \"contracts/ShamirSecretSharring.sol\":1422:1438  uint256 powerOfX */\n      dup1\n        /* \"contracts/ShamirSecretSharring.sol\":1441:1442  1 */\n      0x01\n        /* \"contracts/ShamirSecretSharring.sol\":1422:1442  uint256 powerOfX = 1 */\n      swap1\n      pop\n        /* \"contracts/ShamirSecretSharring.sol\":1466:1475  uint256 i */\n      0x00\n        /* \"contracts/ShamirSecretSharring.sol\":1461:1637  for (uint256 i = 0; i < coefficients.length; i++) {... */\n    tag_107:\n        /* \"contracts/ShamirSecretSharring.sol\":1485:1497  coefficients */\n      dup6\n        /* \"contracts/ShamirSecretSharring.sol\":1485:1504  coefficients.length */\n      mload\n        /* \"contracts/ShamirSecretSharring.sol\":1481:1482  i */\n      dup2\n        /* \"contracts/ShamirSecretSharring.sol\":1481:1504  i < coefficients.length */\n      lt\n        /* \"contracts/ShamirSecretSharring.sol\":1461:1637  for (uint256 i = 0; i < coefficients.length; i++) {... */\n      iszero\n      tag_108\n      jumpi\n        /* \"contracts/ShamirSecretSharring.sol\":124:202  115792089237316195423570985008687907853269984665640564039457584007913129639747 */\n      0xffffffffffffffffffffffffffffffffffffffffffffffffffffffffffffff43\n        /* \"contracts/ShamirSecretSharring.sol\":1562:1570  powerOfX */\n      dup3\n        /* \"contracts/ShamirSecretSharring.sol\":1544:1556  coefficients */\n      dup8\n        /* \"contracts/ShamirSecretSharring.sol\":1557:1558  i */\n      dup4\n        /* \"contracts/ShamirSecretSharring.sol\":1544:1559  coefficients[i] */\n      dup2\n      mload\n      dup2\n      lt\n      tag_110\n      jumpi\n      tag_111\n      tag_31\n      jump\t// in\n    tag_111:\n    tag_110:\n      0x20\n      mul\n      0x20\n      add\n      add\n      mload\n        /* \"contracts/ShamirSecretSharring.sol\":1544:1570  coefficients[i] * powerOfX */\n      tag_112\n      swap2\n      swap1\n      tag_41\n      jump\t// in\n    tag_112:\n        /* \"contracts/ShamirSecretSharring.sol\":1535:1541  result */\n      dup5\n        /* \"contracts/ShamirSecretSharring.sol\":1535:1570  result + coefficients[i] * powerOfX */\n      tag_113\n      swap2\n      swap1\n      tag_56\n      jump\t// in\n    tag_113:\n        /* \"contracts/ShamirSecretSharring.sol\":1534:1579  (result + coefficients[i] * powerOfX) % prime */\n      tag_114\n      swap2\n      swap1\n      tag_43\n      jump\t// in\n    tag_114:\n        /* \"contracts/ShamirSecretSharring.sol\":1525:1579  result = (result + coefficients[i] * powerOfX) % prime */\n      swap3\n      pop\n        /* \"contracts/ShamirSecretSharring.sol\":124:202  115792089237316195423570985008687907853269984665640564039457584007913129639747 */\n      0xffffffffffffffffffffffffffffffffffffffffffffffffffffffffffffff43\n        /* \"contracts/ShamirSecretSharring.sol\":1616:1617  x */\n      dup6\n        /* \"contracts/ShamirSecretSharring.sol\":1605:1613  powerOfX */\n      dup4\n        /* \"contracts/ShamirSecretSharring.sol\":1605:1617  powerOfX * x */\n      tag_115\n      swap2\n      swap1\n      tag_41\n      jump\t// in\n    tag_115:\n        /* \"contracts/ShamirSecretSharring.sol\":1604:1626  (powerOfX * x) % prime */\n      tag_116\n      swap2\n      swap1\n      tag_43\n      jump\t// in\n    tag_116:\n        /* \"contracts/ShamirSecretSharring.sol\":1593:1626  powerOfX = (powerOfX * x) % prime */\n      swap2\n      pop\n        /* \"contracts/ShamirSecretSharring.sol\":1506:1509  i++ */\n      dup1\n      dup1\n      0x01\n      add\n      swap2\n      pop\n      pop\n        /* \"contracts/ShamirSecretSharring.sol\":1461:1637  for (uint256 i = 0; i < coefficients.length; i++) {... */\n      jump(tag_107)\n    tag_108:\n      pop\n        /* \"contracts/ShamirSecretSharring.sol\":1662:1668  result */\n      dup2\n        /* \"contracts/ShamirSecretSharring.sol\":1655:1668  return result */\n      swap3\n      pop\n      pop\n      pop\n        /* \"contracts/ShamirSecretSharring.sol\":1203:1675  function evaluatePolynomial(uint256[] memory coefficients, uint256 x) internal pure returns (uint256) {... */\n      swap3\n      swap2\n      pop\n      pop\n      jump\t// out\n        /* \"#utility.yul\":7:82   */\n    tag_117:\n        /* \"#utility.yul\":40:46   */\n      0x00\n        /* \"#utility.yul\":73:75   */\n      0x40\n        /* \"#utility.yul\":67:76   */\n      mload\n        /* \"#utility.yul\":57:76   */\n      swap1\n      pop\n        /* \"#utility.yul\":7:82   */\n      swap1\n      jump\t// out\n        /* \"#utility.yul\":88:205   */\n    tag_118:\n        /* \"#utility.yul\":197:198   */\n      0x00\n        /* \"#utility.yul\":194:195   */\n      dup1\n        /* \"#utility.yul\":187:199   */\n      revert\n        /* \"#utility.yul\":211:328   */\n    tag_119:\n        /* \"#utility.yul\":320:321   */\n      0x00\n        /* \"#utility.yul\":317:318   */\n      dup1\n        /* \"#utility.yul\":310:322   */\n      revert\n        /* \"#utility.yul\":334:451   */\n    tag_120:\n        /* \"#utility.yul\":443:444   */\n      0x00\n        /* \"#utility.yul\":440:441   */\n      dup1\n        /* \"#utility.yul\":433:445   */\n      revert\n        /* \"#utility.yul\":457:559   */\n    tag_121:\n        /* \"#utility.yul\":498:504   */\n      0x00\n        /* \"#utility.yul\":549:551   */\n      0x1f\n        /* \"#utility.yul\":545:552   */\n      not\n        /* \"#utility.yul\":540:542   */\n      0x1f\n        /* \"#utility.yul\":533:538   */\n      dup4\n        /* \"#utility.yul\":529:543   */\n      add\n        /* \"#utility.yul\":525:553   */\n      and\n        /* \"#utility.yul\":515:553   */\n      swap1\n      pop\n        /* \"#utility.yul\":457:559   */\n      swap2\n      swap1\n      pop\n      jump\t// out\n        /* \"#utility.yul\":565:745   */\n    tag_65:\n        /* \"#utility.yul\":613:690   */\n      0x4e487b7100000000000000000000000000000000000000000000000000000000\n        /* \"#utility.yul\":610:611   */\n      0x00\n        /* \"#utility.yul\":603:691   */\n      mstore\n        /* \"#utility.yul\":710:714   */\n      0x41\n        /* \"#utility.yul\":707:708   */\n      0x04\n        /* \"#utility.yul\":700:715   */\n      mstore\n        /* \"#utility.yul\":734:738   */\n      0x24\n        /* \"#utility.yul\":731:732   */\n      0x00\n        /* \"#utility.yul\":724:739   */\n      revert\n        /* \"#utility.yul\":751:1032   */\n    tag_122:\n        /* \"#utility.yul\":834:861   */\n      tag_159\n        /* \"#utility.yul\":856:860   */\n      dup3\n        /* \"#utility.yul\":834:861   */\n      tag_121\n      jump\t// in\n    tag_159:\n        /* \"#utility.yul\":826:832   */\n      dup2\n        /* \"#utility.yul\":822:862   */\n      add\n        /* \"#utility.yul\":964:970   */\n      dup2\n        /* \"#utility.yul\":952:962   */\n      dup2\n        /* \"#utility.yul\":949:971   */\n      lt\n        /* \"#utility.yul\":928:946   */\n      0xffffffffffffffff\n        /* \"#utility.yul\":916:926   */\n      dup3\n        /* \"#utility.yul\":913:947   */\n      gt\n        /* \"#utility.yul\":910:972   */\n      or\n        /* \"#utility.yul\":907:995   */\n      iszero\n      tag_160\n      jumpi\n        /* \"#utility.yul\":975:993   */\n      tag_161\n      tag_65\n      jump\t// in\n    tag_161:\n        /* \"#utility.yul\":907:995   */\n    tag_160:\n        /* \"#utility.yul\":1015:1025   */\n      dup1\n        /* \"#utility.yul\":1011:1013   */\n      0x40\n        /* \"#utility.yul\":1004:1026   */\n      mstore\n        /* \"#utility.yul\":794:1032   */\n      pop\n        /* \"#utility.yul\":751:1032   */\n      pop\n      pop\n      jump\t// out\n        /* \"#utility.yul\":1038:1167   */\n    tag_123:\n        /* \"#utility.yul\":1072:1078   */\n      0x00\n        /* \"#utility.yul\":1099:1119   */\n      tag_163\n      tag_117\n      jump\t// in\n    tag_163:\n        /* \"#utility.yul\":1089:1119   */\n      swap1\n      pop\n        /* \"#utility.yul\":1128:1161   */\n      tag_164\n        /* \"#utility.yul\":1156:1160   */\n      dup3\n        /* \"#utility.yul\":1148:1154   */\n      dup3\n        /* \"#utility.yul\":1128:1161   */\n      tag_122\n      jump\t// in\n    tag_164:\n        /* \"#utility.yul\":1038:1167   */\n      swap2\n      swap1\n      pop\n      jump\t// out\n        /* \"#utility.yul\":1173:1484   */\n    tag_124:\n        /* \"#utility.yul\":1250:1254   */\n      0x00\n        /* \"#utility.yul\":1340:1358   */\n      0xffffffffffffffff\n        /* \"#utility.yul\":1332:1338   */\n      dup3\n        /* \"#utility.yul\":1329:1359   */\n      gt\n        /* \"#utility.yul\":1326:1382   */\n      iszero\n      tag_166\n      jumpi\n        /* \"#utility.yul\":1362:1380   */\n      tag_167\n      tag_65\n      jump\t// in\n    tag_167:\n        /* \"#utility.yul\":1326:1382   */\n    tag_166:\n        /* \"#utility.yul\":1412:1416   */\n      0x20\n        /* \"#utility.yul\":1404:1410   */\n      dup3\n        /* \"#utility.yul\":1400:1417   */\n      mul\n        /* \"#utility.yul\":1392:1417   */\n      swap1\n      pop\n        /* \"#utility.yul\":1472:1476   */\n      0x20\n        /* \"#utility.yul\":1466:1470   */\n      dup2\n        /* \"#utility.yul\":1462:1477   */\n      add\n        /* \"#utility.yul\":1454:1477   */\n      swap1\n      pop\n        /* \"#utility.yul\":1173:1484   */\n      swap2\n      swap1\n      pop\n      jump\t// out\n        /* \"#utility.yul\":1490:1607   */\n    tag_125:\n        /* \"#utility.yul\":1599:1600   */\n      0x00\n        /* \"#utility.yul\":1596:1597   */\n      dup1\n        /* \"#utility.yul\":1589:1601   */\n      revert\n        /* \"#utility.yul\":1613:1690   */\n    tag_126:\n        /* \"#utility.yul\":1650:1657   */\n      0x00\n        /* \"#utility.yul\":1679:1684   */\n      dup2\n        /* \"#utility.yul\":1668:1684   */\n      swap1\n      pop\n        /* \"#utility.yul\":1613:1690   */\n      swap2\n      swap1\n      pop\n      jump\t// out\n        /* \"#utility.yul\":1696:1818   */\n    tag_127:\n        /* \"#utility.yul\":1769:1793   */\n      tag_171\n        /* \"#utility.yul\":1787:1792   */\n      dup2\n        /* \"#utility.yul\":1769:1793   */\n      tag_126\n      jump\t// in\n    tag_171:\n        /* \"#utility.yul\":1762:1767   */\n      dup2\n        /* \"#utility.yul\":1759:1794   */\n      eq\n        /* \"#utility.yul\":1749:1812   */\n      tag_172\n      jumpi\n        /* \"#utility.yul\":1808:1809   */\n      0x00\n        /* \"#utility.yul\":1805:1806   */\n      dup1\n        /* \"#utility.yul\":1798:1810   */\n      revert\n        /* \"#utility.yul\":1749:1812   */\n    tag_172:\n        /* \"#utility.yul\":1696:1818   */\n      pop\n      jump\t// out\n        /* \"#utility.yul\":1824:1963   */\n    tag_128:\n        /* \"#utility.yul\":1870:1875   */\n      0x00\n        /* \"#utility.yul\":1908:1914   */\n      dup2\n        /* \"#utility.yul\":1895:1915   */\n      calldataload\n        /* \"#utility.yul\":1886:1915   */\n      swap1\n      pop\n        /* \"#utility.yul\":1924:1957   */\n      tag_174\n        /* \"#utility.yul\":1951:1956   */\n      dup2\n        /* \"#utility.yul\":1924:1957   */\n      tag_127\n      jump\t// in\n    tag_174:\n        /* \"#utility.yul\":1824:1963   */\n      swap3\n      swap2\n      pop\n      pop\n      jump\t// out\n        /* \"#utility.yul\":1986:2696   */\n    tag_129:\n        /* \"#utility.yul\":2082:2087   */\n      0x00\n        /* \"#utility.yul\":2107:2188   */\n      tag_176\n        /* \"#utility.yul\":2123:2187   */\n      tag_177\n        /* \"#utility.yul\":2180:2186   */\n      dup5\n        /* \"#utility.yul\":2123:2187   */\n      tag_124\n      jump\t// in\n    tag_177:\n        /* \"#utility.yul\":2107:2188   */\n      tag_123\n      jump\t// in\n    tag_176:\n        /* \"#utility.yul\":2098:2188   */\n      swap1\n      pop\n        /* \"#utility.yul\":2208:2213   */\n      dup1\n        /* \"#utility.yul\":2237:2243   */\n      dup4\n        /* \"#utility.yul\":2230:2235   */\n      dup3\n        /* \"#utility.yul\":2223:2244   */\n      mstore\n        /* \"#utility.yul\":2271:2275   */\n      0x20\n        /* \"#utility.yul\":2264:2269   */\n      dup3\n        /* \"#utility.yul\":2260:2276   */\n      add\n        /* \"#utility.yul\":2253:2276   */\n      swap1\n      pop\n        /* \"#utility.yul\":2324:2328   */\n      0x20\n        /* \"#utility.yul\":2316:2322   */\n      dup5\n        /* \"#utility.yul\":2312:2329   */\n      mul\n        /* \"#utility.yul\":2304:2310   */\n      dup4\n        /* \"#utility.yul\":2300:2330   */\n      add\n        /* \"#utility.yul\":2353:2356   */\n      dup6\n        /* \"#utility.yul\":2345:2351   */\n      dup2\n        /* \"#utility.yul\":2342:2357   */\n      gt\n        /* \"#utility.yul\":2339:2461   */\n      iszero\n      tag_178\n      jumpi\n        /* \"#utility.yul\":2372:2451   */\n      tag_179\n      tag_125\n      jump\t// in\n    tag_179:\n        /* \"#utility.yul\":2339:2461   */\n    tag_178:\n        /* \"#utility.yul\":2487:2493   */\n      dup4\n        /* \"#utility.yul\":2470:2690   */\n    tag_180:\n        /* \"#utility.yul\":2504:2510   */\n      dup2\n        /* \"#utility.yul\":2499:2502   */\n      dup2\n        /* \"#utility.yul\":2496:2511   */\n      lt\n        /* \"#utility.yul\":2470:2690   */\n      iszero\n      tag_182\n      jumpi\n        /* \"#utility.yul\":2579:2582   */\n      dup1\n        /* \"#utility.yul\":2608:2645   */\n      tag_183\n        /* \"#utility.yul\":2641:2644   */\n      dup9\n        /* \"#utility.yul\":2629:2639   */\n      dup3\n        /* \"#utility.yul\":2608:2645   */\n      tag_128\n      jump\t// in\n    tag_183:\n        /* \"#utility.yul\":2603:2606   */\n      dup5\n        /* \"#utility.yul\":2596:2646   */\n      mstore\n        /* \"#utility.yul\":2675:2679   */\n      0x20\n        /* \"#utility.yul\":2670:2673   */\n      dup5\n        /* \"#utility.yul\":2666:2680   */\n      add\n        /* \"#utility.yul\":2659:2680   */\n      swap4\n      pop\n        /* \"#utility.yul\":2546:2690   */\n      pop\n        /* \"#utility.yul\":2530:2534   */\n      0x20\n        /* \"#utility.yul\":2525:2528   */\n      dup2\n        /* \"#utility.yul\":2521:2535   */\n      add\n        /* \"#utility.yul\":2514:2535   */\n      swap1\n      pop\n        /* \"#utility.yul\":2470:2690   */\n      jump(tag_180)\n    tag_182:\n        /* \"#utility.yul\":2474:2495   */\n      pop\n        /* \"#utility.yul\":2088:2696   */\n      pop\n      pop\n        /* \"#utility.yul\":1986:2696   */\n      swap4\n      swap3\n      pop\n      pop\n      pop\n      jump\t// out\n        /* \"#utility.yul\":2719:3089   */\n    tag_130:\n        /* \"#utility.yul\":2790:2795   */\n      0x00\n        /* \"#utility.yul\":2839:2842   */\n      dup3\n        /* \"#utility.yul\":2832:2836   */\n      0x1f\n        /* \"#utility.yul\":2824:2830   */\n      dup4\n        /* \"#utility.yul\":2820:2837   */\n      add\n        /* \"#utility.yul\":2816:2843   */\n      slt\n        /* \"#utility.yul\":2806:2928   */\n      tag_185\n      jumpi\n        /* \"#utility.yul\":2847:2926   */\n      tag_186\n      tag_120\n      jump\t// in\n    tag_186:\n        /* \"#utility.yul\":2806:2928   */\n    tag_185:\n        /* \"#utility.yul\":2964:2970   */\n      dup2\n        /* \"#utility.yul\":2951:2971   */\n      calldataload\n        /* \"#utility.yul\":2989:3083   */\n      tag_187\n        /* \"#utility.yul\":3079:3082   */\n      dup5\n        /* \"#utility.yul\":3071:3077   */\n      dup3\n        /* \"#utility.yul\":3064:3068   */\n      0x20\n        /* \"#utility.yul\":3056:3062   */\n      dup7\n        /* \"#utility.yul\":3052:3069   */\n      add\n        /* \"#utility.yul\":2989:3083   */\n      tag_129\n      jump\t// in\n    tag_187:\n        /* \"#utility.yul\":2980:3083   */\n      swap2\n      pop\n        /* \"#utility.yul\":2796:3089   */\n      pop\n        /* \"#utility.yul\":2719:3089   */\n      swap3\n      swap2\n      pop\n      pop\n      jump\t// out\n        /* \"#utility.yul\":3095:3989   */\n    tag_8:\n        /* \"#utility.yul\":3213:3219   */\n      0x00\n        /* \"#utility.yul\":3221:3227   */\n      dup1\n        /* \"#utility.yul\":3270:3272   */\n      0x40\n        /* \"#utility.yul\":3258:3267   */\n      dup4\n        /* \"#utility.yul\":3249:3256   */\n      dup6\n        /* \"#utility.yul\":3245:3268   */\n      sub\n        /* \"#utility.yul\":3241:3273   */\n      slt\n        /* \"#utility.yul\":3238:3357   */\n      iszero\n      tag_189\n      jumpi\n        /* \"#utility.yul\":3276:3355   */\n      tag_190\n      tag_118\n      jump\t// in\n    tag_190:\n        /* \"#utility.yul\":3238:3357   */\n    tag_189:\n        /* \"#utility.yul\":3424:3425   */\n      0x00\n        /* \"#utility.yul\":3413:3422   */\n      dup4\n        /* \"#utility.yul\":3409:3426   */\n      add\n        /* \"#utility.yul\":3396:3427   */\n      calldataload\n        /* \"#utility.yul\":3454:3472   */\n      0xffffffffffffffff\n        /* \"#utility.yul\":3446:3452   */\n      dup2\n        /* \"#utility.yul\":3443:3473   */\n      gt\n        /* \"#utility.yul\":3440:3557   */\n      iszero\n      tag_191\n      jumpi\n        /* \"#utility.yul\":3476:3555   */\n      tag_192\n      tag_119\n      jump\t// in\n    tag_192:\n        /* \"#utility.yul\":3440:3557   */\n    tag_191:\n        /* \"#utility.yul\":3581:3659   */\n      tag_193\n        /* \"#utility.yul\":3651:3658   */\n      dup6\n        /* \"#utility.yul\":3642:3648   */\n      dup3\n        /* \"#utility.yul\":3631:3640   */\n      dup7\n        /* \"#utility.yul\":3627:3649   */\n      add\n        /* \"#utility.yul\":3581:3659   */\n      tag_130\n      jump\t// in\n    tag_193:\n        /* \"#utility.yul\":3571:3659   */\n      swap3\n      pop\n        /* \"#utility.yul\":3367:3669   */\n      pop\n        /* \"#utility.yul\":3736:3738   */\n      0x20\n        /* \"#utility.yul\":3725:3734   */\n      dup4\n        /* \"#utility.yul\":3721:3739   */\n      add\n        /* \"#utility.yul\":3708:3740   */\n      calldataload\n        /* \"#utility.yul\":3767:3785   */\n      0xffffffffffffffff\n        /* \"#utility.yul\":3759:3765   */\n      dup2\n        /* \"#utility.yul\":3756:3786   */\n      gt\n        /* \"#utility.yul\":3753:3870   */\n      iszero\n      tag_194\n      jumpi\n        /* \"#utility.yul\":3789:3868   */\n      tag_195\n      tag_119\n      jump\t// in\n    tag_195:\n        /* \"#utility.yul\":3753:3870   */\n    tag_194:\n        /* \"#utility.yul\":3894:3972   */\n      tag_196\n        /* \"#utility.yul\":3964:3971   */\n      dup6\n        /* \"#utility.yul\":3955:3961   */\n      dup3\n        /* \"#utility.yul\":3944:3953   */\n      dup7\n        /* \"#utility.yul\":3940:3962   */\n      add\n        /* \"#utility.yul\":3894:3972   */\n      tag_130\n      jump\t// in\n    tag_196:\n        /* \"#utility.yul\":3884:3972   */\n      swap2\n      pop\n        /* \"#utility.yul\":3679:3982   */\n      pop\n        /* \"#utility.yul\":3095:3989   */\n      swap3\n      pop\n      swap3\n      swap1\n      pop\n      jump\t// out\n        /* \"#utility.yul\":3995:4113   */\n    tag_131:\n        /* \"#utility.yul\":4082:4106   */\n      tag_198\n        /* \"#utility.yul\":4100:4105   */\n      dup2\n        /* \"#utility.yul\":4082:4106   */\n      tag_126\n      jump\t// in\n    tag_198:\n        /* \"#utility.yul\":4077:4080   */\n      dup3\n        /* \"#utility.yul\":4070:4107   */\n      mstore\n        /* \"#utility.yul\":3995:4113   */\n      pop\n      pop\n      jump\t// out\n        /* \"#utility.yul\":4119:4341   */\n    tag_11:\n        /* \"#utility.yul\":4212:4216   */\n      0x00\n        /* \"#utility.yul\":4250:4252   */\n      0x20\n        /* \"#utility.yul\":4239:4248   */\n      dup3\n        /* \"#utility.yul\":4235:4253   */\n      add\n        /* \"#utility.yul\":4227:4253   */\n      swap1\n      pop\n        /* \"#utility.yul\":4263:4334   */\n      tag_200\n        /* \"#utility.yul\":4331:4332   */\n      0x00\n        /* \"#utility.yul\":4320:4329   */\n      dup4\n        /* \"#utility.yul\":4316:4333   */\n      add\n        /* \"#utility.yul\":4307:4313   */\n      dup5\n        /* \"#utility.yul\":4263:4334   */\n      tag_131\n      jump\t// in\n    tag_200:\n        /* \"#utility.yul\":4119:4341   */\n      swap3\n      swap2\n      pop\n      pop\n      jump\t// out\n        /* \"#utility.yul\":4347:4966   */\n    tag_14:\n        /* \"#utility.yul\":4424:4430   */\n      0x00\n        /* \"#utility.yul\":4432:4438   */\n      dup1\n        /* \"#utility.yul\":4440:4446   */\n      0x00\n        /* \"#utility.yul\":4489:4491   */\n      0x60\n        /* \"#utility.yul\":4477:4486   */\n      dup5\n        /* \"#utility.yul\":4468:4475   */\n      dup7\n        /* \"#utility.yul\":4464:4487   */\n      sub\n        /* \"#utility.yul\":4460:4492   */\n      slt\n        /* \"#utility.yul\":4457:4576   */\n      iszero\n      tag_202\n      jumpi\n        /* \"#utility.yul\":4495:4574   */\n      tag_203\n      tag_118\n      jump\t// in\n    tag_203:\n        /* \"#utility.yul\":4457:4576   */\n    tag_202:\n        /* \"#utility.yul\":4615:4616   */\n      0x00\n        /* \"#utility.yul\":4640:4693   */\n      tag_204\n        /* \"#utility.yul\":4685:4692   */\n      dup7\n        /* \"#utility.yul\":4676:4682   */\n      dup3\n        /* \"#utility.yul\":4665:4674   */\n      dup8\n        /* \"#utility.yul\":4661:4683   */\n      add\n        /* \"#utility.yul\":4640:4693   */\n      tag_128\n      jump\t// in\n    tag_204:\n        /* \"#utility.yul\":4630:4693   */\n      swap4\n      pop\n        /* \"#utility.yul\":4586:4703   */\n      pop\n        /* \"#utility.yul\":4742:4744   */\n      0x20\n        /* \"#utility.yul\":4768:4821   */\n      tag_205\n        /* \"#utility.yul\":4813:4820   */\n      dup7\n        /* \"#utility.yul\":4804:4810   */\n      dup3\n        /* \"#utility.yul\":4793:4802   */\n      dup8\n        /* \"#utility.yul\":4789:4811   */\n      add\n        /* \"#utility.yul\":4768:4821   */\n      tag_128\n      jump\t// in\n    tag_205:\n        /* \"#utility.yul\":4758:4821   */\n      swap3\n      pop\n        /* \"#utility.yul\":4713:4831   */\n      pop\n        /* \"#utility.yul\":4870:4872   */\n      0x40\n        /* \"#utility.yul\":4896:4949   */\n      tag_206\n        /* \"#utility.yul\":4941:4948   */\n      dup7\n        /* \"#utility.yul\":4932:4938   */\n      dup3\n        /* \"#utility.yul\":4921:4930   */\n      dup8\n        /* \"#utility.yul\":4917:4939   */\n      add\n        /* \"#utility.yul\":4896:4949   */\n      tag_128\n      jump\t// in\n    tag_206:\n        /* \"#utility.yul\":4886:4949   */\n      swap2\n      pop\n        /* \"#utility.yul\":4841:4959   */\n      pop\n        /* \"#utility.yul\":4347:4966   */\n      swap3\n      pop\n      swap3\n      pop\n      swap3\n      jump\t// out\n        /* \"#utility.yul\":4972:5086   */\n    tag_132:\n        /* \"#utility.yul\":5039:5045   */\n      0x00\n        /* \"#utility.yul\":5073:5078   */\n      dup2\n        /* \"#utility.yul\":5067:5079   */\n      mload\n        /* \"#utility.yul\":5057:5079   */\n      swap1\n      pop\n        /* \"#utility.yul\":4972:5086   */\n      swap2\n      swap1\n      pop\n      jump\t// out\n        /* \"#utility.yul\":5092:5276   */\n    tag_133:\n        /* \"#utility.yul\":5191:5202   */\n      0x00\n        /* \"#utility.yul\":5225:5231   */\n      dup3\n        /* \"#utility.yul\":5220:5223   */\n      dup3\n        /* \"#utility.yul\":5213:5232   */\n      mstore\n        /* \"#utility.yul\":5265:5269   */\n      0x20\n        /* \"#utility.yul\":5260:5263   */\n      dup3\n        /* \"#utility.yul\":5256:5270   */\n      add\n        /* \"#utility.yul\":5241:5270   */\n      swap1\n      pop\n        /* \"#utility.yul\":5092:5276   */\n      swap3\n      swap2\n      pop\n      pop\n      jump\t// out\n        /* \"#utility.yul\":5282:5414   */\n    tag_134:\n        /* \"#utility.yul\":5349:5353   */\n      0x00\n        /* \"#utility.yul\":5372:5375   */\n      dup2\n        /* \"#utility.yul\":5364:5375   */\n      swap1\n      pop\n        /* \"#utility.yul\":5402:5406   */\n      0x20\n        /* \"#utility.yul\":5397:5400   */\n      dup3\n        /* \"#utility.yul\":5393:5407   */\n      add\n        /* \"#utility.yul\":5385:5407   */\n      swap1\n      pop\n        /* \"#utility.yul\":5282:5414   */\n      swap2\n      swap1\n      pop\n      jump\t// out\n        /* \"#utility.yul\":5420:5528   */\n    tag_135:\n        /* \"#utility.yul\":5497:5521   */\n      tag_211\n        /* \"#utility.yul\":5515:5520   */\n      dup2\n        /* \"#utility.yul\":5497:5521   */\n      tag_126\n      jump\t// in\n    tag_211:\n        /* \"#utility.yul\":5492:5495   */\n      dup3\n        /* \"#utility.yul\":5485:5522   */\n      mstore\n        /* \"#utility.yul\":5420:5528   */\n      pop\n      pop\n      jump\t// out\n        /* \"#utility.yul\":5534:5713   */\n    tag_136:\n        /* \"#utility.yul\":5603:5613   */\n      0x00\n        /* \"#utility.yul\":5624:5670   */\n      tag_213\n        /* \"#utility.yul\":5666:5669   */\n      dup4\n        /* \"#utility.yul\":5658:5664   */\n      dup4\n        /* \"#utility.yul\":5624:5670   */\n      tag_135\n      jump\t// in\n    tag_213:\n        /* \"#utility.yul\":5702:5706   */\n      0x20\n        /* \"#utility.yul\":5697:5700   */\n      dup4\n        /* \"#utility.yul\":5693:5707   */\n      add\n        /* \"#utility.yul\":5679:5707   */\n      swap1\n      pop\n        /* \"#utility.yul\":5534:5713   */\n      swap3\n      swap2\n      pop\n      pop\n      jump\t// out\n        /* \"#utility.yul\":5719:5832   */\n    tag_137:\n        /* \"#utility.yul\":5789:5793   */\n      0x00\n        /* \"#utility.yul\":5821:5825   */\n      0x20\n        /* \"#utility.yul\":5816:5819   */\n      dup3\n        /* \"#utility.yul\":5812:5826   */\n      add\n        /* \"#utility.yul\":5804:5826   */\n      swap1\n      pop\n        /* \"#utility.yul\":5719:5832   */\n      swap2\n      swap1\n      pop\n      jump\t// out\n        /* \"#utility.yul\":5868:6600   */\n    tag_138:\n        /* \"#utility.yul\":5987:5990   */\n      0x00\n        /* \"#utility.yul\":6016:6070   */\n      tag_216\n        /* \"#utility.yul\":6064:6069   */\n      dup3\n        /* \"#utility.yul\":6016:6070   */\n      tag_132\n      jump\t// in\n    tag_216:\n        /* \"#utility.yul\":6086:6172   */\n      tag_217\n        /* \"#utility.yul\":6165:6171   */\n      dup2\n        /* \"#utility.yul\":6160:6163   */\n      dup6\n        /* \"#utility.yul\":6086:6172   */\n      tag_133\n      jump\t// in\n    tag_217:\n        /* \"#utility.yul\":6079:6172   */\n      swap4\n      pop\n        /* \"#utility.yul\":6196:6252   */\n      tag_218\n        /* \"#utility.yul\":6246:6251   */\n      dup4\n        /* \"#utility.yul\":6196:6252   */\n      tag_134\n      jump\t// in\n    tag_218:\n        /* \"#utility.yul\":6275:6282   */\n      dup1\n        /* \"#utility.yul\":6306:6307   */\n      0x00\n        /* \"#utility.yul\":6291:6575   */\n    tag_219:\n        /* \"#utility.yul\":6316:6322   */\n      dup4\n        /* \"#utility.yul\":6313:6314   */\n      dup2\n        /* \"#utility.yul\":6310:6323   */\n      lt\n        /* \"#utility.yul\":6291:6575   */\n      iszero\n      tag_221\n      jumpi\n        /* \"#utility.yul\":6392:6398   */\n      dup2\n        /* \"#utility.yul\":6386:6399   */\n      mload\n        /* \"#utility.yul\":6419:6482   */\n      tag_222\n        /* \"#utility.yul\":6478:6481   */\n      dup9\n        /* \"#utility.yul\":6463:6476   */\n      dup3\n        /* \"#utility.yul\":6419:6482   */\n      tag_136\n      jump\t// in\n    tag_222:\n        /* \"#utility.yul\":6412:6482   */\n      swap8\n      pop\n        /* \"#utility.yul\":6505:6565   */\n      tag_223\n        /* \"#utility.yul\":6558:6564   */\n      dup4\n        /* \"#utility.yul\":6505:6565   */\n      tag_137\n      jump\t// in\n    tag_223:\n        /* \"#utility.yul\":6495:6565   */\n      swap3\n      pop\n        /* \"#utility.yul\":6351:6575   */\n      pop\n        /* \"#utility.yul\":6338:6339   */\n      0x01\n        /* \"#utility.yul\":6335:6336   */\n      dup2\n        /* \"#utility.yul\":6331:6340   */\n      add\n        /* \"#utility.yul\":6326:6340   */\n      swap1\n      pop\n        /* \"#utility.yul\":6291:6575   */\n      jump(tag_219)\n    tag_221:\n        /* \"#utility.yul\":6295:6309   */\n      pop\n        /* \"#utility.yul\":6591:6594   */\n      dup6\n        /* \"#utility.yul\":6584:6594   */\n      swap4\n      pop\n        /* \"#utility.yul\":5992:6600   */\n      pop\n      pop\n      pop\n        /* \"#utility.yul\":5868:6600   */\n      swap3\n      swap2\n      pop\n      pop\n      jump\t// out\n        /* \"#utility.yul\":6606:6979   */\n    tag_17:\n        /* \"#utility.yul\":6749:6753   */\n      0x00\n        /* \"#utility.yul\":6787:6789   */\n      0x20\n        /* \"#utility.yul\":6776:6785   */\n      dup3\n        /* \"#utility.yul\":6772:6790   */\n      add\n        /* \"#utility.yul\":6764:6790   */\n      swap1\n      pop\n        /* \"#utility.yul\":6836:6845   */\n      dup2\n        /* \"#utility.yul\":6830:6834   */\n      dup2\n        /* \"#utility.yul\":6826:6846   */\n      sub\n        /* \"#utility.yul\":6822:6823   */\n      0x00\n        /* \"#utility.yul\":6811:6820   */\n      dup4\n        /* \"#utility.yul\":6807:6824   */\n      add\n        /* \"#utility.yul\":6800:6847   */\n      mstore\n        /* \"#utility.yul\":6864:6972   */\n      tag_225\n        /* \"#utility.yul\":6967:6971   */\n      dup2\n        /* \"#utility.yul\":6958:6964   */\n      dup5\n        /* \"#utility.yul\":6864:6972   */\n      tag_138\n      jump\t// in\n    tag_225:\n        /* \"#utility.yul\":6856:6972   */\n      swap1\n      pop\n        /* \"#utility.yul\":6606:6979   */\n      swap3\n      swap2\n      pop\n      pop\n      jump\t// out\n        /* \"#utility.yul\":6985:7154   */\n    tag_139:\n        /* \"#utility.yul\":7069:7080   */\n      0x00\n        /* \"#utility.yul\":7103:7109   */\n      dup3\n        /* \"#utility.yul\":7098:7101   */\n      dup3\n        /* \"#utility.yul\":7091:7110   */\n      mstore\n        /* \"#utility.yul\":7143:7147   */\n      0x20\n        /* \"#utility.yul\":7138:7141   */\n      dup3\n        /* \"#utility.yul\":7134:7148   */\n      add\n        /* \"#utility.yul\":7119:7148   */\n      swap1\n      pop\n        /* \"#utility.yul\":6985:7154   */\n      swap3\n      swap2\n      pop\n      pop\n      jump\t// out\n        /* \"#utility.yul\":7160:7323   */\n    tag_140:\n        /* \"#utility.yul\":7300:7315   */\n      0x496e76616c696420696e70757400000000000000000000000000000000000000\n        /* \"#utility.yul\":7296:7297   */\n      0x00\n        /* \"#utility.yul\":7288:7294   */\n      dup3\n        /* \"#utility.yul\":7284:7298   */\n      add\n        /* \"#utility.yul\":7277:7316   */\n      mstore\n        /* \"#utility.yul\":7160:7323   */\n      pop\n      jump\t// out\n        /* \"#utility.yul\":7329:7695   */\n    tag_141:\n        /* \"#utility.yul\":7471:7474   */\n      0x00\n        /* \"#utility.yul\":7492:7559   */\n      tag_229\n        /* \"#utility.yul\":7556:7558   */\n      0x0d\n        /* \"#utility.yul\":7551:7554   */\n      dup4\n        /* \"#utility.yul\":7492:7559   */\n      tag_139\n      jump\t// in\n    tag_229:\n        /* \"#utility.yul\":7485:7559   */\n      swap2\n      pop\n        /* \"#utility.yul\":7568:7661   */\n      tag_230\n        /* \"#utility.yul\":7657:7660   */\n      dup3\n        /* \"#utility.yul\":7568:7661   */\n      tag_140\n      jump\t// in\n    tag_230:\n        /* \"#utility.yul\":7686:7688   */\n      0x20\n        /* \"#utility.yul\":7681:7684   */\n      dup3\n        /* \"#utility.yul\":7677:7689   */\n      add\n        /* \"#utility.yul\":7670:7689   */\n      swap1\n      pop\n        /* \"#utility.yul\":7329:7695   */\n      swap2\n      swap1\n      pop\n      jump\t// out\n        /* \"#utility.yul\":7701:8120   */\n    tag_25:\n        /* \"#utility.yul\":7867:7871   */\n      0x00\n        /* \"#utility.yul\":7905:7907   */\n      0x20\n        /* \"#utility.yul\":7894:7903   */\n      dup3\n        /* \"#utility.yul\":7890:7908   */\n      add\n        /* \"#utility.yul\":7882:7908   */\n      swap1\n      pop\n        /* \"#utility.yul\":7954:7963   */\n      dup2\n        /* \"#utility.yul\":7948:7952   */\n      dup2\n        /* \"#utility.yul\":7944:7964   */\n      sub\n        /* \"#utility.yul\":7940:7941   */\n      0x00\n        /* \"#utility.yul\":7929:7938   */\n      dup4\n        /* \"#utility.yul\":7925:7942   */\n      add\n        /* \"#utility.yul\":7918:7965   */\n      mstore\n        /* \"#utility.yul\":7982:8113   */\n      tag_232\n        /* \"#utility.yul\":8108:8112   */\n      dup2\n        /* \"#utility.yul\":7982:8113   */\n      tag_141\n      jump\t// in\n    tag_232:\n        /* \"#utility.yul\":7974:8113   */\n      swap1\n      pop\n        /* \"#utility.yul\":7701:8120   */\n      swap2\n      swap1\n      pop\n      jump\t// out\n        /* \"#utility.yul\":8126:8306   */\n    tag_31:\n        /* \"#utility.yul\":8174:8251   */\n      0x4e487b7100000000000000000000000000000000000000000000000000000000\n        /* \"#utility.yul\":8171:8172   */\n      0x00\n        /* \"#utility.yul\":8164:8252   */\n      mstore\n        /* \"#utility.yul\":8271:8275   */\n      0x32\n        /* \"#utility.yul\":8268:8269   */\n      0x04\n        /* \"#utility.yul\":8261:8276   */\n      mstore\n        /* \"#utility.yul\":8295:8299   */\n      0x24\n        /* \"#utility.yul\":8292:8293   */\n      0x00\n        /* \"#utility.yul\":8285:8300   */\n      revert\n        /* \"#utility.yul\":8312:8492   */\n    tag_142:\n        /* \"#utility.yul\":8360:8437   */\n      0x4e487b7100000000000000000000000000000000000000000000000000000000\n        /* \"#utility.yul\":8357:8358   */\n      0x00\n        /* \"#utility.yul\":8350:8438   */\n      mstore\n        /* \"#utility.yul\":8457:8461   */\n      0x11\n        /* \"#utility.yul\":8454:8455   */\n      0x04\n        /* \"#utility.yul\":8447:8462   */\n      mstore\n        /* \"#utility.yul\":8481:8485   */\n      0x24\n        /* \"#utility.yul\":8478:8479   */\n      0x00\n        /* \"#utility.yul\":8471:8486   */\n      revert\n        /* \"#utility.yul\":8498:8692   */\n    tag_39:\n        /* \"#utility.yul\":8538:8542   */\n      0x00\n        /* \"#utility.yul\":8558:8578   */\n      tag_236\n        /* \"#utility.yul\":8576:8577   */\n      dup3\n        /* \"#utility.yul\":8558:8578   */\n      tag_126\n      jump\t// in\n    tag_236:\n        /* \"#utility.yul\":8553:8578   */\n      swap2\n      pop\n        /* \"#utility.yul\":8592:8612   */\n      tag_237\n        /* \"#utility.yul\":8610:8611   */\n      dup4\n        /* \"#utility.yul\":8592:8612   */\n      tag_126\n      jump\t// in\n    tag_237:\n        /* \"#utility.yul\":8587:8612   */\n      swap3\n      pop\n        /* \"#utility.yul\":8636:8637   */\n      dup3\n        /* \"#utility.yul\":8633:8634   */\n      dup3\n        /* \"#utility.yul\":8629:8638   */\n      sub\n        /* \"#utility.yul\":8621:8638   */\n      swap1\n      pop\n        /* \"#utility.yul\":8660:8661   */\n      dup2\n        /* \"#utility.yul\":8654:8658   */\n      dup2\n        /* \"#utility.yul\":8651:8662   */\n      gt\n        /* \"#utility.yul\":8648:8685   */\n      iszero\n      tag_238\n      jumpi\n        /* \"#utility.yul\":8665:8683   */\n      tag_239\n      tag_142\n      jump\t// in\n    tag_239:\n        /* \"#utility.yul\":8648:8685   */\n    tag_238:\n        /* \"#utility.yul\":8498:8692   */\n      swap3\n      swap2\n      pop\n      pop\n      jump\t// out\n        /* \"#utility.yul\":8698:9108   */\n    tag_41:\n        /* \"#utility.yul\":8738:8745   */\n      0x00\n        /* \"#utility.yul\":8761:8781   */\n      tag_241\n        /* \"#utility.yul\":8779:8780   */\n      dup3\n        /* \"#utility.yul\":8761:8781   */\n      tag_126\n      jump\t// in\n    tag_241:\n        /* \"#utility.yul\":8756:8781   */\n      swap2\n      pop\n        /* \"#utility.yul\":8795:8815   */\n      tag_242\n        /* \"#utility.yul\":8813:8814   */\n      dup4\n        /* \"#utility.yul\":8795:8815   */\n      tag_126\n      jump\t// in\n    tag_242:\n        /* \"#utility.yul\":8790:8815   */\n      swap3\n      pop\n        /* \"#utility.yul\":8850:8851   */\n      dup3\n        /* \"#utility.yul\":8847:8848   */\n      dup3\n        /* \"#utility.yul\":8843:8852   */\n      mul\n        /* \"#utility.yul\":8872:8902   */\n      tag_243\n        /* \"#utility.yul\":8890:8901   */\n      dup2\n        /* \"#utility.yul\":8872:8902   */\n      tag_126\n      jump\t// in\n    tag_243:\n        /* \"#utility.yul\":8861:8902   */\n      swap2\n      pop\n        /* \"#utility.yul\":9051:9052   */\n      dup3\n        /* \"#utility.yul\":9042:9049   */\n      dup3\n        /* \"#utility.yul\":9038:9053   */\n      div\n        /* \"#utility.yul\":9035:9036   */\n      dup5\n        /* \"#utility.yul\":9032:9054   */\n      eq\n        /* \"#utility.yul\":9012:9013   */\n      dup4\n        /* \"#utility.yul\":9005:9014   */\n      iszero\n        /* \"#utility.yul\":8985:9068   */\n      or\n        /* \"#utility.yul\":8962:9101   */\n      tag_244\n      jumpi\n        /* \"#utility.yul\":9081:9099   */\n      tag_245\n      tag_142\n      jump\t// in\n    tag_245:\n        /* \"#utility.yul\":8962:9101   */\n    tag_244:\n        /* \"#utility.yul\":8746:9108   */\n      pop\n        /* \"#utility.yul\":8698:9108   */\n      swap3\n      swap2\n      pop\n      pop\n      jump\t// out\n        /* \"#utility.yul\":9114:9294   */\n    tag_143:\n        /* \"#utility.yul\":9162:9239   */\n      0x4e487b7100000000000000000000000000000000000000000000000000000000\n        /* \"#utility.yul\":9159:9160   */\n      0x00\n        /* \"#utility.yul\":9152:9240   */\n      mstore\n        /* \"#utility.yul\":9259:9263   */\n      0x12\n        /* \"#utility.yul\":9256:9257   */\n      0x04\n        /* \"#utility.yul\":9249:9264   */\n      mstore\n        /* \"#utility.yul\":9283:9287   */\n      0x24\n        /* \"#utility.yul\":9280:9281   */\n      0x00\n        /* \"#utility.yul\":9273:9288   */\n      revert\n        /* \"#utility.yul\":9300:9476   */\n    tag_43:\n        /* \"#utility.yul\":9332:9333   */\n      0x00\n        /* \"#utility.yul\":9349:9369   */\n      tag_248\n        /* \"#utility.yul\":9367:9368   */\n      dup3\n        /* \"#utility.yul\":9349:9369   */\n      tag_126\n      jump\t// in\n    tag_248:\n        /* \"#utility.yul\":9344:9369   */\n      swap2\n      pop\n        /* \"#utility.yul\":9383:9403   */\n      tag_249\n        /* \"#utility.yul\":9401:9402   */\n      dup4\n        /* \"#utility.yul\":9383:9403   */\n      tag_126\n      jump\t// in\n    tag_249:\n        /* \"#utility.yul\":9378:9403   */\n      swap3\n      pop\n        /* \"#utility.yul\":9422:9423   */\n      dup3\n        /* \"#utility.yul\":9412:9447   */\n      tag_250\n      jumpi\n        /* \"#utility.yul\":9427:9445   */\n      tag_251\n      tag_143\n      jump\t// in\n    tag_251:\n        /* \"#utility.yul\":9412:9447   */\n    tag_250:\n        /* \"#utility.yul\":9468:9469   */\n      dup3\n        /* \"#utility.yul\":9465:9466   */\n      dup3\n        /* \"#utility.yul\":9461:9470   */\n      mod\n        /* \"#utility.yul\":9456:9470   */\n      swap1\n      pop\n        /* \"#utility.yul\":9300:9476   */\n      swap3\n      swap2\n      pop\n      pop\n      jump\t// out\n        /* \"#utility.yul\":9482:9673   */\n    tag_56:\n        /* \"#utility.yul\":9522:9525   */\n      0x00\n        /* \"#utility.yul\":9541:9561   */\n      tag_253\n        /* \"#utility.yul\":9559:9560   */\n      dup3\n        /* \"#utility.yul\":9541:9561   */\n      tag_126\n      jump\t// in\n    tag_253:\n        /* \"#utility.yul\":9536:9561   */\n      swap2\n      pop\n        /* \"#utility.yul\":9575:9595   */\n      tag_254\n        /* \"#utility.yul\":9593:9594   */\n      dup4\n        /* \"#utility.yul\":9575:9595   */\n      tag_126\n      jump\t// in\n    tag_254:\n        /* \"#utility.yul\":9570:9595   */\n      swap3\n      pop\n        /* \"#utility.yul\":9618:9619   */\n      dup3\n        /* \"#utility.yul\":9615:9616   */\n      dup3\n        /* \"#utility.yul\":9611:9620   */\n      add\n        /* \"#utility.yul\":9604:9620   */\n      swap1\n      pop\n        /* \"#utility.yul\":9639:9642   */\n      dup1\n        /* \"#utility.yul\":9636:9637   */\n      dup3\n        /* \"#utility.yul\":9633:9643   */\n      gt\n        /* \"#utility.yul\":9630:9666   */\n      iszero\n      tag_255\n      jumpi\n        /* \"#utility.yul\":9646:9664   */\n      tag_256\n      tag_142\n      jump\t// in\n    tag_256:\n        /* \"#utility.yul\":9630:9666   */\n    tag_255:\n        /* \"#utility.yul\":9482:9673   */\n      swap3\n      swap2\n      pop\n      pop\n      jump\t// out\n        /* \"#utility.yul\":9679:9903   */\n    tag_144:\n        /* \"#utility.yul\":9819:9853   */\n      0x496e76616c6964207468726573686f6c64206f72206e756d626572206f662073\n        /* \"#utility.yul\":9815:9816   */\n      0x00\n        /* \"#utility.yul\":9807:9813   */\n      dup3\n        /* \"#utility.yul\":9803:9817   */\n      add\n        /* \"#utility.yul\":9796:9854   */\n      mstore\n        /* \"#utility.yul\":9888:9895   */\n      0x6861726573000000000000000000000000000000000000000000000000000000\n        /* \"#utility.yul\":9883:9885   */\n      0x20\n        /* \"#utility.yul\":9875:9881   */\n      dup3\n        /* \"#utility.yul\":9871:9886   */\n      add\n        /* \"#utility.yul\":9864:9896   */\n      mstore\n        /* \"#utility.yul\":9679:9903   */\n      pop\n      jump\t// out\n        /* \"#utility.yul\":9909:10275   */\n    tag_145:\n        /* \"#utility.yul\":10051:10054   */\n      0x00\n        /* \"#utility.yul\":10072:10139   */\n      tag_259\n        /* \"#utility.yul\":10136:10138   */\n      0x25\n        /* \"#utility.yul\":10131:10134   */\n      dup4\n        /* \"#utility.yul\":10072:10139   */\n      tag_139\n      jump\t// in\n    tag_259:\n        /* \"#utility.yul\":10065:10139   */\n      swap2\n      pop\n        /* \"#utility.yul\":10148:10241   */\n      tag_260\n        /* \"#utility.yul\":10237:10240   */\n      dup3\n        /* \"#utility.yul\":10148:10241   */\n      tag_144\n      jump\t// in\n    tag_260:\n        /* \"#utility.yul\":10266:10268   */\n      0x40\n        /* \"#utility.yul\":10261:10264   */\n      dup3\n        /* \"#utility.yul\":10257:10269   */\n      add\n        /* \"#utility.yul\":10250:10269   */\n      swap1\n      pop\n        /* \"#utility.yul\":9909:10275   */\n      swap2\n      swap1\n      pop\n      jump\t// out\n        /* \"#utility.yul\":10281:10700   */\n    tag_62:\n        /* \"#utility.yul\":10447:10451   */\n      0x00\n        /* \"#utility.yul\":10485:10487   */\n      0x20\n        /* \"#utility.yul\":10474:10483   */\n      dup3\n        /* \"#utility.yul\":10470:10488   */\n      add\n        /* \"#utility.yul\":10462:10488   */\n      swap1\n      pop\n        /* \"#utility.yul\":10534:10543   */\n      dup2\n        /* \"#utility.yul\":10528:10532   */\n      dup2\n        /* \"#utility.yul\":10524:10544   */\n      sub\n        /* \"#utility.yul\":10520:10521   */\n      0x00\n        /* \"#utility.yul\":10509:10518   */\n      dup4\n        /* \"#utility.yul\":10505:10522   */\n      add\n        /* \"#utility.yul\":10498:10545   */\n      mstore\n        /* \"#utility.yul\":10562:10693   */\n      tag_262\n        /* \"#utility.yul\":10688:10692   */\n      dup2\n        /* \"#utility.yul\":10562:10693   */\n      tag_145\n      jump\t// in\n    tag_262:\n        /* \"#utility.yul\":10554:10693   */\n      swap1\n      pop\n        /* \"#utility.yul\":10281:10700   */\n      swap2\n      swap1\n      pop\n      jump\t// out\n        /* \"#utility.yul\":10706:10785   */\n    tag_146:\n        /* \"#utility.yul\":10745:10752   */\n      0x00\n        /* \"#utility.yul\":10774:10779   */\n      dup2\n        /* \"#utility.yul\":10763:10779   */\n      swap1\n      pop\n        /* \"#utility.yul\":10706:10785   */\n      swap2\n      swap1\n      pop\n      jump\t// out\n        /* \"#utility.yul\":10791:10948   */\n    tag_147:\n        /* \"#utility.yul\":10896:10941   */\n      tag_265\n        /* \"#utility.yul\":10916:10940   */\n      tag_266\n        /* \"#utility.yul\":10934:10939   */\n      dup3\n        /* \"#utility.yul\":10916:10940   */\n      tag_126\n      jump\t// in\n    tag_266:\n        /* \"#utility.yul\":10896:10941   */\n      tag_146\n      jump\t// in\n    tag_265:\n        /* \"#utility.yul\":10891:10894   */\n      dup3\n        /* \"#utility.yul\":10884:10942   */\n      mstore\n        /* \"#utility.yul\":10791:10948   */\n      pop\n      pop\n      jump\t// out\n        /* \"#utility.yul\":10954:11351   */\n    tag_76:\n        /* \"#utility.yul\":11094:11097   */\n      0x00\n        /* \"#utility.yul\":11109:11184   */\n      tag_268\n        /* \"#utility.yul\":11180:11183   */\n      dup3\n        /* \"#utility.yul\":11171:11177   */\n      dup6\n        /* \"#utility.yul\":11109:11184   */\n      tag_147\n      jump\t// in\n    tag_268:\n        /* \"#utility.yul\":11209:11211   */\n      0x20\n        /* \"#utility.yul\":11204:11207   */\n      dup3\n        /* \"#utility.yul\":11200:11212   */\n      add\n        /* \"#utility.yul\":11193:11212   */\n      swap2\n      pop\n        /* \"#utility.yul\":11222:11297   */\n      tag_269\n        /* \"#utility.yul\":11293:11296   */\n      dup3\n        /* \"#utility.yul\":11284:11290   */\n      dup5\n        /* \"#utility.yul\":11222:11297   */\n      tag_147\n      jump\t// in\n    tag_269:\n        /* \"#utility.yul\":11322:11324   */\n      0x20\n        /* \"#utility.yul\":11317:11320   */\n      dup3\n        /* \"#utility.yul\":11313:11325   */\n      add\n        /* \"#utility.yul\":11306:11325   */\n      swap2\n      pop\n        /* \"#utility.yul\":11342:11345   */\n      dup2\n        /* \"#utility.yul\":11335:11345   */\n      swap1\n      pop\n        /* \"#utility.yul\":10954:11351   */\n      swap4\n      swap3\n      pop\n      pop\n      pop\n      jump\t// out\n        /* \"#utility.yul\":11357:11433   */\n    tag_148:\n        /* \"#utility.yul\":11393:11400   */\n      0x00\n        /* \"#utility.yul\":11422:11427   */\n      dup2\n        /* \"#utility.yul\":11411:11427   */\n      swap1\n      pop\n        /* \"#utility.yul\":11357:11433   */\n      swap2\n      swap1\n      pop\n      jump\t// out\n        /* \"#utility.yul\":11439:11824   */\n    tag_93:\n        /* \"#utility.yul\":11478:11479   */\n      0x00\n        /* \"#utility.yul\":11495:11514   */\n      tag_272\n        /* \"#utility.yul\":11512:11513   */\n      dup3\n        /* \"#utility.yul\":11495:11514   */\n      tag_148\n      jump\t// in\n    tag_272:\n        /* \"#utility.yul\":11490:11514   */\n      swap2\n      pop\n        /* \"#utility.yul\":11528:11547   */\n      tag_273\n        /* \"#utility.yul\":11545:11546   */\n      dup4\n        /* \"#utility.yul\":11528:11547   */\n      tag_148\n      jump\t// in\n    tag_273:\n        /* \"#utility.yul\":11523:11547   */\n      swap3\n      pop\n        /* \"#utility.yul\":11566:11567   */\n      dup3\n        /* \"#utility.yul\":11556:11591   */\n      tag_274\n      jumpi\n        /* \"#utility.yul\":11571:11589   */\n      tag_275\n      tag_143\n      jump\t// in\n    tag_275:\n        /* \"#utility.yul\":11556:11591   */\n    tag_274:\n        /* \"#utility.yul\":11757:11758   */\n      0x01\n        /* \"#utility.yul\":11754:11755   */\n      0x00\n        /* \"#utility.yul\":11750:11759   */\n      sub\n        /* \"#utility.yul\":11747:11748   */\n      dup4\n        /* \"#utility.yul\":11744:11760   */\n      eq\n        /* \"#utility.yul\":11663:11729   */\n      0x8000000000000000000000000000000000000000000000000000000000000000\n        /* \"#utility.yul\":11660:11661   */\n      dup4\n        /* \"#utility.yul\":11657:11730   */\n      eq\n        /* \"#utility.yul\":11640:11770   */\n      and\n        /* \"#utility.yul\":11637:11793   */\n      iszero\n      tag_276\n      jumpi\n        /* \"#utility.yul\":11773:11791   */\n      tag_277\n      tag_142\n      jump\t// in\n    tag_277:\n        /* \"#utility.yul\":11637:11793   */\n    tag_276:\n        /* \"#utility.yul\":11816:11817   */\n      dup3\n        /* \"#utility.yul\":11813:11814   */\n      dup3\n        /* \"#utility.yul\":11808:11818   */\n      sdiv\n        /* \"#utility.yul\":11803:11818   */\n      swap1\n      pop\n        /* \"#utility.yul\":11439:11824   */\n      swap3\n      swap2\n      pop\n      pop\n      jump\t// out\n        /* \"#utility.yul\":11830:12004   */\n    tag_95:\n        /* \"#utility.yul\":11861:11862   */\n      0x00\n        /* \"#utility.yul\":11878:11897   */\n      tag_279\n        /* \"#utility.yul\":11895:11896   */\n      dup3\n        /* \"#utility.yul\":11878:11897   */\n      tag_148\n      jump\t// in\n    tag_279:\n        /* \"#utility.yul\":11873:11897   */\n      swap2\n      pop\n        /* \"#utility.yul\":11911:11930   */\n      tag_280\n        /* \"#utility.yul\":11928:11929   */\n      dup4\n        /* \"#utility.yul\":11911:11930   */\n      tag_148\n      jump\t// in\n    tag_280:\n        /* \"#utility.yul\":11906:11930   */\n      swap3\n      pop\n        /* \"#utility.yul\":11949:11950   */\n      dup3\n        /* \"#utility.yul\":11939:11974   */\n      tag_281\n      jumpi\n        /* \"#utility.yul\":11954:11972   */\n      tag_282\n      tag_143\n      jump\t// in\n    tag_282:\n        /* \"#utility.yul\":11939:11974   */\n    tag_281:\n        /* \"#utility.yul\":11996:11997   */\n      dup3\n        /* \"#utility.yul\":11993:11994   */\n      dup3\n        /* \"#utility.yul\":11988:11998   */\n      smod\n        /* \"#utility.yul\":11983:11998   */\n      swap1\n      pop\n        /* \"#utility.yul\":11830:12004   */\n      swap3\n      swap2\n      pop\n      pop\n      jump\t// out\n        /* \"#utility.yul\":12010:12566   */\n    tag_97:\n        /* \"#utility.yul\":12049:12056   */\n      0x00\n        /* \"#utility.yul\":12072:12091   */\n      tag_284\n        /* \"#utility.yul\":12089:12090   */\n      dup3\n        /* \"#utility.yul\":12072:12091   */\n      tag_148\n      jump\t// in\n    tag_284:\n        /* \"#utility.yul\":12067:12091   */\n      swap2\n      pop\n        /* \"#utility.yul\":12105:12124   */\n      tag_285\n        /* \"#utility.yul\":12122:12123   */\n      dup4\n        /* \"#utility.yul\":12105:12124   */\n      tag_148\n      jump\t// in\n    tag_285:\n        /* \"#utility.yul\":12100:12124   */\n      swap3\n      pop\n        /* \"#utility.yul\":12159:12160   */\n      dup3\n        /* \"#utility.yul\":12156:12157   */\n      dup3\n        /* \"#utility.yul\":12152:12161   */\n      mul\n        /* \"#utility.yul\":12181:12210   */\n      tag_286\n        /* \"#utility.yul\":12198:12209   */\n      dup2\n        /* \"#utility.yul\":12181:12210   */\n      tag_148\n      jump\t// in\n    tag_286:\n        /* \"#utility.yul\":12170:12210   */\n      swap2\n      pop\n        /* \"#utility.yul\":12268:12334   */\n      0x8000000000000000000000000000000000000000000000000000000000000000\n        /* \"#utility.yul\":12265:12266   */\n      dup5\n        /* \"#utility.yul\":12262:12335   */\n      eq\n        /* \"#utility.yul\":12258:12259   */\n      0x00\n        /* \"#utility.yul\":12255:12256   */\n      dup5\n        /* \"#utility.yul\":12251:12260   */\n      slt\n        /* \"#utility.yul\":12247:12336   */\n      and\n        /* \"#utility.yul\":12244:12359   */\n      iszero\n      tag_287\n      jumpi\n        /* \"#utility.yul\":12339:12357   */\n      tag_288\n      tag_142\n      jump\t// in\n    tag_288:\n        /* \"#utility.yul\":12244:12359   */\n    tag_287:\n        /* \"#utility.yul\":12509:12510   */\n      dup3\n        /* \"#utility.yul\":12500:12507   */\n      dup3\n        /* \"#utility.yul\":12495:12511   */\n      sdiv\n        /* \"#utility.yul\":12492:12493   */\n      dup5\n        /* \"#utility.yul\":12489:12512   */\n      eq\n        /* \"#utility.yul\":12469:12470   */\n      dup4\n        /* \"#utility.yul\":12462:12471   */\n      iszero\n        /* \"#utility.yul\":12442:12526   */\n      or\n        /* \"#utility.yul\":12419:12559   */\n      tag_289\n      jumpi\n        /* \"#utility.yul\":12539:12557   */\n      tag_290\n      tag_142\n      jump\t// in\n    tag_290:\n        /* \"#utility.yul\":12419:12559   */\n    tag_289:\n        /* \"#utility.yul\":12057:12566   */\n      pop\n        /* \"#utility.yul\":12010:12566   */\n      swap3\n      swap2\n      pop\n      pop\n      jump\t// out\n        /* \"#utility.yul\":12572:12944   */\n    tag_99:\n        /* \"#utility.yul\":12611:12615   */\n      0x00\n        /* \"#utility.yul\":12631:12650   */\n      tag_292\n        /* \"#utility.yul\":12648:12649   */\n      dup3\n        /* \"#utility.yul\":12631:12650   */\n      tag_148\n      jump\t// in\n    tag_292:\n        /* \"#utility.yul\":12626:12650   */\n      swap2\n      pop\n        /* \"#utility.yul\":12664:12683   */\n      tag_293\n        /* \"#utility.yul\":12681:12682   */\n      dup4\n        /* \"#utility.yul\":12664:12683   */\n      tag_148\n      jump\t// in\n    tag_293:\n        /* \"#utility.yul\":12659:12683   */\n      swap3\n      pop\n        /* \"#utility.yul\":12707:12708   */\n      dup3\n        /* \"#utility.yul\":12704:12705   */\n      dup3\n        /* \"#utility.yul\":12700:12709   */\n      sub\n        /* \"#utility.yul\":12692:12709   */\n      swap1\n      pop\n        /* \"#utility.yul\":12901:12902   */\n      dup2\n        /* \"#utility.yul\":12895:12899   */\n      dup2\n        /* \"#utility.yul\":12891:12903   */\n      slt\n        /* \"#utility.yul\":12887:12888   */\n      0x00\n        /* \"#utility.yul\":12884:12885   */\n      dup5\n        /* \"#utility.yul\":12880:12889   */\n      slt\n        /* \"#utility.yul\":12876:12904   */\n      and\n        /* \"#utility.yul\":12859:12860   */\n      dup3\n        /* \"#utility.yul\":12853:12857   */\n      dup3\n        /* \"#utility.yul\":12849:12861   */\n      sgt\n        /* \"#utility.yul\":12844:12845   */\n      0x00\n        /* \"#utility.yul\":12841:12842   */\n      dup6\n        /* \"#utility.yul\":12837:12846   */\n      slt\n        /* \"#utility.yul\":12830:12847   */\n      iszero\n        /* \"#utility.yul\":12826:12862   */\n      and\n        /* \"#utility.yul\":12810:12914   */\n      or\n        /* \"#utility.yul\":12807:12937   */\n      iszero\n      tag_294\n      jumpi\n        /* \"#utility.yul\":12917:12935   */\n      tag_295\n      tag_142\n      jump\t// in\n    tag_295:\n        /* \"#utility.yul\":12807:12937   */\n    tag_294:\n        /* \"#utility.yul\":12572:12944   */\n      swap3\n      swap2\n      pop\n      pop\n      jump\t// out\n        /* \"#utility.yul\":12950:13325   */\n    tag_102:\n        /* \"#utility.yul\":12989:12992   */\n      0x00\n        /* \"#utility.yul\":13008:13027   */\n      tag_297\n        /* \"#utility.yul\":13025:13026   */\n      dup3\n        /* \"#utility.yul\":13008:13027   */\n      tag_148\n      jump\t// in\n    tag_297:\n        /* \"#utility.yul\":13003:13027   */\n      swap2\n      pop\n        /* \"#utility.yul\":13041:13060   */\n      tag_298\n        /* \"#utility.yul\":13058:13059   */\n      dup4\n        /* \"#utility.yul\":13041:13060   */\n      tag_148\n      jump\t// in\n    tag_298:\n        /* \"#utility.yul\":13036:13060   */\n      swap3\n      pop\n        /* \"#utility.yul\":13083:13084   */\n      dup3\n        /* \"#utility.yul\":13080:13081   */\n      dup3\n        /* \"#utility.yul\":13076:13085   */\n      add\n        /* \"#utility.yul\":13069:13085   */\n      swap1\n      pop\n        /* \"#utility.yul\":13281:13282   */\n      dup3\n        /* \"#utility.yul\":13276:13279   */\n      dup2\n        /* \"#utility.yul\":13272:13283   */\n      slt\n        /* \"#utility.yul\":13265:13284   */\n      iszero\n        /* \"#utility.yul\":13261:13262   */\n      0x00\n        /* \"#utility.yul\":13258:13259   */\n      dup4\n        /* \"#utility.yul\":13254:13263   */\n      slt\n        /* \"#utility.yul\":13250:13285   */\n      and\n        /* \"#utility.yul\":13233:13234   */\n      dup4\n        /* \"#utility.yul\":13228:13231   */\n      dup3\n        /* \"#utility.yul\":13224:13235   */\n      slt\n        /* \"#utility.yul\":13219:13220   */\n      0x00\n        /* \"#utility.yul\":13216:13217   */\n      dup5\n        /* \"#utility.yul\":13212:13221   */\n      slt\n        /* \"#utility.yul\":13205:13222   */\n      iszero\n        /* \"#utility.yul\":13201:13236   */\n      and\n        /* \"#utility.yul\":13185:13295   */\n      or\n        /* \"#utility.yul\":13182:13318   */\n      iszero\n      tag_299\n      jumpi\n        /* \"#utility.yul\":13298:13316   */\n      tag_300\n      tag_142\n      jump\t// in\n    tag_300:\n        /* \"#utility.yul\":13182:13318   */\n    tag_299:\n        /* \"#utility.yul\":12950:13325   */\n      swap3\n      swap2\n      pop\n      pop\n      jump\t// out\n        /* \"#utility.yul\":13331:13505   */\n    tag_149:\n        /* \"#utility.yul\":13471:13497   */\n      0x4e6f20636f656666696369656e74732070726f76696465640000000000000000\n        /* \"#utility.yul\":13467:13468   */\n      0x00\n        /* \"#utility.yul\":13459:13465   */\n      dup3\n        /* \"#utility.yul\":13455:13469   */\n      add\n        /* \"#utility.yul\":13448:13498   */\n      mstore\n        /* \"#utility.yul\":13331:13505   */\n      pop\n      jump\t// out\n        /* \"#utility.yul\":13511:13877   */\n    tag_150:\n        /* \"#utility.yul\":13653:13656   */\n      0x00\n        /* \"#utility.yul\":13674:13741   */\n      tag_303\n        /* \"#utility.yul\":13738:13740   */\n      0x18\n        /* \"#utility.yul\":13733:13736   */\n      dup4\n        /* \"#utility.yul\":13674:13741   */\n      tag_139\n      jump\t// in\n    tag_303:\n        /* \"#utility.yul\":13667:13741   */\n      swap2\n      pop\n        /* \"#utility.yul\":13750:13843   */\n      tag_304\n        /* \"#utility.yul\":13839:13842   */\n      dup3\n        /* \"#utility.yul\":13750:13843   */\n      tag_149\n      jump\t// in\n    tag_304:\n        /* \"#utility.yul\":13868:13870   */\n      0x20\n        /* \"#utility.yul\":13863:13866   */\n      dup3\n        /* \"#utility.yul\":13859:13871   */\n      add\n        /* \"#utility.yul\":13852:13871   */\n      swap1\n      pop\n        /* \"#utility.yul\":13511:13877   */\n      swap2\n      swap1\n      pop\n      jump\t// out\n        /* \"#utility.yul\":13883:14302   */\n    tag_106:\n        /* \"#utility.yul\":14049:14053   */\n      0x00\n        /* \"#utility.yul\":14087:14089   */\n      0x20\n        /* \"#utility.yul\":14076:14085   */\n      dup3\n        /* \"#utility.yul\":14072:14090   */\n      add\n        /* \"#utility.yul\":14064:14090   */\n      swap1\n      pop\n        /* \"#utility.yul\":14136:14145   */\n      dup2\n        /* \"#utility.yul\":14130:14134   */\n      dup2\n        /* \"#utility.yul\":14126:14146   */\n      sub\n        /* \"#utility.yul\":14122:14123   */\n      0x00\n        /* \"#utility.yul\":14111:14120   */\n      dup4\n        /* \"#utility.yul\":14107:14124   */\n      add\n        /* \"#utility.yul\":14100:14147   */\n      mstore\n        /* \"#utility.yul\":14164:14295   */\n      tag_306\n        /* \"#utility.yul\":14290:14294   */\n      dup2\n        /* \"#utility.yul\":14164:14295   */\n      tag_150\n      jump\t// in\n    tag_306:\n        /* \"#utility.yul\":14156:14295   */\n      swap1\n      pop\n        /* \"#utility.yul\":13883:14302   */\n      swap2\n      swap1\n      pop\n      jump\t// out\n\n    auxdata: 0xa264697066735822122093a0113e0a4570a0317ed14c81e325a7b25f24d553f4772a24cc37f0227aa64364736f6c63430008180033\n}\n",
				"bytecode": {
					"linkReferences": {},
					"object": "608060405234801561000f575f80fd5b50610eea8061001d5f395ff3fe608060405234801561000f575f80fd5b506004361061003f575f3560e01c80633943074014610043578063b4df6f0014610073578063c7ee005e146100a3575b5f80fd5b61005d60048036038101906100589190610840565b6100c1565b60405161006a91906108c5565b60405180910390f35b61008d600480360381019061008891906108de565b6102ef565b60405161009a91906109e5565b60405180910390f35b6100ab6104bb565b6040516100b891906108c5565b60405180910390f35b5f815183511480156100d357505f8351115b610112576040517f08c379a000000000000000000000000000000000000000000000000000000000815260040161010990610a5f565b60405180910390fd5b5f805b84518110156102e4575f85828151811061013257610131610a7d565b5b602002602001015190505f600190505f5b8751811015610258578084031561024b577fffffffffffffffffffffffffffffffffffffffffffffffffffffffffffffff4387828151811061018857610187610a7d565b5b60200260200101517fffffffffffffffffffffffffffffffffffffffffffffffffffffffffffffff436101bb9190610ad7565b846101c69190610b0a565b6101d09190610b78565b92507fffffffffffffffffffffffffffffffffffffffffffffffffffffffffffffff4387828151811061020657610205610a7d565b5b602002602001015188868151811061022157610220610a7d565b5b60200260200101516102339190610ad7565b8361023e9190610b0a565b6102489190610b78565b91505b8080600101915050610143565b505f7fffffffffffffffffffffffffffffffffffffffffffffffffffffffffffffff4383610285846104df565b61028f9190610b0a565b6102999190610b78565b90507fffffffffffffffffffffffffffffffffffffffffffffffffffffffffffffff4381866102c89190610ba8565b6102d29190610b78565b94505050508080600101915050610115565b508091505092915050565b60605f831180156103005750818311155b61033f576040517f08c379a000000000000000000000000000000000000000000000000000000000815260040161033690610c4b565b60405180910390fd5b5f8267ffffffffffffffff81111561035a576103596106d1565b5b6040519080825280602002602001820160405280156103885781602001602082028036833780820191505090505b5090505f8467ffffffffffffffff8111156103a6576103a56106d1565b5b6040519080825280602002602001820160405280156103d45781602001602082028036833780820191505090505b50905085815f815181106103eb576103ea610a7d565b5b6020026020010181815250505f600190505b8581101561045c578681604051602001610418929190610c89565b604051602081830303815290604052805190602001205f1c82828151811061044357610442610a7d565b5b60200260200101818152505080806001019150506103fd565b505f5b848110156104ae575f6001826104759190610ba8565b905061048183826105a7565b84838151811061049457610493610a7d565b5b60200260200101818152505050808060010191505061045f565b5081925050509392505050565b7fffffffffffffffffffffffffffffffffffffffffffffffffffffffffffffff4381565b5f807fffffffffffffffffffffffffffffffffffffffffffffffffffffffffffffff4390505f8314806105125750600183145b1561052057829150506105a2565b5f8190505f8490505f80600190505b6001831315610582575f84846105459190610cbd565b90505f85905085856105579190610d25565b9550809450839050838261056b9190610d55565b836105769190610dcb565b9350809250505061052f565b5f8112156105995784816105969190610e0b565b90505b80955050505050505b919050565b5f808351116105eb576040517f08c379a00000000000000000000000000000000000000000000000000000000081526004016105e290610e96565b60405180910390fd5b5f80600190505f5b85518110156106a0577fffffffffffffffffffffffffffffffffffffffffffffffffffffffffffffff438287838151811061063157610630610a7d565b5b60200260200101516106439190610b0a565b8461064e9190610ba8565b6106589190610b78565b92507fffffffffffffffffffffffffffffffffffffffffffffffffffffffffffffff4385836106879190610b0a565b6106919190610b78565b915080806001019150506105f3565b50819250505092915050565b5f604051905090565b5f80fd5b5f80fd5b5f80fd5b5f601f19601f8301169050919050565b7f4e487b71000000000000000000000000000000000000000000000000000000005f52604160045260245ffd5b610707826106c1565b810181811067ffffffffffffffff82111715610726576107256106d1565b5b80604052505050565b5f6107386106ac565b905061074482826106fe565b919050565b5f67ffffffffffffffff821115610763576107626106d1565b5b602082029050602081019050919050565b5f80fd5b5f819050919050565b61078a81610778565b8114610794575f80fd5b50565b5f813590506107a581610781565b92915050565b5f6107bd6107b884610749565b61072f565b905080838252602082019050602084028301858111156107e0576107df610774565b5b835b8181101561080957806107f58882610797565b8452602084019350506020810190506107e2565b5050509392505050565b5f82601f830112610827576108266106bd565b5b81356108378482602086016107ab565b91505092915050565b5f8060408385031215610856576108556106b5565b5b5f83013567ffffffffffffffff811115610873576108726106b9565b5b61087f85828601610813565b925050602083013567ffffffffffffffff8111156108a05761089f6106b9565b5b6108ac85828601610813565b9150509250929050565b6108bf81610778565b82525050565b5f6020820190506108d85f8301846108b6565b92915050565b5f805f606084860312156108f5576108f46106b5565b5b5f61090286828701610797565b935050602061091386828701610797565b925050604061092486828701610797565b9150509250925092565b5f81519050919050565b5f82825260208201905092915050565b5f819050602082019050919050565b61096081610778565b82525050565b5f6109718383610957565b60208301905092915050565b5f602082019050919050565b5f6109938261092e565b61099d8185610938565b93506109a883610948565b805f5b838110156109d85781516109bf8882610966565b97506109ca8361097d565b9250506001810190506109ab565b5085935050505092915050565b5f6020820190508181035f8301526109fd8184610989565b905092915050565b5f82825260208201905092915050565b7f496e76616c696420696e707574000000000000000000000000000000000000005f82015250565b5f610a49600d83610a05565b9150610a5482610a15565b602082019050919050565b5f6020820190508181035f830152610a7681610a3d565b9050919050565b7f4e487b71000000000000000000000000000000000000000000000000000000005f52603260045260245ffd5b7f4e487b71000000000000000000000000000000000000000000000000000000005f52601160045260245ffd5b5f610ae182610778565b9150610aec83610778565b9250828203905081811115610b0457610b03610aaa565b5b92915050565b5f610b1482610778565b9150610b1f83610778565b9250828202610b2d81610778565b91508282048414831517610b4457610b43610aaa565b5b5092915050565b7f4e487b71000000000000000000000000000000000000000000000000000000005f52601260045260245ffd5b5f610b8282610778565b9150610b8d83610778565b925082610b9d57610b9c610b4b565b5b828206905092915050565b5f610bb282610778565b9150610bbd83610778565b9250828201905080821115610bd557610bd4610aaa565b5b92915050565b7f496e76616c6964207468726573686f6c64206f72206e756d626572206f6620735f8201527f6861726573000000000000000000000000000000000000000000000000000000602082015250565b5f610c35602583610a05565b9150610c4082610bdb565b604082019050919050565b5f6020820190508181035f830152610c6281610c29565b9050919050565b5f819050919050565b610c83610c7e82610778565b610c69565b82525050565b5f610c948285610c72565b602082019150610ca48284610c72565b6020820191508190509392505050565b5f819050919050565b5f610cc782610cb4565b9150610cd283610cb4565b925082610ce257610ce1610b4b565b5b60015f0383147f800000000000000000000000000000000000000000000000000000000000000083141615610d1a57610d19610aaa565b5b828205905092915050565b5f610d2f82610cb4565b9150610d3a83610cb4565b925082610d4a57610d49610b4b565b5b828207905092915050565b5f610d5f82610cb4565b9150610d6a83610cb4565b9250828202610d7881610cb4565b91507f800000000000000000000000000000000000000000000000000000000000000084145f84121615610daf57610dae610aaa565b5b8282058414831517610dc457610dc3610aaa565b5b5092915050565b5f610dd582610cb4565b9150610de083610cb4565b925082820390508181125f8412168282135f851215161715610e0557610e04610aaa565b5b92915050565b5f610e1582610cb4565b9150610e2083610cb4565b92508282019050828112155f8312168382125f841215161715610e4657610e45610aaa565b5b92915050565b7f4e6f20636f656666696369656e74732070726f766964656400000000000000005f82015250565b5f610e80601883610a05565b9150610e8b82610e4c565b602082019050919050565b5f6020820190508181035f830152610ead81610e74565b905091905056fea264697066735822122093a0113e0a4570a0317ed14c81e325a7b25f24d553f4772a24cc37f0227aa64364736f6c63430008180033",
					"opcodes": "PUSH1 0x80 PUSH1 0x40 MSTORE CALLVALUE DUP1 ISZERO PUSH2 0xF JUMPI PUSH0 DUP1 REVERT JUMPDEST POP PUSH2 0xEEA DUP1 PUSH2 0x1D PUSH0 CODECOPY PUSH0 RETURN INVALID PUSH1 0x80 PUSH1 0x40 MSTORE CALLVALUE DUP1 ISZERO PUSH2 0xF JUMPI PUSH0 DUP1 REVERT JUMPDEST POP PUSH1 0x4 CALLDATASIZE LT PUSH2 0x3F JUMPI PUSH0 CALLDATALOAD PUSH1 0xE0 SHR DUP1 PUSH4 0x39430740 EQ PUSH2 0x43 JUMPI DUP1 PUSH4 0xB4DF6F00 EQ PUSH2 0x73 JUMPI DUP1 PUSH4 0xC7EE005E EQ PUSH2 0xA3 JUMPI JUMPDEST PUSH0 DUP1 REVERT JUMPDEST PUSH2 0x5D PUSH1 0x4 DUP1 CALLDATASIZE SUB DUP2 ADD SWAP1 PUSH2 0x58 SWAP2 SWAP1 PUSH2 0x840 JUMP JUMPDEST PUSH2 0xC1 JUMP JUMPDEST PUSH1 0x40 MLOAD PUSH2 0x6A SWAP2 SWAP1 PUSH2 0x8C5 JUMP JUMPDEST PUSH1 0x40 MLOAD DUP1 SWAP2 SUB SWAP1 RETURN JUMPDEST PUSH2 0x8D PUSH1 0x4 DUP1 CALLDATASIZE SUB DUP2 ADD SWAP1 PUSH2 0x88 SWAP2 SWAP1 PUSH2 0x8DE JUMP JUMPDEST PUSH2 0x2EF JUMP JUMPDEST PUSH1 0x40 MLOAD PUSH2 0x9A SWAP2 SWAP1 PUSH2 0x9E5 JUMP JUMPDEST PUSH1 0x40 MLOAD DUP1 SWAP2 SUB SWAP1 RETURN JUMPDEST PUSH2 0xAB PUSH2 0x4BB JUMP JUMPDEST PUSH1 0x40 MLOAD PUSH2 0xB8 SWAP2 SWAP1 PUSH2 0x8C5 JUMP JUMPDEST PUSH1 0x40 MLOAD DUP1 SWAP2 SUB SWAP1 RETURN JUMPDEST PUSH0 DUP2 MLOAD DUP4 MLOAD EQ DUP1 ISZERO PUSH2 0xD3 JUMPI POP PUSH0 DUP4 MLOAD GT JUMPDEST PUSH2 0x112 JUMPI PUSH1 0x40 MLOAD PUSH32 0x8C379A000000000000000000000000000000000000000000000000000000000 DUP2 MSTORE PUSH1 0x4 ADD PUSH2 0x109 SWAP1 PUSH2 0xA5F JUMP JUMPDEST PUSH1 0x40 MLOAD DUP1 SWAP2 SUB SWAP1 REVERT JUMPDEST PUSH0 DUP1 JUMPDEST DUP5 MLOAD DUP2 LT ISZERO PUSH2 0x2E4 JUMPI PUSH0 DUP6 DUP3 DUP2 MLOAD DUP2 LT PUSH2 0x132 JUMPI PUSH2 0x131 PUSH2 0xA7D JUMP JUMPDEST JUMPDEST PUSH1 0x20 MUL PUSH1 0x20 ADD ADD MLOAD SWAP1 POP PUSH0 PUSH1 0x1 SWAP1 POP PUSH0 JUMPDEST DUP8 MLOAD DUP2 LT ISZERO PUSH2 0x258 JUMPI DUP1 DUP5 SUB ISZERO PUSH2 0x24B JUMPI PUSH32 0xFFFFFFFFFFFFFFFFFFFFFFFFFFFFFFFFFFFFFFFFFFFFFFFFFFFFFFFFFFFFFF43 DUP8 DUP3 DUP2 MLOAD DUP2 LT PUSH2 0x188 JUMPI PUSH2 0x187 PUSH2 0xA7D JUMP JUMPDEST JUMPDEST PUSH1 0x20 MUL PUSH1 0x20 ADD ADD MLOAD PUSH32 0xFFFFFFFFFFFFFFFFFFFFFFFFFFFFFFFFFFFFFFFFFFFFFFFFFFFFFFFFFFFFFF43 PUSH2 0x1BB SWAP2 SWAP1 PUSH2 0xAD7 JUMP JUMPDEST DUP5 PUSH2 0x1C6 SWAP2 SWAP1 PUSH2 0xB0A JUMP JUMPDEST PUSH2 0x1D0 SWAP2 SWAP1 PUSH2 0xB78 JUMP JUMPDEST SWAP3 POP PUSH32 0xFFFFFFFFFFFFFFFFFFFFFFFFFFFFFFFFFFFFFFFFFFFFFFFFFFFFFFFFFFFFFF43 DUP8 DUP3 DUP2 MLOAD DUP2 LT PUSH2 0x206 JUMPI PUSH2 0x205 PUSH2 0xA7D JUMP JUMPDEST JUMPDEST PUSH1 0x20 MUL PUSH1 0x20 ADD ADD MLOAD DUP9 DUP7 DUP2 MLOAD DUP2 LT PUSH2 0x221 JUMPI PUSH2 0x220 PUSH2 0xA7D JUMP JUMPDEST JUMPDEST PUSH1 0x20 MUL PUSH1 0x20 ADD ADD MLOAD PUSH2 0x233 SWAP2 SWAP1 PUSH2 0xAD7 JUMP JUMPDEST DUP4 PUSH2 0x23E SWAP2 SWAP1 PUSH2 0xB0A JUMP JUMPDEST PUSH2 0x248 SWAP2 SWAP1 PUSH2 0xB78 JUMP JUMPDEST SWAP2 POP JUMPDEST DUP1 DUP1 PUSH1 0x1 ADD SWAP2 POP POP PUSH2 0x143 JUMP JUMPDEST POP PUSH0 PUSH32 0xFFFFFFFFFFFFFFFFFFFFFFFFFFFFFFFFFFFFFFFFFFFFFFFFFFFFFFFFFFFFFF43 DUP4 PUSH2 0x285 DUP5 PUSH2 0x4DF JUMP JUMPDEST PUSH2 0x28F SWAP2 SWAP1 PUSH2 0xB0A JUMP JUMPDEST PUSH2 0x299 SWAP2 SWAP1 PUSH2 0xB78 JUMP JUMPDEST SWAP1 POP PUSH32 0xFFFFFFFFFFFFFFFFFFFFFFFFFFFFFFFFFFFFFFFFFFFFFFFFFFFFFFFFFFFFFF43 DUP2 DUP7 PUSH2 0x2C8 SWAP2 SWAP1 PUSH2 0xBA8 JUMP JUMPDEST PUSH2 0x2D2 SWAP2 SWAP1 PUSH2 0xB78 JUMP JUMPDEST SWAP5 POP POP POP POP DUP1 DUP1 PUSH1 0x1 ADD SWAP2 POP POP PUSH2 0x115 JUMP JUMPDEST POP DUP1 SWAP2 POP POP SWAP3 SWAP2 POP POP JUMP JUMPDEST PUSH1 0x60 PUSH0 DUP4 GT DUP1 ISZERO PUSH2 0x300 JUMPI POP DUP2 DUP4 GT ISZERO JUMPDEST PUSH2 0x33F JUMPI PUSH1 0x40 MLOAD PUSH32 0x8C379A000000000000000000000000000000000000000000000000000000000 DUP2 MSTORE PUSH1 0x4 ADD PUSH2 0x336 SWAP1 PUSH2 0xC4B JUMP JUMPDEST PUSH1 0x40 MLOAD DUP1 SWAP2 SUB SWAP1 REVERT JUMPDEST PUSH0 DUP3 PUSH8 0xFFFFFFFFFFFFFFFF DUP2 GT ISZERO PUSH2 0x35A JUMPI PUSH2 0x359 PUSH2 0x6D1 JUMP JUMPDEST JUMPDEST PUSH1 0x40 MLOAD SWAP1 DUP1 DUP3 MSTORE DUP1 PUSH1 0x20 MUL PUSH1 0x20 ADD DUP3 ADD PUSH1 0x40 MSTORE DUP1 ISZERO PUSH2 0x388 JUMPI DUP2 PUSH1 0x20 ADD PUSH1 0x20 DUP3 MUL DUP1 CALLDATASIZE DUP4 CALLDATACOPY DUP1 DUP3 ADD SWAP2 POP POP SWAP1 POP JUMPDEST POP SWAP1 POP PUSH0 DUP5 PUSH8 0xFFFFFFFFFFFFFFFF DUP2 GT ISZERO PUSH2 0x3A6 JUMPI PUSH2 0x3A5 PUSH2 0x6D1 JUMP JUMPDEST JUMPDEST PUSH1 0x40 MLOAD SWAP1 DUP1 DUP3 MSTORE DUP1 PUSH1 0x20 MUL PUSH1 0x20 ADD DUP3 ADD PUSH1 0x40 MSTORE DUP1 ISZERO PUSH2 0x3D4 JUMPI DUP2 PUSH1 0x20 ADD PUSH1 0x20 DUP3 MUL DUP1 CALLDATASIZE DUP4 CALLDATACOPY DUP1 DUP3 ADD SWAP2 POP POP SWAP1 POP JUMPDEST POP SWAP1 POP DUP6 DUP2 PUSH0 DUP2 MLOAD DUP2 LT PUSH2 0x3EB JUMPI PUSH2 0x3EA PUSH2 0xA7D JUMP JUMPDEST JUMPDEST PUSH1 0x20 MUL PUSH1 0x20 ADD ADD DUP2 DUP2 MSTORE POP POP PUSH0 PUSH1 0x1 SWAP1 POP JUMPDEST DUP6 DUP2 LT ISZERO PUSH2 0x45C JUMPI DUP7 DUP2 PUSH1 0x40 MLOAD PUSH1 0x20 ADD PUSH2 0x418 SWAP3 SWAP2 SWAP1 PUSH2 0xC89 JUMP JUMPDEST PUSH1 0x40 MLOAD PUSH1 0x20 DUP2 DUP4 SUB SUB DUP2 MSTORE SWAP1 PUSH1 0x40 MSTORE DUP1 MLOAD SWAP1 PUSH1 0x20 ADD KECCAK256 PUSH0 SHR DUP3 DUP3 DUP2 MLOAD DUP2 LT PUSH2 0x443 JUMPI PUSH2 0x442 PUSH2 0xA7D JUMP JUMPDEST JUMPDEST PUSH1 0x20 MUL PUSH1 0x20 ADD ADD DUP2 DUP2 MSTORE POP POP DUP1 DUP1 PUSH1 0x1 ADD SWAP2 POP POP PUSH2 0x3FD JUMP JUMPDEST POP PUSH0 JUMPDEST DUP5 DUP2 LT ISZERO PUSH2 0x4AE JUMPI PUSH0 PUSH1 0x1 DUP3 PUSH2 0x475 SWAP2 SWAP1 PUSH2 0xBA8 JUMP JUMPDEST SWAP1 POP PUSH2 0x481 DUP4 DUP3 PUSH2 0x5A7 JUMP JUMPDEST DUP5 DUP4 DUP2 MLOAD DUP2 LT PUSH2 0x494 JUMPI PUSH2 0x493 PUSH2 0xA7D JUMP JUMPDEST JUMPDEST PUSH1 0x20 MUL PUSH1 0x20 ADD ADD DUP2 DUP2 MSTORE POP POP POP DUP1 DUP1 PUSH1 0x1 ADD SWAP2 POP POP PUSH2 0x45F JUMP JUMPDEST POP DUP2 SWAP3 POP POP POP SWAP4 SWAP3 POP POP POP JUMP JUMPDEST PUSH32 0xFFFFFFFFFFFFFFFFFFFFFFFFFFFFFFFFFFFFFFFFFFFFFFFFFFFFFFFFFFFFFF43 DUP2 JUMP JUMPDEST PUSH0 DUP1 PUSH32 0xFFFFFFFFFFFFFFFFFFFFFFFFFFFFFFFFFFFFFFFFFFFFFFFFFFFFFFFFFFFFFF43 SWAP1 POP PUSH0 DUP4 EQ DUP1 PUSH2 0x512 JUMPI POP PUSH1 0x1 DUP4 EQ JUMPDEST ISZERO PUSH2 0x520 JUMPI DUP3 SWAP2 POP POP PUSH2 0x5A2 JUMP JUMPDEST PUSH0 DUP2 SWAP1 POP PUSH0 DUP5 SWAP1 POP PUSH0 DUP1 PUSH1 0x1 SWAP1 POP JUMPDEST PUSH1 0x1 DUP4 SGT ISZERO PUSH2 0x582 JUMPI PUSH0 DUP5 DUP5 PUSH2 0x545 SWAP2 SWAP1 PUSH2 0xCBD JUMP JUMPDEST SWAP1 POP PUSH0 DUP6 SWAP1 POP DUP6 DUP6 PUSH2 0x557 SWAP2 SWAP1 PUSH2 0xD25 JUMP JUMPDEST SWAP6 POP DUP1 SWAP5 POP DUP4 SWAP1 POP DUP4 DUP3 PUSH2 0x56B SWAP2 SWAP1 PUSH2 0xD55 JUMP JUMPDEST DUP4 PUSH2 0x576 SWAP2 SWAP1 PUSH2 0xDCB JUMP JUMPDEST SWAP4 POP DUP1 SWAP3 POP POP POP PUSH2 0x52F JUMP JUMPDEST PUSH0 DUP2 SLT ISZERO PUSH2 0x599 JUMPI DUP5 DUP2 PUSH2 0x596 SWAP2 SWAP1 PUSH2 0xE0B JUMP JUMPDEST SWAP1 POP JUMPDEST DUP1 SWAP6 POP POP POP POP POP POP JUMPDEST SWAP2 SWAP1 POP JUMP JUMPDEST PUSH0 DUP1 DUP4 MLOAD GT PUSH2 0x5EB JUMPI PUSH1 0x40 MLOAD PUSH32 0x8C379A000000000000000000000000000000000000000000000000000000000 DUP2 MSTORE PUSH1 0x4 ADD PUSH2 0x5E2 SWAP1 PUSH2 0xE96 JUMP JUMPDEST PUSH1 0x40 MLOAD DUP1 SWAP2 SUB SWAP1 REVERT JUMPDEST PUSH0 DUP1 PUSH1 0x1 SWAP1 POP PUSH0 JUMPDEST DUP6 MLOAD DUP2 LT ISZERO PUSH2 0x6A0 JUMPI PUSH32 0xFFFFFFFFFFFFFFFFFFFFFFFFFFFFFFFFFFFFFFFFFFFFFFFFFFFFFFFFFFFFFF43 DUP3 DUP8 DUP4 DUP2 MLOAD DUP2 LT PUSH2 0x631 JUMPI PUSH2 0x630 PUSH2 0xA7D JUMP JUMPDEST JUMPDEST PUSH1 0x20 MUL PUSH1 0x20 ADD ADD MLOAD PUSH2 0x643 SWAP2 SWAP1 PUSH2 0xB0A JUMP JUMPDEST DUP5 PUSH2 0x64E SWAP2 SWAP1 PUSH2 0xBA8 JUMP JUMPDEST PUSH2 0x658 SWAP2 SWAP1 PUSH2 0xB78 JUMP JUMPDEST SWAP3 POP PUSH32 0xFFFFFFFFFFFFFFFFFFFFFFFFFFFFFFFFFFFFFFFFFFFFFFFFFFFFFFFFFFFFFF43 DUP6 DUP4 PUSH2 0x687 SWAP2 SWAP1 PUSH2 0xB0A JUMP JUMPDEST PUSH2 0x691 SWAP2 SWAP1 PUSH2 0xB78 JUMP JUMPDEST SWAP2 POP DUP1 DUP1 PUSH1 0x1 ADD SWAP2 POP POP PUSH2 0x5F3 JUMP JUMPDEST POP DUP2 SWAP3 POP POP POP SWAP3 SWAP2 POP POP JUMP JUMPDEST PUSH0 PUSH1 0x40 MLOAD SWAP1 POP SWAP1 JUMP JUMPDEST PUSH0 DUP1 REVERT JUMPDEST PUSH0 DUP1 REVERT JUMPDEST PUSH0 DUP1 REVERT JUMPDEST PUSH0 PUSH1 0x1F NOT PUSH1 0x1F DUP4 ADD AND SWAP1 POP SWAP2 SWAP1 POP JUMP JUMPDEST PUSH32 0x4E487B7100000000000000000000000000000000000000000000000000000000 PUSH0 MSTORE PUSH1 0x41 PUSH1 0x4 MSTORE PUSH1 0x24 PUSH0 REVERT JUMPDEST PUSH2 0x707 DUP3 PUSH2 0x6C1 JUMP JUMPDEST DUP2 ADD DUP2 DUP2 LT PUSH8 0xFFFFFFFFFFFFFFFF DUP3 GT OR ISZERO PUSH2 0x726 JUMPI PUSH2 0x725 PUSH2 0x6D1 JUMP JUMPDEST JUMPDEST DUP1 PUSH1 0x40 MSTORE POP POP POP JUMP JUMPDEST PUSH0 PUSH2 0x738 PUSH2 0x6AC JUMP JUMPDEST SWAP1 POP PUSH2 0x744 DUP3 DUP3 PUSH2 0x6FE JUMP JUMPDEST SWAP2 SWAP1 POP JUMP JUMPDEST PUSH0 PUSH8 0xFFFFFFFFFFFFFFFF DUP3 GT ISZERO PUSH2 0x763 JUMPI PUSH2 0x762 PUSH2 0x6D1 JUMP JUMPDEST JUMPDEST PUSH1 0x20 DUP3 MUL SWAP1 POP PUSH1 0x20 DUP2 ADD SWAP1 POP SWAP2 SWAP1 POP JUMP JUMPDEST PUSH0 DUP1 REVERT JUMPDEST PUSH0 DUP2 SWAP1 POP SWAP2 SWAP1 POP JUMP JUMPDEST PUSH2 0x78A DUP2 PUSH2 0x778 JUMP JUMPDEST DUP2 EQ PUSH2 0x794 JUMPI PUSH0 DUP1 REVERT JUMPDEST POP JUMP JUMPDEST PUSH0 DUP2 CALLDATALOAD SWAP1 POP PUSH2 0x7A5 DUP2 PUSH2 0x781 JUMP JUMPDEST SWAP3 SWAP2 POP POP JUMP JUMPDEST PUSH0 PUSH2 0x7BD PUSH2 0x7B8 DUP5 PUSH2 0x749 JUMP JUMPDEST PUSH2 0x72F JUMP JUMPDEST SWAP1 POP DUP1 DUP4 DUP3 MSTORE PUSH1 0x20 DUP3 ADD SWAP1 POP PUSH1 0x20 DUP5 MUL DUP4 ADD DUP6 DUP2 GT ISZERO PUSH2 0x7E0 JUMPI PUSH2 0x7DF PUSH2 0x774 JUMP JUMPDEST JUMPDEST DUP4 JUMPDEST DUP2 DUP2 LT ISZERO PUSH2 0x809 JUMPI DUP1 PUSH2 0x7F5 DUP9 DUP3 PUSH2 0x797 JUMP JUMPDEST DUP5 MSTORE PUSH1 0x20 DUP5 ADD SWAP4 POP POP PUSH1 0x20 DUP2 ADD SWAP1 POP PUSH2 0x7E2 JUMP JUMPDEST POP POP POP SWAP4 SWAP3 POP POP POP JUMP JUMPDEST PUSH0 DUP3 PUSH1 0x1F DUP4 ADD SLT PUSH2 0x827 JUMPI PUSH2 0x826 PUSH2 0x6BD JUMP JUMPDEST JUMPDEST DUP2 CALLDATALOAD PUSH2 0x837 DUP5 DUP3 PUSH1 0x20 DUP7 ADD PUSH2 0x7AB JUMP JUMPDEST SWAP2 POP POP SWAP3 SWAP2 POP POP JUMP JUMPDEST PUSH0 DUP1 PUSH1 0x40 DUP4 DUP6 SUB SLT ISZERO PUSH2 0x856 JUMPI PUSH2 0x855 PUSH2 0x6B5 JUMP JUMPDEST JUMPDEST PUSH0 DUP4 ADD CALLDATALOAD PUSH8 0xFFFFFFFFFFFFFFFF DUP2 GT ISZERO PUSH2 0x873 JUMPI PUSH2 0x872 PUSH2 0x6B9 JUMP JUMPDEST JUMPDEST PUSH2 0x87F DUP6 DUP3 DUP7 ADD PUSH2 0x813 JUMP JUMPDEST SWAP3 POP POP PUSH1 0x20 DUP4 ADD CALLDATALOAD PUSH8 0xFFFFFFFFFFFFFFFF DUP2 GT ISZERO PUSH2 0x8A0 JUMPI PUSH2 0x89F PUSH2 0x6B9 JUMP JUMPDEST JUMPDEST PUSH2 0x8AC DUP6 DUP3 DUP7 ADD PUSH2 0x813 JUMP JUMPDEST SWAP2 POP POP SWAP3 POP SWAP3 SWAP1 POP JUMP JUMPDEST PUSH2 0x8BF DUP2 PUSH2 0x778 JUMP JUMPDEST DUP3 MSTORE POP POP JUMP JUMPDEST PUSH0 PUSH1 0x20 DUP3 ADD SWAP1 POP PUSH2 0x8D8 PUSH0 DUP4 ADD DUP5 PUSH2 0x8B6 JUMP JUMPDEST SWAP3 SWAP2 POP POP JUMP JUMPDEST PUSH0 DUP1 PUSH0 PUSH1 0x60 DUP5 DUP7 SUB SLT ISZERO PUSH2 0x8F5 JUMPI PUSH2 0x8F4 PUSH2 0x6B5 JUMP JUMPDEST JUMPDEST PUSH0 PUSH2 0x902 DUP7 DUP3 DUP8 ADD PUSH2 0x797 JUMP JUMPDEST SWAP4 POP POP PUSH1 0x20 PUSH2 0x913 DUP7 DUP3 DUP8 ADD PUSH2 0x797 JUMP JUMPDEST SWAP3 POP POP PUSH1 0x40 PUSH2 0x924 DUP7 DUP3 DUP8 ADD PUSH2 0x797 JUMP JUMPDEST SWAP2 POP POP SWAP3 POP SWAP3 POP SWAP3 JUMP JUMPDEST PUSH0 DUP2 MLOAD SWAP1 POP SWAP2 SWAP1 POP JUMP JUMPDEST PUSH0 DUP3 DUP3 MSTORE PUSH1 0x20 DUP3 ADD SWAP1 POP SWAP3 SWAP2 POP POP JUMP JUMPDEST PUSH0 DUP2 SWAP1 POP PUSH1 0x20 DUP3 ADD SWAP1 POP SWAP2 SWAP1 POP JUMP JUMPDEST PUSH2 0x960 DUP2 PUSH2 0x778 JUMP JUMPDEST DUP3 MSTORE POP POP JUMP JUMPDEST PUSH0 PUSH2 0x971 DUP4 DUP4 PUSH2 0x957 JUMP JUMPDEST PUSH1 0x20 DUP4 ADD SWAP1 POP SWAP3 SWAP2 POP POP JUMP JUMPDEST PUSH0 PUSH1 0x20 DUP3 ADD SWAP1 POP SWAP2 SWAP1 POP JUMP JUMPDEST PUSH0 PUSH2 0x993 DUP3 PUSH2 0x92E JUMP JUMPDEST PUSH2 0x99D DUP2 DUP6 PUSH2 0x938 JUMP JUMPDEST SWAP4 POP PUSH2 0x9A8 DUP4 PUSH2 0x948 JUMP JUMPDEST DUP1 PUSH0 JUMPDEST DUP4 DUP2 LT ISZERO PUSH2 0x9D8 JUMPI DUP2 MLOAD PUSH2 0x9BF DUP9 DUP3 PUSH2 0x966 JUMP JUMPDEST SWAP8 POP PUSH2 0x9CA DUP4 PUSH2 0x97D JUMP JUMPDEST SWAP3 POP POP PUSH1 0x1 DUP2 ADD SWAP1 POP PUSH2 0x9AB JUMP JUMPDEST POP DUP6 SWAP4 POP POP POP POP SWAP3 SWAP2 POP POP JUMP JUMPDEST PUSH0 PUSH1 0x20 DUP3 ADD SWAP1 POP DUP2 DUP2 SUB PUSH0 DUP4 ADD MSTORE PUSH2 0x9FD DUP2 DUP5 PUSH2 0x989 JUMP JUMPDEST SWAP1 POP SWAP3 SWAP2 POP POP JUMP JUMPDEST PUSH0 DUP3 DUP3 MSTORE PUSH1 0x20 DUP3 ADD SWAP1 POP SWAP3 SWAP2 POP POP JUMP JUMPDEST PUSH32 0x496E76616C696420696E70757400000000000000000000000000000000000000 PUSH0 DUP3 ADD MSTORE POP JUMP JUMPDEST PUSH0 PUSH2 0xA49 PUSH1 0xD DUP4 PUSH2 0xA05 JUMP JUMPDEST SWAP2 POP PUSH2 0xA54 DUP3 PUSH2 0xA15 JUMP JUMPDEST PUSH1 0x20 DUP3 ADD SWAP1 POP SWAP2 SWAP1 POP JUMP JUMPDEST PUSH0 PUSH1 0x20 DUP3 ADD SWAP1 POP DUP2 DUP2 SUB PUSH0 DUP4 ADD MSTORE PUSH2 0xA76 DUP2 PUSH2 0xA3D JUMP JUMPDEST SWAP1 POP SWAP2 SWAP1 POP JUMP JUMPDEST PUSH32 0x4E487B7100000000000000000000000000000000000000000000000000000000 PUSH0 MSTORE PUSH1 0x32 PUSH1 0x4 MSTORE PUSH1 0x24 PUSH0 REVERT JUMPDEST PUSH32 0x4E487B7100000000000000000000000000000000000000000000000000000000 PUSH0 MSTORE PUSH1 0x11 PUSH1 0x4 MSTORE PUSH1 0x24 PUSH0 REVERT JUMPDEST PUSH0 PUSH2 0xAE1 DUP3 PUSH2 0x778 JUMP JUMPDEST SWAP2 POP PUSH2 0xAEC DUP4 PUSH2 0x778 JUMP JUMPDEST SWAP3 POP DUP3 DUP3 SUB SWAP1 POP DUP2 DUP2 GT ISZERO PUSH2 0xB04 JUMPI PUSH2 0xB03 PUSH2 0xAAA JUMP JUMPDEST JUMPDEST SWAP3 SWAP2 POP POP JUMP JUMPDEST PUSH0 PUSH2 0xB14 DUP3 PUSH2 0x778 JUMP JUMPDEST SWAP2 POP PUSH2 0xB1F DUP4 PUSH2 0x778 JUMP JUMPDEST SWAP3 POP DUP3 DUP3 MUL PUSH2 0xB2D DUP2 PUSH2 0x778 JUMP JUMPDEST SWAP2 POP DUP3 DUP3 DIV DUP5 EQ DUP4 ISZERO OR PUSH2 0xB44 JUMPI PUSH2 0xB43 PUSH2 0xAAA JUMP JUMPDEST JUMPDEST POP SWAP3 SWAP2 POP POP JUMP JUMPDEST PUSH32 0x4E487B7100000000000000000000000000000000000000000000000000000000 PUSH0 MSTORE PUSH1 0x12 PUSH1 0x4 MSTORE PUSH1 0x24 PUSH0 REVERT JUMPDEST PUSH0 PUSH2 0xB82 DUP3 PUSH2 0x778 JUMP JUMPDEST SWAP2 POP PUSH2 0xB8D DUP4 PUSH2 0x778 JUMP JUMPDEST SWAP3 POP DUP3 PUSH2 0xB9D JUMPI PUSH2 0xB9C PUSH2 0xB4B JUMP JUMPDEST JUMPDEST DUP3 DUP3 MOD SWAP1 POP SWAP3 SWAP2 POP POP JUMP JUMPDEST PUSH0 PUSH2 0xBB2 DUP3 PUSH2 0x778 JUMP JUMPDEST SWAP2 POP PUSH2 0xBBD DUP4 PUSH2 0x778 JUMP JUMPDEST SWAP3 POP DUP3 DUP3 ADD SWAP1 POP DUP1 DUP3 GT ISZERO PUSH2 0xBD5 JUMPI PUSH2 0xBD4 PUSH2 0xAAA JUMP JUMPDEST JUMPDEST SWAP3 SWAP2 POP POP JUMP JUMPDEST PUSH32 0x496E76616C6964207468726573686F6C64206F72206E756D626572206F662073 PUSH0 DUP3 ADD MSTORE PUSH32 0x6861726573000000000000000000000000000000000000000000000000000000 PUSH1 0x20 DUP3 ADD MSTORE POP JUMP JUMPDEST PUSH0 PUSH2 0xC35 PUSH1 0x25 DUP4 PUSH2 0xA05 JUMP JUMPDEST SWAP2 POP PUSH2 0xC40 DUP3 PUSH2 0xBDB JUMP JUMPDEST PUSH1 0x40 DUP3 ADD SWAP1 POP SWAP2 SWAP1 POP JUMP JUMPDEST PUSH0 PUSH1 0x20 DUP3 ADD SWAP1 POP DUP2 DUP2 SUB PUSH0 DUP4 ADD MSTORE PUSH2 0xC62 DUP2 PUSH2 0xC29 JUMP JUMPDEST SWAP1 POP SWAP2 SWAP1 POP JUMP JUMPDEST PUSH0 DUP2 SWAP1 POP SWAP2 SWAP1 POP JUMP JUMPDEST PUSH2 0xC83 PUSH2 0xC7E DUP3 PUSH2 0x778 JUMP JUMPDEST PUSH2 0xC69 JUMP JUMPDEST DUP3 MSTORE POP POP JUMP JUMPDEST PUSH0 PUSH2 0xC94 DUP3 DUP6 PUSH2 0xC72 JUMP JUMPDEST PUSH1 0x20 DUP3 ADD SWAP2 POP PUSH2 0xCA4 DUP3 DUP5 PUSH2 0xC72 JUMP JUMPDEST PUSH1 0x20 DUP3 ADD SWAP2 POP DUP2 SWAP1 POP SWAP4 SWAP3 POP POP POP JUMP JUMPDEST PUSH0 DUP2 SWAP1 POP SWAP2 SWAP1 POP JUMP JUMPDEST PUSH0 PUSH2 0xCC7 DUP3 PUSH2 0xCB4 JUMP JUMPDEST SWAP2 POP PUSH2 0xCD2 DUP4 PUSH2 0xCB4 JUMP JUMPDEST SWAP3 POP DUP3 PUSH2 0xCE2 JUMPI PUSH2 0xCE1 PUSH2 0xB4B JUMP JUMPDEST JUMPDEST PUSH1 0x1 PUSH0 SUB DUP4 EQ PUSH32 0x8000000000000000000000000000000000000000000000000000000000000000 DUP4 EQ AND ISZERO PUSH2 0xD1A JUMPI PUSH2 0xD19 PUSH2 0xAAA JUMP JUMPDEST JUMPDEST DUP3 DUP3 SDIV SWAP1 POP SWAP3 SWAP2 POP POP JUMP JUMPDEST PUSH0 PUSH2 0xD2F DUP3 PUSH2 0xCB4 JUMP JUMPDEST SWAP2 POP PUSH2 0xD3A DUP4 PUSH2 0xCB4 JUMP JUMPDEST SWAP3 POP DUP3 PUSH2 0xD4A JUMPI PUSH2 0xD49 PUSH2 0xB4B JUMP JUMPDEST JUMPDEST DUP3 DUP3 SMOD SWAP1 POP SWAP3 SWAP2 POP POP JUMP JUMPDEST PUSH0 PUSH2 0xD5F DUP3 PUSH2 0xCB4 JUMP JUMPDEST SWAP2 POP PUSH2 0xD6A DUP4 PUSH2 0xCB4 JUMP JUMPDEST SWAP3 POP DUP3 DUP3 MUL PUSH2 0xD78 DUP2 PUSH2 0xCB4 JUMP JUMPDEST SWAP2 POP PUSH32 0x8000000000000000000000000000000000000000000000000000000000000000 DUP5 EQ PUSH0 DUP5 SLT AND ISZERO PUSH2 0xDAF JUMPI PUSH2 0xDAE PUSH2 0xAAA JUMP JUMPDEST JUMPDEST DUP3 DUP3 SDIV DUP5 EQ DUP4 ISZERO OR PUSH2 0xDC4 JUMPI PUSH2 0xDC3 PUSH2 0xAAA JUMP JUMPDEST JUMPDEST POP SWAP3 SWAP2 POP POP JUMP JUMPDEST PUSH0 PUSH2 0xDD5 DUP3 PUSH2 0xCB4 JUMP JUMPDEST SWAP2 POP PUSH2 0xDE0 DUP4 PUSH2 0xCB4 JUMP JUMPDEST SWAP3 POP DUP3 DUP3 SUB SWAP1 POP DUP2 DUP2 SLT PUSH0 DUP5 SLT AND DUP3 DUP3 SGT PUSH0 DUP6 SLT ISZERO AND OR ISZERO PUSH2 0xE05 JUMPI PUSH2 0xE04 PUSH2 0xAAA JUMP JUMPDEST JUMPDEST SWAP3 SWAP2 POP POP JUMP JUMPDEST PUSH0 PUSH2 0xE15 DUP3 PUSH2 0xCB4 JUMP JUMPDEST SWAP2 POP PUSH2 0xE20 DUP4 PUSH2 0xCB4 JUMP JUMPDEST SWAP3 POP DUP3 DUP3 ADD SWAP1 POP DUP3 DUP2 SLT ISZERO PUSH0 DUP4 SLT AND DUP4 DUP3 SLT PUSH0 DUP5 SLT ISZERO AND OR ISZERO PUSH2 0xE46 JUMPI PUSH2 0xE45 PUSH2 0xAAA JUMP JUMPDEST JUMPDEST SWAP3 SWAP2 POP POP JUMP JUMPDEST PUSH32 0x4E6F20636F656666696369656E74732070726F76696465640000000000000000 PUSH0 DUP3 ADD MSTORE POP JUMP JUMPDEST PUSH0 PUSH2 0xE80 PUSH1 0x18 DUP4 PUSH2 0xA05 JUMP JUMPDEST SWAP2 POP PUSH2 0xE8B DUP3 PUSH2 0xE4C JUMP JUMPDEST PUSH1 0x20 DUP3 ADD SWAP1 POP SWAP2 SWAP1 POP JUMP JUMPDEST PUSH0 PUSH1 0x20 DUP3 ADD SWAP1 POP DUP2 DUP2 SUB PUSH0 DUP4 ADD MSTORE PUSH2 0xEAD DUP2 PUSH2 0xE74 JUMP JUMPDEST SWAP1 POP SWAP2 SWAP1 POP JUMP INVALID LOG2 PUSH5 0x6970667358 0x22 SLT KECCAK256 SWAP4 LOG0 GT RETURNDATACOPY EXP GASLIMIT PUSH17 0xA0317ED14C81E325A7B25F24D553F4772A 0x24 0xCC CALLDATACOPY CREATE 0x22 PUSH27 0xA64364736F6C634300081800330000000000000000000000000000 "
				},
				"gasEstimates": {
					"creation": {
						"codeDepositCost": "763600",
						"executionCost": "797",
						"totalCost": "764397"
					},
					"external": {
						"generateShares(uint256,uint256,uint256)": "infinite",
						"prime()": "347",
						"reconstructSecret(uint256[],uint256[])": "infinite"
					},
					"internal": {
						"evaluatePolynomial(uint256[] memory,uint256)": "infinite",
						"modInverse(uint256)": "infinite"
					}
				},
				"methodIdentifiers": {
					"generateShares(uint256,uint256,uint256)": "b4df6f00",
					"prime()": "c7ee005e",
					"reconstructSecret(uint256[],uint256[])": "39430740"
				}
			},
			"storageLayout": {
				"storage": [],
				"types": null
			},
			"userdoc": {
				"kind": "user",
				"methods": {},
				"version": 1
			}
		}
	}
}