{
	"contracts/HelloWorld4.sol": {
		"ShamirsSecretSharing": {
			"abi": [
				{
					"inputs": [
						{
							"internalType": "uint256",
							"name": "secret",
							"type": "uint256"
						},
						{
							"internalType": "uint256",
							"name": "minimum",
							"type": "uint256"
						},
						{
							"internalType": "uint256",
							"name": "shares",
							"type": "uint256"
						}
					],
					"name": "makeRandomShares",
					"outputs": [
						{
							"internalType": "uint256[][]",
							"name": "",
							"type": "uint256[][]"
						}
					],
					"stateMutability": "pure",
					"type": "function"
				},
				{
					"inputs": [
						{
							"internalType": "uint256[][]",
							"name": "shares",
							"type": "uint256[][]"
						}
					],
					"name": "recoverSecret",
					"outputs": [
						{
							"internalType": "uint256",
							"name": "",
							"type": "uint256"
						}
					],
					"stateMutability": "pure",
					"type": "function"
				}
			],
			"devdoc": {
				"kind": "dev",
				"methods": {},
				"version": 1
			},
			"evm": {
				"assembly": "    /* \"contracts/HelloWorld4.sol\":57:3517  contract ShamirsSecretSharing {... */\n  mstore(0x40, 0x80)\n  callvalue\n  dup1\n  iszero\n  tag_1\n  jumpi\n  0x00\n  dup1\n  revert\ntag_1:\n  pop\n  dataSize(sub_0)\n  dup1\n  dataOffset(sub_0)\n  0x00\n  codecopy\n  0x00\n  return\nstop\n\nsub_0: assembly {\n        /* \"contracts/HelloWorld4.sol\":57:3517  contract ShamirsSecretSharing {... */\n      mstore(0x40, 0x80)\n      callvalue\n      dup1\n      iszero\n      tag_1\n      jumpi\n      0x00\n      dup1\n      revert\n    tag_1:\n      pop\n      jumpi(tag_2, lt(calldatasize, 0x04))\n      shr(0xe0, calldataload(0x00))\n      dup1\n      0x072c0aee\n      eq\n      tag_3\n      jumpi\n      dup1\n      0x8d45eb2e\n      eq\n      tag_4\n      jumpi\n    tag_2:\n      0x00\n      dup1\n      revert\n        /* \"contracts/HelloWorld4.sol\":416:1148  function makeRandomShares(uint256 secret, uint256 minimum, uint256 shares) external pure returns (uint256[][] memory) {... */\n    tag_3:\n      tag_5\n      0x04\n      dup1\n      calldatasize\n      sub\n      dup2\n      add\n      swap1\n      tag_6\n      swap2\n      swap1\n      tag_7\n      jump\t// in\n    tag_6:\n      tag_8\n      jump\t// in\n    tag_5:\n      mload(0x40)\n      tag_9\n      swap2\n      swap1\n      tag_10\n      jump\t// in\n    tag_9:\n      mload(0x40)\n      dup1\n      swap2\n      sub\n      swap1\n      return\n        /* \"contracts/HelloWorld4.sol\":3051:3515  function recoverSecret(uint256[][] memory shares) external pure returns (uint256) {... */\n    tag_4:\n      tag_11\n      0x04\n      dup1\n      calldatasize\n      sub\n      dup2\n      add\n      swap1\n      tag_12\n      swap2\n      swap1\n      tag_13\n      jump\t// in\n    tag_12:\n      tag_14\n      jump\t// in\n    tag_11:\n      mload(0x40)\n      tag_15\n      swap2\n      swap1\n      tag_16\n      jump\t// in\n    tag_15:\n      mload(0x40)\n      dup1\n      swap2\n      sub\n      swap1\n      return\n        /* \"contracts/HelloWorld4.sol\":416:1148  function makeRandomShares(uint256 secret, uint256 minimum, uint256 shares) external pure returns (uint256[][] memory) {... */\n    tag_8:\n        /* \"contracts/HelloWorld4.sol\":514:532  uint256[][] memory */\n      0x60\n        /* \"contracts/HelloWorld4.sol\":563:569  shares */\n      dup2\n        /* \"contracts/HelloWorld4.sol\":552:559  minimum */\n      dup4\n        /* \"contracts/HelloWorld4.sol\":552:569  minimum <= shares */\n      gt\n      iszero\n        /* \"contracts/HelloWorld4.sol\":544:620  require(minimum <= shares, \"Minimum should be less than or equal to shares\") */\n      tag_18\n      jumpi\n      mload(0x40)\n      0x08c379a000000000000000000000000000000000000000000000000000000000\n      dup2\n      mstore\n      0x04\n      add\n      tag_19\n      swap1\n      tag_20\n      jump\t// in\n    tag_19:\n      mload(0x40)\n      dup1\n      swap2\n      sub\n      swap1\n      revert\n    tag_18:\n        /* \"contracts/HelloWorld4.sol\":630:651  uint256[] memory poly */\n      0x00\n        /* \"contracts/HelloWorld4.sol\":668:675  minimum */\n      dup4\n        /* \"contracts/HelloWorld4.sol\":654:676  new uint256[](minimum) */\n      0xffffffffffffffff\n      dup2\n      gt\n      iszero\n      tag_21\n      jumpi\n      tag_22\n      tag_23\n      jump\t// in\n    tag_22:\n    tag_21:\n      mload(0x40)\n      swap1\n      dup1\n      dup3\n      mstore\n      dup1\n      0x20\n      mul\n      0x20\n      add\n      dup3\n      add\n      0x40\n      mstore\n      dup1\n      iszero\n      tag_24\n      jumpi\n      dup2\n      0x20\n      add\n      0x20\n      dup3\n      mul\n      dup1\n      calldatasize\n      dup4\n      calldatacopy\n      dup1\n      dup3\n      add\n      swap2\n      pop\n      pop\n      swap1\n      pop\n    tag_24:\n      pop\n        /* \"contracts/HelloWorld4.sol\":630:676  uint256[] memory poly = new uint256[](minimum) */\n      swap1\n      pop\n        /* \"contracts/HelloWorld4.sol\":696:702  secret */\n      dup5\n        /* \"contracts/HelloWorld4.sol\":686:690  poly */\n      dup2\n        /* \"contracts/HelloWorld4.sol\":691:692  0 */\n      0x00\n        /* \"contracts/HelloWorld4.sol\":686:693  poly[0] */\n      dup2\n      mload\n      dup2\n      lt\n      tag_25\n      jumpi\n      tag_26\n      tag_27\n      jump\t// in\n    tag_26:\n    tag_25:\n      0x20\n      mul\n      0x20\n      add\n      add\n        /* \"contracts/HelloWorld4.sol\":686:702  poly[0] = secret */\n      dup2\n      dup2\n      mstore\n      pop\n      pop\n        /* \"contracts/HelloWorld4.sol\":712:730  uint256 randomSeed */\n      0x00\n        /* \"contracts/HelloWorld4.sol\":733:743  0xdeadbeef */\n      0xdeadbeef\n        /* \"contracts/HelloWorld4.sol\":712:743  uint256 randomSeed = 0xdeadbeef */\n      swap1\n      pop\n        /* \"contracts/HelloWorld4.sol\":758:767  uint256 i */\n      0x00\n        /* \"contracts/HelloWorld4.sol\":770:771  1 */\n      0x01\n        /* \"contracts/HelloWorld4.sol\":758:771  uint256 i = 1 */\n      swap1\n      pop\n        /* \"contracts/HelloWorld4.sol\":753:917  for (uint256 i = 1; i < minimum; i++) {... */\n    tag_28:\n        /* \"contracts/HelloWorld4.sol\":777:784  minimum */\n      dup6\n        /* \"contracts/HelloWorld4.sol\":773:774  i */\n      dup2\n        /* \"contracts/HelloWorld4.sol\":773:784  i < minimum */\n      lt\n        /* \"contracts/HelloWorld4.sol\":753:917  for (uint256 i = 1; i < minimum; i++) {... */\n      iszero\n      tag_29\n      jumpi\n        /* \"contracts/HelloWorld4.sol\":819:820  i */\n      dup1\n        /* \"contracts/HelloWorld4.sol\":805:820  randomSeed ^= i */\n      dup3\n      xor\n      swap2\n      pop\n        /* \"contracts/HelloWorld4.sol\":904:905  1 */\n      0x01\n        /* \"contracts/HelloWorld4.sol\":118:130  2 ** 127 - 1 */\n      0x7fffffffffffffffffffffffffffffff\n        /* \"contracts/HelloWorld4.sol\":896:905  PRIME - 1 */\n      tag_31\n      swap2\n      swap1\n      tag_32\n      jump\t// in\n    tag_31:\n        /* \"contracts/HelloWorld4.sol\":879:889  randomSeed */\n      dup3\n        /* \"contracts/HelloWorld4.sol\":862:890  abi.encodePacked(randomSeed) */\n      add(0x20, mload(0x40))\n      tag_33\n      swap2\n      swap1\n      tag_34\n      jump\t// in\n    tag_33:\n      mload(0x40)\n      0x20\n      dup2\n      dup4\n      sub\n      sub\n      dup2\n      mstore\n      swap1\n      0x40\n      mstore\n        /* \"contracts/HelloWorld4.sol\":852:891  keccak256(abi.encodePacked(randomSeed)) */\n      dup1\n      mload\n      swap1\n      0x20\n      add\n      keccak256\n        /* \"contracts/HelloWorld4.sol\":844:892  uint256(keccak256(abi.encodePacked(randomSeed))) */\n      0x00\n      shr\n        /* \"contracts/HelloWorld4.sol\":844:906  uint256(keccak256(abi.encodePacked(randomSeed))) % (PRIME - 1) */\n      tag_35\n      swap2\n      swap1\n      tag_36\n      jump\t// in\n    tag_35:\n        /* \"contracts/HelloWorld4.sol\":834:838  poly */\n      dup4\n        /* \"contracts/HelloWorld4.sol\":839:840  i */\n      dup3\n        /* \"contracts/HelloWorld4.sol\":834:841  poly[i] */\n      dup2\n      mload\n      dup2\n      lt\n      tag_37\n      jumpi\n      tag_38\n      tag_27\n      jump\t// in\n    tag_38:\n    tag_37:\n      0x20\n      mul\n      0x20\n      add\n      add\n        /* \"contracts/HelloWorld4.sol\":834:906  poly[i] = uint256(keccak256(abi.encodePacked(randomSeed))) % (PRIME - 1) */\n      dup2\n      dup2\n      mstore\n      pop\n      pop\n        /* \"contracts/HelloWorld4.sol\":786:789  i++ */\n      dup1\n      dup1\n      0x01\n      add\n      swap2\n      pop\n      pop\n        /* \"contracts/HelloWorld4.sol\":753:917  for (uint256 i = 1; i < minimum; i++) {... */\n      jump(tag_28)\n    tag_29:\n      pop\n        /* \"contracts/HelloWorld4.sol\":927:952  uint256[][] memory points */\n      0x00\n        /* \"contracts/HelloWorld4.sol\":971:977  shares */\n      dup5\n        /* \"contracts/HelloWorld4.sol\":955:978  new uint256[][](shares) */\n      0xffffffffffffffff\n      dup2\n      gt\n      iszero\n      tag_39\n      jumpi\n      tag_40\n      tag_23\n      jump\t// in\n    tag_40:\n    tag_39:\n      mload(0x40)\n      swap1\n      dup1\n      dup3\n      mstore\n      dup1\n      0x20\n      mul\n      0x20\n      add\n      dup3\n      add\n      0x40\n      mstore\n      dup1\n      iszero\n      tag_41\n      jumpi\n      dup2\n      0x20\n      add\n    tag_42:\n      0x60\n      dup2\n      mstore\n      0x20\n      add\n      swap1\n      0x01\n      swap1\n      sub\n      swap1\n      dup2\n      tag_42\n      jumpi\n      swap1\n      pop\n    tag_41:\n      pop\n        /* \"contracts/HelloWorld4.sol\":927:978  uint256[][] memory points = new uint256[][](shares) */\n      swap1\n      pop\n        /* \"contracts/HelloWorld4.sol\":993:1002  uint256 i */\n      0x00\n        /* \"contracts/HelloWorld4.sol\":1005:1006  1 */\n      0x01\n        /* \"contracts/HelloWorld4.sol\":993:1006  uint256 i = 1 */\n      swap1\n      pop\n        /* \"contracts/HelloWorld4.sol\":988:1119  for (uint256 i = 1; i <= shares; i++) {... */\n    tag_43:\n        /* \"contracts/HelloWorld4.sol\":1013:1019  shares */\n      dup6\n        /* \"contracts/HelloWorld4.sol\":1008:1009  i */\n      dup2\n        /* \"contracts/HelloWorld4.sol\":1008:1019  i <= shares */\n      gt\n        /* \"contracts/HelloWorld4.sol\":988:1119  for (uint256 i = 1; i <= shares; i++) {... */\n      tag_44\n      jumpi\n        /* \"contracts/HelloWorld4.sol\":1059:1060  i */\n      dup1\n        /* \"contracts/HelloWorld4.sol\":1040:1046  points */\n      dup3\n        /* \"contracts/HelloWorld4.sol\":1051:1052  1 */\n      0x01\n        /* \"contracts/HelloWorld4.sol\":1047:1048  i */\n      dup4\n        /* \"contracts/HelloWorld4.sol\":1047:1052  i - 1 */\n      tag_46\n      swap2\n      swap1\n      tag_32\n      jump\t// in\n    tag_46:\n        /* \"contracts/HelloWorld4.sol\":1040:1053  points[i - 1] */\n      dup2\n      mload\n      dup2\n      lt\n      tag_47\n      jumpi\n      tag_48\n      tag_27\n      jump\t// in\n    tag_48:\n    tag_47:\n      0x20\n      mul\n      0x20\n      add\n      add\n      mload\n        /* \"contracts/HelloWorld4.sol\":1054:1055  0 */\n      0x00\n        /* \"contracts/HelloWorld4.sol\":1040:1056  points[i - 1][0] */\n      dup2\n      mload\n      dup2\n      lt\n      tag_49\n      jumpi\n      tag_50\n      tag_27\n      jump\t// in\n    tag_50:\n    tag_49:\n      0x20\n      mul\n      0x20\n      add\n      add\n        /* \"contracts/HelloWorld4.sol\":1040:1060  points[i - 1][0] = i */\n      dup2\n      dup2\n      mstore\n      pop\n      pop\n        /* \"contracts/HelloWorld4.sol\":1093:1108  evalAt(poly, i) */\n      tag_51\n        /* \"contracts/HelloWorld4.sol\":1100:1104  poly */\n      dup5\n        /* \"contracts/HelloWorld4.sol\":1106:1107  i */\n      dup3\n        /* \"contracts/HelloWorld4.sol\":1093:1099  evalAt */\n      tag_52\n        /* \"contracts/HelloWorld4.sol\":1093:1108  evalAt(poly, i) */\n      jump\t// in\n    tag_51:\n        /* \"contracts/HelloWorld4.sol\":1074:1080  points */\n      dup3\n        /* \"contracts/HelloWorld4.sol\":1085:1086  1 */\n      0x01\n        /* \"contracts/HelloWorld4.sol\":1081:1082  i */\n      dup4\n        /* \"contracts/HelloWorld4.sol\":1081:1086  i - 1 */\n      tag_53\n      swap2\n      swap1\n      tag_32\n      jump\t// in\n    tag_53:\n        /* \"contracts/HelloWorld4.sol\":1074:1087  points[i - 1] */\n      dup2\n      mload\n      dup2\n      lt\n      tag_54\n      jumpi\n      tag_55\n      tag_27\n      jump\t// in\n    tag_55:\n    tag_54:\n      0x20\n      mul\n      0x20\n      add\n      add\n      mload\n        /* \"contracts/HelloWorld4.sol\":1088:1089  1 */\n      0x01\n        /* \"contracts/HelloWorld4.sol\":1074:1090  points[i - 1][1] */\n      dup2\n      mload\n      dup2\n      lt\n      tag_56\n      jumpi\n      tag_57\n      tag_27\n      jump\t// in\n    tag_57:\n    tag_56:\n      0x20\n      mul\n      0x20\n      add\n      add\n        /* \"contracts/HelloWorld4.sol\":1074:1108  points[i - 1][1] = evalAt(poly, i) */\n      dup2\n      dup2\n      mstore\n      pop\n      pop\n        /* \"contracts/HelloWorld4.sol\":1021:1024  i++ */\n      dup1\n      dup1\n      tag_58\n      swap1\n      tag_59\n      jump\t// in\n    tag_58:\n      swap2\n      pop\n      pop\n        /* \"contracts/HelloWorld4.sol\":988:1119  for (uint256 i = 1; i <= shares; i++) {... */\n      jump(tag_43)\n    tag_44:\n      pop\n        /* \"contracts/HelloWorld4.sol\":1135:1141  points */\n      dup1\n        /* \"contracts/HelloWorld4.sol\":1128:1141  return points */\n      swap4\n      pop\n      pop\n      pop\n      pop\n        /* \"contracts/HelloWorld4.sol\":416:1148  function makeRandomShares(uint256 secret, uint256 minimum, uint256 shares) external pure returns (uint256[][] memory) {... */\n      swap4\n      swap3\n      pop\n      pop\n      pop\n      jump\t// out\n        /* \"contracts/HelloWorld4.sol\":3051:3515  function recoverSecret(uint256[][] memory shares) external pure returns (uint256) {... */\n    tag_14:\n        /* \"contracts/HelloWorld4.sol\":3124:3131  uint256 */\n      0x00\n        /* \"contracts/HelloWorld4.sol\":3168:3169  3 */\n      0x03\n        /* \"contracts/HelloWorld4.sol\":3151:3157  shares */\n      dup3\n        /* \"contracts/HelloWorld4.sol\":3151:3164  shares.length */\n      mload\n        /* \"contracts/HelloWorld4.sol\":3151:3169  shares.length >= 3 */\n      lt\n      iszero\n        /* \"contracts/HelloWorld4.sol\":3143:3200  require(shares.length >= 3, \"Need at least three shares\") */\n      tag_61\n      jumpi\n      mload(0x40)\n      0x08c379a000000000000000000000000000000000000000000000000000000000\n      dup2\n      mstore\n      0x04\n      add\n      tag_62\n      swap1\n      tag_63\n      jump\t// in\n    tag_62:\n      mload(0x40)\n      dup1\n      swap2\n      sub\n      swap1\n      revert\n    tag_61:\n        /* \"contracts/HelloWorld4.sol\":3211:3231  uint256[] memory x_s */\n      0x00\n        /* \"contracts/HelloWorld4.sol\":3248:3254  shares */\n      dup3\n        /* \"contracts/HelloWorld4.sol\":3248:3261  shares.length */\n      mload\n        /* \"contracts/HelloWorld4.sol\":3234:3262  new uint256[](shares.length) */\n      0xffffffffffffffff\n      dup2\n      gt\n      iszero\n      tag_64\n      jumpi\n      tag_65\n      tag_23\n      jump\t// in\n    tag_65:\n    tag_64:\n      mload(0x40)\n      swap1\n      dup1\n      dup3\n      mstore\n      dup1\n      0x20\n      mul\n      0x20\n      add\n      dup3\n      add\n      0x40\n      mstore\n      dup1\n      iszero\n      tag_66\n      jumpi\n      dup2\n      0x20\n      add\n      0x20\n      dup3\n      mul\n      dup1\n      calldatasize\n      dup4\n      calldatacopy\n      dup1\n      dup3\n      add\n      swap2\n      pop\n      pop\n      swap1\n      pop\n    tag_66:\n      pop\n        /* \"contracts/HelloWorld4.sol\":3211:3262  uint256[] memory x_s = new uint256[](shares.length) */\n      swap1\n      pop\n        /* \"contracts/HelloWorld4.sol\":3272:3292  uint256[] memory y_s */\n      0x00\n        /* \"contracts/HelloWorld4.sol\":3309:3315  shares */\n      dup4\n        /* \"contracts/HelloWorld4.sol\":3309:3322  shares.length */\n      mload\n        /* \"contracts/HelloWorld4.sol\":3295:3323  new uint256[](shares.length) */\n      0xffffffffffffffff\n      dup2\n      gt\n      iszero\n      tag_67\n      jumpi\n      tag_68\n      tag_23\n      jump\t// in\n    tag_68:\n    tag_67:\n      mload(0x40)\n      swap1\n      dup1\n      dup3\n      mstore\n      dup1\n      0x20\n      mul\n      0x20\n      add\n      dup3\n      add\n      0x40\n      mstore\n      dup1\n      iszero\n      tag_69\n      jumpi\n      dup2\n      0x20\n      add\n      0x20\n      dup3\n      mul\n      dup1\n      calldatasize\n      dup4\n      calldatacopy\n      dup1\n      dup3\n      add\n      swap2\n      pop\n      pop\n      swap1\n      pop\n    tag_69:\n      pop\n        /* \"contracts/HelloWorld4.sol\":3272:3323  uint256[] memory y_s = new uint256[](shares.length) */\n      swap1\n      pop\n        /* \"contracts/HelloWorld4.sol\":3339:3348  uint256 i */\n      0x00\n        /* \"contracts/HelloWorld4.sol\":3334:3459  for (uint256 i = 0; i < shares.length; i++) {... */\n    tag_70:\n        /* \"contracts/HelloWorld4.sol\":3358:3364  shares */\n      dup5\n        /* \"contracts/HelloWorld4.sol\":3358:3371  shares.length */\n      mload\n        /* \"contracts/HelloWorld4.sol\":3354:3355  i */\n      dup2\n        /* \"contracts/HelloWorld4.sol\":3354:3371  i < shares.length */\n      lt\n        /* \"contracts/HelloWorld4.sol\":3334:3459  for (uint256 i = 0; i < shares.length; i++) {... */\n      iszero\n      tag_71\n      jumpi\n        /* \"contracts/HelloWorld4.sol\":3401:3407  shares */\n      dup5\n        /* \"contracts/HelloWorld4.sol\":3408:3409  i */\n      dup2\n        /* \"contracts/HelloWorld4.sol\":3401:3410  shares[i] */\n      dup2\n      mload\n      dup2\n      lt\n      tag_73\n      jumpi\n      tag_74\n      tag_27\n      jump\t// in\n    tag_74:\n    tag_73:\n      0x20\n      mul\n      0x20\n      add\n      add\n      mload\n        /* \"contracts/HelloWorld4.sol\":3411:3412  0 */\n      0x00\n        /* \"contracts/HelloWorld4.sol\":3401:3413  shares[i][0] */\n      dup2\n      mload\n      dup2\n      lt\n      tag_75\n      jumpi\n      tag_76\n      tag_27\n      jump\t// in\n    tag_76:\n    tag_75:\n      0x20\n      mul\n      0x20\n      add\n      add\n      mload\n        /* \"contracts/HelloWorld4.sol\":3392:3395  x_s */\n      dup4\n        /* \"contracts/HelloWorld4.sol\":3396:3397  i */\n      dup3\n        /* \"contracts/HelloWorld4.sol\":3392:3398  x_s[i] */\n      dup2\n      mload\n      dup2\n      lt\n      tag_77\n      jumpi\n      tag_78\n      tag_27\n      jump\t// in\n    tag_78:\n    tag_77:\n      0x20\n      mul\n      0x20\n      add\n      add\n        /* \"contracts/HelloWorld4.sol\":3392:3413  x_s[i] = shares[i][0] */\n      dup2\n      dup2\n      mstore\n      pop\n      pop\n        /* \"contracts/HelloWorld4.sol\":3436:3442  shares */\n      dup5\n        /* \"contracts/HelloWorld4.sol\":3443:3444  i */\n      dup2\n        /* \"contracts/HelloWorld4.sol\":3436:3445  shares[i] */\n      dup2\n      mload\n      dup2\n      lt\n      tag_79\n      jumpi\n      tag_80\n      tag_27\n      jump\t// in\n    tag_80:\n    tag_79:\n      0x20\n      mul\n      0x20\n      add\n      add\n      mload\n        /* \"contracts/HelloWorld4.sol\":3446:3447  1 */\n      0x01\n        /* \"contracts/HelloWorld4.sol\":3436:3448  shares[i][1] */\n      dup2\n      mload\n      dup2\n      lt\n      tag_81\n      jumpi\n      tag_82\n      tag_27\n      jump\t// in\n    tag_82:\n    tag_81:\n      0x20\n      mul\n      0x20\n      add\n      add\n      mload\n        /* \"contracts/HelloWorld4.sol\":3427:3430  y_s */\n      dup3\n        /* \"contracts/HelloWorld4.sol\":3431:3432  i */\n      dup3\n        /* \"contracts/HelloWorld4.sol\":3427:3433  y_s[i] */\n      dup2\n      mload\n      dup2\n      lt\n      tag_83\n      jumpi\n      tag_84\n      tag_27\n      jump\t// in\n    tag_84:\n    tag_83:\n      0x20\n      mul\n      0x20\n      add\n      add\n        /* \"contracts/HelloWorld4.sol\":3427:3448  y_s[i] = shares[i][1] */\n      dup2\n      dup2\n      mstore\n      pop\n      pop\n        /* \"contracts/HelloWorld4.sol\":3373:3376  i++ */\n      dup1\n      dup1\n      0x01\n      add\n      swap2\n      pop\n      pop\n        /* \"contracts/HelloWorld4.sol\":3334:3459  for (uint256 i = 0; i < shares.length; i++) {... */\n      jump(tag_70)\n    tag_71:\n      pop\n        /* \"contracts/HelloWorld4.sol\":3476:3508  lagrangeInterpolate(0, x_s, y_s) */\n      tag_85\n        /* \"contracts/HelloWorld4.sol\":3496:3497  0 */\n      0x00\n        /* \"contracts/HelloWorld4.sol\":3499:3502  x_s */\n      dup4\n        /* \"contracts/HelloWorld4.sol\":3504:3507  y_s */\n      dup4\n        /* \"contracts/HelloWorld4.sol\":3476:3495  lagrangeInterpolate */\n      tag_86\n        /* \"contracts/HelloWorld4.sol\":3476:3508  lagrangeInterpolate(0, x_s, y_s) */\n      jump\t// in\n    tag_85:\n        /* \"contracts/HelloWorld4.sol\":3469:3508  return lagrangeInterpolate(0, x_s, y_s) */\n      swap3\n      pop\n      pop\n      pop\n        /* \"contracts/HelloWorld4.sol\":3051:3515  function recoverSecret(uint256[][] memory shares) external pure returns (uint256) {... */\n      swap2\n      swap1\n      pop\n      jump\t// out\n        /* \"contracts/HelloWorld4.sol\":137:410  function evalAt(uint256[] memory poly, uint256 x) internal pure returns (uint256) {... */\n    tag_52:\n        /* \"contracts/HelloWorld4.sol\":210:217  uint256 */\n      0x00\n        /* \"contracts/HelloWorld4.sol\":229:242  uint256 accum */\n      dup1\n        /* \"contracts/HelloWorld4.sol\":245:246  0 */\n      0x00\n        /* \"contracts/HelloWorld4.sol\":229:246  uint256 accum = 0 */\n      swap1\n      pop\n        /* \"contracts/HelloWorld4.sol\":261:270  uint256 i */\n      0x00\n        /* \"contracts/HelloWorld4.sol\":273:277  poly */\n      dup5\n        /* \"contracts/HelloWorld4.sol\":273:284  poly.length */\n      mload\n        /* \"contracts/HelloWorld4.sol\":261:284  uint256 i = poly.length */\n      swap1\n      pop\n        /* \"contracts/HelloWorld4.sol\":256:382  for (uint256 i = poly.length; i > 0; i--) {... */\n    tag_88:\n        /* \"contracts/HelloWorld4.sol\":290:291  0 */\n      0x00\n        /* \"contracts/HelloWorld4.sol\":286:287  i */\n      dup2\n        /* \"contracts/HelloWorld4.sol\":286:291  i > 0 */\n      gt\n        /* \"contracts/HelloWorld4.sol\":256:382  for (uint256 i = poly.length; i > 0; i--) {... */\n      iszero\n      tag_89\n      jumpi\n        /* \"contracts/HelloWorld4.sol\":332:336  poly */\n      dup5\n        /* \"contracts/HelloWorld4.sol\":341:342  1 */\n      0x01\n        /* \"contracts/HelloWorld4.sol\":337:338  i */\n      dup3\n        /* \"contracts/HelloWorld4.sol\":337:342  i - 1 */\n      tag_91\n      swap2\n      swap1\n      tag_32\n      jump\t// in\n    tag_91:\n        /* \"contracts/HelloWorld4.sol\":332:343  poly[i - 1] */\n      dup2\n      mload\n      dup2\n      lt\n      tag_92\n      jumpi\n      tag_93\n      tag_27\n      jump\t// in\n    tag_93:\n    tag_92:\n      0x20\n      mul\n      0x20\n      add\n      add\n      mload\n        /* \"contracts/HelloWorld4.sol\":328:329  x */\n      dup5\n        /* \"contracts/HelloWorld4.sol\":320:325  accum */\n      dup4\n        /* \"contracts/HelloWorld4.sol\":320:329  accum * x */\n      tag_94\n      swap2\n      swap1\n      tag_95\n      jump\t// in\n    tag_94:\n        /* \"contracts/HelloWorld4.sol\":320:343  accum * x + poly[i - 1] */\n      tag_96\n      swap2\n      swap1\n      tag_97\n      jump\t// in\n    tag_96:\n        /* \"contracts/HelloWorld4.sol\":312:343  accum = accum * x + poly[i - 1] */\n      swap2\n      pop\n        /* \"contracts/HelloWorld4.sol\":118:130  2 ** 127 - 1 */\n      0x7fffffffffffffffffffffffffffffff\n        /* \"contracts/HelloWorld4.sol\":357:371  accum %= PRIME */\n      dup3\n      tag_98\n      swap2\n      swap1\n      tag_36\n      jump\t// in\n    tag_98:\n      swap2\n      pop\n        /* \"contracts/HelloWorld4.sol\":293:296  i-- */\n      dup1\n      dup1\n      tag_99\n      swap1\n      tag_100\n      jump\t// in\n    tag_99:\n      swap2\n      pop\n      pop\n        /* \"contracts/HelloWorld4.sol\":256:382  for (uint256 i = poly.length; i > 0; i--) {... */\n      jump(tag_88)\n    tag_89:\n      pop\n        /* \"contracts/HelloWorld4.sol\":398:403  accum */\n      dup1\n        /* \"contracts/HelloWorld4.sol\":391:403  return accum */\n      swap2\n      pop\n      pop\n        /* \"contracts/HelloWorld4.sol\":137:410  function evalAt(uint256[] memory poly, uint256 x) internal pure returns (uint256) {... */\n      swap3\n      swap2\n      pop\n      pop\n      jump\t// out\n        /* \"contracts/HelloWorld4.sol\":1786:3045  function lagrangeInterpolate(uint256 x, uint256[] memory x_s, uint256[] memory y_s) internal pure returns (uint256) {... */\n    tag_86:\n        /* \"contracts/HelloWorld4.sol\":1893:1900  uint256 */\n      0x00\n        /* \"contracts/HelloWorld4.sol\":1934:1937  y_s */\n      dup2\n        /* \"contracts/HelloWorld4.sol\":1934:1944  y_s.length */\n      mload\n        /* \"contracts/HelloWorld4.sol\":1920:1923  x_s */\n      dup4\n        /* \"contracts/HelloWorld4.sol\":1920:1930  x_s.length */\n      mload\n        /* \"contracts/HelloWorld4.sol\":1920:1944  x_s.length == y_s.length */\n      eq\n        /* \"contracts/HelloWorld4.sol\":1912:1980  require(x_s.length == y_s.length, \"Arrays should have equal length\") */\n      tag_102\n      jumpi\n      mload(0x40)\n      0x08c379a000000000000000000000000000000000000000000000000000000000\n      dup2\n      mstore\n      0x04\n      add\n      tag_103\n      swap1\n      tag_104\n      jump\t// in\n    tag_103:\n      mload(0x40)\n      dup1\n      swap2\n      sub\n      swap1\n      revert\n    tag_102:\n        /* \"contracts/HelloWorld4.sol\":1991:2000  uint256 k */\n      0x00\n        /* \"contracts/HelloWorld4.sol\":2003:2006  x_s */\n      dup4\n        /* \"contracts/HelloWorld4.sol\":2003:2013  x_s.length */\n      mload\n        /* \"contracts/HelloWorld4.sol\":1991:2013  uint256 k = x_s.length */\n      swap1\n      pop\n        /* \"contracts/HelloWorld4.sol\":2023:2034  uint256 num */\n      0x00\n        /* \"contracts/HelloWorld4.sol\":2044:2055  uint256 den */\n      dup1\n        /* \"contracts/HelloWorld4.sol\":2065:2086  uint256[] memory nums */\n      0x00\n        /* \"contracts/HelloWorld4.sol\":2103:2104  k */\n      dup4\n        /* \"contracts/HelloWorld4.sol\":2089:2105  new uint256[](k) */\n      0xffffffffffffffff\n      dup2\n      gt\n      iszero\n      tag_105\n      jumpi\n      tag_106\n      tag_23\n      jump\t// in\n    tag_106:\n    tag_105:\n      mload(0x40)\n      swap1\n      dup1\n      dup3\n      mstore\n      dup1\n      0x20\n      mul\n      0x20\n      add\n      dup3\n      add\n      0x40\n      mstore\n      dup1\n      iszero\n      tag_107\n      jumpi\n      dup2\n      0x20\n      add\n      0x20\n      dup3\n      mul\n      dup1\n      calldatasize\n      dup4\n      calldatacopy\n      dup1\n      dup3\n      add\n      swap2\n      pop\n      pop\n      swap1\n      pop\n    tag_107:\n      pop\n        /* \"contracts/HelloWorld4.sol\":2065:2105  uint256[] memory nums = new uint256[](k) */\n      swap1\n      pop\n        /* \"contracts/HelloWorld4.sol\":2115:2136  uint256[] memory dens */\n      0x00\n        /* \"contracts/HelloWorld4.sol\":2153:2154  k */\n      dup5\n        /* \"contracts/HelloWorld4.sol\":2139:2155  new uint256[](k) */\n      0xffffffffffffffff\n      dup2\n      gt\n      iszero\n      tag_108\n      jumpi\n      tag_109\n      tag_23\n      jump\t// in\n    tag_109:\n    tag_108:\n      mload(0x40)\n      swap1\n      dup1\n      dup3\n      mstore\n      dup1\n      0x20\n      mul\n      0x20\n      add\n      dup3\n      add\n      0x40\n      mstore\n      dup1\n      iszero\n      tag_110\n      jumpi\n      dup2\n      0x20\n      add\n      0x20\n      dup3\n      mul\n      dup1\n      calldatasize\n      dup4\n      calldatacopy\n      dup1\n      dup3\n      add\n      swap2\n      pop\n      pop\n      swap1\n      pop\n    tag_110:\n      pop\n        /* \"contracts/HelloWorld4.sol\":2115:2155  uint256[] memory dens = new uint256[](k) */\n      swap1\n      pop\n        /* \"contracts/HelloWorld4.sol\":2171:2180  uint256 i */\n      0x00\n        /* \"contracts/HelloWorld4.sol\":2166:2790  for (uint256 i = 0; i < k; i++) {... */\n    tag_111:\n        /* \"contracts/HelloWorld4.sol\":2190:2191  k */\n      dup6\n        /* \"contracts/HelloWorld4.sol\":2186:2187  i */\n      dup2\n        /* \"contracts/HelloWorld4.sol\":2186:2191  i < k */\n      lt\n        /* \"contracts/HelloWorld4.sol\":2166:2790  for (uint256 i = 0; i < k; i++) {... */\n      iszero\n      tag_112\n      jumpi\n        /* \"contracts/HelloWorld4.sol\":2212:2235  uint256[] memory others */\n      0x00\n        /* \"contracts/HelloWorld4.sol\":2256:2257  1 */\n      0x01\n        /* \"contracts/HelloWorld4.sol\":2252:2253  k */\n      dup8\n        /* \"contracts/HelloWorld4.sol\":2252:2257  k - 1 */\n      tag_114\n      swap2\n      swap1\n      tag_32\n      jump\t// in\n    tag_114:\n        /* \"contracts/HelloWorld4.sol\":2238:2258  new uint256[](k - 1) */\n      0xffffffffffffffff\n      dup2\n      gt\n      iszero\n      tag_115\n      jumpi\n      tag_116\n      tag_23\n      jump\t// in\n    tag_116:\n    tag_115:\n      mload(0x40)\n      swap1\n      dup1\n      dup3\n      mstore\n      dup1\n      0x20\n      mul\n      0x20\n      add\n      dup3\n      add\n      0x40\n      mstore\n      dup1\n      iszero\n      tag_117\n      jumpi\n      dup2\n      0x20\n      add\n      0x20\n      dup3\n      mul\n      dup1\n      calldatasize\n      dup4\n      calldatacopy\n      dup1\n      dup3\n      add\n      swap2\n      pop\n      pop\n      swap1\n      pop\n    tag_117:\n      pop\n        /* \"contracts/HelloWorld4.sol\":2212:2258  uint256[] memory others = new uint256[](k - 1) */\n      swap1\n      pop\n        /* \"contracts/HelloWorld4.sol\":2272:2283  uint256 cur */\n      0x00\n        /* \"contracts/HelloWorld4.sol\":2286:2289  x_s */\n      dup11\n        /* \"contracts/HelloWorld4.sol\":2290:2291  i */\n      dup4\n        /* \"contracts/HelloWorld4.sol\":2286:2292  x_s[i] */\n      dup2\n      mload\n      dup2\n      lt\n      tag_118\n      jumpi\n      tag_119\n      tag_27\n      jump\t// in\n    tag_119:\n    tag_118:\n      0x20\n      mul\n      0x20\n      add\n      add\n      mload\n        /* \"contracts/HelloWorld4.sol\":2272:2292  uint256 cur = x_s[i] */\n      swap1\n      pop\n        /* \"contracts/HelloWorld4.sol\":2306:2319  uint256 index */\n      0x00\n        /* \"contracts/HelloWorld4.sol\":2342:2351  uint256 j */\n      dup1\n        /* \"contracts/HelloWorld4.sol\":2337:2478  for (uint256 j = 0; j < k; j++) {... */\n    tag_120:\n        /* \"contracts/HelloWorld4.sol\":2361:2362  k */\n      dup10\n        /* \"contracts/HelloWorld4.sol\":2357:2358  j */\n      dup2\n        /* \"contracts/HelloWorld4.sol\":2357:2362  j < k */\n      lt\n        /* \"contracts/HelloWorld4.sol\":2337:2478  for (uint256 j = 0; j < k; j++) {... */\n      iszero\n      tag_121\n      jumpi\n        /* \"contracts/HelloWorld4.sol\":2396:2397  i */\n      dup5\n        /* \"contracts/HelloWorld4.sol\":2391:2392  j */\n      dup2\n        /* \"contracts/HelloWorld4.sol\":2391:2397  j != i */\n      eq\n        /* \"contracts/HelloWorld4.sol\":2387:2464  if (j != i) {... */\n      tag_123\n      jumpi\n        /* \"contracts/HelloWorld4.sol\":2439:2442  x_s */\n      dup13\n        /* \"contracts/HelloWorld4.sol\":2443:2444  j */\n      dup2\n        /* \"contracts/HelloWorld4.sol\":2439:2445  x_s[j] */\n      dup2\n      mload\n      dup2\n      lt\n      tag_124\n      jumpi\n      tag_125\n      tag_27\n      jump\t// in\n    tag_125:\n    tag_124:\n      0x20\n      mul\n      0x20\n      add\n      add\n      mload\n        /* \"contracts/HelloWorld4.sol\":2421:2427  others */\n      dup5\n        /* \"contracts/HelloWorld4.sol\":2428:2435  index++ */\n      dup4\n      dup1\n      tag_126\n      swap1\n      tag_59\n      jump\t// in\n    tag_126:\n      swap5\n      pop\n        /* \"contracts/HelloWorld4.sol\":2421:2436  others[index++] */\n      dup2\n      mload\n      dup2\n      lt\n      tag_127\n      jumpi\n      tag_128\n      tag_27\n      jump\t// in\n    tag_128:\n    tag_127:\n      0x20\n      mul\n      0x20\n      add\n      add\n        /* \"contracts/HelloWorld4.sol\":2421:2445  others[index++] = x_s[j] */\n      dup2\n      dup2\n      mstore\n      pop\n      pop\n        /* \"contracts/HelloWorld4.sol\":2387:2464  if (j != i) {... */\n    tag_123:\n        /* \"contracts/HelloWorld4.sol\":2364:2367  j++ */\n      dup1\n      dup1\n      0x01\n      add\n      swap2\n      pop\n      pop\n        /* \"contracts/HelloWorld4.sol\":2337:2478  for (uint256 j = 0; j < k; j++) {... */\n      jump(tag_120)\n    tag_121:\n      pop\n        /* \"contracts/HelloWorld4.sol\":2501:2502  1 */\n      0x01\n        /* \"contracts/HelloWorld4.sol\":2491:2495  nums */\n      dup7\n        /* \"contracts/HelloWorld4.sol\":2496:2497  i */\n      dup6\n        /* \"contracts/HelloWorld4.sol\":2491:2498  nums[i] */\n      dup2\n      mload\n      dup2\n      lt\n      tag_129\n      jumpi\n      tag_130\n      tag_27\n      jump\t// in\n    tag_130:\n    tag_129:\n      0x20\n      mul\n      0x20\n      add\n      add\n        /* \"contracts/HelloWorld4.sol\":2491:2502  nums[i] = 1 */\n      dup2\n      dup2\n      mstore\n      pop\n      pop\n        /* \"contracts/HelloWorld4.sol\":2521:2530  uint256 j */\n      0x00\n        /* \"contracts/HelloWorld4.sol\":2516:2628  for (uint256 j = 0; j < k - 1; j++) {... */\n    tag_131:\n        /* \"contracts/HelloWorld4.sol\":2544:2545  1 */\n      0x01\n        /* \"contracts/HelloWorld4.sol\":2540:2541  k */\n      dup11\n        /* \"contracts/HelloWorld4.sol\":2540:2545  k - 1 */\n      tag_134\n      swap2\n      swap1\n      tag_32\n      jump\t// in\n    tag_134:\n        /* \"contracts/HelloWorld4.sol\":2536:2537  j */\n      dup2\n        /* \"contracts/HelloWorld4.sol\":2536:2545  j < k - 1 */\n      lt\n        /* \"contracts/HelloWorld4.sol\":2516:2628  for (uint256 j = 0; j < k - 1; j++) {... */\n      iszero\n      tag_132\n      jumpi\n        /* \"contracts/HelloWorld4.sol\":118:130  2 ** 127 - 1 */\n      0x7fffffffffffffffffffffffffffffff\n        /* \"contracts/HelloWorld4.sol\":2595:2601  others */\n      dup5\n        /* \"contracts/HelloWorld4.sol\":2602:2603  j */\n      dup3\n        /* \"contracts/HelloWorld4.sol\":2595:2604  others[j] */\n      dup2\n      mload\n      dup2\n      lt\n      tag_135\n      jumpi\n      tag_136\n      tag_27\n      jump\t// in\n    tag_136:\n    tag_135:\n      0x20\n      mul\n      0x20\n      add\n      add\n      mload\n        /* \"contracts/HelloWorld4.sol\":2591:2592  x */\n      dup16\n        /* \"contracts/HelloWorld4.sol\":2591:2604  x - others[j] */\n      tag_137\n      swap2\n      swap1\n      tag_32\n      jump\t// in\n    tag_137:\n        /* \"contracts/HelloWorld4.sol\":2580:2584  nums */\n      dup9\n        /* \"contracts/HelloWorld4.sol\":2585:2586  i */\n      dup8\n        /* \"contracts/HelloWorld4.sol\":2580:2587  nums[i] */\n      dup2\n      mload\n      dup2\n      lt\n      tag_138\n      jumpi\n      tag_139\n      tag_27\n      jump\t// in\n    tag_139:\n    tag_138:\n      0x20\n      mul\n      0x20\n      add\n      add\n      mload\n        /* \"contracts/HelloWorld4.sol\":2580:2605  nums[i] * (x - others[j]) */\n      tag_140\n      swap2\n      swap1\n      tag_95\n      jump\t// in\n    tag_140:\n        /* \"contracts/HelloWorld4.sol\":2580:2613  nums[i] * (x - others[j]) % PRIME */\n      tag_141\n      swap2\n      swap1\n      tag_36\n      jump\t// in\n    tag_141:\n        /* \"contracts/HelloWorld4.sol\":2570:2574  nums */\n      dup8\n        /* \"contracts/HelloWorld4.sol\":2575:2576  i */\n      dup7\n        /* \"contracts/HelloWorld4.sol\":2570:2577  nums[i] */\n      dup2\n      mload\n      dup2\n      lt\n      tag_142\n      jumpi\n      tag_143\n      tag_27\n      jump\t// in\n    tag_143:\n    tag_142:\n      0x20\n      mul\n      0x20\n      add\n      add\n        /* \"contracts/HelloWorld4.sol\":2570:2613  nums[i] = nums[i] * (x - others[j]) % PRIME */\n      dup2\n      dup2\n      mstore\n      pop\n      pop\n        /* \"contracts/HelloWorld4.sol\":2547:2550  j++ */\n      dup1\n      dup1\n      0x01\n      add\n      swap2\n      pop\n      pop\n        /* \"contracts/HelloWorld4.sol\":2516:2628  for (uint256 j = 0; j < k - 1; j++) {... */\n      jump(tag_131)\n    tag_132:\n      pop\n        /* \"contracts/HelloWorld4.sol\":2651:2652  1 */\n      0x01\n        /* \"contracts/HelloWorld4.sol\":2641:2645  dens */\n      dup6\n        /* \"contracts/HelloWorld4.sol\":2646:2647  i */\n      dup6\n        /* \"contracts/HelloWorld4.sol\":2641:2648  dens[i] */\n      dup2\n      mload\n      dup2\n      lt\n      tag_144\n      jumpi\n      tag_145\n      tag_27\n      jump\t// in\n    tag_145:\n    tag_144:\n      0x20\n      mul\n      0x20\n      add\n      add\n        /* \"contracts/HelloWorld4.sol\":2641:2652  dens[i] = 1 */\n      dup2\n      dup2\n      mstore\n      pop\n      pop\n        /* \"contracts/HelloWorld4.sol\":2671:2680  uint256 j */\n      0x00\n        /* \"contracts/HelloWorld4.sol\":2666:2780  for (uint256 j = 0; j < k - 1; j++) {... */\n    tag_146:\n        /* \"contracts/HelloWorld4.sol\":2694:2695  1 */\n      0x01\n        /* \"contracts/HelloWorld4.sol\":2690:2691  k */\n      dup11\n        /* \"contracts/HelloWorld4.sol\":2690:2695  k - 1 */\n      tag_149\n      swap2\n      swap1\n      tag_32\n      jump\t// in\n    tag_149:\n        /* \"contracts/HelloWorld4.sol\":2686:2687  j */\n      dup2\n        /* \"contracts/HelloWorld4.sol\":2686:2695  j < k - 1 */\n      lt\n        /* \"contracts/HelloWorld4.sol\":2666:2780  for (uint256 j = 0; j < k - 1; j++) {... */\n      iszero\n      tag_147\n      jumpi\n        /* \"contracts/HelloWorld4.sol\":118:130  2 ** 127 - 1 */\n      0x7fffffffffffffffffffffffffffffff\n        /* \"contracts/HelloWorld4.sol\":2747:2753  others */\n      dup5\n        /* \"contracts/HelloWorld4.sol\":2754:2755  j */\n      dup3\n        /* \"contracts/HelloWorld4.sol\":2747:2756  others[j] */\n      dup2\n      mload\n      dup2\n      lt\n      tag_150\n      jumpi\n      tag_151\n      tag_27\n      jump\t// in\n    tag_151:\n    tag_150:\n      0x20\n      mul\n      0x20\n      add\n      add\n      mload\n        /* \"contracts/HelloWorld4.sol\":2741:2744  cur */\n      dup5\n        /* \"contracts/HelloWorld4.sol\":2741:2756  cur - others[j] */\n      tag_152\n      swap2\n      swap1\n      tag_32\n      jump\t// in\n    tag_152:\n        /* \"contracts/HelloWorld4.sol\":2730:2734  dens */\n      dup8\n        /* \"contracts/HelloWorld4.sol\":2735:2736  i */\n      dup8\n        /* \"contracts/HelloWorld4.sol\":2730:2737  dens[i] */\n      dup2\n      mload\n      dup2\n      lt\n      tag_153\n      jumpi\n      tag_154\n      tag_27\n      jump\t// in\n    tag_154:\n    tag_153:\n      0x20\n      mul\n      0x20\n      add\n      add\n      mload\n        /* \"contracts/HelloWorld4.sol\":2730:2757  dens[i] * (cur - others[j]) */\n      tag_155\n      swap2\n      swap1\n      tag_95\n      jump\t// in\n    tag_155:\n        /* \"contracts/HelloWorld4.sol\":2730:2765  dens[i] * (cur - others[j]) % PRIME */\n      tag_156\n      swap2\n      swap1\n      tag_36\n      jump\t// in\n    tag_156:\n        /* \"contracts/HelloWorld4.sol\":2720:2724  dens */\n      dup7\n        /* \"contracts/HelloWorld4.sol\":2725:2726  i */\n      dup7\n        /* \"contracts/HelloWorld4.sol\":2720:2727  dens[i] */\n      dup2\n      mload\n      dup2\n      lt\n      tag_157\n      jumpi\n      tag_158\n      tag_27\n      jump\t// in\n    tag_158:\n    tag_157:\n      0x20\n      mul\n      0x20\n      add\n      add\n        /* \"contracts/HelloWorld4.sol\":2720:2765  dens[i] = dens[i] * (cur - others[j]) % PRIME */\n      dup2\n      dup2\n      mstore\n      pop\n      pop\n        /* \"contracts/HelloWorld4.sol\":2697:2700  j++ */\n      dup1\n      dup1\n      0x01\n      add\n      swap2\n      pop\n      pop\n        /* \"contracts/HelloWorld4.sol\":2666:2780  for (uint256 j = 0; j < k - 1; j++) {... */\n      jump(tag_146)\n    tag_147:\n      pop\n        /* \"contracts/HelloWorld4.sol\":2198:2790  {... */\n      pop\n      pop\n      pop\n        /* \"contracts/HelloWorld4.sol\":2193:2196  i++ */\n      dup1\n      dup1\n      0x01\n      add\n      swap2\n      pop\n      pop\n        /* \"contracts/HelloWorld4.sol\":2166:2790  for (uint256 i = 0; i < k; i++) {... */\n      jump(tag_111)\n    tag_112:\n      pop\n        /* \"contracts/HelloWorld4.sol\":2805:2814  uint256 i */\n      0x00\n        /* \"contracts/HelloWorld4.sol\":2800:3006  for (uint256 i = 0; i < k; i++) {... */\n    tag_159:\n        /* \"contracts/HelloWorld4.sol\":2824:2825  k */\n      dup6\n        /* \"contracts/HelloWorld4.sol\":2820:2821  i */\n      dup2\n        /* \"contracts/HelloWorld4.sol\":2820:2825  i < k */\n      lt\n        /* \"contracts/HelloWorld4.sol\":2800:3006  for (uint256 i = 0; i < k; i++) {... */\n      iszero\n      tag_160\n      jumpi\n        /* \"contracts/HelloWorld4.sol\":118:130  2 ** 127 - 1 */\n      0x7fffffffffffffffffffffffffffffff\n        /* \"contracts/HelloWorld4.sol\":2859:2918  divmod(nums[i] * dens[i] % PRIME * y_s[i] % PRIME, dens[i]) */\n      tag_162\n        /* \"contracts/HelloWorld4.sol\":118:130  2 ** 127 - 1 */\n      0x7fffffffffffffffffffffffffffffff\n        /* \"contracts/HelloWorld4.sol\":2894:2897  y_s */\n      dup11\n        /* \"contracts/HelloWorld4.sol\":2898:2899  i */\n      dup5\n        /* \"contracts/HelloWorld4.sol\":2894:2900  y_s[i] */\n      dup2\n      mload\n      dup2\n      lt\n      tag_163\n      jumpi\n      tag_164\n      tag_27\n      jump\t// in\n    tag_164:\n    tag_163:\n      0x20\n      mul\n      0x20\n      add\n      add\n      mload\n        /* \"contracts/HelloWorld4.sol\":118:130  2 ** 127 - 1 */\n      0x7fffffffffffffffffffffffffffffff\n        /* \"contracts/HelloWorld4.sol\":2876:2880  dens */\n      dup7\n        /* \"contracts/HelloWorld4.sol\":2881:2882  i */\n      dup7\n        /* \"contracts/HelloWorld4.sol\":2876:2883  dens[i] */\n      dup2\n      mload\n      dup2\n      lt\n      tag_165\n      jumpi\n      tag_166\n      tag_27\n      jump\t// in\n    tag_166:\n    tag_165:\n      0x20\n      mul\n      0x20\n      add\n      add\n      mload\n        /* \"contracts/HelloWorld4.sol\":2866:2870  nums */\n      dup9\n        /* \"contracts/HelloWorld4.sol\":2871:2872  i */\n      dup8\n        /* \"contracts/HelloWorld4.sol\":2866:2873  nums[i] */\n      dup2\n      mload\n      dup2\n      lt\n      tag_167\n      jumpi\n      tag_168\n      tag_27\n      jump\t// in\n    tag_168:\n    tag_167:\n      0x20\n      mul\n      0x20\n      add\n      add\n      mload\n        /* \"contracts/HelloWorld4.sol\":2866:2883  nums[i] * dens[i] */\n      tag_169\n      swap2\n      swap1\n      tag_95\n      jump\t// in\n    tag_169:\n        /* \"contracts/HelloWorld4.sol\":2866:2891  nums[i] * dens[i] % PRIME */\n      tag_170\n      swap2\n      swap1\n      tag_36\n      jump\t// in\n    tag_170:\n        /* \"contracts/HelloWorld4.sol\":2866:2900  nums[i] * dens[i] % PRIME * y_s[i] */\n      tag_171\n      swap2\n      swap1\n      tag_95\n      jump\t// in\n    tag_171:\n        /* \"contracts/HelloWorld4.sol\":2866:2908  nums[i] * dens[i] % PRIME * y_s[i] % PRIME */\n      tag_172\n      swap2\n      swap1\n      tag_36\n      jump\t// in\n    tag_172:\n        /* \"contracts/HelloWorld4.sol\":2910:2914  dens */\n      dup5\n        /* \"contracts/HelloWorld4.sol\":2915:2916  i */\n      dup5\n        /* \"contracts/HelloWorld4.sol\":2910:2917  dens[i] */\n      dup2\n      mload\n      dup2\n      lt\n      tag_173\n      jumpi\n      tag_174\n      tag_27\n      jump\t// in\n    tag_174:\n    tag_173:\n      0x20\n      mul\n      0x20\n      add\n      add\n      mload\n        /* \"contracts/HelloWorld4.sol\":2859:2865  divmod */\n      tag_175\n        /* \"contracts/HelloWorld4.sol\":2859:2918  divmod(nums[i] * dens[i] % PRIME * y_s[i] % PRIME, dens[i]) */\n      jump\t// in\n    tag_162:\n        /* \"contracts/HelloWorld4.sol\":2853:2856  num */\n      dup7\n        /* \"contracts/HelloWorld4.sol\":2853:2918  num + divmod(nums[i] * dens[i] % PRIME * y_s[i] % PRIME, dens[i]) */\n      tag_176\n      swap2\n      swap1\n      tag_97\n      jump\t// in\n    tag_176:\n        /* \"contracts/HelloWorld4.sol\":2852:2927  (num + divmod(nums[i] * dens[i] % PRIME * y_s[i] % PRIME, dens[i])) % PRIME */\n      tag_177\n      swap2\n      swap1\n      tag_36\n      jump\t// in\n    tag_177:\n        /* \"contracts/HelloWorld4.sol\":2846:2927  num = (num + divmod(nums[i] * dens[i] % PRIME * y_s[i] % PRIME, dens[i])) % PRIME */\n      swap5\n      pop\n        /* \"contracts/HelloWorld4.sol\":118:130  2 ** 127 - 1 */\n      0x7fffffffffffffffffffffffffffffff\n        /* \"contracts/HelloWorld4.sol\":2962:2986  divmod(nums[i], dens[i]) */\n      tag_178\n        /* \"contracts/HelloWorld4.sol\":2969:2973  nums */\n      dup5\n        /* \"contracts/HelloWorld4.sol\":2974:2975  i */\n      dup4\n        /* \"contracts/HelloWorld4.sol\":2969:2976  nums[i] */\n      dup2\n      mload\n      dup2\n      lt\n      tag_179\n      jumpi\n      tag_180\n      tag_27\n      jump\t// in\n    tag_180:\n    tag_179:\n      0x20\n      mul\n      0x20\n      add\n      add\n      mload\n        /* \"contracts/HelloWorld4.sol\":2978:2982  dens */\n      dup5\n        /* \"contracts/HelloWorld4.sol\":2983:2984  i */\n      dup5\n        /* \"contracts/HelloWorld4.sol\":2978:2985  dens[i] */\n      dup2\n      mload\n      dup2\n      lt\n      tag_181\n      jumpi\n      tag_182\n      tag_27\n      jump\t// in\n    tag_182:\n    tag_181:\n      0x20\n      mul\n      0x20\n      add\n      add\n      mload\n        /* \"contracts/HelloWorld4.sol\":2962:2968  divmod */\n      tag_175\n        /* \"contracts/HelloWorld4.sol\":2962:2986  divmod(nums[i], dens[i]) */\n      jump\t// in\n    tag_178:\n        /* \"contracts/HelloWorld4.sol\":118:130  2 ** 127 - 1 */\n      0x7fffffffffffffffffffffffffffffff\n        /* \"contracts/HelloWorld4.sol\":2948:2951  den */\n      dup7\n        /* \"contracts/HelloWorld4.sol\":2948:2959  den + PRIME */\n      tag_183\n      swap2\n      swap1\n      tag_97\n      jump\t// in\n    tag_183:\n        /* \"contracts/HelloWorld4.sol\":2948:2986  den + PRIME - divmod(nums[i], dens[i]) */\n      tag_184\n      swap2\n      swap1\n      tag_32\n      jump\t// in\n    tag_184:\n        /* \"contracts/HelloWorld4.sol\":2947:2995  (den + PRIME - divmod(nums[i], dens[i])) % PRIME */\n      tag_185\n      swap2\n      swap1\n      tag_36\n      jump\t// in\n    tag_185:\n        /* \"contracts/HelloWorld4.sol\":2941:2995  den = (den + PRIME - divmod(nums[i], dens[i])) % PRIME */\n      swap4\n      pop\n        /* \"contracts/HelloWorld4.sol\":2827:2830  i++ */\n      dup1\n      dup1\n      0x01\n      add\n      swap2\n      pop\n      pop\n        /* \"contracts/HelloWorld4.sol\":2800:3006  for (uint256 i = 0; i < k; i++) {... */\n      jump(tag_159)\n    tag_160:\n      pop\n        /* \"contracts/HelloWorld4.sol\":3022:3038  divmod(num, den) */\n      tag_186\n        /* \"contracts/HelloWorld4.sol\":3029:3032  num */\n      dup5\n        /* \"contracts/HelloWorld4.sol\":3034:3037  den */\n      dup5\n        /* \"contracts/HelloWorld4.sol\":3022:3028  divmod */\n      tag_175\n        /* \"contracts/HelloWorld4.sol\":3022:3038  divmod(num, den) */\n      jump\t// in\n    tag_186:\n        /* \"contracts/HelloWorld4.sol\":3015:3038  return divmod(num, den) */\n      swap6\n      pop\n      pop\n      pop\n      pop\n      pop\n      pop\n        /* \"contracts/HelloWorld4.sol\":1786:3045  function lagrangeInterpolate(uint256 x, uint256[] memory x_s, uint256[] memory y_s) internal pure returns (uint256) {... */\n      swap4\n      swap3\n      pop\n      pop\n      pop\n      jump\t// out\n        /* \"contracts/HelloWorld4.sol\":1614:1780  function divmod(uint256 num, uint256 den) internal pure returns (uint256) {... */\n    tag_175:\n        /* \"contracts/HelloWorld4.sol\":1679:1686  uint256 */\n      0x00\n        /* \"contracts/HelloWorld4.sol\":1699:1710  uint256 inv */\n      dup1\n        /* \"contracts/HelloWorld4.sol\":1716:1739  extendedGcd(den, PRIME) */\n      tag_188\n        /* \"contracts/HelloWorld4.sol\":1728:1731  den */\n      dup4\n        /* \"contracts/HelloWorld4.sol\":118:130  2 ** 127 - 1 */\n      0x7fffffffffffffffffffffffffffffff\n        /* \"contracts/HelloWorld4.sol\":1716:1727  extendedGcd */\n      tag_189\n        /* \"contracts/HelloWorld4.sol\":1716:1739  extendedGcd(den, PRIME) */\n      jump\t// in\n    tag_188:\n        /* \"contracts/HelloWorld4.sol\":1698:1739  (uint256 inv, ) = extendedGcd(den, PRIME) */\n      pop\n      swap1\n      pop\n        /* \"contracts/HelloWorld4.sol\":118:130  2 ** 127 - 1 */\n      0x7fffffffffffffffffffffffffffffff\n        /* \"contracts/HelloWorld4.sol\":1762:1765  inv */\n      dup2\n        /* \"contracts/HelloWorld4.sol\":1756:1759  num */\n      dup6\n        /* \"contracts/HelloWorld4.sol\":1756:1765  num * inv */\n      tag_190\n      swap2\n      swap1\n      tag_95\n      jump\t// in\n    tag_190:\n        /* \"contracts/HelloWorld4.sol\":1756:1773  num * inv % PRIME */\n      tag_191\n      swap2\n      swap1\n      tag_36\n      jump\t// in\n    tag_191:\n        /* \"contracts/HelloWorld4.sol\":1749:1773  return num * inv % PRIME */\n      swap2\n      pop\n      pop\n        /* \"contracts/HelloWorld4.sol\":1614:1780  function divmod(uint256 num, uint256 den) internal pure returns (uint256) {... */\n      swap3\n      swap2\n      pop\n      pop\n      jump\t// out\n        /* \"contracts/HelloWorld4.sol\":1154:1608  function extendedGcd(uint256 a, uint256 b) internal pure returns (uint256, uint256) {... */\n    tag_189:\n        /* \"contracts/HelloWorld4.sol\":1220:1227  uint256 */\n      0x00\n        /* \"contracts/HelloWorld4.sol\":1229:1236  uint256 */\n      dup1\n        /* \"contracts/HelloWorld4.sol\":1248:1256  int256 x */\n      0x00\n        /* \"contracts/HelloWorld4.sol\":1270:1282  int256 lastX */\n      dup1\n        /* \"contracts/HelloWorld4.sol\":1285:1286  1 */\n      0x01\n        /* \"contracts/HelloWorld4.sol\":1270:1286  int256 lastX = 1 */\n      swap1\n      pop\n        /* \"contracts/HelloWorld4.sol\":1296:1304  int256 y */\n      0x00\n        /* \"contracts/HelloWorld4.sol\":1307:1308  1 */\n      0x01\n        /* \"contracts/HelloWorld4.sol\":1296:1308  int256 y = 1 */\n      swap1\n      pop\n        /* \"contracts/HelloWorld4.sol\":1318:1330  int256 lastY */\n      0x00\n        /* \"contracts/HelloWorld4.sol\":1345:1553  while (b != 0) {... */\n    tag_193:\n        /* \"contracts/HelloWorld4.sol\":1357:1358  0 */\n      0x00\n        /* \"contracts/HelloWorld4.sol\":1352:1353  b */\n      dup8\n        /* \"contracts/HelloWorld4.sol\":1352:1358  b != 0 */\n      eq\n        /* \"contracts/HelloWorld4.sol\":1345:1553  while (b != 0) {... */\n      tag_194\n      jumpi\n        /* \"contracts/HelloWorld4.sol\":1374:1389  int256 quotient */\n      0x00\n        /* \"contracts/HelloWorld4.sol\":1403:1404  b */\n      dup8\n        /* \"contracts/HelloWorld4.sol\":1399:1400  a */\n      dup10\n        /* \"contracts/HelloWorld4.sol\":1399:1404  a / b */\n      tag_195\n      swap2\n      swap1\n      tag_196\n      jump\t// in\n    tag_195:\n        /* \"contracts/HelloWorld4.sol\":1374:1405  int256 quotient = int256(a / b) */\n      swap1\n      pop\n        /* \"contracts/HelloWorld4.sol\":1429:1430  b */\n      dup8\n        /* \"contracts/HelloWorld4.sol\":1436:1437  b */\n      dup9\n        /* \"contracts/HelloWorld4.sol\":1432:1433  a */\n      dup11\n        /* \"contracts/HelloWorld4.sol\":1432:1437  a % b */\n      tag_197\n      swap2\n      swap1\n      tag_36\n      jump\t// in\n    tag_197:\n        /* \"contracts/HelloWorld4.sol\":1419:1438  (a, b) = (b, a % b) */\n      dup1\n      swap10\n      pop\n      dup2\n      swap11\n      pop\n      pop\n      pop\n        /* \"contracts/HelloWorld4.sol\":1485:1486  x */\n      dup5\n        /* \"contracts/HelloWorld4.sol\":1474:1482  quotient */\n      dup2\n        /* \"contracts/HelloWorld4.sol\":1474:1486  quotient * x */\n      tag_198\n      swap2\n      swap1\n      tag_199\n      jump\t// in\n    tag_198:\n        /* \"contracts/HelloWorld4.sol\":1466:1471  lastX */\n      dup5\n        /* \"contracts/HelloWorld4.sol\":1466:1486  lastX - quotient * x */\n      tag_200\n      swap2\n      swap1\n      tag_201\n      jump\t// in\n    tag_200:\n        /* \"contracts/HelloWorld4.sol\":1488:1489  x */\n      dup6\n        /* \"contracts/HelloWorld4.sol\":1452:1490  (x, lastX) = (lastX - quotient * x, x) */\n      dup1\n      swap6\n      pop\n      dup2\n      swap7\n      pop\n      pop\n      pop\n        /* \"contracts/HelloWorld4.sol\":1537:1538  y */\n      dup3\n        /* \"contracts/HelloWorld4.sol\":1526:1534  quotient */\n      dup2\n        /* \"contracts/HelloWorld4.sol\":1526:1538  quotient * y */\n      tag_202\n      swap2\n      swap1\n      tag_199\n      jump\t// in\n    tag_202:\n        /* \"contracts/HelloWorld4.sol\":1518:1523  lastY */\n      dup3\n        /* \"contracts/HelloWorld4.sol\":1518:1538  lastY - quotient * y */\n      tag_203\n      swap2\n      swap1\n      tag_201\n      jump\t// in\n    tag_203:\n        /* \"contracts/HelloWorld4.sol\":1540:1541  y */\n      dup4\n        /* \"contracts/HelloWorld4.sol\":1504:1542  (y, lastY) = (lastY - quotient * y, y) */\n      dup1\n      swap4\n      pop\n      dup2\n      swap5\n      pop\n      pop\n      pop\n        /* \"contracts/HelloWorld4.sol\":1360:1553  {... */\n      pop\n        /* \"contracts/HelloWorld4.sol\":1345:1553  while (b != 0) {... */\n      jump(tag_193)\n    tag_194:\n        /* \"contracts/HelloWorld4.sol\":1578:1583  lastX */\n      dup3\n        /* \"contracts/HelloWorld4.sol\":1594:1599  lastY */\n      dup2\n        /* \"contracts/HelloWorld4.sol\":1562:1601  return (uint256(lastX), uint256(lastY)) */\n      swap6\n      pop\n      swap6\n      pop\n      pop\n      pop\n      pop\n      pop\n        /* \"contracts/HelloWorld4.sol\":1154:1608  function extendedGcd(uint256 a, uint256 b) internal pure returns (uint256, uint256) {... */\n      swap3\n      pop\n      swap3\n      swap1\n      pop\n      jump\t// out\n        /* \"#utility.yul\":7:82   */\n    tag_204:\n        /* \"#utility.yul\":40:46   */\n      0x00\n        /* \"#utility.yul\":73:75   */\n      0x40\n        /* \"#utility.yul\":67:76   */\n      mload\n        /* \"#utility.yul\":57:76   */\n      swap1\n      pop\n        /* \"#utility.yul\":7:82   */\n      swap1\n      jump\t// out\n        /* \"#utility.yul\":88:205   */\n    tag_205:\n        /* \"#utility.yul\":197:198   */\n      0x00\n        /* \"#utility.yul\":194:195   */\n      dup1\n        /* \"#utility.yul\":187:199   */\n      revert\n        /* \"#utility.yul\":211:328   */\n    tag_206:\n        /* \"#utility.yul\":320:321   */\n      0x00\n        /* \"#utility.yul\":317:318   */\n      dup1\n        /* \"#utility.yul\":310:322   */\n      revert\n        /* \"#utility.yul\":334:411   */\n    tag_207:\n        /* \"#utility.yul\":371:378   */\n      0x00\n        /* \"#utility.yul\":400:405   */\n      dup2\n        /* \"#utility.yul\":389:405   */\n      swap1\n      pop\n        /* \"#utility.yul\":334:411   */\n      swap2\n      swap1\n      pop\n      jump\t// out\n        /* \"#utility.yul\":417:539   */\n    tag_208:\n        /* \"#utility.yul\":490:514   */\n      tag_253\n        /* \"#utility.yul\":508:513   */\n      dup2\n        /* \"#utility.yul\":490:514   */\n      tag_207\n      jump\t// in\n    tag_253:\n        /* \"#utility.yul\":483:488   */\n      dup2\n        /* \"#utility.yul\":480:515   */\n      eq\n        /* \"#utility.yul\":470:533   */\n      tag_254\n      jumpi\n        /* \"#utility.yul\":529:530   */\n      0x00\n        /* \"#utility.yul\":526:527   */\n      dup1\n        /* \"#utility.yul\":519:531   */\n      revert\n        /* \"#utility.yul\":470:533   */\n    tag_254:\n        /* \"#utility.yul\":417:539   */\n      pop\n      jump\t// out\n        /* \"#utility.yul\":545:684   */\n    tag_209:\n        /* \"#utility.yul\":591:596   */\n      0x00\n        /* \"#utility.yul\":629:635   */\n      dup2\n        /* \"#utility.yul\":616:636   */\n      calldataload\n        /* \"#utility.yul\":607:636   */\n      swap1\n      pop\n        /* \"#utility.yul\":645:678   */\n      tag_256\n        /* \"#utility.yul\":672:677   */\n      dup2\n        /* \"#utility.yul\":645:678   */\n      tag_208\n      jump\t// in\n    tag_256:\n        /* \"#utility.yul\":545:684   */\n      swap3\n      swap2\n      pop\n      pop\n      jump\t// out\n        /* \"#utility.yul\":690:1309   */\n    tag_7:\n        /* \"#utility.yul\":767:773   */\n      0x00\n        /* \"#utility.yul\":775:781   */\n      dup1\n        /* \"#utility.yul\":783:789   */\n      0x00\n        /* \"#utility.yul\":832:834   */\n      0x60\n        /* \"#utility.yul\":820:829   */\n      dup5\n        /* \"#utility.yul\":811:818   */\n      dup7\n        /* \"#utility.yul\":807:830   */\n      sub\n        /* \"#utility.yul\":803:835   */\n      slt\n        /* \"#utility.yul\":800:919   */\n      iszero\n      tag_258\n      jumpi\n        /* \"#utility.yul\":838:917   */\n      tag_259\n      tag_205\n      jump\t// in\n    tag_259:\n        /* \"#utility.yul\":800:919   */\n    tag_258:\n        /* \"#utility.yul\":958:959   */\n      0x00\n        /* \"#utility.yul\":983:1036   */\n      tag_260\n        /* \"#utility.yul\":1028:1035   */\n      dup7\n        /* \"#utility.yul\":1019:1025   */\n      dup3\n        /* \"#utility.yul\":1008:1017   */\n      dup8\n        /* \"#utility.yul\":1004:1026   */\n      add\n        /* \"#utility.yul\":983:1036   */\n      tag_209\n      jump\t// in\n    tag_260:\n        /* \"#utility.yul\":973:1036   */\n      swap4\n      pop\n        /* \"#utility.yul\":929:1046   */\n      pop\n        /* \"#utility.yul\":1085:1087   */\n      0x20\n        /* \"#utility.yul\":1111:1164   */\n      tag_261\n        /* \"#utility.yul\":1156:1163   */\n      dup7\n        /* \"#utility.yul\":1147:1153   */\n      dup3\n        /* \"#utility.yul\":1136:1145   */\n      dup8\n        /* \"#utility.yul\":1132:1154   */\n      add\n        /* \"#utility.yul\":1111:1164   */\n      tag_209\n      jump\t// in\n    tag_261:\n        /* \"#utility.yul\":1101:1164   */\n      swap3\n      pop\n        /* \"#utility.yul\":1056:1174   */\n      pop\n        /* \"#utility.yul\":1213:1215   */\n      0x40\n        /* \"#utility.yul\":1239:1292   */\n      tag_262\n        /* \"#utility.yul\":1284:1291   */\n      dup7\n        /* \"#utility.yul\":1275:1281   */\n      dup3\n        /* \"#utility.yul\":1264:1273   */\n      dup8\n        /* \"#utility.yul\":1260:1282   */\n      add\n        /* \"#utility.yul\":1239:1292   */\n      tag_209\n      jump\t// in\n    tag_262:\n        /* \"#utility.yul\":1229:1292   */\n      swap2\n      pop\n        /* \"#utility.yul\":1184:1302   */\n      pop\n        /* \"#utility.yul\":690:1309   */\n      swap3\n      pop\n      swap3\n      pop\n      swap3\n      jump\t// out\n        /* \"#utility.yul\":1315:1454   */\n    tag_210:\n        /* \"#utility.yul\":1407:1413   */\n      0x00\n        /* \"#utility.yul\":1441:1446   */\n      dup2\n        /* \"#utility.yul\":1435:1447   */\n      mload\n        /* \"#utility.yul\":1425:1447   */\n      swap1\n      pop\n        /* \"#utility.yul\":1315:1454   */\n      swap2\n      swap1\n      pop\n      jump\t// out\n        /* \"#utility.yul\":1460:1669   */\n    tag_211:\n        /* \"#utility.yul\":1584:1595   */\n      0x00\n        /* \"#utility.yul\":1618:1624   */\n      dup3\n        /* \"#utility.yul\":1613:1616   */\n      dup3\n        /* \"#utility.yul\":1606:1625   */\n      mstore\n        /* \"#utility.yul\":1658:1662   */\n      0x20\n        /* \"#utility.yul\":1653:1656   */\n      dup3\n        /* \"#utility.yul\":1649:1663   */\n      add\n        /* \"#utility.yul\":1634:1663   */\n      swap1\n      pop\n        /* \"#utility.yul\":1460:1669   */\n      swap3\n      swap2\n      pop\n      pop\n      jump\t// out\n        /* \"#utility.yul\":1675:1832   */\n    tag_212:\n        /* \"#utility.yul\":1767:1771   */\n      0x00\n        /* \"#utility.yul\":1790:1793   */\n      dup2\n        /* \"#utility.yul\":1782:1793   */\n      swap1\n      pop\n        /* \"#utility.yul\":1820:1824   */\n      0x20\n        /* \"#utility.yul\":1815:1818   */\n      dup3\n        /* \"#utility.yul\":1811:1825   */\n      add\n        /* \"#utility.yul\":1803:1825   */\n      swap1\n      pop\n        /* \"#utility.yul\":1675:1832   */\n      swap2\n      swap1\n      pop\n      jump\t// out\n        /* \"#utility.yul\":1838:1952   */\n    tag_213:\n        /* \"#utility.yul\":1905:1911   */\n      0x00\n        /* \"#utility.yul\":1939:1944   */\n      dup2\n        /* \"#utility.yul\":1933:1945   */\n      mload\n        /* \"#utility.yul\":1923:1945   */\n      swap1\n      pop\n        /* \"#utility.yul\":1838:1952   */\n      swap2\n      swap1\n      pop\n      jump\t// out\n        /* \"#utility.yul\":1958:2132   */\n    tag_214:\n        /* \"#utility.yul\":2047:2058   */\n      0x00\n        /* \"#utility.yul\":2081:2087   */\n      dup3\n        /* \"#utility.yul\":2076:2079   */\n      dup3\n        /* \"#utility.yul\":2069:2088   */\n      mstore\n        /* \"#utility.yul\":2121:2125   */\n      0x20\n        /* \"#utility.yul\":2116:2119   */\n      dup3\n        /* \"#utility.yul\":2112:2126   */\n      add\n        /* \"#utility.yul\":2097:2126   */\n      swap1\n      pop\n        /* \"#utility.yul\":1958:2132   */\n      swap3\n      swap2\n      pop\n      pop\n      jump\t// out\n        /* \"#utility.yul\":2138:2270   */\n    tag_215:\n        /* \"#utility.yul\":2205:2209   */\n      0x00\n        /* \"#utility.yul\":2228:2231   */\n      dup2\n        /* \"#utility.yul\":2220:2231   */\n      swap1\n      pop\n        /* \"#utility.yul\":2258:2262   */\n      0x20\n        /* \"#utility.yul\":2253:2256   */\n      dup3\n        /* \"#utility.yul\":2249:2263   */\n      add\n        /* \"#utility.yul\":2241:2263   */\n      swap1\n      pop\n        /* \"#utility.yul\":2138:2270   */\n      swap2\n      swap1\n      pop\n      jump\t// out\n        /* \"#utility.yul\":2276:2384   */\n    tag_216:\n        /* \"#utility.yul\":2353:2377   */\n      tag_270\n        /* \"#utility.yul\":2371:2376   */\n      dup2\n        /* \"#utility.yul\":2353:2377   */\n      tag_207\n      jump\t// in\n    tag_270:\n        /* \"#utility.yul\":2348:2351   */\n      dup3\n        /* \"#utility.yul\":2341:2378   */\n      mstore\n        /* \"#utility.yul\":2276:2384   */\n      pop\n      pop\n      jump\t// out\n        /* \"#utility.yul\":2390:2569   */\n    tag_217:\n        /* \"#utility.yul\":2459:2469   */\n      0x00\n        /* \"#utility.yul\":2480:2526   */\n      tag_272\n        /* \"#utility.yul\":2522:2525   */\n      dup4\n        /* \"#utility.yul\":2514:2520   */\n      dup4\n        /* \"#utility.yul\":2480:2526   */\n      tag_216\n      jump\t// in\n    tag_272:\n        /* \"#utility.yul\":2558:2562   */\n      0x20\n        /* \"#utility.yul\":2553:2556   */\n      dup4\n        /* \"#utility.yul\":2549:2563   */\n      add\n        /* \"#utility.yul\":2535:2563   */\n      swap1\n      pop\n        /* \"#utility.yul\":2390:2569   */\n      swap3\n      swap2\n      pop\n      pop\n      jump\t// out\n        /* \"#utility.yul\":2575:2688   */\n    tag_218:\n        /* \"#utility.yul\":2645:2649   */\n      0x00\n        /* \"#utility.yul\":2677:2681   */\n      0x20\n        /* \"#utility.yul\":2672:2675   */\n      dup3\n        /* \"#utility.yul\":2668:2682   */\n      add\n        /* \"#utility.yul\":2660:2682   */\n      swap1\n      pop\n        /* \"#utility.yul\":2575:2688   */\n      swap2\n      swap1\n      pop\n      jump\t// out\n        /* \"#utility.yul\":2724:3436   */\n    tag_219:\n        /* \"#utility.yul\":2833:2836   */\n      0x00\n        /* \"#utility.yul\":2862:2916   */\n      tag_275\n        /* \"#utility.yul\":2910:2915   */\n      dup3\n        /* \"#utility.yul\":2862:2916   */\n      tag_213\n      jump\t// in\n    tag_275:\n        /* \"#utility.yul\":2932:3008   */\n      tag_276\n        /* \"#utility.yul\":3001:3007   */\n      dup2\n        /* \"#utility.yul\":2996:2999   */\n      dup6\n        /* \"#utility.yul\":2932:3008   */\n      tag_214\n      jump\t// in\n    tag_276:\n        /* \"#utility.yul\":2925:3008   */\n      swap4\n      pop\n        /* \"#utility.yul\":3032:3088   */\n      tag_277\n        /* \"#utility.yul\":3082:3087   */\n      dup4\n        /* \"#utility.yul\":3032:3088   */\n      tag_215\n      jump\t// in\n    tag_277:\n        /* \"#utility.yul\":3111:3118   */\n      dup1\n        /* \"#utility.yul\":3142:3143   */\n      0x00\n        /* \"#utility.yul\":3127:3411   */\n    tag_278:\n        /* \"#utility.yul\":3152:3158   */\n      dup4\n        /* \"#utility.yul\":3149:3150   */\n      dup2\n        /* \"#utility.yul\":3146:3159   */\n      lt\n        /* \"#utility.yul\":3127:3411   */\n      iszero\n      tag_280\n      jumpi\n        /* \"#utility.yul\":3228:3234   */\n      dup2\n        /* \"#utility.yul\":3222:3235   */\n      mload\n        /* \"#utility.yul\":3255:3318   */\n      tag_281\n        /* \"#utility.yul\":3314:3317   */\n      dup9\n        /* \"#utility.yul\":3299:3312   */\n      dup3\n        /* \"#utility.yul\":3255:3318   */\n      tag_217\n      jump\t// in\n    tag_281:\n        /* \"#utility.yul\":3248:3318   */\n      swap8\n      pop\n        /* \"#utility.yul\":3341:3401   */\n      tag_282\n        /* \"#utility.yul\":3394:3400   */\n      dup4\n        /* \"#utility.yul\":3341:3401   */\n      tag_218\n      jump\t// in\n    tag_282:\n        /* \"#utility.yul\":3331:3401   */\n      swap3\n      pop\n        /* \"#utility.yul\":3187:3411   */\n      pop\n        /* \"#utility.yul\":3174:3175   */\n      0x01\n        /* \"#utility.yul\":3171:3172   */\n      dup2\n        /* \"#utility.yul\":3167:3176   */\n      add\n        /* \"#utility.yul\":3162:3176   */\n      swap1\n      pop\n        /* \"#utility.yul\":3127:3411   */\n      jump(tag_278)\n    tag_280:\n        /* \"#utility.yul\":3131:3145   */\n      pop\n        /* \"#utility.yul\":3427:3430   */\n      dup6\n        /* \"#utility.yul\":3420:3430   */\n      swap4\n      pop\n        /* \"#utility.yul\":2838:3436   */\n      pop\n      pop\n      pop\n        /* \"#utility.yul\":2724:3436   */\n      swap3\n      swap2\n      pop\n      pop\n      jump\t// out\n        /* \"#utility.yul\":3442:3698   */\n    tag_220:\n        /* \"#utility.yul\":3561:3571   */\n      0x00\n        /* \"#utility.yul\":3596:3692   */\n      tag_284\n        /* \"#utility.yul\":3688:3691   */\n      dup4\n        /* \"#utility.yul\":3680:3686   */\n      dup4\n        /* \"#utility.yul\":3596:3692   */\n      tag_219\n      jump\t// in\n    tag_284:\n        /* \"#utility.yul\":3582:3692   */\n      swap1\n      pop\n        /* \"#utility.yul\":3442:3698   */\n      swap3\n      swap2\n      pop\n      pop\n      jump\t// out\n        /* \"#utility.yul\":3704:3842   */\n    tag_221:\n        /* \"#utility.yul\":3799:3803   */\n      0x00\n        /* \"#utility.yul\":3831:3835   */\n      0x20\n        /* \"#utility.yul\":3826:3829   */\n      dup3\n        /* \"#utility.yul\":3822:3836   */\n      add\n        /* \"#utility.yul\":3814:3836   */\n      swap1\n      pop\n        /* \"#utility.yul\":3704:3842   */\n      swap2\n      swap1\n      pop\n      jump\t// out\n        /* \"#utility.yul\":3882:4993   */\n    tag_222:\n        /* \"#utility.yul\":4051:4054   */\n      0x00\n        /* \"#utility.yul\":4080:4159   */\n      tag_287\n        /* \"#utility.yul\":4153:4158   */\n      dup3\n        /* \"#utility.yul\":4080:4159   */\n      tag_210\n      jump\t// in\n    tag_287:\n        /* \"#utility.yul\":4175:4286   */\n      tag_288\n        /* \"#utility.yul\":4279:4285   */\n      dup2\n        /* \"#utility.yul\":4274:4277   */\n      dup6\n        /* \"#utility.yul\":4175:4286   */\n      tag_211\n      jump\t// in\n    tag_288:\n        /* \"#utility.yul\":4168:4286   */\n      swap4\n      pop\n        /* \"#utility.yul\":4312:4315   */\n      dup4\n        /* \"#utility.yul\":4357:4361   */\n      0x20\n        /* \"#utility.yul\":4349:4355   */\n      dup3\n        /* \"#utility.yul\":4345:4362   */\n      mul\n        /* \"#utility.yul\":4340:4343   */\n      dup6\n        /* \"#utility.yul\":4336:4363   */\n      add\n        /* \"#utility.yul\":4387:4468   */\n      tag_289\n        /* \"#utility.yul\":4462:4467   */\n      dup6\n        /* \"#utility.yul\":4387:4468   */\n      tag_212\n      jump\t// in\n    tag_289:\n        /* \"#utility.yul\":4491:4498   */\n      dup1\n        /* \"#utility.yul\":4522:4523   */\n      0x00\n        /* \"#utility.yul\":4507:4948   */\n    tag_290:\n        /* \"#utility.yul\":4532:4538   */\n      dup6\n        /* \"#utility.yul\":4529:4530   */\n      dup2\n        /* \"#utility.yul\":4526:4539   */\n      lt\n        /* \"#utility.yul\":4507:4948   */\n      iszero\n      tag_292\n      jumpi\n        /* \"#utility.yul\":4603:4612   */\n      dup5\n        /* \"#utility.yul\":4597:4601   */\n      dup5\n        /* \"#utility.yul\":4593:4613   */\n      sub\n        /* \"#utility.yul\":4588:4591   */\n      dup10\n        /* \"#utility.yul\":4581:4614   */\n      mstore\n        /* \"#utility.yul\":4654:4660   */\n      dup2\n        /* \"#utility.yul\":4648:4661   */\n      mload\n        /* \"#utility.yul\":4682:4796   */\n      tag_293\n        /* \"#utility.yul\":4791:4795   */\n      dup6\n        /* \"#utility.yul\":4776:4789   */\n      dup3\n        /* \"#utility.yul\":4682:4796   */\n      tag_220\n      jump\t// in\n    tag_293:\n        /* \"#utility.yul\":4674:4796   */\n      swap5\n      pop\n        /* \"#utility.yul\":4819:4904   */\n      tag_294\n        /* \"#utility.yul\":4897:4903   */\n      dup4\n        /* \"#utility.yul\":4819:4904   */\n      tag_221\n      jump\t// in\n    tag_294:\n        /* \"#utility.yul\":4809:4904   */\n      swap3\n      pop\n        /* \"#utility.yul\":4933:4937   */\n      0x20\n        /* \"#utility.yul\":4928:4931   */\n      dup11\n        /* \"#utility.yul\":4924:4938   */\n      add\n        /* \"#utility.yul\":4917:4938   */\n      swap10\n      pop\n        /* \"#utility.yul\":4567:4948   */\n      pop\n        /* \"#utility.yul\":4554:4555   */\n      0x01\n        /* \"#utility.yul\":4551:4552   */\n      dup2\n        /* \"#utility.yul\":4547:4556   */\n      add\n        /* \"#utility.yul\":4542:4556   */\n      swap1\n      pop\n        /* \"#utility.yul\":4507:4948   */\n      jump(tag_290)\n    tag_292:\n        /* \"#utility.yul\":4511:4525   */\n      pop\n        /* \"#utility.yul\":4964:4968   */\n      dup3\n        /* \"#utility.yul\":4957:4968   */\n      swap8\n      pop\n        /* \"#utility.yul\":4984:4987   */\n      dup8\n        /* \"#utility.yul\":4977:4987   */\n      swap6\n      pop\n        /* \"#utility.yul\":4056:4993   */\n      pop\n      pop\n      pop\n      pop\n      pop\n        /* \"#utility.yul\":3882:4993   */\n      swap3\n      swap2\n      pop\n      pop\n      jump\t// out\n        /* \"#utility.yul\":4999:5472   */\n    tag_10:\n        /* \"#utility.yul\":5192:5196   */\n      0x00\n        /* \"#utility.yul\":5230:5232   */\n      0x20\n        /* \"#utility.yul\":5219:5228   */\n      dup3\n        /* \"#utility.yul\":5215:5233   */\n      add\n        /* \"#utility.yul\":5207:5233   */\n      swap1\n      pop\n        /* \"#utility.yul\":5279:5288   */\n      dup2\n        /* \"#utility.yul\":5273:5277   */\n      dup2\n        /* \"#utility.yul\":5269:5289   */\n      sub\n        /* \"#utility.yul\":5265:5266   */\n      0x00\n        /* \"#utility.yul\":5254:5263   */\n      dup4\n        /* \"#utility.yul\":5250:5267   */\n      add\n        /* \"#utility.yul\":5243:5290   */\n      mstore\n        /* \"#utility.yul\":5307:5465   */\n      tag_296\n        /* \"#utility.yul\":5460:5464   */\n      dup2\n        /* \"#utility.yul\":5451:5457   */\n      dup5\n        /* \"#utility.yul\":5307:5465   */\n      tag_222\n      jump\t// in\n    tag_296:\n        /* \"#utility.yul\":5299:5465   */\n      swap1\n      pop\n        /* \"#utility.yul\":4999:5472   */\n      swap3\n      swap2\n      pop\n      pop\n      jump\t// out\n        /* \"#utility.yul\":5478:5595   */\n    tag_223:\n        /* \"#utility.yul\":5587:5588   */\n      0x00\n        /* \"#utility.yul\":5584:5585   */\n      dup1\n        /* \"#utility.yul\":5577:5589   */\n      revert\n        /* \"#utility.yul\":5601:5703   */\n    tag_224:\n        /* \"#utility.yul\":5642:5648   */\n      0x00\n        /* \"#utility.yul\":5693:5695   */\n      0x1f\n        /* \"#utility.yul\":5689:5696   */\n      not\n        /* \"#utility.yul\":5684:5686   */\n      0x1f\n        /* \"#utility.yul\":5677:5682   */\n      dup4\n        /* \"#utility.yul\":5673:5687   */\n      add\n        /* \"#utility.yul\":5669:5697   */\n      and\n        /* \"#utility.yul\":5659:5697   */\n      swap1\n      pop\n        /* \"#utility.yul\":5601:5703   */\n      swap2\n      swap1\n      pop\n      jump\t// out\n        /* \"#utility.yul\":5709:5889   */\n    tag_23:\n        /* \"#utility.yul\":5757:5834   */\n      0x4e487b7100000000000000000000000000000000000000000000000000000000\n        /* \"#utility.yul\":5754:5755   */\n      0x00\n        /* \"#utility.yul\":5747:5835   */\n      mstore\n        /* \"#utility.yul\":5854:5858   */\n      0x41\n        /* \"#utility.yul\":5851:5852   */\n      0x04\n        /* \"#utility.yul\":5844:5859   */\n      mstore\n        /* \"#utility.yul\":5878:5882   */\n      0x24\n        /* \"#utility.yul\":5875:5876   */\n      0x00\n        /* \"#utility.yul\":5868:5883   */\n      revert\n        /* \"#utility.yul\":5895:6176   */\n    tag_225:\n        /* \"#utility.yul\":5978:6005   */\n      tag_301\n        /* \"#utility.yul\":6000:6004   */\n      dup3\n        /* \"#utility.yul\":5978:6005   */\n      tag_224\n      jump\t// in\n    tag_301:\n        /* \"#utility.yul\":5970:5976   */\n      dup2\n        /* \"#utility.yul\":5966:6006   */\n      add\n        /* \"#utility.yul\":6108:6114   */\n      dup2\n        /* \"#utility.yul\":6096:6106   */\n      dup2\n        /* \"#utility.yul\":6093:6115   */\n      lt\n        /* \"#utility.yul\":6072:6090   */\n      0xffffffffffffffff\n        /* \"#utility.yul\":6060:6070   */\n      dup3\n        /* \"#utility.yul\":6057:6091   */\n      gt\n        /* \"#utility.yul\":6054:6116   */\n      or\n        /* \"#utility.yul\":6051:6139   */\n      iszero\n      tag_302\n      jumpi\n        /* \"#utility.yul\":6119:6137   */\n      tag_303\n      tag_23\n      jump\t// in\n    tag_303:\n        /* \"#utility.yul\":6051:6139   */\n    tag_302:\n        /* \"#utility.yul\":6159:6169   */\n      dup1\n        /* \"#utility.yul\":6155:6157   */\n      0x40\n        /* \"#utility.yul\":6148:6170   */\n      mstore\n        /* \"#utility.yul\":5938:6176   */\n      pop\n        /* \"#utility.yul\":5895:6176   */\n      pop\n      pop\n      jump\t// out\n        /* \"#utility.yul\":6182:6311   */\n    tag_226:\n        /* \"#utility.yul\":6216:6222   */\n      0x00\n        /* \"#utility.yul\":6243:6263   */\n      tag_305\n      tag_204\n      jump\t// in\n    tag_305:\n        /* \"#utility.yul\":6233:6263   */\n      swap1\n      pop\n        /* \"#utility.yul\":6272:6305   */\n      tag_306\n        /* \"#utility.yul\":6300:6304   */\n      dup3\n        /* \"#utility.yul\":6292:6298   */\n      dup3\n        /* \"#utility.yul\":6272:6305   */\n      tag_225\n      jump\t// in\n    tag_306:\n        /* \"#utility.yul\":6182:6311   */\n      swap2\n      swap1\n      pop\n      jump\t// out\n        /* \"#utility.yul\":6317:6653   */\n    tag_227:\n        /* \"#utility.yul\":6419:6423   */\n      0x00\n        /* \"#utility.yul\":6509:6527   */\n      0xffffffffffffffff\n        /* \"#utility.yul\":6501:6507   */\n      dup3\n        /* \"#utility.yul\":6498:6528   */\n      gt\n        /* \"#utility.yul\":6495:6551   */\n      iszero\n      tag_308\n      jumpi\n        /* \"#utility.yul\":6531:6549   */\n      tag_309\n      tag_23\n      jump\t// in\n    tag_309:\n        /* \"#utility.yul\":6495:6551   */\n    tag_308:\n        /* \"#utility.yul\":6581:6585   */\n      0x20\n        /* \"#utility.yul\":6573:6579   */\n      dup3\n        /* \"#utility.yul\":6569:6586   */\n      mul\n        /* \"#utility.yul\":6561:6586   */\n      swap1\n      pop\n        /* \"#utility.yul\":6641:6645   */\n      0x20\n        /* \"#utility.yul\":6635:6639   */\n      dup2\n        /* \"#utility.yul\":6631:6646   */\n      add\n        /* \"#utility.yul\":6623:6646   */\n      swap1\n      pop\n        /* \"#utility.yul\":6317:6653   */\n      swap2\n      swap1\n      pop\n      jump\t// out\n        /* \"#utility.yul\":6659:6776   */\n    tag_228:\n        /* \"#utility.yul\":6768:6769   */\n      0x00\n        /* \"#utility.yul\":6765:6766   */\n      dup1\n        /* \"#utility.yul\":6758:6770   */\n      revert\n        /* \"#utility.yul\":6782:7093   */\n    tag_229:\n        /* \"#utility.yul\":6859:6863   */\n      0x00\n        /* \"#utility.yul\":6949:6967   */\n      0xffffffffffffffff\n        /* \"#utility.yul\":6941:6947   */\n      dup3\n        /* \"#utility.yul\":6938:6968   */\n      gt\n        /* \"#utility.yul\":6935:6991   */\n      iszero\n      tag_312\n      jumpi\n        /* \"#utility.yul\":6971:6989   */\n      tag_313\n      tag_23\n      jump\t// in\n    tag_313:\n        /* \"#utility.yul\":6935:6991   */\n    tag_312:\n        /* \"#utility.yul\":7021:7025   */\n      0x20\n        /* \"#utility.yul\":7013:7019   */\n      dup3\n        /* \"#utility.yul\":7009:7026   */\n      mul\n        /* \"#utility.yul\":7001:7026   */\n      swap1\n      pop\n        /* \"#utility.yul\":7081:7085   */\n      0x20\n        /* \"#utility.yul\":7075:7079   */\n      dup2\n        /* \"#utility.yul\":7071:7086   */\n      add\n        /* \"#utility.yul\":7063:7086   */\n      swap1\n      pop\n        /* \"#utility.yul\":6782:7093   */\n      swap2\n      swap1\n      pop\n      jump\t// out\n        /* \"#utility.yul\":7116:7826   */\n    tag_230:\n        /* \"#utility.yul\":7212:7217   */\n      0x00\n        /* \"#utility.yul\":7237:7318   */\n      tag_315\n        /* \"#utility.yul\":7253:7317   */\n      tag_316\n        /* \"#utility.yul\":7310:7316   */\n      dup5\n        /* \"#utility.yul\":7253:7317   */\n      tag_229\n      jump\t// in\n    tag_316:\n        /* \"#utility.yul\":7237:7318   */\n      tag_226\n      jump\t// in\n    tag_315:\n        /* \"#utility.yul\":7228:7318   */\n      swap1\n      pop\n        /* \"#utility.yul\":7338:7343   */\n      dup1\n        /* \"#utility.yul\":7367:7373   */\n      dup4\n        /* \"#utility.yul\":7360:7365   */\n      dup3\n        /* \"#utility.yul\":7353:7374   */\n      mstore\n        /* \"#utility.yul\":7401:7405   */\n      0x20\n        /* \"#utility.yul\":7394:7399   */\n      dup3\n        /* \"#utility.yul\":7390:7406   */\n      add\n        /* \"#utility.yul\":7383:7406   */\n      swap1\n      pop\n        /* \"#utility.yul\":7454:7458   */\n      0x20\n        /* \"#utility.yul\":7446:7452   */\n      dup5\n        /* \"#utility.yul\":7442:7459   */\n      mul\n        /* \"#utility.yul\":7434:7440   */\n      dup4\n        /* \"#utility.yul\":7430:7460   */\n      add\n        /* \"#utility.yul\":7483:7486   */\n      dup6\n        /* \"#utility.yul\":7475:7481   */\n      dup2\n        /* \"#utility.yul\":7472:7487   */\n      gt\n        /* \"#utility.yul\":7469:7591   */\n      iszero\n      tag_317\n      jumpi\n        /* \"#utility.yul\":7502:7581   */\n      tag_318\n      tag_228\n      jump\t// in\n    tag_318:\n        /* \"#utility.yul\":7469:7591   */\n    tag_317:\n        /* \"#utility.yul\":7617:7623   */\n      dup4\n        /* \"#utility.yul\":7600:7820   */\n    tag_319:\n        /* \"#utility.yul\":7634:7640   */\n      dup2\n        /* \"#utility.yul\":7629:7632   */\n      dup2\n        /* \"#utility.yul\":7626:7641   */\n      lt\n        /* \"#utility.yul\":7600:7820   */\n      iszero\n      tag_321\n      jumpi\n        /* \"#utility.yul\":7709:7712   */\n      dup1\n        /* \"#utility.yul\":7738:7775   */\n      tag_322\n        /* \"#utility.yul\":7771:7774   */\n      dup9\n        /* \"#utility.yul\":7759:7769   */\n      dup3\n        /* \"#utility.yul\":7738:7775   */\n      tag_209\n      jump\t// in\n    tag_322:\n        /* \"#utility.yul\":7733:7736   */\n      dup5\n        /* \"#utility.yul\":7726:7776   */\n      mstore\n        /* \"#utility.yul\":7805:7809   */\n      0x20\n        /* \"#utility.yul\":7800:7803   */\n      dup5\n        /* \"#utility.yul\":7796:7810   */\n      add\n        /* \"#utility.yul\":7789:7810   */\n      swap4\n      pop\n        /* \"#utility.yul\":7676:7820   */\n      pop\n        /* \"#utility.yul\":7660:7664   */\n      0x20\n        /* \"#utility.yul\":7655:7658   */\n      dup2\n        /* \"#utility.yul\":7651:7665   */\n      add\n        /* \"#utility.yul\":7644:7665   */\n      swap1\n      pop\n        /* \"#utility.yul\":7600:7820   */\n      jump(tag_319)\n    tag_321:\n        /* \"#utility.yul\":7604:7625   */\n      pop\n        /* \"#utility.yul\":7218:7826   */\n      pop\n      pop\n        /* \"#utility.yul\":7116:7826   */\n      swap4\n      swap3\n      pop\n      pop\n      pop\n      jump\t// out\n        /* \"#utility.yul\":7849:8219   */\n    tag_231:\n        /* \"#utility.yul\":7920:7925   */\n      0x00\n        /* \"#utility.yul\":7969:7972   */\n      dup3\n        /* \"#utility.yul\":7962:7966   */\n      0x1f\n        /* \"#utility.yul\":7954:7960   */\n      dup4\n        /* \"#utility.yul\":7950:7967   */\n      add\n        /* \"#utility.yul\":7946:7973   */\n      slt\n        /* \"#utility.yul\":7936:8058   */\n      tag_324\n      jumpi\n        /* \"#utility.yul\":7977:8056   */\n      tag_325\n      tag_223\n      jump\t// in\n    tag_325:\n        /* \"#utility.yul\":7936:8058   */\n    tag_324:\n        /* \"#utility.yul\":8094:8100   */\n      dup2\n        /* \"#utility.yul\":8081:8101   */\n      calldataload\n        /* \"#utility.yul\":8119:8213   */\n      tag_326\n        /* \"#utility.yul\":8209:8212   */\n      dup5\n        /* \"#utility.yul\":8201:8207   */\n      dup3\n        /* \"#utility.yul\":8194:8198   */\n      0x20\n        /* \"#utility.yul\":8186:8192   */\n      dup7\n        /* \"#utility.yul\":8182:8199   */\n      add\n        /* \"#utility.yul\":8119:8213   */\n      tag_230\n      jump\t// in\n    tag_326:\n        /* \"#utility.yul\":8110:8213   */\n      swap2\n      pop\n        /* \"#utility.yul\":7926:8219   */\n      pop\n        /* \"#utility.yul\":7849:8219   */\n      swap3\n      swap2\n      pop\n      pop\n      jump\t// out\n        /* \"#utility.yul\":8244:9234   */\n    tag_232:\n        /* \"#utility.yul\":8365:8370   */\n      0x00\n        /* \"#utility.yul\":8390:8496   */\n      tag_328\n        /* \"#utility.yul\":8406:8495   */\n      tag_329\n        /* \"#utility.yul\":8488:8494   */\n      dup5\n        /* \"#utility.yul\":8406:8495   */\n      tag_227\n      jump\t// in\n    tag_329:\n        /* \"#utility.yul\":8390:8496   */\n      tag_226\n      jump\t// in\n    tag_328:\n        /* \"#utility.yul\":8381:8496   */\n      swap1\n      pop\n        /* \"#utility.yul\":8516:8521   */\n      dup1\n        /* \"#utility.yul\":8545:8551   */\n      dup4\n        /* \"#utility.yul\":8538:8543   */\n      dup3\n        /* \"#utility.yul\":8531:8552   */\n      mstore\n        /* \"#utility.yul\":8579:8583   */\n      0x20\n        /* \"#utility.yul\":8572:8577   */\n      dup3\n        /* \"#utility.yul\":8568:8584   */\n      add\n        /* \"#utility.yul\":8561:8584   */\n      swap1\n      pop\n        /* \"#utility.yul\":8632:8636   */\n      0x20\n        /* \"#utility.yul\":8624:8630   */\n      dup5\n        /* \"#utility.yul\":8620:8637   */\n      mul\n        /* \"#utility.yul\":8612:8618   */\n      dup4\n        /* \"#utility.yul\":8608:8638   */\n      add\n        /* \"#utility.yul\":8661:8664   */\n      dup6\n        /* \"#utility.yul\":8653:8659   */\n      dup2\n        /* \"#utility.yul\":8650:8665   */\n      gt\n        /* \"#utility.yul\":8647:8769   */\n      iszero\n      tag_330\n      jumpi\n        /* \"#utility.yul\":8680:8759   */\n      tag_331\n      tag_228\n      jump\t// in\n    tag_331:\n        /* \"#utility.yul\":8647:8769   */\n    tag_330:\n        /* \"#utility.yul\":8795:8801   */\n      dup4\n        /* \"#utility.yul\":8778:9228   */\n    tag_332:\n        /* \"#utility.yul\":8812:8818   */\n      dup2\n        /* \"#utility.yul\":8807:8810   */\n      dup2\n        /* \"#utility.yul\":8804:8819   */\n      lt\n        /* \"#utility.yul\":8778:9228   */\n      iszero\n      tag_334\n      jumpi\n        /* \"#utility.yul\":8901:8904   */\n      dup1\n        /* \"#utility.yul\":8888:8905   */\n      calldataload\n        /* \"#utility.yul\":8937:8955   */\n      0xffffffffffffffff\n        /* \"#utility.yul\":8924:8935   */\n      dup2\n        /* \"#utility.yul\":8921:8956   */\n      gt\n        /* \"#utility.yul\":8918:9040   */\n      iszero\n      tag_335\n      jumpi\n        /* \"#utility.yul\":8959:9038   */\n      tag_336\n      tag_223\n      jump\t// in\n    tag_336:\n        /* \"#utility.yul\":8918:9040   */\n    tag_335:\n        /* \"#utility.yul\":9083:9094   */\n      dup1\n        /* \"#utility.yul\":9075:9081   */\n      dup7\n        /* \"#utility.yul\":9071:9095   */\n      add\n        /* \"#utility.yul\":9121:9183   */\n      tag_337\n        /* \"#utility.yul\":9179:9182   */\n      dup10\n        /* \"#utility.yul\":9167:9177   */\n      dup3\n        /* \"#utility.yul\":9121:9183   */\n      tag_231\n      jump\t// in\n    tag_337:\n        /* \"#utility.yul\":9116:9119   */\n      dup6\n        /* \"#utility.yul\":9109:9184   */\n      mstore\n        /* \"#utility.yul\":9213:9217   */\n      0x20\n        /* \"#utility.yul\":9208:9211   */\n      dup6\n        /* \"#utility.yul\":9204:9218   */\n      add\n        /* \"#utility.yul\":9197:9218   */\n      swap5\n      pop\n        /* \"#utility.yul\":8854:9228   */\n      pop\n      pop\n        /* \"#utility.yul\":8838:8842   */\n      0x20\n        /* \"#utility.yul\":8833:8836   */\n      dup2\n        /* \"#utility.yul\":8829:8843   */\n      add\n        /* \"#utility.yul\":8822:8843   */\n      swap1\n      pop\n        /* \"#utility.yul\":8778:9228   */\n      jump(tag_332)\n    tag_334:\n        /* \"#utility.yul\":8782:8803   */\n      pop\n        /* \"#utility.yul\":8371:9234   */\n      pop\n      pop\n        /* \"#utility.yul\":8244:9234   */\n      swap4\n      swap3\n      pop\n      pop\n      pop\n      jump\t// out\n        /* \"#utility.yul\":9259:9679   */\n    tag_233:\n        /* \"#utility.yul\":9355:9360   */\n      0x00\n        /* \"#utility.yul\":9404:9407   */\n      dup3\n        /* \"#utility.yul\":9397:9401   */\n      0x1f\n        /* \"#utility.yul\":9389:9395   */\n      dup4\n        /* \"#utility.yul\":9385:9402   */\n      add\n        /* \"#utility.yul\":9381:9408   */\n      slt\n        /* \"#utility.yul\":9371:9493   */\n      tag_339\n      jumpi\n        /* \"#utility.yul\":9412:9491   */\n      tag_340\n      tag_223\n      jump\t// in\n    tag_340:\n        /* \"#utility.yul\":9371:9493   */\n    tag_339:\n        /* \"#utility.yul\":9529:9535   */\n      dup2\n        /* \"#utility.yul\":9516:9536   */\n      calldataload\n        /* \"#utility.yul\":9554:9673   */\n      tag_341\n        /* \"#utility.yul\":9669:9672   */\n      dup5\n        /* \"#utility.yul\":9661:9667   */\n      dup3\n        /* \"#utility.yul\":9654:9658   */\n      0x20\n        /* \"#utility.yul\":9646:9652   */\n      dup7\n        /* \"#utility.yul\":9642:9659   */\n      add\n        /* \"#utility.yul\":9554:9673   */\n      tag_232\n      jump\t// in\n    tag_341:\n        /* \"#utility.yul\":9545:9673   */\n      swap2\n      pop\n        /* \"#utility.yul\":9361:9679   */\n      pop\n        /* \"#utility.yul\":9259:9679   */\n      swap3\n      swap2\n      pop\n      pop\n      jump\t// out\n        /* \"#utility.yul\":9685:10274   */\n    tag_13:\n        /* \"#utility.yul\":9794:9800   */\n      0x00\n        /* \"#utility.yul\":9843:9845   */\n      0x20\n        /* \"#utility.yul\":9831:9840   */\n      dup3\n        /* \"#utility.yul\":9822:9829   */\n      dup5\n        /* \"#utility.yul\":9818:9841   */\n      sub\n        /* \"#utility.yul\":9814:9846   */\n      slt\n        /* \"#utility.yul\":9811:9930   */\n      iszero\n      tag_343\n      jumpi\n        /* \"#utility.yul\":9849:9928   */\n      tag_344\n      tag_205\n      jump\t// in\n    tag_344:\n        /* \"#utility.yul\":9811:9930   */\n    tag_343:\n        /* \"#utility.yul\":9997:9998   */\n      0x00\n        /* \"#utility.yul\":9986:9995   */\n      dup3\n        /* \"#utility.yul\":9982:9999   */\n      add\n        /* \"#utility.yul\":9969:10000   */\n      calldataload\n        /* \"#utility.yul\":10027:10045   */\n      0xffffffffffffffff\n        /* \"#utility.yul\":10019:10025   */\n      dup2\n        /* \"#utility.yul\":10016:10046   */\n      gt\n        /* \"#utility.yul\":10013:10130   */\n      iszero\n      tag_345\n      jumpi\n        /* \"#utility.yul\":10049:10128   */\n      tag_346\n      tag_206\n      jump\t// in\n    tag_346:\n        /* \"#utility.yul\":10013:10130   */\n    tag_345:\n        /* \"#utility.yul\":10154:10257   */\n      tag_347\n        /* \"#utility.yul\":10249:10256   */\n      dup5\n        /* \"#utility.yul\":10240:10246   */\n      dup3\n        /* \"#utility.yul\":10229:10238   */\n      dup6\n        /* \"#utility.yul\":10225:10247   */\n      add\n        /* \"#utility.yul\":10154:10257   */\n      tag_233\n      jump\t// in\n    tag_347:\n        /* \"#utility.yul\":10144:10257   */\n      swap2\n      pop\n        /* \"#utility.yul\":9940:10267   */\n      pop\n        /* \"#utility.yul\":9685:10274   */\n      swap3\n      swap2\n      pop\n      pop\n      jump\t// out\n        /* \"#utility.yul\":10280:10398   */\n    tag_234:\n        /* \"#utility.yul\":10367:10391   */\n      tag_349\n        /* \"#utility.yul\":10385:10390   */\n      dup2\n        /* \"#utility.yul\":10367:10391   */\n      tag_207\n      jump\t// in\n    tag_349:\n        /* \"#utility.yul\":10362:10365   */\n      dup3\n        /* \"#utility.yul\":10355:10392   */\n      mstore\n        /* \"#utility.yul\":10280:10398   */\n      pop\n      pop\n      jump\t// out\n        /* \"#utility.yul\":10404:10626   */\n    tag_16:\n        /* \"#utility.yul\":10497:10501   */\n      0x00\n        /* \"#utility.yul\":10535:10537   */\n      0x20\n        /* \"#utility.yul\":10524:10533   */\n      dup3\n        /* \"#utility.yul\":10520:10538   */\n      add\n        /* \"#utility.yul\":10512:10538   */\n      swap1\n      pop\n        /* \"#utility.yul\":10548:10619   */\n      tag_351\n        /* \"#utility.yul\":10616:10617   */\n      0x00\n        /* \"#utility.yul\":10605:10614   */\n      dup4\n        /* \"#utility.yul\":10601:10618   */\n      add\n        /* \"#utility.yul\":10592:10598   */\n      dup5\n        /* \"#utility.yul\":10548:10619   */\n      tag_234\n      jump\t// in\n    tag_351:\n        /* \"#utility.yul\":10404:10626   */\n      swap3\n      swap2\n      pop\n      pop\n      jump\t// out\n        /* \"#utility.yul\":10632:10801   */\n    tag_235:\n        /* \"#utility.yul\":10716:10727   */\n      0x00\n        /* \"#utility.yul\":10750:10756   */\n      dup3\n        /* \"#utility.yul\":10745:10748   */\n      dup3\n        /* \"#utility.yul\":10738:10757   */\n      mstore\n        /* \"#utility.yul\":10790:10794   */\n      0x20\n        /* \"#utility.yul\":10785:10788   */\n      dup3\n        /* \"#utility.yul\":10781:10795   */\n      add\n        /* \"#utility.yul\":10766:10795   */\n      swap1\n      pop\n        /* \"#utility.yul\":10632:10801   */\n      swap3\n      swap2\n      pop\n      pop\n      jump\t// out\n        /* \"#utility.yul\":10807:11040   */\n    tag_236:\n        /* \"#utility.yul\":10947:10981   */\n      0x4d696e696d756d2073686f756c64206265206c657373207468616e206f722065\n        /* \"#utility.yul\":10943:10944   */\n      0x00\n        /* \"#utility.yul\":10935:10941   */\n      dup3\n        /* \"#utility.yul\":10931:10945   */\n      add\n        /* \"#utility.yul\":10924:10982   */\n      mstore\n        /* \"#utility.yul\":11016:11032   */\n      0x7175616c20746f20736861726573000000000000000000000000000000000000\n        /* \"#utility.yul\":11011:11013   */\n      0x20\n        /* \"#utility.yul\":11003:11009   */\n      dup3\n        /* \"#utility.yul\":10999:11014   */\n      add\n        /* \"#utility.yul\":10992:11033   */\n      mstore\n        /* \"#utility.yul\":10807:11040   */\n      pop\n      jump\t// out\n        /* \"#utility.yul\":11046:11412   */\n    tag_237:\n        /* \"#utility.yul\":11188:11191   */\n      0x00\n        /* \"#utility.yul\":11209:11276   */\n      tag_355\n        /* \"#utility.yul\":11273:11275   */\n      0x2e\n        /* \"#utility.yul\":11268:11271   */\n      dup4\n        /* \"#utility.yul\":11209:11276   */\n      tag_235\n      jump\t// in\n    tag_355:\n        /* \"#utility.yul\":11202:11276   */\n      swap2\n      pop\n        /* \"#utility.yul\":11285:11378   */\n      tag_356\n        /* \"#utility.yul\":11374:11377   */\n      dup3\n        /* \"#utility.yul\":11285:11378   */\n      tag_236\n      jump\t// in\n    tag_356:\n        /* \"#utility.yul\":11403:11405   */\n      0x40\n        /* \"#utility.yul\":11398:11401   */\n      dup3\n        /* \"#utility.yul\":11394:11406   */\n      add\n        /* \"#utility.yul\":11387:11406   */\n      swap1\n      pop\n        /* \"#utility.yul\":11046:11412   */\n      swap2\n      swap1\n      pop\n      jump\t// out\n        /* \"#utility.yul\":11418:11837   */\n    tag_20:\n        /* \"#utility.yul\":11584:11588   */\n      0x00\n        /* \"#utility.yul\":11622:11624   */\n      0x20\n        /* \"#utility.yul\":11611:11620   */\n      dup3\n        /* \"#utility.yul\":11607:11625   */\n      add\n        /* \"#utility.yul\":11599:11625   */\n      swap1\n      pop\n        /* \"#utility.yul\":11671:11680   */\n      dup2\n        /* \"#utility.yul\":11665:11669   */\n      dup2\n        /* \"#utility.yul\":11661:11681   */\n      sub\n        /* \"#utility.yul\":11657:11658   */\n      0x00\n        /* \"#utility.yul\":11646:11655   */\n      dup4\n        /* \"#utility.yul\":11642:11659   */\n      add\n        /* \"#utility.yul\":11635:11682   */\n      mstore\n        /* \"#utility.yul\":11699:11830   */\n      tag_358\n        /* \"#utility.yul\":11825:11829   */\n      dup2\n        /* \"#utility.yul\":11699:11830   */\n      tag_237\n      jump\t// in\n    tag_358:\n        /* \"#utility.yul\":11691:11830   */\n      swap1\n      pop\n        /* \"#utility.yul\":11418:11837   */\n      swap2\n      swap1\n      pop\n      jump\t// out\n        /* \"#utility.yul\":11843:12023   */\n    tag_27:\n        /* \"#utility.yul\":11891:11968   */\n      0x4e487b7100000000000000000000000000000000000000000000000000000000\n        /* \"#utility.yul\":11888:11889   */\n      0x00\n        /* \"#utility.yul\":11881:11969   */\n      mstore\n        /* \"#utility.yul\":11988:11992   */\n      0x32\n        /* \"#utility.yul\":11985:11986   */\n      0x04\n        /* \"#utility.yul\":11978:11993   */\n      mstore\n        /* \"#utility.yul\":12012:12016   */\n      0x24\n        /* \"#utility.yul\":12009:12010   */\n      0x00\n        /* \"#utility.yul\":12002:12017   */\n      revert\n        /* \"#utility.yul\":12029:12209   */\n    tag_238:\n        /* \"#utility.yul\":12077:12154   */\n      0x4e487b7100000000000000000000000000000000000000000000000000000000\n        /* \"#utility.yul\":12074:12075   */\n      0x00\n        /* \"#utility.yul\":12067:12155   */\n      mstore\n        /* \"#utility.yul\":12174:12178   */\n      0x11\n        /* \"#utility.yul\":12171:12172   */\n      0x04\n        /* \"#utility.yul\":12164:12179   */\n      mstore\n        /* \"#utility.yul\":12198:12202   */\n      0x24\n        /* \"#utility.yul\":12195:12196   */\n      0x00\n        /* \"#utility.yul\":12188:12203   */\n      revert\n        /* \"#utility.yul\":12215:12409   */\n    tag_32:\n        /* \"#utility.yul\":12255:12259   */\n      0x00\n        /* \"#utility.yul\":12275:12295   */\n      tag_362\n        /* \"#utility.yul\":12293:12294   */\n      dup3\n        /* \"#utility.yul\":12275:12295   */\n      tag_207\n      jump\t// in\n    tag_362:\n        /* \"#utility.yul\":12270:12295   */\n      swap2\n      pop\n        /* \"#utility.yul\":12309:12329   */\n      tag_363\n        /* \"#utility.yul\":12327:12328   */\n      dup4\n        /* \"#utility.yul\":12309:12329   */\n      tag_207\n      jump\t// in\n    tag_363:\n        /* \"#utility.yul\":12304:12329   */\n      swap3\n      pop\n        /* \"#utility.yul\":12353:12354   */\n      dup3\n        /* \"#utility.yul\":12350:12351   */\n      dup3\n        /* \"#utility.yul\":12346:12355   */\n      sub\n        /* \"#utility.yul\":12338:12355   */\n      swap1\n      pop\n        /* \"#utility.yul\":12377:12378   */\n      dup2\n        /* \"#utility.yul\":12371:12375   */\n      dup2\n        /* \"#utility.yul\":12368:12379   */\n      gt\n        /* \"#utility.yul\":12365:12402   */\n      iszero\n      tag_364\n      jumpi\n        /* \"#utility.yul\":12382:12400   */\n      tag_365\n      tag_238\n      jump\t// in\n    tag_365:\n        /* \"#utility.yul\":12365:12402   */\n    tag_364:\n        /* \"#utility.yul\":12215:12409   */\n      swap3\n      swap2\n      pop\n      pop\n      jump\t// out\n        /* \"#utility.yul\":12415:12494   */\n    tag_239:\n        /* \"#utility.yul\":12454:12461   */\n      0x00\n        /* \"#utility.yul\":12483:12488   */\n      dup2\n        /* \"#utility.yul\":12472:12488   */\n      swap1\n      pop\n        /* \"#utility.yul\":12415:12494   */\n      swap2\n      swap1\n      pop\n      jump\t// out\n        /* \"#utility.yul\":12500:12657   */\n    tag_240:\n        /* \"#utility.yul\":12605:12650   */\n      tag_368\n        /* \"#utility.yul\":12625:12649   */\n      tag_369\n        /* \"#utility.yul\":12643:12648   */\n      dup3\n        /* \"#utility.yul\":12625:12649   */\n      tag_207\n      jump\t// in\n    tag_369:\n        /* \"#utility.yul\":12605:12650   */\n      tag_239\n      jump\t// in\n    tag_368:\n        /* \"#utility.yul\":12600:12603   */\n      dup3\n        /* \"#utility.yul\":12593:12651   */\n      mstore\n        /* \"#utility.yul\":12500:12657   */\n      pop\n      pop\n      jump\t// out\n        /* \"#utility.yul\":12663:12919   */\n    tag_34:\n        /* \"#utility.yul\":12775:12778   */\n      0x00\n        /* \"#utility.yul\":12790:12865   */\n      tag_371\n        /* \"#utility.yul\":12861:12864   */\n      dup3\n        /* \"#utility.yul\":12852:12858   */\n      dup5\n        /* \"#utility.yul\":12790:12865   */\n      tag_240\n      jump\t// in\n    tag_371:\n        /* \"#utility.yul\":12890:12892   */\n      0x20\n        /* \"#utility.yul\":12885:12888   */\n      dup3\n        /* \"#utility.yul\":12881:12893   */\n      add\n        /* \"#utility.yul\":12874:12893   */\n      swap2\n      pop\n        /* \"#utility.yul\":12910:12913   */\n      dup2\n        /* \"#utility.yul\":12903:12913   */\n      swap1\n      pop\n        /* \"#utility.yul\":12663:12919   */\n      swap3\n      swap2\n      pop\n      pop\n      jump\t// out\n        /* \"#utility.yul\":12925:13105   */\n    tag_241:\n        /* \"#utility.yul\":12973:13050   */\n      0x4e487b7100000000000000000000000000000000000000000000000000000000\n        /* \"#utility.yul\":12970:12971   */\n      0x00\n        /* \"#utility.yul\":12963:13051   */\n      mstore\n        /* \"#utility.yul\":13070:13074   */\n      0x12\n        /* \"#utility.yul\":13067:13068   */\n      0x04\n        /* \"#utility.yul\":13060:13075   */\n      mstore\n        /* \"#utility.yul\":13094:13098   */\n      0x24\n        /* \"#utility.yul\":13091:13092   */\n      0x00\n        /* \"#utility.yul\":13084:13099   */\n      revert\n        /* \"#utility.yul\":13111:13287   */\n    tag_36:\n        /* \"#utility.yul\":13143:13144   */\n      0x00\n        /* \"#utility.yul\":13160:13180   */\n      tag_374\n        /* \"#utility.yul\":13178:13179   */\n      dup3\n        /* \"#utility.yul\":13160:13180   */\n      tag_207\n      jump\t// in\n    tag_374:\n        /* \"#utility.yul\":13155:13180   */\n      swap2\n      pop\n        /* \"#utility.yul\":13194:13214   */\n      tag_375\n        /* \"#utility.yul\":13212:13213   */\n      dup4\n        /* \"#utility.yul\":13194:13214   */\n      tag_207\n      jump\t// in\n    tag_375:\n        /* \"#utility.yul\":13189:13214   */\n      swap3\n      pop\n        /* \"#utility.yul\":13233:13234   */\n      dup3\n        /* \"#utility.yul\":13223:13258   */\n      tag_376\n      jumpi\n        /* \"#utility.yul\":13238:13256   */\n      tag_377\n      tag_241\n      jump\t// in\n    tag_377:\n        /* \"#utility.yul\":13223:13258   */\n    tag_376:\n        /* \"#utility.yul\":13279:13280   */\n      dup3\n        /* \"#utility.yul\":13276:13277   */\n      dup3\n        /* \"#utility.yul\":13272:13281   */\n      mod\n        /* \"#utility.yul\":13267:13281   */\n      swap1\n      pop\n        /* \"#utility.yul\":13111:13287   */\n      swap3\n      swap2\n      pop\n      pop\n      jump\t// out\n        /* \"#utility.yul\":13293:13526   */\n    tag_59:\n        /* \"#utility.yul\":13332:13335   */\n      0x00\n        /* \"#utility.yul\":13355:13379   */\n      tag_379\n        /* \"#utility.yul\":13373:13378   */\n      dup3\n        /* \"#utility.yul\":13355:13379   */\n      tag_207\n      jump\t// in\n    tag_379:\n        /* \"#utility.yul\":13346:13379   */\n      swap2\n      pop\n        /* \"#utility.yul\":13401:13467   */\n      0xffffffffffffffffffffffffffffffffffffffffffffffffffffffffffffffff\n        /* \"#utility.yul\":13394:13399   */\n      dup3\n        /* \"#utility.yul\":13391:13468   */\n      sub\n        /* \"#utility.yul\":13388:13491   */\n      tag_380\n      jumpi\n        /* \"#utility.yul\":13471:13489   */\n      tag_381\n      tag_238\n      jump\t// in\n    tag_381:\n        /* \"#utility.yul\":13388:13491   */\n    tag_380:\n        /* \"#utility.yul\":13518:13519   */\n      0x01\n        /* \"#utility.yul\":13511:13516   */\n      dup3\n        /* \"#utility.yul\":13507:13520   */\n      add\n        /* \"#utility.yul\":13500:13520   */\n      swap1\n      pop\n        /* \"#utility.yul\":13293:13526   */\n      swap2\n      swap1\n      pop\n      jump\t// out\n        /* \"#utility.yul\":13532:13708   */\n    tag_242:\n        /* \"#utility.yul\":13672:13700   */\n      0x4e656564206174206c6561737420746872656520736861726573000000000000\n        /* \"#utility.yul\":13668:13669   */\n      0x00\n        /* \"#utility.yul\":13660:13666   */\n      dup3\n        /* \"#utility.yul\":13656:13670   */\n      add\n        /* \"#utility.yul\":13649:13701   */\n      mstore\n        /* \"#utility.yul\":13532:13708   */\n      pop\n      jump\t// out\n        /* \"#utility.yul\":13714:14080   */\n    tag_243:\n        /* \"#utility.yul\":13856:13859   */\n      0x00\n        /* \"#utility.yul\":13877:13944   */\n      tag_384\n        /* \"#utility.yul\":13941:13943   */\n      0x1a\n        /* \"#utility.yul\":13936:13939   */\n      dup4\n        /* \"#utility.yul\":13877:13944   */\n      tag_235\n      jump\t// in\n    tag_384:\n        /* \"#utility.yul\":13870:13944   */\n      swap2\n      pop\n        /* \"#utility.yul\":13953:14046   */\n      tag_385\n        /* \"#utility.yul\":14042:14045   */\n      dup3\n        /* \"#utility.yul\":13953:14046   */\n      tag_242\n      jump\t// in\n    tag_385:\n        /* \"#utility.yul\":14071:14073   */\n      0x20\n        /* \"#utility.yul\":14066:14069   */\n      dup3\n        /* \"#utility.yul\":14062:14074   */\n      add\n        /* \"#utility.yul\":14055:14074   */\n      swap1\n      pop\n        /* \"#utility.yul\":13714:14080   */\n      swap2\n      swap1\n      pop\n      jump\t// out\n        /* \"#utility.yul\":14086:14505   */\n    tag_63:\n        /* \"#utility.yul\":14252:14256   */\n      0x00\n        /* \"#utility.yul\":14290:14292   */\n      0x20\n        /* \"#utility.yul\":14279:14288   */\n      dup3\n        /* \"#utility.yul\":14275:14293   */\n      add\n        /* \"#utility.yul\":14267:14293   */\n      swap1\n      pop\n        /* \"#utility.yul\":14339:14348   */\n      dup2\n        /* \"#utility.yul\":14333:14337   */\n      dup2\n        /* \"#utility.yul\":14329:14349   */\n      sub\n        /* \"#utility.yul\":14325:14326   */\n      0x00\n        /* \"#utility.yul\":14314:14323   */\n      dup4\n        /* \"#utility.yul\":14310:14327   */\n      add\n        /* \"#utility.yul\":14303:14350   */\n      mstore\n        /* \"#utility.yul\":14367:14498   */\n      tag_387\n        /* \"#utility.yul\":14493:14497   */\n      dup2\n        /* \"#utility.yul\":14367:14498   */\n      tag_243\n      jump\t// in\n    tag_387:\n        /* \"#utility.yul\":14359:14498   */\n      swap1\n      pop\n        /* \"#utility.yul\":14086:14505   */\n      swap2\n      swap1\n      pop\n      jump\t// out\n        /* \"#utility.yul\":14511:14921   */\n    tag_95:\n        /* \"#utility.yul\":14551:14558   */\n      0x00\n        /* \"#utility.yul\":14574:14594   */\n      tag_389\n        /* \"#utility.yul\":14592:14593   */\n      dup3\n        /* \"#utility.yul\":14574:14594   */\n      tag_207\n      jump\t// in\n    tag_389:\n        /* \"#utility.yul\":14569:14594   */\n      swap2\n      pop\n        /* \"#utility.yul\":14608:14628   */\n      tag_390\n        /* \"#utility.yul\":14626:14627   */\n      dup4\n        /* \"#utility.yul\":14608:14628   */\n      tag_207\n      jump\t// in\n    tag_390:\n        /* \"#utility.yul\":14603:14628   */\n      swap3\n      pop\n        /* \"#utility.yul\":14663:14664   */\n      dup3\n        /* \"#utility.yul\":14660:14661   */\n      dup3\n        /* \"#utility.yul\":14656:14665   */\n      mul\n        /* \"#utility.yul\":14685:14715   */\n      tag_391\n        /* \"#utility.yul\":14703:14714   */\n      dup2\n        /* \"#utility.yul\":14685:14715   */\n      tag_207\n      jump\t// in\n    tag_391:\n        /* \"#utility.yul\":14674:14715   */\n      swap2\n      pop\n        /* \"#utility.yul\":14864:14865   */\n      dup3\n        /* \"#utility.yul\":14855:14862   */\n      dup3\n        /* \"#utility.yul\":14851:14866   */\n      div\n        /* \"#utility.yul\":14848:14849   */\n      dup5\n        /* \"#utility.yul\":14845:14867   */\n      eq\n        /* \"#utility.yul\":14825:14826   */\n      dup4\n        /* \"#utility.yul\":14818:14827   */\n      iszero\n        /* \"#utility.yul\":14798:14881   */\n      or\n        /* \"#utility.yul\":14775:14914   */\n      tag_392\n      jumpi\n        /* \"#utility.yul\":14894:14912   */\n      tag_393\n      tag_238\n      jump\t// in\n    tag_393:\n        /* \"#utility.yul\":14775:14914   */\n    tag_392:\n        /* \"#utility.yul\":14559:14921   */\n      pop\n        /* \"#utility.yul\":14511:14921   */\n      swap3\n      swap2\n      pop\n      pop\n      jump\t// out\n        /* \"#utility.yul\":14927:15118   */\n    tag_97:\n        /* \"#utility.yul\":14967:14970   */\n      0x00\n        /* \"#utility.yul\":14986:15006   */\n      tag_395\n        /* \"#utility.yul\":15004:15005   */\n      dup3\n        /* \"#utility.yul\":14986:15006   */\n      tag_207\n      jump\t// in\n    tag_395:\n        /* \"#utility.yul\":14981:15006   */\n      swap2\n      pop\n        /* \"#utility.yul\":15020:15040   */\n      tag_396\n        /* \"#utility.yul\":15038:15039   */\n      dup4\n        /* \"#utility.yul\":15020:15040   */\n      tag_207\n      jump\t// in\n    tag_396:\n        /* \"#utility.yul\":15015:15040   */\n      swap3\n      pop\n        /* \"#utility.yul\":15063:15064   */\n      dup3\n        /* \"#utility.yul\":15060:15061   */\n      dup3\n        /* \"#utility.yul\":15056:15065   */\n      add\n        /* \"#utility.yul\":15049:15065   */\n      swap1\n      pop\n        /* \"#utility.yul\":15084:15087   */\n      dup1\n        /* \"#utility.yul\":15081:15082   */\n      dup3\n        /* \"#utility.yul\":15078:15088   */\n      gt\n        /* \"#utility.yul\":15075:15111   */\n      iszero\n      tag_397\n      jumpi\n        /* \"#utility.yul\":15091:15109   */\n      tag_398\n      tag_238\n      jump\t// in\n    tag_398:\n        /* \"#utility.yul\":15075:15111   */\n    tag_397:\n        /* \"#utility.yul\":14927:15118   */\n      swap3\n      swap2\n      pop\n      pop\n      jump\t// out\n        /* \"#utility.yul\":15124:15295   */\n    tag_100:\n        /* \"#utility.yul\":15163:15166   */\n      0x00\n        /* \"#utility.yul\":15186:15210   */\n      tag_400\n        /* \"#utility.yul\":15204:15209   */\n      dup3\n        /* \"#utility.yul\":15186:15210   */\n      tag_207\n      jump\t// in\n    tag_400:\n        /* \"#utility.yul\":15177:15210   */\n      swap2\n      pop\n        /* \"#utility.yul\":15232:15236   */\n      0x00\n        /* \"#utility.yul\":15225:15230   */\n      dup3\n        /* \"#utility.yul\":15222:15237   */\n      sub\n        /* \"#utility.yul\":15219:15260   */\n      tag_401\n      jumpi\n        /* \"#utility.yul\":15240:15258   */\n      tag_402\n      tag_238\n      jump\t// in\n    tag_402:\n        /* \"#utility.yul\":15219:15260   */\n    tag_401:\n        /* \"#utility.yul\":15287:15288   */\n      0x01\n        /* \"#utility.yul\":15280:15285   */\n      dup3\n        /* \"#utility.yul\":15276:15289   */\n      sub\n        /* \"#utility.yul\":15269:15289   */\n      swap1\n      pop\n        /* \"#utility.yul\":15124:15295   */\n      swap2\n      swap1\n      pop\n      jump\t// out\n        /* \"#utility.yul\":15301:15482   */\n    tag_244:\n        /* \"#utility.yul\":15441:15474   */\n      0x4172726179732073686f756c64206861766520657175616c206c656e67746800\n        /* \"#utility.yul\":15437:15438   */\n      0x00\n        /* \"#utility.yul\":15429:15435   */\n      dup3\n        /* \"#utility.yul\":15425:15439   */\n      add\n        /* \"#utility.yul\":15418:15475   */\n      mstore\n        /* \"#utility.yul\":15301:15482   */\n      pop\n      jump\t// out\n        /* \"#utility.yul\":15488:15854   */\n    tag_245:\n        /* \"#utility.yul\":15630:15633   */\n      0x00\n        /* \"#utility.yul\":15651:15718   */\n      tag_405\n        /* \"#utility.yul\":15715:15717   */\n      0x1f\n        /* \"#utility.yul\":15710:15713   */\n      dup4\n        /* \"#utility.yul\":15651:15718   */\n      tag_235\n      jump\t// in\n    tag_405:\n        /* \"#utility.yul\":15644:15718   */\n      swap2\n      pop\n        /* \"#utility.yul\":15727:15820   */\n      tag_406\n        /* \"#utility.yul\":15816:15819   */\n      dup3\n        /* \"#utility.yul\":15727:15820   */\n      tag_244\n      jump\t// in\n    tag_406:\n        /* \"#utility.yul\":15845:15847   */\n      0x20\n        /* \"#utility.yul\":15840:15843   */\n      dup3\n        /* \"#utility.yul\":15836:15848   */\n      add\n        /* \"#utility.yul\":15829:15848   */\n      swap1\n      pop\n        /* \"#utility.yul\":15488:15854   */\n      swap2\n      swap1\n      pop\n      jump\t// out\n        /* \"#utility.yul\":15860:16279   */\n    tag_104:\n        /* \"#utility.yul\":16026:16030   */\n      0x00\n        /* \"#utility.yul\":16064:16066   */\n      0x20\n        /* \"#utility.yul\":16053:16062   */\n      dup3\n        /* \"#utility.yul\":16049:16067   */\n      add\n        /* \"#utility.yul\":16041:16067   */\n      swap1\n      pop\n        /* \"#utility.yul\":16113:16122   */\n      dup2\n        /* \"#utility.yul\":16107:16111   */\n      dup2\n        /* \"#utility.yul\":16103:16123   */\n      sub\n        /* \"#utility.yul\":16099:16100   */\n      0x00\n        /* \"#utility.yul\":16088:16097   */\n      dup4\n        /* \"#utility.yul\":16084:16101   */\n      add\n        /* \"#utility.yul\":16077:16124   */\n      mstore\n        /* \"#utility.yul\":16141:16272   */\n      tag_408\n        /* \"#utility.yul\":16267:16271   */\n      dup2\n        /* \"#utility.yul\":16141:16272   */\n      tag_245\n      jump\t// in\n    tag_408:\n        /* \"#utility.yul\":16133:16272   */\n      swap1\n      pop\n        /* \"#utility.yul\":15860:16279   */\n      swap2\n      swap1\n      pop\n      jump\t// out\n        /* \"#utility.yul\":16285:16470   */\n    tag_196:\n        /* \"#utility.yul\":16325:16326   */\n      0x00\n        /* \"#utility.yul\":16342:16362   */\n      tag_410\n        /* \"#utility.yul\":16360:16361   */\n      dup3\n        /* \"#utility.yul\":16342:16362   */\n      tag_207\n      jump\t// in\n    tag_410:\n        /* \"#utility.yul\":16337:16362   */\n      swap2\n      pop\n        /* \"#utility.yul\":16376:16396   */\n      tag_411\n        /* \"#utility.yul\":16394:16395   */\n      dup4\n        /* \"#utility.yul\":16376:16396   */\n      tag_207\n      jump\t// in\n    tag_411:\n        /* \"#utility.yul\":16371:16396   */\n      swap3\n      pop\n        /* \"#utility.yul\":16415:16416   */\n      dup3\n        /* \"#utility.yul\":16405:16440   */\n      tag_412\n      jumpi\n        /* \"#utility.yul\":16420:16438   */\n      tag_413\n      tag_241\n      jump\t// in\n    tag_413:\n        /* \"#utility.yul\":16405:16440   */\n    tag_412:\n        /* \"#utility.yul\":16462:16463   */\n      dup3\n        /* \"#utility.yul\":16459:16460   */\n      dup3\n        /* \"#utility.yul\":16455:16464   */\n      div\n        /* \"#utility.yul\":16450:16464   */\n      swap1\n      pop\n        /* \"#utility.yul\":16285:16470   */\n      swap3\n      swap2\n      pop\n      pop\n      jump\t// out\n        /* \"#utility.yul\":16476:16552   */\n    tag_246:\n        /* \"#utility.yul\":16512:16519   */\n      0x00\n        /* \"#utility.yul\":16541:16546   */\n      dup2\n        /* \"#utility.yul\":16530:16546   */\n      swap1\n      pop\n        /* \"#utility.yul\":16476:16552   */\n      swap2\n      swap1\n      pop\n      jump\t// out\n        /* \"#utility.yul\":16558:17114   */\n    tag_199:\n        /* \"#utility.yul\":16597:16604   */\n      0x00\n        /* \"#utility.yul\":16620:16639   */\n      tag_416\n        /* \"#utility.yul\":16637:16638   */\n      dup3\n        /* \"#utility.yul\":16620:16639   */\n      tag_246\n      jump\t// in\n    tag_416:\n        /* \"#utility.yul\":16615:16639   */\n      swap2\n      pop\n        /* \"#utility.yul\":16653:16672   */\n      tag_417\n        /* \"#utility.yul\":16670:16671   */\n      dup4\n        /* \"#utility.yul\":16653:16672   */\n      tag_246\n      jump\t// in\n    tag_417:\n        /* \"#utility.yul\":16648:16672   */\n      swap3\n      pop\n        /* \"#utility.yul\":16707:16708   */\n      dup3\n        /* \"#utility.yul\":16704:16705   */\n      dup3\n        /* \"#utility.yul\":16700:16709   */\n      mul\n        /* \"#utility.yul\":16729:16758   */\n      tag_418\n        /* \"#utility.yul\":16746:16757   */\n      dup2\n        /* \"#utility.yul\":16729:16758   */\n      tag_246\n      jump\t// in\n    tag_418:\n        /* \"#utility.yul\":16718:16758   */\n      swap2\n      pop\n        /* \"#utility.yul\":16816:16882   */\n      0x8000000000000000000000000000000000000000000000000000000000000000\n        /* \"#utility.yul\":16813:16814   */\n      dup5\n        /* \"#utility.yul\":16810:16883   */\n      eq\n        /* \"#utility.yul\":16806:16807   */\n      0x00\n        /* \"#utility.yul\":16803:16804   */\n      dup5\n        /* \"#utility.yul\":16799:16808   */\n      slt\n        /* \"#utility.yul\":16795:16884   */\n      and\n        /* \"#utility.yul\":16792:16907   */\n      iszero\n      tag_419\n      jumpi\n        /* \"#utility.yul\":16887:16905   */\n      tag_420\n      tag_238\n      jump\t// in\n    tag_420:\n        /* \"#utility.yul\":16792:16907   */\n    tag_419:\n        /* \"#utility.yul\":17057:17058   */\n      dup3\n        /* \"#utility.yul\":17048:17055   */\n      dup3\n        /* \"#utility.yul\":17043:17059   */\n      sdiv\n        /* \"#utility.yul\":17040:17041   */\n      dup5\n        /* \"#utility.yul\":17037:17060   */\n      eq\n        /* \"#utility.yul\":17017:17018   */\n      dup4\n        /* \"#utility.yul\":17010:17019   */\n      iszero\n        /* \"#utility.yul\":16990:17074   */\n      or\n        /* \"#utility.yul\":16967:17107   */\n      tag_421\n      jumpi\n        /* \"#utility.yul\":17087:17105   */\n      tag_422\n      tag_238\n      jump\t// in\n    tag_422:\n        /* \"#utility.yul\":16967:17107   */\n    tag_421:\n        /* \"#utility.yul\":16605:17114   */\n      pop\n        /* \"#utility.yul\":16558:17114   */\n      swap3\n      swap2\n      pop\n      pop\n      jump\t// out\n        /* \"#utility.yul\":17120:17492   */\n    tag_201:\n        /* \"#utility.yul\":17159:17163   */\n      0x00\n        /* \"#utility.yul\":17179:17198   */\n      tag_424\n        /* \"#utility.yul\":17196:17197   */\n      dup3\n        /* \"#utility.yul\":17179:17198   */\n      tag_246\n      jump\t// in\n    tag_424:\n        /* \"#utility.yul\":17174:17198   */\n      swap2\n      pop\n        /* \"#utility.yul\":17212:17231   */\n      tag_425\n        /* \"#utility.yul\":17229:17230   */\n      dup4\n        /* \"#utility.yul\":17212:17231   */\n      tag_246\n      jump\t// in\n    tag_425:\n        /* \"#utility.yul\":17207:17231   */\n      swap3\n      pop\n        /* \"#utility.yul\":17255:17256   */\n      dup3\n        /* \"#utility.yul\":17252:17253   */\n      dup3\n        /* \"#utility.yul\":17248:17257   */\n      sub\n        /* \"#utility.yul\":17240:17257   */\n      swap1\n      pop\n        /* \"#utility.yul\":17449:17450   */\n      dup2\n        /* \"#utility.yul\":17443:17447   */\n      dup2\n        /* \"#utility.yul\":17439:17451   */\n      slt\n        /* \"#utility.yul\":17435:17436   */\n      0x00\n        /* \"#utility.yul\":17432:17433   */\n      dup5\n        /* \"#utility.yul\":17428:17437   */\n      slt\n        /* \"#utility.yul\":17424:17452   */\n      and\n        /* \"#utility.yul\":17407:17408   */\n      dup3\n        /* \"#utility.yul\":17401:17405   */\n      dup3\n        /* \"#utility.yul\":17397:17409   */\n      sgt\n        /* \"#utility.yul\":17392:17393   */\n      0x00\n        /* \"#utility.yul\":17389:17390   */\n      dup6\n        /* \"#utility.yul\":17385:17394   */\n      slt\n        /* \"#utility.yul\":17378:17395   */\n      iszero\n        /* \"#utility.yul\":17374:17410   */\n      and\n        /* \"#utility.yul\":17358:17462   */\n      or\n        /* \"#utility.yul\":17355:17485   */\n      iszero\n      tag_426\n      jumpi\n        /* \"#utility.yul\":17465:17483   */\n      tag_427\n      tag_238\n      jump\t// in\n    tag_427:\n        /* \"#utility.yul\":17355:17485   */\n    tag_426:\n        /* \"#utility.yul\":17120:17492   */\n      swap3\n      swap2\n      pop\n      pop\n      jump\t// out\n\n    auxdata: 0xa26469706673582212201f1f9ab05c0497f4e4cf58bc2fe16d974973ae4c810e43287b4b5740c0466a6164736f6c63430008180033\n}\n",
				"bytecode": {
					"linkReferences": {},
					"object": "608060405234801561000f575f80fd5b5061147d8061001d5f395ff3fe608060405234801561000f575f80fd5b5060043610610034575f3560e01c8063072c0aee146100385780638d45eb2e14610068575b5f80fd5b610052600480360381019061004d9190610b65565b610098565b60405161005f9190610d27565b60405180910390f35b610082600480360381019061007d9190610f75565b6102f6565b60405161008f9190610fcb565b60405180910390f35b6060818311156100dd576040517f08c379a00000000000000000000000000000000000000000000000000000000081526004016100d490611064565b60405180910390fd5b5f8367ffffffffffffffff8111156100f8576100f7610d5b565b5b6040519080825280602002602001820160405280156101265781602001602082028036833780820191505090505b50905084815f8151811061013d5761013c611082565b5b6020026020010181815250505f63deadbeef90505f600190505b858110156101e057808218915060016f7fffffffffffffffffffffffffffffff61018191906110dc565b82604051602001610192919061112f565b604051602081830303815290604052805190602001205f1c6101b49190611176565b8382815181106101c7576101c6611082565b5b6020026020010181815250508080600101915050610157565b505f8467ffffffffffffffff8111156101fc576101fb610d5b565b5b60405190808252806020026020018201604052801561022f57816020015b606081526020019060019003908161021a5790505b5090505f600190505b8581116102e857808260018361024e91906110dc565b8151811061025f5761025e611082565b5b60200260200101515f8151811061027957610278611082565b5b60200260200101818152505061028f84826104ac565b8260018361029d91906110dc565b815181106102ae576102ad611082565b5b60200260200101516001815181106102c9576102c8611082565b5b60200260200101818152505080806102e0906111a6565b915050610238565b508093505050509392505050565b5f60038251101561033c576040517f08c379a000000000000000000000000000000000000000000000000000000000815260040161033390611237565b60405180910390fd5b5f825167ffffffffffffffff81111561035857610357610d5b565b5b6040519080825280602002602001820160405280156103865781602001602082028036833780820191505090505b5090505f835167ffffffffffffffff8111156103a5576103a4610d5b565b5b6040519080825280602002602001820160405280156103d35781602001602082028036833780820191505090505b5090505f5b8451811015610497578481815181106103f4576103f3611082565b5b60200260200101515f8151811061040e5761040d611082565b5b602002602001015183828151811061042957610428611082565b5b60200260200101818152505084818151811061044857610447611082565b5b602002602001015160018151811061046357610462611082565b5b602002602001015182828151811061047e5761047d611082565b5b60200260200101818152505080806001019150506103d8565b506104a35f838361053a565b92505050919050565b5f805f90505f845190505b5f81111561052f57846001826104cd91906110dc565b815181106104de576104dd611082565b5b602002602001015184836104f29190611255565b6104fc9190611296565b91506f7fffffffffffffffffffffffffffffff8261051a9190611176565b91508080610527906112c9565b9150506104b7565b508091505092915050565b5f815183511461057f576040517f08c379a00000000000000000000000000000000000000000000000000000000081526004016105769061133a565b60405180910390fd5b5f835190505f805f8367ffffffffffffffff8111156105a1576105a0610d5b565b5b6040519080825280602002602001820160405280156105cf5781602001602082028036833780820191505090505b5090505f8467ffffffffffffffff8111156105ed576105ec610d5b565b5b60405190808252806020026020018201604052801561061b5781602001602082028036833780820191505090505b5090505f5b858110156108a9575f60018761063691906110dc565b67ffffffffffffffff81111561064f5761064e610d5b565b5b60405190808252806020026020018201604052801561067d5781602001602082028036833780820191505090505b5090505f8a838151811061069457610693611082565b5b602002602001015190505f805b89811015610704578481146106f7578c81815181106106c3576106c2611082565b5b60200260200101518483806106d7906111a6565b9450815181106106ea576106e9611082565b5b6020026020010181815250505b80806001019150506106a1565b50600186858151811061071a57610719611082565b5b6020026020010181815250505f5b60018a61073591906110dc565b8110156107ce576f7fffffffffffffffffffffffffffffff8482815181106107605761075f611082565b5b60200260200101518f61077391906110dc565b88878151811061078657610785611082565b5b60200260200101516107989190611255565b6107a29190611176565b8786815181106107b5576107b4611082565b5b6020026020010181815250508080600101915050610728565b5060018585815181106107e4576107e3611082565b5b6020026020010181815250505f5b60018a6107ff91906110dc565b811015610898576f7fffffffffffffffffffffffffffffff84828151811061082a57610829611082565b5b60200260200101518461083d91906110dc565b8787815181106108505761084f611082565b5b60200260200101516108629190611255565b61086c9190611176565b86868151811061087f5761087e611082565b5b60200260200101818152505080806001019150506107f2565b505050508080600101915050610620565b505f5b85811015610a28576f7fffffffffffffffffffffffffffffff6109836f7fffffffffffffffffffffffffffffff8a84815181106108ec576108eb611082565b5b60200260200101516f7fffffffffffffffffffffffffffffff86868151811061091857610917611082565b5b602002602001015188878151811061093357610932611082565b5b60200260200101516109459190611255565b61094f9190611176565b6109599190611255565b6109639190611176565b84848151811061097657610975611082565b5b6020026020010151610a41565b8661098e9190611296565b6109989190611176565b94506f7fffffffffffffffffffffffffffffff6109e98483815181106109c1576109c0611082565b5b60200260200101518484815181106109dc576109db611082565b5b6020026020010151610a41565b6f7fffffffffffffffffffffffffffffff86610a059190611296565b610a0f91906110dc565b610a199190611176565b935080806001019150506108ac565b50610a338484610a41565b955050505050509392505050565b5f80610a5d836f7fffffffffffffffffffffffffffffff610a90565b5090506f7fffffffffffffffffffffffffffffff8185610a7d9190611255565b610a879190611176565b91505092915050565b5f805f80600190505f600190505f5b5f8714610b10575f8789610ab39190611358565b905087888a610ac29190611176565b809950819a5050508481610ad69190611391565b84610ae19190611407565b8580955081965050508281610af69190611391565b82610b019190611407565b83809350819450505050610a9f565b828195509550505050509250929050565b5f604051905090565b5f80fd5b5f80fd5b5f819050919050565b610b4481610b32565b8114610b4e575f80fd5b50565b5f81359050610b5f81610b3b565b92915050565b5f805f60608486031215610b7c57610b7b610b2a565b5b5f610b8986828701610b51565b9350506020610b9a86828701610b51565b9250506040610bab86828701610b51565b9150509250925092565b5f81519050919050565b5f82825260208201905092915050565b5f819050602082019050919050565b5f81519050919050565b5f82825260208201905092915050565b5f819050602082019050919050565b610c1081610b32565b82525050565b5f610c218383610c07565b60208301905092915050565b5f602082019050919050565b5f610c4382610bde565b610c4d8185610be8565b9350610c5883610bf8565b805f5b83811015610c88578151610c6f8882610c16565b9750610c7a83610c2d565b925050600181019050610c5b565b5085935050505092915050565b5f610ca08383610c39565b905092915050565b5f602082019050919050565b5f610cbe82610bb5565b610cc88185610bbf565b935083602082028501610cda85610bcf565b805f5b85811015610d155784840389528151610cf68582610c95565b9450610d0183610ca8565b925060208a01995050600181019050610cdd565b50829750879550505050505092915050565b5f6020820190508181035f830152610d3f8184610cb4565b905092915050565b5f80fd5b5f601f19601f8301169050919050565b7f4e487b71000000000000000000000000000000000000000000000000000000005f52604160045260245ffd5b610d9182610d4b565b810181811067ffffffffffffffff82111715610db057610daf610d5b565b5b80604052505050565b5f610dc2610b21565b9050610dce8282610d88565b919050565b5f67ffffffffffffffff821115610ded57610dec610d5b565b5b602082029050602081019050919050565b5f80fd5b5f67ffffffffffffffff821115610e1c57610e1b610d5b565b5b602082029050602081019050919050565b5f610e3f610e3a84610e02565b610db9565b90508083825260208201905060208402830185811115610e6257610e61610dfe565b5b835b81811015610e8b5780610e778882610b51565b845260208401935050602081019050610e64565b5050509392505050565b5f82601f830112610ea957610ea8610d47565b5b8135610eb9848260208601610e2d565b91505092915050565b5f610ed4610ecf84610dd3565b610db9565b90508083825260208201905060208402830185811115610ef757610ef6610dfe565b5b835b81811015610f3e57803567ffffffffffffffff811115610f1c57610f1b610d47565b5b808601610f298982610e95565b85526020850194505050602081019050610ef9565b5050509392505050565b5f82601f830112610f5c57610f5b610d47565b5b8135610f6c848260208601610ec2565b91505092915050565b5f60208284031215610f8a57610f89610b2a565b5b5f82013567ffffffffffffffff811115610fa757610fa6610b2e565b5b610fb384828501610f48565b91505092915050565b610fc581610b32565b82525050565b5f602082019050610fde5f830184610fbc565b92915050565b5f82825260208201905092915050565b7f4d696e696d756d2073686f756c64206265206c657373207468616e206f7220655f8201527f7175616c20746f20736861726573000000000000000000000000000000000000602082015250565b5f61104e602e83610fe4565b915061105982610ff4565b604082019050919050565b5f6020820190508181035f83015261107b81611042565b9050919050565b7f4e487b71000000000000000000000000000000000000000000000000000000005f52603260045260245ffd5b7f4e487b71000000000000000000000000000000000000000000000000000000005f52601160045260245ffd5b5f6110e682610b32565b91506110f183610b32565b9250828203905081811115611109576111086110af565b5b92915050565b5f819050919050565b61112961112482610b32565b61110f565b82525050565b5f61113a8284611118565b60208201915081905092915050565b7f4e487b71000000000000000000000000000000000000000000000000000000005f52601260045260245ffd5b5f61118082610b32565b915061118b83610b32565b92508261119b5761119a611149565b5b828206905092915050565b5f6111b082610b32565b91507fffffffffffffffffffffffffffffffffffffffffffffffffffffffffffffffff82036111e2576111e16110af565b5b600182019050919050565b7f4e656564206174206c65617374207468726565207368617265730000000000005f82015250565b5f611221601a83610fe4565b915061122c826111ed565b602082019050919050565b5f6020820190508181035f83015261124e81611215565b9050919050565b5f61125f82610b32565b915061126a83610b32565b925082820261127881610b32565b9150828204841483151761128f5761128e6110af565b5b5092915050565b5f6112a082610b32565b91506112ab83610b32565b92508282019050808211156112c3576112c26110af565b5b92915050565b5f6112d382610b32565b91505f82036112e5576112e46110af565b5b600182039050919050565b7f4172726179732073686f756c64206861766520657175616c206c656e677468005f82015250565b5f611324601f83610fe4565b915061132f826112f0565b602082019050919050565b5f6020820190508181035f83015261135181611318565b9050919050565b5f61136282610b32565b915061136d83610b32565b92508261137d5761137c611149565b5b828204905092915050565b5f819050919050565b5f61139b82611388565b91506113a683611388565b92508282026113b481611388565b91507f800000000000000000000000000000000000000000000000000000000000000084145f841216156113eb576113ea6110af565b5b8282058414831517611400576113ff6110af565b5b5092915050565b5f61141182611388565b915061141c83611388565b925082820390508181125f8412168282135f851215161715611441576114406110af565b5b9291505056fea26469706673582212201f1f9ab05c0497f4e4cf58bc2fe16d974973ae4c810e43287b4b5740c0466a6164736f6c63430008180033",
					"opcodes": "PUSH1 0x80 PUSH1 0x40 MSTORE CALLVALUE DUP1 ISZERO PUSH2 0xF JUMPI PUSH0 DUP1 REVERT JUMPDEST POP PUSH2 0x147D DUP1 PUSH2 0x1D PUSH0 CODECOPY PUSH0 RETURN INVALID PUSH1 0x80 PUSH1 0x40 MSTORE CALLVALUE DUP1 ISZERO PUSH2 0xF JUMPI PUSH0 DUP1 REVERT JUMPDEST POP PUSH1 0x4 CALLDATASIZE LT PUSH2 0x34 JUMPI PUSH0 CALLDATALOAD PUSH1 0xE0 SHR DUP1 PUSH4 0x72C0AEE EQ PUSH2 0x38 JUMPI DUP1 PUSH4 0x8D45EB2E EQ PUSH2 0x68 JUMPI JUMPDEST PUSH0 DUP1 REVERT JUMPDEST PUSH2 0x52 PUSH1 0x4 DUP1 CALLDATASIZE SUB DUP2 ADD SWAP1 PUSH2 0x4D SWAP2 SWAP1 PUSH2 0xB65 JUMP JUMPDEST PUSH2 0x98 JUMP JUMPDEST PUSH1 0x40 MLOAD PUSH2 0x5F SWAP2 SWAP1 PUSH2 0xD27 JUMP JUMPDEST PUSH1 0x40 MLOAD DUP1 SWAP2 SUB SWAP1 RETURN JUMPDEST PUSH2 0x82 PUSH1 0x4 DUP1 CALLDATASIZE SUB DUP2 ADD SWAP1 PUSH2 0x7D SWAP2 SWAP1 PUSH2 0xF75 JUMP JUMPDEST PUSH2 0x2F6 JUMP JUMPDEST PUSH1 0x40 MLOAD PUSH2 0x8F SWAP2 SWAP1 PUSH2 0xFCB JUMP JUMPDEST PUSH1 0x40 MLOAD DUP1 SWAP2 SUB SWAP1 RETURN JUMPDEST PUSH1 0x60 DUP2 DUP4 GT ISZERO PUSH2 0xDD JUMPI PUSH1 0x40 MLOAD PUSH32 0x8C379A000000000000000000000000000000000000000000000000000000000 DUP2 MSTORE PUSH1 0x4 ADD PUSH2 0xD4 SWAP1 PUSH2 0x1064 JUMP JUMPDEST PUSH1 0x40 MLOAD DUP1 SWAP2 SUB SWAP1 REVERT JUMPDEST PUSH0 DUP4 PUSH8 0xFFFFFFFFFFFFFFFF DUP2 GT ISZERO PUSH2 0xF8 JUMPI PUSH2 0xF7 PUSH2 0xD5B JUMP JUMPDEST JUMPDEST PUSH1 0x40 MLOAD SWAP1 DUP1 DUP3 MSTORE DUP1 PUSH1 0x20 MUL PUSH1 0x20 ADD DUP3 ADD PUSH1 0x40 MSTORE DUP1 ISZERO PUSH2 0x126 JUMPI DUP2 PUSH1 0x20 ADD PUSH1 0x20 DUP3 MUL DUP1 CALLDATASIZE DUP4 CALLDATACOPY DUP1 DUP3 ADD SWAP2 POP POP SWAP1 POP JUMPDEST POP SWAP1 POP DUP5 DUP2 PUSH0 DUP2 MLOAD DUP2 LT PUSH2 0x13D JUMPI PUSH2 0x13C PUSH2 0x1082 JUMP JUMPDEST JUMPDEST PUSH1 0x20 MUL PUSH1 0x20 ADD ADD DUP2 DUP2 MSTORE POP POP PUSH0 PUSH4 0xDEADBEEF SWAP1 POP PUSH0 PUSH1 0x1 SWAP1 POP JUMPDEST DUP6 DUP2 LT ISZERO PUSH2 0x1E0 JUMPI DUP1 DUP3 XOR SWAP2 POP PUSH1 0x1 PUSH16 0x7FFFFFFFFFFFFFFFFFFFFFFFFFFFFFFF PUSH2 0x181 SWAP2 SWAP1 PUSH2 0x10DC JUMP JUMPDEST DUP3 PUSH1 0x40 MLOAD PUSH1 0x20 ADD PUSH2 0x192 SWAP2 SWAP1 PUSH2 0x112F JUMP JUMPDEST PUSH1 0x40 MLOAD PUSH1 0x20 DUP2 DUP4 SUB SUB DUP2 MSTORE SWAP1 PUSH1 0x40 MSTORE DUP1 MLOAD SWAP1 PUSH1 0x20 ADD KECCAK256 PUSH0 SHR PUSH2 0x1B4 SWAP2 SWAP1 PUSH2 0x1176 JUMP JUMPDEST DUP4 DUP3 DUP2 MLOAD DUP2 LT PUSH2 0x1C7 JUMPI PUSH2 0x1C6 PUSH2 0x1082 JUMP JUMPDEST JUMPDEST PUSH1 0x20 MUL PUSH1 0x20 ADD ADD DUP2 DUP2 MSTORE POP POP DUP1 DUP1 PUSH1 0x1 ADD SWAP2 POP POP PUSH2 0x157 JUMP JUMPDEST POP PUSH0 DUP5 PUSH8 0xFFFFFFFFFFFFFFFF DUP2 GT ISZERO PUSH2 0x1FC JUMPI PUSH2 0x1FB PUSH2 0xD5B JUMP JUMPDEST JUMPDEST PUSH1 0x40 MLOAD SWAP1 DUP1 DUP3 MSTORE DUP1 PUSH1 0x20 MUL PUSH1 0x20 ADD DUP3 ADD PUSH1 0x40 MSTORE DUP1 ISZERO PUSH2 0x22F JUMPI DUP2 PUSH1 0x20 ADD JUMPDEST PUSH1 0x60 DUP2 MSTORE PUSH1 0x20 ADD SWAP1 PUSH1 0x1 SWAP1 SUB SWAP1 DUP2 PUSH2 0x21A JUMPI SWAP1 POP JUMPDEST POP SWAP1 POP PUSH0 PUSH1 0x1 SWAP1 POP JUMPDEST DUP6 DUP2 GT PUSH2 0x2E8 JUMPI DUP1 DUP3 PUSH1 0x1 DUP4 PUSH2 0x24E SWAP2 SWAP1 PUSH2 0x10DC JUMP JUMPDEST DUP2 MLOAD DUP2 LT PUSH2 0x25F JUMPI PUSH2 0x25E PUSH2 0x1082 JUMP JUMPDEST JUMPDEST PUSH1 0x20 MUL PUSH1 0x20 ADD ADD MLOAD PUSH0 DUP2 MLOAD DUP2 LT PUSH2 0x279 JUMPI PUSH2 0x278 PUSH2 0x1082 JUMP JUMPDEST JUMPDEST PUSH1 0x20 MUL PUSH1 0x20 ADD ADD DUP2 DUP2 MSTORE POP POP PUSH2 0x28F DUP5 DUP3 PUSH2 0x4AC JUMP JUMPDEST DUP3 PUSH1 0x1 DUP4 PUSH2 0x29D SWAP2 SWAP1 PUSH2 0x10DC JUMP JUMPDEST DUP2 MLOAD DUP2 LT PUSH2 0x2AE JUMPI PUSH2 0x2AD PUSH2 0x1082 JUMP JUMPDEST JUMPDEST PUSH1 0x20 MUL PUSH1 0x20 ADD ADD MLOAD PUSH1 0x1 DUP2 MLOAD DUP2 LT PUSH2 0x2C9 JUMPI PUSH2 0x2C8 PUSH2 0x1082 JUMP JUMPDEST JUMPDEST PUSH1 0x20 MUL PUSH1 0x20 ADD ADD DUP2 DUP2 MSTORE POP POP DUP1 DUP1 PUSH2 0x2E0 SWAP1 PUSH2 0x11A6 JUMP JUMPDEST SWAP2 POP POP PUSH2 0x238 JUMP JUMPDEST POP DUP1 SWAP4 POP POP POP POP SWAP4 SWAP3 POP POP POP JUMP JUMPDEST PUSH0 PUSH1 0x3 DUP3 MLOAD LT ISZERO PUSH2 0x33C JUMPI PUSH1 0x40 MLOAD PUSH32 0x8C379A000000000000000000000000000000000000000000000000000000000 DUP2 MSTORE PUSH1 0x4 ADD PUSH2 0x333 SWAP1 PUSH2 0x1237 JUMP JUMPDEST PUSH1 0x40 MLOAD DUP1 SWAP2 SUB SWAP1 REVERT JUMPDEST PUSH0 DUP3 MLOAD PUSH8 0xFFFFFFFFFFFFFFFF DUP2 GT ISZERO PUSH2 0x358 JUMPI PUSH2 0x357 PUSH2 0xD5B JUMP JUMPDEST JUMPDEST PUSH1 0x40 MLOAD SWAP1 DUP1 DUP3 MSTORE DUP1 PUSH1 0x20 MUL PUSH1 0x20 ADD DUP3 ADD PUSH1 0x40 MSTORE DUP1 ISZERO PUSH2 0x386 JUMPI DUP2 PUSH1 0x20 ADD PUSH1 0x20 DUP3 MUL DUP1 CALLDATASIZE DUP4 CALLDATACOPY DUP1 DUP3 ADD SWAP2 POP POP SWAP1 POP JUMPDEST POP SWAP1 POP PUSH0 DUP4 MLOAD PUSH8 0xFFFFFFFFFFFFFFFF DUP2 GT ISZERO PUSH2 0x3A5 JUMPI PUSH2 0x3A4 PUSH2 0xD5B JUMP JUMPDEST JUMPDEST PUSH1 0x40 MLOAD SWAP1 DUP1 DUP3 MSTORE DUP1 PUSH1 0x20 MUL PUSH1 0x20 ADD DUP3 ADD PUSH1 0x40 MSTORE DUP1 ISZERO PUSH2 0x3D3 JUMPI DUP2 PUSH1 0x20 ADD PUSH1 0x20 DUP3 MUL DUP1 CALLDATASIZE DUP4 CALLDATACOPY DUP1 DUP3 ADD SWAP2 POP POP SWAP1 POP JUMPDEST POP SWAP1 POP PUSH0 JUMPDEST DUP5 MLOAD DUP2 LT ISZERO PUSH2 0x497 JUMPI DUP5 DUP2 DUP2 MLOAD DUP2 LT PUSH2 0x3F4 JUMPI PUSH2 0x3F3 PUSH2 0x1082 JUMP JUMPDEST JUMPDEST PUSH1 0x20 MUL PUSH1 0x20 ADD ADD MLOAD PUSH0 DUP2 MLOAD DUP2 LT PUSH2 0x40E JUMPI PUSH2 0x40D PUSH2 0x1082 JUMP JUMPDEST JUMPDEST PUSH1 0x20 MUL PUSH1 0x20 ADD ADD MLOAD DUP4 DUP3 DUP2 MLOAD DUP2 LT PUSH2 0x429 JUMPI PUSH2 0x428 PUSH2 0x1082 JUMP JUMPDEST JUMPDEST PUSH1 0x20 MUL PUSH1 0x20 ADD ADD DUP2 DUP2 MSTORE POP POP DUP5 DUP2 DUP2 MLOAD DUP2 LT PUSH2 0x448 JUMPI PUSH2 0x447 PUSH2 0x1082 JUMP JUMPDEST JUMPDEST PUSH1 0x20 MUL PUSH1 0x20 ADD ADD MLOAD PUSH1 0x1 DUP2 MLOAD DUP2 LT PUSH2 0x463 JUMPI PUSH2 0x462 PUSH2 0x1082 JUMP JUMPDEST JUMPDEST PUSH1 0x20 MUL PUSH1 0x20 ADD ADD MLOAD DUP3 DUP3 DUP2 MLOAD DUP2 LT PUSH2 0x47E JUMPI PUSH2 0x47D PUSH2 0x1082 JUMP JUMPDEST JUMPDEST PUSH1 0x20 MUL PUSH1 0x20 ADD ADD DUP2 DUP2 MSTORE POP POP DUP1 DUP1 PUSH1 0x1 ADD SWAP2 POP POP PUSH2 0x3D8 JUMP JUMPDEST POP PUSH2 0x4A3 PUSH0 DUP4 DUP4 PUSH2 0x53A JUMP JUMPDEST SWAP3 POP POP POP SWAP2 SWAP1 POP JUMP JUMPDEST PUSH0 DUP1 PUSH0 SWAP1 POP PUSH0 DUP5 MLOAD SWAP1 POP JUMPDEST PUSH0 DUP2 GT ISZERO PUSH2 0x52F JUMPI DUP5 PUSH1 0x1 DUP3 PUSH2 0x4CD SWAP2 SWAP1 PUSH2 0x10DC JUMP JUMPDEST DUP2 MLOAD DUP2 LT PUSH2 0x4DE JUMPI PUSH2 0x4DD PUSH2 0x1082 JUMP JUMPDEST JUMPDEST PUSH1 0x20 MUL PUSH1 0x20 ADD ADD MLOAD DUP5 DUP4 PUSH2 0x4F2 SWAP2 SWAP1 PUSH2 0x1255 JUMP JUMPDEST PUSH2 0x4FC SWAP2 SWAP1 PUSH2 0x1296 JUMP JUMPDEST SWAP2 POP PUSH16 0x7FFFFFFFFFFFFFFFFFFFFFFFFFFFFFFF DUP3 PUSH2 0x51A SWAP2 SWAP1 PUSH2 0x1176 JUMP JUMPDEST SWAP2 POP DUP1 DUP1 PUSH2 0x527 SWAP1 PUSH2 0x12C9 JUMP JUMPDEST SWAP2 POP POP PUSH2 0x4B7 JUMP JUMPDEST POP DUP1 SWAP2 POP POP SWAP3 SWAP2 POP POP JUMP JUMPDEST PUSH0 DUP2 MLOAD DUP4 MLOAD EQ PUSH2 0x57F JUMPI PUSH1 0x40 MLOAD PUSH32 0x8C379A000000000000000000000000000000000000000000000000000000000 DUP2 MSTORE PUSH1 0x4 ADD PUSH2 0x576 SWAP1 PUSH2 0x133A JUMP JUMPDEST PUSH1 0x40 MLOAD DUP1 SWAP2 SUB SWAP1 REVERT JUMPDEST PUSH0 DUP4 MLOAD SWAP1 POP PUSH0 DUP1 PUSH0 DUP4 PUSH8 0xFFFFFFFFFFFFFFFF DUP2 GT ISZERO PUSH2 0x5A1 JUMPI PUSH2 0x5A0 PUSH2 0xD5B JUMP JUMPDEST JUMPDEST PUSH1 0x40 MLOAD SWAP1 DUP1 DUP3 MSTORE DUP1 PUSH1 0x20 MUL PUSH1 0x20 ADD DUP3 ADD PUSH1 0x40 MSTORE DUP1 ISZERO PUSH2 0x5CF JUMPI DUP2 PUSH1 0x20 ADD PUSH1 0x20 DUP3 MUL DUP1 CALLDATASIZE DUP4 CALLDATACOPY DUP1 DUP3 ADD SWAP2 POP POP SWAP1 POP JUMPDEST POP SWAP1 POP PUSH0 DUP5 PUSH8 0xFFFFFFFFFFFFFFFF DUP2 GT ISZERO PUSH2 0x5ED JUMPI PUSH2 0x5EC PUSH2 0xD5B JUMP JUMPDEST JUMPDEST PUSH1 0x40 MLOAD SWAP1 DUP1 DUP3 MSTORE DUP1 PUSH1 0x20 MUL PUSH1 0x20 ADD DUP3 ADD PUSH1 0x40 MSTORE DUP1 ISZERO PUSH2 0x61B JUMPI DUP2 PUSH1 0x20 ADD PUSH1 0x20 DUP3 MUL DUP1 CALLDATASIZE DUP4 CALLDATACOPY DUP1 DUP3 ADD SWAP2 POP POP SWAP1 POP JUMPDEST POP SWAP1 POP PUSH0 JUMPDEST DUP6 DUP2 LT ISZERO PUSH2 0x8A9 JUMPI PUSH0 PUSH1 0x1 DUP8 PUSH2 0x636 SWAP2 SWAP1 PUSH2 0x10DC JUMP JUMPDEST PUSH8 0xFFFFFFFFFFFFFFFF DUP2 GT ISZERO PUSH2 0x64F JUMPI PUSH2 0x64E PUSH2 0xD5B JUMP JUMPDEST JUMPDEST PUSH1 0x40 MLOAD SWAP1 DUP1 DUP3 MSTORE DUP1 PUSH1 0x20 MUL PUSH1 0x20 ADD DUP3 ADD PUSH1 0x40 MSTORE DUP1 ISZERO PUSH2 0x67D JUMPI DUP2 PUSH1 0x20 ADD PUSH1 0x20 DUP3 MUL DUP1 CALLDATASIZE DUP4 CALLDATACOPY DUP1 DUP3 ADD SWAP2 POP POP SWAP1 POP JUMPDEST POP SWAP1 POP PUSH0 DUP11 DUP4 DUP2 MLOAD DUP2 LT PUSH2 0x694 JUMPI PUSH2 0x693 PUSH2 0x1082 JUMP JUMPDEST JUMPDEST PUSH1 0x20 MUL PUSH1 0x20 ADD ADD MLOAD SWAP1 POP PUSH0 DUP1 JUMPDEST DUP10 DUP2 LT ISZERO PUSH2 0x704 JUMPI DUP5 DUP2 EQ PUSH2 0x6F7 JUMPI DUP13 DUP2 DUP2 MLOAD DUP2 LT PUSH2 0x6C3 JUMPI PUSH2 0x6C2 PUSH2 0x1082 JUMP JUMPDEST JUMPDEST PUSH1 0x20 MUL PUSH1 0x20 ADD ADD MLOAD DUP5 DUP4 DUP1 PUSH2 0x6D7 SWAP1 PUSH2 0x11A6 JUMP JUMPDEST SWAP5 POP DUP2 MLOAD DUP2 LT PUSH2 0x6EA JUMPI PUSH2 0x6E9 PUSH2 0x1082 JUMP JUMPDEST JUMPDEST PUSH1 0x20 MUL PUSH1 0x20 ADD ADD DUP2 DUP2 MSTORE POP POP JUMPDEST DUP1 DUP1 PUSH1 0x1 ADD SWAP2 POP POP PUSH2 0x6A1 JUMP JUMPDEST POP PUSH1 0x1 DUP7 DUP6 DUP2 MLOAD DUP2 LT PUSH2 0x71A JUMPI PUSH2 0x719 PUSH2 0x1082 JUMP JUMPDEST JUMPDEST PUSH1 0x20 MUL PUSH1 0x20 ADD ADD DUP2 DUP2 MSTORE POP POP PUSH0 JUMPDEST PUSH1 0x1 DUP11 PUSH2 0x735 SWAP2 SWAP1 PUSH2 0x10DC JUMP JUMPDEST DUP2 LT ISZERO PUSH2 0x7CE JUMPI PUSH16 0x7FFFFFFFFFFFFFFFFFFFFFFFFFFFFFFF DUP5 DUP3 DUP2 MLOAD DUP2 LT PUSH2 0x760 JUMPI PUSH2 0x75F PUSH2 0x1082 JUMP JUMPDEST JUMPDEST PUSH1 0x20 MUL PUSH1 0x20 ADD ADD MLOAD DUP16 PUSH2 0x773 SWAP2 SWAP1 PUSH2 0x10DC JUMP JUMPDEST DUP9 DUP8 DUP2 MLOAD DUP2 LT PUSH2 0x786 JUMPI PUSH2 0x785 PUSH2 0x1082 JUMP JUMPDEST JUMPDEST PUSH1 0x20 MUL PUSH1 0x20 ADD ADD MLOAD PUSH2 0x798 SWAP2 SWAP1 PUSH2 0x1255 JUMP JUMPDEST PUSH2 0x7A2 SWAP2 SWAP1 PUSH2 0x1176 JUMP JUMPDEST DUP8 DUP7 DUP2 MLOAD DUP2 LT PUSH2 0x7B5 JUMPI PUSH2 0x7B4 PUSH2 0x1082 JUMP JUMPDEST JUMPDEST PUSH1 0x20 MUL PUSH1 0x20 ADD ADD DUP2 DUP2 MSTORE POP POP DUP1 DUP1 PUSH1 0x1 ADD SWAP2 POP POP PUSH2 0x728 JUMP JUMPDEST POP PUSH1 0x1 DUP6 DUP6 DUP2 MLOAD DUP2 LT PUSH2 0x7E4 JUMPI PUSH2 0x7E3 PUSH2 0x1082 JUMP JUMPDEST JUMPDEST PUSH1 0x20 MUL PUSH1 0x20 ADD ADD DUP2 DUP2 MSTORE POP POP PUSH0 JUMPDEST PUSH1 0x1 DUP11 PUSH2 0x7FF SWAP2 SWAP1 PUSH2 0x10DC JUMP JUMPDEST DUP2 LT ISZERO PUSH2 0x898 JUMPI PUSH16 0x7FFFFFFFFFFFFFFFFFFFFFFFFFFFFFFF DUP5 DUP3 DUP2 MLOAD DUP2 LT PUSH2 0x82A JUMPI PUSH2 0x829 PUSH2 0x1082 JUMP JUMPDEST JUMPDEST PUSH1 0x20 MUL PUSH1 0x20 ADD ADD MLOAD DUP5 PUSH2 0x83D SWAP2 SWAP1 PUSH2 0x10DC JUMP JUMPDEST DUP8 DUP8 DUP2 MLOAD DUP2 LT PUSH2 0x850 JUMPI PUSH2 0x84F PUSH2 0x1082 JUMP JUMPDEST JUMPDEST PUSH1 0x20 MUL PUSH1 0x20 ADD ADD MLOAD PUSH2 0x862 SWAP2 SWAP1 PUSH2 0x1255 JUMP JUMPDEST PUSH2 0x86C SWAP2 SWAP1 PUSH2 0x1176 JUMP JUMPDEST DUP7 DUP7 DUP2 MLOAD DUP2 LT PUSH2 0x87F JUMPI PUSH2 0x87E PUSH2 0x1082 JUMP JUMPDEST JUMPDEST PUSH1 0x20 MUL PUSH1 0x20 ADD ADD DUP2 DUP2 MSTORE POP POP DUP1 DUP1 PUSH1 0x1 ADD SWAP2 POP POP PUSH2 0x7F2 JUMP JUMPDEST POP POP POP POP DUP1 DUP1 PUSH1 0x1 ADD SWAP2 POP POP PUSH2 0x620 JUMP JUMPDEST POP PUSH0 JUMPDEST DUP6 DUP2 LT ISZERO PUSH2 0xA28 JUMPI PUSH16 0x7FFFFFFFFFFFFFFFFFFFFFFFFFFFFFFF PUSH2 0x983 PUSH16 0x7FFFFFFFFFFFFFFFFFFFFFFFFFFFFFFF DUP11 DUP5 DUP2 MLOAD DUP2 LT PUSH2 0x8EC JUMPI PUSH2 0x8EB PUSH2 0x1082 JUMP JUMPDEST JUMPDEST PUSH1 0x20 MUL PUSH1 0x20 ADD ADD MLOAD PUSH16 0x7FFFFFFFFFFFFFFFFFFFFFFFFFFFFFFF DUP7 DUP7 DUP2 MLOAD DUP2 LT PUSH2 0x918 JUMPI PUSH2 0x917 PUSH2 0x1082 JUMP JUMPDEST JUMPDEST PUSH1 0x20 MUL PUSH1 0x20 ADD ADD MLOAD DUP9 DUP8 DUP2 MLOAD DUP2 LT PUSH2 0x933 JUMPI PUSH2 0x932 PUSH2 0x1082 JUMP JUMPDEST JUMPDEST PUSH1 0x20 MUL PUSH1 0x20 ADD ADD MLOAD PUSH2 0x945 SWAP2 SWAP1 PUSH2 0x1255 JUMP JUMPDEST PUSH2 0x94F SWAP2 SWAP1 PUSH2 0x1176 JUMP JUMPDEST PUSH2 0x959 SWAP2 SWAP1 PUSH2 0x1255 JUMP JUMPDEST PUSH2 0x963 SWAP2 SWAP1 PUSH2 0x1176 JUMP JUMPDEST DUP5 DUP5 DUP2 MLOAD DUP2 LT PUSH2 0x976 JUMPI PUSH2 0x975 PUSH2 0x1082 JUMP JUMPDEST JUMPDEST PUSH1 0x20 MUL PUSH1 0x20 ADD ADD MLOAD PUSH2 0xA41 JUMP JUMPDEST DUP7 PUSH2 0x98E SWAP2 SWAP1 PUSH2 0x1296 JUMP JUMPDEST PUSH2 0x998 SWAP2 SWAP1 PUSH2 0x1176 JUMP JUMPDEST SWAP5 POP PUSH16 0x7FFFFFFFFFFFFFFFFFFFFFFFFFFFFFFF PUSH2 0x9E9 DUP5 DUP4 DUP2 MLOAD DUP2 LT PUSH2 0x9C1 JUMPI PUSH2 0x9C0 PUSH2 0x1082 JUMP JUMPDEST JUMPDEST PUSH1 0x20 MUL PUSH1 0x20 ADD ADD MLOAD DUP5 DUP5 DUP2 MLOAD DUP2 LT PUSH2 0x9DC JUMPI PUSH2 0x9DB PUSH2 0x1082 JUMP JUMPDEST JUMPDEST PUSH1 0x20 MUL PUSH1 0x20 ADD ADD MLOAD PUSH2 0xA41 JUMP JUMPDEST PUSH16 0x7FFFFFFFFFFFFFFFFFFFFFFFFFFFFFFF DUP7 PUSH2 0xA05 SWAP2 SWAP1 PUSH2 0x1296 JUMP JUMPDEST PUSH2 0xA0F SWAP2 SWAP1 PUSH2 0x10DC JUMP JUMPDEST PUSH2 0xA19 SWAP2 SWAP1 PUSH2 0x1176 JUMP JUMPDEST SWAP4 POP DUP1 DUP1 PUSH1 0x1 ADD SWAP2 POP POP PUSH2 0x8AC JUMP JUMPDEST POP PUSH2 0xA33 DUP5 DUP5 PUSH2 0xA41 JUMP JUMPDEST SWAP6 POP POP POP POP POP POP SWAP4 SWAP3 POP POP POP JUMP JUMPDEST PUSH0 DUP1 PUSH2 0xA5D DUP4 PUSH16 0x7FFFFFFFFFFFFFFFFFFFFFFFFFFFFFFF PUSH2 0xA90 JUMP JUMPDEST POP SWAP1 POP PUSH16 0x7FFFFFFFFFFFFFFFFFFFFFFFFFFFFFFF DUP2 DUP6 PUSH2 0xA7D SWAP2 SWAP1 PUSH2 0x1255 JUMP JUMPDEST PUSH2 0xA87 SWAP2 SWAP1 PUSH2 0x1176 JUMP JUMPDEST SWAP2 POP POP SWAP3 SWAP2 POP POP JUMP JUMPDEST PUSH0 DUP1 PUSH0 DUP1 PUSH1 0x1 SWAP1 POP PUSH0 PUSH1 0x1 SWAP1 POP PUSH0 JUMPDEST PUSH0 DUP8 EQ PUSH2 0xB10 JUMPI PUSH0 DUP8 DUP10 PUSH2 0xAB3 SWAP2 SWAP1 PUSH2 0x1358 JUMP JUMPDEST SWAP1 POP DUP8 DUP9 DUP11 PUSH2 0xAC2 SWAP2 SWAP1 PUSH2 0x1176 JUMP JUMPDEST DUP1 SWAP10 POP DUP2 SWAP11 POP POP POP DUP5 DUP2 PUSH2 0xAD6 SWAP2 SWAP1 PUSH2 0x1391 JUMP JUMPDEST DUP5 PUSH2 0xAE1 SWAP2 SWAP1 PUSH2 0x1407 JUMP JUMPDEST DUP6 DUP1 SWAP6 POP DUP2 SWAP7 POP POP POP DUP3 DUP2 PUSH2 0xAF6 SWAP2 SWAP1 PUSH2 0x1391 JUMP JUMPDEST DUP3 PUSH2 0xB01 SWAP2 SWAP1 PUSH2 0x1407 JUMP JUMPDEST DUP4 DUP1 SWAP4 POP DUP2 SWAP5 POP POP POP POP PUSH2 0xA9F JUMP JUMPDEST DUP3 DUP2 SWAP6 POP SWAP6 POP POP POP POP POP SWAP3 POP SWAP3 SWAP1 POP JUMP JUMPDEST PUSH0 PUSH1 0x40 MLOAD SWAP1 POP SWAP1 JUMP JUMPDEST PUSH0 DUP1 REVERT JUMPDEST PUSH0 DUP1 REVERT JUMPDEST PUSH0 DUP2 SWAP1 POP SWAP2 SWAP1 POP JUMP JUMPDEST PUSH2 0xB44 DUP2 PUSH2 0xB32 JUMP JUMPDEST DUP2 EQ PUSH2 0xB4E JUMPI PUSH0 DUP1 REVERT JUMPDEST POP JUMP JUMPDEST PUSH0 DUP2 CALLDATALOAD SWAP1 POP PUSH2 0xB5F DUP2 PUSH2 0xB3B JUMP JUMPDEST SWAP3 SWAP2 POP POP JUMP JUMPDEST PUSH0 DUP1 PUSH0 PUSH1 0x60 DUP5 DUP7 SUB SLT ISZERO PUSH2 0xB7C JUMPI PUSH2 0xB7B PUSH2 0xB2A JUMP JUMPDEST JUMPDEST PUSH0 PUSH2 0xB89 DUP7 DUP3 DUP8 ADD PUSH2 0xB51 JUMP JUMPDEST SWAP4 POP POP PUSH1 0x20 PUSH2 0xB9A DUP7 DUP3 DUP8 ADD PUSH2 0xB51 JUMP JUMPDEST SWAP3 POP POP PUSH1 0x40 PUSH2 0xBAB DUP7 DUP3 DUP8 ADD PUSH2 0xB51 JUMP JUMPDEST SWAP2 POP POP SWAP3 POP SWAP3 POP SWAP3 JUMP JUMPDEST PUSH0 DUP2 MLOAD SWAP1 POP SWAP2 SWAP1 POP JUMP JUMPDEST PUSH0 DUP3 DUP3 MSTORE PUSH1 0x20 DUP3 ADD SWAP1 POP SWAP3 SWAP2 POP POP JUMP JUMPDEST PUSH0 DUP2 SWAP1 POP PUSH1 0x20 DUP3 ADD SWAP1 POP SWAP2 SWAP1 POP JUMP JUMPDEST PUSH0 DUP2 MLOAD SWAP1 POP SWAP2 SWAP1 POP JUMP JUMPDEST PUSH0 DUP3 DUP3 MSTORE PUSH1 0x20 DUP3 ADD SWAP1 POP SWAP3 SWAP2 POP POP JUMP JUMPDEST PUSH0 DUP2 SWAP1 POP PUSH1 0x20 DUP3 ADD SWAP1 POP SWAP2 SWAP1 POP JUMP JUMPDEST PUSH2 0xC10 DUP2 PUSH2 0xB32 JUMP JUMPDEST DUP3 MSTORE POP POP JUMP JUMPDEST PUSH0 PUSH2 0xC21 DUP4 DUP4 PUSH2 0xC07 JUMP JUMPDEST PUSH1 0x20 DUP4 ADD SWAP1 POP SWAP3 SWAP2 POP POP JUMP JUMPDEST PUSH0 PUSH1 0x20 DUP3 ADD SWAP1 POP SWAP2 SWAP1 POP JUMP JUMPDEST PUSH0 PUSH2 0xC43 DUP3 PUSH2 0xBDE JUMP JUMPDEST PUSH2 0xC4D DUP2 DUP6 PUSH2 0xBE8 JUMP JUMPDEST SWAP4 POP PUSH2 0xC58 DUP4 PUSH2 0xBF8 JUMP JUMPDEST DUP1 PUSH0 JUMPDEST DUP4 DUP2 LT ISZERO PUSH2 0xC88 JUMPI DUP2 MLOAD PUSH2 0xC6F DUP9 DUP3 PUSH2 0xC16 JUMP JUMPDEST SWAP8 POP PUSH2 0xC7A DUP4 PUSH2 0xC2D JUMP JUMPDEST SWAP3 POP POP PUSH1 0x1 DUP2 ADD SWAP1 POP PUSH2 0xC5B JUMP JUMPDEST POP DUP6 SWAP4 POP POP POP POP SWAP3 SWAP2 POP POP JUMP JUMPDEST PUSH0 PUSH2 0xCA0 DUP4 DUP4 PUSH2 0xC39 JUMP JUMPDEST SWAP1 POP SWAP3 SWAP2 POP POP JUMP JUMPDEST PUSH0 PUSH1 0x20 DUP3 ADD SWAP1 POP SWAP2 SWAP1 POP JUMP JUMPDEST PUSH0 PUSH2 0xCBE DUP3 PUSH2 0xBB5 JUMP JUMPDEST PUSH2 0xCC8 DUP2 DUP6 PUSH2 0xBBF JUMP JUMPDEST SWAP4 POP DUP4 PUSH1 0x20 DUP3 MUL DUP6 ADD PUSH2 0xCDA DUP6 PUSH2 0xBCF JUMP JUMPDEST DUP1 PUSH0 JUMPDEST DUP6 DUP2 LT ISZERO PUSH2 0xD15 JUMPI DUP5 DUP5 SUB DUP10 MSTORE DUP2 MLOAD PUSH2 0xCF6 DUP6 DUP3 PUSH2 0xC95 JUMP JUMPDEST SWAP5 POP PUSH2 0xD01 DUP4 PUSH2 0xCA8 JUMP JUMPDEST SWAP3 POP PUSH1 0x20 DUP11 ADD SWAP10 POP POP PUSH1 0x1 DUP2 ADD SWAP1 POP PUSH2 0xCDD JUMP JUMPDEST POP DUP3 SWAP8 POP DUP8 SWAP6 POP POP POP POP POP POP SWAP3 SWAP2 POP POP JUMP JUMPDEST PUSH0 PUSH1 0x20 DUP3 ADD SWAP1 POP DUP2 DUP2 SUB PUSH0 DUP4 ADD MSTORE PUSH2 0xD3F DUP2 DUP5 PUSH2 0xCB4 JUMP JUMPDEST SWAP1 POP SWAP3 SWAP2 POP POP JUMP JUMPDEST PUSH0 DUP1 REVERT JUMPDEST PUSH0 PUSH1 0x1F NOT PUSH1 0x1F DUP4 ADD AND SWAP1 POP SWAP2 SWAP1 POP JUMP JUMPDEST PUSH32 0x4E487B7100000000000000000000000000000000000000000000000000000000 PUSH0 MSTORE PUSH1 0x41 PUSH1 0x4 MSTORE PUSH1 0x24 PUSH0 REVERT JUMPDEST PUSH2 0xD91 DUP3 PUSH2 0xD4B JUMP JUMPDEST DUP2 ADD DUP2 DUP2 LT PUSH8 0xFFFFFFFFFFFFFFFF DUP3 GT OR ISZERO PUSH2 0xDB0 JUMPI PUSH2 0xDAF PUSH2 0xD5B JUMP JUMPDEST JUMPDEST DUP1 PUSH1 0x40 MSTORE POP POP POP JUMP JUMPDEST PUSH0 PUSH2 0xDC2 PUSH2 0xB21 JUMP JUMPDEST SWAP1 POP PUSH2 0xDCE DUP3 DUP3 PUSH2 0xD88 JUMP JUMPDEST SWAP2 SWAP1 POP JUMP JUMPDEST PUSH0 PUSH8 0xFFFFFFFFFFFFFFFF DUP3 GT ISZERO PUSH2 0xDED JUMPI PUSH2 0xDEC PUSH2 0xD5B JUMP JUMPDEST JUMPDEST PUSH1 0x20 DUP3 MUL SWAP1 POP PUSH1 0x20 DUP2 ADD SWAP1 POP SWAP2 SWAP1 POP JUMP JUMPDEST PUSH0 DUP1 REVERT JUMPDEST PUSH0 PUSH8 0xFFFFFFFFFFFFFFFF DUP3 GT ISZERO PUSH2 0xE1C JUMPI PUSH2 0xE1B PUSH2 0xD5B JUMP JUMPDEST JUMPDEST PUSH1 0x20 DUP3 MUL SWAP1 POP PUSH1 0x20 DUP2 ADD SWAP1 POP SWAP2 SWAP1 POP JUMP JUMPDEST PUSH0 PUSH2 0xE3F PUSH2 0xE3A DUP5 PUSH2 0xE02 JUMP JUMPDEST PUSH2 0xDB9 JUMP JUMPDEST SWAP1 POP DUP1 DUP4 DUP3 MSTORE PUSH1 0x20 DUP3 ADD SWAP1 POP PUSH1 0x20 DUP5 MUL DUP4 ADD DUP6 DUP2 GT ISZERO PUSH2 0xE62 JUMPI PUSH2 0xE61 PUSH2 0xDFE JUMP JUMPDEST JUMPDEST DUP4 JUMPDEST DUP2 DUP2 LT ISZERO PUSH2 0xE8B JUMPI DUP1 PUSH2 0xE77 DUP9 DUP3 PUSH2 0xB51 JUMP JUMPDEST DUP5 MSTORE PUSH1 0x20 DUP5 ADD SWAP4 POP POP PUSH1 0x20 DUP2 ADD SWAP1 POP PUSH2 0xE64 JUMP JUMPDEST POP POP POP SWAP4 SWAP3 POP POP POP JUMP JUMPDEST PUSH0 DUP3 PUSH1 0x1F DUP4 ADD SLT PUSH2 0xEA9 JUMPI PUSH2 0xEA8 PUSH2 0xD47 JUMP JUMPDEST JUMPDEST DUP2 CALLDATALOAD PUSH2 0xEB9 DUP5 DUP3 PUSH1 0x20 DUP7 ADD PUSH2 0xE2D JUMP JUMPDEST SWAP2 POP POP SWAP3 SWAP2 POP POP JUMP JUMPDEST PUSH0 PUSH2 0xED4 PUSH2 0xECF DUP5 PUSH2 0xDD3 JUMP JUMPDEST PUSH2 0xDB9 JUMP JUMPDEST SWAP1 POP DUP1 DUP4 DUP3 MSTORE PUSH1 0x20 DUP3 ADD SWAP1 POP PUSH1 0x20 DUP5 MUL DUP4 ADD DUP6 DUP2 GT ISZERO PUSH2 0xEF7 JUMPI PUSH2 0xEF6 PUSH2 0xDFE JUMP JUMPDEST JUMPDEST DUP4 JUMPDEST DUP2 DUP2 LT ISZERO PUSH2 0xF3E JUMPI DUP1 CALLDATALOAD PUSH8 0xFFFFFFFFFFFFFFFF DUP2 GT ISZERO PUSH2 0xF1C JUMPI PUSH2 0xF1B PUSH2 0xD47 JUMP JUMPDEST JUMPDEST DUP1 DUP7 ADD PUSH2 0xF29 DUP10 DUP3 PUSH2 0xE95 JUMP JUMPDEST DUP6 MSTORE PUSH1 0x20 DUP6 ADD SWAP5 POP POP POP PUSH1 0x20 DUP2 ADD SWAP1 POP PUSH2 0xEF9 JUMP JUMPDEST POP POP POP SWAP4 SWAP3 POP POP POP JUMP JUMPDEST PUSH0 DUP3 PUSH1 0x1F DUP4 ADD SLT PUSH2 0xF5C JUMPI PUSH2 0xF5B PUSH2 0xD47 JUMP JUMPDEST JUMPDEST DUP2 CALLDATALOAD PUSH2 0xF6C DUP5 DUP3 PUSH1 0x20 DUP7 ADD PUSH2 0xEC2 JUMP JUMPDEST SWAP2 POP POP SWAP3 SWAP2 POP POP JUMP JUMPDEST PUSH0 PUSH1 0x20 DUP3 DUP5 SUB SLT ISZERO PUSH2 0xF8A JUMPI PUSH2 0xF89 PUSH2 0xB2A JUMP JUMPDEST JUMPDEST PUSH0 DUP3 ADD CALLDATALOAD PUSH8 0xFFFFFFFFFFFFFFFF DUP2 GT ISZERO PUSH2 0xFA7 JUMPI PUSH2 0xFA6 PUSH2 0xB2E JUMP JUMPDEST JUMPDEST PUSH2 0xFB3 DUP5 DUP3 DUP6 ADD PUSH2 0xF48 JUMP JUMPDEST SWAP2 POP POP SWAP3 SWAP2 POP POP JUMP JUMPDEST PUSH2 0xFC5 DUP2 PUSH2 0xB32 JUMP JUMPDEST DUP3 MSTORE POP POP JUMP JUMPDEST PUSH0 PUSH1 0x20 DUP3 ADD SWAP1 POP PUSH2 0xFDE PUSH0 DUP4 ADD DUP5 PUSH2 0xFBC JUMP JUMPDEST SWAP3 SWAP2 POP POP JUMP JUMPDEST PUSH0 DUP3 DUP3 MSTORE PUSH1 0x20 DUP3 ADD SWAP1 POP SWAP3 SWAP2 POP POP JUMP JUMPDEST PUSH32 0x4D696E696D756D2073686F756C64206265206C657373207468616E206F722065 PUSH0 DUP3 ADD MSTORE PUSH32 0x7175616C20746F20736861726573000000000000000000000000000000000000 PUSH1 0x20 DUP3 ADD MSTORE POP JUMP JUMPDEST PUSH0 PUSH2 0x104E PUSH1 0x2E DUP4 PUSH2 0xFE4 JUMP JUMPDEST SWAP2 POP PUSH2 0x1059 DUP3 PUSH2 0xFF4 JUMP JUMPDEST PUSH1 0x40 DUP3 ADD SWAP1 POP SWAP2 SWAP1 POP JUMP JUMPDEST PUSH0 PUSH1 0x20 DUP3 ADD SWAP1 POP DUP2 DUP2 SUB PUSH0 DUP4 ADD MSTORE PUSH2 0x107B DUP2 PUSH2 0x1042 JUMP JUMPDEST SWAP1 POP SWAP2 SWAP1 POP JUMP JUMPDEST PUSH32 0x4E487B7100000000000000000000000000000000000000000000000000000000 PUSH0 MSTORE PUSH1 0x32 PUSH1 0x4 MSTORE PUSH1 0x24 PUSH0 REVERT JUMPDEST PUSH32 0x4E487B7100000000000000000000000000000000000000000000000000000000 PUSH0 MSTORE PUSH1 0x11 PUSH1 0x4 MSTORE PUSH1 0x24 PUSH0 REVERT JUMPDEST PUSH0 PUSH2 0x10E6 DUP3 PUSH2 0xB32 JUMP JUMPDEST SWAP2 POP PUSH2 0x10F1 DUP4 PUSH2 0xB32 JUMP JUMPDEST SWAP3 POP DUP3 DUP3 SUB SWAP1 POP DUP2 DUP2 GT ISZERO PUSH2 0x1109 JUMPI PUSH2 0x1108 PUSH2 0x10AF JUMP JUMPDEST JUMPDEST SWAP3 SWAP2 POP POP JUMP JUMPDEST PUSH0 DUP2 SWAP1 POP SWAP2 SWAP1 POP JUMP JUMPDEST PUSH2 0x1129 PUSH2 0x1124 DUP3 PUSH2 0xB32 JUMP JUMPDEST PUSH2 0x110F JUMP JUMPDEST DUP3 MSTORE POP POP JUMP JUMPDEST PUSH0 PUSH2 0x113A DUP3 DUP5 PUSH2 0x1118 JUMP JUMPDEST PUSH1 0x20 DUP3 ADD SWAP2 POP DUP2 SWAP1 POP SWAP3 SWAP2 POP POP JUMP JUMPDEST PUSH32 0x4E487B7100000000000000000000000000000000000000000000000000000000 PUSH0 MSTORE PUSH1 0x12 PUSH1 0x4 MSTORE PUSH1 0x24 PUSH0 REVERT JUMPDEST PUSH0 PUSH2 0x1180 DUP3 PUSH2 0xB32 JUMP JUMPDEST SWAP2 POP PUSH2 0x118B DUP4 PUSH2 0xB32 JUMP JUMPDEST SWAP3 POP DUP3 PUSH2 0x119B JUMPI PUSH2 0x119A PUSH2 0x1149 JUMP JUMPDEST JUMPDEST DUP3 DUP3 MOD SWAP1 POP SWAP3 SWAP2 POP POP JUMP JUMPDEST PUSH0 PUSH2 0x11B0 DUP3 PUSH2 0xB32 JUMP JUMPDEST SWAP2 POP PUSH32 0xFFFFFFFFFFFFFFFFFFFFFFFFFFFFFFFFFFFFFFFFFFFFFFFFFFFFFFFFFFFFFFFF DUP3 SUB PUSH2 0x11E2 JUMPI PUSH2 0x11E1 PUSH2 0x10AF JUMP JUMPDEST JUMPDEST PUSH1 0x1 DUP3 ADD SWAP1 POP SWAP2 SWAP1 POP JUMP JUMPDEST PUSH32 0x4E656564206174206C6561737420746872656520736861726573000000000000 PUSH0 DUP3 ADD MSTORE POP JUMP JUMPDEST PUSH0 PUSH2 0x1221 PUSH1 0x1A DUP4 PUSH2 0xFE4 JUMP JUMPDEST SWAP2 POP PUSH2 0x122C DUP3 PUSH2 0x11ED JUMP JUMPDEST PUSH1 0x20 DUP3 ADD SWAP1 POP SWAP2 SWAP1 POP JUMP JUMPDEST PUSH0 PUSH1 0x20 DUP3 ADD SWAP1 POP DUP2 DUP2 SUB PUSH0 DUP4 ADD MSTORE PUSH2 0x124E DUP2 PUSH2 0x1215 JUMP JUMPDEST SWAP1 POP SWAP2 SWAP1 POP JUMP JUMPDEST PUSH0 PUSH2 0x125F DUP3 PUSH2 0xB32 JUMP JUMPDEST SWAP2 POP PUSH2 0x126A DUP4 PUSH2 0xB32 JUMP JUMPDEST SWAP3 POP DUP3 DUP3 MUL PUSH2 0x1278 DUP2 PUSH2 0xB32 JUMP JUMPDEST SWAP2 POP DUP3 DUP3 DIV DUP5 EQ DUP4 ISZERO OR PUSH2 0x128F JUMPI PUSH2 0x128E PUSH2 0x10AF JUMP JUMPDEST JUMPDEST POP SWAP3 SWAP2 POP POP JUMP JUMPDEST PUSH0 PUSH2 0x12A0 DUP3 PUSH2 0xB32 JUMP JUMPDEST SWAP2 POP PUSH2 0x12AB DUP4 PUSH2 0xB32 JUMP JUMPDEST SWAP3 POP DUP3 DUP3 ADD SWAP1 POP DUP1 DUP3 GT ISZERO PUSH2 0x12C3 JUMPI PUSH2 0x12C2 PUSH2 0x10AF JUMP JUMPDEST JUMPDEST SWAP3 SWAP2 POP POP JUMP JUMPDEST PUSH0 PUSH2 0x12D3 DUP3 PUSH2 0xB32 JUMP JUMPDEST SWAP2 POP PUSH0 DUP3 SUB PUSH2 0x12E5 JUMPI PUSH2 0x12E4 PUSH2 0x10AF JUMP JUMPDEST JUMPDEST PUSH1 0x1 DUP3 SUB SWAP1 POP SWAP2 SWAP1 POP JUMP JUMPDEST PUSH32 0x4172726179732073686F756C64206861766520657175616C206C656E67746800 PUSH0 DUP3 ADD MSTORE POP JUMP JUMPDEST PUSH0 PUSH2 0x1324 PUSH1 0x1F DUP4 PUSH2 0xFE4 JUMP JUMPDEST SWAP2 POP PUSH2 0x132F DUP3 PUSH2 0x12F0 JUMP JUMPDEST PUSH1 0x20 DUP3 ADD SWAP1 POP SWAP2 SWAP1 POP JUMP JUMPDEST PUSH0 PUSH1 0x20 DUP3 ADD SWAP1 POP DUP2 DUP2 SUB PUSH0 DUP4 ADD MSTORE PUSH2 0x1351 DUP2 PUSH2 0x1318 JUMP JUMPDEST SWAP1 POP SWAP2 SWAP1 POP JUMP JUMPDEST PUSH0 PUSH2 0x1362 DUP3 PUSH2 0xB32 JUMP JUMPDEST SWAP2 POP PUSH2 0x136D DUP4 PUSH2 0xB32 JUMP JUMPDEST SWAP3 POP DUP3 PUSH2 0x137D JUMPI PUSH2 0x137C PUSH2 0x1149 JUMP JUMPDEST JUMPDEST DUP3 DUP3 DIV SWAP1 POP SWAP3 SWAP2 POP POP JUMP JUMPDEST PUSH0 DUP2 SWAP1 POP SWAP2 SWAP1 POP JUMP JUMPDEST PUSH0 PUSH2 0x139B DUP3 PUSH2 0x1388 JUMP JUMPDEST SWAP2 POP PUSH2 0x13A6 DUP4 PUSH2 0x1388 JUMP JUMPDEST SWAP3 POP DUP3 DUP3 MUL PUSH2 0x13B4 DUP2 PUSH2 0x1388 JUMP JUMPDEST SWAP2 POP PUSH32 0x8000000000000000000000000000000000000000000000000000000000000000 DUP5 EQ PUSH0 DUP5 SLT AND ISZERO PUSH2 0x13EB JUMPI PUSH2 0x13EA PUSH2 0x10AF JUMP JUMPDEST JUMPDEST DUP3 DUP3 SDIV DUP5 EQ DUP4 ISZERO OR PUSH2 0x1400 JUMPI PUSH2 0x13FF PUSH2 0x10AF JUMP JUMPDEST JUMPDEST POP SWAP3 SWAP2 POP POP JUMP JUMPDEST PUSH0 PUSH2 0x1411 DUP3 PUSH2 0x1388 JUMP JUMPDEST SWAP2 POP PUSH2 0x141C DUP4 PUSH2 0x1388 JUMP JUMPDEST SWAP3 POP DUP3 DUP3 SUB SWAP1 POP DUP2 DUP2 SLT PUSH0 DUP5 SLT AND DUP3 DUP3 SGT PUSH0 DUP6 SLT ISZERO AND OR ISZERO PUSH2 0x1441 JUMPI PUSH2 0x1440 PUSH2 0x10AF JUMP JUMPDEST JUMPDEST SWAP3 SWAP2 POP POP JUMP INVALID LOG2 PUSH5 0x6970667358 0x22 SLT KECCAK256 0x1F 0x1F SWAP11 0xB0 TLOAD DIV SWAP8 DELEGATECALL 0xE4 0xCF PC 0xBC 0x2F 0xE1 PUSH14 0x974973AE4C810E43287B4B5740C0 CHAINID PUSH11 0x6164736F6C634300081800 CALLER "
				},
				"gasEstimates": {
					"creation": {
						"codeDepositCost": "1049000",
						"executionCost": "1085",
						"totalCost": "1050085"
					},
					"external": {
						"makeRandomShares(uint256,uint256,uint256)": "infinite",
						"recoverSecret(uint256[][])": "infinite"
					},
					"internal": {
						"divmod(uint256,uint256)": "infinite",
						"evalAt(uint256[] memory,uint256)": "infinite",
						"extendedGcd(uint256,uint256)": "infinite",
						"lagrangeInterpolate(uint256,uint256[] memory,uint256[] memory)": "infinite"
					}
				},
				"methodIdentifiers": {
					"makeRandomShares(uint256,uint256,uint256)": "072c0aee",
					"recoverSecret(uint256[][])": "8d45eb2e"
				}
			},
			"storageLayout": {
				"storage": [],
				"types": null
			},
			"userdoc": {
				"kind": "user",
				"methods": {},
				"version": 1
			}
		}
	}
}