{
	"contracts/HelloWorld1.sol": {
		"ShareDistribution": {
			"abi": [
				{
					"inputs": [
						{
							"internalType": "uint256",
							"name": "n",
							"type": "uint256"
						},
						{
							"internalType": "uint256",
							"name": "t",
							"type": "uint256"
						},
						{
							"internalType": "uint256",
							"name": "size",
							"type": "uint256"
						}
					],
					"stateMutability": "nonpayable",
					"type": "constructor"
				},
				{
					"inputs": [
						{
							"internalType": "uint256",
							"name": "",
							"type": "uint256"
						}
					],
					"name": "coefficients",
					"outputs": [
						{
							"internalType": "uint256",
							"name": "",
							"type": "uint256"
						}
					],
					"stateMutability": "view",
					"type": "function"
				},
				{
					"inputs": [],
					"name": "constructShare",
					"outputs": [],
					"stateMutability": "nonpayable",
					"type": "function"
				},
				{
					"inputs": [],
					"name": "numberOfParties",
					"outputs": [
						{
							"internalType": "uint256",
							"name": "",
							"type": "uint256"
						}
					],
					"stateMutability": "view",
					"type": "function"
				},
				{
					"inputs": [],
					"name": "p",
					"outputs": [
						{
							"internalType": "uint256",
							"name": "",
							"type": "uint256"
						}
					],
					"stateMutability": "view",
					"type": "function"
				},
				{
					"inputs": [
						{
							"internalType": "uint256",
							"name": "",
							"type": "uint256"
						}
					],
					"name": "partyShares",
					"outputs": [
						{
							"internalType": "uint256",
							"name": "",
							"type": "uint256"
						}
					],
					"stateMutability": "view",
					"type": "function"
				},
				{
					"inputs": [
						{
							"internalType": "uint256[7]",
							"name": "indices",
							"type": "uint256[7]"
						}
					],
					"name": "reConstruction",
					"outputs": [
						{
							"internalType": "uint256",
							"name": "",
							"type": "uint256"
						}
					],
					"stateMutability": "view",
					"type": "function"
				},
				{
					"inputs": [],
					"name": "secret",
					"outputs": [
						{
							"internalType": "uint256",
							"name": "",
							"type": "uint256"
						}
					],
					"stateMutability": "view",
					"type": "function"
				},
				{
					"inputs": [],
					"name": "threshold",
					"outputs": [
						{
							"internalType": "uint256",
							"name": "",
							"type": "uint256"
						}
					],
					"stateMutability": "view",
					"type": "function"
				}
			],
			"devdoc": {
				"kind": "dev",
				"methods": {},
				"version": 1
			},
			"evm": {
				"assembly": "    /* \"contracts/HelloWorld1.sol\":116:3365  contract ShareDistribution {... */\n  mstore(0x40, 0x80)\n    /* \"contracts/HelloWorld1.sol\":780:1615  constructor(uint256 n, uint256 t, uint256 size) {... */\n  callvalue\n  dup1\n  iszero\n  tag_1\n  jumpi\n  0x00\n  dup1\n  revert\ntag_1:\n  pop\n  mload(0x40)\n  sub(codesize, bytecodeSize)\n  dup1\n  bytecodeSize\n  dup4\n  codecopy\n  dup2\n  dup2\n  add\n  0x40\n  mstore\n  dup2\n  add\n  swap1\n  tag_2\n  swap2\n  swap1\n  tag_3\n  jump\t// in\ntag_2:\n    /* \"contracts/HelloWorld1.sol\":213:215  10 */\n  0x0a\n    /* \"contracts/HelloWorld1.sol\":846:847  n */\n  dup4\n    /* \"contracts/HelloWorld1.sol\":846:862  n <= MAX_PARTIES */\n  gt\n  iszero\n    /* \"contracts/HelloWorld1.sol\":838:900  require(n <= MAX_PARTIES, \"Number of parties exceeds maximum\") */\n  tag_6\n  jumpi\n  mload(0x40)\n  0x08c379a000000000000000000000000000000000000000000000000000000000\n  dup2\n  mstore\n  0x04\n  add\n  tag_7\n  swap1\n  tag_8\n  jump\t// in\ntag_7:\n  mload(0x40)\n  dup1\n  swap2\n  sub\n  swap1\n  revert\ntag_6:\n    /* \"contracts/HelloWorld1.sol\":254:255  7 */\n  0x07\n    /* \"contracts/HelloWorld1.sol\":918:919  t */\n  dup3\n    /* \"contracts/HelloWorld1.sol\":918:936  t <= MAX_THRESHOLD */\n  gt\n  iszero\n    /* \"contracts/HelloWorld1.sol\":910:966  require(t <= MAX_THRESHOLD, \"Threshold exceeds maximum\") */\n  tag_9\n  jumpi\n  mload(0x40)\n  0x08c379a000000000000000000000000000000000000000000000000000000000\n  dup2\n  mstore\n  0x04\n  add\n  tag_10\n  swap1\n  tag_11\n  jump\t// in\ntag_10:\n  mload(0x40)\n  dup1\n  swap2\n  sub\n  swap1\n  revert\ntag_9:\n    /* \"contracts/HelloWorld1.sol\":989:990  n */\n  dup3\n    /* \"contracts/HelloWorld1.sol\":984:985  t */\n  dup3\n    /* \"contracts/HelloWorld1.sol\":984:990  t <= n */\n  gt\n  iszero\n    /* \"contracts/HelloWorld1.sol\":976:1056  require(t <= n, \"Threshold must be less than or equal to the number of parties\") */\n  tag_12\n  jumpi\n  mload(0x40)\n  0x08c379a000000000000000000000000000000000000000000000000000000000\n  dup2\n  mstore\n  0x04\n  add\n  tag_13\n  swap1\n  tag_14\n  jump\t// in\ntag_13:\n  mload(0x40)\n  dup1\n  swap2\n  sub\n  swap1\n  revert\ntag_12:\n    /* \"contracts/HelloWorld1.sol\":1081:1082  1 */\n  0x01\n    /* \"contracts/HelloWorld1.sol\":1074:1078  size */\n  dup2\n    /* \"contracts/HelloWorld1.sol\":1074:1082  size > 1 */\n  gt\n    /* \"contracts/HelloWorld1.sol\":1066:1117  require(size > 1, \"Modulus must be greater than 1\") */\n  tag_15\n  jumpi\n  mload(0x40)\n  0x08c379a000000000000000000000000000000000000000000000000000000000\n  dup2\n  mstore\n  0x04\n  add\n  tag_16\n  swap1\n  tag_17\n  jump\t// in\ntag_16:\n  mload(0x40)\n  dup1\n  swap2\n  sub\n  swap1\n  revert\ntag_15:\n    /* \"contracts/HelloWorld1.sol\":1146:1147  n */\n  dup3\n    /* \"contracts/HelloWorld1.sol\":1128:1143  numberOfParties */\n  0x02\n    /* \"contracts/HelloWorld1.sol\":1128:1147  numberOfParties = n */\n  dup2\n  swap1\n  sstore\n  pop\n    /* \"contracts/HelloWorld1.sol\":1169:1170  t */\n  dup2\n    /* \"contracts/HelloWorld1.sol\":1157:1166  threshold */\n  0x0d\n    /* \"contracts/HelloWorld1.sol\":1157:1170  threshold = t */\n  dup2\n  swap1\n  sstore\n  pop\n    /* \"contracts/HelloWorld1.sol\":1184:1188  size */\n  dup1\n    /* \"contracts/HelloWorld1.sol\":1180:1181  p */\n  0x00\n    /* \"contracts/HelloWorld1.sol\":1180:1188  p = size */\n  dup2\n  swap1\n  sstore\n  pop\n    /* \"contracts/HelloWorld1.sol\":1288:1303  block.timestamp */\n  timestamp\n    /* \"contracts/HelloWorld1.sol\":1305:1318  block.basefee */\n  basefee\n    /* \"contracts/HelloWorld1.sol\":1271:1319  abi.encodePacked(block.timestamp, block.basefee) */\n  add(0x20, mload(0x40))\n  tag_18\n  swap3\n  swap2\n  swap1\n  tag_19\n  jump\t// in\ntag_18:\n  mload(0x40)\n  0x20\n  dup2\n  dup4\n  sub\n  sub\n  dup2\n  mstore\n  swap1\n  0x40\n  mstore\n    /* \"contracts/HelloWorld1.sol\":1261:1320  keccak256(abi.encodePacked(block.timestamp, block.basefee)) */\n  dup1\n  mload\n  swap1\n  0x20\n  add\n  keccak256\n    /* \"contracts/HelloWorld1.sol\":1253:1321  uint256(keccak256(abi.encodePacked(block.timestamp, block.basefee))) */\n  0x00\n  shr\n    /* \"contracts/HelloWorld1.sol\":1244:1250  secret */\n  0x01\n    /* \"contracts/HelloWorld1.sol\":1244:1321  secret = uint256(keccak256(abi.encodePacked(block.timestamp, block.basefee))) */\n  dup2\n  swap1\n  sstore\n  pop\n    /* \"contracts/HelloWorld1.sol\":1367:1376  uint256 i */\n  0x00\n    /* \"contracts/HelloWorld1.sol\":1362:1451  for (uint256 i = 0; i < numberOfParties; i++) {... */\ntag_20:\n    /* \"contracts/HelloWorld1.sol\":1386:1401  numberOfParties */\n  sload(0x02)\n    /* \"contracts/HelloWorld1.sol\":1382:1383  i */\n  dup2\n    /* \"contracts/HelloWorld1.sol\":1382:1401  i < numberOfParties */\n  lt\n    /* \"contracts/HelloWorld1.sol\":1362:1451  for (uint256 i = 0; i < numberOfParties; i++) {... */\n  iszero\n  tag_21\n  jumpi\n    /* \"contracts/HelloWorld1.sol\":1439:1440  0 */\n  0x00\n    /* \"contracts/HelloWorld1.sol\":1422:1433  partyShares */\n  0x03\n    /* \"contracts/HelloWorld1.sol\":1434:1435  i */\n  dup3\n    /* \"contracts/HelloWorld1.sol\":1422:1436  partyShares[i] */\n  0x0a\n  dup2\n  lt\n  tag_23\n  jumpi\n  tag_24\n  tag_25\n  jump\t// in\ntag_24:\ntag_23:\n  add\n    /* \"contracts/HelloWorld1.sol\":1422:1440  partyShares[i] = 0 */\n  dup2\n  swap1\n  sstore\n  pop\n    /* \"contracts/HelloWorld1.sol\":1403:1406  i++ */\n  dup1\n  dup1\n  0x01\n  add\n  swap2\n  pop\n  pop\n    /* \"contracts/HelloWorld1.sol\":1362:1451  for (uint256 i = 0; i < numberOfParties; i++) {... */\n  jump(tag_20)\ntag_21:\n  pop\n    /* \"contracts/HelloWorld1.sol\":1466:1475  uint256 i */\n  0x00\n    /* \"contracts/HelloWorld1.sol\":1461:1609  for (uint256 i = 0; i < threshold - 1; i++) {... */\ntag_27:\n    /* \"contracts/HelloWorld1.sol\":1497:1498  1 */\n  0x01\n    /* \"contracts/HelloWorld1.sol\":1485:1494  threshold */\n  sload(0x0d)\n    /* \"contracts/HelloWorld1.sol\":1485:1498  threshold - 1 */\n  tag_30\n  swap2\n  swap1\n  tag_31\n  jump\t// in\ntag_30:\n    /* \"contracts/HelloWorld1.sol\":1481:1482  i */\n  dup2\n    /* \"contracts/HelloWorld1.sol\":1481:1498  i < threshold - 1 */\n  lt\n    /* \"contracts/HelloWorld1.sol\":1461:1609  for (uint256 i = 0; i < threshold - 1; i++) {... */\n  iszero\n  tag_28\n  jumpi\n    /* \"contracts/HelloWorld1.sol\":1597:1598  p */\n  sload(0x00)\n    /* \"contracts/HelloWorld1.sol\":1590:1591  i */\n  dup2\n    /* \"contracts/HelloWorld1.sol\":1572:1587  block.timestamp */\n  timestamp\n    /* \"contracts/HelloWorld1.sol\":1572:1591  block.timestamp + i */\n  tag_32\n  swap2\n  swap1\n  tag_33\n  jump\t// in\ntag_32:\n    /* \"contracts/HelloWorld1.sol\":1555:1592  abi.encodePacked(block.timestamp + i) */\n  add(0x20, mload(0x40))\n  tag_34\n  swap2\n  swap1\n  tag_35\n  jump\t// in\ntag_34:\n  mload(0x40)\n  0x20\n  dup2\n  dup4\n  sub\n  sub\n  dup2\n  mstore\n  swap1\n  0x40\n  mstore\n    /* \"contracts/HelloWorld1.sol\":1545:1593  keccak256(abi.encodePacked(block.timestamp + i)) */\n  dup1\n  mload\n  swap1\n  0x20\n  add\n  keccak256\n    /* \"contracts/HelloWorld1.sol\":1537:1594  uint256(keccak256(abi.encodePacked(block.timestamp + i))) */\n  0x00\n  shr\n    /* \"contracts/HelloWorld1.sol\":1537:1598  uint256(keccak256(abi.encodePacked(block.timestamp + i))) % p */\n  tag_36\n  swap2\n  swap1\n  tag_37\n  jump\t// in\ntag_36:\n    /* \"contracts/HelloWorld1.sol\":1519:1531  coefficients */\n  0x0e\n    /* \"contracts/HelloWorld1.sol\":1532:1533  i */\n  dup3\n    /* \"contracts/HelloWorld1.sol\":1519:1534  coefficients[i] */\n  0x06\n  dup2\n  lt\n  tag_38\n  jumpi\n  tag_39\n  tag_25\n  jump\t// in\ntag_39:\ntag_38:\n  add\n    /* \"contracts/HelloWorld1.sol\":1519:1598  coefficients[i] = uint256(keccak256(abi.encodePacked(block.timestamp + i))) % p */\n  dup2\n  swap1\n  sstore\n  pop\n    /* \"contracts/HelloWorld1.sol\":1500:1503  i++ */\n  dup1\n  dup1\n  0x01\n  add\n  swap2\n  pop\n  pop\n    /* \"contracts/HelloWorld1.sol\":1461:1609  for (uint256 i = 0; i < threshold - 1; i++) {... */\n  jump(tag_27)\ntag_28:\n  pop\n    /* \"contracts/HelloWorld1.sol\":780:1615  constructor(uint256 n, uint256 t, uint256 size) {... */\n  pop\n  pop\n  pop\n    /* \"contracts/HelloWorld1.sol\":116:3365  contract ShareDistribution {... */\n  jump(tag_41)\n    /* \"#utility.yul\":88:205   */\ntag_43:\n    /* \"#utility.yul\":197:198   */\n  0x00\n    /* \"#utility.yul\":194:195   */\n  dup1\n    /* \"#utility.yul\":187:199   */\n  revert\n    /* \"#utility.yul\":334:411   */\ntag_45:\n    /* \"#utility.yul\":371:378   */\n  0x00\n    /* \"#utility.yul\":400:405   */\n  dup2\n    /* \"#utility.yul\":389:405   */\n  swap1\n  pop\n    /* \"#utility.yul\":334:411   */\n  swap2\n  swap1\n  pop\n  jump\t// out\n    /* \"#utility.yul\":417:539   */\ntag_46:\n    /* \"#utility.yul\":490:514   */\n  tag_67\n    /* \"#utility.yul\":508:513   */\n  dup2\n    /* \"#utility.yul\":490:514   */\n  tag_45\n  jump\t// in\ntag_67:\n    /* \"#utility.yul\":483:488   */\n  dup2\n    /* \"#utility.yul\":480:515   */\n  eq\n    /* \"#utility.yul\":470:533   */\n  tag_68\n  jumpi\n    /* \"#utility.yul\":529:530   */\n  0x00\n    /* \"#utility.yul\":526:527   */\n  dup1\n    /* \"#utility.yul\":519:531   */\n  revert\n    /* \"#utility.yul\":470:533   */\ntag_68:\n    /* \"#utility.yul\":417:539   */\n  pop\n  jump\t// out\n    /* \"#utility.yul\":545:688   */\ntag_47:\n    /* \"#utility.yul\":602:607   */\n  0x00\n    /* \"#utility.yul\":633:639   */\n  dup2\n    /* \"#utility.yul\":627:640   */\n  mload\n    /* \"#utility.yul\":618:640   */\n  swap1\n  pop\n    /* \"#utility.yul\":649:682   */\n  tag_70\n    /* \"#utility.yul\":676:681   */\n  dup2\n    /* \"#utility.yul\":649:682   */\n  tag_46\n  jump\t// in\ntag_70:\n    /* \"#utility.yul\":545:688   */\n  swap3\n  swap2\n  pop\n  pop\n  jump\t// out\n    /* \"#utility.yul\":694:1357   */\ntag_3:\n    /* \"#utility.yul\":782:788   */\n  0x00\n    /* \"#utility.yul\":790:796   */\n  dup1\n    /* \"#utility.yul\":798:804   */\n  0x00\n    /* \"#utility.yul\":847:849   */\n  0x60\n    /* \"#utility.yul\":835:844   */\n  dup5\n    /* \"#utility.yul\":826:833   */\n  dup7\n    /* \"#utility.yul\":822:845   */\n  sub\n    /* \"#utility.yul\":818:850   */\n  slt\n    /* \"#utility.yul\":815:934   */\n  iszero\n  tag_72\n  jumpi\n    /* \"#utility.yul\":853:932   */\n  tag_73\n  tag_43\n  jump\t// in\ntag_73:\n    /* \"#utility.yul\":815:934   */\ntag_72:\n    /* \"#utility.yul\":973:974   */\n  0x00\n    /* \"#utility.yul\":998:1062   */\n  tag_74\n    /* \"#utility.yul\":1054:1061   */\n  dup7\n    /* \"#utility.yul\":1045:1051   */\n  dup3\n    /* \"#utility.yul\":1034:1043   */\n  dup8\n    /* \"#utility.yul\":1030:1052   */\n  add\n    /* \"#utility.yul\":998:1062   */\n  tag_47\n  jump\t// in\ntag_74:\n    /* \"#utility.yul\":988:1062   */\n  swap4\n  pop\n    /* \"#utility.yul\":944:1072   */\n  pop\n    /* \"#utility.yul\":1111:1113   */\n  0x20\n    /* \"#utility.yul\":1137:1201   */\n  tag_75\n    /* \"#utility.yul\":1193:1200   */\n  dup7\n    /* \"#utility.yul\":1184:1190   */\n  dup3\n    /* \"#utility.yul\":1173:1182   */\n  dup8\n    /* \"#utility.yul\":1169:1191   */\n  add\n    /* \"#utility.yul\":1137:1201   */\n  tag_47\n  jump\t// in\ntag_75:\n    /* \"#utility.yul\":1127:1201   */\n  swap3\n  pop\n    /* \"#utility.yul\":1082:1211   */\n  pop\n    /* \"#utility.yul\":1250:1252   */\n  0x40\n    /* \"#utility.yul\":1276:1340   */\n  tag_76\n    /* \"#utility.yul\":1332:1339   */\n  dup7\n    /* \"#utility.yul\":1323:1329   */\n  dup3\n    /* \"#utility.yul\":1312:1321   */\n  dup8\n    /* \"#utility.yul\":1308:1330   */\n  add\n    /* \"#utility.yul\":1276:1340   */\n  tag_47\n  jump\t// in\ntag_76:\n    /* \"#utility.yul\":1266:1340   */\n  swap2\n  pop\n    /* \"#utility.yul\":1221:1350   */\n  pop\n    /* \"#utility.yul\":694:1357   */\n  swap3\n  pop\n  swap3\n  pop\n  swap3\n  jump\t// out\n    /* \"#utility.yul\":1363:1532   */\ntag_48:\n    /* \"#utility.yul\":1447:1458   */\n  0x00\n    /* \"#utility.yul\":1481:1487   */\n  dup3\n    /* \"#utility.yul\":1476:1479   */\n  dup3\n    /* \"#utility.yul\":1469:1488   */\n  mstore\n    /* \"#utility.yul\":1521:1525   */\n  0x20\n    /* \"#utility.yul\":1516:1519   */\n  dup3\n    /* \"#utility.yul\":1512:1526   */\n  add\n    /* \"#utility.yul\":1497:1526   */\n  swap1\n  pop\n    /* \"#utility.yul\":1363:1532   */\n  swap3\n  swap2\n  pop\n  pop\n  jump\t// out\n    /* \"#utility.yul\":1538:1758   */\ntag_49:\n    /* \"#utility.yul\":1678:1712   */\n  0x4e756d626572206f6620706172746965732065786365656473206d6178696d75\n    /* \"#utility.yul\":1674:1675   */\n  0x00\n    /* \"#utility.yul\":1666:1672   */\n  dup3\n    /* \"#utility.yul\":1662:1676   */\n  add\n    /* \"#utility.yul\":1655:1713   */\n  mstore\n    /* \"#utility.yul\":1747:1750   */\n  0x6d00000000000000000000000000000000000000000000000000000000000000\n    /* \"#utility.yul\":1742:1744   */\n  0x20\n    /* \"#utility.yul\":1734:1740   */\n  dup3\n    /* \"#utility.yul\":1730:1745   */\n  add\n    /* \"#utility.yul\":1723:1751   */\n  mstore\n    /* \"#utility.yul\":1538:1758   */\n  pop\n  jump\t// out\n    /* \"#utility.yul\":1764:2130   */\ntag_50:\n    /* \"#utility.yul\":1906:1909   */\n  0x00\n    /* \"#utility.yul\":1927:1994   */\n  tag_80\n    /* \"#utility.yul\":1991:1993   */\n  0x21\n    /* \"#utility.yul\":1986:1989   */\n  dup4\n    /* \"#utility.yul\":1927:1994   */\n  tag_48\n  jump\t// in\ntag_80:\n    /* \"#utility.yul\":1920:1994   */\n  swap2\n  pop\n    /* \"#utility.yul\":2003:2096   */\n  tag_81\n    /* \"#utility.yul\":2092:2095   */\n  dup3\n    /* \"#utility.yul\":2003:2096   */\n  tag_49\n  jump\t// in\ntag_81:\n    /* \"#utility.yul\":2121:2123   */\n  0x40\n    /* \"#utility.yul\":2116:2119   */\n  dup3\n    /* \"#utility.yul\":2112:2124   */\n  add\n    /* \"#utility.yul\":2105:2124   */\n  swap1\n  pop\n    /* \"#utility.yul\":1764:2130   */\n  swap2\n  swap1\n  pop\n  jump\t// out\n    /* \"#utility.yul\":2136:2555   */\ntag_8:\n    /* \"#utility.yul\":2302:2306   */\n  0x00\n    /* \"#utility.yul\":2340:2342   */\n  0x20\n    /* \"#utility.yul\":2329:2338   */\n  dup3\n    /* \"#utility.yul\":2325:2343   */\n  add\n    /* \"#utility.yul\":2317:2343   */\n  swap1\n  pop\n    /* \"#utility.yul\":2389:2398   */\n  dup2\n    /* \"#utility.yul\":2383:2387   */\n  dup2\n    /* \"#utility.yul\":2379:2399   */\n  sub\n    /* \"#utility.yul\":2375:2376   */\n  0x00\n    /* \"#utility.yul\":2364:2373   */\n  dup4\n    /* \"#utility.yul\":2360:2377   */\n  add\n    /* \"#utility.yul\":2353:2400   */\n  mstore\n    /* \"#utility.yul\":2417:2548   */\n  tag_83\n    /* \"#utility.yul\":2543:2547   */\n  dup2\n    /* \"#utility.yul\":2417:2548   */\n  tag_50\n  jump\t// in\ntag_83:\n    /* \"#utility.yul\":2409:2548   */\n  swap1\n  pop\n    /* \"#utility.yul\":2136:2555   */\n  swap2\n  swap1\n  pop\n  jump\t// out\n    /* \"#utility.yul\":2561:2736   */\ntag_51:\n    /* \"#utility.yul\":2701:2728   */\n  0x5468726573686f6c642065786365656473206d6178696d756d00000000000000\n    /* \"#utility.yul\":2697:2698   */\n  0x00\n    /* \"#utility.yul\":2689:2695   */\n  dup3\n    /* \"#utility.yul\":2685:2699   */\n  add\n    /* \"#utility.yul\":2678:2729   */\n  mstore\n    /* \"#utility.yul\":2561:2736   */\n  pop\n  jump\t// out\n    /* \"#utility.yul\":2742:3108   */\ntag_52:\n    /* \"#utility.yul\":2884:2887   */\n  0x00\n    /* \"#utility.yul\":2905:2972   */\n  tag_86\n    /* \"#utility.yul\":2969:2971   */\n  0x19\n    /* \"#utility.yul\":2964:2967   */\n  dup4\n    /* \"#utility.yul\":2905:2972   */\n  tag_48\n  jump\t// in\ntag_86:\n    /* \"#utility.yul\":2898:2972   */\n  swap2\n  pop\n    /* \"#utility.yul\":2981:3074   */\n  tag_87\n    /* \"#utility.yul\":3070:3073   */\n  dup3\n    /* \"#utility.yul\":2981:3074   */\n  tag_51\n  jump\t// in\ntag_87:\n    /* \"#utility.yul\":3099:3101   */\n  0x20\n    /* \"#utility.yul\":3094:3097   */\n  dup3\n    /* \"#utility.yul\":3090:3102   */\n  add\n    /* \"#utility.yul\":3083:3102   */\n  swap1\n  pop\n    /* \"#utility.yul\":2742:3108   */\n  swap2\n  swap1\n  pop\n  jump\t// out\n    /* \"#utility.yul\":3114:3533   */\ntag_11:\n    /* \"#utility.yul\":3280:3284   */\n  0x00\n    /* \"#utility.yul\":3318:3320   */\n  0x20\n    /* \"#utility.yul\":3307:3316   */\n  dup3\n    /* \"#utility.yul\":3303:3321   */\n  add\n    /* \"#utility.yul\":3295:3321   */\n  swap1\n  pop\n    /* \"#utility.yul\":3367:3376   */\n  dup2\n    /* \"#utility.yul\":3361:3365   */\n  dup2\n    /* \"#utility.yul\":3357:3377   */\n  sub\n    /* \"#utility.yul\":3353:3354   */\n  0x00\n    /* \"#utility.yul\":3342:3351   */\n  dup4\n    /* \"#utility.yul\":3338:3355   */\n  add\n    /* \"#utility.yul\":3331:3378   */\n  mstore\n    /* \"#utility.yul\":3395:3526   */\n  tag_89\n    /* \"#utility.yul\":3521:3525   */\n  dup2\n    /* \"#utility.yul\":3395:3526   */\n  tag_52\n  jump\t// in\ntag_89:\n    /* \"#utility.yul\":3387:3526   */\n  swap1\n  pop\n    /* \"#utility.yul\":3114:3533   */\n  swap2\n  swap1\n  pop\n  jump\t// out\n    /* \"#utility.yul\":3539:3787   */\ntag_53:\n    /* \"#utility.yul\":3679:3713   */\n  0x5468726573686f6c64206d757374206265206c657373207468616e206f722065\n    /* \"#utility.yul\":3675:3676   */\n  0x00\n    /* \"#utility.yul\":3667:3673   */\n  dup3\n    /* \"#utility.yul\":3663:3677   */\n  add\n    /* \"#utility.yul\":3656:3714   */\n  mstore\n    /* \"#utility.yul\":3748:3779   */\n  0x7175616c20746f20746865206e756d626572206f662070617274696573000000\n    /* \"#utility.yul\":3743:3745   */\n  0x20\n    /* \"#utility.yul\":3735:3741   */\n  dup3\n    /* \"#utility.yul\":3731:3746   */\n  add\n    /* \"#utility.yul\":3724:3780   */\n  mstore\n    /* \"#utility.yul\":3539:3787   */\n  pop\n  jump\t// out\n    /* \"#utility.yul\":3793:4159   */\ntag_54:\n    /* \"#utility.yul\":3935:3938   */\n  0x00\n    /* \"#utility.yul\":3956:4023   */\n  tag_92\n    /* \"#utility.yul\":4020:4022   */\n  0x3d\n    /* \"#utility.yul\":4015:4018   */\n  dup4\n    /* \"#utility.yul\":3956:4023   */\n  tag_48\n  jump\t// in\ntag_92:\n    /* \"#utility.yul\":3949:4023   */\n  swap2\n  pop\n    /* \"#utility.yul\":4032:4125   */\n  tag_93\n    /* \"#utility.yul\":4121:4124   */\n  dup3\n    /* \"#utility.yul\":4032:4125   */\n  tag_53\n  jump\t// in\ntag_93:\n    /* \"#utility.yul\":4150:4152   */\n  0x40\n    /* \"#utility.yul\":4145:4148   */\n  dup3\n    /* \"#utility.yul\":4141:4153   */\n  add\n    /* \"#utility.yul\":4134:4153   */\n  swap1\n  pop\n    /* \"#utility.yul\":3793:4159   */\n  swap2\n  swap1\n  pop\n  jump\t// out\n    /* \"#utility.yul\":4165:4584   */\ntag_14:\n    /* \"#utility.yul\":4331:4335   */\n  0x00\n    /* \"#utility.yul\":4369:4371   */\n  0x20\n    /* \"#utility.yul\":4358:4367   */\n  dup3\n    /* \"#utility.yul\":4354:4372   */\n  add\n    /* \"#utility.yul\":4346:4372   */\n  swap1\n  pop\n    /* \"#utility.yul\":4418:4427   */\n  dup2\n    /* \"#utility.yul\":4412:4416   */\n  dup2\n    /* \"#utility.yul\":4408:4428   */\n  sub\n    /* \"#utility.yul\":4404:4405   */\n  0x00\n    /* \"#utility.yul\":4393:4402   */\n  dup4\n    /* \"#utility.yul\":4389:4406   */\n  add\n    /* \"#utility.yul\":4382:4429   */\n  mstore\n    /* \"#utility.yul\":4446:4577   */\n  tag_95\n    /* \"#utility.yul\":4572:4576   */\n  dup2\n    /* \"#utility.yul\":4446:4577   */\n  tag_54\n  jump\t// in\ntag_95:\n    /* \"#utility.yul\":4438:4577   */\n  swap1\n  pop\n    /* \"#utility.yul\":4165:4584   */\n  swap2\n  swap1\n  pop\n  jump\t// out\n    /* \"#utility.yul\":4590:4770   */\ntag_55:\n    /* \"#utility.yul\":4730:4762   */\n  0x4d6f64756c7573206d7573742062652067726561746572207468616e20310000\n    /* \"#utility.yul\":4726:4727   */\n  0x00\n    /* \"#utility.yul\":4718:4724   */\n  dup3\n    /* \"#utility.yul\":4714:4728   */\n  add\n    /* \"#utility.yul\":4707:4763   */\n  mstore\n    /* \"#utility.yul\":4590:4770   */\n  pop\n  jump\t// out\n    /* \"#utility.yul\":4776:5142   */\ntag_56:\n    /* \"#utility.yul\":4918:4921   */\n  0x00\n    /* \"#utility.yul\":4939:5006   */\n  tag_98\n    /* \"#utility.yul\":5003:5005   */\n  0x1e\n    /* \"#utility.yul\":4998:5001   */\n  dup4\n    /* \"#utility.yul\":4939:5006   */\n  tag_48\n  jump\t// in\ntag_98:\n    /* \"#utility.yul\":4932:5006   */\n  swap2\n  pop\n    /* \"#utility.yul\":5015:5108   */\n  tag_99\n    /* \"#utility.yul\":5104:5107   */\n  dup3\n    /* \"#utility.yul\":5015:5108   */\n  tag_55\n  jump\t// in\ntag_99:\n    /* \"#utility.yul\":5133:5135   */\n  0x20\n    /* \"#utility.yul\":5128:5131   */\n  dup3\n    /* \"#utility.yul\":5124:5136   */\n  add\n    /* \"#utility.yul\":5117:5136   */\n  swap1\n  pop\n    /* \"#utility.yul\":4776:5142   */\n  swap2\n  swap1\n  pop\n  jump\t// out\n    /* \"#utility.yul\":5148:5567   */\ntag_17:\n    /* \"#utility.yul\":5314:5318   */\n  0x00\n    /* \"#utility.yul\":5352:5354   */\n  0x20\n    /* \"#utility.yul\":5341:5350   */\n  dup3\n    /* \"#utility.yul\":5337:5355   */\n  add\n    /* \"#utility.yul\":5329:5355   */\n  swap1\n  pop\n    /* \"#utility.yul\":5401:5410   */\n  dup2\n    /* \"#utility.yul\":5395:5399   */\n  dup2\n    /* \"#utility.yul\":5391:5411   */\n  sub\n    /* \"#utility.yul\":5387:5388   */\n  0x00\n    /* \"#utility.yul\":5376:5385   */\n  dup4\n    /* \"#utility.yul\":5372:5389   */\n  add\n    /* \"#utility.yul\":5365:5412   */\n  mstore\n    /* \"#utility.yul\":5429:5560   */\n  tag_101\n    /* \"#utility.yul\":5555:5559   */\n  dup2\n    /* \"#utility.yul\":5429:5560   */\n  tag_56\n  jump\t// in\ntag_101:\n    /* \"#utility.yul\":5421:5560   */\n  swap1\n  pop\n    /* \"#utility.yul\":5148:5567   */\n  swap2\n  swap1\n  pop\n  jump\t// out\n    /* \"#utility.yul\":5573:5652   */\ntag_57:\n    /* \"#utility.yul\":5612:5619   */\n  0x00\n    /* \"#utility.yul\":5641:5646   */\n  dup2\n    /* \"#utility.yul\":5630:5646   */\n  swap1\n  pop\n    /* \"#utility.yul\":5573:5652   */\n  swap2\n  swap1\n  pop\n  jump\t// out\n    /* \"#utility.yul\":5658:5815   */\ntag_58:\n    /* \"#utility.yul\":5763:5808   */\n  tag_104\n    /* \"#utility.yul\":5783:5807   */\n  tag_105\n    /* \"#utility.yul\":5801:5806   */\n  dup3\n    /* \"#utility.yul\":5783:5807   */\n  tag_45\n  jump\t// in\ntag_105:\n    /* \"#utility.yul\":5763:5808   */\n  tag_57\n  jump\t// in\ntag_104:\n    /* \"#utility.yul\":5758:5761   */\n  dup3\n    /* \"#utility.yul\":5751:5809   */\n  mstore\n    /* \"#utility.yul\":5658:5815   */\n  pop\n  pop\n  jump\t// out\n    /* \"#utility.yul\":5821:6218   */\ntag_19:\n    /* \"#utility.yul\":5961:5964   */\n  0x00\n    /* \"#utility.yul\":5976:6051   */\n  tag_107\n    /* \"#utility.yul\":6047:6050   */\n  dup3\n    /* \"#utility.yul\":6038:6044   */\n  dup6\n    /* \"#utility.yul\":5976:6051   */\n  tag_58\n  jump\t// in\ntag_107:\n    /* \"#utility.yul\":6076:6078   */\n  0x20\n    /* \"#utility.yul\":6071:6074   */\n  dup3\n    /* \"#utility.yul\":6067:6079   */\n  add\n    /* \"#utility.yul\":6060:6079   */\n  swap2\n  pop\n    /* \"#utility.yul\":6089:6164   */\n  tag_108\n    /* \"#utility.yul\":6160:6163   */\n  dup3\n    /* \"#utility.yul\":6151:6157   */\n  dup5\n    /* \"#utility.yul\":6089:6164   */\n  tag_58\n  jump\t// in\ntag_108:\n    /* \"#utility.yul\":6189:6191   */\n  0x20\n    /* \"#utility.yul\":6184:6187   */\n  dup3\n    /* \"#utility.yul\":6180:6192   */\n  add\n    /* \"#utility.yul\":6173:6192   */\n  swap2\n  pop\n    /* \"#utility.yul\":6209:6212   */\n  dup2\n    /* \"#utility.yul\":6202:6212   */\n  swap1\n  pop\n    /* \"#utility.yul\":5821:6218   */\n  swap4\n  swap3\n  pop\n  pop\n  pop\n  jump\t// out\n    /* \"#utility.yul\":6224:6404   */\ntag_25:\n    /* \"#utility.yul\":6272:6349   */\n  0x4e487b7100000000000000000000000000000000000000000000000000000000\n    /* \"#utility.yul\":6269:6270   */\n  0x00\n    /* \"#utility.yul\":6262:6350   */\n  mstore\n    /* \"#utility.yul\":6369:6373   */\n  0x32\n    /* \"#utility.yul\":6366:6367   */\n  0x04\n    /* \"#utility.yul\":6359:6374   */\n  mstore\n    /* \"#utility.yul\":6393:6397   */\n  0x24\n    /* \"#utility.yul\":6390:6391   */\n  0x00\n    /* \"#utility.yul\":6383:6398   */\n  revert\n    /* \"#utility.yul\":6410:6590   */\ntag_59:\n    /* \"#utility.yul\":6458:6535   */\n  0x4e487b7100000000000000000000000000000000000000000000000000000000\n    /* \"#utility.yul\":6455:6456   */\n  0x00\n    /* \"#utility.yul\":6448:6536   */\n  mstore\n    /* \"#utility.yul\":6555:6559   */\n  0x11\n    /* \"#utility.yul\":6552:6553   */\n  0x04\n    /* \"#utility.yul\":6545:6560   */\n  mstore\n    /* \"#utility.yul\":6579:6583   */\n  0x24\n    /* \"#utility.yul\":6576:6577   */\n  0x00\n    /* \"#utility.yul\":6569:6584   */\n  revert\n    /* \"#utility.yul\":6596:6790   */\ntag_31:\n    /* \"#utility.yul\":6636:6640   */\n  0x00\n    /* \"#utility.yul\":6656:6676   */\n  tag_112\n    /* \"#utility.yul\":6674:6675   */\n  dup3\n    /* \"#utility.yul\":6656:6676   */\n  tag_45\n  jump\t// in\ntag_112:\n    /* \"#utility.yul\":6651:6676   */\n  swap2\n  pop\n    /* \"#utility.yul\":6690:6710   */\n  tag_113\n    /* \"#utility.yul\":6708:6709   */\n  dup4\n    /* \"#utility.yul\":6690:6710   */\n  tag_45\n  jump\t// in\ntag_113:\n    /* \"#utility.yul\":6685:6710   */\n  swap3\n  pop\n    /* \"#utility.yul\":6734:6735   */\n  dup3\n    /* \"#utility.yul\":6731:6732   */\n  dup3\n    /* \"#utility.yul\":6727:6736   */\n  sub\n    /* \"#utility.yul\":6719:6736   */\n  swap1\n  pop\n    /* \"#utility.yul\":6758:6759   */\n  dup2\n    /* \"#utility.yul\":6752:6756   */\n  dup2\n    /* \"#utility.yul\":6749:6760   */\n  gt\n    /* \"#utility.yul\":6746:6783   */\n  iszero\n  tag_114\n  jumpi\n    /* \"#utility.yul\":6763:6781   */\n  tag_115\n  tag_59\n  jump\t// in\ntag_115:\n    /* \"#utility.yul\":6746:6783   */\ntag_114:\n    /* \"#utility.yul\":6596:6790   */\n  swap3\n  swap2\n  pop\n  pop\n  jump\t// out\n    /* \"#utility.yul\":6796:6987   */\ntag_33:\n    /* \"#utility.yul\":6836:6839   */\n  0x00\n    /* \"#utility.yul\":6855:6875   */\n  tag_117\n    /* \"#utility.yul\":6873:6874   */\n  dup3\n    /* \"#utility.yul\":6855:6875   */\n  tag_45\n  jump\t// in\ntag_117:\n    /* \"#utility.yul\":6850:6875   */\n  swap2\n  pop\n    /* \"#utility.yul\":6889:6909   */\n  tag_118\n    /* \"#utility.yul\":6907:6908   */\n  dup4\n    /* \"#utility.yul\":6889:6909   */\n  tag_45\n  jump\t// in\ntag_118:\n    /* \"#utility.yul\":6884:6909   */\n  swap3\n  pop\n    /* \"#utility.yul\":6932:6933   */\n  dup3\n    /* \"#utility.yul\":6929:6930   */\n  dup3\n    /* \"#utility.yul\":6925:6934   */\n  add\n    /* \"#utility.yul\":6918:6934   */\n  swap1\n  pop\n    /* \"#utility.yul\":6953:6956   */\n  dup1\n    /* \"#utility.yul\":6950:6951   */\n  dup3\n    /* \"#utility.yul\":6947:6957   */\n  gt\n    /* \"#utility.yul\":6944:6980   */\n  iszero\n  tag_119\n  jumpi\n    /* \"#utility.yul\":6960:6978   */\n  tag_120\n  tag_59\n  jump\t// in\ntag_120:\n    /* \"#utility.yul\":6944:6980   */\ntag_119:\n    /* \"#utility.yul\":6796:6987   */\n  swap3\n  swap2\n  pop\n  pop\n  jump\t// out\n    /* \"#utility.yul\":6993:7249   */\ntag_35:\n    /* \"#utility.yul\":7105:7108   */\n  0x00\n    /* \"#utility.yul\":7120:7195   */\n  tag_122\n    /* \"#utility.yul\":7191:7194   */\n  dup3\n    /* \"#utility.yul\":7182:7188   */\n  dup5\n    /* \"#utility.yul\":7120:7195   */\n  tag_58\n  jump\t// in\ntag_122:\n    /* \"#utility.yul\":7220:7222   */\n  0x20\n    /* \"#utility.yul\":7215:7218   */\n  dup3\n    /* \"#utility.yul\":7211:7223   */\n  add\n    /* \"#utility.yul\":7204:7223   */\n  swap2\n  pop\n    /* \"#utility.yul\":7240:7243   */\n  dup2\n    /* \"#utility.yul\":7233:7243   */\n  swap1\n  pop\n    /* \"#utility.yul\":6993:7249   */\n  swap3\n  swap2\n  pop\n  pop\n  jump\t// out\n    /* \"#utility.yul\":7255:7435   */\ntag_60:\n    /* \"#utility.yul\":7303:7380   */\n  0x4e487b7100000000000000000000000000000000000000000000000000000000\n    /* \"#utility.yul\":7300:7301   */\n  0x00\n    /* \"#utility.yul\":7293:7381   */\n  mstore\n    /* \"#utility.yul\":7400:7404   */\n  0x12\n    /* \"#utility.yul\":7397:7398   */\n  0x04\n    /* \"#utility.yul\":7390:7405   */\n  mstore\n    /* \"#utility.yul\":7424:7428   */\n  0x24\n    /* \"#utility.yul\":7421:7422   */\n  0x00\n    /* \"#utility.yul\":7414:7429   */\n  revert\n    /* \"#utility.yul\":7441:7617   */\ntag_37:\n    /* \"#utility.yul\":7473:7474   */\n  0x00\n    /* \"#utility.yul\":7490:7510   */\n  tag_125\n    /* \"#utility.yul\":7508:7509   */\n  dup3\n    /* \"#utility.yul\":7490:7510   */\n  tag_45\n  jump\t// in\ntag_125:\n    /* \"#utility.yul\":7485:7510   */\n  swap2\n  pop\n    /* \"#utility.yul\":7524:7544   */\n  tag_126\n    /* \"#utility.yul\":7542:7543   */\n  dup4\n    /* \"#utility.yul\":7524:7544   */\n  tag_45\n  jump\t// in\ntag_126:\n    /* \"#utility.yul\":7519:7544   */\n  swap3\n  pop\n    /* \"#utility.yul\":7563:7564   */\n  dup3\n    /* \"#utility.yul\":7553:7588   */\n  tag_127\n  jumpi\n    /* \"#utility.yul\":7568:7586   */\n  tag_128\n  tag_60\n  jump\t// in\ntag_128:\n    /* \"#utility.yul\":7553:7588   */\ntag_127:\n    /* \"#utility.yul\":7609:7610   */\n  dup3\n    /* \"#utility.yul\":7606:7607   */\n  dup3\n    /* \"#utility.yul\":7602:7611   */\n  mod\n    /* \"#utility.yul\":7597:7611   */\n  swap1\n  pop\n    /* \"#utility.yul\":7441:7617   */\n  swap3\n  swap2\n  pop\n  pop\n  jump\t// out\n    /* \"contracts/HelloWorld1.sol\":116:3365  contract ShareDistribution {... */\ntag_41:\n  dataSize(sub_0)\n  dup1\n  dataOffset(sub_0)\n  0x00\n  codecopy\n  0x00\n  return\nstop\n\nsub_0: assembly {\n        /* \"contracts/HelloWorld1.sol\":116:3365  contract ShareDistribution {... */\n      mstore(0x40, 0x80)\n      callvalue\n      dup1\n      iszero\n      tag_1\n      jumpi\n      0x00\n      dup1\n      revert\n    tag_1:\n      pop\n      jumpi(tag_2, lt(calldatasize, 0x04))\n      shr(0xe0, calldataload(0x00))\n      dup1\n      0xb16622c6\n      gt\n      tag_11\n      jumpi\n      dup1\n      0xb16622c6\n      eq\n      tag_7\n      jumpi\n      dup1\n      0xba3abe87\n      eq\n      tag_8\n      jumpi\n      dup1\n      0xd1efd30d\n      eq\n      tag_9\n      jumpi\n      dup1\n      0xf41d7147\n      eq\n      tag_10\n      jumpi\n      jump(tag_2)\n    tag_11:\n      dup1\n      0x020ba46b\n      eq\n      tag_3\n      jumpi\n      dup1\n      0x26ecb26c\n      eq\n      tag_4\n      jumpi\n      dup1\n      0x42cde4e8\n      eq\n      tag_5\n      jumpi\n      dup1\n      0x9ae8886a\n      eq\n      tag_6\n      jumpi\n    tag_2:\n      0x00\n      dup1\n      revert\n        /* \"contracts/HelloWorld1.sol\":450:489  uint256[MAX_PARTIES] public partyShares */\n    tag_3:\n      tag_12\n      0x04\n      dup1\n      calldatasize\n      sub\n      dup2\n      add\n      swap1\n      tag_13\n      swap2\n      swap1\n      tag_14\n      jump\t// in\n    tag_13:\n      tag_15\n      jump\t// in\n    tag_12:\n      mload(0x40)\n      tag_16\n      swap2\n      swap1\n      tag_17\n      jump\t// in\n    tag_16:\n      mload(0x40)\n      dup1\n      swap2\n      sub\n      swap1\n      return\n        /* \"contracts/HelloWorld1.sol\":1621:1985  function constructShare() public {... */\n    tag_4:\n      tag_18\n      tag_19\n      jump\t// in\n    tag_18:\n      stop\n        /* \"contracts/HelloWorld1.sol\":584:608  uint256 public threshold */\n    tag_5:\n      tag_20\n      tag_21\n      jump\t// in\n    tag_20:\n      mload(0x40)\n      tag_22\n      swap2\n      swap1\n      tag_17\n      jump\t// in\n    tag_22:\n      mload(0x40)\n      dup1\n      swap2\n      sub\n      swap1\n      return\n        /* \"contracts/HelloWorld1.sol\":262:278  uint256 public p */\n    tag_6:\n      tag_23\n      tag_24\n      jump\t// in\n    tag_23:\n      mload(0x40)\n      tag_25\n      swap2\n      swap1\n      tag_17\n      jump\t// in\n    tag_25:\n      mload(0x40)\n      dup1\n      swap2\n      sub\n      swap1\n      return\n        /* \"contracts/HelloWorld1.sol\":387:417  uint256 public numberOfParties */\n    tag_7:\n      tag_26\n      tag_27\n      jump\t// in\n    tag_26:\n      mload(0x40)\n      tag_28\n      swap2\n      swap1\n      tag_17\n      jump\t// in\n    tag_28:\n      mload(0x40)\n      dup1\n      swap2\n      sub\n      swap1\n      return\n        /* \"contracts/HelloWorld1.sol\":662:706  uint256[MAX_THRESHOLD-1] public coefficients */\n    tag_8:\n      tag_29\n      0x04\n      dup1\n      calldatasize\n      sub\n      dup2\n      add\n      swap1\n      tag_30\n      swap2\n      swap1\n      tag_14\n      jump\t// in\n    tag_30:\n      tag_31\n      jump\t// in\n    tag_29:\n      mload(0x40)\n      tag_32\n      swap2\n      swap1\n      tag_17\n      jump\t// in\n    tag_32:\n      mload(0x40)\n      dup1\n      swap2\n      sub\n      swap1\n      return\n        /* \"contracts/HelloWorld1.sol\":328:349  uint256 public secret */\n    tag_9:\n      tag_33\n      tag_34\n      jump\t// in\n    tag_33:\n      mload(0x40)\n      tag_35\n      swap2\n      swap1\n      tag_17\n      jump\t// in\n    tag_35:\n      mload(0x40)\n      dup1\n      swap2\n      sub\n      swap1\n      return\n        /* \"contracts/HelloWorld1.sol\":1991:2746  function reConstruction(uint256[MAX_THRESHOLD] memory indices) public view returns (uint256) {... */\n    tag_10:\n      tag_36\n      0x04\n      dup1\n      calldatasize\n      sub\n      dup2\n      add\n      swap1\n      tag_37\n      swap2\n      swap1\n      tag_38\n      jump\t// in\n    tag_37:\n      tag_39\n      jump\t// in\n    tag_36:\n      mload(0x40)\n      tag_40\n      swap2\n      swap1\n      tag_17\n      jump\t// in\n    tag_40:\n      mload(0x40)\n      dup1\n      swap2\n      sub\n      swap1\n      return\n        /* \"contracts/HelloWorld1.sol\":450:489  uint256[MAX_PARTIES] public partyShares */\n    tag_15:\n      0x03\n      dup2\n      0x0a\n      dup2\n      lt\n      tag_41\n      jumpi\n      0x00\n      dup1\n      revert\n    tag_41:\n      add\n      0x00\n      swap2\n      pop\n      swap1\n      pop\n      sload\n      dup2\n      jump\t// out\n        /* \"contracts/HelloWorld1.sol\":1621:1985  function constructShare() public {... */\n    tag_19:\n        /* \"contracts/HelloWorld1.sol\":1669:1678  uint256 j */\n      0x00\n        /* \"contracts/HelloWorld1.sol\":1681:1682  1 */\n      0x01\n        /* \"contracts/HelloWorld1.sol\":1669:1682  uint256 j = 1 */\n      swap1\n      pop\n        /* \"contracts/HelloWorld1.sol\":1664:1979  for (uint256 j = 1; j <= numberOfParties; j++) {... */\n    tag_44:\n        /* \"contracts/HelloWorld1.sol\":1689:1704  numberOfParties */\n      sload(0x02)\n        /* \"contracts/HelloWorld1.sol\":1684:1685  j */\n      dup2\n        /* \"contracts/HelloWorld1.sol\":1684:1704  j <= numberOfParties */\n      gt\n        /* \"contracts/HelloWorld1.sol\":1664:1979  for (uint256 j = 1; j <= numberOfParties; j++) {... */\n      tag_45\n      jumpi\n        /* \"contracts/HelloWorld1.sol\":1725:1738  uint256 index */\n      0x00\n        /* \"contracts/HelloWorld1.sol\":1741:1742  j */\n      dup2\n        /* \"contracts/HelloWorld1.sol\":1725:1742  uint256 index = j */\n      swap1\n      pop\n        /* \"contracts/HelloWorld1.sol\":1761:1770  uint256 i */\n      0x00\n        /* \"contracts/HelloWorld1.sol\":1785:1786  2 */\n      0x02\n        /* \"contracts/HelloWorld1.sol\":1773:1782  threshold */\n      sload(0x0d)\n        /* \"contracts/HelloWorld1.sol\":1773:1786  threshold - 2 */\n      tag_50\n      swap2\n      swap1\n      tag_51\n      jump\t// in\n    tag_50:\n        /* \"contracts/HelloWorld1.sol\":1761:1786  uint256 i = threshold - 2 */\n      swap1\n      pop\n        /* \"contracts/HelloWorld1.sol\":1756:1905  for (uint256 i = threshold - 2; i >= 0; i--) {... */\n    tag_47:\n        /* \"contracts/HelloWorld1.sol\":1793:1794  0 */\n      0x00\n        /* \"contracts/HelloWorld1.sol\":1788:1789  i */\n      dup2\n        /* \"contracts/HelloWorld1.sol\":1788:1794  i >= 0 */\n      lt\n        /* \"contracts/HelloWorld1.sol\":1756:1905  for (uint256 i = threshold - 2; i >= 0; i--) {... */\n      tag_48\n      jumpi\n        /* \"contracts/HelloWorld1.sol\":1889:1890  p */\n      sload(0x00)\n        /* \"contracts/HelloWorld1.sol\":1838:1886  partyShares[j-1].add(coefficients[i]).mul(index) */\n      tag_52\n        /* \"contracts/HelloWorld1.sol\":1880:1885  index */\n      dup4\n        /* \"contracts/HelloWorld1.sol\":1838:1875  partyShares[j-1].add(coefficients[i]) */\n      tag_53\n        /* \"contracts/HelloWorld1.sol\":1859:1871  coefficients */\n      0x0e\n        /* \"contracts/HelloWorld1.sol\":1872:1873  i */\n      dup6\n        /* \"contracts/HelloWorld1.sol\":1859:1874  coefficients[i] */\n      0x06\n      dup2\n      lt\n      tag_54\n      jumpi\n      tag_55\n      tag_56\n      jump\t// in\n    tag_55:\n    tag_54:\n      add\n      sload\n        /* \"contracts/HelloWorld1.sol\":1838:1849  partyShares */\n      0x03\n        /* \"contracts/HelloWorld1.sol\":1852:1853  1 */\n      0x01\n        /* \"contracts/HelloWorld1.sol\":1850:1851  j */\n      dup10\n        /* \"contracts/HelloWorld1.sol\":1850:1853  j-1 */\n      tag_58\n      swap2\n      swap1\n      tag_51\n      jump\t// in\n    tag_58:\n        /* \"contracts/HelloWorld1.sol\":1838:1854  partyShares[j-1] */\n      0x0a\n      dup2\n      lt\n      tag_59\n      jumpi\n      tag_60\n      tag_56\n      jump\t// in\n    tag_60:\n    tag_59:\n      add\n      sload\n        /* \"contracts/HelloWorld1.sol\":1838:1858  partyShares[j-1].add */\n      tag_62\n      swap1\n        /* \"contracts/HelloWorld1.sol\":1838:1875  partyShares[j-1].add(coefficients[i]) */\n      swap2\n      swap1\n      0xffffffff\n      and\n      jump\t// in\n    tag_53:\n        /* \"contracts/HelloWorld1.sol\":1838:1879  partyShares[j-1].add(coefficients[i]).mul */\n      tag_63\n      swap1\n        /* \"contracts/HelloWorld1.sol\":1838:1886  partyShares[j-1].add(coefficients[i]).mul(index) */\n      swap2\n      swap1\n      0xffffffff\n      and\n      jump\t// in\n    tag_52:\n        /* \"contracts/HelloWorld1.sol\":1838:1890  partyShares[j-1].add(coefficients[i]).mul(index) % p */\n      tag_64\n      swap2\n      swap1\n      tag_65\n      jump\t// in\n    tag_64:\n        /* \"contracts/HelloWorld1.sol\":1819:1830  partyShares */\n      0x03\n        /* \"contracts/HelloWorld1.sol\":1833:1834  1 */\n      0x01\n        /* \"contracts/HelloWorld1.sol\":1831:1832  j */\n      dup6\n        /* \"contracts/HelloWorld1.sol\":1831:1834  j-1 */\n      tag_66\n      swap2\n      swap1\n      tag_51\n      jump\t// in\n    tag_66:\n        /* \"contracts/HelloWorld1.sol\":1819:1835  partyShares[j-1] */\n      0x0a\n      dup2\n      lt\n      tag_67\n      jumpi\n      tag_68\n      tag_56\n      jump\t// in\n    tag_68:\n    tag_67:\n      add\n        /* \"contracts/HelloWorld1.sol\":1819:1890  partyShares[j-1] = partyShares[j-1].add(coefficients[i]).mul(index) % p */\n      dup2\n      swap1\n      sstore\n      pop\n        /* \"contracts/HelloWorld1.sol\":1796:1799  i-- */\n      dup1\n      dup1\n      tag_70\n      swap1\n      tag_71\n      jump\t// in\n    tag_70:\n      swap2\n      pop\n      pop\n        /* \"contracts/HelloWorld1.sol\":1756:1905  for (uint256 i = threshold - 2; i >= 0; i--) {... */\n      jump(tag_47)\n    tag_48:\n      pop\n        /* \"contracts/HelloWorld1.sol\":1967:1968  p */\n      sload(0x00)\n        /* \"contracts/HelloWorld1.sol\":1957:1963  secret */\n      sload(0x01)\n        /* \"contracts/HelloWorld1.sol\":1938:1949  partyShares */\n      0x03\n        /* \"contracts/HelloWorld1.sol\":1952:1953  1 */\n      0x01\n        /* \"contracts/HelloWorld1.sol\":1950:1951  j */\n      dup6\n        /* \"contracts/HelloWorld1.sol\":1950:1953  j-1 */\n      tag_72\n      swap2\n      swap1\n      tag_51\n      jump\t// in\n    tag_72:\n        /* \"contracts/HelloWorld1.sol\":1938:1954  partyShares[j-1] */\n      0x0a\n      dup2\n      lt\n      tag_73\n      jumpi\n      tag_74\n      tag_56\n      jump\t// in\n    tag_74:\n    tag_73:\n      add\n      sload\n        /* \"contracts/HelloWorld1.sol\":1938:1963  partyShares[j-1] + secret */\n      tag_76\n      swap2\n      swap1\n      tag_77\n      jump\t// in\n    tag_76:\n        /* \"contracts/HelloWorld1.sol\":1937:1968  (partyShares[j-1] + secret) % p */\n      tag_78\n      swap2\n      swap1\n      tag_65\n      jump\t// in\n    tag_78:\n        /* \"contracts/HelloWorld1.sol\":1918:1929  partyShares */\n      0x03\n        /* \"contracts/HelloWorld1.sol\":1932:1933  1 */\n      0x01\n        /* \"contracts/HelloWorld1.sol\":1930:1931  j */\n      dup5\n        /* \"contracts/HelloWorld1.sol\":1930:1933  j-1 */\n      tag_79\n      swap2\n      swap1\n      tag_51\n      jump\t// in\n    tag_79:\n        /* \"contracts/HelloWorld1.sol\":1918:1934  partyShares[j-1] */\n      0x0a\n      dup2\n      lt\n      tag_80\n      jumpi\n      tag_81\n      tag_56\n      jump\t// in\n    tag_81:\n    tag_80:\n      add\n        /* \"contracts/HelloWorld1.sol\":1918:1968  partyShares[j-1] = (partyShares[j-1] + secret) % p */\n      dup2\n      swap1\n      sstore\n      pop\n        /* \"contracts/HelloWorld1.sol\":1711:1979  {... */\n      pop\n        /* \"contracts/HelloWorld1.sol\":1706:1709  j++ */\n      dup1\n      dup1\n      tag_83\n      swap1\n      tag_84\n      jump\t// in\n    tag_83:\n      swap2\n      pop\n      pop\n        /* \"contracts/HelloWorld1.sol\":1664:1979  for (uint256 j = 1; j <= numberOfParties; j++) {... */\n      jump(tag_44)\n    tag_45:\n      pop\n        /* \"contracts/HelloWorld1.sol\":1621:1985  function constructShare() public {... */\n      jump\t// out\n        /* \"contracts/HelloWorld1.sol\":584:608  uint256 public threshold */\n    tag_21:\n      sload(0x0d)\n      dup2\n      jump\t// out\n        /* \"contracts/HelloWorld1.sol\":262:278  uint256 public p */\n    tag_24:\n      sload(0x00)\n      dup2\n      jump\t// out\n        /* \"contracts/HelloWorld1.sol\":387:417  uint256 public numberOfParties */\n    tag_27:\n      sload(0x02)\n      dup2\n      jump\t// out\n        /* \"contracts/HelloWorld1.sol\":662:706  uint256[MAX_THRESHOLD-1] public coefficients */\n    tag_31:\n      0x0e\n      dup2\n      0x06\n      dup2\n      lt\n      tag_85\n      jumpi\n      0x00\n      dup1\n      revert\n    tag_85:\n      add\n      0x00\n      swap2\n      pop\n      swap1\n      pop\n      sload\n      dup2\n      jump\t// out\n        /* \"contracts/HelloWorld1.sol\":328:349  uint256 public secret */\n    tag_34:\n      sload(0x01)\n      dup2\n      jump\t// out\n        /* \"contracts/HelloWorld1.sol\":1991:2746  function reConstruction(uint256[MAX_THRESHOLD] memory indices) public view returns (uint256) {... */\n    tag_39:\n        /* \"contracts/HelloWorld1.sol\":2075:2082  uint256 */\n      0x00\n        /* \"contracts/HelloWorld1.sol\":2094:2113  uint256 shareRecons */\n      dup1\n        /* \"contracts/HelloWorld1.sol\":2116:2117  0 */\n      0x00\n        /* \"contracts/HelloWorld1.sol\":2094:2117  uint256 shareRecons = 0 */\n      swap1\n      pop\n        /* \"contracts/HelloWorld1.sol\":2132:2141  uint256 i */\n      0x00\n        /* \"contracts/HelloWorld1.sol\":2127:2712  for (uint256 i = 0; i < threshold; i++) {... */\n    tag_88:\n        /* \"contracts/HelloWorld1.sol\":2151:2160  threshold */\n      sload(0x0d)\n        /* \"contracts/HelloWorld1.sol\":2147:2148  i */\n      dup2\n        /* \"contracts/HelloWorld1.sol\":2147:2160  i < threshold */\n      lt\n        /* \"contracts/HelloWorld1.sol\":2127:2712  for (uint256 i = 0; i < threshold; i++) {... */\n      iszero\n      tag_89\n      jumpi\n        /* \"contracts/HelloWorld1.sol\":2181:2197  uint256 langCoff */\n      0x00\n        /* \"contracts/HelloWorld1.sol\":2200:2201  1 */\n      0x01\n        /* \"contracts/HelloWorld1.sol\":2181:2201  uint256 langCoff = 1 */\n      swap1\n      pop\n        /* \"contracts/HelloWorld1.sol\":2215:2224  uint256 I */\n      0x00\n        /* \"contracts/HelloWorld1.sol\":2227:2234  indices */\n      dup6\n        /* \"contracts/HelloWorld1.sol\":2235:2236  i */\n      dup4\n        /* \"contracts/HelloWorld1.sol\":2227:2237  indices[i] */\n      0x07\n      dup2\n      lt\n      tag_91\n      jumpi\n      tag_92\n      tag_56\n      jump\t// in\n    tag_92:\n    tag_91:\n      0x20\n      mul\n      add\n      mload\n        /* \"contracts/HelloWorld1.sol\":2215:2237  uint256 I = indices[i] */\n      swap1\n      pop\n        /* \"contracts/HelloWorld1.sol\":2251:2267  uint256 addInv_I */\n      0x00\n        /* \"contracts/HelloWorld1.sol\":2280:2281  p */\n      dup1\n      sload\n        /* \"contracts/HelloWorld1.sol\":2275:2276  I */\n      dup3\n        /* \"contracts/HelloWorld1.sol\":2271:2272  p */\n      sload(0x00)\n        /* \"contracts/HelloWorld1.sol\":2271:2276  p - I */\n      tag_93\n      swap2\n      swap1\n      tag_51\n      jump\t// in\n    tag_93:\n        /* \"contracts/HelloWorld1.sol\":2270:2281  (p - I) % p */\n      tag_94\n      swap2\n      swap1\n      tag_65\n      jump\t// in\n    tag_94:\n        /* \"contracts/HelloWorld1.sol\":2251:2281  uint256 addInv_I = (p - I) % p */\n      swap1\n      pop\n        /* \"contracts/HelloWorld1.sol\":2300:2309  uint256 j */\n      0x00\n        /* \"contracts/HelloWorld1.sol\":2295:2609  for (uint256 j = 0; j < threshold; j++) {... */\n    tag_95:\n        /* \"contracts/HelloWorld1.sol\":2319:2328  threshold */\n      sload(0x0d)\n        /* \"contracts/HelloWorld1.sol\":2315:2316  j */\n      dup2\n        /* \"contracts/HelloWorld1.sol\":2315:2328  j < threshold */\n      lt\n        /* \"contracts/HelloWorld1.sol\":2295:2609  for (uint256 j = 0; j < threshold; j++) {... */\n      iszero\n      tag_96\n      jumpi\n        /* \"contracts/HelloWorld1.sol\":2353:2362  uint256 J */\n      0x00\n        /* \"contracts/HelloWorld1.sol\":2365:2372  indices */\n      dup9\n        /* \"contracts/HelloWorld1.sol\":2373:2374  j */\n      dup3\n        /* \"contracts/HelloWorld1.sol\":2365:2375  indices[j] */\n      0x07\n      dup2\n      lt\n      tag_98\n      jumpi\n      tag_99\n      tag_56\n      jump\t// in\n    tag_99:\n    tag_98:\n      0x20\n      mul\n      add\n      mload\n        /* \"contracts/HelloWorld1.sol\":2353:2375  uint256 J = indices[j] */\n      swap1\n      pop\n        /* \"contracts/HelloWorld1.sol\":2402:2403  j */\n      dup2\n        /* \"contracts/HelloWorld1.sol\":2397:2398  i */\n      dup7\n        /* \"contracts/HelloWorld1.sol\":2397:2403  i != j */\n      eq\n        /* \"contracts/HelloWorld1.sol\":2393:2595  if (i != j) {... */\n      tag_100\n      jumpi\n        /* \"contracts/HelloWorld1.sol\":2427:2439  uint256 temp */\n      0x00\n        /* \"contracts/HelloWorld1.sol\":2459:2460  p */\n      dup1\n      sload\n        /* \"contracts/HelloWorld1.sol\":2447:2455  addInv_I */\n      dup5\n        /* \"contracts/HelloWorld1.sol\":2443:2444  J */\n      dup4\n        /* \"contracts/HelloWorld1.sol\":2443:2455  J + addInv_I */\n      tag_101\n      swap2\n      swap1\n      tag_77\n      jump\t// in\n    tag_101:\n        /* \"contracts/HelloWorld1.sol\":2442:2460  (J + addInv_I) % p */\n      tag_102\n      swap2\n      swap1\n      tag_65\n      jump\t// in\n    tag_102:\n        /* \"contracts/HelloWorld1.sol\":2427:2460  uint256 temp = (J + addInv_I) % p */\n      swap1\n      pop\n        /* \"contracts/HelloWorld1.sol\":2489:2508  modInverse(temp, p) */\n      tag_103\n        /* \"contracts/HelloWorld1.sol\":2500:2504  temp */\n      dup2\n        /* \"contracts/HelloWorld1.sol\":2506:2507  p */\n      sload(0x00)\n        /* \"contracts/HelloWorld1.sol\":2489:2499  modInverse */\n      tag_104\n        /* \"contracts/HelloWorld1.sol\":2489:2508  modInverse(temp, p) */\n      jump\t// in\n    tag_103:\n        /* \"contracts/HelloWorld1.sol\":2482:2508  temp = modInverse(temp, p) */\n      swap1\n      pop\n        /* \"contracts/HelloWorld1.sol\":2575:2576  p */\n      sload(0x00)\n        /* \"contracts/HelloWorld1.sol\":2570:2571  p */\n      sload(0x00)\n        /* \"contracts/HelloWorld1.sol\":2542:2567  langCoff.mul(J.mul(temp)) */\n      tag_105\n        /* \"contracts/HelloWorld1.sol\":2555:2566  J.mul(temp) */\n      tag_106\n        /* \"contracts/HelloWorld1.sol\":2561:2565  temp */\n      dup5\n        /* \"contracts/HelloWorld1.sol\":2555:2556  J */\n      dup7\n        /* \"contracts/HelloWorld1.sol\":2555:2560  J.mul */\n      tag_63\n      swap1\n        /* \"contracts/HelloWorld1.sol\":2555:2566  J.mul(temp) */\n      swap2\n      swap1\n      0xffffffff\n      and\n      jump\t// in\n    tag_106:\n        /* \"contracts/HelloWorld1.sol\":2542:2550  langCoff */\n      dup10\n        /* \"contracts/HelloWorld1.sol\":2542:2554  langCoff.mul */\n      tag_63\n      swap1\n        /* \"contracts/HelloWorld1.sol\":2542:2567  langCoff.mul(J.mul(temp)) */\n      swap2\n      swap1\n      0xffffffff\n      and\n      jump\t// in\n    tag_105:\n        /* \"contracts/HelloWorld1.sol\":2542:2571  langCoff.mul(J.mul(temp)) % p */\n      tag_107\n      swap2\n      swap1\n      tag_65\n      jump\t// in\n    tag_107:\n        /* \"contracts/HelloWorld1.sol\":2541:2576  (langCoff.mul(J.mul(temp)) % p) % p */\n      tag_108\n      swap2\n      swap1\n      tag_65\n      jump\t// in\n    tag_108:\n        /* \"contracts/HelloWorld1.sol\":2530:2576  langCoff = (langCoff.mul(J.mul(temp)) % p) % p */\n      swap6\n      pop\n        /* \"contracts/HelloWorld1.sol\":2405:2595  {... */\n      pop\n        /* \"contracts/HelloWorld1.sol\":2393:2595  if (i != j) {... */\n    tag_100:\n        /* \"contracts/HelloWorld1.sol\":2335:2609  {... */\n      pop\n        /* \"contracts/HelloWorld1.sol\":2330:2333  j++ */\n      dup1\n      dup1\n      0x01\n      add\n      swap2\n      pop\n      pop\n        /* \"contracts/HelloWorld1.sol\":2295:2609  for (uint256 j = 0; j < threshold; j++) {... */\n      jump(tag_95)\n    tag_96:\n      pop\n        /* \"contracts/HelloWorld1.sol\":2700:2701  p */\n      sload(0x00)\n        /* \"contracts/HelloWorld1.sol\":2695:2696  p */\n      sload(0x00)\n        /* \"contracts/HelloWorld1.sol\":2652:2691  partyShares[indices[i]-1].mul(langCoff) */\n      tag_109\n        /* \"contracts/HelloWorld1.sol\":2682:2690  langCoff */\n      dup6\n        /* \"contracts/HelloWorld1.sol\":2652:2663  partyShares */\n      0x03\n        /* \"contracts/HelloWorld1.sol\":2675:2676  1 */\n      0x01\n        /* \"contracts/HelloWorld1.sol\":2664:2671  indices */\n      dup13\n        /* \"contracts/HelloWorld1.sol\":2672:2673  i */\n      dup11\n        /* \"contracts/HelloWorld1.sol\":2664:2674  indices[i] */\n      0x07\n      dup2\n      lt\n      tag_110\n      jumpi\n      tag_111\n      tag_56\n      jump\t// in\n    tag_111:\n    tag_110:\n      0x20\n      mul\n      add\n      mload\n        /* \"contracts/HelloWorld1.sol\":2664:2676  indices[i]-1 */\n      tag_112\n      swap2\n      swap1\n      tag_51\n      jump\t// in\n    tag_112:\n        /* \"contracts/HelloWorld1.sol\":2652:2677  partyShares[indices[i]-1] */\n      0x0a\n      dup2\n      lt\n      tag_113\n      jumpi\n      tag_114\n      tag_56\n      jump\t// in\n    tag_114:\n    tag_113:\n      add\n      sload\n        /* \"contracts/HelloWorld1.sol\":2652:2681  partyShares[indices[i]-1].mul */\n      tag_63\n      swap1\n        /* \"contracts/HelloWorld1.sol\":2652:2691  partyShares[indices[i]-1].mul(langCoff) */\n      swap2\n      swap1\n      0xffffffff\n      and\n      jump\t// in\n    tag_109:\n        /* \"contracts/HelloWorld1.sol\":2651:2696  (partyShares[indices[i]-1].mul(langCoff)) % p */\n      tag_116\n      swap2\n      swap1\n      tag_65\n      jump\t// in\n    tag_116:\n        /* \"contracts/HelloWorld1.sol\":2637:2648  shareRecons */\n      dup7\n        /* \"contracts/HelloWorld1.sol\":2637:2696  shareRecons + (partyShares[indices[i]-1].mul(langCoff)) % p */\n      tag_117\n      swap2\n      swap1\n      tag_77\n      jump\t// in\n    tag_117:\n        /* \"contracts/HelloWorld1.sol\":2636:2701  (shareRecons + (partyShares[indices[i]-1].mul(langCoff)) % p) % p */\n      tag_118\n      swap2\n      swap1\n      tag_65\n      jump\t// in\n    tag_118:\n        /* \"contracts/HelloWorld1.sol\":2622:2701  shareRecons = (shareRecons + (partyShares[indices[i]-1].mul(langCoff)) % p) % p */\n      swap5\n      pop\n        /* \"contracts/HelloWorld1.sol\":2167:2712  {... */\n      pop\n      pop\n      pop\n        /* \"contracts/HelloWorld1.sol\":2162:2165  i++ */\n      dup1\n      dup1\n      0x01\n      add\n      swap2\n      pop\n      pop\n        /* \"contracts/HelloWorld1.sol\":2127:2712  for (uint256 i = 0; i < threshold; i++) {... */\n      jump(tag_88)\n    tag_89:\n      pop\n        /* \"contracts/HelloWorld1.sol\":2728:2739  shareRecons */\n      dup1\n        /* \"contracts/HelloWorld1.sol\":2721:2739  return shareRecons */\n      swap2\n      pop\n      pop\n        /* \"contracts/HelloWorld1.sol\":1991:2746  function reConstruction(uint256[MAX_THRESHOLD] memory indices) public view returns (uint256) {... */\n      swap2\n      swap1\n      pop\n      jump\t// out\n        /* \"@openzeppelin/contracts/utils/math/SafeMath.sol\":2755:2851  function add(uint256 a, uint256 b) internal pure returns (uint256) {... */\n    tag_62:\n        /* \"@openzeppelin/contracts/utils/math/SafeMath.sol\":2813:2820  uint256 */\n      0x00\n        /* \"@openzeppelin/contracts/utils/math/SafeMath.sol\":2843:2844  b */\n      dup2\n        /* \"@openzeppelin/contracts/utils/math/SafeMath.sol\":2839:2840  a */\n      dup4\n        /* \"@openzeppelin/contracts/utils/math/SafeMath.sol\":2839:2844  a + b */\n      tag_120\n      swap2\n      swap1\n      tag_77\n      jump\t// in\n    tag_120:\n        /* \"@openzeppelin/contracts/utils/math/SafeMath.sol\":2832:2844  return a + b */\n      swap1\n      pop\n        /* \"@openzeppelin/contracts/utils/math/SafeMath.sol\":2755:2851  function add(uint256 a, uint256 b) internal pure returns (uint256) {... */\n      swap3\n      swap2\n      pop\n      pop\n      jump\t// out\n        /* \"@openzeppelin/contracts/utils/math/SafeMath.sol\":3465:3561  function mul(uint256 a, uint256 b) internal pure returns (uint256) {... */\n    tag_63:\n        /* \"@openzeppelin/contracts/utils/math/SafeMath.sol\":3523:3530  uint256 */\n      0x00\n        /* \"@openzeppelin/contracts/utils/math/SafeMath.sol\":3553:3554  b */\n      dup2\n        /* \"@openzeppelin/contracts/utils/math/SafeMath.sol\":3549:3550  a */\n      dup4\n        /* \"@openzeppelin/contracts/utils/math/SafeMath.sol\":3549:3554  a * b */\n      tag_122\n      swap2\n      swap1\n      tag_123\n      jump\t// in\n    tag_122:\n        /* \"@openzeppelin/contracts/utils/math/SafeMath.sol\":3542:3554  return a * b */\n      swap1\n      pop\n        /* \"@openzeppelin/contracts/utils/math/SafeMath.sol\":3465:3561  function mul(uint256 a, uint256 b) internal pure returns (uint256) {... */\n      swap3\n      swap2\n      pop\n      pop\n      jump\t// out\n        /* \"contracts/HelloWorld1.sol\":2784:3363  function modInverse(uint256 a, uint256 m) internal pure returns (uint256) {... */\n    tag_104:\n        /* \"contracts/HelloWorld1.sol\":2849:2856  uint256 */\n      0x00\n        /* \"contracts/HelloWorld1.sol\":2868:2876  int256 t */\n      dup1\n        /* \"contracts/HelloWorld1.sol\":2886:2894  int256 q */\n      0x00\n        /* \"contracts/HelloWorld1.sol\":2904:2912  int256 r */\n      dup1\n        /* \"contracts/HelloWorld1.sol\":2922:2931  int256 r1 */\n      0x00\n        /* \"contracts/HelloWorld1.sol\":2941:2950  int256 r2 */\n      dup1\n        /* \"contracts/HelloWorld1.sol\":2970:2971  0 */\n      0x00\n        /* \"contracts/HelloWorld1.sol\":2965:2966  a */\n      dup9\n        /* \"contracts/HelloWorld1.sol\":2965:2971  a == 0 */\n      sub\n        /* \"contracts/HelloWorld1.sol\":2961:3007  if (a == 0) revert(\"modInverse: zero divisor\") */\n      tag_125\n      jumpi\n        /* \"contracts/HelloWorld1.sol\":2973:3007  revert(\"modInverse: zero divisor\") */\n      mload(0x40)\n      0x08c379a000000000000000000000000000000000000000000000000000000000\n      dup2\n      mstore\n      0x04\n      add\n      tag_126\n      swap1\n      tag_127\n      jump\t// in\n    tag_126:\n      mload(0x40)\n      dup1\n      swap2\n      sub\n      swap1\n      revert\n        /* \"contracts/HelloWorld1.sol\":2961:3007  if (a == 0) revert(\"modInverse: zero divisor\") */\n    tag_125:\n        /* \"contracts/HelloWorld1.sol\":3033:3034  0 */\n      0x00\n        /* \"contracts/HelloWorld1.sol\":3028:3029  a */\n      dup9\n        /* \"contracts/HelloWorld1.sol\":3021:3034  int256(a) < 0 */\n      slt\n        /* \"contracts/HelloWorld1.sol\":3017:3070  if (int256(a) < 0) a = uint256(int256(a) + int256(m)) */\n      iszero\n      tag_128\n      jumpi\n        /* \"contracts/HelloWorld1.sol\":3067:3068  m */\n      dup7\n        /* \"contracts/HelloWorld1.sol\":3055:3056  a */\n      dup9\n        /* \"contracts/HelloWorld1.sol\":3048:3069  int256(a) + int256(m) */\n      tag_129\n      swap2\n      swap1\n      tag_130\n      jump\t// in\n    tag_129:\n        /* \"contracts/HelloWorld1.sol\":3036:3070  a = uint256(int256(a) + int256(m)) */\n      swap8\n      pop\n        /* \"contracts/HelloWorld1.sol\":3017:3070  if (int256(a) < 0) a = uint256(int256(a) + int256(m)) */\n    tag_128:\n        /* \"contracts/HelloWorld1.sol\":3093:3094  m */\n      dup7\n        /* \"contracts/HelloWorld1.sol\":3081:3095  r1 = int256(m) */\n      swap2\n      pop\n        /* \"contracts/HelloWorld1.sol\":3117:3118  a */\n      dup8\n        /* \"contracts/HelloWorld1.sol\":3105:3119  r2 = int256(a) */\n      swap1\n      pop\n        /* \"contracts/HelloWorld1.sol\":3129:3270  while (r2 > 0) {... */\n    tag_131:\n        /* \"contracts/HelloWorld1.sol\":3141:3142  0 */\n      0x00\n        /* \"contracts/HelloWorld1.sol\":3136:3138  r2 */\n      dup2\n        /* \"contracts/HelloWorld1.sol\":3136:3142  r2 > 0 */\n      sgt\n        /* \"contracts/HelloWorld1.sol\":3129:3270  while (r2 > 0) {... */\n      iszero\n      tag_132\n      jumpi\n        /* \"contracts/HelloWorld1.sol\":3167:3169  r2 */\n      dup1\n        /* \"contracts/HelloWorld1.sol\":3162:3164  r1 */\n      dup3\n        /* \"contracts/HelloWorld1.sol\":3162:3169  r1 / r2 */\n      tag_133\n      swap2\n      swap1\n      tag_134\n      jump\t// in\n    tag_133:\n        /* \"contracts/HelloWorld1.sol\":3158:3169  q = r1 / r2 */\n      swap4\n      pop\n        /* \"contracts/HelloWorld1.sol\":3196:3198  r2 */\n      dup1\n        /* \"contracts/HelloWorld1.sol\":3192:3193  q */\n      dup5\n        /* \"contracts/HelloWorld1.sol\":3192:3198  q * r2 */\n      tag_135\n      swap2\n      swap1\n      tag_136\n      jump\t// in\n    tag_135:\n        /* \"contracts/HelloWorld1.sol\":3187:3189  r1 */\n      dup3\n        /* \"contracts/HelloWorld1.sol\":3187:3198  r1 - q * r2 */\n      tag_137\n      swap2\n      swap1\n      tag_138\n      jump\t// in\n    tag_137:\n        /* \"contracts/HelloWorld1.sol\":3183:3198  r = r1 - q * r2 */\n      swap3\n      pop\n        /* \"contracts/HelloWorld1.sol\":3216:3218  r1 */\n      dup2\n        /* \"contracts/HelloWorld1.sol\":3212:3218  t = r1 */\n      swap5\n      pop\n        /* \"contracts/HelloWorld1.sol\":3237:3239  r2 */\n      dup1\n        /* \"contracts/HelloWorld1.sol\":3232:3239  r1 = r2 */\n      swap2\n      pop\n        /* \"contracts/HelloWorld1.sol\":3258:3259  r */\n      dup3\n        /* \"contracts/HelloWorld1.sol\":3253:3259  r2 = r */\n      swap1\n      pop\n        /* \"contracts/HelloWorld1.sol\":3129:3270  while (r2 > 0) {... */\n      jump(tag_131)\n    tag_132:\n        /* \"contracts/HelloWorld1.sol\":3290:3291  1 */\n      0x01\n        /* \"contracts/HelloWorld1.sol\":3284:3286  r1 */\n      dup3\n        /* \"contracts/HelloWorld1.sol\":3284:3291  r1 != 1 */\n      eq\n        /* \"contracts/HelloWorld1.sol\":3280:3329  if (r1 != 1) revert(\"modInverse: not invertible\") */\n      tag_139\n      jumpi\n        /* \"contracts/HelloWorld1.sol\":3293:3329  revert(\"modInverse: not invertible\") */\n      mload(0x40)\n      0x08c379a000000000000000000000000000000000000000000000000000000000\n      dup2\n      mstore\n      0x04\n      add\n      tag_140\n      swap1\n      tag_141\n      jump\t// in\n    tag_140:\n      mload(0x40)\n      dup1\n      swap2\n      sub\n      swap1\n      revert\n        /* \"contracts/HelloWorld1.sol\":3280:3329  if (r1 != 1) revert(\"modInverse: not invertible\") */\n    tag_139:\n        /* \"contracts/HelloWorld1.sol\":3354:3355  t */\n      dup5\n        /* \"contracts/HelloWorld1.sol\":3339:3356  return uint256(t) */\n      swap6\n      pop\n      pop\n      pop\n      pop\n      pop\n      pop\n        /* \"contracts/HelloWorld1.sol\":2784:3363  function modInverse(uint256 a, uint256 m) internal pure returns (uint256) {... */\n      swap3\n      swap2\n      pop\n      pop\n      jump\t// out\n        /* \"#utility.yul\":7:82   */\n    tag_142:\n        /* \"#utility.yul\":40:46   */\n      0x00\n        /* \"#utility.yul\":73:75   */\n      0x40\n        /* \"#utility.yul\":67:76   */\n      mload\n        /* \"#utility.yul\":57:76   */\n      swap1\n      pop\n        /* \"#utility.yul\":7:82   */\n      swap1\n      jump\t// out\n        /* \"#utility.yul\":88:205   */\n    tag_143:\n        /* \"#utility.yul\":197:198   */\n      0x00\n        /* \"#utility.yul\":194:195   */\n      dup1\n        /* \"#utility.yul\":187:199   */\n      revert\n        /* \"#utility.yul\":334:411   */\n    tag_145:\n        /* \"#utility.yul\":371:378   */\n      0x00\n        /* \"#utility.yul\":400:405   */\n      dup2\n        /* \"#utility.yul\":389:405   */\n      swap1\n      pop\n        /* \"#utility.yul\":334:411   */\n      swap2\n      swap1\n      pop\n      jump\t// out\n        /* \"#utility.yul\":417:539   */\n    tag_146:\n        /* \"#utility.yul\":490:514   */\n      tag_172\n        /* \"#utility.yul\":508:513   */\n      dup2\n        /* \"#utility.yul\":490:514   */\n      tag_145\n      jump\t// in\n    tag_172:\n        /* \"#utility.yul\":483:488   */\n      dup2\n        /* \"#utility.yul\":480:515   */\n      eq\n        /* \"#utility.yul\":470:533   */\n      tag_173\n      jumpi\n        /* \"#utility.yul\":529:530   */\n      0x00\n        /* \"#utility.yul\":526:527   */\n      dup1\n        /* \"#utility.yul\":519:531   */\n      revert\n        /* \"#utility.yul\":470:533   */\n    tag_173:\n        /* \"#utility.yul\":417:539   */\n      pop\n      jump\t// out\n        /* \"#utility.yul\":545:684   */\n    tag_147:\n        /* \"#utility.yul\":591:596   */\n      0x00\n        /* \"#utility.yul\":629:635   */\n      dup2\n        /* \"#utility.yul\":616:636   */\n      calldataload\n        /* \"#utility.yul\":607:636   */\n      swap1\n      pop\n        /* \"#utility.yul\":645:678   */\n      tag_175\n        /* \"#utility.yul\":672:677   */\n      dup2\n        /* \"#utility.yul\":645:678   */\n      tag_146\n      jump\t// in\n    tag_175:\n        /* \"#utility.yul\":545:684   */\n      swap3\n      swap2\n      pop\n      pop\n      jump\t// out\n        /* \"#utility.yul\":690:1019   */\n    tag_14:\n        /* \"#utility.yul\":749:755   */\n      0x00\n        /* \"#utility.yul\":798:800   */\n      0x20\n        /* \"#utility.yul\":786:795   */\n      dup3\n        /* \"#utility.yul\":777:784   */\n      dup5\n        /* \"#utility.yul\":773:796   */\n      sub\n        /* \"#utility.yul\":769:801   */\n      slt\n        /* \"#utility.yul\":766:885   */\n      iszero\n      tag_177\n      jumpi\n        /* \"#utility.yul\":804:883   */\n      tag_178\n      tag_143\n      jump\t// in\n    tag_178:\n        /* \"#utility.yul\":766:885   */\n    tag_177:\n        /* \"#utility.yul\":924:925   */\n      0x00\n        /* \"#utility.yul\":949:1002   */\n      tag_179\n        /* \"#utility.yul\":994:1001   */\n      dup5\n        /* \"#utility.yul\":985:991   */\n      dup3\n        /* \"#utility.yul\":974:983   */\n      dup6\n        /* \"#utility.yul\":970:992   */\n      add\n        /* \"#utility.yul\":949:1002   */\n      tag_147\n      jump\t// in\n    tag_179:\n        /* \"#utility.yul\":939:1002   */\n      swap2\n      pop\n        /* \"#utility.yul\":895:1012   */\n      pop\n        /* \"#utility.yul\":690:1019   */\n      swap3\n      swap2\n      pop\n      pop\n      jump\t// out\n        /* \"#utility.yul\":1025:1143   */\n    tag_148:\n        /* \"#utility.yul\":1112:1136   */\n      tag_181\n        /* \"#utility.yul\":1130:1135   */\n      dup2\n        /* \"#utility.yul\":1112:1136   */\n      tag_145\n      jump\t// in\n    tag_181:\n        /* \"#utility.yul\":1107:1110   */\n      dup3\n        /* \"#utility.yul\":1100:1137   */\n      mstore\n        /* \"#utility.yul\":1025:1143   */\n      pop\n      pop\n      jump\t// out\n        /* \"#utility.yul\":1149:1371   */\n    tag_17:\n        /* \"#utility.yul\":1242:1246   */\n      0x00\n        /* \"#utility.yul\":1280:1282   */\n      0x20\n        /* \"#utility.yul\":1269:1278   */\n      dup3\n        /* \"#utility.yul\":1265:1283   */\n      add\n        /* \"#utility.yul\":1257:1283   */\n      swap1\n      pop\n        /* \"#utility.yul\":1293:1364   */\n      tag_183\n        /* \"#utility.yul\":1361:1362   */\n      0x00\n        /* \"#utility.yul\":1350:1359   */\n      dup4\n        /* \"#utility.yul\":1346:1363   */\n      add\n        /* \"#utility.yul\":1337:1343   */\n      dup5\n        /* \"#utility.yul\":1293:1364   */\n      tag_148\n      jump\t// in\n    tag_183:\n        /* \"#utility.yul\":1149:1371   */\n      swap3\n      swap2\n      pop\n      pop\n      jump\t// out\n        /* \"#utility.yul\":1377:1494   */\n    tag_149:\n        /* \"#utility.yul\":1486:1487   */\n      0x00\n        /* \"#utility.yul\":1483:1484   */\n      dup1\n        /* \"#utility.yul\":1476:1488   */\n      revert\n        /* \"#utility.yul\":1500:1602   */\n    tag_150:\n        /* \"#utility.yul\":1541:1547   */\n      0x00\n        /* \"#utility.yul\":1592:1594   */\n      0x1f\n        /* \"#utility.yul\":1588:1595   */\n      not\n        /* \"#utility.yul\":1583:1585   */\n      0x1f\n        /* \"#utility.yul\":1576:1581   */\n      dup4\n        /* \"#utility.yul\":1572:1586   */\n      add\n        /* \"#utility.yul\":1568:1596   */\n      and\n        /* \"#utility.yul\":1558:1596   */\n      swap1\n      pop\n        /* \"#utility.yul\":1500:1602   */\n      swap2\n      swap1\n      pop\n      jump\t// out\n        /* \"#utility.yul\":1608:1788   */\n    tag_151:\n        /* \"#utility.yul\":1656:1733   */\n      0x4e487b7100000000000000000000000000000000000000000000000000000000\n        /* \"#utility.yul\":1653:1654   */\n      0x00\n        /* \"#utility.yul\":1646:1734   */\n      mstore\n        /* \"#utility.yul\":1753:1757   */\n      0x41\n        /* \"#utility.yul\":1750:1751   */\n      0x04\n        /* \"#utility.yul\":1743:1758   */\n      mstore\n        /* \"#utility.yul\":1777:1781   */\n      0x24\n        /* \"#utility.yul\":1774:1775   */\n      0x00\n        /* \"#utility.yul\":1767:1782   */\n      revert\n        /* \"#utility.yul\":1794:2075   */\n    tag_152:\n        /* \"#utility.yul\":1877:1904   */\n      tag_188\n        /* \"#utility.yul\":1899:1903   */\n      dup3\n        /* \"#utility.yul\":1877:1904   */\n      tag_150\n      jump\t// in\n    tag_188:\n        /* \"#utility.yul\":1869:1875   */\n      dup2\n        /* \"#utility.yul\":1865:1905   */\n      add\n        /* \"#utility.yul\":2007:2013   */\n      dup2\n        /* \"#utility.yul\":1995:2005   */\n      dup2\n        /* \"#utility.yul\":1992:2014   */\n      lt\n        /* \"#utility.yul\":1971:1989   */\n      0xffffffffffffffff\n        /* \"#utility.yul\":1959:1969   */\n      dup3\n        /* \"#utility.yul\":1956:1990   */\n      gt\n        /* \"#utility.yul\":1953:2015   */\n      or\n        /* \"#utility.yul\":1950:2038   */\n      iszero\n      tag_189\n      jumpi\n        /* \"#utility.yul\":2018:2036   */\n      tag_190\n      tag_151\n      jump\t// in\n    tag_190:\n        /* \"#utility.yul\":1950:2038   */\n    tag_189:\n        /* \"#utility.yul\":2058:2068   */\n      dup1\n        /* \"#utility.yul\":2054:2056   */\n      0x40\n        /* \"#utility.yul\":2047:2069   */\n      mstore\n        /* \"#utility.yul\":1837:2075   */\n      pop\n        /* \"#utility.yul\":1794:2075   */\n      pop\n      pop\n      jump\t// out\n        /* \"#utility.yul\":2081:2210   */\n    tag_153:\n        /* \"#utility.yul\":2115:2121   */\n      0x00\n        /* \"#utility.yul\":2142:2162   */\n      tag_192\n      tag_142\n      jump\t// in\n    tag_192:\n        /* \"#utility.yul\":2132:2162   */\n      swap1\n      pop\n        /* \"#utility.yul\":2171:2204   */\n      tag_193\n        /* \"#utility.yul\":2199:2203   */\n      dup3\n        /* \"#utility.yul\":2191:2197   */\n      dup3\n        /* \"#utility.yul\":2171:2204   */\n      tag_152\n      jump\t// in\n    tag_193:\n        /* \"#utility.yul\":2081:2210   */\n      swap2\n      swap1\n      pop\n      jump\t// out\n        /* \"#utility.yul\":2216:2465   */\n    tag_154:\n        /* \"#utility.yul\":2291:2295   */\n      0x00\n        /* \"#utility.yul\":2381:2399   */\n      0xffffffffffffffff\n        /* \"#utility.yul\":2373:2379   */\n      dup3\n        /* \"#utility.yul\":2370:2400   */\n      gt\n        /* \"#utility.yul\":2367:2423   */\n      iszero\n      tag_195\n      jumpi\n        /* \"#utility.yul\":2403:2421   */\n      tag_196\n      tag_151\n      jump\t// in\n    tag_196:\n        /* \"#utility.yul\":2367:2423   */\n    tag_195:\n        /* \"#utility.yul\":2453:2457   */\n      0x20\n        /* \"#utility.yul\":2445:2451   */\n      dup3\n        /* \"#utility.yul\":2441:2458   */\n      mul\n        /* \"#utility.yul\":2433:2458   */\n      swap1\n      pop\n        /* \"#utility.yul\":2216:2465   */\n      swap2\n      swap1\n      pop\n      jump\t// out\n        /* \"#utility.yul\":2471:2588   */\n    tag_155:\n        /* \"#utility.yul\":2580:2581   */\n      0x00\n        /* \"#utility.yul\":2577:2578   */\n      dup1\n        /* \"#utility.yul\":2570:2582   */\n      revert\n        /* \"#utility.yul\":2612:3255   */\n    tag_156:\n        /* \"#utility.yul\":2706:2711   */\n      0x00\n        /* \"#utility.yul\":2731:2810   */\n      tag_199\n        /* \"#utility.yul\":2747:2809   */\n      tag_200\n        /* \"#utility.yul\":2802:2808   */\n      dup5\n        /* \"#utility.yul\":2747:2809   */\n      tag_154\n      jump\t// in\n    tag_200:\n        /* \"#utility.yul\":2731:2810   */\n      tag_153\n      jump\t// in\n    tag_199:\n        /* \"#utility.yul\":2722:2810   */\n      swap1\n      pop\n        /* \"#utility.yul\":2830:2835   */\n      dup1\n        /* \"#utility.yul\":2883:2887   */\n      0x20\n        /* \"#utility.yul\":2875:2881   */\n      dup5\n        /* \"#utility.yul\":2871:2888   */\n      mul\n        /* \"#utility.yul\":2863:2869   */\n      dup4\n        /* \"#utility.yul\":2859:2889   */\n      add\n        /* \"#utility.yul\":2912:2915   */\n      dup6\n        /* \"#utility.yul\":2904:2910   */\n      dup2\n        /* \"#utility.yul\":2901:2916   */\n      gt\n        /* \"#utility.yul\":2898:3020   */\n      iszero\n      tag_201\n      jumpi\n        /* \"#utility.yul\":2931:3010   */\n      tag_202\n      tag_155\n      jump\t// in\n    tag_202:\n        /* \"#utility.yul\":2898:3020   */\n    tag_201:\n        /* \"#utility.yul\":3046:3052   */\n      dup4\n        /* \"#utility.yul\":3029:3249   */\n    tag_203:\n        /* \"#utility.yul\":3063:3069   */\n      dup2\n        /* \"#utility.yul\":3058:3061   */\n      dup2\n        /* \"#utility.yul\":3055:3070   */\n      lt\n        /* \"#utility.yul\":3029:3249   */\n      iszero\n      tag_205\n      jumpi\n        /* \"#utility.yul\":3138:3141   */\n      dup1\n        /* \"#utility.yul\":3167:3204   */\n      tag_206\n        /* \"#utility.yul\":3200:3203   */\n      dup9\n        /* \"#utility.yul\":3188:3198   */\n      dup3\n        /* \"#utility.yul\":3167:3204   */\n      tag_147\n      jump\t// in\n    tag_206:\n        /* \"#utility.yul\":3162:3165   */\n      dup5\n        /* \"#utility.yul\":3155:3205   */\n      mstore\n        /* \"#utility.yul\":3234:3238   */\n      0x20\n        /* \"#utility.yul\":3229:3232   */\n      dup5\n        /* \"#utility.yul\":3225:3239   */\n      add\n        /* \"#utility.yul\":3218:3239   */\n      swap4\n      pop\n        /* \"#utility.yul\":3105:3249   */\n      pop\n        /* \"#utility.yul\":3089:3093   */\n      0x20\n        /* \"#utility.yul\":3084:3087   */\n      dup2\n        /* \"#utility.yul\":3080:3094   */\n      add\n        /* \"#utility.yul\":3073:3094   */\n      swap1\n      pop\n        /* \"#utility.yul\":3029:3249   */\n      jump(tag_203)\n    tag_205:\n        /* \"#utility.yul\":3033:3054   */\n      pop\n        /* \"#utility.yul\":2712:3255   */\n      pop\n      pop\n        /* \"#utility.yul\":2612:3255   */\n      swap4\n      swap3\n      pop\n      pop\n      pop\n      jump\t// out\n        /* \"#utility.yul\":3279:3618   */\n    tag_157:\n        /* \"#utility.yul\":3348:3353   */\n      0x00\n        /* \"#utility.yul\":3397:3400   */\n      dup3\n        /* \"#utility.yul\":3390:3394   */\n      0x1f\n        /* \"#utility.yul\":3382:3388   */\n      dup4\n        /* \"#utility.yul\":3378:3395   */\n      add\n        /* \"#utility.yul\":3374:3401   */\n      slt\n        /* \"#utility.yul\":3364:3486   */\n      tag_208\n      jumpi\n        /* \"#utility.yul\":3405:3484   */\n      tag_209\n      tag_149\n      jump\t// in\n    tag_209:\n        /* \"#utility.yul\":3364:3486   */\n    tag_208:\n        /* \"#utility.yul\":3509:3513   */\n      0x07\n        /* \"#utility.yul\":3531:3612   */\n      tag_210\n        /* \"#utility.yul\":3608:3611   */\n      dup5\n        /* \"#utility.yul\":3600:3606   */\n      dup3\n        /* \"#utility.yul\":3592:3598   */\n      dup6\n        /* \"#utility.yul\":3531:3612   */\n      tag_156\n      jump\t// in\n    tag_210:\n        /* \"#utility.yul\":3522:3612   */\n      swap2\n      pop\n        /* \"#utility.yul\":3354:3618   */\n      pop\n        /* \"#utility.yul\":3279:3618   */\n      swap3\n      swap2\n      pop\n      pop\n      jump\t// out\n        /* \"#utility.yul\":3624:4000   */\n    tag_38:\n        /* \"#utility.yul\":3706:3712   */\n      0x00\n        /* \"#utility.yul\":3755:3758   */\n      0xe0\n        /* \"#utility.yul\":3743:3752   */\n      dup3\n        /* \"#utility.yul\":3734:3741   */\n      dup5\n        /* \"#utility.yul\":3730:3753   */\n      sub\n        /* \"#utility.yul\":3726:3759   */\n      slt\n        /* \"#utility.yul\":3723:3843   */\n      iszero\n      tag_212\n      jumpi\n        /* \"#utility.yul\":3762:3841   */\n      tag_213\n      tag_143\n      jump\t// in\n    tag_213:\n        /* \"#utility.yul\":3723:3843   */\n    tag_212:\n        /* \"#utility.yul\":3882:3883   */\n      0x00\n        /* \"#utility.yul\":3907:3983   */\n      tag_214\n        /* \"#utility.yul\":3975:3982   */\n      dup5\n        /* \"#utility.yul\":3966:3972   */\n      dup3\n        /* \"#utility.yul\":3955:3964   */\n      dup6\n        /* \"#utility.yul\":3951:3973   */\n      add\n        /* \"#utility.yul\":3907:3983   */\n      tag_157\n      jump\t// in\n    tag_214:\n        /* \"#utility.yul\":3897:3983   */\n      swap2\n      pop\n        /* \"#utility.yul\":3853:3993   */\n      pop\n        /* \"#utility.yul\":3624:4000   */\n      swap3\n      swap2\n      pop\n      pop\n      jump\t// out\n        /* \"#utility.yul\":4006:4186   */\n    tag_158:\n        /* \"#utility.yul\":4054:4131   */\n      0x4e487b7100000000000000000000000000000000000000000000000000000000\n        /* \"#utility.yul\":4051:4052   */\n      0x00\n        /* \"#utility.yul\":4044:4132   */\n      mstore\n        /* \"#utility.yul\":4151:4155   */\n      0x11\n        /* \"#utility.yul\":4148:4149   */\n      0x04\n        /* \"#utility.yul\":4141:4156   */\n      mstore\n        /* \"#utility.yul\":4175:4179   */\n      0x24\n        /* \"#utility.yul\":4172:4173   */\n      0x00\n        /* \"#utility.yul\":4165:4180   */\n      revert\n        /* \"#utility.yul\":4192:4386   */\n    tag_51:\n        /* \"#utility.yul\":4232:4236   */\n      0x00\n        /* \"#utility.yul\":4252:4272   */\n      tag_217\n        /* \"#utility.yul\":4270:4271   */\n      dup3\n        /* \"#utility.yul\":4252:4272   */\n      tag_145\n      jump\t// in\n    tag_217:\n        /* \"#utility.yul\":4247:4272   */\n      swap2\n      pop\n        /* \"#utility.yul\":4286:4306   */\n      tag_218\n        /* \"#utility.yul\":4304:4305   */\n      dup4\n        /* \"#utility.yul\":4286:4306   */\n      tag_145\n      jump\t// in\n    tag_218:\n        /* \"#utility.yul\":4281:4306   */\n      swap3\n      pop\n        /* \"#utility.yul\":4330:4331   */\n      dup3\n        /* \"#utility.yul\":4327:4328   */\n      dup3\n        /* \"#utility.yul\":4323:4332   */\n      sub\n        /* \"#utility.yul\":4315:4332   */\n      swap1\n      pop\n        /* \"#utility.yul\":4354:4355   */\n      dup2\n        /* \"#utility.yul\":4348:4352   */\n      dup2\n        /* \"#utility.yul\":4345:4356   */\n      gt\n        /* \"#utility.yul\":4342:4379   */\n      iszero\n      tag_219\n      jumpi\n        /* \"#utility.yul\":4359:4377   */\n      tag_220\n      tag_158\n      jump\t// in\n    tag_220:\n        /* \"#utility.yul\":4342:4379   */\n    tag_219:\n        /* \"#utility.yul\":4192:4386   */\n      swap3\n      swap2\n      pop\n      pop\n      jump\t// out\n        /* \"#utility.yul\":4392:4572   */\n    tag_56:\n        /* \"#utility.yul\":4440:4517   */\n      0x4e487b7100000000000000000000000000000000000000000000000000000000\n        /* \"#utility.yul\":4437:4438   */\n      0x00\n        /* \"#utility.yul\":4430:4518   */\n      mstore\n        /* \"#utility.yul\":4537:4541   */\n      0x32\n        /* \"#utility.yul\":4534:4535   */\n      0x04\n        /* \"#utility.yul\":4527:4542   */\n      mstore\n        /* \"#utility.yul\":4561:4565   */\n      0x24\n        /* \"#utility.yul\":4558:4559   */\n      0x00\n        /* \"#utility.yul\":4551:4566   */\n      revert\n        /* \"#utility.yul\":4578:4758   */\n    tag_159:\n        /* \"#utility.yul\":4626:4703   */\n      0x4e487b7100000000000000000000000000000000000000000000000000000000\n        /* \"#utility.yul\":4623:4624   */\n      0x00\n        /* \"#utility.yul\":4616:4704   */\n      mstore\n        /* \"#utility.yul\":4723:4727   */\n      0x12\n        /* \"#utility.yul\":4720:4721   */\n      0x04\n        /* \"#utility.yul\":4713:4728   */\n      mstore\n        /* \"#utility.yul\":4747:4751   */\n      0x24\n        /* \"#utility.yul\":4744:4745   */\n      0x00\n        /* \"#utility.yul\":4737:4752   */\n      revert\n        /* \"#utility.yul\":4764:4940   */\n    tag_65:\n        /* \"#utility.yul\":4796:4797   */\n      0x00\n        /* \"#utility.yul\":4813:4833   */\n      tag_224\n        /* \"#utility.yul\":4831:4832   */\n      dup3\n        /* \"#utility.yul\":4813:4833   */\n      tag_145\n      jump\t// in\n    tag_224:\n        /* \"#utility.yul\":4808:4833   */\n      swap2\n      pop\n        /* \"#utility.yul\":4847:4867   */\n      tag_225\n        /* \"#utility.yul\":4865:4866   */\n      dup4\n        /* \"#utility.yul\":4847:4867   */\n      tag_145\n      jump\t// in\n    tag_225:\n        /* \"#utility.yul\":4842:4867   */\n      swap3\n      pop\n        /* \"#utility.yul\":4886:4887   */\n      dup3\n        /* \"#utility.yul\":4876:4911   */\n      tag_226\n      jumpi\n        /* \"#utility.yul\":4891:4909   */\n      tag_227\n      tag_159\n      jump\t// in\n    tag_227:\n        /* \"#utility.yul\":4876:4911   */\n    tag_226:\n        /* \"#utility.yul\":4932:4933   */\n      dup3\n        /* \"#utility.yul\":4929:4930   */\n      dup3\n        /* \"#utility.yul\":4925:4934   */\n      mod\n        /* \"#utility.yul\":4920:4934   */\n      swap1\n      pop\n        /* \"#utility.yul\":4764:4940   */\n      swap3\n      swap2\n      pop\n      pop\n      jump\t// out\n        /* \"#utility.yul\":4946:5117   */\n    tag_71:\n        /* \"#utility.yul\":4985:4988   */\n      0x00\n        /* \"#utility.yul\":5008:5032   */\n      tag_229\n        /* \"#utility.yul\":5026:5031   */\n      dup3\n        /* \"#utility.yul\":5008:5032   */\n      tag_145\n      jump\t// in\n    tag_229:\n        /* \"#utility.yul\":4999:5032   */\n      swap2\n      pop\n        /* \"#utility.yul\":5054:5058   */\n      0x00\n        /* \"#utility.yul\":5047:5052   */\n      dup3\n        /* \"#utility.yul\":5044:5059   */\n      sub\n        /* \"#utility.yul\":5041:5082   */\n      tag_230\n      jumpi\n        /* \"#utility.yul\":5062:5080   */\n      tag_231\n      tag_158\n      jump\t// in\n    tag_231:\n        /* \"#utility.yul\":5041:5082   */\n    tag_230:\n        /* \"#utility.yul\":5109:5110   */\n      0x01\n        /* \"#utility.yul\":5102:5107   */\n      dup3\n        /* \"#utility.yul\":5098:5111   */\n      sub\n        /* \"#utility.yul\":5091:5111   */\n      swap1\n      pop\n        /* \"#utility.yul\":4946:5117   */\n      swap2\n      swap1\n      pop\n      jump\t// out\n        /* \"#utility.yul\":5123:5314   */\n    tag_77:\n        /* \"#utility.yul\":5163:5166   */\n      0x00\n        /* \"#utility.yul\":5182:5202   */\n      tag_233\n        /* \"#utility.yul\":5200:5201   */\n      dup3\n        /* \"#utility.yul\":5182:5202   */\n      tag_145\n      jump\t// in\n    tag_233:\n        /* \"#utility.yul\":5177:5202   */\n      swap2\n      pop\n        /* \"#utility.yul\":5216:5236   */\n      tag_234\n        /* \"#utility.yul\":5234:5235   */\n      dup4\n        /* \"#utility.yul\":5216:5236   */\n      tag_145\n      jump\t// in\n    tag_234:\n        /* \"#utility.yul\":5211:5236   */\n      swap3\n      pop\n        /* \"#utility.yul\":5259:5260   */\n      dup3\n        /* \"#utility.yul\":5256:5257   */\n      dup3\n        /* \"#utility.yul\":5252:5261   */\n      add\n        /* \"#utility.yul\":5245:5261   */\n      swap1\n      pop\n        /* \"#utility.yul\":5280:5283   */\n      dup1\n        /* \"#utility.yul\":5277:5278   */\n      dup3\n        /* \"#utility.yul\":5274:5284   */\n      gt\n        /* \"#utility.yul\":5271:5307   */\n      iszero\n      tag_235\n      jumpi\n        /* \"#utility.yul\":5287:5305   */\n      tag_236\n      tag_158\n      jump\t// in\n    tag_236:\n        /* \"#utility.yul\":5271:5307   */\n    tag_235:\n        /* \"#utility.yul\":5123:5314   */\n      swap3\n      swap2\n      pop\n      pop\n      jump\t// out\n        /* \"#utility.yul\":5320:5553   */\n    tag_84:\n        /* \"#utility.yul\":5359:5362   */\n      0x00\n        /* \"#utility.yul\":5382:5406   */\n      tag_238\n        /* \"#utility.yul\":5400:5405   */\n      dup3\n        /* \"#utility.yul\":5382:5406   */\n      tag_145\n      jump\t// in\n    tag_238:\n        /* \"#utility.yul\":5373:5406   */\n      swap2\n      pop\n        /* \"#utility.yul\":5428:5494   */\n      0xffffffffffffffffffffffffffffffffffffffffffffffffffffffffffffffff\n        /* \"#utility.yul\":5421:5426   */\n      dup3\n        /* \"#utility.yul\":5418:5495   */\n      sub\n        /* \"#utility.yul\":5415:5518   */\n      tag_239\n      jumpi\n        /* \"#utility.yul\":5498:5516   */\n      tag_240\n      tag_158\n      jump\t// in\n    tag_240:\n        /* \"#utility.yul\":5415:5518   */\n    tag_239:\n        /* \"#utility.yul\":5545:5546   */\n      0x01\n        /* \"#utility.yul\":5538:5543   */\n      dup3\n        /* \"#utility.yul\":5534:5547   */\n      add\n        /* \"#utility.yul\":5527:5547   */\n      swap1\n      pop\n        /* \"#utility.yul\":5320:5553   */\n      swap2\n      swap1\n      pop\n      jump\t// out\n        /* \"#utility.yul\":5559:5969   */\n    tag_123:\n        /* \"#utility.yul\":5599:5606   */\n      0x00\n        /* \"#utility.yul\":5622:5642   */\n      tag_242\n        /* \"#utility.yul\":5640:5641   */\n      dup3\n        /* \"#utility.yul\":5622:5642   */\n      tag_145\n      jump\t// in\n    tag_242:\n        /* \"#utility.yul\":5617:5642   */\n      swap2\n      pop\n        /* \"#utility.yul\":5656:5676   */\n      tag_243\n        /* \"#utility.yul\":5674:5675   */\n      dup4\n        /* \"#utility.yul\":5656:5676   */\n      tag_145\n      jump\t// in\n    tag_243:\n        /* \"#utility.yul\":5651:5676   */\n      swap3\n      pop\n        /* \"#utility.yul\":5711:5712   */\n      dup3\n        /* \"#utility.yul\":5708:5709   */\n      dup3\n        /* \"#utility.yul\":5704:5713   */\n      mul\n        /* \"#utility.yul\":5733:5763   */\n      tag_244\n        /* \"#utility.yul\":5751:5762   */\n      dup2\n        /* \"#utility.yul\":5733:5763   */\n      tag_145\n      jump\t// in\n    tag_244:\n        /* \"#utility.yul\":5722:5763   */\n      swap2\n      pop\n        /* \"#utility.yul\":5912:5913   */\n      dup3\n        /* \"#utility.yul\":5903:5910   */\n      dup3\n        /* \"#utility.yul\":5899:5914   */\n      div\n        /* \"#utility.yul\":5896:5897   */\n      dup5\n        /* \"#utility.yul\":5893:5915   */\n      eq\n        /* \"#utility.yul\":5873:5874   */\n      dup4\n        /* \"#utility.yul\":5866:5875   */\n      iszero\n        /* \"#utility.yul\":5846:5929   */\n      or\n        /* \"#utility.yul\":5823:5962   */\n      tag_245\n      jumpi\n        /* \"#utility.yul\":5942:5960   */\n      tag_246\n      tag_158\n      jump\t// in\n    tag_246:\n        /* \"#utility.yul\":5823:5962   */\n    tag_245:\n        /* \"#utility.yul\":5607:5969   */\n      pop\n        /* \"#utility.yul\":5559:5969   */\n      swap3\n      swap2\n      pop\n      pop\n      jump\t// out\n        /* \"#utility.yul\":5975:6144   */\n    tag_160:\n        /* \"#utility.yul\":6059:6070   */\n      0x00\n        /* \"#utility.yul\":6093:6099   */\n      dup3\n        /* \"#utility.yul\":6088:6091   */\n      dup3\n        /* \"#utility.yul\":6081:6100   */\n      mstore\n        /* \"#utility.yul\":6133:6137   */\n      0x20\n        /* \"#utility.yul\":6128:6131   */\n      dup3\n        /* \"#utility.yul\":6124:6138   */\n      add\n        /* \"#utility.yul\":6109:6138   */\n      swap1\n      pop\n        /* \"#utility.yul\":5975:6144   */\n      swap3\n      swap2\n      pop\n      pop\n      jump\t// out\n        /* \"#utility.yul\":6150:6324   */\n    tag_161:\n        /* \"#utility.yul\":6290:6316   */\n      0x6d6f64496e76657273653a207a65726f2064697669736f720000000000000000\n        /* \"#utility.yul\":6286:6287   */\n      0x00\n        /* \"#utility.yul\":6278:6284   */\n      dup3\n        /* \"#utility.yul\":6274:6288   */\n      add\n        /* \"#utility.yul\":6267:6317   */\n      mstore\n        /* \"#utility.yul\":6150:6324   */\n      pop\n      jump\t// out\n        /* \"#utility.yul\":6330:6696   */\n    tag_162:\n        /* \"#utility.yul\":6472:6475   */\n      0x00\n        /* \"#utility.yul\":6493:6560   */\n      tag_250\n        /* \"#utility.yul\":6557:6559   */\n      0x18\n        /* \"#utility.yul\":6552:6555   */\n      dup4\n        /* \"#utility.yul\":6493:6560   */\n      tag_160\n      jump\t// in\n    tag_250:\n        /* \"#utility.yul\":6486:6560   */\n      swap2\n      pop\n        /* \"#utility.yul\":6569:6662   */\n      tag_251\n        /* \"#utility.yul\":6658:6661   */\n      dup3\n        /* \"#utility.yul\":6569:6662   */\n      tag_161\n      jump\t// in\n    tag_251:\n        /* \"#utility.yul\":6687:6689   */\n      0x20\n        /* \"#utility.yul\":6682:6685   */\n      dup3\n        /* \"#utility.yul\":6678:6690   */\n      add\n        /* \"#utility.yul\":6671:6690   */\n      swap1\n      pop\n        /* \"#utility.yul\":6330:6696   */\n      swap2\n      swap1\n      pop\n      jump\t// out\n        /* \"#utility.yul\":6702:7121   */\n    tag_127:\n        /* \"#utility.yul\":6868:6872   */\n      0x00\n        /* \"#utility.yul\":6906:6908   */\n      0x20\n        /* \"#utility.yul\":6895:6904   */\n      dup3\n        /* \"#utility.yul\":6891:6909   */\n      add\n        /* \"#utility.yul\":6883:6909   */\n      swap1\n      pop\n        /* \"#utility.yul\":6955:6964   */\n      dup2\n        /* \"#utility.yul\":6949:6953   */\n      dup2\n        /* \"#utility.yul\":6945:6965   */\n      sub\n        /* \"#utility.yul\":6941:6942   */\n      0x00\n        /* \"#utility.yul\":6930:6939   */\n      dup4\n        /* \"#utility.yul\":6926:6943   */\n      add\n        /* \"#utility.yul\":6919:6966   */\n      mstore\n        /* \"#utility.yul\":6983:7114   */\n      tag_253\n        /* \"#utility.yul\":7109:7113   */\n      dup2\n        /* \"#utility.yul\":6983:7114   */\n      tag_162\n      jump\t// in\n    tag_253:\n        /* \"#utility.yul\":6975:7114   */\n      swap1\n      pop\n        /* \"#utility.yul\":6702:7121   */\n      swap2\n      swap1\n      pop\n      jump\t// out\n        /* \"#utility.yul\":7127:7203   */\n    tag_163:\n        /* \"#utility.yul\":7163:7170   */\n      0x00\n        /* \"#utility.yul\":7192:7197   */\n      dup2\n        /* \"#utility.yul\":7181:7197   */\n      swap1\n      pop\n        /* \"#utility.yul\":7127:7203   */\n      swap2\n      swap1\n      pop\n      jump\t// out\n        /* \"#utility.yul\":7209:7584   */\n    tag_130:\n        /* \"#utility.yul\":7248:7251   */\n      0x00\n        /* \"#utility.yul\":7267:7286   */\n      tag_256\n        /* \"#utility.yul\":7284:7285   */\n      dup3\n        /* \"#utility.yul\":7267:7286   */\n      tag_163\n      jump\t// in\n    tag_256:\n        /* \"#utility.yul\":7262:7286   */\n      swap2\n      pop\n        /* \"#utility.yul\":7300:7319   */\n      tag_257\n        /* \"#utility.yul\":7317:7318   */\n      dup4\n        /* \"#utility.yul\":7300:7319   */\n      tag_163\n      jump\t// in\n    tag_257:\n        /* \"#utility.yul\":7295:7319   */\n      swap3\n      pop\n        /* \"#utility.yul\":7342:7343   */\n      dup3\n        /* \"#utility.yul\":7339:7340   */\n      dup3\n        /* \"#utility.yul\":7335:7344   */\n      add\n        /* \"#utility.yul\":7328:7344   */\n      swap1\n      pop\n        /* \"#utility.yul\":7540:7541   */\n      dup3\n        /* \"#utility.yul\":7535:7538   */\n      dup2\n        /* \"#utility.yul\":7531:7542   */\n      slt\n        /* \"#utility.yul\":7524:7543   */\n      iszero\n        /* \"#utility.yul\":7520:7521   */\n      0x00\n        /* \"#utility.yul\":7517:7518   */\n      dup4\n        /* \"#utility.yul\":7513:7522   */\n      slt\n        /* \"#utility.yul\":7509:7544   */\n      and\n        /* \"#utility.yul\":7492:7493   */\n      dup4\n        /* \"#utility.yul\":7487:7490   */\n      dup3\n        /* \"#utility.yul\":7483:7494   */\n      slt\n        /* \"#utility.yul\":7478:7479   */\n      0x00\n        /* \"#utility.yul\":7475:7476   */\n      dup5\n        /* \"#utility.yul\":7471:7480   */\n      slt\n        /* \"#utility.yul\":7464:7481   */\n      iszero\n        /* \"#utility.yul\":7460:7495   */\n      and\n        /* \"#utility.yul\":7444:7554   */\n      or\n        /* \"#utility.yul\":7441:7577   */\n      iszero\n      tag_258\n      jumpi\n        /* \"#utility.yul\":7557:7575   */\n      tag_259\n      tag_158\n      jump\t// in\n    tag_259:\n        /* \"#utility.yul\":7441:7577   */\n    tag_258:\n        /* \"#utility.yul\":7209:7584   */\n      swap3\n      swap2\n      pop\n      pop\n      jump\t// out\n        /* \"#utility.yul\":7590:7975   */\n    tag_134:\n        /* \"#utility.yul\":7629:7630   */\n      0x00\n        /* \"#utility.yul\":7646:7665   */\n      tag_261\n        /* \"#utility.yul\":7663:7664   */\n      dup3\n        /* \"#utility.yul\":7646:7665   */\n      tag_163\n      jump\t// in\n    tag_261:\n        /* \"#utility.yul\":7641:7665   */\n      swap2\n      pop\n        /* \"#utility.yul\":7679:7698   */\n      tag_262\n        /* \"#utility.yul\":7696:7697   */\n      dup4\n        /* \"#utility.yul\":7679:7698   */\n      tag_163\n      jump\t// in\n    tag_262:\n        /* \"#utility.yul\":7674:7698   */\n      swap3\n      pop\n        /* \"#utility.yul\":7717:7718   */\n      dup3\n        /* \"#utility.yul\":7707:7742   */\n      tag_263\n      jumpi\n        /* \"#utility.yul\":7722:7740   */\n      tag_264\n      tag_159\n      jump\t// in\n    tag_264:\n        /* \"#utility.yul\":7707:7742   */\n    tag_263:\n        /* \"#utility.yul\":7908:7909   */\n      0x01\n        /* \"#utility.yul\":7905:7906   */\n      0x00\n        /* \"#utility.yul\":7901:7910   */\n      sub\n        /* \"#utility.yul\":7898:7899   */\n      dup4\n        /* \"#utility.yul\":7895:7911   */\n      eq\n        /* \"#utility.yul\":7814:7880   */\n      0x8000000000000000000000000000000000000000000000000000000000000000\n        /* \"#utility.yul\":7811:7812   */\n      dup4\n        /* \"#utility.yul\":7808:7881   */\n      eq\n        /* \"#utility.yul\":7791:7921   */\n      and\n        /* \"#utility.yul\":7788:7944   */\n      iszero\n      tag_265\n      jumpi\n        /* \"#utility.yul\":7924:7942   */\n      tag_266\n      tag_158\n      jump\t// in\n    tag_266:\n        /* \"#utility.yul\":7788:7944   */\n    tag_265:\n        /* \"#utility.yul\":7967:7968   */\n      dup3\n        /* \"#utility.yul\":7964:7965   */\n      dup3\n        /* \"#utility.yul\":7959:7969   */\n      sdiv\n        /* \"#utility.yul\":7954:7969   */\n      swap1\n      pop\n        /* \"#utility.yul\":7590:7975   */\n      swap3\n      swap2\n      pop\n      pop\n      jump\t// out\n        /* \"#utility.yul\":7981:8537   */\n    tag_136:\n        /* \"#utility.yul\":8020:8027   */\n      0x00\n        /* \"#utility.yul\":8043:8062   */\n      tag_268\n        /* \"#utility.yul\":8060:8061   */\n      dup3\n        /* \"#utility.yul\":8043:8062   */\n      tag_163\n      jump\t// in\n    tag_268:\n        /* \"#utility.yul\":8038:8062   */\n      swap2\n      pop\n        /* \"#utility.yul\":8076:8095   */\n      tag_269\n        /* \"#utility.yul\":8093:8094   */\n      dup4\n        /* \"#utility.yul\":8076:8095   */\n      tag_163\n      jump\t// in\n    tag_269:\n        /* \"#utility.yul\":8071:8095   */\n      swap3\n      pop\n        /* \"#utility.yul\":8130:8131   */\n      dup3\n        /* \"#utility.yul\":8127:8128   */\n      dup3\n        /* \"#utility.yul\":8123:8132   */\n      mul\n        /* \"#utility.yul\":8152:8181   */\n      tag_270\n        /* \"#utility.yul\":8169:8180   */\n      dup2\n        /* \"#utility.yul\":8152:8181   */\n      tag_163\n      jump\t// in\n    tag_270:\n        /* \"#utility.yul\":8141:8181   */\n      swap2\n      pop\n        /* \"#utility.yul\":8239:8305   */\n      0x8000000000000000000000000000000000000000000000000000000000000000\n        /* \"#utility.yul\":8236:8237   */\n      dup5\n        /* \"#utility.yul\":8233:8306   */\n      eq\n        /* \"#utility.yul\":8229:8230   */\n      0x00\n        /* \"#utility.yul\":8226:8227   */\n      dup5\n        /* \"#utility.yul\":8222:8231   */\n      slt\n        /* \"#utility.yul\":8218:8307   */\n      and\n        /* \"#utility.yul\":8215:8330   */\n      iszero\n      tag_271\n      jumpi\n        /* \"#utility.yul\":8310:8328   */\n      tag_272\n      tag_158\n      jump\t// in\n    tag_272:\n        /* \"#utility.yul\":8215:8330   */\n    tag_271:\n        /* \"#utility.yul\":8480:8481   */\n      dup3\n        /* \"#utility.yul\":8471:8478   */\n      dup3\n        /* \"#utility.yul\":8466:8482   */\n      sdiv\n        /* \"#utility.yul\":8463:8464   */\n      dup5\n        /* \"#utility.yul\":8460:8483   */\n      eq\n        /* \"#utility.yul\":8440:8441   */\n      dup4\n        /* \"#utility.yul\":8433:8442   */\n      iszero\n        /* \"#utility.yul\":8413:8497   */\n      or\n        /* \"#utility.yul\":8390:8530   */\n      tag_273\n      jumpi\n        /* \"#utility.yul\":8510:8528   */\n      tag_274\n      tag_158\n      jump\t// in\n    tag_274:\n        /* \"#utility.yul\":8390:8530   */\n    tag_273:\n        /* \"#utility.yul\":8028:8537   */\n      pop\n        /* \"#utility.yul\":7981:8537   */\n      swap3\n      swap2\n      pop\n      pop\n      jump\t// out\n        /* \"#utility.yul\":8543:8915   */\n    tag_138:\n        /* \"#utility.yul\":8582:8586   */\n      0x00\n        /* \"#utility.yul\":8602:8621   */\n      tag_276\n        /* \"#utility.yul\":8619:8620   */\n      dup3\n        /* \"#utility.yul\":8602:8621   */\n      tag_163\n      jump\t// in\n    tag_276:\n        /* \"#utility.yul\":8597:8621   */\n      swap2\n      pop\n        /* \"#utility.yul\":8635:8654   */\n      tag_277\n        /* \"#utility.yul\":8652:8653   */\n      dup4\n        /* \"#utility.yul\":8635:8654   */\n      tag_163\n      jump\t// in\n    tag_277:\n        /* \"#utility.yul\":8630:8654   */\n      swap3\n      pop\n        /* \"#utility.yul\":8678:8679   */\n      dup3\n        /* \"#utility.yul\":8675:8676   */\n      dup3\n        /* \"#utility.yul\":8671:8680   */\n      sub\n        /* \"#utility.yul\":8663:8680   */\n      swap1\n      pop\n        /* \"#utility.yul\":8872:8873   */\n      dup2\n        /* \"#utility.yul\":8866:8870   */\n      dup2\n        /* \"#utility.yul\":8862:8874   */\n      slt\n        /* \"#utility.yul\":8858:8859   */\n      0x00\n        /* \"#utility.yul\":8855:8856   */\n      dup5\n        /* \"#utility.yul\":8851:8860   */\n      slt\n        /* \"#utility.yul\":8847:8875   */\n      and\n        /* \"#utility.yul\":8830:8831   */\n      dup3\n        /* \"#utility.yul\":8824:8828   */\n      dup3\n        /* \"#utility.yul\":8820:8832   */\n      sgt\n        /* \"#utility.yul\":8815:8816   */\n      0x00\n        /* \"#utility.yul\":8812:8813   */\n      dup6\n        /* \"#utility.yul\":8808:8817   */\n      slt\n        /* \"#utility.yul\":8801:8818   */\n      iszero\n        /* \"#utility.yul\":8797:8833   */\n      and\n        /* \"#utility.yul\":8781:8885   */\n      or\n        /* \"#utility.yul\":8778:8908   */\n      iszero\n      tag_278\n      jumpi\n        /* \"#utility.yul\":8888:8906   */\n      tag_279\n      tag_158\n      jump\t// in\n    tag_279:\n        /* \"#utility.yul\":8778:8908   */\n    tag_278:\n        /* \"#utility.yul\":8543:8915   */\n      swap3\n      swap2\n      pop\n      pop\n      jump\t// out\n        /* \"#utility.yul\":8921:9097   */\n    tag_164:\n        /* \"#utility.yul\":9061:9089   */\n      0x6d6f64496e76657273653a206e6f7420696e7665727469626c65000000000000\n        /* \"#utility.yul\":9057:9058   */\n      0x00\n        /* \"#utility.yul\":9049:9055   */\n      dup3\n        /* \"#utility.yul\":9045:9059   */\n      add\n        /* \"#utility.yul\":9038:9090   */\n      mstore\n        /* \"#utility.yul\":8921:9097   */\n      pop\n      jump\t// out\n        /* \"#utility.yul\":9103:9469   */\n    tag_165:\n        /* \"#utility.yul\":9245:9248   */\n      0x00\n        /* \"#utility.yul\":9266:9333   */\n      tag_282\n        /* \"#utility.yul\":9330:9332   */\n      0x1a\n        /* \"#utility.yul\":9325:9328   */\n      dup4\n        /* \"#utility.yul\":9266:9333   */\n      tag_160\n      jump\t// in\n    tag_282:\n        /* \"#utility.yul\":9259:9333   */\n      swap2\n      pop\n        /* \"#utility.yul\":9342:9435   */\n      tag_283\n        /* \"#utility.yul\":9431:9434   */\n      dup3\n        /* \"#utility.yul\":9342:9435   */\n      tag_164\n      jump\t// in\n    tag_283:\n        /* \"#utility.yul\":9460:9462   */\n      0x20\n        /* \"#utility.yul\":9455:9458   */\n      dup3\n        /* \"#utility.yul\":9451:9463   */\n      add\n        /* \"#utility.yul\":9444:9463   */\n      swap1\n      pop\n        /* \"#utility.yul\":9103:9469   */\n      swap2\n      swap1\n      pop\n      jump\t// out\n        /* \"#utility.yul\":9475:9894   */\n    tag_141:\n        /* \"#utility.yul\":9641:9645   */\n      0x00\n        /* \"#utility.yul\":9679:9681   */\n      0x20\n        /* \"#utility.yul\":9668:9677   */\n      dup3\n        /* \"#utility.yul\":9664:9682   */\n      add\n        /* \"#utility.yul\":9656:9682   */\n      swap1\n      pop\n        /* \"#utility.yul\":9728:9737   */\n      dup2\n        /* \"#utility.yul\":9722:9726   */\n      dup2\n        /* \"#utility.yul\":9718:9738   */\n      sub\n        /* \"#utility.yul\":9714:9715   */\n      0x00\n        /* \"#utility.yul\":9703:9712   */\n      dup4\n        /* \"#utility.yul\":9699:9716   */\n      add\n        /* \"#utility.yul\":9692:9739   */\n      mstore\n        /* \"#utility.yul\":9756:9887   */\n      tag_285\n        /* \"#utility.yul\":9882:9886   */\n      dup2\n        /* \"#utility.yul\":9756:9887   */\n      tag_165\n      jump\t// in\n    tag_285:\n        /* \"#utility.yul\":9748:9887   */\n      swap1\n      pop\n        /* \"#utility.yul\":9475:9894   */\n      swap2\n      swap1\n      pop\n      jump\t// out\n\n    auxdata: 0xa2646970667358221220e428dee1f4a4b9dfb84cfa0e103c1d31e3b32af1ef83a5201a0c7e3bd98c106864736f6c63430008180033\n}\n",
				"bytecode": {
					"linkReferences": {},
					"object": "608060405234801562000010575f80fd5b50604051620012c7380380620012c78339818101604052810190620000369190620002a1565b600a8311156200007d576040517f08c379a000000000000000000000000000000000000000000000000000000000815260040162000074906200037e565b60405180910390fd5b6007821115620000c4576040517f08c379a0000000000000000000000000000000000000000000000000000000008152600401620000bb90620003ec565b60405180910390fd5b828211156200010a576040517f08c379a0000000000000000000000000000000000000000000000000000000008152600401620001019062000480565b60405180910390fd5b6001811162000150576040517f08c379a00000000000000000000000000000000000000000000000000000000081526004016200014790620004ee565b60405180910390fd5b8260028190555081600d81905550805f8190555042486040516020016200017992919062000532565b604051602081830303815290604052805190602001205f1c6001819055505f5b600254811015620001cf575f600382600a8110620001bc57620001bb62000561565b5b0181905550808060010191505062000199565b505f5b6001600d54620001e39190620005bb565b8110156200025b575f548142620001fb9190620005f5565b6040516020016200020d91906200062f565b604051602081830303815290604052805190602001205f1c62000231919062000678565b600e826006811062000248576200024762000561565b5b01819055508080600101915050620001d2565b50505050620006af565b5f80fd5b5f819050919050565b6200027d8162000269565b811462000288575f80fd5b50565b5f815190506200029b8162000272565b92915050565b5f805f60608486031215620002bb57620002ba62000265565b5b5f620002ca868287016200028b565b9350506020620002dd868287016200028b565b9250506040620002f0868287016200028b565b9150509250925092565b5f82825260208201905092915050565b7f4e756d626572206f6620706172746965732065786365656473206d6178696d755f8201527f6d00000000000000000000000000000000000000000000000000000000000000602082015250565b5f62000366602183620002fa565b915062000373826200030a565b604082019050919050565b5f6020820190508181035f830152620003978162000358565b9050919050565b7f5468726573686f6c642065786365656473206d6178696d756d000000000000005f82015250565b5f620003d4601983620002fa565b9150620003e1826200039e565b602082019050919050565b5f6020820190508181035f8301526200040581620003c6565b9050919050565b7f5468726573686f6c64206d757374206265206c657373207468616e206f7220655f8201527f7175616c20746f20746865206e756d626572206f662070617274696573000000602082015250565b5f62000468603d83620002fa565b915062000475826200040c565b604082019050919050565b5f6020820190508181035f83015262000499816200045a565b9050919050565b7f4d6f64756c7573206d7573742062652067726561746572207468616e203100005f82015250565b5f620004d6601e83620002fa565b9150620004e382620004a0565b602082019050919050565b5f6020820190508181035f8301526200050781620004c8565b9050919050565b5f819050919050565b6200052c620005268262000269565b6200050e565b82525050565b5f6200053f828562000517565b60208201915062000551828462000517565b6020820191508190509392505050565b7f4e487b71000000000000000000000000000000000000000000000000000000005f52603260045260245ffd5b7f4e487b71000000000000000000000000000000000000000000000000000000005f52601160045260245ffd5b5f620005c78262000269565b9150620005d48362000269565b9250828203905081811115620005ef57620005ee6200058e565b5b92915050565b5f620006018262000269565b91506200060e8362000269565b92508282019050808211156200062957620006286200058e565b5b92915050565b5f6200063c828462000517565b60208201915081905092915050565b7f4e487b71000000000000000000000000000000000000000000000000000000005f52601260045260245ffd5b5f620006848262000269565b9150620006918362000269565b925082620006a457620006a36200064b565b5b828206905092915050565b610c0a80620006bd5f395ff3fe608060405234801561000f575f80fd5b5060043610610086575f3560e01c8063b16622c611610059578063b16622c614610100578063ba3abe871461011e578063d1efd30d1461014e578063f41d71471461016c57610086565b8063020ba46b1461008a57806326ecb26c146100ba57806342cde4e8146100c45780639ae8886a146100e2575b5f80fd5b6100a4600480360381019061009f9190610604565b61019c565b6040516100b1919061063e565b60405180910390f35b6100c26101b5565b005b6100cc6102f9565b6040516100d9919061063e565b60405180910390f35b6100ea6102ff565b6040516100f7919061063e565b60405180910390f35b610108610304565b604051610115919061063e565b60405180910390f35b61013860048036038101906101339190610604565b61030a565b604051610145919061063e565b60405180910390f35b610156610323565b604051610163919061063e565b60405180910390f35b61018660048036038101906101819190610795565b610329565b604051610193919061063e565b60405180910390f35b600381600a81106101ab575f80fd5b015f915090505481565b5f600190505b60025481116102f6575f8190505f6002600d546101d891906107ed565b90505b5f8110610281575f5461023f83610231600e85600681106101ff576101fe610820565b5b0154600360018961021091906107ed565b600a811061022157610220610820565b5b01546104a690919063ffffffff16565b6104bb90919063ffffffff16565b610249919061087a565b600360018561025891906107ed565b600a811061026957610268610820565b5b01819055508080610279906108aa565b9150506101db565b505f54600154600360018561029691906107ed565b600a81106102a7576102a6610820565b5b01546102b391906108d1565b6102bd919061087a565b60036001846102cc91906107ed565b600a81106102dd576102dc610820565b5b01819055505080806102ee90610904565b9150506101bb565b50565b600d5481565b5f5481565b60025481565b600e8160068110610319575f80fd5b015f915090505481565b60015481565b5f805f90505f5b600d5481101561049c575f600190505f85836007811061035357610352610820565b5b602002015190505f8054825f5461036a91906107ed565b610374919061087a565b90505f5b600d5481101561041b575f88826007811061039657610395610820565b5b6020020151905081861461040d575f805484836103b391906108d1565b6103bd919061087a565b90506103ca815f546104d0565b90505f545f546103f56103e684866104bb90919063ffffffff16565b896104bb90919063ffffffff16565b6103ff919061087a565b610409919061087a565b9550505b508080600101915050610378565b505f545f5461046b85600360018c8a6007811061043b5761043a610820565b5b602002015161044a91906107ed565b600a811061045b5761045a610820565b5b01546104bb90919063ffffffff16565b610475919061087a565b8661048091906108d1565b61048a919061087a565b94505050508080600101915050610330565b5080915050919050565b5f81836104b391906108d1565b905092915050565b5f81836104c8919061094b565b905092915050565b5f805f805f805f8803610518576040517f08c379a000000000000000000000000000000000000000000000000000000000815260040161050f906109e6565b60405180910390fd5b5f88121561052f57868861052c9190610a0d565b97505b8691508790505b5f81131561057357808261054a9190610a4e565b935080846105589190610ab6565b826105639190610b2c565b9250819450809150829050610536565b600182146105b6576040517f08c379a00000000000000000000000000000000000000000000000000000000081526004016105ad90610bb6565b60405180910390fd5b849550505050505092915050565b5f604051905090565b5f80fd5b5f819050919050565b6105e3816105d1565b81146105ed575f80fd5b50565b5f813590506105fe816105da565b92915050565b5f60208284031215610619576106186105cd565b5b5f610626848285016105f0565b91505092915050565b610638816105d1565b82525050565b5f6020820190506106515f83018461062f565b92915050565b5f80fd5b5f601f19601f8301169050919050565b7f4e487b71000000000000000000000000000000000000000000000000000000005f52604160045260245ffd5b6106a18261065b565b810181811067ffffffffffffffff821117156106c0576106bf61066b565b5b80604052505050565b5f6106d26105c4565b90506106de8282610698565b919050565b5f67ffffffffffffffff8211156106fd576106fc61066b565b5b602082029050919050565b5f80fd5b5f61071e610719846106e3565b6106c9565b9050806020840283018581111561073857610737610708565b5b835b81811015610761578061074d88826105f0565b84526020840193505060208101905061073a565b5050509392505050565b5f82601f83011261077f5761077e610657565b5b600761078c84828561070c565b91505092915050565b5f60e082840312156107aa576107a96105cd565b5b5f6107b78482850161076b565b91505092915050565b7f4e487b71000000000000000000000000000000000000000000000000000000005f52601160045260245ffd5b5f6107f7826105d1565b9150610802836105d1565b925082820390508181111561081a576108196107c0565b5b92915050565b7f4e487b71000000000000000000000000000000000000000000000000000000005f52603260045260245ffd5b7f4e487b71000000000000000000000000000000000000000000000000000000005f52601260045260245ffd5b5f610884826105d1565b915061088f836105d1565b92508261089f5761089e61084d565b5b828206905092915050565b5f6108b4826105d1565b91505f82036108c6576108c56107c0565b5b600182039050919050565b5f6108db826105d1565b91506108e6836105d1565b92508282019050808211156108fe576108fd6107c0565b5b92915050565b5f61090e826105d1565b91507fffffffffffffffffffffffffffffffffffffffffffffffffffffffffffffffff82036109405761093f6107c0565b5b600182019050919050565b5f610955826105d1565b9150610960836105d1565b925082820261096e816105d1565b91508282048414831517610985576109846107c0565b5b5092915050565b5f82825260208201905092915050565b7f6d6f64496e76657273653a207a65726f2064697669736f7200000000000000005f82015250565b5f6109d060188361098c565b91506109db8261099c565b602082019050919050565b5f6020820190508181035f8301526109fd816109c4565b9050919050565b5f819050919050565b5f610a1782610a04565b9150610a2283610a04565b92508282019050828112155f8312168382125f841215161715610a4857610a476107c0565b5b92915050565b5f610a5882610a04565b9150610a6383610a04565b925082610a7357610a7261084d565b5b60015f0383147f800000000000000000000000000000000000000000000000000000000000000083141615610aab57610aaa6107c0565b5b828205905092915050565b5f610ac082610a04565b9150610acb83610a04565b9250828202610ad981610a04565b91507f800000000000000000000000000000000000000000000000000000000000000084145f84121615610b1057610b0f6107c0565b5b8282058414831517610b2557610b246107c0565b5b5092915050565b5f610b3682610a04565b9150610b4183610a04565b925082820390508181125f8412168282135f851215161715610b6657610b656107c0565b5b92915050565b7f6d6f64496e76657273653a206e6f7420696e7665727469626c650000000000005f82015250565b5f610ba0601a8361098c565b9150610bab82610b6c565b602082019050919050565b5f6020820190508181035f830152610bcd81610b94565b905091905056fea2646970667358221220e428dee1f4a4b9dfb84cfa0e103c1d31e3b32af1ef83a5201a0c7e3bd98c106864736f6c63430008180033",
					"opcodes": "PUSH1 0x80 PUSH1 0x40 MSTORE CALLVALUE DUP1 ISZERO PUSH3 0x10 JUMPI PUSH0 DUP1 REVERT JUMPDEST POP PUSH1 0x40 MLOAD PUSH3 0x12C7 CODESIZE SUB DUP1 PUSH3 0x12C7 DUP4 CODECOPY DUP2 DUP2 ADD PUSH1 0x40 MSTORE DUP2 ADD SWAP1 PUSH3 0x36 SWAP2 SWAP1 PUSH3 0x2A1 JUMP JUMPDEST PUSH1 0xA DUP4 GT ISZERO PUSH3 0x7D JUMPI PUSH1 0x40 MLOAD PUSH32 0x8C379A000000000000000000000000000000000000000000000000000000000 DUP2 MSTORE PUSH1 0x4 ADD PUSH3 0x74 SWAP1 PUSH3 0x37E JUMP JUMPDEST PUSH1 0x40 MLOAD DUP1 SWAP2 SUB SWAP1 REVERT JUMPDEST PUSH1 0x7 DUP3 GT ISZERO PUSH3 0xC4 JUMPI PUSH1 0x40 MLOAD PUSH32 0x8C379A000000000000000000000000000000000000000000000000000000000 DUP2 MSTORE PUSH1 0x4 ADD PUSH3 0xBB SWAP1 PUSH3 0x3EC JUMP JUMPDEST PUSH1 0x40 MLOAD DUP1 SWAP2 SUB SWAP1 REVERT JUMPDEST DUP3 DUP3 GT ISZERO PUSH3 0x10A JUMPI PUSH1 0x40 MLOAD PUSH32 0x8C379A000000000000000000000000000000000000000000000000000000000 DUP2 MSTORE PUSH1 0x4 ADD PUSH3 0x101 SWAP1 PUSH3 0x480 JUMP JUMPDEST PUSH1 0x40 MLOAD DUP1 SWAP2 SUB SWAP1 REVERT JUMPDEST PUSH1 0x1 DUP2 GT PUSH3 0x150 JUMPI PUSH1 0x40 MLOAD PUSH32 0x8C379A000000000000000000000000000000000000000000000000000000000 DUP2 MSTORE PUSH1 0x4 ADD PUSH3 0x147 SWAP1 PUSH3 0x4EE JUMP JUMPDEST PUSH1 0x40 MLOAD DUP1 SWAP2 SUB SWAP1 REVERT JUMPDEST DUP3 PUSH1 0x2 DUP2 SWAP1 SSTORE POP DUP2 PUSH1 0xD DUP2 SWAP1 SSTORE POP DUP1 PUSH0 DUP2 SWAP1 SSTORE POP TIMESTAMP BASEFEE PUSH1 0x40 MLOAD PUSH1 0x20 ADD PUSH3 0x179 SWAP3 SWAP2 SWAP1 PUSH3 0x532 JUMP JUMPDEST PUSH1 0x40 MLOAD PUSH1 0x20 DUP2 DUP4 SUB SUB DUP2 MSTORE SWAP1 PUSH1 0x40 MSTORE DUP1 MLOAD SWAP1 PUSH1 0x20 ADD KECCAK256 PUSH0 SHR PUSH1 0x1 DUP2 SWAP1 SSTORE POP PUSH0 JUMPDEST PUSH1 0x2 SLOAD DUP2 LT ISZERO PUSH3 0x1CF JUMPI PUSH0 PUSH1 0x3 DUP3 PUSH1 0xA DUP2 LT PUSH3 0x1BC JUMPI PUSH3 0x1BB PUSH3 0x561 JUMP JUMPDEST JUMPDEST ADD DUP2 SWAP1 SSTORE POP DUP1 DUP1 PUSH1 0x1 ADD SWAP2 POP POP PUSH3 0x199 JUMP JUMPDEST POP PUSH0 JUMPDEST PUSH1 0x1 PUSH1 0xD SLOAD PUSH3 0x1E3 SWAP2 SWAP1 PUSH3 0x5BB JUMP JUMPDEST DUP2 LT ISZERO PUSH3 0x25B JUMPI PUSH0 SLOAD DUP2 TIMESTAMP PUSH3 0x1FB SWAP2 SWAP1 PUSH3 0x5F5 JUMP JUMPDEST PUSH1 0x40 MLOAD PUSH1 0x20 ADD PUSH3 0x20D SWAP2 SWAP1 PUSH3 0x62F JUMP JUMPDEST PUSH1 0x40 MLOAD PUSH1 0x20 DUP2 DUP4 SUB SUB DUP2 MSTORE SWAP1 PUSH1 0x40 MSTORE DUP1 MLOAD SWAP1 PUSH1 0x20 ADD KECCAK256 PUSH0 SHR PUSH3 0x231 SWAP2 SWAP1 PUSH3 0x678 JUMP JUMPDEST PUSH1 0xE DUP3 PUSH1 0x6 DUP2 LT PUSH3 0x248 JUMPI PUSH3 0x247 PUSH3 0x561 JUMP JUMPDEST JUMPDEST ADD DUP2 SWAP1 SSTORE POP DUP1 DUP1 PUSH1 0x1 ADD SWAP2 POP POP PUSH3 0x1D2 JUMP JUMPDEST POP POP POP POP PUSH3 0x6AF JUMP JUMPDEST PUSH0 DUP1 REVERT JUMPDEST PUSH0 DUP2 SWAP1 POP SWAP2 SWAP1 POP JUMP JUMPDEST PUSH3 0x27D DUP2 PUSH3 0x269 JUMP JUMPDEST DUP2 EQ PUSH3 0x288 JUMPI PUSH0 DUP1 REVERT JUMPDEST POP JUMP JUMPDEST PUSH0 DUP2 MLOAD SWAP1 POP PUSH3 0x29B DUP2 PUSH3 0x272 JUMP JUMPDEST SWAP3 SWAP2 POP POP JUMP JUMPDEST PUSH0 DUP1 PUSH0 PUSH1 0x60 DUP5 DUP7 SUB SLT ISZERO PUSH3 0x2BB JUMPI PUSH3 0x2BA PUSH3 0x265 JUMP JUMPDEST JUMPDEST PUSH0 PUSH3 0x2CA DUP7 DUP3 DUP8 ADD PUSH3 0x28B JUMP JUMPDEST SWAP4 POP POP PUSH1 0x20 PUSH3 0x2DD DUP7 DUP3 DUP8 ADD PUSH3 0x28B JUMP JUMPDEST SWAP3 POP POP PUSH1 0x40 PUSH3 0x2F0 DUP7 DUP3 DUP8 ADD PUSH3 0x28B JUMP JUMPDEST SWAP2 POP POP SWAP3 POP SWAP3 POP SWAP3 JUMP JUMPDEST PUSH0 DUP3 DUP3 MSTORE PUSH1 0x20 DUP3 ADD SWAP1 POP SWAP3 SWAP2 POP POP JUMP JUMPDEST PUSH32 0x4E756D626572206F6620706172746965732065786365656473206D6178696D75 PUSH0 DUP3 ADD MSTORE PUSH32 0x6D00000000000000000000000000000000000000000000000000000000000000 PUSH1 0x20 DUP3 ADD MSTORE POP JUMP JUMPDEST PUSH0 PUSH3 0x366 PUSH1 0x21 DUP4 PUSH3 0x2FA JUMP JUMPDEST SWAP2 POP PUSH3 0x373 DUP3 PUSH3 0x30A JUMP JUMPDEST PUSH1 0x40 DUP3 ADD SWAP1 POP SWAP2 SWAP1 POP JUMP JUMPDEST PUSH0 PUSH1 0x20 DUP3 ADD SWAP1 POP DUP2 DUP2 SUB PUSH0 DUP4 ADD MSTORE PUSH3 0x397 DUP2 PUSH3 0x358 JUMP JUMPDEST SWAP1 POP SWAP2 SWAP1 POP JUMP JUMPDEST PUSH32 0x5468726573686F6C642065786365656473206D6178696D756D00000000000000 PUSH0 DUP3 ADD MSTORE POP JUMP JUMPDEST PUSH0 PUSH3 0x3D4 PUSH1 0x19 DUP4 PUSH3 0x2FA JUMP JUMPDEST SWAP2 POP PUSH3 0x3E1 DUP3 PUSH3 0x39E JUMP JUMPDEST PUSH1 0x20 DUP3 ADD SWAP1 POP SWAP2 SWAP1 POP JUMP JUMPDEST PUSH0 PUSH1 0x20 DUP3 ADD SWAP1 POP DUP2 DUP2 SUB PUSH0 DUP4 ADD MSTORE PUSH3 0x405 DUP2 PUSH3 0x3C6 JUMP JUMPDEST SWAP1 POP SWAP2 SWAP1 POP JUMP JUMPDEST PUSH32 0x5468726573686F6C64206D757374206265206C657373207468616E206F722065 PUSH0 DUP3 ADD MSTORE PUSH32 0x7175616C20746F20746865206E756D626572206F662070617274696573000000 PUSH1 0x20 DUP3 ADD MSTORE POP JUMP JUMPDEST PUSH0 PUSH3 0x468 PUSH1 0x3D DUP4 PUSH3 0x2FA JUMP JUMPDEST SWAP2 POP PUSH3 0x475 DUP3 PUSH3 0x40C JUMP JUMPDEST PUSH1 0x40 DUP3 ADD SWAP1 POP SWAP2 SWAP1 POP JUMP JUMPDEST PUSH0 PUSH1 0x20 DUP3 ADD SWAP1 POP DUP2 DUP2 SUB PUSH0 DUP4 ADD MSTORE PUSH3 0x499 DUP2 PUSH3 0x45A JUMP JUMPDEST SWAP1 POP SWAP2 SWAP1 POP JUMP JUMPDEST PUSH32 0x4D6F64756C7573206D7573742062652067726561746572207468616E20310000 PUSH0 DUP3 ADD MSTORE POP JUMP JUMPDEST PUSH0 PUSH3 0x4D6 PUSH1 0x1E DUP4 PUSH3 0x2FA JUMP JUMPDEST SWAP2 POP PUSH3 0x4E3 DUP3 PUSH3 0x4A0 JUMP JUMPDEST PUSH1 0x20 DUP3 ADD SWAP1 POP SWAP2 SWAP1 POP JUMP JUMPDEST PUSH0 PUSH1 0x20 DUP3 ADD SWAP1 POP DUP2 DUP2 SUB PUSH0 DUP4 ADD MSTORE PUSH3 0x507 DUP2 PUSH3 0x4C8 JUMP JUMPDEST SWAP1 POP SWAP2 SWAP1 POP JUMP JUMPDEST PUSH0 DUP2 SWAP1 POP SWAP2 SWAP1 POP JUMP JUMPDEST PUSH3 0x52C PUSH3 0x526 DUP3 PUSH3 0x269 JUMP JUMPDEST PUSH3 0x50E JUMP JUMPDEST DUP3 MSTORE POP POP JUMP JUMPDEST PUSH0 PUSH3 0x53F DUP3 DUP6 PUSH3 0x517 JUMP JUMPDEST PUSH1 0x20 DUP3 ADD SWAP2 POP PUSH3 0x551 DUP3 DUP5 PUSH3 0x517 JUMP JUMPDEST PUSH1 0x20 DUP3 ADD SWAP2 POP DUP2 SWAP1 POP SWAP4 SWAP3 POP POP POP JUMP JUMPDEST PUSH32 0x4E487B7100000000000000000000000000000000000000000000000000000000 PUSH0 MSTORE PUSH1 0x32 PUSH1 0x4 MSTORE PUSH1 0x24 PUSH0 REVERT JUMPDEST PUSH32 0x4E487B7100000000000000000000000000000000000000000000000000000000 PUSH0 MSTORE PUSH1 0x11 PUSH1 0x4 MSTORE PUSH1 0x24 PUSH0 REVERT JUMPDEST PUSH0 PUSH3 0x5C7 DUP3 PUSH3 0x269 JUMP JUMPDEST SWAP2 POP PUSH3 0x5D4 DUP4 PUSH3 0x269 JUMP JUMPDEST SWAP3 POP DUP3 DUP3 SUB SWAP1 POP DUP2 DUP2 GT ISZERO PUSH3 0x5EF JUMPI PUSH3 0x5EE PUSH3 0x58E JUMP JUMPDEST JUMPDEST SWAP3 SWAP2 POP POP JUMP JUMPDEST PUSH0 PUSH3 0x601 DUP3 PUSH3 0x269 JUMP JUMPDEST SWAP2 POP PUSH3 0x60E DUP4 PUSH3 0x269 JUMP JUMPDEST SWAP3 POP DUP3 DUP3 ADD SWAP1 POP DUP1 DUP3 GT ISZERO PUSH3 0x629 JUMPI PUSH3 0x628 PUSH3 0x58E JUMP JUMPDEST JUMPDEST SWAP3 SWAP2 POP POP JUMP JUMPDEST PUSH0 PUSH3 0x63C DUP3 DUP5 PUSH3 0x517 JUMP JUMPDEST PUSH1 0x20 DUP3 ADD SWAP2 POP DUP2 SWAP1 POP SWAP3 SWAP2 POP POP JUMP JUMPDEST PUSH32 0x4E487B7100000000000000000000000000000000000000000000000000000000 PUSH0 MSTORE PUSH1 0x12 PUSH1 0x4 MSTORE PUSH1 0x24 PUSH0 REVERT JUMPDEST PUSH0 PUSH3 0x684 DUP3 PUSH3 0x269 JUMP JUMPDEST SWAP2 POP PUSH3 0x691 DUP4 PUSH3 0x269 JUMP JUMPDEST SWAP3 POP DUP3 PUSH3 0x6A4 JUMPI PUSH3 0x6A3 PUSH3 0x64B JUMP JUMPDEST JUMPDEST DUP3 DUP3 MOD SWAP1 POP SWAP3 SWAP2 POP POP JUMP JUMPDEST PUSH2 0xC0A DUP1 PUSH3 0x6BD PUSH0 CODECOPY PUSH0 RETURN INVALID PUSH1 0x80 PUSH1 0x40 MSTORE CALLVALUE DUP1 ISZERO PUSH2 0xF JUMPI PUSH0 DUP1 REVERT JUMPDEST POP PUSH1 0x4 CALLDATASIZE LT PUSH2 0x86 JUMPI PUSH0 CALLDATALOAD PUSH1 0xE0 SHR DUP1 PUSH4 0xB16622C6 GT PUSH2 0x59 JUMPI DUP1 PUSH4 0xB16622C6 EQ PUSH2 0x100 JUMPI DUP1 PUSH4 0xBA3ABE87 EQ PUSH2 0x11E JUMPI DUP1 PUSH4 0xD1EFD30D EQ PUSH2 0x14E JUMPI DUP1 PUSH4 0xF41D7147 EQ PUSH2 0x16C JUMPI PUSH2 0x86 JUMP JUMPDEST DUP1 PUSH4 0x20BA46B EQ PUSH2 0x8A JUMPI DUP1 PUSH4 0x26ECB26C EQ PUSH2 0xBA JUMPI DUP1 PUSH4 0x42CDE4E8 EQ PUSH2 0xC4 JUMPI DUP1 PUSH4 0x9AE8886A EQ PUSH2 0xE2 JUMPI JUMPDEST PUSH0 DUP1 REVERT JUMPDEST PUSH2 0xA4 PUSH1 0x4 DUP1 CALLDATASIZE SUB DUP2 ADD SWAP1 PUSH2 0x9F SWAP2 SWAP1 PUSH2 0x604 JUMP JUMPDEST PUSH2 0x19C JUMP JUMPDEST PUSH1 0x40 MLOAD PUSH2 0xB1 SWAP2 SWAP1 PUSH2 0x63E JUMP JUMPDEST PUSH1 0x40 MLOAD DUP1 SWAP2 SUB SWAP1 RETURN JUMPDEST PUSH2 0xC2 PUSH2 0x1B5 JUMP JUMPDEST STOP JUMPDEST PUSH2 0xCC PUSH2 0x2F9 JUMP JUMPDEST PUSH1 0x40 MLOAD PUSH2 0xD9 SWAP2 SWAP1 PUSH2 0x63E JUMP JUMPDEST PUSH1 0x40 MLOAD DUP1 SWAP2 SUB SWAP1 RETURN JUMPDEST PUSH2 0xEA PUSH2 0x2FF JUMP JUMPDEST PUSH1 0x40 MLOAD PUSH2 0xF7 SWAP2 SWAP1 PUSH2 0x63E JUMP JUMPDEST PUSH1 0x40 MLOAD DUP1 SWAP2 SUB SWAP1 RETURN JUMPDEST PUSH2 0x108 PUSH2 0x304 JUMP JUMPDEST PUSH1 0x40 MLOAD PUSH2 0x115 SWAP2 SWAP1 PUSH2 0x63E JUMP JUMPDEST PUSH1 0x40 MLOAD DUP1 SWAP2 SUB SWAP1 RETURN JUMPDEST PUSH2 0x138 PUSH1 0x4 DUP1 CALLDATASIZE SUB DUP2 ADD SWAP1 PUSH2 0x133 SWAP2 SWAP1 PUSH2 0x604 JUMP JUMPDEST PUSH2 0x30A JUMP JUMPDEST PUSH1 0x40 MLOAD PUSH2 0x145 SWAP2 SWAP1 PUSH2 0x63E JUMP JUMPDEST PUSH1 0x40 MLOAD DUP1 SWAP2 SUB SWAP1 RETURN JUMPDEST PUSH2 0x156 PUSH2 0x323 JUMP JUMPDEST PUSH1 0x40 MLOAD PUSH2 0x163 SWAP2 SWAP1 PUSH2 0x63E JUMP JUMPDEST PUSH1 0x40 MLOAD DUP1 SWAP2 SUB SWAP1 RETURN JUMPDEST PUSH2 0x186 PUSH1 0x4 DUP1 CALLDATASIZE SUB DUP2 ADD SWAP1 PUSH2 0x181 SWAP2 SWAP1 PUSH2 0x795 JUMP JUMPDEST PUSH2 0x329 JUMP JUMPDEST PUSH1 0x40 MLOAD PUSH2 0x193 SWAP2 SWAP1 PUSH2 0x63E JUMP JUMPDEST PUSH1 0x40 MLOAD DUP1 SWAP2 SUB SWAP1 RETURN JUMPDEST PUSH1 0x3 DUP2 PUSH1 0xA DUP2 LT PUSH2 0x1AB JUMPI PUSH0 DUP1 REVERT JUMPDEST ADD PUSH0 SWAP2 POP SWAP1 POP SLOAD DUP2 JUMP JUMPDEST PUSH0 PUSH1 0x1 SWAP1 POP JUMPDEST PUSH1 0x2 SLOAD DUP2 GT PUSH2 0x2F6 JUMPI PUSH0 DUP2 SWAP1 POP PUSH0 PUSH1 0x2 PUSH1 0xD SLOAD PUSH2 0x1D8 SWAP2 SWAP1 PUSH2 0x7ED JUMP JUMPDEST SWAP1 POP JUMPDEST PUSH0 DUP2 LT PUSH2 0x281 JUMPI PUSH0 SLOAD PUSH2 0x23F DUP4 PUSH2 0x231 PUSH1 0xE DUP6 PUSH1 0x6 DUP2 LT PUSH2 0x1FF JUMPI PUSH2 0x1FE PUSH2 0x820 JUMP JUMPDEST JUMPDEST ADD SLOAD PUSH1 0x3 PUSH1 0x1 DUP10 PUSH2 0x210 SWAP2 SWAP1 PUSH2 0x7ED JUMP JUMPDEST PUSH1 0xA DUP2 LT PUSH2 0x221 JUMPI PUSH2 0x220 PUSH2 0x820 JUMP JUMPDEST JUMPDEST ADD SLOAD PUSH2 0x4A6 SWAP1 SWAP2 SWAP1 PUSH4 0xFFFFFFFF AND JUMP JUMPDEST PUSH2 0x4BB SWAP1 SWAP2 SWAP1 PUSH4 0xFFFFFFFF AND JUMP JUMPDEST PUSH2 0x249 SWAP2 SWAP1 PUSH2 0x87A JUMP JUMPDEST PUSH1 0x3 PUSH1 0x1 DUP6 PUSH2 0x258 SWAP2 SWAP1 PUSH2 0x7ED JUMP JUMPDEST PUSH1 0xA DUP2 LT PUSH2 0x269 JUMPI PUSH2 0x268 PUSH2 0x820 JUMP JUMPDEST JUMPDEST ADD DUP2 SWAP1 SSTORE POP DUP1 DUP1 PUSH2 0x279 SWAP1 PUSH2 0x8AA JUMP JUMPDEST SWAP2 POP POP PUSH2 0x1DB JUMP JUMPDEST POP PUSH0 SLOAD PUSH1 0x1 SLOAD PUSH1 0x3 PUSH1 0x1 DUP6 PUSH2 0x296 SWAP2 SWAP1 PUSH2 0x7ED JUMP JUMPDEST PUSH1 0xA DUP2 LT PUSH2 0x2A7 JUMPI PUSH2 0x2A6 PUSH2 0x820 JUMP JUMPDEST JUMPDEST ADD SLOAD PUSH2 0x2B3 SWAP2 SWAP1 PUSH2 0x8D1 JUMP JUMPDEST PUSH2 0x2BD SWAP2 SWAP1 PUSH2 0x87A JUMP JUMPDEST PUSH1 0x3 PUSH1 0x1 DUP5 PUSH2 0x2CC SWAP2 SWAP1 PUSH2 0x7ED JUMP JUMPDEST PUSH1 0xA DUP2 LT PUSH2 0x2DD JUMPI PUSH2 0x2DC PUSH2 0x820 JUMP JUMPDEST JUMPDEST ADD DUP2 SWAP1 SSTORE POP POP DUP1 DUP1 PUSH2 0x2EE SWAP1 PUSH2 0x904 JUMP JUMPDEST SWAP2 POP POP PUSH2 0x1BB JUMP JUMPDEST POP JUMP JUMPDEST PUSH1 0xD SLOAD DUP2 JUMP JUMPDEST PUSH0 SLOAD DUP2 JUMP JUMPDEST PUSH1 0x2 SLOAD DUP2 JUMP JUMPDEST PUSH1 0xE DUP2 PUSH1 0x6 DUP2 LT PUSH2 0x319 JUMPI PUSH0 DUP1 REVERT JUMPDEST ADD PUSH0 SWAP2 POP SWAP1 POP SLOAD DUP2 JUMP JUMPDEST PUSH1 0x1 SLOAD DUP2 JUMP JUMPDEST PUSH0 DUP1 PUSH0 SWAP1 POP PUSH0 JUMPDEST PUSH1 0xD SLOAD DUP2 LT ISZERO PUSH2 0x49C JUMPI PUSH0 PUSH1 0x1 SWAP1 POP PUSH0 DUP6 DUP4 PUSH1 0x7 DUP2 LT PUSH2 0x353 JUMPI PUSH2 0x352 PUSH2 0x820 JUMP JUMPDEST JUMPDEST PUSH1 0x20 MUL ADD MLOAD SWAP1 POP PUSH0 DUP1 SLOAD DUP3 PUSH0 SLOAD PUSH2 0x36A SWAP2 SWAP1 PUSH2 0x7ED JUMP JUMPDEST PUSH2 0x374 SWAP2 SWAP1 PUSH2 0x87A JUMP JUMPDEST SWAP1 POP PUSH0 JUMPDEST PUSH1 0xD SLOAD DUP2 LT ISZERO PUSH2 0x41B JUMPI PUSH0 DUP9 DUP3 PUSH1 0x7 DUP2 LT PUSH2 0x396 JUMPI PUSH2 0x395 PUSH2 0x820 JUMP JUMPDEST JUMPDEST PUSH1 0x20 MUL ADD MLOAD SWAP1 POP DUP2 DUP7 EQ PUSH2 0x40D JUMPI PUSH0 DUP1 SLOAD DUP5 DUP4 PUSH2 0x3B3 SWAP2 SWAP1 PUSH2 0x8D1 JUMP JUMPDEST PUSH2 0x3BD SWAP2 SWAP1 PUSH2 0x87A JUMP JUMPDEST SWAP1 POP PUSH2 0x3CA DUP2 PUSH0 SLOAD PUSH2 0x4D0 JUMP JUMPDEST SWAP1 POP PUSH0 SLOAD PUSH0 SLOAD PUSH2 0x3F5 PUSH2 0x3E6 DUP5 DUP7 PUSH2 0x4BB SWAP1 SWAP2 SWAP1 PUSH4 0xFFFFFFFF AND JUMP JUMPDEST DUP10 PUSH2 0x4BB SWAP1 SWAP2 SWAP1 PUSH4 0xFFFFFFFF AND JUMP JUMPDEST PUSH2 0x3FF SWAP2 SWAP1 PUSH2 0x87A JUMP JUMPDEST PUSH2 0x409 SWAP2 SWAP1 PUSH2 0x87A JUMP JUMPDEST SWAP6 POP POP JUMPDEST POP DUP1 DUP1 PUSH1 0x1 ADD SWAP2 POP POP PUSH2 0x378 JUMP JUMPDEST POP PUSH0 SLOAD PUSH0 SLOAD PUSH2 0x46B DUP6 PUSH1 0x3 PUSH1 0x1 DUP13 DUP11 PUSH1 0x7 DUP2 LT PUSH2 0x43B JUMPI PUSH2 0x43A PUSH2 0x820 JUMP JUMPDEST JUMPDEST PUSH1 0x20 MUL ADD MLOAD PUSH2 0x44A SWAP2 SWAP1 PUSH2 0x7ED JUMP JUMPDEST PUSH1 0xA DUP2 LT PUSH2 0x45B JUMPI PUSH2 0x45A PUSH2 0x820 JUMP JUMPDEST JUMPDEST ADD SLOAD PUSH2 0x4BB SWAP1 SWAP2 SWAP1 PUSH4 0xFFFFFFFF AND JUMP JUMPDEST PUSH2 0x475 SWAP2 SWAP1 PUSH2 0x87A JUMP JUMPDEST DUP7 PUSH2 0x480 SWAP2 SWAP1 PUSH2 0x8D1 JUMP JUMPDEST PUSH2 0x48A SWAP2 SWAP1 PUSH2 0x87A JUMP JUMPDEST SWAP5 POP POP POP POP DUP1 DUP1 PUSH1 0x1 ADD SWAP2 POP POP PUSH2 0x330 JUMP JUMPDEST POP DUP1 SWAP2 POP POP SWAP2 SWAP1 POP JUMP JUMPDEST PUSH0 DUP2 DUP4 PUSH2 0x4B3 SWAP2 SWAP1 PUSH2 0x8D1 JUMP JUMPDEST SWAP1 POP SWAP3 SWAP2 POP POP JUMP JUMPDEST PUSH0 DUP2 DUP4 PUSH2 0x4C8 SWAP2 SWAP1 PUSH2 0x94B JUMP JUMPDEST SWAP1 POP SWAP3 SWAP2 POP POP JUMP JUMPDEST PUSH0 DUP1 PUSH0 DUP1 PUSH0 DUP1 PUSH0 DUP9 SUB PUSH2 0x518 JUMPI PUSH1 0x40 MLOAD PUSH32 0x8C379A000000000000000000000000000000000000000000000000000000000 DUP2 MSTORE PUSH1 0x4 ADD PUSH2 0x50F SWAP1 PUSH2 0x9E6 JUMP JUMPDEST PUSH1 0x40 MLOAD DUP1 SWAP2 SUB SWAP1 REVERT JUMPDEST PUSH0 DUP9 SLT ISZERO PUSH2 0x52F JUMPI DUP7 DUP9 PUSH2 0x52C SWAP2 SWAP1 PUSH2 0xA0D JUMP JUMPDEST SWAP8 POP JUMPDEST DUP7 SWAP2 POP DUP8 SWAP1 POP JUMPDEST PUSH0 DUP2 SGT ISZERO PUSH2 0x573 JUMPI DUP1 DUP3 PUSH2 0x54A SWAP2 SWAP1 PUSH2 0xA4E JUMP JUMPDEST SWAP4 POP DUP1 DUP5 PUSH2 0x558 SWAP2 SWAP1 PUSH2 0xAB6 JUMP JUMPDEST DUP3 PUSH2 0x563 SWAP2 SWAP1 PUSH2 0xB2C JUMP JUMPDEST SWAP3 POP DUP2 SWAP5 POP DUP1 SWAP2 POP DUP3 SWAP1 POP PUSH2 0x536 JUMP JUMPDEST PUSH1 0x1 DUP3 EQ PUSH2 0x5B6 JUMPI PUSH1 0x40 MLOAD PUSH32 0x8C379A000000000000000000000000000000000000000000000000000000000 DUP2 MSTORE PUSH1 0x4 ADD PUSH2 0x5AD SWAP1 PUSH2 0xBB6 JUMP JUMPDEST PUSH1 0x40 MLOAD DUP1 SWAP2 SUB SWAP1 REVERT JUMPDEST DUP5 SWAP6 POP POP POP POP POP POP SWAP3 SWAP2 POP POP JUMP JUMPDEST PUSH0 PUSH1 0x40 MLOAD SWAP1 POP SWAP1 JUMP JUMPDEST PUSH0 DUP1 REVERT JUMPDEST PUSH0 DUP2 SWAP1 POP SWAP2 SWAP1 POP JUMP JUMPDEST PUSH2 0x5E3 DUP2 PUSH2 0x5D1 JUMP JUMPDEST DUP2 EQ PUSH2 0x5ED JUMPI PUSH0 DUP1 REVERT JUMPDEST POP JUMP JUMPDEST PUSH0 DUP2 CALLDATALOAD SWAP1 POP PUSH2 0x5FE DUP2 PUSH2 0x5DA JUMP JUMPDEST SWAP3 SWAP2 POP POP JUMP JUMPDEST PUSH0 PUSH1 0x20 DUP3 DUP5 SUB SLT ISZERO PUSH2 0x619 JUMPI PUSH2 0x618 PUSH2 0x5CD JUMP JUMPDEST JUMPDEST PUSH0 PUSH2 0x626 DUP5 DUP3 DUP6 ADD PUSH2 0x5F0 JUMP JUMPDEST SWAP2 POP POP SWAP3 SWAP2 POP POP JUMP JUMPDEST PUSH2 0x638 DUP2 PUSH2 0x5D1 JUMP JUMPDEST DUP3 MSTORE POP POP JUMP JUMPDEST PUSH0 PUSH1 0x20 DUP3 ADD SWAP1 POP PUSH2 0x651 PUSH0 DUP4 ADD DUP5 PUSH2 0x62F JUMP JUMPDEST SWAP3 SWAP2 POP POP JUMP JUMPDEST PUSH0 DUP1 REVERT JUMPDEST PUSH0 PUSH1 0x1F NOT PUSH1 0x1F DUP4 ADD AND SWAP1 POP SWAP2 SWAP1 POP JUMP JUMPDEST PUSH32 0x4E487B7100000000000000000000000000000000000000000000000000000000 PUSH0 MSTORE PUSH1 0x41 PUSH1 0x4 MSTORE PUSH1 0x24 PUSH0 REVERT JUMPDEST PUSH2 0x6A1 DUP3 PUSH2 0x65B JUMP JUMPDEST DUP2 ADD DUP2 DUP2 LT PUSH8 0xFFFFFFFFFFFFFFFF DUP3 GT OR ISZERO PUSH2 0x6C0 JUMPI PUSH2 0x6BF PUSH2 0x66B JUMP JUMPDEST JUMPDEST DUP1 PUSH1 0x40 MSTORE POP POP POP JUMP JUMPDEST PUSH0 PUSH2 0x6D2 PUSH2 0x5C4 JUMP JUMPDEST SWAP1 POP PUSH2 0x6DE DUP3 DUP3 PUSH2 0x698 JUMP JUMPDEST SWAP2 SWAP1 POP JUMP JUMPDEST PUSH0 PUSH8 0xFFFFFFFFFFFFFFFF DUP3 GT ISZERO PUSH2 0x6FD JUMPI PUSH2 0x6FC PUSH2 0x66B JUMP JUMPDEST JUMPDEST PUSH1 0x20 DUP3 MUL SWAP1 POP SWAP2 SWAP1 POP JUMP JUMPDEST PUSH0 DUP1 REVERT JUMPDEST PUSH0 PUSH2 0x71E PUSH2 0x719 DUP5 PUSH2 0x6E3 JUMP JUMPDEST PUSH2 0x6C9 JUMP JUMPDEST SWAP1 POP DUP1 PUSH1 0x20 DUP5 MUL DUP4 ADD DUP6 DUP2 GT ISZERO PUSH2 0x738 JUMPI PUSH2 0x737 PUSH2 0x708 JUMP JUMPDEST JUMPDEST DUP4 JUMPDEST DUP2 DUP2 LT ISZERO PUSH2 0x761 JUMPI DUP1 PUSH2 0x74D DUP9 DUP3 PUSH2 0x5F0 JUMP JUMPDEST DUP5 MSTORE PUSH1 0x20 DUP5 ADD SWAP4 POP POP PUSH1 0x20 DUP2 ADD SWAP1 POP PUSH2 0x73A JUMP JUMPDEST POP POP POP SWAP4 SWAP3 POP POP POP JUMP JUMPDEST PUSH0 DUP3 PUSH1 0x1F DUP4 ADD SLT PUSH2 0x77F JUMPI PUSH2 0x77E PUSH2 0x657 JUMP JUMPDEST JUMPDEST PUSH1 0x7 PUSH2 0x78C DUP5 DUP3 DUP6 PUSH2 0x70C JUMP JUMPDEST SWAP2 POP POP SWAP3 SWAP2 POP POP JUMP JUMPDEST PUSH0 PUSH1 0xE0 DUP3 DUP5 SUB SLT ISZERO PUSH2 0x7AA JUMPI PUSH2 0x7A9 PUSH2 0x5CD JUMP JUMPDEST JUMPDEST PUSH0 PUSH2 0x7B7 DUP5 DUP3 DUP6 ADD PUSH2 0x76B JUMP JUMPDEST SWAP2 POP POP SWAP3 SWAP2 POP POP JUMP JUMPDEST PUSH32 0x4E487B7100000000000000000000000000000000000000000000000000000000 PUSH0 MSTORE PUSH1 0x11 PUSH1 0x4 MSTORE PUSH1 0x24 PUSH0 REVERT JUMPDEST PUSH0 PUSH2 0x7F7 DUP3 PUSH2 0x5D1 JUMP JUMPDEST SWAP2 POP PUSH2 0x802 DUP4 PUSH2 0x5D1 JUMP JUMPDEST SWAP3 POP DUP3 DUP3 SUB SWAP1 POP DUP2 DUP2 GT ISZERO PUSH2 0x81A JUMPI PUSH2 0x819 PUSH2 0x7C0 JUMP JUMPDEST JUMPDEST SWAP3 SWAP2 POP POP JUMP JUMPDEST PUSH32 0x4E487B7100000000000000000000000000000000000000000000000000000000 PUSH0 MSTORE PUSH1 0x32 PUSH1 0x4 MSTORE PUSH1 0x24 PUSH0 REVERT JUMPDEST PUSH32 0x4E487B7100000000000000000000000000000000000000000000000000000000 PUSH0 MSTORE PUSH1 0x12 PUSH1 0x4 MSTORE PUSH1 0x24 PUSH0 REVERT JUMPDEST PUSH0 PUSH2 0x884 DUP3 PUSH2 0x5D1 JUMP JUMPDEST SWAP2 POP PUSH2 0x88F DUP4 PUSH2 0x5D1 JUMP JUMPDEST SWAP3 POP DUP3 PUSH2 0x89F JUMPI PUSH2 0x89E PUSH2 0x84D JUMP JUMPDEST JUMPDEST DUP3 DUP3 MOD SWAP1 POP SWAP3 SWAP2 POP POP JUMP JUMPDEST PUSH0 PUSH2 0x8B4 DUP3 PUSH2 0x5D1 JUMP JUMPDEST SWAP2 POP PUSH0 DUP3 SUB PUSH2 0x8C6 JUMPI PUSH2 0x8C5 PUSH2 0x7C0 JUMP JUMPDEST JUMPDEST PUSH1 0x1 DUP3 SUB SWAP1 POP SWAP2 SWAP1 POP JUMP JUMPDEST PUSH0 PUSH2 0x8DB DUP3 PUSH2 0x5D1 JUMP JUMPDEST SWAP2 POP PUSH2 0x8E6 DUP4 PUSH2 0x5D1 JUMP JUMPDEST SWAP3 POP DUP3 DUP3 ADD SWAP1 POP DUP1 DUP3 GT ISZERO PUSH2 0x8FE JUMPI PUSH2 0x8FD PUSH2 0x7C0 JUMP JUMPDEST JUMPDEST SWAP3 SWAP2 POP POP JUMP JUMPDEST PUSH0 PUSH2 0x90E DUP3 PUSH2 0x5D1 JUMP JUMPDEST SWAP2 POP PUSH32 0xFFFFFFFFFFFFFFFFFFFFFFFFFFFFFFFFFFFFFFFFFFFFFFFFFFFFFFFFFFFFFFFF DUP3 SUB PUSH2 0x940 JUMPI PUSH2 0x93F PUSH2 0x7C0 JUMP JUMPDEST JUMPDEST PUSH1 0x1 DUP3 ADD SWAP1 POP SWAP2 SWAP1 POP JUMP JUMPDEST PUSH0 PUSH2 0x955 DUP3 PUSH2 0x5D1 JUMP JUMPDEST SWAP2 POP PUSH2 0x960 DUP4 PUSH2 0x5D1 JUMP JUMPDEST SWAP3 POP DUP3 DUP3 MUL PUSH2 0x96E DUP2 PUSH2 0x5D1 JUMP JUMPDEST SWAP2 POP DUP3 DUP3 DIV DUP5 EQ DUP4 ISZERO OR PUSH2 0x985 JUMPI PUSH2 0x984 PUSH2 0x7C0 JUMP JUMPDEST JUMPDEST POP SWAP3 SWAP2 POP POP JUMP JUMPDEST PUSH0 DUP3 DUP3 MSTORE PUSH1 0x20 DUP3 ADD SWAP1 POP SWAP3 SWAP2 POP POP JUMP JUMPDEST PUSH32 0x6D6F64496E76657273653A207A65726F2064697669736F720000000000000000 PUSH0 DUP3 ADD MSTORE POP JUMP JUMPDEST PUSH0 PUSH2 0x9D0 PUSH1 0x18 DUP4 PUSH2 0x98C JUMP JUMPDEST SWAP2 POP PUSH2 0x9DB DUP3 PUSH2 0x99C JUMP JUMPDEST PUSH1 0x20 DUP3 ADD SWAP1 POP SWAP2 SWAP1 POP JUMP JUMPDEST PUSH0 PUSH1 0x20 DUP3 ADD SWAP1 POP DUP2 DUP2 SUB PUSH0 DUP4 ADD MSTORE PUSH2 0x9FD DUP2 PUSH2 0x9C4 JUMP JUMPDEST SWAP1 POP SWAP2 SWAP1 POP JUMP JUMPDEST PUSH0 DUP2 SWAP1 POP SWAP2 SWAP1 POP JUMP JUMPDEST PUSH0 PUSH2 0xA17 DUP3 PUSH2 0xA04 JUMP JUMPDEST SWAP2 POP PUSH2 0xA22 DUP4 PUSH2 0xA04 JUMP JUMPDEST SWAP3 POP DUP3 DUP3 ADD SWAP1 POP DUP3 DUP2 SLT ISZERO PUSH0 DUP4 SLT AND DUP4 DUP3 SLT PUSH0 DUP5 SLT ISZERO AND OR ISZERO PUSH2 0xA48 JUMPI PUSH2 0xA47 PUSH2 0x7C0 JUMP JUMPDEST JUMPDEST SWAP3 SWAP2 POP POP JUMP JUMPDEST PUSH0 PUSH2 0xA58 DUP3 PUSH2 0xA04 JUMP JUMPDEST SWAP2 POP PUSH2 0xA63 DUP4 PUSH2 0xA04 JUMP JUMPDEST SWAP3 POP DUP3 PUSH2 0xA73 JUMPI PUSH2 0xA72 PUSH2 0x84D JUMP JUMPDEST JUMPDEST PUSH1 0x1 PUSH0 SUB DUP4 EQ PUSH32 0x8000000000000000000000000000000000000000000000000000000000000000 DUP4 EQ AND ISZERO PUSH2 0xAAB JUMPI PUSH2 0xAAA PUSH2 0x7C0 JUMP JUMPDEST JUMPDEST DUP3 DUP3 SDIV SWAP1 POP SWAP3 SWAP2 POP POP JUMP JUMPDEST PUSH0 PUSH2 0xAC0 DUP3 PUSH2 0xA04 JUMP JUMPDEST SWAP2 POP PUSH2 0xACB DUP4 PUSH2 0xA04 JUMP JUMPDEST SWAP3 POP DUP3 DUP3 MUL PUSH2 0xAD9 DUP2 PUSH2 0xA04 JUMP JUMPDEST SWAP2 POP PUSH32 0x8000000000000000000000000000000000000000000000000000000000000000 DUP5 EQ PUSH0 DUP5 SLT AND ISZERO PUSH2 0xB10 JUMPI PUSH2 0xB0F PUSH2 0x7C0 JUMP JUMPDEST JUMPDEST DUP3 DUP3 SDIV DUP5 EQ DUP4 ISZERO OR PUSH2 0xB25 JUMPI PUSH2 0xB24 PUSH2 0x7C0 JUMP JUMPDEST JUMPDEST POP SWAP3 SWAP2 POP POP JUMP JUMPDEST PUSH0 PUSH2 0xB36 DUP3 PUSH2 0xA04 JUMP JUMPDEST SWAP2 POP PUSH2 0xB41 DUP4 PUSH2 0xA04 JUMP JUMPDEST SWAP3 POP DUP3 DUP3 SUB SWAP1 POP DUP2 DUP2 SLT PUSH0 DUP5 SLT AND DUP3 DUP3 SGT PUSH0 DUP6 SLT ISZERO AND OR ISZERO PUSH2 0xB66 JUMPI PUSH2 0xB65 PUSH2 0x7C0 JUMP JUMPDEST JUMPDEST SWAP3 SWAP2 POP POP JUMP JUMPDEST PUSH32 0x6D6F64496E76657273653A206E6F7420696E7665727469626C65000000000000 PUSH0 DUP3 ADD MSTORE POP JUMP JUMPDEST PUSH0 PUSH2 0xBA0 PUSH1 0x1A DUP4 PUSH2 0x98C JUMP JUMPDEST SWAP2 POP PUSH2 0xBAB DUP3 PUSH2 0xB6C JUMP JUMPDEST PUSH1 0x20 DUP3 ADD SWAP1 POP SWAP2 SWAP1 POP JUMP JUMPDEST PUSH0 PUSH1 0x20 DUP3 ADD SWAP1 POP DUP2 DUP2 SUB PUSH0 DUP4 ADD MSTORE PUSH2 0xBCD DUP2 PUSH2 0xB94 JUMP JUMPDEST SWAP1 POP SWAP2 SWAP1 POP JUMP INVALID LOG2 PUSH5 0x6970667358 0x22 SLT KECCAK256 0xE4 0x28 0xDE 0xE1 DELEGATECALL LOG4 0xB9 0xDF 0xB8 0x4C STATICCALL 0xE LT EXTCODECOPY SAR BALANCE 0xE3 0xB3 0x2A CALL 0xEF DUP4 0xA5 KECCAK256 BYTE 0xC PUSH31 0x3BD98C106864736F6C63430008180033000000000000000000000000000000 "
				},
				"gasEstimates": {
					"creation": {
						"codeDepositCost": "616400",
						"executionCost": "infinite",
						"totalCost": "infinite"
					},
					"external": {
						"coefficients(uint256)": "infinite",
						"constructShare()": "infinite",
						"numberOfParties()": "2425",
						"p()": "2491",
						"partyShares(uint256)": "infinite",
						"reConstruction(uint256[7])": "infinite",
						"secret()": "2469",
						"threshold()": "2470"
					},
					"internal": {
						"modInverse(uint256,uint256)": "infinite"
					}
				},
				"methodIdentifiers": {
					"coefficients(uint256)": "ba3abe87",
					"constructShare()": "26ecb26c",
					"numberOfParties()": "b16622c6",
					"p()": "9ae8886a",
					"partyShares(uint256)": "020ba46b",
					"reConstruction(uint256[7])": "f41d7147",
					"secret()": "d1efd30d",
					"threshold()": "42cde4e8"
				}
			},
			"storageLayout": {
				"storage": [
					{
						"astId": 325,
						"contract": "contracts/HelloWorld1.sol:ShareDistribution",
						"label": "p",
						"offset": 0,
						"slot": "0",
						"type": "t_uint256"
					},
					{
						"astId": 327,
						"contract": "contracts/HelloWorld1.sol:ShareDistribution",
						"label": "secret",
						"offset": 0,
						"slot": "1",
						"type": "t_uint256"
					},
					{
						"astId": 329,
						"contract": "contracts/HelloWorld1.sol:ShareDistribution",
						"label": "numberOfParties",
						"offset": 0,
						"slot": "2",
						"type": "t_uint256"
					},
					{
						"astId": 333,
						"contract": "contracts/HelloWorld1.sol:ShareDistribution",
						"label": "partyShares",
						"offset": 0,
						"slot": "3",
						"type": "t_array(t_uint256)10_storage"
					},
					{
						"astId": 335,
						"contract": "contracts/HelloWorld1.sol:ShareDistribution",
						"label": "threshold",
						"offset": 0,
						"slot": "13",
						"type": "t_uint256"
					},
					{
						"astId": 341,
						"contract": "contracts/HelloWorld1.sol:ShareDistribution",
						"label": "coefficients",
						"offset": 0,
						"slot": "14",
						"type": "t_array(t_uint256)6_storage"
					}
				],
				"types": {
					"t_array(t_uint256)10_storage": {
						"base": "t_uint256",
						"encoding": "inplace",
						"label": "uint256[10]",
						"numberOfBytes": "320"
					},
					"t_array(t_uint256)6_storage": {
						"base": "t_uint256",
						"encoding": "inplace",
						"label": "uint256[6]",
						"numberOfBytes": "192"
					},
					"t_uint256": {
						"encoding": "inplace",
						"label": "uint256",
						"numberOfBytes": "32"
					}
				}
			},
			"userdoc": {
				"kind": "user",
				"methods": {},
				"version": 1
			}
		}
	}
}