{
	"data": {
		"bytecode": {
			"linkReferences": {},
			"object": "608060405234801561000f575f80fd5b5060405161001c90610079565b604051809103905ff080158015610035573d5f803e3d5ffd5b505f806101000a81548173ffffffffffffffffffffffffffffffffffffffff021916908373ffffffffffffffffffffffffffffffffffffffff160217905550610086565b61149f8061097083390190565b6108dd806100935f395ff3fe608060405234801561000f575f80fd5b5060043610610034575f3560e01c80632fd54b7314610038578063bc9a189914610068575b5f80fd5b610052600480360381019061004d9190610225565b610098565b60405161005f91906103e7565b60405180910390f35b610082600480360381019061007d9190610635565b610141565b60405161008f919061068b565b60405180910390f35b60605f8054906101000a900473ffffffffffffffffffffffffffffffffffffffff1673ffffffffffffffffffffffffffffffffffffffff1663072c0aee8585856040518463ffffffff1660e01b81526004016100f6939291906106a4565b5f60405180830381865afa158015610110573d5f803e3d5ffd5b505050506040513d5f823e3d601f19601f820116820180604052508101906101389190610835565b90509392505050565b5f805f9054906101000a900473ffffffffffffffffffffffffffffffffffffffff1673ffffffffffffffffffffffffffffffffffffffff16638d45eb2e836040518263ffffffff1660e01b815260040161019b91906103e7565b602060405180830381865afa1580156101b6573d5f803e3d5ffd5b505050506040513d601f19601f820116820180604052508101906101da919061087c565b9050919050565b5f604051905090565b5f80fd5b5f80fd5b5f819050919050565b610204816101f2565b811461020e575f80fd5b50565b5f8135905061021f816101fb565b92915050565b5f805f6060848603121561023c5761023b6101ea565b5b5f61024986828701610211565b935050602061025a86828701610211565b925050604061026b86828701610211565b9150509250925092565b5f81519050919050565b5f82825260208201905092915050565b5f819050602082019050919050565b5f81519050919050565b5f82825260208201905092915050565b5f819050602082019050919050565b6102d0816101f2565b82525050565b5f6102e183836102c7565b60208301905092915050565b5f602082019050919050565b5f6103038261029e565b61030d81856102a8565b9350610318836102b8565b805f5b8381101561034857815161032f88826102d6565b975061033a836102ed565b92505060018101905061031b565b5085935050505092915050565b5f61036083836102f9565b905092915050565b5f602082019050919050565b5f61037e82610275565b610388818561027f565b93508360208202850161039a8561028f565b805f5b858110156103d557848403895281516103b68582610355565b94506103c183610368565b925060208a0199505060018101905061039d565b50829750879550505050505092915050565b5f6020820190508181035f8301526103ff8184610374565b905092915050565b5f80fd5b5f601f19601f8301169050919050565b7f4e487b71000000000000000000000000000000000000000000000000000000005f52604160045260245ffd5b6104518261040b565b810181811067ffffffffffffffff821117156104705761046f61041b565b5b80604052505050565b5f6104826101e1565b905061048e8282610448565b919050565b5f67ffffffffffffffff8211156104ad576104ac61041b565b5b602082029050602081019050919050565b5f80fd5b5f67ffffffffffffffff8211156104dc576104db61041b565b5b602082029050602081019050919050565b5f6104ff6104fa846104c2565b610479565b90508083825260208201905060208402830185811115610522576105216104be565b5b835b8181101561054b57806105378882610211565b845260208401935050602081019050610524565b5050509392505050565b5f82601f83011261056957610568610407565b5b81356105798482602086016104ed565b91505092915050565b5f61059461058f84610493565b610479565b905080838252602082019050602084028301858111156105b7576105b66104be565b5b835b818110156105fe57803567ffffffffffffffff8111156105dc576105db610407565b5b8086016105e98982610555565b855260208501945050506020810190506105b9565b5050509392505050565b5f82601f83011261061c5761061b610407565b5b813561062c848260208601610582565b91505092915050565b5f6020828403121561064a576106496101ea565b5b5f82013567ffffffffffffffff811115610667576106666101ee565b5b61067384828501610608565b91505092915050565b610685816101f2565b82525050565b5f60208201905061069e5f83018461067c565b92915050565b5f6060820190506106b75f83018661067c565b6106c4602083018561067c565b6106d1604083018461067c565b949350505050565b5f815190506106e7816101fb565b92915050565b5f6106ff6106fa846104c2565b610479565b90508083825260208201905060208402830185811115610722576107216104be565b5b835b8181101561074b578061073788826106d9565b845260208401935050602081019050610724565b5050509392505050565b5f82601f83011261076957610768610407565b5b81516107798482602086016106ed565b91505092915050565b5f61079461078f84610493565b610479565b905080838252602082019050602084028301858111156107b7576107b66104be565b5b835b818110156107fe57805167ffffffffffffffff8111156107dc576107db610407565b5b8086016107e98982610755565b855260208501945050506020810190506107b9565b5050509392505050565b5f82601f83011261081c5761081b610407565b5b815161082c848260208601610782565b91505092915050565b5f6020828403121561084a576108496101ea565b5b5f82015167ffffffffffffffff811115610867576108666101ee565b5b61087384828501610808565b91505092915050565b5f60208284031215610891576108906101ea565b5b5f61089e848285016106d9565b9150509291505056fea2646970667358221220d4e0877d5ddfc9dd978e7c5be1032c0fd4e7637ba37569752af70937167c75f064736f6c63430008180033608060405234801561000f575f80fd5b506114828061001d5f395ff3fe608060405234801561000f575f80fd5b5060043610610034575f3560e01c8063072c0aee146100385780638d45eb2e14610068575b5f80fd5b610052600480360381019061004d9190610b59565b610098565b60405161005f9190610d1b565b60405180910390f35b610082600480360381019061007d9190610f69565b6102ea565b60405161008f9190610fbf565b60405180910390f35b6060818311156100dd576040517f08c379a00000000000000000000000000000000000000000000000000000000081526004016100d490611058565b60405180910390fd5b5f8367ffffffffffffffff8111156100f8576100f7610d4f565b5b6040519080825280602002602001820160405280156101265781602001602082028036833780820191505090505b50905084815f8151811061013d5761013c611076565b5b6020026020010181815250505f600190505b848110156101d55760016f7fffffffffffffffffffffffffffffff61017491906110d0565b4282604051602001610187929190611123565b604051602081830303815290604052805190602001205f1c6101a9919061117b565b8282815181106101bc576101bb611076565b5b602002602001018181525050808060010191505061014f565b505f8367ffffffffffffffff8111156101f1576101f0610d4f565b5b60405190808252806020026020018201604052801561022457816020015b606081526020019060019003908161020f5790505b5090505f600190505b8481116102dd57808260018361024391906110d0565b8151811061025457610253611076565b5b60200260200101515f8151811061026e5761026d611076565b5b60200260200101818152505061028483826104a0565b8260018361029291906110d0565b815181106102a3576102a2611076565b5b60200260200101516001815181106102be576102bd611076565b5b60200260200101818152505080806102d5906111ab565b91505061022d565b5080925050509392505050565b5f600382511015610330576040517f08c379a00000000000000000000000000000000000000000000000000000000081526004016103279061123c565b60405180910390fd5b5f825167ffffffffffffffff81111561034c5761034b610d4f565b5b60405190808252806020026020018201604052801561037a5781602001602082028036833780820191505090505b5090505f835167ffffffffffffffff81111561039957610398610d4f565b5b6040519080825280602002602001820160405280156103c75781602001602082028036833780820191505090505b5090505f5b845181101561048b578481815181106103e8576103e7611076565b5b60200260200101515f8151811061040257610401611076565b5b602002602001015183828151811061041d5761041c611076565b5b60200260200101818152505084818151811061043c5761043b611076565b5b602002602001015160018151811061045757610456611076565b5b602002602001015182828151811061047257610471611076565b5b60200260200101818152505080806001019150506103cc565b506104975f838361052e565b92505050919050565b5f805f90505f845190505b5f81111561052357846001826104c191906110d0565b815181106104d2576104d1611076565b5b602002602001015184836104e6919061125a565b6104f0919061129b565b91506f7fffffffffffffffffffffffffffffff8261050e919061117b565b9150808061051b906112ce565b9150506104ab565b508091505092915050565b5f8151835114610573576040517f08c379a000000000000000000000000000000000000000000000000000000000815260040161056a9061133f565b60405180910390fd5b5f835190505f805f8367ffffffffffffffff81111561059557610594610d4f565b5b6040519080825280602002602001820160405280156105c35781602001602082028036833780820191505090505b5090505f8467ffffffffffffffff8111156105e1576105e0610d4f565b5b60405190808252806020026020018201604052801561060f5781602001602082028036833780820191505090505b5090505f5b8581101561089d575f60018761062a91906110d0565b67ffffffffffffffff81111561064357610642610d4f565b5b6040519080825280602002602001820160405280156106715781602001602082028036833780820191505090505b5090505f8a838151811061068857610687611076565b5b602002602001015190505f805b898110156106f8578481146106eb578c81815181106106b7576106b6611076565b5b60200260200101518483806106cb906111ab565b9450815181106106de576106dd611076565b5b6020026020010181815250505b8080600101915050610695565b50600186858151811061070e5761070d611076565b5b6020026020010181815250505f5b60018a61072991906110d0565b8110156107c2576f7fffffffffffffffffffffffffffffff84828151811061075457610753611076565b5b60200260200101518f61076791906110d0565b88878151811061077a57610779611076565b5b602002602001015161078c919061125a565b610796919061117b565b8786815181106107a9576107a8611076565b5b602002602001018181525050808060010191505061071c565b5060018585815181106107d8576107d7611076565b5b6020026020010181815250505f5b60018a6107f391906110d0565b81101561088c576f7fffffffffffffffffffffffffffffff84828151811061081e5761081d611076565b5b60200260200101518461083191906110d0565b87878151811061084457610843611076565b5b6020026020010151610856919061125a565b610860919061117b565b86868151811061087357610872611076565b5b60200260200101818152505080806001019150506107e6565b505050508080600101915050610614565b505f5b85811015610a1c576f7fffffffffffffffffffffffffffffff6109776f7fffffffffffffffffffffffffffffff8a84815181106108e0576108df611076565b5b60200260200101516f7fffffffffffffffffffffffffffffff86868151811061090c5761090b611076565b5b602002602001015188878151811061092757610926611076565b5b6020026020010151610939919061125a565b610943919061117b565b61094d919061125a565b610957919061117b565b84848151811061096a57610969611076565b5b6020026020010151610a35565b86610982919061129b565b61098c919061117b565b94506f7fffffffffffffffffffffffffffffff6109dd8483815181106109b5576109b4611076565b5b60200260200101518484815181106109d0576109cf611076565b5b6020026020010151610a35565b6f7fffffffffffffffffffffffffffffff866109f9919061129b565b610a0391906110d0565b610a0d919061117b565b935080806001019150506108a0565b50610a278484610a35565b955050505050509392505050565b5f80610a51836f7fffffffffffffffffffffffffffffff610a84565b5090506f7fffffffffffffffffffffffffffffff8185610a71919061125a565b610a7b919061117b565b91505092915050565b5f805f80600190505f600190505f5b5f8714610b04575f8789610aa7919061135d565b905087888a610ab6919061117b565b809950819a5050508481610aca9190611396565b84610ad5919061140c565b8580955081965050508281610aea9190611396565b82610af5919061140c565b83809350819450505050610a93565b828195509550505050509250929050565b5f604051905090565b5f80fd5b5f80fd5b5f819050919050565b610b3881610b26565b8114610b42575f80fd5b50565b5f81359050610b5381610b2f565b92915050565b5f805f60608486031215610b7057610b6f610b1e565b5b5f610b7d86828701610b45565b9350506020610b8e86828701610b45565b9250506040610b9f86828701610b45565b9150509250925092565b5f81519050919050565b5f82825260208201905092915050565b5f819050602082019050919050565b5f81519050919050565b5f82825260208201905092915050565b5f819050602082019050919050565b610c0481610b26565b82525050565b5f610c158383610bfb565b60208301905092915050565b5f602082019050919050565b5f610c3782610bd2565b610c418185610bdc565b9350610c4c83610bec565b805f5b83811015610c7c578151610c638882610c0a565b9750610c6e83610c21565b925050600181019050610c4f565b5085935050505092915050565b5f610c948383610c2d565b905092915050565b5f602082019050919050565b5f610cb282610ba9565b610cbc8185610bb3565b935083602082028501610cce85610bc3565b805f5b85811015610d095784840389528151610cea8582610c89565b9450610cf583610c9c565b925060208a01995050600181019050610cd1565b50829750879550505050505092915050565b5f6020820190508181035f830152610d338184610ca8565b905092915050565b5f80fd5b5f601f19601f8301169050919050565b7f4e487b71000000000000000000000000000000000000000000000000000000005f52604160045260245ffd5b610d8582610d3f565b810181811067ffffffffffffffff82111715610da457610da3610d4f565b5b80604052505050565b5f610db6610b15565b9050610dc28282610d7c565b919050565b5f67ffffffffffffffff821115610de157610de0610d4f565b5b602082029050602081019050919050565b5f80fd5b5f67ffffffffffffffff821115610e1057610e0f610d4f565b5b602082029050602081019050919050565b5f610e33610e2e84610df6565b610dad565b90508083825260208201905060208402830185811115610e5657610e55610df2565b5b835b81811015610e7f5780610e6b8882610b45565b845260208401935050602081019050610e58565b5050509392505050565b5f82601f830112610e9d57610e9c610d3b565b5b8135610ead848260208601610e21565b91505092915050565b5f610ec8610ec384610dc7565b610dad565b90508083825260208201905060208402830185811115610eeb57610eea610df2565b5b835b81811015610f3257803567ffffffffffffffff811115610f1057610f0f610d3b565b5b808601610f1d8982610e89565b85526020850194505050602081019050610eed565b5050509392505050565b5f82601f830112610f5057610f4f610d3b565b5b8135610f60848260208601610eb6565b91505092915050565b5f60208284031215610f7e57610f7d610b1e565b5b5f82013567ffffffffffffffff811115610f9b57610f9a610b22565b5b610fa784828501610f3c565b91505092915050565b610fb981610b26565b82525050565b5f602082019050610fd25f830184610fb0565b92915050565b5f82825260208201905092915050565b7f4d696e696d756d2073686f756c64206265206c657373207468616e206f7220655f8201527f7175616c20746f20736861726573000000000000000000000000000000000000602082015250565b5f611042602e83610fd8565b915061104d82610fe8565b604082019050919050565b5f6020820190508181035f83015261106f81611036565b9050919050565b7f4e487b71000000000000000000000000000000000000000000000000000000005f52603260045260245ffd5b7f4e487b71000000000000000000000000000000000000000000000000000000005f52601160045260245ffd5b5f6110da82610b26565b91506110e583610b26565b92508282039050818111156110fd576110fc6110a3565b5b92915050565b5f819050919050565b61111d61111882610b26565b611103565b82525050565b5f61112e828561110c565b60208201915061113e828461110c565b6020820191508190509392505050565b7f4e487b71000000000000000000000000000000000000000000000000000000005f52601260045260245ffd5b5f61118582610b26565b915061119083610b26565b9250826111a05761119f61114e565b5b828206905092915050565b5f6111b582610b26565b91507fffffffffffffffffffffffffffffffffffffffffffffffffffffffffffffffff82036111e7576111e66110a3565b5b600182019050919050565b7f4e656564206174206c65617374207468726565207368617265730000000000005f82015250565b5f611226601a83610fd8565b9150611231826111f2565b602082019050919050565b5f6020820190508181035f8301526112538161121a565b9050919050565b5f61126482610b26565b915061126f83610b26565b925082820261127d81610b26565b91508282048414831517611294576112936110a3565b5b5092915050565b5f6112a582610b26565b91506112b083610b26565b92508282019050808211156112c8576112c76110a3565b5b92915050565b5f6112d882610b26565b91505f82036112ea576112e96110a3565b5b600182039050919050565b7f4172726179732073686f756c64206861766520657175616c206c656e677468005f82015250565b5f611329601f83610fd8565b9150611334826112f5565b602082019050919050565b5f6020820190508181035f8301526113568161131d565b9050919050565b5f61136782610b26565b915061137283610b26565b9250826113825761138161114e565b5b828204905092915050565b5f819050919050565b5f6113a08261138d565b91506113ab8361138d565b92508282026113b98161138d565b91507f800000000000000000000000000000000000000000000000000000000000000084145f841216156113f0576113ef6110a3565b5b8282058414831517611405576114046110a3565b5b5092915050565b5f6114168261138d565b91506114218361138d565b925082820390508181125f8412168282135f851215161715611446576114456110a3565b5b9291505056fea26469706673582212201e4f2cc0911c4b4042e8275f1a6f7a0c99877840f7e758a0940d20397333855164736f6c63430008180033",
			"opcodes": "PUSH1 0x80 PUSH1 0x40 MSTORE CALLVALUE DUP1 ISZERO PUSH2 0xF JUMPI PUSH0 DUP1 REVERT JUMPDEST POP PUSH1 0x40 MLOAD PUSH2 0x1C SWAP1 PUSH2 0x79 JUMP JUMPDEST PUSH1 0x40 MLOAD DUP1 SWAP2 SUB SWAP1 PUSH0 CREATE DUP1 ISZERO DUP1 ISZERO PUSH2 0x35 JUMPI RETURNDATASIZE PUSH0 DUP1 RETURNDATACOPY RETURNDATASIZE PUSH0 REVERT JUMPDEST POP PUSH0 DUP1 PUSH2 0x100 EXP DUP2 SLOAD DUP2 PUSH20 0xFFFFFFFFFFFFFFFFFFFFFFFFFFFFFFFFFFFFFFFF MUL NOT AND SWAP1 DUP4 PUSH20 0xFFFFFFFFFFFFFFFFFFFFFFFFFFFFFFFFFFFFFFFF AND MUL OR SWAP1 SSTORE POP PUSH2 0x86 JUMP JUMPDEST PUSH2 0x149F DUP1 PUSH2 0x970 DUP4 CODECOPY ADD SWAP1 JUMP JUMPDEST PUSH2 0x8DD DUP1 PUSH2 0x93 PUSH0 CODECOPY PUSH0 RETURN INVALID PUSH1 0x80 PUSH1 0x40 MSTORE CALLVALUE DUP1 ISZERO PUSH2 0xF JUMPI PUSH0 DUP1 REVERT JUMPDEST POP PUSH1 0x4 CALLDATASIZE LT PUSH2 0x34 JUMPI PUSH0 CALLDATALOAD PUSH1 0xE0 SHR DUP1 PUSH4 0x2FD54B73 EQ PUSH2 0x38 JUMPI DUP1 PUSH4 0xBC9A1899 EQ PUSH2 0x68 JUMPI JUMPDEST PUSH0 DUP1 REVERT JUMPDEST PUSH2 0x52 PUSH1 0x4 DUP1 CALLDATASIZE SUB DUP2 ADD SWAP1 PUSH2 0x4D SWAP2 SWAP1 PUSH2 0x225 JUMP JUMPDEST PUSH2 0x98 JUMP JUMPDEST PUSH1 0x40 MLOAD PUSH2 0x5F SWAP2 SWAP1 PUSH2 0x3E7 JUMP JUMPDEST PUSH1 0x40 MLOAD DUP1 SWAP2 SUB SWAP1 RETURN JUMPDEST PUSH2 0x82 PUSH1 0x4 DUP1 CALLDATASIZE SUB DUP2 ADD SWAP1 PUSH2 0x7D SWAP2 SWAP1 PUSH2 0x635 JUMP JUMPDEST PUSH2 0x141 JUMP JUMPDEST PUSH1 0x40 MLOAD PUSH2 0x8F SWAP2 SWAP1 PUSH2 0x68B JUMP JUMPDEST PUSH1 0x40 MLOAD DUP1 SWAP2 SUB SWAP1 RETURN JUMPDEST PUSH1 0x60 PUSH0 DUP1 SLOAD SWAP1 PUSH2 0x100 EXP SWAP1 DIV PUSH20 0xFFFFFFFFFFFFFFFFFFFFFFFFFFFFFFFFFFFFFFFF AND PUSH20 0xFFFFFFFFFFFFFFFFFFFFFFFFFFFFFFFFFFFFFFFF AND PUSH4 0x72C0AEE DUP6 DUP6 DUP6 PUSH1 0x40 MLOAD DUP5 PUSH4 0xFFFFFFFF AND PUSH1 0xE0 SHL DUP2 MSTORE PUSH1 0x4 ADD PUSH2 0xF6 SWAP4 SWAP3 SWAP2 SWAP1 PUSH2 0x6A4 JUMP JUMPDEST PUSH0 PUSH1 0x40 MLOAD DUP1 DUP4 SUB DUP2 DUP7 GAS STATICCALL ISZERO DUP1 ISZERO PUSH2 0x110 JUMPI RETURNDATASIZE PUSH0 DUP1 RETURNDATACOPY RETURNDATASIZE PUSH0 REVERT JUMPDEST POP POP POP POP PUSH1 0x40 MLOAD RETURNDATASIZE PUSH0 DUP3 RETURNDATACOPY RETURNDATASIZE PUSH1 0x1F NOT PUSH1 0x1F DUP3 ADD AND DUP3 ADD DUP1 PUSH1 0x40 MSTORE POP DUP2 ADD SWAP1 PUSH2 0x138 SWAP2 SWAP1 PUSH2 0x835 JUMP JUMPDEST SWAP1 POP SWAP4 SWAP3 POP POP POP JUMP JUMPDEST PUSH0 DUP1 PUSH0 SWAP1 SLOAD SWAP1 PUSH2 0x100 EXP SWAP1 DIV PUSH20 0xFFFFFFFFFFFFFFFFFFFFFFFFFFFFFFFFFFFFFFFF AND PUSH20 0xFFFFFFFFFFFFFFFFFFFFFFFFFFFFFFFFFFFFFFFF AND PUSH4 0x8D45EB2E DUP4 PUSH1 0x40 MLOAD DUP3 PUSH4 0xFFFFFFFF AND PUSH1 0xE0 SHL DUP2 MSTORE PUSH1 0x4 ADD PUSH2 0x19B SWAP2 SWAP1 PUSH2 0x3E7 JUMP JUMPDEST PUSH1 0x20 PUSH1 0x40 MLOAD DUP1 DUP4 SUB DUP2 DUP7 GAS STATICCALL ISZERO DUP1 ISZERO PUSH2 0x1B6 JUMPI RETURNDATASIZE PUSH0 DUP1 RETURNDATACOPY RETURNDATASIZE PUSH0 REVERT JUMPDEST POP POP POP POP PUSH1 0x40 MLOAD RETURNDATASIZE PUSH1 0x1F NOT PUSH1 0x1F DUP3 ADD AND DUP3 ADD DUP1 PUSH1 0x40 MSTORE POP DUP2 ADD SWAP1 PUSH2 0x1DA SWAP2 SWAP1 PUSH2 0x87C JUMP JUMPDEST SWAP1 POP SWAP2 SWAP1 POP JUMP JUMPDEST PUSH0 PUSH1 0x40 MLOAD SWAP1 POP SWAP1 JUMP JUMPDEST PUSH0 DUP1 REVERT JUMPDEST PUSH0 DUP1 REVERT JUMPDEST PUSH0 DUP2 SWAP1 POP SWAP2 SWAP1 POP JUMP JUMPDEST PUSH2 0x204 DUP2 PUSH2 0x1F2 JUMP JUMPDEST DUP2 EQ PUSH2 0x20E JUMPI PUSH0 DUP1 REVERT JUMPDEST POP JUMP JUMPDEST PUSH0 DUP2 CALLDATALOAD SWAP1 POP PUSH2 0x21F DUP2 PUSH2 0x1FB JUMP JUMPDEST SWAP3 SWAP2 POP POP JUMP JUMPDEST PUSH0 DUP1 PUSH0 PUSH1 0x60 DUP5 DUP7 SUB SLT ISZERO PUSH2 0x23C JUMPI PUSH2 0x23B PUSH2 0x1EA JUMP JUMPDEST JUMPDEST PUSH0 PUSH2 0x249 DUP7 DUP3 DUP8 ADD PUSH2 0x211 JUMP JUMPDEST SWAP4 POP POP PUSH1 0x20 PUSH2 0x25A DUP7 DUP3 DUP8 ADD PUSH2 0x211 JUMP JUMPDEST SWAP3 POP POP PUSH1 0x40 PUSH2 0x26B DUP7 DUP3 DUP8 ADD PUSH2 0x211 JUMP JUMPDEST SWAP2 POP POP SWAP3 POP SWAP3 POP SWAP3 JUMP JUMPDEST PUSH0 DUP2 MLOAD SWAP1 POP SWAP2 SWAP1 POP JUMP JUMPDEST PUSH0 DUP3 DUP3 MSTORE PUSH1 0x20 DUP3 ADD SWAP1 POP SWAP3 SWAP2 POP POP JUMP JUMPDEST PUSH0 DUP2 SWAP1 POP PUSH1 0x20 DUP3 ADD SWAP1 POP SWAP2 SWAP1 POP JUMP JUMPDEST PUSH0 DUP2 MLOAD SWAP1 POP SWAP2 SWAP1 POP JUMP JUMPDEST PUSH0 DUP3 DUP3 MSTORE PUSH1 0x20 DUP3 ADD SWAP1 POP SWAP3 SWAP2 POP POP JUMP JUMPDEST PUSH0 DUP2 SWAP1 POP PUSH1 0x20 DUP3 ADD SWAP1 POP SWAP2 SWAP1 POP JUMP JUMPDEST PUSH2 0x2D0 DUP2 PUSH2 0x1F2 JUMP JUMPDEST DUP3 MSTORE POP POP JUMP JUMPDEST PUSH0 PUSH2 0x2E1 DUP4 DUP4 PUSH2 0x2C7 JUMP JUMPDEST PUSH1 0x20 DUP4 ADD SWAP1 POP SWAP3 SWAP2 POP POP JUMP JUMPDEST PUSH0 PUSH1 0x20 DUP3 ADD SWAP1 POP SWAP2 SWAP1 POP JUMP JUMPDEST PUSH0 PUSH2 0x303 DUP3 PUSH2 0x29E JUMP JUMPDEST PUSH2 0x30D DUP2 DUP6 PUSH2 0x2A8 JUMP JUMPDEST SWAP4 POP PUSH2 0x318 DUP4 PUSH2 0x2B8 JUMP JUMPDEST DUP1 PUSH0 JUMPDEST DUP4 DUP2 LT ISZERO PUSH2 0x348 JUMPI DUP2 MLOAD PUSH2 0x32F DUP9 DUP3 PUSH2 0x2D6 JUMP JUMPDEST SWAP8 POP PUSH2 0x33A DUP4 PUSH2 0x2ED JUMP JUMPDEST SWAP3 POP POP PUSH1 0x1 DUP2 ADD SWAP1 POP PUSH2 0x31B JUMP JUMPDEST POP DUP6 SWAP4 POP POP POP POP SWAP3 SWAP2 POP POP JUMP JUMPDEST PUSH0 PUSH2 0x360 DUP4 DUP4 PUSH2 0x2F9 JUMP JUMPDEST SWAP1 POP SWAP3 SWAP2 POP POP JUMP JUMPDEST PUSH0 PUSH1 0x20 DUP3 ADD SWAP1 POP SWAP2 SWAP1 POP JUMP JUMPDEST PUSH0 PUSH2 0x37E DUP3 PUSH2 0x275 JUMP JUMPDEST PUSH2 0x388 DUP2 DUP6 PUSH2 0x27F JUMP JUMPDEST SWAP4 POP DUP4 PUSH1 0x20 DUP3 MUL DUP6 ADD PUSH2 0x39A DUP6 PUSH2 0x28F JUMP JUMPDEST DUP1 PUSH0 JUMPDEST DUP6 DUP2 LT ISZERO PUSH2 0x3D5 JUMPI DUP5 DUP5 SUB DUP10 MSTORE DUP2 MLOAD PUSH2 0x3B6 DUP6 DUP3 PUSH2 0x355 JUMP JUMPDEST SWAP5 POP PUSH2 0x3C1 DUP4 PUSH2 0x368 JUMP JUMPDEST SWAP3 POP PUSH1 0x20 DUP11 ADD SWAP10 POP POP PUSH1 0x1 DUP2 ADD SWAP1 POP PUSH2 0x39D JUMP JUMPDEST POP DUP3 SWAP8 POP DUP8 SWAP6 POP POP POP POP POP POP SWAP3 SWAP2 POP POP JUMP JUMPDEST PUSH0 PUSH1 0x20 DUP3 ADD SWAP1 POP DUP2 DUP2 SUB PUSH0 DUP4 ADD MSTORE PUSH2 0x3FF DUP2 DUP5 PUSH2 0x374 JUMP JUMPDEST SWAP1 POP SWAP3 SWAP2 POP POP JUMP JUMPDEST PUSH0 DUP1 REVERT JUMPDEST PUSH0 PUSH1 0x1F NOT PUSH1 0x1F DUP4 ADD AND SWAP1 POP SWAP2 SWAP1 POP JUMP JUMPDEST PUSH32 0x4E487B7100000000000000000000000000000000000000000000000000000000 PUSH0 MSTORE PUSH1 0x41 PUSH1 0x4 MSTORE PUSH1 0x24 PUSH0 REVERT JUMPDEST PUSH2 0x451 DUP3 PUSH2 0x40B JUMP JUMPDEST DUP2 ADD DUP2 DUP2 LT PUSH8 0xFFFFFFFFFFFFFFFF DUP3 GT OR ISZERO PUSH2 0x470 JUMPI PUSH2 0x46F PUSH2 0x41B JUMP JUMPDEST JUMPDEST DUP1 PUSH1 0x40 MSTORE POP POP POP JUMP JUMPDEST PUSH0 PUSH2 0x482 PUSH2 0x1E1 JUMP JUMPDEST SWAP1 POP PUSH2 0x48E DUP3 DUP3 PUSH2 0x448 JUMP JUMPDEST SWAP2 SWAP1 POP JUMP JUMPDEST PUSH0 PUSH8 0xFFFFFFFFFFFFFFFF DUP3 GT ISZERO PUSH2 0x4AD JUMPI PUSH2 0x4AC PUSH2 0x41B JUMP JUMPDEST JUMPDEST PUSH1 0x20 DUP3 MUL SWAP1 POP PUSH1 0x20 DUP2 ADD SWAP1 POP SWAP2 SWAP1 POP JUMP JUMPDEST PUSH0 DUP1 REVERT JUMPDEST PUSH0 PUSH8 0xFFFFFFFFFFFFFFFF DUP3 GT ISZERO PUSH2 0x4DC JUMPI PUSH2 0x4DB PUSH2 0x41B JUMP JUMPDEST JUMPDEST PUSH1 0x20 DUP3 MUL SWAP1 POP PUSH1 0x20 DUP2 ADD SWAP1 POP SWAP2 SWAP1 POP JUMP JUMPDEST PUSH0 PUSH2 0x4FF PUSH2 0x4FA DUP5 PUSH2 0x4C2 JUMP JUMPDEST PUSH2 0x479 JUMP JUMPDEST SWAP1 POP DUP1 DUP4 DUP3 MSTORE PUSH1 0x20 DUP3 ADD SWAP1 POP PUSH1 0x20 DUP5 MUL DUP4 ADD DUP6 DUP2 GT ISZERO PUSH2 0x522 JUMPI PUSH2 0x521 PUSH2 0x4BE JUMP JUMPDEST JUMPDEST DUP4 JUMPDEST DUP2 DUP2 LT ISZERO PUSH2 0x54B JUMPI DUP1 PUSH2 0x537 DUP9 DUP3 PUSH2 0x211 JUMP JUMPDEST DUP5 MSTORE PUSH1 0x20 DUP5 ADD SWAP4 POP POP PUSH1 0x20 DUP2 ADD SWAP1 POP PUSH2 0x524 JUMP JUMPDEST POP POP POP SWAP4 SWAP3 POP POP POP JUMP JUMPDEST PUSH0 DUP3 PUSH1 0x1F DUP4 ADD SLT PUSH2 0x569 JUMPI PUSH2 0x568 PUSH2 0x407 JUMP JUMPDEST JUMPDEST DUP2 CALLDATALOAD PUSH2 0x579 DUP5 DUP3 PUSH1 0x20 DUP7 ADD PUSH2 0x4ED JUMP JUMPDEST SWAP2 POP POP SWAP3 SWAP2 POP POP JUMP JUMPDEST PUSH0 PUSH2 0x594 PUSH2 0x58F DUP5 PUSH2 0x493 JUMP JUMPDEST PUSH2 0x479 JUMP JUMPDEST SWAP1 POP DUP1 DUP4 DUP3 MSTORE PUSH1 0x20 DUP3 ADD SWAP1 POP PUSH1 0x20 DUP5 MUL DUP4 ADD DUP6 DUP2 GT ISZERO PUSH2 0x5B7 JUMPI PUSH2 0x5B6 PUSH2 0x4BE JUMP JUMPDEST JUMPDEST DUP4 JUMPDEST DUP2 DUP2 LT ISZERO PUSH2 0x5FE JUMPI DUP1 CALLDATALOAD PUSH8 0xFFFFFFFFFFFFFFFF DUP2 GT ISZERO PUSH2 0x5DC JUMPI PUSH2 0x5DB PUSH2 0x407 JUMP JUMPDEST JUMPDEST DUP1 DUP7 ADD PUSH2 0x5E9 DUP10 DUP3 PUSH2 0x555 JUMP JUMPDEST DUP6 MSTORE PUSH1 0x20 DUP6 ADD SWAP5 POP POP POP PUSH1 0x20 DUP2 ADD SWAP1 POP PUSH2 0x5B9 JUMP JUMPDEST POP POP POP SWAP4 SWAP3 POP POP POP JUMP JUMPDEST PUSH0 DUP3 PUSH1 0x1F DUP4 ADD SLT PUSH2 0x61C JUMPI PUSH2 0x61B PUSH2 0x407 JUMP JUMPDEST JUMPDEST DUP2 CALLDATALOAD PUSH2 0x62C DUP5 DUP3 PUSH1 0x20 DUP7 ADD PUSH2 0x582 JUMP JUMPDEST SWAP2 POP POP SWAP3 SWAP2 POP POP JUMP JUMPDEST PUSH0 PUSH1 0x20 DUP3 DUP5 SUB SLT ISZERO PUSH2 0x64A JUMPI PUSH2 0x649 PUSH2 0x1EA JUMP JUMPDEST JUMPDEST PUSH0 DUP3 ADD CALLDATALOAD PUSH8 0xFFFFFFFFFFFFFFFF DUP2 GT ISZERO PUSH2 0x667 JUMPI PUSH2 0x666 PUSH2 0x1EE JUMP JUMPDEST JUMPDEST PUSH2 0x673 DUP5 DUP3 DUP6 ADD PUSH2 0x608 JUMP JUMPDEST SWAP2 POP POP SWAP3 SWAP2 POP POP JUMP JUMPDEST PUSH2 0x685 DUP2 PUSH2 0x1F2 JUMP JUMPDEST DUP3 MSTORE POP POP JUMP JUMPDEST PUSH0 PUSH1 0x20 DUP3 ADD SWAP1 POP PUSH2 0x69E PUSH0 DUP4 ADD DUP5 PUSH2 0x67C JUMP JUMPDEST SWAP3 SWAP2 POP POP JUMP JUMPDEST PUSH0 PUSH1 0x60 DUP3 ADD SWAP1 POP PUSH2 0x6B7 PUSH0 DUP4 ADD DUP7 PUSH2 0x67C JUMP JUMPDEST PUSH2 0x6C4 PUSH1 0x20 DUP4 ADD DUP6 PUSH2 0x67C JUMP JUMPDEST PUSH2 0x6D1 PUSH1 0x40 DUP4 ADD DUP5 PUSH2 0x67C JUMP JUMPDEST SWAP5 SWAP4 POP POP POP POP JUMP JUMPDEST PUSH0 DUP2 MLOAD SWAP1 POP PUSH2 0x6E7 DUP2 PUSH2 0x1FB JUMP JUMPDEST SWAP3 SWAP2 POP POP JUMP JUMPDEST PUSH0 PUSH2 0x6FF PUSH2 0x6FA DUP5 PUSH2 0x4C2 JUMP JUMPDEST PUSH2 0x479 JUMP JUMPDEST SWAP1 POP DUP1 DUP4 DUP3 MSTORE PUSH1 0x20 DUP3 ADD SWAP1 POP PUSH1 0x20 DUP5 MUL DUP4 ADD DUP6 DUP2 GT ISZERO PUSH2 0x722 JUMPI PUSH2 0x721 PUSH2 0x4BE JUMP JUMPDEST JUMPDEST DUP4 JUMPDEST DUP2 DUP2 LT ISZERO PUSH2 0x74B JUMPI DUP1 PUSH2 0x737 DUP9 DUP3 PUSH2 0x6D9 JUMP JUMPDEST DUP5 MSTORE PUSH1 0x20 DUP5 ADD SWAP4 POP POP PUSH1 0x20 DUP2 ADD SWAP1 POP PUSH2 0x724 JUMP JUMPDEST POP POP POP SWAP4 SWAP3 POP POP POP JUMP JUMPDEST PUSH0 DUP3 PUSH1 0x1F DUP4 ADD SLT PUSH2 0x769 JUMPI PUSH2 0x768 PUSH2 0x407 JUMP JUMPDEST JUMPDEST DUP2 MLOAD PUSH2 0x779 DUP5 DUP3 PUSH1 0x20 DUP7 ADD PUSH2 0x6ED JUMP JUMPDEST SWAP2 POP POP SWAP3 SWAP2 POP POP JUMP JUMPDEST PUSH0 PUSH2 0x794 PUSH2 0x78F DUP5 PUSH2 0x493 JUMP JUMPDEST PUSH2 0x479 JUMP JUMPDEST SWAP1 POP DUP1 DUP4 DUP3 MSTORE PUSH1 0x20 DUP3 ADD SWAP1 POP PUSH1 0x20 DUP5 MUL DUP4 ADD DUP6 DUP2 GT ISZERO PUSH2 0x7B7 JUMPI PUSH2 0x7B6 PUSH2 0x4BE JUMP JUMPDEST JUMPDEST DUP4 JUMPDEST DUP2 DUP2 LT ISZERO PUSH2 0x7FE JUMPI DUP1 MLOAD PUSH8 0xFFFFFFFFFFFFFFFF DUP2 GT ISZERO PUSH2 0x7DC JUMPI PUSH2 0x7DB PUSH2 0x407 JUMP JUMPDEST JUMPDEST DUP1 DUP7 ADD PUSH2 0x7E9 DUP10 DUP3 PUSH2 0x755 JUMP JUMPDEST DUP6 MSTORE PUSH1 0x20 DUP6 ADD SWAP5 POP POP POP PUSH1 0x20 DUP2 ADD SWAP1 POP PUSH2 0x7B9 JUMP JUMPDEST POP POP POP SWAP4 SWAP3 POP POP POP JUMP JUMPDEST PUSH0 DUP3 PUSH1 0x1F DUP4 ADD SLT PUSH2 0x81C JUMPI PUSH2 0x81B PUSH2 0x407 JUMP JUMPDEST JUMPDEST DUP2 MLOAD PUSH2 0x82C DUP5 DUP3 PUSH1 0x20 DUP7 ADD PUSH2 0x782 JUMP JUMPDEST SWAP2 POP POP SWAP3 SWAP2 POP POP JUMP JUMPDEST PUSH0 PUSH1 0x20 DUP3 DUP5 SUB SLT ISZERO PUSH2 0x84A JUMPI PUSH2 0x849 PUSH2 0x1EA JUMP JUMPDEST JUMPDEST PUSH0 DUP3 ADD MLOAD PUSH8 0xFFFFFFFFFFFFFFFF DUP2 GT ISZERO PUSH2 0x867 JUMPI PUSH2 0x866 PUSH2 0x1EE JUMP JUMPDEST JUMPDEST PUSH2 0x873 DUP5 DUP3 DUP6 ADD PUSH2 0x808 JUMP JUMPDEST SWAP2 POP POP SWAP3 SWAP2 POP POP JUMP JUMPDEST PUSH0 PUSH1 0x20 DUP3 DUP5 SUB SLT ISZERO PUSH2 0x891 JUMPI PUSH2 0x890 PUSH2 0x1EA JUMP JUMPDEST JUMPDEST PUSH0 PUSH2 0x89E DUP5 DUP3 DUP6 ADD PUSH2 0x6D9 JUMP JUMPDEST SWAP2 POP POP SWAP3 SWAP2 POP POP JUMP INVALID LOG2 PUSH5 0x6970667358 0x22 SLT KECCAK256 0xD4 0xE0 DUP8 PUSH30 0x5DDFC9DD978E7C5BE1032C0FD4E7637BA37569752AF70937167C75F06473 PUSH16 0x6C634300081800336080604052348015 PUSH2 0xF JUMPI PUSH0 DUP1 REVERT JUMPDEST POP PUSH2 0x1482 DUP1 PUSH2 0x1D PUSH0 CODECOPY PUSH0 RETURN INVALID PUSH1 0x80 PUSH1 0x40 MSTORE CALLVALUE DUP1 ISZERO PUSH2 0xF JUMPI PUSH0 DUP1 REVERT JUMPDEST POP PUSH1 0x4 CALLDATASIZE LT PUSH2 0x34 JUMPI PUSH0 CALLDATALOAD PUSH1 0xE0 SHR DUP1 PUSH4 0x72C0AEE EQ PUSH2 0x38 JUMPI DUP1 PUSH4 0x8D45EB2E EQ PUSH2 0x68 JUMPI JUMPDEST PUSH0 DUP1 REVERT JUMPDEST PUSH2 0x52 PUSH1 0x4 DUP1 CALLDATASIZE SUB DUP2 ADD SWAP1 PUSH2 0x4D SWAP2 SWAP1 PUSH2 0xB59 JUMP JUMPDEST PUSH2 0x98 JUMP JUMPDEST PUSH1 0x40 MLOAD PUSH2 0x5F SWAP2 SWAP1 PUSH2 0xD1B JUMP JUMPDEST PUSH1 0x40 MLOAD DUP1 SWAP2 SUB SWAP1 RETURN JUMPDEST PUSH2 0x82 PUSH1 0x4 DUP1 CALLDATASIZE SUB DUP2 ADD SWAP1 PUSH2 0x7D SWAP2 SWAP1 PUSH2 0xF69 JUMP JUMPDEST PUSH2 0x2EA JUMP JUMPDEST PUSH1 0x40 MLOAD PUSH2 0x8F SWAP2 SWAP1 PUSH2 0xFBF JUMP JUMPDEST PUSH1 0x40 MLOAD DUP1 SWAP2 SUB SWAP1 RETURN JUMPDEST PUSH1 0x60 DUP2 DUP4 GT ISZERO PUSH2 0xDD JUMPI PUSH1 0x40 MLOAD PUSH32 0x8C379A000000000000000000000000000000000000000000000000000000000 DUP2 MSTORE PUSH1 0x4 ADD PUSH2 0xD4 SWAP1 PUSH2 0x1058 JUMP JUMPDEST PUSH1 0x40 MLOAD DUP1 SWAP2 SUB SWAP1 REVERT JUMPDEST PUSH0 DUP4 PUSH8 0xFFFFFFFFFFFFFFFF DUP2 GT ISZERO PUSH2 0xF8 JUMPI PUSH2 0xF7 PUSH2 0xD4F JUMP JUMPDEST JUMPDEST PUSH1 0x40 MLOAD SWAP1 DUP1 DUP3 MSTORE DUP1 PUSH1 0x20 MUL PUSH1 0x20 ADD DUP3 ADD PUSH1 0x40 MSTORE DUP1 ISZERO PUSH2 0x126 JUMPI DUP2 PUSH1 0x20 ADD PUSH1 0x20 DUP3 MUL DUP1 CALLDATASIZE DUP4 CALLDATACOPY DUP1 DUP3 ADD SWAP2 POP POP SWAP1 POP JUMPDEST POP SWAP1 POP DUP5 DUP2 PUSH0 DUP2 MLOAD DUP2 LT PUSH2 0x13D JUMPI PUSH2 0x13C PUSH2 0x1076 JUMP JUMPDEST JUMPDEST PUSH1 0x20 MUL PUSH1 0x20 ADD ADD DUP2 DUP2 MSTORE POP POP PUSH0 PUSH1 0x1 SWAP1 POP JUMPDEST DUP5 DUP2 LT ISZERO PUSH2 0x1D5 JUMPI PUSH1 0x1 PUSH16 0x7FFFFFFFFFFFFFFFFFFFFFFFFFFFFFFF PUSH2 0x174 SWAP2 SWAP1 PUSH2 0x10D0 JUMP JUMPDEST TIMESTAMP DUP3 PUSH1 0x40 MLOAD PUSH1 0x20 ADD PUSH2 0x187 SWAP3 SWAP2 SWAP1 PUSH2 0x1123 JUMP JUMPDEST PUSH1 0x40 MLOAD PUSH1 0x20 DUP2 DUP4 SUB SUB DUP2 MSTORE SWAP1 PUSH1 0x40 MSTORE DUP1 MLOAD SWAP1 PUSH1 0x20 ADD KECCAK256 PUSH0 SHR PUSH2 0x1A9 SWAP2 SWAP1 PUSH2 0x117B JUMP JUMPDEST DUP3 DUP3 DUP2 MLOAD DUP2 LT PUSH2 0x1BC JUMPI PUSH2 0x1BB PUSH2 0x1076 JUMP JUMPDEST JUMPDEST PUSH1 0x20 MUL PUSH1 0x20 ADD ADD DUP2 DUP2 MSTORE POP POP DUP1 DUP1 PUSH1 0x1 ADD SWAP2 POP POP PUSH2 0x14F JUMP JUMPDEST POP PUSH0 DUP4 PUSH8 0xFFFFFFFFFFFFFFFF DUP2 GT ISZERO PUSH2 0x1F1 JUMPI PUSH2 0x1F0 PUSH2 0xD4F JUMP JUMPDEST JUMPDEST PUSH1 0x40 MLOAD SWAP1 DUP1 DUP3 MSTORE DUP1 PUSH1 0x20 MUL PUSH1 0x20 ADD DUP3 ADD PUSH1 0x40 MSTORE DUP1 ISZERO PUSH2 0x224 JUMPI DUP2 PUSH1 0x20 ADD JUMPDEST PUSH1 0x60 DUP2 MSTORE PUSH1 0x20 ADD SWAP1 PUSH1 0x1 SWAP1 SUB SWAP1 DUP2 PUSH2 0x20F JUMPI SWAP1 POP JUMPDEST POP SWAP1 POP PUSH0 PUSH1 0x1 SWAP1 POP JUMPDEST DUP5 DUP2 GT PUSH2 0x2DD JUMPI DUP1 DUP3 PUSH1 0x1 DUP4 PUSH2 0x243 SWAP2 SWAP1 PUSH2 0x10D0 JUMP JUMPDEST DUP2 MLOAD DUP2 LT PUSH2 0x254 JUMPI PUSH2 0x253 PUSH2 0x1076 JUMP JUMPDEST JUMPDEST PUSH1 0x20 MUL PUSH1 0x20 ADD ADD MLOAD PUSH0 DUP2 MLOAD DUP2 LT PUSH2 0x26E JUMPI PUSH2 0x26D PUSH2 0x1076 JUMP JUMPDEST JUMPDEST PUSH1 0x20 MUL PUSH1 0x20 ADD ADD DUP2 DUP2 MSTORE POP POP PUSH2 0x284 DUP4 DUP3 PUSH2 0x4A0 JUMP JUMPDEST DUP3 PUSH1 0x1 DUP4 PUSH2 0x292 SWAP2 SWAP1 PUSH2 0x10D0 JUMP JUMPDEST DUP2 MLOAD DUP2 LT PUSH2 0x2A3 JUMPI PUSH2 0x2A2 PUSH2 0x1076 JUMP JUMPDEST JUMPDEST PUSH1 0x20 MUL PUSH1 0x20 ADD ADD MLOAD PUSH1 0x1 DUP2 MLOAD DUP2 LT PUSH2 0x2BE JUMPI PUSH2 0x2BD PUSH2 0x1076 JUMP JUMPDEST JUMPDEST PUSH1 0x20 MUL PUSH1 0x20 ADD ADD DUP2 DUP2 MSTORE POP POP DUP1 DUP1 PUSH2 0x2D5 SWAP1 PUSH2 0x11AB JUMP JUMPDEST SWAP2 POP POP PUSH2 0x22D JUMP JUMPDEST POP DUP1 SWAP3 POP POP POP SWAP4 SWAP3 POP POP POP JUMP JUMPDEST PUSH0 PUSH1 0x3 DUP3 MLOAD LT ISZERO PUSH2 0x330 JUMPI PUSH1 0x40 MLOAD PUSH32 0x8C379A000000000000000000000000000000000000000000000000000000000 DUP2 MSTORE PUSH1 0x4 ADD PUSH2 0x327 SWAP1 PUSH2 0x123C JUMP JUMPDEST PUSH1 0x40 MLOAD DUP1 SWAP2 SUB SWAP1 REVERT JUMPDEST PUSH0 DUP3 MLOAD PUSH8 0xFFFFFFFFFFFFFFFF DUP2 GT ISZERO PUSH2 0x34C JUMPI PUSH2 0x34B PUSH2 0xD4F JUMP JUMPDEST JUMPDEST PUSH1 0x40 MLOAD SWAP1 DUP1 DUP3 MSTORE DUP1 PUSH1 0x20 MUL PUSH1 0x20 ADD DUP3 ADD PUSH1 0x40 MSTORE DUP1 ISZERO PUSH2 0x37A JUMPI DUP2 PUSH1 0x20 ADD PUSH1 0x20 DUP3 MUL DUP1 CALLDATASIZE DUP4 CALLDATACOPY DUP1 DUP3 ADD SWAP2 POP POP SWAP1 POP JUMPDEST POP SWAP1 POP PUSH0 DUP4 MLOAD PUSH8 0xFFFFFFFFFFFFFFFF DUP2 GT ISZERO PUSH2 0x399 JUMPI PUSH2 0x398 PUSH2 0xD4F JUMP JUMPDEST JUMPDEST PUSH1 0x40 MLOAD SWAP1 DUP1 DUP3 MSTORE DUP1 PUSH1 0x20 MUL PUSH1 0x20 ADD DUP3 ADD PUSH1 0x40 MSTORE DUP1 ISZERO PUSH2 0x3C7 JUMPI DUP2 PUSH1 0x20 ADD PUSH1 0x20 DUP3 MUL DUP1 CALLDATASIZE DUP4 CALLDATACOPY DUP1 DUP3 ADD SWAP2 POP POP SWAP1 POP JUMPDEST POP SWAP1 POP PUSH0 JUMPDEST DUP5 MLOAD DUP2 LT ISZERO PUSH2 0x48B JUMPI DUP5 DUP2 DUP2 MLOAD DUP2 LT PUSH2 0x3E8 JUMPI PUSH2 0x3E7 PUSH2 0x1076 JUMP JUMPDEST JUMPDEST PUSH1 0x20 MUL PUSH1 0x20 ADD ADD MLOAD PUSH0 DUP2 MLOAD DUP2 LT PUSH2 0x402 JUMPI PUSH2 0x401 PUSH2 0x1076 JUMP JUMPDEST JUMPDEST PUSH1 0x20 MUL PUSH1 0x20 ADD ADD MLOAD DUP4 DUP3 DUP2 MLOAD DUP2 LT PUSH2 0x41D JUMPI PUSH2 0x41C PUSH2 0x1076 JUMP JUMPDEST JUMPDEST PUSH1 0x20 MUL PUSH1 0x20 ADD ADD DUP2 DUP2 MSTORE POP POP DUP5 DUP2 DUP2 MLOAD DUP2 LT PUSH2 0x43C JUMPI PUSH2 0x43B PUSH2 0x1076 JUMP JUMPDEST JUMPDEST PUSH1 0x20 MUL PUSH1 0x20 ADD ADD MLOAD PUSH1 0x1 DUP2 MLOAD DUP2 LT PUSH2 0x457 JUMPI PUSH2 0x456 PUSH2 0x1076 JUMP JUMPDEST JUMPDEST PUSH1 0x20 MUL PUSH1 0x20 ADD ADD MLOAD DUP3 DUP3 DUP2 MLOAD DUP2 LT PUSH2 0x472 JUMPI PUSH2 0x471 PUSH2 0x1076 JUMP JUMPDEST JUMPDEST PUSH1 0x20 MUL PUSH1 0x20 ADD ADD DUP2 DUP2 MSTORE POP POP DUP1 DUP1 PUSH1 0x1 ADD SWAP2 POP POP PUSH2 0x3CC JUMP JUMPDEST POP PUSH2 0x497 PUSH0 DUP4 DUP4 PUSH2 0x52E JUMP JUMPDEST SWAP3 POP POP POP SWAP2 SWAP1 POP JUMP JUMPDEST PUSH0 DUP1 PUSH0 SWAP1 POP PUSH0 DUP5 MLOAD SWAP1 POP JUMPDEST PUSH0 DUP2 GT ISZERO PUSH2 0x523 JUMPI DUP5 PUSH1 0x1 DUP3 PUSH2 0x4C1 SWAP2 SWAP1 PUSH2 0x10D0 JUMP JUMPDEST DUP2 MLOAD DUP2 LT PUSH2 0x4D2 JUMPI PUSH2 0x4D1 PUSH2 0x1076 JUMP JUMPDEST JUMPDEST PUSH1 0x20 MUL PUSH1 0x20 ADD ADD MLOAD DUP5 DUP4 PUSH2 0x4E6 SWAP2 SWAP1 PUSH2 0x125A JUMP JUMPDEST PUSH2 0x4F0 SWAP2 SWAP1 PUSH2 0x129B JUMP JUMPDEST SWAP2 POP PUSH16 0x7FFFFFFFFFFFFFFFFFFFFFFFFFFFFFFF DUP3 PUSH2 0x50E SWAP2 SWAP1 PUSH2 0x117B JUMP JUMPDEST SWAP2 POP DUP1 DUP1 PUSH2 0x51B SWAP1 PUSH2 0x12CE JUMP JUMPDEST SWAP2 POP POP PUSH2 0x4AB JUMP JUMPDEST POP DUP1 SWAP2 POP POP SWAP3 SWAP2 POP POP JUMP JUMPDEST PUSH0 DUP2 MLOAD DUP4 MLOAD EQ PUSH2 0x573 JUMPI PUSH1 0x40 MLOAD PUSH32 0x8C379A000000000000000000000000000000000000000000000000000000000 DUP2 MSTORE PUSH1 0x4 ADD PUSH2 0x56A SWAP1 PUSH2 0x133F JUMP JUMPDEST PUSH1 0x40 MLOAD DUP1 SWAP2 SUB SWAP1 REVERT JUMPDEST PUSH0 DUP4 MLOAD SWAP1 POP PUSH0 DUP1 PUSH0 DUP4 PUSH8 0xFFFFFFFFFFFFFFFF DUP2 GT ISZERO PUSH2 0x595 JUMPI PUSH2 0x594 PUSH2 0xD4F JUMP JUMPDEST JUMPDEST PUSH1 0x40 MLOAD SWAP1 DUP1 DUP3 MSTORE DUP1 PUSH1 0x20 MUL PUSH1 0x20 ADD DUP3 ADD PUSH1 0x40 MSTORE DUP1 ISZERO PUSH2 0x5C3 JUMPI DUP2 PUSH1 0x20 ADD PUSH1 0x20 DUP3 MUL DUP1 CALLDATASIZE DUP4 CALLDATACOPY DUP1 DUP3 ADD SWAP2 POP POP SWAP1 POP JUMPDEST POP SWAP1 POP PUSH0 DUP5 PUSH8 0xFFFFFFFFFFFFFFFF DUP2 GT ISZERO PUSH2 0x5E1 JUMPI PUSH2 0x5E0 PUSH2 0xD4F JUMP JUMPDEST JUMPDEST PUSH1 0x40 MLOAD SWAP1 DUP1 DUP3 MSTORE DUP1 PUSH1 0x20 MUL PUSH1 0x20 ADD DUP3 ADD PUSH1 0x40 MSTORE DUP1 ISZERO PUSH2 0x60F JUMPI DUP2 PUSH1 0x20 ADD PUSH1 0x20 DUP3 MUL DUP1 CALLDATASIZE DUP4 CALLDATACOPY DUP1 DUP3 ADD SWAP2 POP POP SWAP1 POP JUMPDEST POP SWAP1 POP PUSH0 JUMPDEST DUP6 DUP2 LT ISZERO PUSH2 0x89D JUMPI PUSH0 PUSH1 0x1 DUP8 PUSH2 0x62A SWAP2 SWAP1 PUSH2 0x10D0 JUMP JUMPDEST PUSH8 0xFFFFFFFFFFFFFFFF DUP2 GT ISZERO PUSH2 0x643 JUMPI PUSH2 0x642 PUSH2 0xD4F JUMP JUMPDEST JUMPDEST PUSH1 0x40 MLOAD SWAP1 DUP1 DUP3 MSTORE DUP1 PUSH1 0x20 MUL PUSH1 0x20 ADD DUP3 ADD PUSH1 0x40 MSTORE DUP1 ISZERO PUSH2 0x671 JUMPI DUP2 PUSH1 0x20 ADD PUSH1 0x20 DUP3 MUL DUP1 CALLDATASIZE DUP4 CALLDATACOPY DUP1 DUP3 ADD SWAP2 POP POP SWAP1 POP JUMPDEST POP SWAP1 POP PUSH0 DUP11 DUP4 DUP2 MLOAD DUP2 LT PUSH2 0x688 JUMPI PUSH2 0x687 PUSH2 0x1076 JUMP JUMPDEST JUMPDEST PUSH1 0x20 MUL PUSH1 0x20 ADD ADD MLOAD SWAP1 POP PUSH0 DUP1 JUMPDEST DUP10 DUP2 LT ISZERO PUSH2 0x6F8 JUMPI DUP5 DUP2 EQ PUSH2 0x6EB JUMPI DUP13 DUP2 DUP2 MLOAD DUP2 LT PUSH2 0x6B7 JUMPI PUSH2 0x6B6 PUSH2 0x1076 JUMP JUMPDEST JUMPDEST PUSH1 0x20 MUL PUSH1 0x20 ADD ADD MLOAD DUP5 DUP4 DUP1 PUSH2 0x6CB SWAP1 PUSH2 0x11AB JUMP JUMPDEST SWAP5 POP DUP2 MLOAD DUP2 LT PUSH2 0x6DE JUMPI PUSH2 0x6DD PUSH2 0x1076 JUMP JUMPDEST JUMPDEST PUSH1 0x20 MUL PUSH1 0x20 ADD ADD DUP2 DUP2 MSTORE POP POP JUMPDEST DUP1 DUP1 PUSH1 0x1 ADD SWAP2 POP POP PUSH2 0x695 JUMP JUMPDEST POP PUSH1 0x1 DUP7 DUP6 DUP2 MLOAD DUP2 LT PUSH2 0x70E JUMPI PUSH2 0x70D PUSH2 0x1076 JUMP JUMPDEST JUMPDEST PUSH1 0x20 MUL PUSH1 0x20 ADD ADD DUP2 DUP2 MSTORE POP POP PUSH0 JUMPDEST PUSH1 0x1 DUP11 PUSH2 0x729 SWAP2 SWAP1 PUSH2 0x10D0 JUMP JUMPDEST DUP2 LT ISZERO PUSH2 0x7C2 JUMPI PUSH16 0x7FFFFFFFFFFFFFFFFFFFFFFFFFFFFFFF DUP5 DUP3 DUP2 MLOAD DUP2 LT PUSH2 0x754 JUMPI PUSH2 0x753 PUSH2 0x1076 JUMP JUMPDEST JUMPDEST PUSH1 0x20 MUL PUSH1 0x20 ADD ADD MLOAD DUP16 PUSH2 0x767 SWAP2 SWAP1 PUSH2 0x10D0 JUMP JUMPDEST DUP9 DUP8 DUP2 MLOAD DUP2 LT PUSH2 0x77A JUMPI PUSH2 0x779 PUSH2 0x1076 JUMP JUMPDEST JUMPDEST PUSH1 0x20 MUL PUSH1 0x20 ADD ADD MLOAD PUSH2 0x78C SWAP2 SWAP1 PUSH2 0x125A JUMP JUMPDEST PUSH2 0x796 SWAP2 SWAP1 PUSH2 0x117B JUMP JUMPDEST DUP8 DUP7 DUP2 MLOAD DUP2 LT PUSH2 0x7A9 JUMPI PUSH2 0x7A8 PUSH2 0x1076 JUMP JUMPDEST JUMPDEST PUSH1 0x20 MUL PUSH1 0x20 ADD ADD DUP2 DUP2 MSTORE POP POP DUP1 DUP1 PUSH1 0x1 ADD SWAP2 POP POP PUSH2 0x71C JUMP JUMPDEST POP PUSH1 0x1 DUP6 DUP6 DUP2 MLOAD DUP2 LT PUSH2 0x7D8 JUMPI PUSH2 0x7D7 PUSH2 0x1076 JUMP JUMPDEST JUMPDEST PUSH1 0x20 MUL PUSH1 0x20 ADD ADD DUP2 DUP2 MSTORE POP POP PUSH0 JUMPDEST PUSH1 0x1 DUP11 PUSH2 0x7F3 SWAP2 SWAP1 PUSH2 0x10D0 JUMP JUMPDEST DUP2 LT ISZERO PUSH2 0x88C JUMPI PUSH16 0x7FFFFFFFFFFFFFFFFFFFFFFFFFFFFFFF DUP5 DUP3 DUP2 MLOAD DUP2 LT PUSH2 0x81E JUMPI PUSH2 0x81D PUSH2 0x1076 JUMP JUMPDEST JUMPDEST PUSH1 0x20 MUL PUSH1 0x20 ADD ADD MLOAD DUP5 PUSH2 0x831 SWAP2 SWAP1 PUSH2 0x10D0 JUMP JUMPDEST DUP8 DUP8 DUP2 MLOAD DUP2 LT PUSH2 0x844 JUMPI PUSH2 0x843 PUSH2 0x1076 JUMP JUMPDEST JUMPDEST PUSH1 0x20 MUL PUSH1 0x20 ADD ADD MLOAD PUSH2 0x856 SWAP2 SWAP1 PUSH2 0x125A JUMP JUMPDEST PUSH2 0x860 SWAP2 SWAP1 PUSH2 0x117B JUMP JUMPDEST DUP7 DUP7 DUP2 MLOAD DUP2 LT PUSH2 0x873 JUMPI PUSH2 0x872 PUSH2 0x1076 JUMP JUMPDEST JUMPDEST PUSH1 0x20 MUL PUSH1 0x20 ADD ADD DUP2 DUP2 MSTORE POP POP DUP1 DUP1 PUSH1 0x1 ADD SWAP2 POP POP PUSH2 0x7E6 JUMP JUMPDEST POP POP POP POP DUP1 DUP1 PUSH1 0x1 ADD SWAP2 POP POP PUSH2 0x614 JUMP JUMPDEST POP PUSH0 JUMPDEST DUP6 DUP2 LT ISZERO PUSH2 0xA1C JUMPI PUSH16 0x7FFFFFFFFFFFFFFFFFFFFFFFFFFFFFFF PUSH2 0x977 PUSH16 0x7FFFFFFFFFFFFFFFFFFFFFFFFFFFFFFF DUP11 DUP5 DUP2 MLOAD DUP2 LT PUSH2 0x8E0 JUMPI PUSH2 0x8DF PUSH2 0x1076 JUMP JUMPDEST JUMPDEST PUSH1 0x20 MUL PUSH1 0x20 ADD ADD MLOAD PUSH16 0x7FFFFFFFFFFFFFFFFFFFFFFFFFFFFFFF DUP7 DUP7 DUP2 MLOAD DUP2 LT PUSH2 0x90C JUMPI PUSH2 0x90B PUSH2 0x1076 JUMP JUMPDEST JUMPDEST PUSH1 0x20 MUL PUSH1 0x20 ADD ADD MLOAD DUP9 DUP8 DUP2 MLOAD DUP2 LT PUSH2 0x927 JUMPI PUSH2 0x926 PUSH2 0x1076 JUMP JUMPDEST JUMPDEST PUSH1 0x20 MUL PUSH1 0x20 ADD ADD MLOAD PUSH2 0x939 SWAP2 SWAP1 PUSH2 0x125A JUMP JUMPDEST PUSH2 0x943 SWAP2 SWAP1 PUSH2 0x117B JUMP JUMPDEST PUSH2 0x94D SWAP2 SWAP1 PUSH2 0x125A JUMP JUMPDEST PUSH2 0x957 SWAP2 SWAP1 PUSH2 0x117B JUMP JUMPDEST DUP5 DUP5 DUP2 MLOAD DUP2 LT PUSH2 0x96A JUMPI PUSH2 0x969 PUSH2 0x1076 JUMP JUMPDEST JUMPDEST PUSH1 0x20 MUL PUSH1 0x20 ADD ADD MLOAD PUSH2 0xA35 JUMP JUMPDEST DUP7 PUSH2 0x982 SWAP2 SWAP1 PUSH2 0x129B JUMP JUMPDEST PUSH2 0x98C SWAP2 SWAP1 PUSH2 0x117B JUMP JUMPDEST SWAP5 POP PUSH16 0x7FFFFFFFFFFFFFFFFFFFFFFFFFFFFFFF PUSH2 0x9DD DUP5 DUP4 DUP2 MLOAD DUP2 LT PUSH2 0x9B5 JUMPI PUSH2 0x9B4 PUSH2 0x1076 JUMP JUMPDEST JUMPDEST PUSH1 0x20 MUL PUSH1 0x20 ADD ADD MLOAD DUP5 DUP5 DUP2 MLOAD DUP2 LT PUSH2 0x9D0 JUMPI PUSH2 0x9CF PUSH2 0x1076 JUMP JUMPDEST JUMPDEST PUSH1 0x20 MUL PUSH1 0x20 ADD ADD MLOAD PUSH2 0xA35 JUMP JUMPDEST PUSH16 0x7FFFFFFFFFFFFFFFFFFFFFFFFFFFFFFF DUP7 PUSH2 0x9F9 SWAP2 SWAP1 PUSH2 0x129B JUMP JUMPDEST PUSH2 0xA03 SWAP2 SWAP1 PUSH2 0x10D0 JUMP JUMPDEST PUSH2 0xA0D SWAP2 SWAP1 PUSH2 0x117B JUMP JUMPDEST SWAP4 POP DUP1 DUP1 PUSH1 0x1 ADD SWAP2 POP POP PUSH2 0x8A0 JUMP JUMPDEST POP PUSH2 0xA27 DUP5 DUP5 PUSH2 0xA35 JUMP JUMPDEST SWAP6 POP POP POP POP POP POP SWAP4 SWAP3 POP POP POP JUMP JUMPDEST PUSH0 DUP1 PUSH2 0xA51 DUP4 PUSH16 0x7FFFFFFFFFFFFFFFFFFFFFFFFFFFFFFF PUSH2 0xA84 JUMP JUMPDEST POP SWAP1 POP PUSH16 0x7FFFFFFFFFFFFFFFFFFFFFFFFFFFFFFF DUP2 DUP6 PUSH2 0xA71 SWAP2 SWAP1 PUSH2 0x125A JUMP JUMPDEST PUSH2 0xA7B SWAP2 SWAP1 PUSH2 0x117B JUMP JUMPDEST SWAP2 POP POP SWAP3 SWAP2 POP POP JUMP JUMPDEST PUSH0 DUP1 PUSH0 DUP1 PUSH1 0x1 SWAP1 POP PUSH0 PUSH1 0x1 SWAP1 POP PUSH0 JUMPDEST PUSH0 DUP8 EQ PUSH2 0xB04 JUMPI PUSH0 DUP8 DUP10 PUSH2 0xAA7 SWAP2 SWAP1 PUSH2 0x135D JUMP JUMPDEST SWAP1 POP DUP8 DUP9 DUP11 PUSH2 0xAB6 SWAP2 SWAP1 PUSH2 0x117B JUMP JUMPDEST DUP1 SWAP10 POP DUP2 SWAP11 POP POP POP DUP5 DUP2 PUSH2 0xACA SWAP2 SWAP1 PUSH2 0x1396 JUMP JUMPDEST DUP5 PUSH2 0xAD5 SWAP2 SWAP1 PUSH2 0x140C JUMP JUMPDEST DUP6 DUP1 SWAP6 POP DUP2 SWAP7 POP POP POP DUP3 DUP2 PUSH2 0xAEA SWAP2 SWAP1 PUSH2 0x1396 JUMP JUMPDEST DUP3 PUSH2 0xAF5 SWAP2 SWAP1 PUSH2 0x140C JUMP JUMPDEST DUP4 DUP1 SWAP4 POP DUP2 SWAP5 POP POP POP POP PUSH2 0xA93 JUMP JUMPDEST DUP3 DUP2 SWAP6 POP SWAP6 POP POP POP POP POP SWAP3 POP SWAP3 SWAP1 POP JUMP JUMPDEST PUSH0 PUSH1 0x40 MLOAD SWAP1 POP SWAP1 JUMP JUMPDEST PUSH0 DUP1 REVERT JUMPDEST PUSH0 DUP1 REVERT JUMPDEST PUSH0 DUP2 SWAP1 POP SWAP2 SWAP1 POP JUMP JUMPDEST PUSH2 0xB38 DUP2 PUSH2 0xB26 JUMP JUMPDEST DUP2 EQ PUSH2 0xB42 JUMPI PUSH0 DUP1 REVERT JUMPDEST POP JUMP JUMPDEST PUSH0 DUP2 CALLDATALOAD SWAP1 POP PUSH2 0xB53 DUP2 PUSH2 0xB2F JUMP JUMPDEST SWAP3 SWAP2 POP POP JUMP JUMPDEST PUSH0 DUP1 PUSH0 PUSH1 0x60 DUP5 DUP7 SUB SLT ISZERO PUSH2 0xB70 JUMPI PUSH2 0xB6F PUSH2 0xB1E JUMP JUMPDEST JUMPDEST PUSH0 PUSH2 0xB7D DUP7 DUP3 DUP8 ADD PUSH2 0xB45 JUMP JUMPDEST SWAP4 POP POP PUSH1 0x20 PUSH2 0xB8E DUP7 DUP3 DUP8 ADD PUSH2 0xB45 JUMP JUMPDEST SWAP3 POP POP PUSH1 0x40 PUSH2 0xB9F DUP7 DUP3 DUP8 ADD PUSH2 0xB45 JUMP JUMPDEST SWAP2 POP POP SWAP3 POP SWAP3 POP SWAP3 JUMP JUMPDEST PUSH0 DUP2 MLOAD SWAP1 POP SWAP2 SWAP1 POP JUMP JUMPDEST PUSH0 DUP3 DUP3 MSTORE PUSH1 0x20 DUP3 ADD SWAP1 POP SWAP3 SWAP2 POP POP JUMP JUMPDEST PUSH0 DUP2 SWAP1 POP PUSH1 0x20 DUP3 ADD SWAP1 POP SWAP2 SWAP1 POP JUMP JUMPDEST PUSH0 DUP2 MLOAD SWAP1 POP SWAP2 SWAP1 POP JUMP JUMPDEST PUSH0 DUP3 DUP3 MSTORE PUSH1 0x20 DUP3 ADD SWAP1 POP SWAP3 SWAP2 POP POP JUMP JUMPDEST PUSH0 DUP2 SWAP1 POP PUSH1 0x20 DUP3 ADD SWAP1 POP SWAP2 SWAP1 POP JUMP JUMPDEST PUSH2 0xC04 DUP2 PUSH2 0xB26 JUMP JUMPDEST DUP3 MSTORE POP POP JUMP JUMPDEST PUSH0 PUSH2 0xC15 DUP4 DUP4 PUSH2 0xBFB JUMP JUMPDEST PUSH1 0x20 DUP4 ADD SWAP1 POP SWAP3 SWAP2 POP POP JUMP JUMPDEST PUSH0 PUSH1 0x20 DUP3 ADD SWAP1 POP SWAP2 SWAP1 POP JUMP JUMPDEST PUSH0 PUSH2 0xC37 DUP3 PUSH2 0xBD2 JUMP JUMPDEST PUSH2 0xC41 DUP2 DUP6 PUSH2 0xBDC JUMP JUMPDEST SWAP4 POP PUSH2 0xC4C DUP4 PUSH2 0xBEC JUMP JUMPDEST DUP1 PUSH0 JUMPDEST DUP4 DUP2 LT ISZERO PUSH2 0xC7C JUMPI DUP2 MLOAD PUSH2 0xC63 DUP9 DUP3 PUSH2 0xC0A JUMP JUMPDEST SWAP8 POP PUSH2 0xC6E DUP4 PUSH2 0xC21 JUMP JUMPDEST SWAP3 POP POP PUSH1 0x1 DUP2 ADD SWAP1 POP PUSH2 0xC4F JUMP JUMPDEST POP DUP6 SWAP4 POP POP POP POP SWAP3 SWAP2 POP POP JUMP JUMPDEST PUSH0 PUSH2 0xC94 DUP4 DUP4 PUSH2 0xC2D JUMP JUMPDEST SWAP1 POP SWAP3 SWAP2 POP POP JUMP JUMPDEST PUSH0 PUSH1 0x20 DUP3 ADD SWAP1 POP SWAP2 SWAP1 POP JUMP JUMPDEST PUSH0 PUSH2 0xCB2 DUP3 PUSH2 0xBA9 JUMP JUMPDEST PUSH2 0xCBC DUP2 DUP6 PUSH2 0xBB3 JUMP JUMPDEST SWAP4 POP DUP4 PUSH1 0x20 DUP3 MUL DUP6 ADD PUSH2 0xCCE DUP6 PUSH2 0xBC3 JUMP JUMPDEST DUP1 PUSH0 JUMPDEST DUP6 DUP2 LT ISZERO PUSH2 0xD09 JUMPI DUP5 DUP5 SUB DUP10 MSTORE DUP2 MLOAD PUSH2 0xCEA DUP6 DUP3 PUSH2 0xC89 JUMP JUMPDEST SWAP5 POP PUSH2 0xCF5 DUP4 PUSH2 0xC9C JUMP JUMPDEST SWAP3 POP PUSH1 0x20 DUP11 ADD SWAP10 POP POP PUSH1 0x1 DUP2 ADD SWAP1 POP PUSH2 0xCD1 JUMP JUMPDEST POP DUP3 SWAP8 POP DUP8 SWAP6 POP POP POP POP POP POP SWAP3 SWAP2 POP POP JUMP JUMPDEST PUSH0 PUSH1 0x20 DUP3 ADD SWAP1 POP DUP2 DUP2 SUB PUSH0 DUP4 ADD MSTORE PUSH2 0xD33 DUP2 DUP5 PUSH2 0xCA8 JUMP JUMPDEST SWAP1 POP SWAP3 SWAP2 POP POP JUMP JUMPDEST PUSH0 DUP1 REVERT JUMPDEST PUSH0 PUSH1 0x1F NOT PUSH1 0x1F DUP4 ADD AND SWAP1 POP SWAP2 SWAP1 POP JUMP JUMPDEST PUSH32 0x4E487B7100000000000000000000000000000000000000000000000000000000 PUSH0 MSTORE PUSH1 0x41 PUSH1 0x4 MSTORE PUSH1 0x24 PUSH0 REVERT JUMPDEST PUSH2 0xD85 DUP3 PUSH2 0xD3F JUMP JUMPDEST DUP2 ADD DUP2 DUP2 LT PUSH8 0xFFFFFFFFFFFFFFFF DUP3 GT OR ISZERO PUSH2 0xDA4 JUMPI PUSH2 0xDA3 PUSH2 0xD4F JUMP JUMPDEST JUMPDEST DUP1 PUSH1 0x40 MSTORE POP POP POP JUMP JUMPDEST PUSH0 PUSH2 0xDB6 PUSH2 0xB15 JUMP JUMPDEST SWAP1 POP PUSH2 0xDC2 DUP3 DUP3 PUSH2 0xD7C JUMP JUMPDEST SWAP2 SWAP1 POP JUMP JUMPDEST PUSH0 PUSH8 0xFFFFFFFFFFFFFFFF DUP3 GT ISZERO PUSH2 0xDE1 JUMPI PUSH2 0xDE0 PUSH2 0xD4F JUMP JUMPDEST JUMPDEST PUSH1 0x20 DUP3 MUL SWAP1 POP PUSH1 0x20 DUP2 ADD SWAP1 POP SWAP2 SWAP1 POP JUMP JUMPDEST PUSH0 DUP1 REVERT JUMPDEST PUSH0 PUSH8 0xFFFFFFFFFFFFFFFF DUP3 GT ISZERO PUSH2 0xE10 JUMPI PUSH2 0xE0F PUSH2 0xD4F JUMP JUMPDEST JUMPDEST PUSH1 0x20 DUP3 MUL SWAP1 POP PUSH1 0x20 DUP2 ADD SWAP1 POP SWAP2 SWAP1 POP JUMP JUMPDEST PUSH0 PUSH2 0xE33 PUSH2 0xE2E DUP5 PUSH2 0xDF6 JUMP JUMPDEST PUSH2 0xDAD JUMP JUMPDEST SWAP1 POP DUP1 DUP4 DUP3 MSTORE PUSH1 0x20 DUP3 ADD SWAP1 POP PUSH1 0x20 DUP5 MUL DUP4 ADD DUP6 DUP2 GT ISZERO PUSH2 0xE56 JUMPI PUSH2 0xE55 PUSH2 0xDF2 JUMP JUMPDEST JUMPDEST DUP4 JUMPDEST DUP2 DUP2 LT ISZERO PUSH2 0xE7F JUMPI DUP1 PUSH2 0xE6B DUP9 DUP3 PUSH2 0xB45 JUMP JUMPDEST DUP5 MSTORE PUSH1 0x20 DUP5 ADD SWAP4 POP POP PUSH1 0x20 DUP2 ADD SWAP1 POP PUSH2 0xE58 JUMP JUMPDEST POP POP POP SWAP4 SWAP3 POP POP POP JUMP JUMPDEST PUSH0 DUP3 PUSH1 0x1F DUP4 ADD SLT PUSH2 0xE9D JUMPI PUSH2 0xE9C PUSH2 0xD3B JUMP JUMPDEST JUMPDEST DUP2 CALLDATALOAD PUSH2 0xEAD DUP5 DUP3 PUSH1 0x20 DUP7 ADD PUSH2 0xE21 JUMP JUMPDEST SWAP2 POP POP SWAP3 SWAP2 POP POP JUMP JUMPDEST PUSH0 PUSH2 0xEC8 PUSH2 0xEC3 DUP5 PUSH2 0xDC7 JUMP JUMPDEST PUSH2 0xDAD JUMP JUMPDEST SWAP1 POP DUP1 DUP4 DUP3 MSTORE PUSH1 0x20 DUP3 ADD SWAP1 POP PUSH1 0x20 DUP5 MUL DUP4 ADD DUP6 DUP2 GT ISZERO PUSH2 0xEEB JUMPI PUSH2 0xEEA PUSH2 0xDF2 JUMP JUMPDEST JUMPDEST DUP4 JUMPDEST DUP2 DUP2 LT ISZERO PUSH2 0xF32 JUMPI DUP1 CALLDATALOAD PUSH8 0xFFFFFFFFFFFFFFFF DUP2 GT ISZERO PUSH2 0xF10 JUMPI PUSH2 0xF0F PUSH2 0xD3B JUMP JUMPDEST JUMPDEST DUP1 DUP7 ADD PUSH2 0xF1D DUP10 DUP3 PUSH2 0xE89 JUMP JUMPDEST DUP6 MSTORE PUSH1 0x20 DUP6 ADD SWAP5 POP POP POP PUSH1 0x20 DUP2 ADD SWAP1 POP PUSH2 0xEED JUMP JUMPDEST POP POP POP SWAP4 SWAP3 POP POP POP JUMP JUMPDEST PUSH0 DUP3 PUSH1 0x1F DUP4 ADD SLT PUSH2 0xF50 JUMPI PUSH2 0xF4F PUSH2 0xD3B JUMP JUMPDEST JUMPDEST DUP2 CALLDATALOAD PUSH2 0xF60 DUP5 DUP3 PUSH1 0x20 DUP7 ADD PUSH2 0xEB6 JUMP JUMPDEST SWAP2 POP POP SWAP3 SWAP2 POP POP JUMP JUMPDEST PUSH0 PUSH1 0x20 DUP3 DUP5 SUB SLT ISZERO PUSH2 0xF7E JUMPI PUSH2 0xF7D PUSH2 0xB1E JUMP JUMPDEST JUMPDEST PUSH0 DUP3 ADD CALLDATALOAD PUSH8 0xFFFFFFFFFFFFFFFF DUP2 GT ISZERO PUSH2 0xF9B JUMPI PUSH2 0xF9A PUSH2 0xB22 JUMP JUMPDEST JUMPDEST PUSH2 0xFA7 DUP5 DUP3 DUP6 ADD PUSH2 0xF3C JUMP JUMPDEST SWAP2 POP POP SWAP3 SWAP2 POP POP JUMP JUMPDEST PUSH2 0xFB9 DUP2 PUSH2 0xB26 JUMP JUMPDEST DUP3 MSTORE POP POP JUMP JUMPDEST PUSH0 PUSH1 0x20 DUP3 ADD SWAP1 POP PUSH2 0xFD2 PUSH0 DUP4 ADD DUP5 PUSH2 0xFB0 JUMP JUMPDEST SWAP3 SWAP2 POP POP JUMP JUMPDEST PUSH0 DUP3 DUP3 MSTORE PUSH1 0x20 DUP3 ADD SWAP1 POP SWAP3 SWAP2 POP POP JUMP JUMPDEST PUSH32 0x4D696E696D756D2073686F756C64206265206C657373207468616E206F722065 PUSH0 DUP3 ADD MSTORE PUSH32 0x7175616C20746F20736861726573000000000000000000000000000000000000 PUSH1 0x20 DUP3 ADD MSTORE POP JUMP JUMPDEST PUSH0 PUSH2 0x1042 PUSH1 0x2E DUP4 PUSH2 0xFD8 JUMP JUMPDEST SWAP2 POP PUSH2 0x104D DUP3 PUSH2 0xFE8 JUMP JUMPDEST PUSH1 0x40 DUP3 ADD SWAP1 POP SWAP2 SWAP1 POP JUMP JUMPDEST PUSH0 PUSH1 0x20 DUP3 ADD SWAP1 POP DUP2 DUP2 SUB PUSH0 DUP4 ADD MSTORE PUSH2 0x106F DUP2 PUSH2 0x1036 JUMP JUMPDEST SWAP1 POP SWAP2 SWAP1 POP JUMP JUMPDEST PUSH32 0x4E487B7100000000000000000000000000000000000000000000000000000000 PUSH0 MSTORE PUSH1 0x32 PUSH1 0x4 MSTORE PUSH1 0x24 PUSH0 REVERT JUMPDEST PUSH32 0x4E487B7100000000000000000000000000000000000000000000000000000000 PUSH0 MSTORE PUSH1 0x11 PUSH1 0x4 MSTORE PUSH1 0x24 PUSH0 REVERT JUMPDEST PUSH0 PUSH2 0x10DA DUP3 PUSH2 0xB26 JUMP JUMPDEST SWAP2 POP PUSH2 0x10E5 DUP4 PUSH2 0xB26 JUMP JUMPDEST SWAP3 POP DUP3 DUP3 SUB SWAP1 POP DUP2 DUP2 GT ISZERO PUSH2 0x10FD JUMPI PUSH2 0x10FC PUSH2 0x10A3 JUMP JUMPDEST JUMPDEST SWAP3 SWAP2 POP POP JUMP JUMPDEST PUSH0 DUP2 SWAP1 POP SWAP2 SWAP1 POP JUMP JUMPDEST PUSH2 0x111D PUSH2 0x1118 DUP3 PUSH2 0xB26 JUMP JUMPDEST PUSH2 0x1103 JUMP JUMPDEST DUP3 MSTORE POP POP JUMP JUMPDEST PUSH0 PUSH2 0x112E DUP3 DUP6 PUSH2 0x110C JUMP JUMPDEST PUSH1 0x20 DUP3 ADD SWAP2 POP PUSH2 0x113E DUP3 DUP5 PUSH2 0x110C JUMP JUMPDEST PUSH1 0x20 DUP3 ADD SWAP2 POP DUP2 SWAP1 POP SWAP4 SWAP3 POP POP POP JUMP JUMPDEST PUSH32 0x4E487B7100000000000000000000000000000000000000000000000000000000 PUSH0 MSTORE PUSH1 0x12 PUSH1 0x4 MSTORE PUSH1 0x24 PUSH0 REVERT JUMPDEST PUSH0 PUSH2 0x1185 DUP3 PUSH2 0xB26 JUMP JUMPDEST SWAP2 POP PUSH2 0x1190 DUP4 PUSH2 0xB26 JUMP JUMPDEST SWAP3 POP DUP3 PUSH2 0x11A0 JUMPI PUSH2 0x119F PUSH2 0x114E JUMP JUMPDEST JUMPDEST DUP3 DUP3 MOD SWAP1 POP SWAP3 SWAP2 POP POP JUMP JUMPDEST PUSH0 PUSH2 0x11B5 DUP3 PUSH2 0xB26 JUMP JUMPDEST SWAP2 POP PUSH32 0xFFFFFFFFFFFFFFFFFFFFFFFFFFFFFFFFFFFFFFFFFFFFFFFFFFFFFFFFFFFFFFFF DUP3 SUB PUSH2 0x11E7 JUMPI PUSH2 0x11E6 PUSH2 0x10A3 JUMP JUMPDEST JUMPDEST PUSH1 0x1 DUP3 ADD SWAP1 POP SWAP2 SWAP1 POP JUMP JUMPDEST PUSH32 0x4E656564206174206C6561737420746872656520736861726573000000000000 PUSH0 DUP3 ADD MSTORE POP JUMP JUMPDEST PUSH0 PUSH2 0x1226 PUSH1 0x1A DUP4 PUSH2 0xFD8 JUMP JUMPDEST SWAP2 POP PUSH2 0x1231 DUP3 PUSH2 0x11F2 JUMP JUMPDEST PUSH1 0x20 DUP3 ADD SWAP1 POP SWAP2 SWAP1 POP JUMP JUMPDEST PUSH0 PUSH1 0x20 DUP3 ADD SWAP1 POP DUP2 DUP2 SUB PUSH0 DUP4 ADD MSTORE PUSH2 0x1253 DUP2 PUSH2 0x121A JUMP JUMPDEST SWAP1 POP SWAP2 SWAP1 POP JUMP JUMPDEST PUSH0 PUSH2 0x1264 DUP3 PUSH2 0xB26 JUMP JUMPDEST SWAP2 POP PUSH2 0x126F DUP4 PUSH2 0xB26 JUMP JUMPDEST SWAP3 POP DUP3 DUP3 MUL PUSH2 0x127D DUP2 PUSH2 0xB26 JUMP JUMPDEST SWAP2 POP DUP3 DUP3 DIV DUP5 EQ DUP4 ISZERO OR PUSH2 0x1294 JUMPI PUSH2 0x1293 PUSH2 0x10A3 JUMP JUMPDEST JUMPDEST POP SWAP3 SWAP2 POP POP JUMP JUMPDEST PUSH0 PUSH2 0x12A5 DUP3 PUSH2 0xB26 JUMP JUMPDEST SWAP2 POP PUSH2 0x12B0 DUP4 PUSH2 0xB26 JUMP JUMPDEST SWAP3 POP DUP3 DUP3 ADD SWAP1 POP DUP1 DUP3 GT ISZERO PUSH2 0x12C8 JUMPI PUSH2 0x12C7 PUSH2 0x10A3 JUMP JUMPDEST JUMPDEST SWAP3 SWAP2 POP POP JUMP JUMPDEST PUSH0 PUSH2 0x12D8 DUP3 PUSH2 0xB26 JUMP JUMPDEST SWAP2 POP PUSH0 DUP3 SUB PUSH2 0x12EA JUMPI PUSH2 0x12E9 PUSH2 0x10A3 JUMP JUMPDEST JUMPDEST PUSH1 0x1 DUP3 SUB SWAP1 POP SWAP2 SWAP1 POP JUMP JUMPDEST PUSH32 0x4172726179732073686F756C64206861766520657175616C206C656E67746800 PUSH0 DUP3 ADD MSTORE POP JUMP JUMPDEST PUSH0 PUSH2 0x1329 PUSH1 0x1F DUP4 PUSH2 0xFD8 JUMP JUMPDEST SWAP2 POP PUSH2 0x1334 DUP3 PUSH2 0x12F5 JUMP JUMPDEST PUSH1 0x20 DUP3 ADD SWAP1 POP SWAP2 SWAP1 POP JUMP JUMPDEST PUSH0 PUSH1 0x20 DUP3 ADD SWAP1 POP DUP2 DUP2 SUB PUSH0 DUP4 ADD MSTORE PUSH2 0x1356 DUP2 PUSH2 0x131D JUMP JUMPDEST SWAP1 POP SWAP2 SWAP1 POP JUMP JUMPDEST PUSH0 PUSH2 0x1367 DUP3 PUSH2 0xB26 JUMP JUMPDEST SWAP2 POP PUSH2 0x1372 DUP4 PUSH2 0xB26 JUMP JUMPDEST SWAP3 POP DUP3 PUSH2 0x1382 JUMPI PUSH2 0x1381 PUSH2 0x114E JUMP JUMPDEST JUMPDEST DUP3 DUP3 DIV SWAP1 POP SWAP3 SWAP2 POP POP JUMP JUMPDEST PUSH0 DUP2 SWAP1 POP SWAP2 SWAP1 POP JUMP JUMPDEST PUSH0 PUSH2 0x13A0 DUP3 PUSH2 0x138D JUMP JUMPDEST SWAP2 POP PUSH2 0x13AB DUP4 PUSH2 0x138D JUMP JUMPDEST SWAP3 POP DUP3 DUP3 MUL PUSH2 0x13B9 DUP2 PUSH2 0x138D JUMP JUMPDEST SWAP2 POP PUSH32 0x8000000000000000000000000000000000000000000000000000000000000000 DUP5 EQ PUSH0 DUP5 SLT AND ISZERO PUSH2 0x13F0 JUMPI PUSH2 0x13EF PUSH2 0x10A3 JUMP JUMPDEST JUMPDEST DUP3 DUP3 SDIV DUP5 EQ DUP4 ISZERO OR PUSH2 0x1405 JUMPI PUSH2 0x1404 PUSH2 0x10A3 JUMP JUMPDEST JUMPDEST POP SWAP3 SWAP2 POP POP JUMP JUMPDEST PUSH0 PUSH2 0x1416 DUP3 PUSH2 0x138D JUMP JUMPDEST SWAP2 POP PUSH2 0x1421 DUP4 PUSH2 0x138D JUMP JUMPDEST SWAP3 POP DUP3 DUP3 SUB SWAP1 POP DUP2 DUP2 SLT PUSH0 DUP5 SLT AND DUP3 DUP3 SGT PUSH0 DUP6 SLT ISZERO AND OR ISZERO PUSH2 0x1446 JUMPI PUSH2 0x1445 PUSH2 0x10A3 JUMP JUMPDEST JUMPDEST SWAP3 SWAP2 POP POP JUMP INVALID LOG2 PUSH5 0x6970667358 0x22 SLT KECCAK256 0x1E 0x4F 0x2C 0xC0 SWAP2 SHR 0x4B BLOCKHASH TIMESTAMP 0xE8 0x27 PUSH0 BYTE PUSH16 0x7A0C99877840F7E758A0940D20397333 DUP6 MLOAD PUSH5 0x736F6C6343 STOP ADDMOD XOR STOP CALLER "
		},
		"gasEstimates": {
			"creation": {
				"codeDepositCost": "453800",
				"executionCost": "infinite",
				"totalCost": "infinite"
			},
			"external": {
				"testMakeRandomShares(uint256,uint256,uint256)": "infinite",
				"testRecoverSecret(uint256[][])": "infinite"
			}
		},
		"methodIdentifiers": {
			"testMakeRandomShares(uint256,uint256,uint256)": "2fd54b73",
			"testRecoverSecret(uint256[][])": "bc9a1899"
		}
	},
	"abi": [
		{
			"inputs": [],
			"stateMutability": "nonpayable",
			"type": "constructor"
		},
		{
			"inputs": [
				{
					"internalType": "uint256",
					"name": "secret",
					"type": "uint256"
				},
				{
					"internalType": "uint256",
					"name": "minimum",
					"type": "uint256"
				},
				{
					"internalType": "uint256",
					"name": "shares",
					"type": "uint256"
				}
			],
			"name": "testMakeRandomShares",
			"outputs": [
				{
					"internalType": "uint256[][]",
					"name": "",
					"type": "uint256[][]"
				}
			],
			"stateMutability": "view",
			"type": "function"
		},
		{
			"inputs": [
				{
					"internalType": "uint256[][]",
					"name": "shares",
					"type": "uint256[][]"
				}
			],
			"name": "testRecoverSecret",
			"outputs": [
				{
					"internalType": "uint256",
					"name": "",
					"type": "uint256"
				}
			],
			"stateMutability": "view",
			"type": "function"
		}
	]
}