{
	"data": {
		"bytecode": {
			"linkReferences": {},
			"object": "6080604052348015600e575f80fd5b50610ef58061001c5f395ff3fe608060405234801561000f575f80fd5b506004361061003f575f3560e01c80633943074014610043578063b4df6f0014610073578063c7ee005e146100a3575b5f80fd5b61005d6004803603810190610058919061084b565b6100c1565b60405161006a91906108d0565b60405180910390f35b61008d600480360381019061008891906108e9565b6102ef565b60405161009a91906109f0565b60405180910390f35b6100ab6104bb565b6040516100b891906108d0565b60405180910390f35b5f815183511480156100d357505f8351115b610112576040517f08c379a000000000000000000000000000000000000000000000000000000000815260040161010990610a6a565b60405180910390fd5b5f805b84518110156102e4575f85828151811061013257610131610a88565b5b602002602001015190505f600190505f5b8751811015610258578084031561024b577fffffffffffffffffffffffffffffffffffffffffffffffffffffffffffffff4387828151811061018857610187610a88565b5b60200260200101517fffffffffffffffffffffffffffffffffffffffffffffffffffffffffffffff436101bb9190610ae2565b846101c69190610b15565b6101d09190610b83565b92507fffffffffffffffffffffffffffffffffffffffffffffffffffffffffffffff4387828151811061020657610205610a88565b5b602002602001015188868151811061022157610220610a88565b5b60200260200101516102339190610ae2565b8361023e9190610b15565b6102489190610b83565b91505b8080600101915050610143565b505f7fffffffffffffffffffffffffffffffffffffffffffffffffffffffffffffff4383610285846104df565b61028f9190610b15565b6102999190610b83565b90507fffffffffffffffffffffffffffffffffffffffffffffffffffffffffffffff4381866102c89190610bb3565b6102d29190610b83565b94505050508080600101915050610115565b508091505092915050565b60605f831180156103005750818311155b61033f576040517f08c379a000000000000000000000000000000000000000000000000000000000815260040161033690610c56565b60405180910390fd5b5f8267ffffffffffffffff81111561035a576103596106dc565b5b6040519080825280602002602001820160405280156103885781602001602082028036833780820191505090505b5090505f8467ffffffffffffffff8111156103a6576103a56106dc565b5b6040519080825280602002602001820160405280156103d45781602001602082028036833780820191505090505b50905085815f815181106103eb576103ea610a88565b5b6020026020010181815250505f600190505b8581101561045c578681604051602001610418929190610c94565b604051602081830303815290604052805190602001205f1c82828151811061044357610442610a88565b5b60200260200101818152505080806001019150506103fd565b505f5b848110156104ae575f6001826104759190610bb3565b905061048183826105a7565b84838151811061049457610493610a88565b5b60200260200101818152505050808060010191505061045f565b5081925050509392505050565b7fffffffffffffffffffffffffffffffffffffffffffffffffffffffffffffff4381565b5f807fffffffffffffffffffffffffffffffffffffffffffffffffffffffffffffff4390505f8314806105125750600183145b1561052057829150506105a2565b5f8190505f8490505f80600190505b6001831315610582575f84846105459190610cc8565b90505f85905085856105579190610d30565b9550809450839050838261056b9190610d60565b836105769190610dd6565b9350809250505061052f565b5f8112156105995784816105969190610e16565b90505b80955050505050505b919050565b5f808351116105eb576040517f08c379a00000000000000000000000000000000000000000000000000000000081526004016105e290610ea1565b60405180910390fd5b5f80600190505f5b85518110156106ab577fffffffffffffffffffffffffffffffffffffffffffffffffffffffffffffff43808388848151811061063257610631610a88565b5b60200260200101516106449190610b15565b61064e9190610b83565b846106599190610bb3565b6106639190610b83565b92507fffffffffffffffffffffffffffffffffffffffffffffffffffffffffffffff4385836106929190610b15565b61069c9190610b83565b915080806001019150506105f3565b50819250505092915050565b5f604051905090565b5f80fd5b5f80fd5b5f80fd5b5f601f19601f8301169050919050565b7f4e487b71000000000000000000000000000000000000000000000000000000005f52604160045260245ffd5b610712826106cc565b810181811067ffffffffffffffff82111715610731576107306106dc565b5b80604052505050565b5f6107436106b7565b905061074f8282610709565b919050565b5f67ffffffffffffffff82111561076e5761076d6106dc565b5b602082029050602081019050919050565b5f80fd5b5f819050919050565b61079581610783565b811461079f575f80fd5b50565b5f813590506107b08161078c565b92915050565b5f6107c86107c384610754565b61073a565b905080838252602082019050602084028301858111156107eb576107ea61077f565b5b835b81811015610814578061080088826107a2565b8452602084019350506020810190506107ed565b5050509392505050565b5f82601f830112610832576108316106c8565b5b81356108428482602086016107b6565b91505092915050565b5f8060408385031215610861576108606106c0565b5b5f83013567ffffffffffffffff81111561087e5761087d6106c4565b5b61088a8582860161081e565b925050602083013567ffffffffffffffff8111156108ab576108aa6106c4565b5b6108b78582860161081e565b9150509250929050565b6108ca81610783565b82525050565b5f6020820190506108e35f8301846108c1565b92915050565b5f805f60608486031215610900576108ff6106c0565b5b5f61090d868287016107a2565b935050602061091e868287016107a2565b925050604061092f868287016107a2565b9150509250925092565b5f81519050919050565b5f82825260208201905092915050565b5f819050602082019050919050565b61096b81610783565b82525050565b5f61097c8383610962565b60208301905092915050565b5f602082019050919050565b5f61099e82610939565b6109a88185610943565b93506109b383610953565b805f5b838110156109e35781516109ca8882610971565b97506109d583610988565b9250506001810190506109b6565b5085935050505092915050565b5f6020820190508181035f830152610a088184610994565b905092915050565b5f82825260208201905092915050565b7f496e76616c696420696e707574000000000000000000000000000000000000005f82015250565b5f610a54600d83610a10565b9150610a5f82610a20565b602082019050919050565b5f6020820190508181035f830152610a8181610a48565b9050919050565b7f4e487b71000000000000000000000000000000000000000000000000000000005f52603260045260245ffd5b7f4e487b71000000000000000000000000000000000000000000000000000000005f52601160045260245ffd5b5f610aec82610783565b9150610af783610783565b9250828203905081811115610b0f57610b0e610ab5565b5b92915050565b5f610b1f82610783565b9150610b2a83610783565b9250828202610b3881610783565b91508282048414831517610b4f57610b4e610ab5565b5b5092915050565b7f4e487b71000000000000000000000000000000000000000000000000000000005f52601260045260245ffd5b5f610b8d82610783565b9150610b9883610783565b925082610ba857610ba7610b56565b5b828206905092915050565b5f610bbd82610783565b9150610bc883610783565b9250828201905080821115610be057610bdf610ab5565b5b92915050565b7f496e76616c6964207468726573686f6c64206f72206e756d626572206f6620735f8201527f6861726573000000000000000000000000000000000000000000000000000000602082015250565b5f610c40602583610a10565b9150610c4b82610be6565b604082019050919050565b5f6020820190508181035f830152610c6d81610c34565b9050919050565b5f819050919050565b610c8e610c8982610783565b610c74565b82525050565b5f610c9f8285610c7d565b602082019150610caf8284610c7d565b6020820191508190509392505050565b5f819050919050565b5f610cd282610cbf565b9150610cdd83610cbf565b925082610ced57610cec610b56565b5b60015f0383147f800000000000000000000000000000000000000000000000000000000000000083141615610d2557610d24610ab5565b5b828205905092915050565b5f610d3a82610cbf565b9150610d4583610cbf565b925082610d5557610d54610b56565b5b828207905092915050565b5f610d6a82610cbf565b9150610d7583610cbf565b9250828202610d8381610cbf565b91507f800000000000000000000000000000000000000000000000000000000000000084145f84121615610dba57610db9610ab5565b5b8282058414831517610dcf57610dce610ab5565b5b5092915050565b5f610de082610cbf565b9150610deb83610cbf565b925082820390508181125f8412168282135f851215161715610e1057610e0f610ab5565b5b92915050565b5f610e2082610cbf565b9150610e2b83610cbf565b92508282019050828112155f8312168382125f841215161715610e5157610e50610ab5565b5b92915050565b7f4e6f20636f656666696369656e74732070726f766964656400000000000000005f82015250565b5f610e8b601883610a10565b9150610e9682610e57565b602082019050919050565b5f6020820190508181035f830152610eb881610e7f565b905091905056fea2646970667358221220fc742acf3d17faf086f83dc3861dbbf0d05034136b9fd692482fbb3c6df9314a64736f6c63430008190033",
			"opcodes": "PUSH1 0x80 PUSH1 0x40 MSTORE CALLVALUE DUP1 ISZERO PUSH1 0xE JUMPI PUSH0 DUP1 REVERT JUMPDEST POP PUSH2 0xEF5 DUP1 PUSH2 0x1C PUSH0 CODECOPY PUSH0 RETURN INVALID PUSH1 0x80 PUSH1 0x40 MSTORE CALLVALUE DUP1 ISZERO PUSH2 0xF JUMPI PUSH0 DUP1 REVERT JUMPDEST POP PUSH1 0x4 CALLDATASIZE LT PUSH2 0x3F JUMPI PUSH0 CALLDATALOAD PUSH1 0xE0 SHR DUP1 PUSH4 0x39430740 EQ PUSH2 0x43 JUMPI DUP1 PUSH4 0xB4DF6F00 EQ PUSH2 0x73 JUMPI DUP1 PUSH4 0xC7EE005E EQ PUSH2 0xA3 JUMPI JUMPDEST PUSH0 DUP1 REVERT JUMPDEST PUSH2 0x5D PUSH1 0x4 DUP1 CALLDATASIZE SUB DUP2 ADD SWAP1 PUSH2 0x58 SWAP2 SWAP1 PUSH2 0x84B JUMP JUMPDEST PUSH2 0xC1 JUMP JUMPDEST PUSH1 0x40 MLOAD PUSH2 0x6A SWAP2 SWAP1 PUSH2 0x8D0 JUMP JUMPDEST PUSH1 0x40 MLOAD DUP1 SWAP2 SUB SWAP1 RETURN JUMPDEST PUSH2 0x8D PUSH1 0x4 DUP1 CALLDATASIZE SUB DUP2 ADD SWAP1 PUSH2 0x88 SWAP2 SWAP1 PUSH2 0x8E9 JUMP JUMPDEST PUSH2 0x2EF JUMP JUMPDEST PUSH1 0x40 MLOAD PUSH2 0x9A SWAP2 SWAP1 PUSH2 0x9F0 JUMP JUMPDEST PUSH1 0x40 MLOAD DUP1 SWAP2 SUB SWAP1 RETURN JUMPDEST PUSH2 0xAB PUSH2 0x4BB JUMP JUMPDEST PUSH1 0x40 MLOAD PUSH2 0xB8 SWAP2 SWAP1 PUSH2 0x8D0 JUMP JUMPDEST PUSH1 0x40 MLOAD DUP1 SWAP2 SUB SWAP1 RETURN JUMPDEST PUSH0 DUP2 MLOAD DUP4 MLOAD EQ DUP1 ISZERO PUSH2 0xD3 JUMPI POP PUSH0 DUP4 MLOAD GT JUMPDEST PUSH2 0x112 JUMPI PUSH1 0x40 MLOAD PUSH32 0x8C379A000000000000000000000000000000000000000000000000000000000 DUP2 MSTORE PUSH1 0x4 ADD PUSH2 0x109 SWAP1 PUSH2 0xA6A JUMP JUMPDEST PUSH1 0x40 MLOAD DUP1 SWAP2 SUB SWAP1 REVERT JUMPDEST PUSH0 DUP1 JUMPDEST DUP5 MLOAD DUP2 LT ISZERO PUSH2 0x2E4 JUMPI PUSH0 DUP6 DUP3 DUP2 MLOAD DUP2 LT PUSH2 0x132 JUMPI PUSH2 0x131 PUSH2 0xA88 JUMP JUMPDEST JUMPDEST PUSH1 0x20 MUL PUSH1 0x20 ADD ADD MLOAD SWAP1 POP PUSH0 PUSH1 0x1 SWAP1 POP PUSH0 JUMPDEST DUP8 MLOAD DUP2 LT ISZERO PUSH2 0x258 JUMPI DUP1 DUP5 SUB ISZERO PUSH2 0x24B JUMPI PUSH32 0xFFFFFFFFFFFFFFFFFFFFFFFFFFFFFFFFFFFFFFFFFFFFFFFFFFFFFFFFFFFFFF43 DUP8 DUP3 DUP2 MLOAD DUP2 LT PUSH2 0x188 JUMPI PUSH2 0x187 PUSH2 0xA88 JUMP JUMPDEST JUMPDEST PUSH1 0x20 MUL PUSH1 0x20 ADD ADD MLOAD PUSH32 0xFFFFFFFFFFFFFFFFFFFFFFFFFFFFFFFFFFFFFFFFFFFFFFFFFFFFFFFFFFFFFF43 PUSH2 0x1BB SWAP2 SWAP1 PUSH2 0xAE2 JUMP JUMPDEST DUP5 PUSH2 0x1C6 SWAP2 SWAP1 PUSH2 0xB15 JUMP JUMPDEST PUSH2 0x1D0 SWAP2 SWAP1 PUSH2 0xB83 JUMP JUMPDEST SWAP3 POP PUSH32 0xFFFFFFFFFFFFFFFFFFFFFFFFFFFFFFFFFFFFFFFFFFFFFFFFFFFFFFFFFFFFFF43 DUP8 DUP3 DUP2 MLOAD DUP2 LT PUSH2 0x206 JUMPI PUSH2 0x205 PUSH2 0xA88 JUMP JUMPDEST JUMPDEST PUSH1 0x20 MUL PUSH1 0x20 ADD ADD MLOAD DUP9 DUP7 DUP2 MLOAD DUP2 LT PUSH2 0x221 JUMPI PUSH2 0x220 PUSH2 0xA88 JUMP JUMPDEST JUMPDEST PUSH1 0x20 MUL PUSH1 0x20 ADD ADD MLOAD PUSH2 0x233 SWAP2 SWAP1 PUSH2 0xAE2 JUMP JUMPDEST DUP4 PUSH2 0x23E SWAP2 SWAP1 PUSH2 0xB15 JUMP JUMPDEST PUSH2 0x248 SWAP2 SWAP1 PUSH2 0xB83 JUMP JUMPDEST SWAP2 POP JUMPDEST DUP1 DUP1 PUSH1 0x1 ADD SWAP2 POP POP PUSH2 0x143 JUMP JUMPDEST POP PUSH0 PUSH32 0xFFFFFFFFFFFFFFFFFFFFFFFFFFFFFFFFFFFFFFFFFFFFFFFFFFFFFFFFFFFFFF43 DUP4 PUSH2 0x285 DUP5 PUSH2 0x4DF JUMP JUMPDEST PUSH2 0x28F SWAP2 SWAP1 PUSH2 0xB15 JUMP JUMPDEST PUSH2 0x299 SWAP2 SWAP1 PUSH2 0xB83 JUMP JUMPDEST SWAP1 POP PUSH32 0xFFFFFFFFFFFFFFFFFFFFFFFFFFFFFFFFFFFFFFFFFFFFFFFFFFFFFFFFFFFFFF43 DUP2 DUP7 PUSH2 0x2C8 SWAP2 SWAP1 PUSH2 0xBB3 JUMP JUMPDEST PUSH2 0x2D2 SWAP2 SWAP1 PUSH2 0xB83 JUMP JUMPDEST SWAP5 POP POP POP POP DUP1 DUP1 PUSH1 0x1 ADD SWAP2 POP POP PUSH2 0x115 JUMP JUMPDEST POP DUP1 SWAP2 POP POP SWAP3 SWAP2 POP POP JUMP JUMPDEST PUSH1 0x60 PUSH0 DUP4 GT DUP1 ISZERO PUSH2 0x300 JUMPI POP DUP2 DUP4 GT ISZERO JUMPDEST PUSH2 0x33F JUMPI PUSH1 0x40 MLOAD PUSH32 0x8C379A000000000000000000000000000000000000000000000000000000000 DUP2 MSTORE PUSH1 0x4 ADD PUSH2 0x336 SWAP1 PUSH2 0xC56 JUMP JUMPDEST PUSH1 0x40 MLOAD DUP1 SWAP2 SUB SWAP1 REVERT JUMPDEST PUSH0 DUP3 PUSH8 0xFFFFFFFFFFFFFFFF DUP2 GT ISZERO PUSH2 0x35A JUMPI PUSH2 0x359 PUSH2 0x6DC JUMP JUMPDEST JUMPDEST PUSH1 0x40 MLOAD SWAP1 DUP1 DUP3 MSTORE DUP1 PUSH1 0x20 MUL PUSH1 0x20 ADD DUP3 ADD PUSH1 0x40 MSTORE DUP1 ISZERO PUSH2 0x388 JUMPI DUP2 PUSH1 0x20 ADD PUSH1 0x20 DUP3 MUL DUP1 CALLDATASIZE DUP4 CALLDATACOPY DUP1 DUP3 ADD SWAP2 POP POP SWAP1 POP JUMPDEST POP SWAP1 POP PUSH0 DUP5 PUSH8 0xFFFFFFFFFFFFFFFF DUP2 GT ISZERO PUSH2 0x3A6 JUMPI PUSH2 0x3A5 PUSH2 0x6DC JUMP JUMPDEST JUMPDEST PUSH1 0x40 MLOAD SWAP1 DUP1 DUP3 MSTORE DUP1 PUSH1 0x20 MUL PUSH1 0x20 ADD DUP3 ADD PUSH1 0x40 MSTORE DUP1 ISZERO PUSH2 0x3D4 JUMPI DUP2 PUSH1 0x20 ADD PUSH1 0x20 DUP3 MUL DUP1 CALLDATASIZE DUP4 CALLDATACOPY DUP1 DUP3 ADD SWAP2 POP POP SWAP1 POP JUMPDEST POP SWAP1 POP DUP6 DUP2 PUSH0 DUP2 MLOAD DUP2 LT PUSH2 0x3EB JUMPI PUSH2 0x3EA PUSH2 0xA88 JUMP JUMPDEST JUMPDEST PUSH1 0x20 MUL PUSH1 0x20 ADD ADD DUP2 DUP2 MSTORE POP POP PUSH0 PUSH1 0x1 SWAP1 POP JUMPDEST DUP6 DUP2 LT ISZERO PUSH2 0x45C JUMPI DUP7 DUP2 PUSH1 0x40 MLOAD PUSH1 0x20 ADD PUSH2 0x418 SWAP3 SWAP2 SWAP1 PUSH2 0xC94 JUMP JUMPDEST PUSH1 0x40 MLOAD PUSH1 0x20 DUP2 DUP4 SUB SUB DUP2 MSTORE SWAP1 PUSH1 0x40 MSTORE DUP1 MLOAD SWAP1 PUSH1 0x20 ADD KECCAK256 PUSH0 SHR DUP3 DUP3 DUP2 MLOAD DUP2 LT PUSH2 0x443 JUMPI PUSH2 0x442 PUSH2 0xA88 JUMP JUMPDEST JUMPDEST PUSH1 0x20 MUL PUSH1 0x20 ADD ADD DUP2 DUP2 MSTORE POP POP DUP1 DUP1 PUSH1 0x1 ADD SWAP2 POP POP PUSH2 0x3FD JUMP JUMPDEST POP PUSH0 JUMPDEST DUP5 DUP2 LT ISZERO PUSH2 0x4AE JUMPI PUSH0 PUSH1 0x1 DUP3 PUSH2 0x475 SWAP2 SWAP1 PUSH2 0xBB3 JUMP JUMPDEST SWAP1 POP PUSH2 0x481 DUP4 DUP3 PUSH2 0x5A7 JUMP JUMPDEST DUP5 DUP4 DUP2 MLOAD DUP2 LT PUSH2 0x494 JUMPI PUSH2 0x493 PUSH2 0xA88 JUMP JUMPDEST JUMPDEST PUSH1 0x20 MUL PUSH1 0x20 ADD ADD DUP2 DUP2 MSTORE POP POP POP DUP1 DUP1 PUSH1 0x1 ADD SWAP2 POP POP PUSH2 0x45F JUMP JUMPDEST POP DUP2 SWAP3 POP POP POP SWAP4 SWAP3 POP POP POP JUMP JUMPDEST PUSH32 0xFFFFFFFFFFFFFFFFFFFFFFFFFFFFFFFFFFFFFFFFFFFFFFFFFFFFFFFFFFFFFF43 DUP2 JUMP JUMPDEST PUSH0 DUP1 PUSH32 0xFFFFFFFFFFFFFFFFFFFFFFFFFFFFFFFFFFFFFFFFFFFFFFFFFFFFFFFFFFFFFF43 SWAP1 POP PUSH0 DUP4 EQ DUP1 PUSH2 0x512 JUMPI POP PUSH1 0x1 DUP4 EQ JUMPDEST ISZERO PUSH2 0x520 JUMPI DUP3 SWAP2 POP POP PUSH2 0x5A2 JUMP JUMPDEST PUSH0 DUP2 SWAP1 POP PUSH0 DUP5 SWAP1 POP PUSH0 DUP1 PUSH1 0x1 SWAP1 POP JUMPDEST PUSH1 0x1 DUP4 SGT ISZERO PUSH2 0x582 JUMPI PUSH0 DUP5 DUP5 PUSH2 0x545 SWAP2 SWAP1 PUSH2 0xCC8 JUMP JUMPDEST SWAP1 POP PUSH0 DUP6 SWAP1 POP DUP6 DUP6 PUSH2 0x557 SWAP2 SWAP1 PUSH2 0xD30 JUMP JUMPDEST SWAP6 POP DUP1 SWAP5 POP DUP4 SWAP1 POP DUP4 DUP3 PUSH2 0x56B SWAP2 SWAP1 PUSH2 0xD60 JUMP JUMPDEST DUP4 PUSH2 0x576 SWAP2 SWAP1 PUSH2 0xDD6 JUMP JUMPDEST SWAP4 POP DUP1 SWAP3 POP POP POP PUSH2 0x52F JUMP JUMPDEST PUSH0 DUP2 SLT ISZERO PUSH2 0x599 JUMPI DUP5 DUP2 PUSH2 0x596 SWAP2 SWAP1 PUSH2 0xE16 JUMP JUMPDEST SWAP1 POP JUMPDEST DUP1 SWAP6 POP POP POP POP POP POP JUMPDEST SWAP2 SWAP1 POP JUMP JUMPDEST PUSH0 DUP1 DUP4 MLOAD GT PUSH2 0x5EB JUMPI PUSH1 0x40 MLOAD PUSH32 0x8C379A000000000000000000000000000000000000000000000000000000000 DUP2 MSTORE PUSH1 0x4 ADD PUSH2 0x5E2 SWAP1 PUSH2 0xEA1 JUMP JUMPDEST PUSH1 0x40 MLOAD DUP1 SWAP2 SUB SWAP1 REVERT JUMPDEST PUSH0 DUP1 PUSH1 0x1 SWAP1 POP PUSH0 JUMPDEST DUP6 MLOAD DUP2 LT ISZERO PUSH2 0x6AB JUMPI PUSH32 0xFFFFFFFFFFFFFFFFFFFFFFFFFFFFFFFFFFFFFFFFFFFFFFFFFFFFFFFFFFFFFF43 DUP1 DUP4 DUP9 DUP5 DUP2 MLOAD DUP2 LT PUSH2 0x632 JUMPI PUSH2 0x631 PUSH2 0xA88 JUMP JUMPDEST JUMPDEST PUSH1 0x20 MUL PUSH1 0x20 ADD ADD MLOAD PUSH2 0x644 SWAP2 SWAP1 PUSH2 0xB15 JUMP JUMPDEST PUSH2 0x64E SWAP2 SWAP1 PUSH2 0xB83 JUMP JUMPDEST DUP5 PUSH2 0x659 SWAP2 SWAP1 PUSH2 0xBB3 JUMP JUMPDEST PUSH2 0x663 SWAP2 SWAP1 PUSH2 0xB83 JUMP JUMPDEST SWAP3 POP PUSH32 0xFFFFFFFFFFFFFFFFFFFFFFFFFFFFFFFFFFFFFFFFFFFFFFFFFFFFFFFFFFFFFF43 DUP6 DUP4 PUSH2 0x692 SWAP2 SWAP1 PUSH2 0xB15 JUMP JUMPDEST PUSH2 0x69C SWAP2 SWAP1 PUSH2 0xB83 JUMP JUMPDEST SWAP2 POP DUP1 DUP1 PUSH1 0x1 ADD SWAP2 POP POP PUSH2 0x5F3 JUMP JUMPDEST POP DUP2 SWAP3 POP POP POP SWAP3 SWAP2 POP POP JUMP JUMPDEST PUSH0 PUSH1 0x40 MLOAD SWAP1 POP SWAP1 JUMP JUMPDEST PUSH0 DUP1 REVERT JUMPDEST PUSH0 DUP1 REVERT JUMPDEST PUSH0 DUP1 REVERT JUMPDEST PUSH0 PUSH1 0x1F NOT PUSH1 0x1F DUP4 ADD AND SWAP1 POP SWAP2 SWAP1 POP JUMP JUMPDEST PUSH32 0x4E487B7100000000000000000000000000000000000000000000000000000000 PUSH0 MSTORE PUSH1 0x41 PUSH1 0x4 MSTORE PUSH1 0x24 PUSH0 REVERT JUMPDEST PUSH2 0x712 DUP3 PUSH2 0x6CC JUMP JUMPDEST DUP2 ADD DUP2 DUP2 LT PUSH8 0xFFFFFFFFFFFFFFFF DUP3 GT OR ISZERO PUSH2 0x731 JUMPI PUSH2 0x730 PUSH2 0x6DC JUMP JUMPDEST JUMPDEST DUP1 PUSH1 0x40 MSTORE POP POP POP JUMP JUMPDEST PUSH0 PUSH2 0x743 PUSH2 0x6B7 JUMP JUMPDEST SWAP1 POP PUSH2 0x74F DUP3 DUP3 PUSH2 0x709 JUMP JUMPDEST SWAP2 SWAP1 POP JUMP JUMPDEST PUSH0 PUSH8 0xFFFFFFFFFFFFFFFF DUP3 GT ISZERO PUSH2 0x76E JUMPI PUSH2 0x76D PUSH2 0x6DC JUMP JUMPDEST JUMPDEST PUSH1 0x20 DUP3 MUL SWAP1 POP PUSH1 0x20 DUP2 ADD SWAP1 POP SWAP2 SWAP1 POP JUMP JUMPDEST PUSH0 DUP1 REVERT JUMPDEST PUSH0 DUP2 SWAP1 POP SWAP2 SWAP1 POP JUMP JUMPDEST PUSH2 0x795 DUP2 PUSH2 0x783 JUMP JUMPDEST DUP2 EQ PUSH2 0x79F JUMPI PUSH0 DUP1 REVERT JUMPDEST POP JUMP JUMPDEST PUSH0 DUP2 CALLDATALOAD SWAP1 POP PUSH2 0x7B0 DUP2 PUSH2 0x78C JUMP JUMPDEST SWAP3 SWAP2 POP POP JUMP JUMPDEST PUSH0 PUSH2 0x7C8 PUSH2 0x7C3 DUP5 PUSH2 0x754 JUMP JUMPDEST PUSH2 0x73A JUMP JUMPDEST SWAP1 POP DUP1 DUP4 DUP3 MSTORE PUSH1 0x20 DUP3 ADD SWAP1 POP PUSH1 0x20 DUP5 MUL DUP4 ADD DUP6 DUP2 GT ISZERO PUSH2 0x7EB JUMPI PUSH2 0x7EA PUSH2 0x77F JUMP JUMPDEST JUMPDEST DUP4 JUMPDEST DUP2 DUP2 LT ISZERO PUSH2 0x814 JUMPI DUP1 PUSH2 0x800 DUP9 DUP3 PUSH2 0x7A2 JUMP JUMPDEST DUP5 MSTORE PUSH1 0x20 DUP5 ADD SWAP4 POP POP PUSH1 0x20 DUP2 ADD SWAP1 POP PUSH2 0x7ED JUMP JUMPDEST POP POP POP SWAP4 SWAP3 POP POP POP JUMP JUMPDEST PUSH0 DUP3 PUSH1 0x1F DUP4 ADD SLT PUSH2 0x832 JUMPI PUSH2 0x831 PUSH2 0x6C8 JUMP JUMPDEST JUMPDEST DUP2 CALLDATALOAD PUSH2 0x842 DUP5 DUP3 PUSH1 0x20 DUP7 ADD PUSH2 0x7B6 JUMP JUMPDEST SWAP2 POP POP SWAP3 SWAP2 POP POP JUMP JUMPDEST PUSH0 DUP1 PUSH1 0x40 DUP4 DUP6 SUB SLT ISZERO PUSH2 0x861 JUMPI PUSH2 0x860 PUSH2 0x6C0 JUMP JUMPDEST JUMPDEST PUSH0 DUP4 ADD CALLDATALOAD PUSH8 0xFFFFFFFFFFFFFFFF DUP2 GT ISZERO PUSH2 0x87E JUMPI PUSH2 0x87D PUSH2 0x6C4 JUMP JUMPDEST JUMPDEST PUSH2 0x88A DUP6 DUP3 DUP7 ADD PUSH2 0x81E JUMP JUMPDEST SWAP3 POP POP PUSH1 0x20 DUP4 ADD CALLDATALOAD PUSH8 0xFFFFFFFFFFFFFFFF DUP2 GT ISZERO PUSH2 0x8AB JUMPI PUSH2 0x8AA PUSH2 0x6C4 JUMP JUMPDEST JUMPDEST PUSH2 0x8B7 DUP6 DUP3 DUP7 ADD PUSH2 0x81E JUMP JUMPDEST SWAP2 POP POP SWAP3 POP SWAP3 SWAP1 POP JUMP JUMPDEST PUSH2 0x8CA DUP2 PUSH2 0x783 JUMP JUMPDEST DUP3 MSTORE POP POP JUMP JUMPDEST PUSH0 PUSH1 0x20 DUP3 ADD SWAP1 POP PUSH2 0x8E3 PUSH0 DUP4 ADD DUP5 PUSH2 0x8C1 JUMP JUMPDEST SWAP3 SWAP2 POP POP JUMP JUMPDEST PUSH0 DUP1 PUSH0 PUSH1 0x60 DUP5 DUP7 SUB SLT ISZERO PUSH2 0x900 JUMPI PUSH2 0x8FF PUSH2 0x6C0 JUMP JUMPDEST JUMPDEST PUSH0 PUSH2 0x90D DUP7 DUP3 DUP8 ADD PUSH2 0x7A2 JUMP JUMPDEST SWAP4 POP POP PUSH1 0x20 PUSH2 0x91E DUP7 DUP3 DUP8 ADD PUSH2 0x7A2 JUMP JUMPDEST SWAP3 POP POP PUSH1 0x40 PUSH2 0x92F DUP7 DUP3 DUP8 ADD PUSH2 0x7A2 JUMP JUMPDEST SWAP2 POP POP SWAP3 POP SWAP3 POP SWAP3 JUMP JUMPDEST PUSH0 DUP2 MLOAD SWAP1 POP SWAP2 SWAP1 POP JUMP JUMPDEST PUSH0 DUP3 DUP3 MSTORE PUSH1 0x20 DUP3 ADD SWAP1 POP SWAP3 SWAP2 POP POP JUMP JUMPDEST PUSH0 DUP2 SWAP1 POP PUSH1 0x20 DUP3 ADD SWAP1 POP SWAP2 SWAP1 POP JUMP JUMPDEST PUSH2 0x96B DUP2 PUSH2 0x783 JUMP JUMPDEST DUP3 MSTORE POP POP JUMP JUMPDEST PUSH0 PUSH2 0x97C DUP4 DUP4 PUSH2 0x962 JUMP JUMPDEST PUSH1 0x20 DUP4 ADD SWAP1 POP SWAP3 SWAP2 POP POP JUMP JUMPDEST PUSH0 PUSH1 0x20 DUP3 ADD SWAP1 POP SWAP2 SWAP1 POP JUMP JUMPDEST PUSH0 PUSH2 0x99E DUP3 PUSH2 0x939 JUMP JUMPDEST PUSH2 0x9A8 DUP2 DUP6 PUSH2 0x943 JUMP JUMPDEST SWAP4 POP PUSH2 0x9B3 DUP4 PUSH2 0x953 JUMP JUMPDEST DUP1 PUSH0 JUMPDEST DUP4 DUP2 LT ISZERO PUSH2 0x9E3 JUMPI DUP2 MLOAD PUSH2 0x9CA DUP9 DUP3 PUSH2 0x971 JUMP JUMPDEST SWAP8 POP PUSH2 0x9D5 DUP4 PUSH2 0x988 JUMP JUMPDEST SWAP3 POP POP PUSH1 0x1 DUP2 ADD SWAP1 POP PUSH2 0x9B6 JUMP JUMPDEST POP DUP6 SWAP4 POP POP POP POP SWAP3 SWAP2 POP POP JUMP JUMPDEST PUSH0 PUSH1 0x20 DUP3 ADD SWAP1 POP DUP2 DUP2 SUB PUSH0 DUP4 ADD MSTORE PUSH2 0xA08 DUP2 DUP5 PUSH2 0x994 JUMP JUMPDEST SWAP1 POP SWAP3 SWAP2 POP POP JUMP JUMPDEST PUSH0 DUP3 DUP3 MSTORE PUSH1 0x20 DUP3 ADD SWAP1 POP SWAP3 SWAP2 POP POP JUMP JUMPDEST PUSH32 0x496E76616C696420696E70757400000000000000000000000000000000000000 PUSH0 DUP3 ADD MSTORE POP JUMP JUMPDEST PUSH0 PUSH2 0xA54 PUSH1 0xD DUP4 PUSH2 0xA10 JUMP JUMPDEST SWAP2 POP PUSH2 0xA5F DUP3 PUSH2 0xA20 JUMP JUMPDEST PUSH1 0x20 DUP3 ADD SWAP1 POP SWAP2 SWAP1 POP JUMP JUMPDEST PUSH0 PUSH1 0x20 DUP3 ADD SWAP1 POP DUP2 DUP2 SUB PUSH0 DUP4 ADD MSTORE PUSH2 0xA81 DUP2 PUSH2 0xA48 JUMP JUMPDEST SWAP1 POP SWAP2 SWAP1 POP JUMP JUMPDEST PUSH32 0x4E487B7100000000000000000000000000000000000000000000000000000000 PUSH0 MSTORE PUSH1 0x32 PUSH1 0x4 MSTORE PUSH1 0x24 PUSH0 REVERT JUMPDEST PUSH32 0x4E487B7100000000000000000000000000000000000000000000000000000000 PUSH0 MSTORE PUSH1 0x11 PUSH1 0x4 MSTORE PUSH1 0x24 PUSH0 REVERT JUMPDEST PUSH0 PUSH2 0xAEC DUP3 PUSH2 0x783 JUMP JUMPDEST SWAP2 POP PUSH2 0xAF7 DUP4 PUSH2 0x783 JUMP JUMPDEST SWAP3 POP DUP3 DUP3 SUB SWAP1 POP DUP2 DUP2 GT ISZERO PUSH2 0xB0F JUMPI PUSH2 0xB0E PUSH2 0xAB5 JUMP JUMPDEST JUMPDEST SWAP3 SWAP2 POP POP JUMP JUMPDEST PUSH0 PUSH2 0xB1F DUP3 PUSH2 0x783 JUMP JUMPDEST SWAP2 POP PUSH2 0xB2A DUP4 PUSH2 0x783 JUMP JUMPDEST SWAP3 POP DUP3 DUP3 MUL PUSH2 0xB38 DUP2 PUSH2 0x783 JUMP JUMPDEST SWAP2 POP DUP3 DUP3 DIV DUP5 EQ DUP4 ISZERO OR PUSH2 0xB4F JUMPI PUSH2 0xB4E PUSH2 0xAB5 JUMP JUMPDEST JUMPDEST POP SWAP3 SWAP2 POP POP JUMP JUMPDEST PUSH32 0x4E487B7100000000000000000000000000000000000000000000000000000000 PUSH0 MSTORE PUSH1 0x12 PUSH1 0x4 MSTORE PUSH1 0x24 PUSH0 REVERT JUMPDEST PUSH0 PUSH2 0xB8D DUP3 PUSH2 0x783 JUMP JUMPDEST SWAP2 POP PUSH2 0xB98 DUP4 PUSH2 0x783 JUMP JUMPDEST SWAP3 POP DUP3 PUSH2 0xBA8 JUMPI PUSH2 0xBA7 PUSH2 0xB56 JUMP JUMPDEST JUMPDEST DUP3 DUP3 MOD SWAP1 POP SWAP3 SWAP2 POP POP JUMP JUMPDEST PUSH0 PUSH2 0xBBD DUP3 PUSH2 0x783 JUMP JUMPDEST SWAP2 POP PUSH2 0xBC8 DUP4 PUSH2 0x783 JUMP JUMPDEST SWAP3 POP DUP3 DUP3 ADD SWAP1 POP DUP1 DUP3 GT ISZERO PUSH2 0xBE0 JUMPI PUSH2 0xBDF PUSH2 0xAB5 JUMP JUMPDEST JUMPDEST SWAP3 SWAP2 POP POP JUMP JUMPDEST PUSH32 0x496E76616C6964207468726573686F6C64206F72206E756D626572206F662073 PUSH0 DUP3 ADD MSTORE PUSH32 0x6861726573000000000000000000000000000000000000000000000000000000 PUSH1 0x20 DUP3 ADD MSTORE POP JUMP JUMPDEST PUSH0 PUSH2 0xC40 PUSH1 0x25 DUP4 PUSH2 0xA10 JUMP JUMPDEST SWAP2 POP PUSH2 0xC4B DUP3 PUSH2 0xBE6 JUMP JUMPDEST PUSH1 0x40 DUP3 ADD SWAP1 POP SWAP2 SWAP1 POP JUMP JUMPDEST PUSH0 PUSH1 0x20 DUP3 ADD SWAP1 POP DUP2 DUP2 SUB PUSH0 DUP4 ADD MSTORE PUSH2 0xC6D DUP2 PUSH2 0xC34 JUMP JUMPDEST SWAP1 POP SWAP2 SWAP1 POP JUMP JUMPDEST PUSH0 DUP2 SWAP1 POP SWAP2 SWAP1 POP JUMP JUMPDEST PUSH2 0xC8E PUSH2 0xC89 DUP3 PUSH2 0x783 JUMP JUMPDEST PUSH2 0xC74 JUMP JUMPDEST DUP3 MSTORE POP POP JUMP JUMPDEST PUSH0 PUSH2 0xC9F DUP3 DUP6 PUSH2 0xC7D JUMP JUMPDEST PUSH1 0x20 DUP3 ADD SWAP2 POP PUSH2 0xCAF DUP3 DUP5 PUSH2 0xC7D JUMP JUMPDEST PUSH1 0x20 DUP3 ADD SWAP2 POP DUP2 SWAP1 POP SWAP4 SWAP3 POP POP POP JUMP JUMPDEST PUSH0 DUP2 SWAP1 POP SWAP2 SWAP1 POP JUMP JUMPDEST PUSH0 PUSH2 0xCD2 DUP3 PUSH2 0xCBF JUMP JUMPDEST SWAP2 POP PUSH2 0xCDD DUP4 PUSH2 0xCBF JUMP JUMPDEST SWAP3 POP DUP3 PUSH2 0xCED JUMPI PUSH2 0xCEC PUSH2 0xB56 JUMP JUMPDEST JUMPDEST PUSH1 0x1 PUSH0 SUB DUP4 EQ PUSH32 0x8000000000000000000000000000000000000000000000000000000000000000 DUP4 EQ AND ISZERO PUSH2 0xD25 JUMPI PUSH2 0xD24 PUSH2 0xAB5 JUMP JUMPDEST JUMPDEST DUP3 DUP3 SDIV SWAP1 POP SWAP3 SWAP2 POP POP JUMP JUMPDEST PUSH0 PUSH2 0xD3A DUP3 PUSH2 0xCBF JUMP JUMPDEST SWAP2 POP PUSH2 0xD45 DUP4 PUSH2 0xCBF JUMP JUMPDEST SWAP3 POP DUP3 PUSH2 0xD55 JUMPI PUSH2 0xD54 PUSH2 0xB56 JUMP JUMPDEST JUMPDEST DUP3 DUP3 SMOD SWAP1 POP SWAP3 SWAP2 POP POP JUMP JUMPDEST PUSH0 PUSH2 0xD6A DUP3 PUSH2 0xCBF JUMP JUMPDEST SWAP2 POP PUSH2 0xD75 DUP4 PUSH2 0xCBF JUMP JUMPDEST SWAP3 POP DUP3 DUP3 MUL PUSH2 0xD83 DUP2 PUSH2 0xCBF JUMP JUMPDEST SWAP2 POP PUSH32 0x8000000000000000000000000000000000000000000000000000000000000000 DUP5 EQ PUSH0 DUP5 SLT AND ISZERO PUSH2 0xDBA JUMPI PUSH2 0xDB9 PUSH2 0xAB5 JUMP JUMPDEST JUMPDEST DUP3 DUP3 SDIV DUP5 EQ DUP4 ISZERO OR PUSH2 0xDCF JUMPI PUSH2 0xDCE PUSH2 0xAB5 JUMP JUMPDEST JUMPDEST POP SWAP3 SWAP2 POP POP JUMP JUMPDEST PUSH0 PUSH2 0xDE0 DUP3 PUSH2 0xCBF JUMP JUMPDEST SWAP2 POP PUSH2 0xDEB DUP4 PUSH2 0xCBF JUMP JUMPDEST SWAP3 POP DUP3 DUP3 SUB SWAP1 POP DUP2 DUP2 SLT PUSH0 DUP5 SLT AND DUP3 DUP3 SGT PUSH0 DUP6 SLT ISZERO AND OR ISZERO PUSH2 0xE10 JUMPI PUSH2 0xE0F PUSH2 0xAB5 JUMP JUMPDEST JUMPDEST SWAP3 SWAP2 POP POP JUMP JUMPDEST PUSH0 PUSH2 0xE20 DUP3 PUSH2 0xCBF JUMP JUMPDEST SWAP2 POP PUSH2 0xE2B DUP4 PUSH2 0xCBF JUMP JUMPDEST SWAP3 POP DUP3 DUP3 ADD SWAP1 POP DUP3 DUP2 SLT ISZERO PUSH0 DUP4 SLT AND DUP4 DUP3 SLT PUSH0 DUP5 SLT ISZERO AND OR ISZERO PUSH2 0xE51 JUMPI PUSH2 0xE50 PUSH2 0xAB5 JUMP JUMPDEST JUMPDEST SWAP3 SWAP2 POP POP JUMP JUMPDEST PUSH32 0x4E6F20636F656666696369656E74732070726F76696465640000000000000000 PUSH0 DUP3 ADD MSTORE POP JUMP JUMPDEST PUSH0 PUSH2 0xE8B PUSH1 0x18 DUP4 PUSH2 0xA10 JUMP JUMPDEST SWAP2 POP PUSH2 0xE96 DUP3 PUSH2 0xE57 JUMP JUMPDEST PUSH1 0x20 DUP3 ADD SWAP1 POP SWAP2 SWAP1 POP JUMP JUMPDEST PUSH0 PUSH1 0x20 DUP3 ADD SWAP1 POP DUP2 DUP2 SUB PUSH0 DUP4 ADD MSTORE PUSH2 0xEB8 DUP2 PUSH2 0xE7F JUMP JUMPDEST SWAP1 POP SWAP2 SWAP1 POP JUMP INVALID LOG2 PUSH5 0x6970667358 0x22 SLT KECCAK256 0xFC PUSH21 0x2ACF3D17FAF086F83DC3861DBBF0D05034136B9FD6 SWAP3 BASEFEE 0x2F 0xBB EXTCODECOPY PUSH14 0xF9314A64736F6C63430008190033 "
		},
		"gasEstimates": {
			"creation": {
				"codeDepositCost": "765800",
				"executionCost": "797",
				"totalCost": "766597"
			},
			"external": {
				"generateShares(uint256,uint256,uint256)": "infinite",
				"prime()": "347",
				"reconstructSecret(uint256[],uint256[])": "infinite"
			},
			"internal": {
				"evaluatePolynomial(uint256[] memory,uint256)": "infinite",
				"modInverse(uint256)": "infinite"
			}
		},
		"methodIdentifiers": {
			"generateShares(uint256,uint256,uint256)": "b4df6f00",
			"prime()": "c7ee005e",
			"reconstructSecret(uint256[],uint256[])": "39430740"
		}
	},
	"abi": [
		{
			"inputs": [
				{
					"internalType": "uint256",
					"name": "secret",
					"type": "uint256"
				},
				{
					"internalType": "uint256",
					"name": "threshold",
					"type": "uint256"
				},
				{
					"internalType": "uint256",
					"name": "numShares",
					"type": "uint256"
				}
			],
			"name": "generateShares",
			"outputs": [
				{
					"internalType": "uint256[]",
					"name": "",
					"type": "uint256[]"
				}
			],
			"stateMutability": "pure",
			"type": "function"
		},
		{
			"inputs": [],
			"name": "prime",
			"outputs": [
				{
					"internalType": "uint256",
					"name": "",
					"type": "uint256"
				}
			],
			"stateMutability": "view",
			"type": "function"
		},
		{
			"inputs": [
				{
					"internalType": "uint256[]",
					"name": "shares",
					"type": "uint256[]"
				},
				{
					"internalType": "uint256[]",
					"name": "indices",
					"type": "uint256[]"
				}
			],
			"name": "reconstructSecret",
			"outputs": [
				{
					"internalType": "uint256",
					"name": "",
					"type": "uint256"
				}
			],
			"stateMutability": "pure",
			"type": "function"
		}
	]
}