{
	"data": {
		"bytecode": {
			"linkReferences": {},
			"object": "608060405234801561000f575f80fd5b5061147d8061001d5f395ff3fe608060405234801561000f575f80fd5b5060043610610034575f3560e01c8063072c0aee146100385780638d45eb2e14610068575b5f80fd5b610052600480360381019061004d9190610b65565b610098565b60405161005f9190610d27565b60405180910390f35b610082600480360381019061007d9190610f75565b6102f6565b60405161008f9190610fcb565b60405180910390f35b6060818311156100dd576040517f08c379a00000000000000000000000000000000000000000000000000000000081526004016100d490611064565b60405180910390fd5b5f8367ffffffffffffffff8111156100f8576100f7610d5b565b5b6040519080825280602002602001820160405280156101265781602001602082028036833780820191505090505b50905084815f8151811061013d5761013c611082565b5b6020026020010181815250505f63deadbeef90505f600190505b858110156101e057808218915060016f7fffffffffffffffffffffffffffffff61018191906110dc565b82604051602001610192919061112f565b604051602081830303815290604052805190602001205f1c6101b49190611176565b8382815181106101c7576101c6611082565b5b6020026020010181815250508080600101915050610157565b505f8467ffffffffffffffff8111156101fc576101fb610d5b565b5b60405190808252806020026020018201604052801561022f57816020015b606081526020019060019003908161021a5790505b5090505f600190505b8581116102e857808260018361024e91906110dc565b8151811061025f5761025e611082565b5b60200260200101515f8151811061027957610278611082565b5b60200260200101818152505061028f84826104ac565b8260018361029d91906110dc565b815181106102ae576102ad611082565b5b60200260200101516001815181106102c9576102c8611082565b5b60200260200101818152505080806102e0906111a6565b915050610238565b508093505050509392505050565b5f60038251101561033c576040517f08c379a000000000000000000000000000000000000000000000000000000000815260040161033390611237565b60405180910390fd5b5f825167ffffffffffffffff81111561035857610357610d5b565b5b6040519080825280602002602001820160405280156103865781602001602082028036833780820191505090505b5090505f835167ffffffffffffffff8111156103a5576103a4610d5b565b5b6040519080825280602002602001820160405280156103d35781602001602082028036833780820191505090505b5090505f5b8451811015610497578481815181106103f4576103f3611082565b5b60200260200101515f8151811061040e5761040d611082565b5b602002602001015183828151811061042957610428611082565b5b60200260200101818152505084818151811061044857610447611082565b5b602002602001015160018151811061046357610462611082565b5b602002602001015182828151811061047e5761047d611082565b5b60200260200101818152505080806001019150506103d8565b506104a35f838361053a565b92505050919050565b5f805f90505f845190505b5f81111561052f57846001826104cd91906110dc565b815181106104de576104dd611082565b5b602002602001015184836104f29190611255565b6104fc9190611296565b91506f7fffffffffffffffffffffffffffffff8261051a9190611176565b91508080610527906112c9565b9150506104b7565b508091505092915050565b5f815183511461057f576040517f08c379a00000000000000000000000000000000000000000000000000000000081526004016105769061133a565b60405180910390fd5b5f835190505f805f8367ffffffffffffffff8111156105a1576105a0610d5b565b5b6040519080825280602002602001820160405280156105cf5781602001602082028036833780820191505090505b5090505f8467ffffffffffffffff8111156105ed576105ec610d5b565b5b60405190808252806020026020018201604052801561061b5781602001602082028036833780820191505090505b5090505f5b858110156108a9575f60018761063691906110dc565b67ffffffffffffffff81111561064f5761064e610d5b565b5b60405190808252806020026020018201604052801561067d5781602001602082028036833780820191505090505b5090505f8a838151811061069457610693611082565b5b602002602001015190505f805b89811015610704578481146106f7578c81815181106106c3576106c2611082565b5b60200260200101518483806106d7906111a6565b9450815181106106ea576106e9611082565b5b6020026020010181815250505b80806001019150506106a1565b50600186858151811061071a57610719611082565b5b6020026020010181815250505f5b60018a61073591906110dc565b8110156107ce576f7fffffffffffffffffffffffffffffff8482815181106107605761075f611082565b5b60200260200101518f61077391906110dc565b88878151811061078657610785611082565b5b60200260200101516107989190611255565b6107a29190611176565b8786815181106107b5576107b4611082565b5b6020026020010181815250508080600101915050610728565b5060018585815181106107e4576107e3611082565b5b6020026020010181815250505f5b60018a6107ff91906110dc565b811015610898576f7fffffffffffffffffffffffffffffff84828151811061082a57610829611082565b5b60200260200101518461083d91906110dc565b8787815181106108505761084f611082565b5b60200260200101516108629190611255565b61086c9190611176565b86868151811061087f5761087e611082565b5b60200260200101818152505080806001019150506107f2565b505050508080600101915050610620565b505f5b85811015610a28576f7fffffffffffffffffffffffffffffff6109836f7fffffffffffffffffffffffffffffff8a84815181106108ec576108eb611082565b5b60200260200101516f7fffffffffffffffffffffffffffffff86868151811061091857610917611082565b5b602002602001015188878151811061093357610932611082565b5b60200260200101516109459190611255565b61094f9190611176565b6109599190611255565b6109639190611176565b84848151811061097657610975611082565b5b6020026020010151610a41565b8661098e9190611296565b6109989190611176565b94506f7fffffffffffffffffffffffffffffff6109e98483815181106109c1576109c0611082565b5b60200260200101518484815181106109dc576109db611082565b5b6020026020010151610a41565b6f7fffffffffffffffffffffffffffffff86610a059190611296565b610a0f91906110dc565b610a199190611176565b935080806001019150506108ac565b50610a338484610a41565b955050505050509392505050565b5f80610a5d836f7fffffffffffffffffffffffffffffff610a90565b5090506f7fffffffffffffffffffffffffffffff8185610a7d9190611255565b610a879190611176565b91505092915050565b5f805f80600190505f600190505f5b5f8714610b10575f8789610ab39190611358565b905087888a610ac29190611176565b809950819a5050508481610ad69190611391565b84610ae19190611407565b8580955081965050508281610af69190611391565b82610b019190611407565b83809350819450505050610a9f565b828195509550505050509250929050565b5f604051905090565b5f80fd5b5f80fd5b5f819050919050565b610b4481610b32565b8114610b4e575f80fd5b50565b5f81359050610b5f81610b3b565b92915050565b5f805f60608486031215610b7c57610b7b610b2a565b5b5f610b8986828701610b51565b9350506020610b9a86828701610b51565b9250506040610bab86828701610b51565b9150509250925092565b5f81519050919050565b5f82825260208201905092915050565b5f819050602082019050919050565b5f81519050919050565b5f82825260208201905092915050565b5f819050602082019050919050565b610c1081610b32565b82525050565b5f610c218383610c07565b60208301905092915050565b5f602082019050919050565b5f610c4382610bde565b610c4d8185610be8565b9350610c5883610bf8565b805f5b83811015610c88578151610c6f8882610c16565b9750610c7a83610c2d565b925050600181019050610c5b565b5085935050505092915050565b5f610ca08383610c39565b905092915050565b5f602082019050919050565b5f610cbe82610bb5565b610cc88185610bbf565b935083602082028501610cda85610bcf565b805f5b85811015610d155784840389528151610cf68582610c95565b9450610d0183610ca8565b925060208a01995050600181019050610cdd565b50829750879550505050505092915050565b5f6020820190508181035f830152610d3f8184610cb4565b905092915050565b5f80fd5b5f601f19601f8301169050919050565b7f4e487b71000000000000000000000000000000000000000000000000000000005f52604160045260245ffd5b610d9182610d4b565b810181811067ffffffffffffffff82111715610db057610daf610d5b565b5b80604052505050565b5f610dc2610b21565b9050610dce8282610d88565b919050565b5f67ffffffffffffffff821115610ded57610dec610d5b565b5b602082029050602081019050919050565b5f80fd5b5f67ffffffffffffffff821115610e1c57610e1b610d5b565b5b602082029050602081019050919050565b5f610e3f610e3a84610e02565b610db9565b90508083825260208201905060208402830185811115610e6257610e61610dfe565b5b835b81811015610e8b5780610e778882610b51565b845260208401935050602081019050610e64565b5050509392505050565b5f82601f830112610ea957610ea8610d47565b5b8135610eb9848260208601610e2d565b91505092915050565b5f610ed4610ecf84610dd3565b610db9565b90508083825260208201905060208402830185811115610ef757610ef6610dfe565b5b835b81811015610f3e57803567ffffffffffffffff811115610f1c57610f1b610d47565b5b808601610f298982610e95565b85526020850194505050602081019050610ef9565b5050509392505050565b5f82601f830112610f5c57610f5b610d47565b5b8135610f6c848260208601610ec2565b91505092915050565b5f60208284031215610f8a57610f89610b2a565b5b5f82013567ffffffffffffffff811115610fa757610fa6610b2e565b5b610fb384828501610f48565b91505092915050565b610fc581610b32565b82525050565b5f602082019050610fde5f830184610fbc565b92915050565b5f82825260208201905092915050565b7f4d696e696d756d2073686f756c64206265206c657373207468616e206f7220655f8201527f7175616c20746f20736861726573000000000000000000000000000000000000602082015250565b5f61104e602e83610fe4565b915061105982610ff4565b604082019050919050565b5f6020820190508181035f83015261107b81611042565b9050919050565b7f4e487b71000000000000000000000000000000000000000000000000000000005f52603260045260245ffd5b7f4e487b71000000000000000000000000000000000000000000000000000000005f52601160045260245ffd5b5f6110e682610b32565b91506110f183610b32565b9250828203905081811115611109576111086110af565b5b92915050565b5f819050919050565b61112961112482610b32565b61110f565b82525050565b5f61113a8284611118565b60208201915081905092915050565b7f4e487b71000000000000000000000000000000000000000000000000000000005f52601260045260245ffd5b5f61118082610b32565b915061118b83610b32565b92508261119b5761119a611149565b5b828206905092915050565b5f6111b082610b32565b91507fffffffffffffffffffffffffffffffffffffffffffffffffffffffffffffffff82036111e2576111e16110af565b5b600182019050919050565b7f4e656564206174206c65617374207468726565207368617265730000000000005f82015250565b5f611221601a83610fe4565b915061122c826111ed565b602082019050919050565b5f6020820190508181035f83015261124e81611215565b9050919050565b5f61125f82610b32565b915061126a83610b32565b925082820261127881610b32565b9150828204841483151761128f5761128e6110af565b5b5092915050565b5f6112a082610b32565b91506112ab83610b32565b92508282019050808211156112c3576112c26110af565b5b92915050565b5f6112d382610b32565b91505f82036112e5576112e46110af565b5b600182039050919050565b7f4172726179732073686f756c64206861766520657175616c206c656e677468005f82015250565b5f611324601f83610fe4565b915061132f826112f0565b602082019050919050565b5f6020820190508181035f83015261135181611318565b9050919050565b5f61136282610b32565b915061136d83610b32565b92508261137d5761137c611149565b5b828204905092915050565b5f819050919050565b5f61139b82611388565b91506113a683611388565b92508282026113b481611388565b91507f800000000000000000000000000000000000000000000000000000000000000084145f841216156113eb576113ea6110af565b5b8282058414831517611400576113ff6110af565b5b5092915050565b5f61141182611388565b915061141c83611388565b925082820390508181125f8412168282135f851215161715611441576114406110af565b5b9291505056fea26469706673582212201f1f9ab05c0497f4e4cf58bc2fe16d974973ae4c810e43287b4b5740c0466a6164736f6c63430008180033",
			"opcodes": "PUSH1 0x80 PUSH1 0x40 MSTORE CALLVALUE DUP1 ISZERO PUSH2 0xF JUMPI PUSH0 DUP1 REVERT JUMPDEST POP PUSH2 0x147D DUP1 PUSH2 0x1D PUSH0 CODECOPY PUSH0 RETURN INVALID PUSH1 0x80 PUSH1 0x40 MSTORE CALLVALUE DUP1 ISZERO PUSH2 0xF JUMPI PUSH0 DUP1 REVERT JUMPDEST POP PUSH1 0x4 CALLDATASIZE LT PUSH2 0x34 JUMPI PUSH0 CALLDATALOAD PUSH1 0xE0 SHR DUP1 PUSH4 0x72C0AEE EQ PUSH2 0x38 JUMPI DUP1 PUSH4 0x8D45EB2E EQ PUSH2 0x68 JUMPI JUMPDEST PUSH0 DUP1 REVERT JUMPDEST PUSH2 0x52 PUSH1 0x4 DUP1 CALLDATASIZE SUB DUP2 ADD SWAP1 PUSH2 0x4D SWAP2 SWAP1 PUSH2 0xB65 JUMP JUMPDEST PUSH2 0x98 JUMP JUMPDEST PUSH1 0x40 MLOAD PUSH2 0x5F SWAP2 SWAP1 PUSH2 0xD27 JUMP JUMPDEST PUSH1 0x40 MLOAD DUP1 SWAP2 SUB SWAP1 RETURN JUMPDEST PUSH2 0x82 PUSH1 0x4 DUP1 CALLDATASIZE SUB DUP2 ADD SWAP1 PUSH2 0x7D SWAP2 SWAP1 PUSH2 0xF75 JUMP JUMPDEST PUSH2 0x2F6 JUMP JUMPDEST PUSH1 0x40 MLOAD PUSH2 0x8F SWAP2 SWAP1 PUSH2 0xFCB JUMP JUMPDEST PUSH1 0x40 MLOAD DUP1 SWAP2 SUB SWAP1 RETURN JUMPDEST PUSH1 0x60 DUP2 DUP4 GT ISZERO PUSH2 0xDD JUMPI PUSH1 0x40 MLOAD PUSH32 0x8C379A000000000000000000000000000000000000000000000000000000000 DUP2 MSTORE PUSH1 0x4 ADD PUSH2 0xD4 SWAP1 PUSH2 0x1064 JUMP JUMPDEST PUSH1 0x40 MLOAD DUP1 SWAP2 SUB SWAP1 REVERT JUMPDEST PUSH0 DUP4 PUSH8 0xFFFFFFFFFFFFFFFF DUP2 GT ISZERO PUSH2 0xF8 JUMPI PUSH2 0xF7 PUSH2 0xD5B JUMP JUMPDEST JUMPDEST PUSH1 0x40 MLOAD SWAP1 DUP1 DUP3 MSTORE DUP1 PUSH1 0x20 MUL PUSH1 0x20 ADD DUP3 ADD PUSH1 0x40 MSTORE DUP1 ISZERO PUSH2 0x126 JUMPI DUP2 PUSH1 0x20 ADD PUSH1 0x20 DUP3 MUL DUP1 CALLDATASIZE DUP4 CALLDATACOPY DUP1 DUP3 ADD SWAP2 POP POP SWAP1 POP JUMPDEST POP SWAP1 POP DUP5 DUP2 PUSH0 DUP2 MLOAD DUP2 LT PUSH2 0x13D JUMPI PUSH2 0x13C PUSH2 0x1082 JUMP JUMPDEST JUMPDEST PUSH1 0x20 MUL PUSH1 0x20 ADD ADD DUP2 DUP2 MSTORE POP POP PUSH0 PUSH4 0xDEADBEEF SWAP1 POP PUSH0 PUSH1 0x1 SWAP1 POP JUMPDEST DUP6 DUP2 LT ISZERO PUSH2 0x1E0 JUMPI DUP1 DUP3 XOR SWAP2 POP PUSH1 0x1 PUSH16 0x7FFFFFFFFFFFFFFFFFFFFFFFFFFFFFFF PUSH2 0x181 SWAP2 SWAP1 PUSH2 0x10DC JUMP JUMPDEST DUP3 PUSH1 0x40 MLOAD PUSH1 0x20 ADD PUSH2 0x192 SWAP2 SWAP1 PUSH2 0x112F JUMP JUMPDEST PUSH1 0x40 MLOAD PUSH1 0x20 DUP2 DUP4 SUB SUB DUP2 MSTORE SWAP1 PUSH1 0x40 MSTORE DUP1 MLOAD SWAP1 PUSH1 0x20 ADD KECCAK256 PUSH0 SHR PUSH2 0x1B4 SWAP2 SWAP1 PUSH2 0x1176 JUMP JUMPDEST DUP4 DUP3 DUP2 MLOAD DUP2 LT PUSH2 0x1C7 JUMPI PUSH2 0x1C6 PUSH2 0x1082 JUMP JUMPDEST JUMPDEST PUSH1 0x20 MUL PUSH1 0x20 ADD ADD DUP2 DUP2 MSTORE POP POP DUP1 DUP1 PUSH1 0x1 ADD SWAP2 POP POP PUSH2 0x157 JUMP JUMPDEST POP PUSH0 DUP5 PUSH8 0xFFFFFFFFFFFFFFFF DUP2 GT ISZERO PUSH2 0x1FC JUMPI PUSH2 0x1FB PUSH2 0xD5B JUMP JUMPDEST JUMPDEST PUSH1 0x40 MLOAD SWAP1 DUP1 DUP3 MSTORE DUP1 PUSH1 0x20 MUL PUSH1 0x20 ADD DUP3 ADD PUSH1 0x40 MSTORE DUP1 ISZERO PUSH2 0x22F JUMPI DUP2 PUSH1 0x20 ADD JUMPDEST PUSH1 0x60 DUP2 MSTORE PUSH1 0x20 ADD SWAP1 PUSH1 0x1 SWAP1 SUB SWAP1 DUP2 PUSH2 0x21A JUMPI SWAP1 POP JUMPDEST POP SWAP1 POP PUSH0 PUSH1 0x1 SWAP1 POP JUMPDEST DUP6 DUP2 GT PUSH2 0x2E8 JUMPI DUP1 DUP3 PUSH1 0x1 DUP4 PUSH2 0x24E SWAP2 SWAP1 PUSH2 0x10DC JUMP JUMPDEST DUP2 MLOAD DUP2 LT PUSH2 0x25F JUMPI PUSH2 0x25E PUSH2 0x1082 JUMP JUMPDEST JUMPDEST PUSH1 0x20 MUL PUSH1 0x20 ADD ADD MLOAD PUSH0 DUP2 MLOAD DUP2 LT PUSH2 0x279 JUMPI PUSH2 0x278 PUSH2 0x1082 JUMP JUMPDEST JUMPDEST PUSH1 0x20 MUL PUSH1 0x20 ADD ADD DUP2 DUP2 MSTORE POP POP PUSH2 0x28F DUP5 DUP3 PUSH2 0x4AC JUMP JUMPDEST DUP3 PUSH1 0x1 DUP4 PUSH2 0x29D SWAP2 SWAP1 PUSH2 0x10DC JUMP JUMPDEST DUP2 MLOAD DUP2 LT PUSH2 0x2AE JUMPI PUSH2 0x2AD PUSH2 0x1082 JUMP JUMPDEST JUMPDEST PUSH1 0x20 MUL PUSH1 0x20 ADD ADD MLOAD PUSH1 0x1 DUP2 MLOAD DUP2 LT PUSH2 0x2C9 JUMPI PUSH2 0x2C8 PUSH2 0x1082 JUMP JUMPDEST JUMPDEST PUSH1 0x20 MUL PUSH1 0x20 ADD ADD DUP2 DUP2 MSTORE POP POP DUP1 DUP1 PUSH2 0x2E0 SWAP1 PUSH2 0x11A6 JUMP JUMPDEST SWAP2 POP POP PUSH2 0x238 JUMP JUMPDEST POP DUP1 SWAP4 POP POP POP POP SWAP4 SWAP3 POP POP POP JUMP JUMPDEST PUSH0 PUSH1 0x3 DUP3 MLOAD LT ISZERO PUSH2 0x33C JUMPI PUSH1 0x40 MLOAD PUSH32 0x8C379A000000000000000000000000000000000000000000000000000000000 DUP2 MSTORE PUSH1 0x4 ADD PUSH2 0x333 SWAP1 PUSH2 0x1237 JUMP JUMPDEST PUSH1 0x40 MLOAD DUP1 SWAP2 SUB SWAP1 REVERT JUMPDEST PUSH0 DUP3 MLOAD PUSH8 0xFFFFFFFFFFFFFFFF DUP2 GT ISZERO PUSH2 0x358 JUMPI PUSH2 0x357 PUSH2 0xD5B JUMP JUMPDEST JUMPDEST PUSH1 0x40 MLOAD SWAP1 DUP1 DUP3 MSTORE DUP1 PUSH1 0x20 MUL PUSH1 0x20 ADD DUP3 ADD PUSH1 0x40 MSTORE DUP1 ISZERO PUSH2 0x386 JUMPI DUP2 PUSH1 0x20 ADD PUSH1 0x20 DUP3 MUL DUP1 CALLDATASIZE DUP4 CALLDATACOPY DUP1 DUP3 ADD SWAP2 POP POP SWAP1 POP JUMPDEST POP SWAP1 POP PUSH0 DUP4 MLOAD PUSH8 0xFFFFFFFFFFFFFFFF DUP2 GT ISZERO PUSH2 0x3A5 JUMPI PUSH2 0x3A4 PUSH2 0xD5B JUMP JUMPDEST JUMPDEST PUSH1 0x40 MLOAD SWAP1 DUP1 DUP3 MSTORE DUP1 PUSH1 0x20 MUL PUSH1 0x20 ADD DUP3 ADD PUSH1 0x40 MSTORE DUP1 ISZERO PUSH2 0x3D3 JUMPI DUP2 PUSH1 0x20 ADD PUSH1 0x20 DUP3 MUL DUP1 CALLDATASIZE DUP4 CALLDATACOPY DUP1 DUP3 ADD SWAP2 POP POP SWAP1 POP JUMPDEST POP SWAP1 POP PUSH0 JUMPDEST DUP5 MLOAD DUP2 LT ISZERO PUSH2 0x497 JUMPI DUP5 DUP2 DUP2 MLOAD DUP2 LT PUSH2 0x3F4 JUMPI PUSH2 0x3F3 PUSH2 0x1082 JUMP JUMPDEST JUMPDEST PUSH1 0x20 MUL PUSH1 0x20 ADD ADD MLOAD PUSH0 DUP2 MLOAD DUP2 LT PUSH2 0x40E JUMPI PUSH2 0x40D PUSH2 0x1082 JUMP JUMPDEST JUMPDEST PUSH1 0x20 MUL PUSH1 0x20 ADD ADD MLOAD DUP4 DUP3 DUP2 MLOAD DUP2 LT PUSH2 0x429 JUMPI PUSH2 0x428 PUSH2 0x1082 JUMP JUMPDEST JUMPDEST PUSH1 0x20 MUL PUSH1 0x20 ADD ADD DUP2 DUP2 MSTORE POP POP DUP5 DUP2 DUP2 MLOAD DUP2 LT PUSH2 0x448 JUMPI PUSH2 0x447 PUSH2 0x1082 JUMP JUMPDEST JUMPDEST PUSH1 0x20 MUL PUSH1 0x20 ADD ADD MLOAD PUSH1 0x1 DUP2 MLOAD DUP2 LT PUSH2 0x463 JUMPI PUSH2 0x462 PUSH2 0x1082 JUMP JUMPDEST JUMPDEST PUSH1 0x20 MUL PUSH1 0x20 ADD ADD MLOAD DUP3 DUP3 DUP2 MLOAD DUP2 LT PUSH2 0x47E JUMPI PUSH2 0x47D PUSH2 0x1082 JUMP JUMPDEST JUMPDEST PUSH1 0x20 MUL PUSH1 0x20 ADD ADD DUP2 DUP2 MSTORE POP POP DUP1 DUP1 PUSH1 0x1 ADD SWAP2 POP POP PUSH2 0x3D8 JUMP JUMPDEST POP PUSH2 0x4A3 PUSH0 DUP4 DUP4 PUSH2 0x53A JUMP JUMPDEST SWAP3 POP POP POP SWAP2 SWAP1 POP JUMP JUMPDEST PUSH0 DUP1 PUSH0 SWAP1 POP PUSH0 DUP5 MLOAD SWAP1 POP JUMPDEST PUSH0 DUP2 GT ISZERO PUSH2 0x52F JUMPI DUP5 PUSH1 0x1 DUP3 PUSH2 0x4CD SWAP2 SWAP1 PUSH2 0x10DC JUMP JUMPDEST DUP2 MLOAD DUP2 LT PUSH2 0x4DE JUMPI PUSH2 0x4DD PUSH2 0x1082 JUMP JUMPDEST JUMPDEST PUSH1 0x20 MUL PUSH1 0x20 ADD ADD MLOAD DUP5 DUP4 PUSH2 0x4F2 SWAP2 SWAP1 PUSH2 0x1255 JUMP JUMPDEST PUSH2 0x4FC SWAP2 SWAP1 PUSH2 0x1296 JUMP JUMPDEST SWAP2 POP PUSH16 0x7FFFFFFFFFFFFFFFFFFFFFFFFFFFFFFF DUP3 PUSH2 0x51A SWAP2 SWAP1 PUSH2 0x1176 JUMP JUMPDEST SWAP2 POP DUP1 DUP1 PUSH2 0x527 SWAP1 PUSH2 0x12C9 JUMP JUMPDEST SWAP2 POP POP PUSH2 0x4B7 JUMP JUMPDEST POP DUP1 SWAP2 POP POP SWAP3 SWAP2 POP POP JUMP JUMPDEST PUSH0 DUP2 MLOAD DUP4 MLOAD EQ PUSH2 0x57F JUMPI PUSH1 0x40 MLOAD PUSH32 0x8C379A000000000000000000000000000000000000000000000000000000000 DUP2 MSTORE PUSH1 0x4 ADD PUSH2 0x576 SWAP1 PUSH2 0x133A JUMP JUMPDEST PUSH1 0x40 MLOAD DUP1 SWAP2 SUB SWAP1 REVERT JUMPDEST PUSH0 DUP4 MLOAD SWAP1 POP PUSH0 DUP1 PUSH0 DUP4 PUSH8 0xFFFFFFFFFFFFFFFF DUP2 GT ISZERO PUSH2 0x5A1 JUMPI PUSH2 0x5A0 PUSH2 0xD5B JUMP JUMPDEST JUMPDEST PUSH1 0x40 MLOAD SWAP1 DUP1 DUP3 MSTORE DUP1 PUSH1 0x20 MUL PUSH1 0x20 ADD DUP3 ADD PUSH1 0x40 MSTORE DUP1 ISZERO PUSH2 0x5CF JUMPI DUP2 PUSH1 0x20 ADD PUSH1 0x20 DUP3 MUL DUP1 CALLDATASIZE DUP4 CALLDATACOPY DUP1 DUP3 ADD SWAP2 POP POP SWAP1 POP JUMPDEST POP SWAP1 POP PUSH0 DUP5 PUSH8 0xFFFFFFFFFFFFFFFF DUP2 GT ISZERO PUSH2 0x5ED JUMPI PUSH2 0x5EC PUSH2 0xD5B JUMP JUMPDEST JUMPDEST PUSH1 0x40 MLOAD SWAP1 DUP1 DUP3 MSTORE DUP1 PUSH1 0x20 MUL PUSH1 0x20 ADD DUP3 ADD PUSH1 0x40 MSTORE DUP1 ISZERO PUSH2 0x61B JUMPI DUP2 PUSH1 0x20 ADD PUSH1 0x20 DUP3 MUL DUP1 CALLDATASIZE DUP4 CALLDATACOPY DUP1 DUP3 ADD SWAP2 POP POP SWAP1 POP JUMPDEST POP SWAP1 POP PUSH0 JUMPDEST DUP6 DUP2 LT ISZERO PUSH2 0x8A9 JUMPI PUSH0 PUSH1 0x1 DUP8 PUSH2 0x636 SWAP2 SWAP1 PUSH2 0x10DC JUMP JUMPDEST PUSH8 0xFFFFFFFFFFFFFFFF DUP2 GT ISZERO PUSH2 0x64F JUMPI PUSH2 0x64E PUSH2 0xD5B JUMP JUMPDEST JUMPDEST PUSH1 0x40 MLOAD SWAP1 DUP1 DUP3 MSTORE DUP1 PUSH1 0x20 MUL PUSH1 0x20 ADD DUP3 ADD PUSH1 0x40 MSTORE DUP1 ISZERO PUSH2 0x67D JUMPI DUP2 PUSH1 0x20 ADD PUSH1 0x20 DUP3 MUL DUP1 CALLDATASIZE DUP4 CALLDATACOPY DUP1 DUP3 ADD SWAP2 POP POP SWAP1 POP JUMPDEST POP SWAP1 POP PUSH0 DUP11 DUP4 DUP2 MLOAD DUP2 LT PUSH2 0x694 JUMPI PUSH2 0x693 PUSH2 0x1082 JUMP JUMPDEST JUMPDEST PUSH1 0x20 MUL PUSH1 0x20 ADD ADD MLOAD SWAP1 POP PUSH0 DUP1 JUMPDEST DUP10 DUP2 LT ISZERO PUSH2 0x704 JUMPI DUP5 DUP2 EQ PUSH2 0x6F7 JUMPI DUP13 DUP2 DUP2 MLOAD DUP2 LT PUSH2 0x6C3 JUMPI PUSH2 0x6C2 PUSH2 0x1082 JUMP JUMPDEST JUMPDEST PUSH1 0x20 MUL PUSH1 0x20 ADD ADD MLOAD DUP5 DUP4 DUP1 PUSH2 0x6D7 SWAP1 PUSH2 0x11A6 JUMP JUMPDEST SWAP5 POP DUP2 MLOAD DUP2 LT PUSH2 0x6EA JUMPI PUSH2 0x6E9 PUSH2 0x1082 JUMP JUMPDEST JUMPDEST PUSH1 0x20 MUL PUSH1 0x20 ADD ADD DUP2 DUP2 MSTORE POP POP JUMPDEST DUP1 DUP1 PUSH1 0x1 ADD SWAP2 POP POP PUSH2 0x6A1 JUMP JUMPDEST POP PUSH1 0x1 DUP7 DUP6 DUP2 MLOAD DUP2 LT PUSH2 0x71A JUMPI PUSH2 0x719 PUSH2 0x1082 JUMP JUMPDEST JUMPDEST PUSH1 0x20 MUL PUSH1 0x20 ADD ADD DUP2 DUP2 MSTORE POP POP PUSH0 JUMPDEST PUSH1 0x1 DUP11 PUSH2 0x735 SWAP2 SWAP1 PUSH2 0x10DC JUMP JUMPDEST DUP2 LT ISZERO PUSH2 0x7CE JUMPI PUSH16 0x7FFFFFFFFFFFFFFFFFFFFFFFFFFFFFFF DUP5 DUP3 DUP2 MLOAD DUP2 LT PUSH2 0x760 JUMPI PUSH2 0x75F PUSH2 0x1082 JUMP JUMPDEST JUMPDEST PUSH1 0x20 MUL PUSH1 0x20 ADD ADD MLOAD DUP16 PUSH2 0x773 SWAP2 SWAP1 PUSH2 0x10DC JUMP JUMPDEST DUP9 DUP8 DUP2 MLOAD DUP2 LT PUSH2 0x786 JUMPI PUSH2 0x785 PUSH2 0x1082 JUMP JUMPDEST JUMPDEST PUSH1 0x20 MUL PUSH1 0x20 ADD ADD MLOAD PUSH2 0x798 SWAP2 SWAP1 PUSH2 0x1255 JUMP JUMPDEST PUSH2 0x7A2 SWAP2 SWAP1 PUSH2 0x1176 JUMP JUMPDEST DUP8 DUP7 DUP2 MLOAD DUP2 LT PUSH2 0x7B5 JUMPI PUSH2 0x7B4 PUSH2 0x1082 JUMP JUMPDEST JUMPDEST PUSH1 0x20 MUL PUSH1 0x20 ADD ADD DUP2 DUP2 MSTORE POP POP DUP1 DUP1 PUSH1 0x1 ADD SWAP2 POP POP PUSH2 0x728 JUMP JUMPDEST POP PUSH1 0x1 DUP6 DUP6 DUP2 MLOAD DUP2 LT PUSH2 0x7E4 JUMPI PUSH2 0x7E3 PUSH2 0x1082 JUMP JUMPDEST JUMPDEST PUSH1 0x20 MUL PUSH1 0x20 ADD ADD DUP2 DUP2 MSTORE POP POP PUSH0 JUMPDEST PUSH1 0x1 DUP11 PUSH2 0x7FF SWAP2 SWAP1 PUSH2 0x10DC JUMP JUMPDEST DUP2 LT ISZERO PUSH2 0x898 JUMPI PUSH16 0x7FFFFFFFFFFFFFFFFFFFFFFFFFFFFFFF DUP5 DUP3 DUP2 MLOAD DUP2 LT PUSH2 0x82A JUMPI PUSH2 0x829 PUSH2 0x1082 JUMP JUMPDEST JUMPDEST PUSH1 0x20 MUL PUSH1 0x20 ADD ADD MLOAD DUP5 PUSH2 0x83D SWAP2 SWAP1 PUSH2 0x10DC JUMP JUMPDEST DUP8 DUP8 DUP2 MLOAD DUP2 LT PUSH2 0x850 JUMPI PUSH2 0x84F PUSH2 0x1082 JUMP JUMPDEST JUMPDEST PUSH1 0x20 MUL PUSH1 0x20 ADD ADD MLOAD PUSH2 0x862 SWAP2 SWAP1 PUSH2 0x1255 JUMP JUMPDEST PUSH2 0x86C SWAP2 SWAP1 PUSH2 0x1176 JUMP JUMPDEST DUP7 DUP7 DUP2 MLOAD DUP2 LT PUSH2 0x87F JUMPI PUSH2 0x87E PUSH2 0x1082 JUMP JUMPDEST JUMPDEST PUSH1 0x20 MUL PUSH1 0x20 ADD ADD DUP2 DUP2 MSTORE POP POP DUP1 DUP1 PUSH1 0x1 ADD SWAP2 POP POP PUSH2 0x7F2 JUMP JUMPDEST POP POP POP POP DUP1 DUP1 PUSH1 0x1 ADD SWAP2 POP POP PUSH2 0x620 JUMP JUMPDEST POP PUSH0 JUMPDEST DUP6 DUP2 LT ISZERO PUSH2 0xA28 JUMPI PUSH16 0x7FFFFFFFFFFFFFFFFFFFFFFFFFFFFFFF PUSH2 0x983 PUSH16 0x7FFFFFFFFFFFFFFFFFFFFFFFFFFFFFFF DUP11 DUP5 DUP2 MLOAD DUP2 LT PUSH2 0x8EC JUMPI PUSH2 0x8EB PUSH2 0x1082 JUMP JUMPDEST JUMPDEST PUSH1 0x20 MUL PUSH1 0x20 ADD ADD MLOAD PUSH16 0x7FFFFFFFFFFFFFFFFFFFFFFFFFFFFFFF DUP7 DUP7 DUP2 MLOAD DUP2 LT PUSH2 0x918 JUMPI PUSH2 0x917 PUSH2 0x1082 JUMP JUMPDEST JUMPDEST PUSH1 0x20 MUL PUSH1 0x20 ADD ADD MLOAD DUP9 DUP8 DUP2 MLOAD DUP2 LT PUSH2 0x933 JUMPI PUSH2 0x932 PUSH2 0x1082 JUMP JUMPDEST JUMPDEST PUSH1 0x20 MUL PUSH1 0x20 ADD ADD MLOAD PUSH2 0x945 SWAP2 SWAP1 PUSH2 0x1255 JUMP JUMPDEST PUSH2 0x94F SWAP2 SWAP1 PUSH2 0x1176 JUMP JUMPDEST PUSH2 0x959 SWAP2 SWAP1 PUSH2 0x1255 JUMP JUMPDEST PUSH2 0x963 SWAP2 SWAP1 PUSH2 0x1176 JUMP JUMPDEST DUP5 DUP5 DUP2 MLOAD DUP2 LT PUSH2 0x976 JUMPI PUSH2 0x975 PUSH2 0x1082 JUMP JUMPDEST JUMPDEST PUSH1 0x20 MUL PUSH1 0x20 ADD ADD MLOAD PUSH2 0xA41 JUMP JUMPDEST DUP7 PUSH2 0x98E SWAP2 SWAP1 PUSH2 0x1296 JUMP JUMPDEST PUSH2 0x998 SWAP2 SWAP1 PUSH2 0x1176 JUMP JUMPDEST SWAP5 POP PUSH16 0x7FFFFFFFFFFFFFFFFFFFFFFFFFFFFFFF PUSH2 0x9E9 DUP5 DUP4 DUP2 MLOAD DUP2 LT PUSH2 0x9C1 JUMPI PUSH2 0x9C0 PUSH2 0x1082 JUMP JUMPDEST JUMPDEST PUSH1 0x20 MUL PUSH1 0x20 ADD ADD MLOAD DUP5 DUP5 DUP2 MLOAD DUP2 LT PUSH2 0x9DC JUMPI PUSH2 0x9DB PUSH2 0x1082 JUMP JUMPDEST JUMPDEST PUSH1 0x20 MUL PUSH1 0x20 ADD ADD MLOAD PUSH2 0xA41 JUMP JUMPDEST PUSH16 0x7FFFFFFFFFFFFFFFFFFFFFFFFFFFFFFF DUP7 PUSH2 0xA05 SWAP2 SWAP1 PUSH2 0x1296 JUMP JUMPDEST PUSH2 0xA0F SWAP2 SWAP1 PUSH2 0x10DC JUMP JUMPDEST PUSH2 0xA19 SWAP2 SWAP1 PUSH2 0x1176 JUMP JUMPDEST SWAP4 POP DUP1 DUP1 PUSH1 0x1 ADD SWAP2 POP POP PUSH2 0x8AC JUMP JUMPDEST POP PUSH2 0xA33 DUP5 DUP5 PUSH2 0xA41 JUMP JUMPDEST SWAP6 POP POP POP POP POP POP SWAP4 SWAP3 POP POP POP JUMP JUMPDEST PUSH0 DUP1 PUSH2 0xA5D DUP4 PUSH16 0x7FFFFFFFFFFFFFFFFFFFFFFFFFFFFFFF PUSH2 0xA90 JUMP JUMPDEST POP SWAP1 POP PUSH16 0x7FFFFFFFFFFFFFFFFFFFFFFFFFFFFFFF DUP2 DUP6 PUSH2 0xA7D SWAP2 SWAP1 PUSH2 0x1255 JUMP JUMPDEST PUSH2 0xA87 SWAP2 SWAP1 PUSH2 0x1176 JUMP JUMPDEST SWAP2 POP POP SWAP3 SWAP2 POP POP JUMP JUMPDEST PUSH0 DUP1 PUSH0 DUP1 PUSH1 0x1 SWAP1 POP PUSH0 PUSH1 0x1 SWAP1 POP PUSH0 JUMPDEST PUSH0 DUP8 EQ PUSH2 0xB10 JUMPI PUSH0 DUP8 DUP10 PUSH2 0xAB3 SWAP2 SWAP1 PUSH2 0x1358 JUMP JUMPDEST SWAP1 POP DUP8 DUP9 DUP11 PUSH2 0xAC2 SWAP2 SWAP1 PUSH2 0x1176 JUMP JUMPDEST DUP1 SWAP10 POP DUP2 SWAP11 POP POP POP DUP5 DUP2 PUSH2 0xAD6 SWAP2 SWAP1 PUSH2 0x1391 JUMP JUMPDEST DUP5 PUSH2 0xAE1 SWAP2 SWAP1 PUSH2 0x1407 JUMP JUMPDEST DUP6 DUP1 SWAP6 POP DUP2 SWAP7 POP POP POP DUP3 DUP2 PUSH2 0xAF6 SWAP2 SWAP1 PUSH2 0x1391 JUMP JUMPDEST DUP3 PUSH2 0xB01 SWAP2 SWAP1 PUSH2 0x1407 JUMP JUMPDEST DUP4 DUP1 SWAP4 POP DUP2 SWAP5 POP POP POP POP PUSH2 0xA9F JUMP JUMPDEST DUP3 DUP2 SWAP6 POP SWAP6 POP POP POP POP POP SWAP3 POP SWAP3 SWAP1 POP JUMP JUMPDEST PUSH0 PUSH1 0x40 MLOAD SWAP1 POP SWAP1 JUMP JUMPDEST PUSH0 DUP1 REVERT JUMPDEST PUSH0 DUP1 REVERT JUMPDEST PUSH0 DUP2 SWAP1 POP SWAP2 SWAP1 POP JUMP JUMPDEST PUSH2 0xB44 DUP2 PUSH2 0xB32 JUMP JUMPDEST DUP2 EQ PUSH2 0xB4E JUMPI PUSH0 DUP1 REVERT JUMPDEST POP JUMP JUMPDEST PUSH0 DUP2 CALLDATALOAD SWAP1 POP PUSH2 0xB5F DUP2 PUSH2 0xB3B JUMP JUMPDEST SWAP3 SWAP2 POP POP JUMP JUMPDEST PUSH0 DUP1 PUSH0 PUSH1 0x60 DUP5 DUP7 SUB SLT ISZERO PUSH2 0xB7C JUMPI PUSH2 0xB7B PUSH2 0xB2A JUMP JUMPDEST JUMPDEST PUSH0 PUSH2 0xB89 DUP7 DUP3 DUP8 ADD PUSH2 0xB51 JUMP JUMPDEST SWAP4 POP POP PUSH1 0x20 PUSH2 0xB9A DUP7 DUP3 DUP8 ADD PUSH2 0xB51 JUMP JUMPDEST SWAP3 POP POP PUSH1 0x40 PUSH2 0xBAB DUP7 DUP3 DUP8 ADD PUSH2 0xB51 JUMP JUMPDEST SWAP2 POP POP SWAP3 POP SWAP3 POP SWAP3 JUMP JUMPDEST PUSH0 DUP2 MLOAD SWAP1 POP SWAP2 SWAP1 POP JUMP JUMPDEST PUSH0 DUP3 DUP3 MSTORE PUSH1 0x20 DUP3 ADD SWAP1 POP SWAP3 SWAP2 POP POP JUMP JUMPDEST PUSH0 DUP2 SWAP1 POP PUSH1 0x20 DUP3 ADD SWAP1 POP SWAP2 SWAP1 POP JUMP JUMPDEST PUSH0 DUP2 MLOAD SWAP1 POP SWAP2 SWAP1 POP JUMP JUMPDEST PUSH0 DUP3 DUP3 MSTORE PUSH1 0x20 DUP3 ADD SWAP1 POP SWAP3 SWAP2 POP POP JUMP JUMPDEST PUSH0 DUP2 SWAP1 POP PUSH1 0x20 DUP3 ADD SWAP1 POP SWAP2 SWAP1 POP JUMP JUMPDEST PUSH2 0xC10 DUP2 PUSH2 0xB32 JUMP JUMPDEST DUP3 MSTORE POP POP JUMP JUMPDEST PUSH0 PUSH2 0xC21 DUP4 DUP4 PUSH2 0xC07 JUMP JUMPDEST PUSH1 0x20 DUP4 ADD SWAP1 POP SWAP3 SWAP2 POP POP JUMP JUMPDEST PUSH0 PUSH1 0x20 DUP3 ADD SWAP1 POP SWAP2 SWAP1 POP JUMP JUMPDEST PUSH0 PUSH2 0xC43 DUP3 PUSH2 0xBDE JUMP JUMPDEST PUSH2 0xC4D DUP2 DUP6 PUSH2 0xBE8 JUMP JUMPDEST SWAP4 POP PUSH2 0xC58 DUP4 PUSH2 0xBF8 JUMP JUMPDEST DUP1 PUSH0 JUMPDEST DUP4 DUP2 LT ISZERO PUSH2 0xC88 JUMPI DUP2 MLOAD PUSH2 0xC6F DUP9 DUP3 PUSH2 0xC16 JUMP JUMPDEST SWAP8 POP PUSH2 0xC7A DUP4 PUSH2 0xC2D JUMP JUMPDEST SWAP3 POP POP PUSH1 0x1 DUP2 ADD SWAP1 POP PUSH2 0xC5B JUMP JUMPDEST POP DUP6 SWAP4 POP POP POP POP SWAP3 SWAP2 POP POP JUMP JUMPDEST PUSH0 PUSH2 0xCA0 DUP4 DUP4 PUSH2 0xC39 JUMP JUMPDEST SWAP1 POP SWAP3 SWAP2 POP POP JUMP JUMPDEST PUSH0 PUSH1 0x20 DUP3 ADD SWAP1 POP SWAP2 SWAP1 POP JUMP JUMPDEST PUSH0 PUSH2 0xCBE DUP3 PUSH2 0xBB5 JUMP JUMPDEST PUSH2 0xCC8 DUP2 DUP6 PUSH2 0xBBF JUMP JUMPDEST SWAP4 POP DUP4 PUSH1 0x20 DUP3 MUL DUP6 ADD PUSH2 0xCDA DUP6 PUSH2 0xBCF JUMP JUMPDEST DUP1 PUSH0 JUMPDEST DUP6 DUP2 LT ISZERO PUSH2 0xD15 JUMPI DUP5 DUP5 SUB DUP10 MSTORE DUP2 MLOAD PUSH2 0xCF6 DUP6 DUP3 PUSH2 0xC95 JUMP JUMPDEST SWAP5 POP PUSH2 0xD01 DUP4 PUSH2 0xCA8 JUMP JUMPDEST SWAP3 POP PUSH1 0x20 DUP11 ADD SWAP10 POP POP PUSH1 0x1 DUP2 ADD SWAP1 POP PUSH2 0xCDD JUMP JUMPDEST POP DUP3 SWAP8 POP DUP8 SWAP6 POP POP POP POP POP POP SWAP3 SWAP2 POP POP JUMP JUMPDEST PUSH0 PUSH1 0x20 DUP3 ADD SWAP1 POP DUP2 DUP2 SUB PUSH0 DUP4 ADD MSTORE PUSH2 0xD3F DUP2 DUP5 PUSH2 0xCB4 JUMP JUMPDEST SWAP1 POP SWAP3 SWAP2 POP POP JUMP JUMPDEST PUSH0 DUP1 REVERT JUMPDEST PUSH0 PUSH1 0x1F NOT PUSH1 0x1F DUP4 ADD AND SWAP1 POP SWAP2 SWAP1 POP JUMP JUMPDEST PUSH32 0x4E487B7100000000000000000000000000000000000000000000000000000000 PUSH0 MSTORE PUSH1 0x41 PUSH1 0x4 MSTORE PUSH1 0x24 PUSH0 REVERT JUMPDEST PUSH2 0xD91 DUP3 PUSH2 0xD4B JUMP JUMPDEST DUP2 ADD DUP2 DUP2 LT PUSH8 0xFFFFFFFFFFFFFFFF DUP3 GT OR ISZERO PUSH2 0xDB0 JUMPI PUSH2 0xDAF PUSH2 0xD5B JUMP JUMPDEST JUMPDEST DUP1 PUSH1 0x40 MSTORE POP POP POP JUMP JUMPDEST PUSH0 PUSH2 0xDC2 PUSH2 0xB21 JUMP JUMPDEST SWAP1 POP PUSH2 0xDCE DUP3 DUP3 PUSH2 0xD88 JUMP JUMPDEST SWAP2 SWAP1 POP JUMP JUMPDEST PUSH0 PUSH8 0xFFFFFFFFFFFFFFFF DUP3 GT ISZERO PUSH2 0xDED JUMPI PUSH2 0xDEC PUSH2 0xD5B JUMP JUMPDEST JUMPDEST PUSH1 0x20 DUP3 MUL SWAP1 POP PUSH1 0x20 DUP2 ADD SWAP1 POP SWAP2 SWAP1 POP JUMP JUMPDEST PUSH0 DUP1 REVERT JUMPDEST PUSH0 PUSH8 0xFFFFFFFFFFFFFFFF DUP3 GT ISZERO PUSH2 0xE1C JUMPI PUSH2 0xE1B PUSH2 0xD5B JUMP JUMPDEST JUMPDEST PUSH1 0x20 DUP3 MUL SWAP1 POP PUSH1 0x20 DUP2 ADD SWAP1 POP SWAP2 SWAP1 POP JUMP JUMPDEST PUSH0 PUSH2 0xE3F PUSH2 0xE3A DUP5 PUSH2 0xE02 JUMP JUMPDEST PUSH2 0xDB9 JUMP JUMPDEST SWAP1 POP DUP1 DUP4 DUP3 MSTORE PUSH1 0x20 DUP3 ADD SWAP1 POP PUSH1 0x20 DUP5 MUL DUP4 ADD DUP6 DUP2 GT ISZERO PUSH2 0xE62 JUMPI PUSH2 0xE61 PUSH2 0xDFE JUMP JUMPDEST JUMPDEST DUP4 JUMPDEST DUP2 DUP2 LT ISZERO PUSH2 0xE8B JUMPI DUP1 PUSH2 0xE77 DUP9 DUP3 PUSH2 0xB51 JUMP JUMPDEST DUP5 MSTORE PUSH1 0x20 DUP5 ADD SWAP4 POP POP PUSH1 0x20 DUP2 ADD SWAP1 POP PUSH2 0xE64 JUMP JUMPDEST POP POP POP SWAP4 SWAP3 POP POP POP JUMP JUMPDEST PUSH0 DUP3 PUSH1 0x1F DUP4 ADD SLT PUSH2 0xEA9 JUMPI PUSH2 0xEA8 PUSH2 0xD47 JUMP JUMPDEST JUMPDEST DUP2 CALLDATALOAD PUSH2 0xEB9 DUP5 DUP3 PUSH1 0x20 DUP7 ADD PUSH2 0xE2D JUMP JUMPDEST SWAP2 POP POP SWAP3 SWAP2 POP POP JUMP JUMPDEST PUSH0 PUSH2 0xED4 PUSH2 0xECF DUP5 PUSH2 0xDD3 JUMP JUMPDEST PUSH2 0xDB9 JUMP JUMPDEST SWAP1 POP DUP1 DUP4 DUP3 MSTORE PUSH1 0x20 DUP3 ADD SWAP1 POP PUSH1 0x20 DUP5 MUL DUP4 ADD DUP6 DUP2 GT ISZERO PUSH2 0xEF7 JUMPI PUSH2 0xEF6 PUSH2 0xDFE JUMP JUMPDEST JUMPDEST DUP4 JUMPDEST DUP2 DUP2 LT ISZERO PUSH2 0xF3E JUMPI DUP1 CALLDATALOAD PUSH8 0xFFFFFFFFFFFFFFFF DUP2 GT ISZERO PUSH2 0xF1C JUMPI PUSH2 0xF1B PUSH2 0xD47 JUMP JUMPDEST JUMPDEST DUP1 DUP7 ADD PUSH2 0xF29 DUP10 DUP3 PUSH2 0xE95 JUMP JUMPDEST DUP6 MSTORE PUSH1 0x20 DUP6 ADD SWAP5 POP POP POP PUSH1 0x20 DUP2 ADD SWAP1 POP PUSH2 0xEF9 JUMP JUMPDEST POP POP POP SWAP4 SWAP3 POP POP POP JUMP JUMPDEST PUSH0 DUP3 PUSH1 0x1F DUP4 ADD SLT PUSH2 0xF5C JUMPI PUSH2 0xF5B PUSH2 0xD47 JUMP JUMPDEST JUMPDEST DUP2 CALLDATALOAD PUSH2 0xF6C DUP5 DUP3 PUSH1 0x20 DUP7 ADD PUSH2 0xEC2 JUMP JUMPDEST SWAP2 POP POP SWAP3 SWAP2 POP POP JUMP JUMPDEST PUSH0 PUSH1 0x20 DUP3 DUP5 SUB SLT ISZERO PUSH2 0xF8A JUMPI PUSH2 0xF89 PUSH2 0xB2A JUMP JUMPDEST JUMPDEST PUSH0 DUP3 ADD CALLDATALOAD PUSH8 0xFFFFFFFFFFFFFFFF DUP2 GT ISZERO PUSH2 0xFA7 JUMPI PUSH2 0xFA6 PUSH2 0xB2E JUMP JUMPDEST JUMPDEST PUSH2 0xFB3 DUP5 DUP3 DUP6 ADD PUSH2 0xF48 JUMP JUMPDEST SWAP2 POP POP SWAP3 SWAP2 POP POP JUMP JUMPDEST PUSH2 0xFC5 DUP2 PUSH2 0xB32 JUMP JUMPDEST DUP3 MSTORE POP POP JUMP JUMPDEST PUSH0 PUSH1 0x20 DUP3 ADD SWAP1 POP PUSH2 0xFDE PUSH0 DUP4 ADD DUP5 PUSH2 0xFBC JUMP JUMPDEST SWAP3 SWAP2 POP POP JUMP JUMPDEST PUSH0 DUP3 DUP3 MSTORE PUSH1 0x20 DUP3 ADD SWAP1 POP SWAP3 SWAP2 POP POP JUMP JUMPDEST PUSH32 0x4D696E696D756D2073686F756C64206265206C657373207468616E206F722065 PUSH0 DUP3 ADD MSTORE PUSH32 0x7175616C20746F20736861726573000000000000000000000000000000000000 PUSH1 0x20 DUP3 ADD MSTORE POP JUMP JUMPDEST PUSH0 PUSH2 0x104E PUSH1 0x2E DUP4 PUSH2 0xFE4 JUMP JUMPDEST SWAP2 POP PUSH2 0x1059 DUP3 PUSH2 0xFF4 JUMP JUMPDEST PUSH1 0x40 DUP3 ADD SWAP1 POP SWAP2 SWAP1 POP JUMP JUMPDEST PUSH0 PUSH1 0x20 DUP3 ADD SWAP1 POP DUP2 DUP2 SUB PUSH0 DUP4 ADD MSTORE PUSH2 0x107B DUP2 PUSH2 0x1042 JUMP JUMPDEST SWAP1 POP SWAP2 SWAP1 POP JUMP JUMPDEST PUSH32 0x4E487B7100000000000000000000000000000000000000000000000000000000 PUSH0 MSTORE PUSH1 0x32 PUSH1 0x4 MSTORE PUSH1 0x24 PUSH0 REVERT JUMPDEST PUSH32 0x4E487B7100000000000000000000000000000000000000000000000000000000 PUSH0 MSTORE PUSH1 0x11 PUSH1 0x4 MSTORE PUSH1 0x24 PUSH0 REVERT JUMPDEST PUSH0 PUSH2 0x10E6 DUP3 PUSH2 0xB32 JUMP JUMPDEST SWAP2 POP PUSH2 0x10F1 DUP4 PUSH2 0xB32 JUMP JUMPDEST SWAP3 POP DUP3 DUP3 SUB SWAP1 POP DUP2 DUP2 GT ISZERO PUSH2 0x1109 JUMPI PUSH2 0x1108 PUSH2 0x10AF JUMP JUMPDEST JUMPDEST SWAP3 SWAP2 POP POP JUMP JUMPDEST PUSH0 DUP2 SWAP1 POP SWAP2 SWAP1 POP JUMP JUMPDEST PUSH2 0x1129 PUSH2 0x1124 DUP3 PUSH2 0xB32 JUMP JUMPDEST PUSH2 0x110F JUMP JUMPDEST DUP3 MSTORE POP POP JUMP JUMPDEST PUSH0 PUSH2 0x113A DUP3 DUP5 PUSH2 0x1118 JUMP JUMPDEST PUSH1 0x20 DUP3 ADD SWAP2 POP DUP2 SWAP1 POP SWAP3 SWAP2 POP POP JUMP JUMPDEST PUSH32 0x4E487B7100000000000000000000000000000000000000000000000000000000 PUSH0 MSTORE PUSH1 0x12 PUSH1 0x4 MSTORE PUSH1 0x24 PUSH0 REVERT JUMPDEST PUSH0 PUSH2 0x1180 DUP3 PUSH2 0xB32 JUMP JUMPDEST SWAP2 POP PUSH2 0x118B DUP4 PUSH2 0xB32 JUMP JUMPDEST SWAP3 POP DUP3 PUSH2 0x119B JUMPI PUSH2 0x119A PUSH2 0x1149 JUMP JUMPDEST JUMPDEST DUP3 DUP3 MOD SWAP1 POP SWAP3 SWAP2 POP POP JUMP JUMPDEST PUSH0 PUSH2 0x11B0 DUP3 PUSH2 0xB32 JUMP JUMPDEST SWAP2 POP PUSH32 0xFFFFFFFFFFFFFFFFFFFFFFFFFFFFFFFFFFFFFFFFFFFFFFFFFFFFFFFFFFFFFFFF DUP3 SUB PUSH2 0x11E2 JUMPI PUSH2 0x11E1 PUSH2 0x10AF JUMP JUMPDEST JUMPDEST PUSH1 0x1 DUP3 ADD SWAP1 POP SWAP2 SWAP1 POP JUMP JUMPDEST PUSH32 0x4E656564206174206C6561737420746872656520736861726573000000000000 PUSH0 DUP3 ADD MSTORE POP JUMP JUMPDEST PUSH0 PUSH2 0x1221 PUSH1 0x1A DUP4 PUSH2 0xFE4 JUMP JUMPDEST SWAP2 POP PUSH2 0x122C DUP3 PUSH2 0x11ED JUMP JUMPDEST PUSH1 0x20 DUP3 ADD SWAP1 POP SWAP2 SWAP1 POP JUMP JUMPDEST PUSH0 PUSH1 0x20 DUP3 ADD SWAP1 POP DUP2 DUP2 SUB PUSH0 DUP4 ADD MSTORE PUSH2 0x124E DUP2 PUSH2 0x1215 JUMP JUMPDEST SWAP1 POP SWAP2 SWAP1 POP JUMP JUMPDEST PUSH0 PUSH2 0x125F DUP3 PUSH2 0xB32 JUMP JUMPDEST SWAP2 POP PUSH2 0x126A DUP4 PUSH2 0xB32 JUMP JUMPDEST SWAP3 POP DUP3 DUP3 MUL PUSH2 0x1278 DUP2 PUSH2 0xB32 JUMP JUMPDEST SWAP2 POP DUP3 DUP3 DIV DUP5 EQ DUP4 ISZERO OR PUSH2 0x128F JUMPI PUSH2 0x128E PUSH2 0x10AF JUMP JUMPDEST JUMPDEST POP SWAP3 SWAP2 POP POP JUMP JUMPDEST PUSH0 PUSH2 0x12A0 DUP3 PUSH2 0xB32 JUMP JUMPDEST SWAP2 POP PUSH2 0x12AB DUP4 PUSH2 0xB32 JUMP JUMPDEST SWAP3 POP DUP3 DUP3 ADD SWAP1 POP DUP1 DUP3 GT ISZERO PUSH2 0x12C3 JUMPI PUSH2 0x12C2 PUSH2 0x10AF JUMP JUMPDEST JUMPDEST SWAP3 SWAP2 POP POP JUMP JUMPDEST PUSH0 PUSH2 0x12D3 DUP3 PUSH2 0xB32 JUMP JUMPDEST SWAP2 POP PUSH0 DUP3 SUB PUSH2 0x12E5 JUMPI PUSH2 0x12E4 PUSH2 0x10AF JUMP JUMPDEST JUMPDEST PUSH1 0x1 DUP3 SUB SWAP1 POP SWAP2 SWAP1 POP JUMP JUMPDEST PUSH32 0x4172726179732073686F756C64206861766520657175616C206C656E67746800 PUSH0 DUP3 ADD MSTORE POP JUMP JUMPDEST PUSH0 PUSH2 0x1324 PUSH1 0x1F DUP4 PUSH2 0xFE4 JUMP JUMPDEST SWAP2 POP PUSH2 0x132F DUP3 PUSH2 0x12F0 JUMP JUMPDEST PUSH1 0x20 DUP3 ADD SWAP1 POP SWAP2 SWAP1 POP JUMP JUMPDEST PUSH0 PUSH1 0x20 DUP3 ADD SWAP1 POP DUP2 DUP2 SUB PUSH0 DUP4 ADD MSTORE PUSH2 0x1351 DUP2 PUSH2 0x1318 JUMP JUMPDEST SWAP1 POP SWAP2 SWAP1 POP JUMP JUMPDEST PUSH0 PUSH2 0x1362 DUP3 PUSH2 0xB32 JUMP JUMPDEST SWAP2 POP PUSH2 0x136D DUP4 PUSH2 0xB32 JUMP JUMPDEST SWAP3 POP DUP3 PUSH2 0x137D JUMPI PUSH2 0x137C PUSH2 0x1149 JUMP JUMPDEST JUMPDEST DUP3 DUP3 DIV SWAP1 POP SWAP3 SWAP2 POP POP JUMP JUMPDEST PUSH0 DUP2 SWAP1 POP SWAP2 SWAP1 POP JUMP JUMPDEST PUSH0 PUSH2 0x139B DUP3 PUSH2 0x1388 JUMP JUMPDEST SWAP2 POP PUSH2 0x13A6 DUP4 PUSH2 0x1388 JUMP JUMPDEST SWAP3 POP DUP3 DUP3 MUL PUSH2 0x13B4 DUP2 PUSH2 0x1388 JUMP JUMPDEST SWAP2 POP PUSH32 0x8000000000000000000000000000000000000000000000000000000000000000 DUP5 EQ PUSH0 DUP5 SLT AND ISZERO PUSH2 0x13EB JUMPI PUSH2 0x13EA PUSH2 0x10AF JUMP JUMPDEST JUMPDEST DUP3 DUP3 SDIV DUP5 EQ DUP4 ISZERO OR PUSH2 0x1400 JUMPI PUSH2 0x13FF PUSH2 0x10AF JUMP JUMPDEST JUMPDEST POP SWAP3 SWAP2 POP POP JUMP JUMPDEST PUSH0 PUSH2 0x1411 DUP3 PUSH2 0x1388 JUMP JUMPDEST SWAP2 POP PUSH2 0x141C DUP4 PUSH2 0x1388 JUMP JUMPDEST SWAP3 POP DUP3 DUP3 SUB SWAP1 POP DUP2 DUP2 SLT PUSH0 DUP5 SLT AND DUP3 DUP3 SGT PUSH0 DUP6 SLT ISZERO AND OR ISZERO PUSH2 0x1441 JUMPI PUSH2 0x1440 PUSH2 0x10AF JUMP JUMPDEST JUMPDEST SWAP3 SWAP2 POP POP JUMP INVALID LOG2 PUSH5 0x6970667358 0x22 SLT KECCAK256 0x1F 0x1F SWAP11 0xB0 TLOAD DIV SWAP8 DELEGATECALL 0xE4 0xCF PC 0xBC 0x2F 0xE1 PUSH14 0x974973AE4C810E43287B4B5740C0 CHAINID PUSH11 0x6164736F6C634300081800 CALLER "
		},
		"gasEstimates": {
			"creation": {
				"codeDepositCost": "1049000",
				"executionCost": "1085",
				"totalCost": "1050085"
			},
			"external": {
				"makeRandomShares(uint256,uint256,uint256)": "infinite",
				"recoverSecret(uint256[][])": "infinite"
			},
			"internal": {
				"divmod(uint256,uint256)": "infinite",
				"evalAt(uint256[] memory,uint256)": "infinite",
				"extendedGcd(uint256,uint256)": "infinite",
				"lagrangeInterpolate(uint256,uint256[] memory,uint256[] memory)": "infinite"
			}
		},
		"methodIdentifiers": {
			"makeRandomShares(uint256,uint256,uint256)": "072c0aee",
			"recoverSecret(uint256[][])": "8d45eb2e"
		}
	},
	"abi": [
		{
			"inputs": [
				{
					"internalType": "uint256",
					"name": "secret",
					"type": "uint256"
				},
				{
					"internalType": "uint256",
					"name": "minimum",
					"type": "uint256"
				},
				{
					"internalType": "uint256",
					"name": "shares",
					"type": "uint256"
				}
			],
			"name": "makeRandomShares",
			"outputs": [
				{
					"internalType": "uint256[][]",
					"name": "",
					"type": "uint256[][]"
				}
			],
			"stateMutability": "pure",
			"type": "function"
		},
		{
			"inputs": [
				{
					"internalType": "uint256[][]",
					"name": "shares",
					"type": "uint256[][]"
				}
			],
			"name": "recoverSecret",
			"outputs": [
				{
					"internalType": "uint256",
					"name": "",
					"type": "uint256"
				}
			],
			"stateMutability": "pure",
			"type": "function"
		}
	]
}