{
	"data": {
		"bytecode": {
			"linkReferences": {},
			"object": "608060405260405162001488380380620014888339818101604052810190620000299190620003d1565b8260028190555081600481905550600160045462000048919062000457565b67ffffffffffffffff81111562000064576200006362000491565b5b604051908082528060200260200182016040528015620000935781602001602082028036833780820191505090505b5060059080519060200190620000ab92919062000328565b50620000bd816200019d60201b60201c565b5f819055505f5442604051602001620000d79190620004e2565b604051602081830303815290604052805190602001205f1c620000fb91906200052b565b6001819055505f5b600160045462000114919062000457565b81101562000193575f5481426200012c919062000562565b6040516020016200013e9190620004e2565b604051602081830303815290604052805190602001205f1c6200016291906200052b565b600582815481106200017957620001786200059c565b5b905f5260205f200181905550808060010191505062000103565b50505050620007b3565b5f80826002620001ae919062000719565b42604051602001620001c19190620004e2565b604051602081830303815290604052805190602001205f1c620001e591906200052b565b90505f600282620001f791906200052b565b036200020f576001816200020c919062000562565b90505b5b62000221816200024660201b60201c565b6200023d5760028162000235919062000562565b905062000210565b80915050919050565b5f6001821162000259575f905062000323565b600382116200026c576001905062000323565b5f6002836200027c91906200052b565b14806200029657505f6003836200029491906200052b565b145b15620002a5575f905062000323565b5f600590505b828182620002ba919062000769565b116200031d575f8184620002cf91906200052b565b1480620002f657505f600282620002e7919062000562565b84620002f491906200052b565b145b1562000306575f91505062000323565b60068162000315919062000562565b9050620002ab565b50600190505b919050565b828054828255905f5260205f2090810192821562000365579160200282015b828111156200036457825182559160200191906001019062000347565b5b50905062000374919062000378565b5090565b5b8082111562000391575f815f90555060010162000379565b5090565b5f80fd5b5f819050919050565b620003ad8162000399565b8114620003b8575f80fd5b50565b5f81519050620003cb81620003a2565b92915050565b5f805f60608486031215620003eb57620003ea62000395565b5b5f620003fa86828701620003bb565b93505060206200040d86828701620003bb565b92505060406200042086828701620003bb565b9150509250925092565b7f4e487b71000000000000000000000000000000000000000000000000000000005f52601160045260245ffd5b5f620004638262000399565b9150620004708362000399565b92508282039050818111156200048b576200048a6200042a565b5b92915050565b7f4e487b71000000000000000000000000000000000000000000000000000000005f52604160045260245ffd5b5f819050919050565b620004dc620004d68262000399565b620004be565b82525050565b5f620004ef8284620004c7565b60208201915081905092915050565b7f4e487b71000000000000000000000000000000000000000000000000000000005f52601260045260245ffd5b5f620005378262000399565b9150620005448362000399565b925082620005575762000556620004fe565b5b828206905092915050565b5f6200056e8262000399565b91506200057b8362000399565b92508282019050808211156200059657620005956200042a565b5b92915050565b7f4e487b71000000000000000000000000000000000000000000000000000000005f52603260045260245ffd5b5f8160011c9050919050565b5f808291508390505b60018511156200062657808604811115620005fe57620005fd6200042a565b5b60018516156200060e5780820291505b80810290506200061e85620005c9565b9450620005de565b94509492505050565b5f8262000640576001905062000712565b816200064f575f905062000712565b81600181146200066857600281146200067357620006a9565b600191505062000712565b60ff8411156200068857620006876200042a565b5b8360020a915084821115620006a257620006a16200042a565b5b5062000712565b5060208310610133831016604e8410600b8410161715620006e35782820a905083811115620006dd57620006dc6200042a565b5b62000712565b620006f28484846001620005d5565b925090508184048111156200070c576200070b6200042a565b5b81810290505b9392505050565b5f620007258262000399565b9150620007328362000399565b9250620007617fffffffffffffffffffffffffffffffffffffffffffffffffffffffffffffffff84846200062f565b905092915050565b5f620007758262000399565b9150620007828362000399565b9250828202620007928162000399565b91508282048414831517620007ac57620007ab6200042a565b5b5092915050565b610cc780620007c15f395ff3fe60806040526004361061003e575f3560e01c80631d55bcd01461004257806326ecb26c1461007e5780632c29fe7e14610088578063498edc2d146100b4575b5f80fd5b34801561004d575f80fd5b50610068600480360381019061006391906106bb565b6100de565b6040516100759190610711565b60405180910390f35b61008661024c565b005b348015610093575f80fd5b5061009c610374565b6040516100ab939291906107e1565b60405180910390f35b3480156100bf575f80fd5b506100c86103da565b6040516100d5919061081d565b60405180910390f35b5f60045482511015610125576040517f08c379a000000000000000000000000000000000000000000000000000000000815260040161011c90610897565b60405180910390fd5b5f805b600454811015610236575f60035f868481518110610149576101486108b5565b5b602002602001015181526020019081526020015f205490505f5b6004548110156102195780831461020c576101be86828151811061018a576101896108b5565b5b60200260200101518785815181106101a5576101a46108b5565b5b60200260200101516101b7919061090f565b5f54610491565b8682815181106101d1576101d06108b5565b5b60200260200101515f546101e5919061090f565b6101ef9190610942565b826101fa9190610942565b91505f548261020991906109b0565b91505b8080600101915050610163565b50808361022691906109e0565b9250508080600101915050610128565b505f548161024491906109b0565b915050919050565b5f341161028e576040517f08c379a000000000000000000000000000000000000000000000000000000000815260040161028590610a83565b60405180910390fd5b5f600190505b6002548111610371575f8190505f805b60016004546102b3919061090f565b81101561032c575f548160016004546102cc919061090f565b6102d6919061090f565b846102e19190610bd0565b600583815481106102f5576102f46108b5565b5b905f5260205f2001546103089190610942565b61031291906109b0565b8261031d91906109e0565b915080806001019150506102a4565b505f546001548261033d91906109e0565b61034791906109b0565b60035f8581526020019081526020015f20819055505050808061036990610c1a565b915050610294565b50565b5f8060605f546001546005808054806020026020016040519081016040528092919081815260200182805480156103c857602002820191905f5260205f20905b8154815260200190600101908083116103b4575b50505050509050925092509250909192565b60605f60025467ffffffffffffffff8111156103f9576103f861054c565b5b6040519080825280602002602001820160405280156104275781602001602082028036833780820191505090505b5090505f600190505b60025481116104895760035f8281526020019081526020015f205482600183610459919061090f565b8151811061046a576104696108b5565b5b602002602001018181525050808061048190610c1a565b915050610430565b508091505090565b5f808290505f8060019050600185036104af575f9350505050610521565b5b6001861115610503575f85876104c69190610c61565b90505f86905086886104d891906109b0565b965080975083905083826104ec9190610942565b836104f7919061090f565b935080925050506104b0565b5f81101561051a57828161051791906109e0565b90505b8093505050505b92915050565b5f604051905090565b5f80fd5b5f80fd5b5f80fd5b5f601f19601f8301169050919050565b7f4e487b71000000000000000000000000000000000000000000000000000000005f52604160045260245ffd5b6105828261053c565b810181811067ffffffffffffffff821117156105a1576105a061054c565b5b80604052505050565b5f6105b3610527565b90506105bf8282610579565b919050565b5f67ffffffffffffffff8211156105de576105dd61054c565b5b602082029050602081019050919050565b5f80fd5b5f819050919050565b610605816105f3565b811461060f575f80fd5b50565b5f81359050610620816105fc565b92915050565b5f610638610633846105c4565b6105aa565b9050808382526020820190506020840283018581111561065b5761065a6105ef565b5b835b8181101561068457806106708882610612565b84526020840193505060208101905061065d565b5050509392505050565b5f82601f8301126106a2576106a1610538565b5b81356106b2848260208601610626565b91505092915050565b5f602082840312156106d0576106cf610530565b5b5f82013567ffffffffffffffff8111156106ed576106ec610534565b5b6106f98482850161068e565b91505092915050565b61070b816105f3565b82525050565b5f6020820190506107245f830184610702565b92915050565b5f81519050919050565b5f82825260208201905092915050565b5f819050602082019050919050565b61075c816105f3565b82525050565b5f61076d8383610753565b60208301905092915050565b5f602082019050919050565b5f61078f8261072a565b6107998185610734565b93506107a483610744565b805f5b838110156107d45781516107bb8882610762565b97506107c683610779565b9250506001810190506107a7565b5085935050505092915050565b5f6060820190506107f45f830186610702565b6108016020830185610702565b81810360408301526108138184610785565b9050949350505050565b5f6020820190508181035f8301526108358184610785565b905092915050565b5f82825260208201905092915050565b7f496e73756666696369656e74207368617265732070726f76696465642e0000005f82015250565b5f610881601d8361083d565b915061088c8261084d565b602082019050919050565b5f6020820190508181035f8301526108ae81610875565b9050919050565b7f4e487b71000000000000000000000000000000000000000000000000000000005f52603260045260245ffd5b7f4e487b71000000000000000000000000000000000000000000000000000000005f52601160045260245ffd5b5f610919826105f3565b9150610924836105f3565b925082820390508181111561093c5761093b6108e2565b5b92915050565b5f61094c826105f3565b9150610957836105f3565b9250828202610965816105f3565b9150828204841483151761097c5761097b6108e2565b5b5092915050565b7f4e487b71000000000000000000000000000000000000000000000000000000005f52601260045260245ffd5b5f6109ba826105f3565b91506109c5836105f3565b9250826109d5576109d4610983565b5b828206905092915050565b5f6109ea826105f3565b91506109f5836105f3565b9250828201905080821115610a0d57610a0c6108e2565b5b92915050565b7f45746865722076616c7565206d7573742062652067726561746572207468616e5f8201527f2030000000000000000000000000000000000000000000000000000000000000602082015250565b5f610a6d60228361083d565b9150610a7882610a13565b604082019050919050565b5f6020820190508181035f830152610a9a81610a61565b9050919050565b5f8160011c9050919050565b5f808291508390505b6001851115610af657808604811115610ad257610ad16108e2565b5b6001851615610ae15780820291505b8081029050610aef85610aa1565b9450610ab6565b94509492505050565b5f82610b0e5760019050610bc9565b81610b1b575f9050610bc9565b8160018114610b315760028114610b3b57610b6a565b6001915050610bc9565b60ff841115610b4d57610b4c6108e2565b5b8360020a915084821115610b6457610b636108e2565b5b50610bc9565b5060208310610133831016604e8410600b8410161715610b9f5782820a905083811115610b9a57610b996108e2565b5b610bc9565b610bac8484846001610aad565b92509050818404811115610bc357610bc26108e2565b5b81810290505b9392505050565b5f610bda826105f3565b9150610be5836105f3565b9250610c127fffffffffffffffffffffffffffffffffffffffffffffffffffffffffffffffff8484610aff565b905092915050565b5f610c24826105f3565b91507fffffffffffffffffffffffffffffffffffffffffffffffffffffffffffffffff8203610c5657610c556108e2565b5b600182019050919050565b5f610c6b826105f3565b9150610c76836105f3565b925082610c8657610c85610983565b5b82820490509291505056fea2646970667358221220a35d3d6d8ea4029b33f130279bff61d52808072a9e235d363e31ac8f160291ee64736f6c63430008180033",
			"opcodes": "PUSH1 0x80 PUSH1 0x40 MSTORE PUSH1 0x40 MLOAD PUSH3 0x1488 CODESIZE SUB DUP1 PUSH3 0x1488 DUP4 CODECOPY DUP2 DUP2 ADD PUSH1 0x40 MSTORE DUP2 ADD SWAP1 PUSH3 0x29 SWAP2 SWAP1 PUSH3 0x3D1 JUMP JUMPDEST DUP3 PUSH1 0x2 DUP2 SWAP1 SSTORE POP DUP2 PUSH1 0x4 DUP2 SWAP1 SSTORE POP PUSH1 0x1 PUSH1 0x4 SLOAD PUSH3 0x48 SWAP2 SWAP1 PUSH3 0x457 JUMP JUMPDEST PUSH8 0xFFFFFFFFFFFFFFFF DUP2 GT ISZERO PUSH3 0x64 JUMPI PUSH3 0x63 PUSH3 0x491 JUMP JUMPDEST JUMPDEST PUSH1 0x40 MLOAD SWAP1 DUP1 DUP3 MSTORE DUP1 PUSH1 0x20 MUL PUSH1 0x20 ADD DUP3 ADD PUSH1 0x40 MSTORE DUP1 ISZERO PUSH3 0x93 JUMPI DUP2 PUSH1 0x20 ADD PUSH1 0x20 DUP3 MUL DUP1 CALLDATASIZE DUP4 CALLDATACOPY DUP1 DUP3 ADD SWAP2 POP POP SWAP1 POP JUMPDEST POP PUSH1 0x5 SWAP1 DUP1 MLOAD SWAP1 PUSH1 0x20 ADD SWAP1 PUSH3 0xAB SWAP3 SWAP2 SWAP1 PUSH3 0x328 JUMP JUMPDEST POP PUSH3 0xBD DUP2 PUSH3 0x19D PUSH1 0x20 SHL PUSH1 0x20 SHR JUMP JUMPDEST PUSH0 DUP2 SWAP1 SSTORE POP PUSH0 SLOAD TIMESTAMP PUSH1 0x40 MLOAD PUSH1 0x20 ADD PUSH3 0xD7 SWAP2 SWAP1 PUSH3 0x4E2 JUMP JUMPDEST PUSH1 0x40 MLOAD PUSH1 0x20 DUP2 DUP4 SUB SUB DUP2 MSTORE SWAP1 PUSH1 0x40 MSTORE DUP1 MLOAD SWAP1 PUSH1 0x20 ADD KECCAK256 PUSH0 SHR PUSH3 0xFB SWAP2 SWAP1 PUSH3 0x52B JUMP JUMPDEST PUSH1 0x1 DUP2 SWAP1 SSTORE POP PUSH0 JUMPDEST PUSH1 0x1 PUSH1 0x4 SLOAD PUSH3 0x114 SWAP2 SWAP1 PUSH3 0x457 JUMP JUMPDEST DUP2 LT ISZERO PUSH3 0x193 JUMPI PUSH0 SLOAD DUP2 TIMESTAMP PUSH3 0x12C SWAP2 SWAP1 PUSH3 0x562 JUMP JUMPDEST PUSH1 0x40 MLOAD PUSH1 0x20 ADD PUSH3 0x13E SWAP2 SWAP1 PUSH3 0x4E2 JUMP JUMPDEST PUSH1 0x40 MLOAD PUSH1 0x20 DUP2 DUP4 SUB SUB DUP2 MSTORE SWAP1 PUSH1 0x40 MSTORE DUP1 MLOAD SWAP1 PUSH1 0x20 ADD KECCAK256 PUSH0 SHR PUSH3 0x162 SWAP2 SWAP1 PUSH3 0x52B JUMP JUMPDEST PUSH1 0x5 DUP3 DUP2 SLOAD DUP2 LT PUSH3 0x179 JUMPI PUSH3 0x178 PUSH3 0x59C JUMP JUMPDEST JUMPDEST SWAP1 PUSH0 MSTORE PUSH1 0x20 PUSH0 KECCAK256 ADD DUP2 SWAP1 SSTORE POP DUP1 DUP1 PUSH1 0x1 ADD SWAP2 POP POP PUSH3 0x103 JUMP JUMPDEST POP POP POP POP PUSH3 0x7B3 JUMP JUMPDEST PUSH0 DUP1 DUP3 PUSH1 0x2 PUSH3 0x1AE SWAP2 SWAP1 PUSH3 0x719 JUMP JUMPDEST TIMESTAMP PUSH1 0x40 MLOAD PUSH1 0x20 ADD PUSH3 0x1C1 SWAP2 SWAP1 PUSH3 0x4E2 JUMP JUMPDEST PUSH1 0x40 MLOAD PUSH1 0x20 DUP2 DUP4 SUB SUB DUP2 MSTORE SWAP1 PUSH1 0x40 MSTORE DUP1 MLOAD SWAP1 PUSH1 0x20 ADD KECCAK256 PUSH0 SHR PUSH3 0x1E5 SWAP2 SWAP1 PUSH3 0x52B JUMP JUMPDEST SWAP1 POP PUSH0 PUSH1 0x2 DUP3 PUSH3 0x1F7 SWAP2 SWAP1 PUSH3 0x52B JUMP JUMPDEST SUB PUSH3 0x20F JUMPI PUSH1 0x1 DUP2 PUSH3 0x20C SWAP2 SWAP1 PUSH3 0x562 JUMP JUMPDEST SWAP1 POP JUMPDEST JUMPDEST PUSH3 0x221 DUP2 PUSH3 0x246 PUSH1 0x20 SHL PUSH1 0x20 SHR JUMP JUMPDEST PUSH3 0x23D JUMPI PUSH1 0x2 DUP2 PUSH3 0x235 SWAP2 SWAP1 PUSH3 0x562 JUMP JUMPDEST SWAP1 POP PUSH3 0x210 JUMP JUMPDEST DUP1 SWAP2 POP POP SWAP2 SWAP1 POP JUMP JUMPDEST PUSH0 PUSH1 0x1 DUP3 GT PUSH3 0x259 JUMPI PUSH0 SWAP1 POP PUSH3 0x323 JUMP JUMPDEST PUSH1 0x3 DUP3 GT PUSH3 0x26C JUMPI PUSH1 0x1 SWAP1 POP PUSH3 0x323 JUMP JUMPDEST PUSH0 PUSH1 0x2 DUP4 PUSH3 0x27C SWAP2 SWAP1 PUSH3 0x52B JUMP JUMPDEST EQ DUP1 PUSH3 0x296 JUMPI POP PUSH0 PUSH1 0x3 DUP4 PUSH3 0x294 SWAP2 SWAP1 PUSH3 0x52B JUMP JUMPDEST EQ JUMPDEST ISZERO PUSH3 0x2A5 JUMPI PUSH0 SWAP1 POP PUSH3 0x323 JUMP JUMPDEST PUSH0 PUSH1 0x5 SWAP1 POP JUMPDEST DUP3 DUP2 DUP3 PUSH3 0x2BA SWAP2 SWAP1 PUSH3 0x769 JUMP JUMPDEST GT PUSH3 0x31D JUMPI PUSH0 DUP2 DUP5 PUSH3 0x2CF SWAP2 SWAP1 PUSH3 0x52B JUMP JUMPDEST EQ DUP1 PUSH3 0x2F6 JUMPI POP PUSH0 PUSH1 0x2 DUP3 PUSH3 0x2E7 SWAP2 SWAP1 PUSH3 0x562 JUMP JUMPDEST DUP5 PUSH3 0x2F4 SWAP2 SWAP1 PUSH3 0x52B JUMP JUMPDEST EQ JUMPDEST ISZERO PUSH3 0x306 JUMPI PUSH0 SWAP2 POP POP PUSH3 0x323 JUMP JUMPDEST PUSH1 0x6 DUP2 PUSH3 0x315 SWAP2 SWAP1 PUSH3 0x562 JUMP JUMPDEST SWAP1 POP PUSH3 0x2AB JUMP JUMPDEST POP PUSH1 0x1 SWAP1 POP JUMPDEST SWAP2 SWAP1 POP JUMP JUMPDEST DUP3 DUP1 SLOAD DUP3 DUP3 SSTORE SWAP1 PUSH0 MSTORE PUSH1 0x20 PUSH0 KECCAK256 SWAP1 DUP2 ADD SWAP3 DUP3 ISZERO PUSH3 0x365 JUMPI SWAP2 PUSH1 0x20 MUL DUP3 ADD JUMPDEST DUP3 DUP2 GT ISZERO PUSH3 0x364 JUMPI DUP3 MLOAD DUP3 SSTORE SWAP2 PUSH1 0x20 ADD SWAP2 SWAP1 PUSH1 0x1 ADD SWAP1 PUSH3 0x347 JUMP JUMPDEST JUMPDEST POP SWAP1 POP PUSH3 0x374 SWAP2 SWAP1 PUSH3 0x378 JUMP JUMPDEST POP SWAP1 JUMP JUMPDEST JUMPDEST DUP1 DUP3 GT ISZERO PUSH3 0x391 JUMPI PUSH0 DUP2 PUSH0 SWAP1 SSTORE POP PUSH1 0x1 ADD PUSH3 0x379 JUMP JUMPDEST POP SWAP1 JUMP JUMPDEST PUSH0 DUP1 REVERT JUMPDEST PUSH0 DUP2 SWAP1 POP SWAP2 SWAP1 POP JUMP JUMPDEST PUSH3 0x3AD DUP2 PUSH3 0x399 JUMP JUMPDEST DUP2 EQ PUSH3 0x3B8 JUMPI PUSH0 DUP1 REVERT JUMPDEST POP JUMP JUMPDEST PUSH0 DUP2 MLOAD SWAP1 POP PUSH3 0x3CB DUP2 PUSH3 0x3A2 JUMP JUMPDEST SWAP3 SWAP2 POP POP JUMP JUMPDEST PUSH0 DUP1 PUSH0 PUSH1 0x60 DUP5 DUP7 SUB SLT ISZERO PUSH3 0x3EB JUMPI PUSH3 0x3EA PUSH3 0x395 JUMP JUMPDEST JUMPDEST PUSH0 PUSH3 0x3FA DUP7 DUP3 DUP8 ADD PUSH3 0x3BB JUMP JUMPDEST SWAP4 POP POP PUSH1 0x20 PUSH3 0x40D DUP7 DUP3 DUP8 ADD PUSH3 0x3BB JUMP JUMPDEST SWAP3 POP POP PUSH1 0x40 PUSH3 0x420 DUP7 DUP3 DUP8 ADD PUSH3 0x3BB JUMP JUMPDEST SWAP2 POP POP SWAP3 POP SWAP3 POP SWAP3 JUMP JUMPDEST PUSH32 0x4E487B7100000000000000000000000000000000000000000000000000000000 PUSH0 MSTORE PUSH1 0x11 PUSH1 0x4 MSTORE PUSH1 0x24 PUSH0 REVERT JUMPDEST PUSH0 PUSH3 0x463 DUP3 PUSH3 0x399 JUMP JUMPDEST SWAP2 POP PUSH3 0x470 DUP4 PUSH3 0x399 JUMP JUMPDEST SWAP3 POP DUP3 DUP3 SUB SWAP1 POP DUP2 DUP2 GT ISZERO PUSH3 0x48B JUMPI PUSH3 0x48A PUSH3 0x42A JUMP JUMPDEST JUMPDEST SWAP3 SWAP2 POP POP JUMP JUMPDEST PUSH32 0x4E487B7100000000000000000000000000000000000000000000000000000000 PUSH0 MSTORE PUSH1 0x41 PUSH1 0x4 MSTORE PUSH1 0x24 PUSH0 REVERT JUMPDEST PUSH0 DUP2 SWAP1 POP SWAP2 SWAP1 POP JUMP JUMPDEST PUSH3 0x4DC PUSH3 0x4D6 DUP3 PUSH3 0x399 JUMP JUMPDEST PUSH3 0x4BE JUMP JUMPDEST DUP3 MSTORE POP POP JUMP JUMPDEST PUSH0 PUSH3 0x4EF DUP3 DUP5 PUSH3 0x4C7 JUMP JUMPDEST PUSH1 0x20 DUP3 ADD SWAP2 POP DUP2 SWAP1 POP SWAP3 SWAP2 POP POP JUMP JUMPDEST PUSH32 0x4E487B7100000000000000000000000000000000000000000000000000000000 PUSH0 MSTORE PUSH1 0x12 PUSH1 0x4 MSTORE PUSH1 0x24 PUSH0 REVERT JUMPDEST PUSH0 PUSH3 0x537 DUP3 PUSH3 0x399 JUMP JUMPDEST SWAP2 POP PUSH3 0x544 DUP4 PUSH3 0x399 JUMP JUMPDEST SWAP3 POP DUP3 PUSH3 0x557 JUMPI PUSH3 0x556 PUSH3 0x4FE JUMP JUMPDEST JUMPDEST DUP3 DUP3 MOD SWAP1 POP SWAP3 SWAP2 POP POP JUMP JUMPDEST PUSH0 PUSH3 0x56E DUP3 PUSH3 0x399 JUMP JUMPDEST SWAP2 POP PUSH3 0x57B DUP4 PUSH3 0x399 JUMP JUMPDEST SWAP3 POP DUP3 DUP3 ADD SWAP1 POP DUP1 DUP3 GT ISZERO PUSH3 0x596 JUMPI PUSH3 0x595 PUSH3 0x42A JUMP JUMPDEST JUMPDEST SWAP3 SWAP2 POP POP JUMP JUMPDEST PUSH32 0x4E487B7100000000000000000000000000000000000000000000000000000000 PUSH0 MSTORE PUSH1 0x32 PUSH1 0x4 MSTORE PUSH1 0x24 PUSH0 REVERT JUMPDEST PUSH0 DUP2 PUSH1 0x1 SHR SWAP1 POP SWAP2 SWAP1 POP JUMP JUMPDEST PUSH0 DUP1 DUP3 SWAP2 POP DUP4 SWAP1 POP JUMPDEST PUSH1 0x1 DUP6 GT ISZERO PUSH3 0x626 JUMPI DUP1 DUP7 DIV DUP2 GT ISZERO PUSH3 0x5FE JUMPI PUSH3 0x5FD PUSH3 0x42A JUMP JUMPDEST JUMPDEST PUSH1 0x1 DUP6 AND ISZERO PUSH3 0x60E JUMPI DUP1 DUP3 MUL SWAP2 POP JUMPDEST DUP1 DUP2 MUL SWAP1 POP PUSH3 0x61E DUP6 PUSH3 0x5C9 JUMP JUMPDEST SWAP5 POP PUSH3 0x5DE JUMP JUMPDEST SWAP5 POP SWAP5 SWAP3 POP POP POP JUMP JUMPDEST PUSH0 DUP3 PUSH3 0x640 JUMPI PUSH1 0x1 SWAP1 POP PUSH3 0x712 JUMP JUMPDEST DUP2 PUSH3 0x64F JUMPI PUSH0 SWAP1 POP PUSH3 0x712 JUMP JUMPDEST DUP2 PUSH1 0x1 DUP2 EQ PUSH3 0x668 JUMPI PUSH1 0x2 DUP2 EQ PUSH3 0x673 JUMPI PUSH3 0x6A9 JUMP JUMPDEST PUSH1 0x1 SWAP2 POP POP PUSH3 0x712 JUMP JUMPDEST PUSH1 0xFF DUP5 GT ISZERO PUSH3 0x688 JUMPI PUSH3 0x687 PUSH3 0x42A JUMP JUMPDEST JUMPDEST DUP4 PUSH1 0x2 EXP SWAP2 POP DUP5 DUP3 GT ISZERO PUSH3 0x6A2 JUMPI PUSH3 0x6A1 PUSH3 0x42A JUMP JUMPDEST JUMPDEST POP PUSH3 0x712 JUMP JUMPDEST POP PUSH1 0x20 DUP4 LT PUSH2 0x133 DUP4 LT AND PUSH1 0x4E DUP5 LT PUSH1 0xB DUP5 LT AND OR ISZERO PUSH3 0x6E3 JUMPI DUP3 DUP3 EXP SWAP1 POP DUP4 DUP2 GT ISZERO PUSH3 0x6DD JUMPI PUSH3 0x6DC PUSH3 0x42A JUMP JUMPDEST JUMPDEST PUSH3 0x712 JUMP JUMPDEST PUSH3 0x6F2 DUP5 DUP5 DUP5 PUSH1 0x1 PUSH3 0x5D5 JUMP JUMPDEST SWAP3 POP SWAP1 POP DUP2 DUP5 DIV DUP2 GT ISZERO PUSH3 0x70C JUMPI PUSH3 0x70B PUSH3 0x42A JUMP JUMPDEST JUMPDEST DUP2 DUP2 MUL SWAP1 POP JUMPDEST SWAP4 SWAP3 POP POP POP JUMP JUMPDEST PUSH0 PUSH3 0x725 DUP3 PUSH3 0x399 JUMP JUMPDEST SWAP2 POP PUSH3 0x732 DUP4 PUSH3 0x399 JUMP JUMPDEST SWAP3 POP PUSH3 0x761 PUSH32 0xFFFFFFFFFFFFFFFFFFFFFFFFFFFFFFFFFFFFFFFFFFFFFFFFFFFFFFFFFFFFFFFF DUP5 DUP5 PUSH3 0x62F JUMP JUMPDEST SWAP1 POP SWAP3 SWAP2 POP POP JUMP JUMPDEST PUSH0 PUSH3 0x775 DUP3 PUSH3 0x399 JUMP JUMPDEST SWAP2 POP PUSH3 0x782 DUP4 PUSH3 0x399 JUMP JUMPDEST SWAP3 POP DUP3 DUP3 MUL PUSH3 0x792 DUP2 PUSH3 0x399 JUMP JUMPDEST SWAP2 POP DUP3 DUP3 DIV DUP5 EQ DUP4 ISZERO OR PUSH3 0x7AC JUMPI PUSH3 0x7AB PUSH3 0x42A JUMP JUMPDEST JUMPDEST POP SWAP3 SWAP2 POP POP JUMP JUMPDEST PUSH2 0xCC7 DUP1 PUSH3 0x7C1 PUSH0 CODECOPY PUSH0 RETURN INVALID PUSH1 0x80 PUSH1 0x40 MSTORE PUSH1 0x4 CALLDATASIZE LT PUSH2 0x3E JUMPI PUSH0 CALLDATALOAD PUSH1 0xE0 SHR DUP1 PUSH4 0x1D55BCD0 EQ PUSH2 0x42 JUMPI DUP1 PUSH4 0x26ECB26C EQ PUSH2 0x7E JUMPI DUP1 PUSH4 0x2C29FE7E EQ PUSH2 0x88 JUMPI DUP1 PUSH4 0x498EDC2D EQ PUSH2 0xB4 JUMPI JUMPDEST PUSH0 DUP1 REVERT JUMPDEST CALLVALUE DUP1 ISZERO PUSH2 0x4D JUMPI PUSH0 DUP1 REVERT JUMPDEST POP PUSH2 0x68 PUSH1 0x4 DUP1 CALLDATASIZE SUB DUP2 ADD SWAP1 PUSH2 0x63 SWAP2 SWAP1 PUSH2 0x6BB JUMP JUMPDEST PUSH2 0xDE JUMP JUMPDEST PUSH1 0x40 MLOAD PUSH2 0x75 SWAP2 SWAP1 PUSH2 0x711 JUMP JUMPDEST PUSH1 0x40 MLOAD DUP1 SWAP2 SUB SWAP1 RETURN JUMPDEST PUSH2 0x86 PUSH2 0x24C JUMP JUMPDEST STOP JUMPDEST CALLVALUE DUP1 ISZERO PUSH2 0x93 JUMPI PUSH0 DUP1 REVERT JUMPDEST POP PUSH2 0x9C PUSH2 0x374 JUMP JUMPDEST PUSH1 0x40 MLOAD PUSH2 0xAB SWAP4 SWAP3 SWAP2 SWAP1 PUSH2 0x7E1 JUMP JUMPDEST PUSH1 0x40 MLOAD DUP1 SWAP2 SUB SWAP1 RETURN JUMPDEST CALLVALUE DUP1 ISZERO PUSH2 0xBF JUMPI PUSH0 DUP1 REVERT JUMPDEST POP PUSH2 0xC8 PUSH2 0x3DA JUMP JUMPDEST PUSH1 0x40 MLOAD PUSH2 0xD5 SWAP2 SWAP1 PUSH2 0x81D JUMP JUMPDEST PUSH1 0x40 MLOAD DUP1 SWAP2 SUB SWAP1 RETURN JUMPDEST PUSH0 PUSH1 0x4 SLOAD DUP3 MLOAD LT ISZERO PUSH2 0x125 JUMPI PUSH1 0x40 MLOAD PUSH32 0x8C379A000000000000000000000000000000000000000000000000000000000 DUP2 MSTORE PUSH1 0x4 ADD PUSH2 0x11C SWAP1 PUSH2 0x897 JUMP JUMPDEST PUSH1 0x40 MLOAD DUP1 SWAP2 SUB SWAP1 REVERT JUMPDEST PUSH0 DUP1 JUMPDEST PUSH1 0x4 SLOAD DUP2 LT ISZERO PUSH2 0x236 JUMPI PUSH0 PUSH1 0x3 PUSH0 DUP7 DUP5 DUP2 MLOAD DUP2 LT PUSH2 0x149 JUMPI PUSH2 0x148 PUSH2 0x8B5 JUMP JUMPDEST JUMPDEST PUSH1 0x20 MUL PUSH1 0x20 ADD ADD MLOAD DUP2 MSTORE PUSH1 0x20 ADD SWAP1 DUP2 MSTORE PUSH1 0x20 ADD PUSH0 KECCAK256 SLOAD SWAP1 POP PUSH0 JUMPDEST PUSH1 0x4 SLOAD DUP2 LT ISZERO PUSH2 0x219 JUMPI DUP1 DUP4 EQ PUSH2 0x20C JUMPI PUSH2 0x1BE DUP7 DUP3 DUP2 MLOAD DUP2 LT PUSH2 0x18A JUMPI PUSH2 0x189 PUSH2 0x8B5 JUMP JUMPDEST JUMPDEST PUSH1 0x20 MUL PUSH1 0x20 ADD ADD MLOAD DUP8 DUP6 DUP2 MLOAD DUP2 LT PUSH2 0x1A5 JUMPI PUSH2 0x1A4 PUSH2 0x8B5 JUMP JUMPDEST JUMPDEST PUSH1 0x20 MUL PUSH1 0x20 ADD ADD MLOAD PUSH2 0x1B7 SWAP2 SWAP1 PUSH2 0x90F JUMP JUMPDEST PUSH0 SLOAD PUSH2 0x491 JUMP JUMPDEST DUP7 DUP3 DUP2 MLOAD DUP2 LT PUSH2 0x1D1 JUMPI PUSH2 0x1D0 PUSH2 0x8B5 JUMP JUMPDEST JUMPDEST PUSH1 0x20 MUL PUSH1 0x20 ADD ADD MLOAD PUSH0 SLOAD PUSH2 0x1E5 SWAP2 SWAP1 PUSH2 0x90F JUMP JUMPDEST PUSH2 0x1EF SWAP2 SWAP1 PUSH2 0x942 JUMP JUMPDEST DUP3 PUSH2 0x1FA SWAP2 SWAP1 PUSH2 0x942 JUMP JUMPDEST SWAP2 POP PUSH0 SLOAD DUP3 PUSH2 0x209 SWAP2 SWAP1 PUSH2 0x9B0 JUMP JUMPDEST SWAP2 POP JUMPDEST DUP1 DUP1 PUSH1 0x1 ADD SWAP2 POP POP PUSH2 0x163 JUMP JUMPDEST POP DUP1 DUP4 PUSH2 0x226 SWAP2 SWAP1 PUSH2 0x9E0 JUMP JUMPDEST SWAP3 POP POP DUP1 DUP1 PUSH1 0x1 ADD SWAP2 POP POP PUSH2 0x128 JUMP JUMPDEST POP PUSH0 SLOAD DUP2 PUSH2 0x244 SWAP2 SWAP1 PUSH2 0x9B0 JUMP JUMPDEST SWAP2 POP POP SWAP2 SWAP1 POP JUMP JUMPDEST PUSH0 CALLVALUE GT PUSH2 0x28E JUMPI PUSH1 0x40 MLOAD PUSH32 0x8C379A000000000000000000000000000000000000000000000000000000000 DUP2 MSTORE PUSH1 0x4 ADD PUSH2 0x285 SWAP1 PUSH2 0xA83 JUMP JUMPDEST PUSH1 0x40 MLOAD DUP1 SWAP2 SUB SWAP1 REVERT JUMPDEST PUSH0 PUSH1 0x1 SWAP1 POP JUMPDEST PUSH1 0x2 SLOAD DUP2 GT PUSH2 0x371 JUMPI PUSH0 DUP2 SWAP1 POP PUSH0 DUP1 JUMPDEST PUSH1 0x1 PUSH1 0x4 SLOAD PUSH2 0x2B3 SWAP2 SWAP1 PUSH2 0x90F JUMP JUMPDEST DUP2 LT ISZERO PUSH2 0x32C JUMPI PUSH0 SLOAD DUP2 PUSH1 0x1 PUSH1 0x4 SLOAD PUSH2 0x2CC SWAP2 SWAP1 PUSH2 0x90F JUMP JUMPDEST PUSH2 0x2D6 SWAP2 SWAP1 PUSH2 0x90F JUMP JUMPDEST DUP5 PUSH2 0x2E1 SWAP2 SWAP1 PUSH2 0xBD0 JUMP JUMPDEST PUSH1 0x5 DUP4 DUP2 SLOAD DUP2 LT PUSH2 0x2F5 JUMPI PUSH2 0x2F4 PUSH2 0x8B5 JUMP JUMPDEST JUMPDEST SWAP1 PUSH0 MSTORE PUSH1 0x20 PUSH0 KECCAK256 ADD SLOAD PUSH2 0x308 SWAP2 SWAP1 PUSH2 0x942 JUMP JUMPDEST PUSH2 0x312 SWAP2 SWAP1 PUSH2 0x9B0 JUMP JUMPDEST DUP3 PUSH2 0x31D SWAP2 SWAP1 PUSH2 0x9E0 JUMP JUMPDEST SWAP2 POP DUP1 DUP1 PUSH1 0x1 ADD SWAP2 POP POP PUSH2 0x2A4 JUMP JUMPDEST POP PUSH0 SLOAD PUSH1 0x1 SLOAD DUP3 PUSH2 0x33D SWAP2 SWAP1 PUSH2 0x9E0 JUMP JUMPDEST PUSH2 0x347 SWAP2 SWAP1 PUSH2 0x9B0 JUMP JUMPDEST PUSH1 0x3 PUSH0 DUP6 DUP2 MSTORE PUSH1 0x20 ADD SWAP1 DUP2 MSTORE PUSH1 0x20 ADD PUSH0 KECCAK256 DUP2 SWAP1 SSTORE POP POP POP DUP1 DUP1 PUSH2 0x369 SWAP1 PUSH2 0xC1A JUMP JUMPDEST SWAP2 POP POP PUSH2 0x294 JUMP JUMPDEST POP JUMP JUMPDEST PUSH0 DUP1 PUSH1 0x60 PUSH0 SLOAD PUSH1 0x1 SLOAD PUSH1 0x5 DUP1 DUP1 SLOAD DUP1 PUSH1 0x20 MUL PUSH1 0x20 ADD PUSH1 0x40 MLOAD SWAP1 DUP2 ADD PUSH1 0x40 MSTORE DUP1 SWAP3 SWAP2 SWAP1 DUP2 DUP2 MSTORE PUSH1 0x20 ADD DUP3 DUP1 SLOAD DUP1 ISZERO PUSH2 0x3C8 JUMPI PUSH1 0x20 MUL DUP3 ADD SWAP2 SWAP1 PUSH0 MSTORE PUSH1 0x20 PUSH0 KECCAK256 SWAP1 JUMPDEST DUP2 SLOAD DUP2 MSTORE PUSH1 0x20 ADD SWAP1 PUSH1 0x1 ADD SWAP1 DUP1 DUP4 GT PUSH2 0x3B4 JUMPI JUMPDEST POP POP POP POP POP SWAP1 POP SWAP3 POP SWAP3 POP SWAP3 POP SWAP1 SWAP2 SWAP3 JUMP JUMPDEST PUSH1 0x60 PUSH0 PUSH1 0x2 SLOAD PUSH8 0xFFFFFFFFFFFFFFFF DUP2 GT ISZERO PUSH2 0x3F9 JUMPI PUSH2 0x3F8 PUSH2 0x54C JUMP JUMPDEST JUMPDEST PUSH1 0x40 MLOAD SWAP1 DUP1 DUP3 MSTORE DUP1 PUSH1 0x20 MUL PUSH1 0x20 ADD DUP3 ADD PUSH1 0x40 MSTORE DUP1 ISZERO PUSH2 0x427 JUMPI DUP2 PUSH1 0x20 ADD PUSH1 0x20 DUP3 MUL DUP1 CALLDATASIZE DUP4 CALLDATACOPY DUP1 DUP3 ADD SWAP2 POP POP SWAP1 POP JUMPDEST POP SWAP1 POP PUSH0 PUSH1 0x1 SWAP1 POP JUMPDEST PUSH1 0x2 SLOAD DUP2 GT PUSH2 0x489 JUMPI PUSH1 0x3 PUSH0 DUP3 DUP2 MSTORE PUSH1 0x20 ADD SWAP1 DUP2 MSTORE PUSH1 0x20 ADD PUSH0 KECCAK256 SLOAD DUP3 PUSH1 0x1 DUP4 PUSH2 0x459 SWAP2 SWAP1 PUSH2 0x90F JUMP JUMPDEST DUP2 MLOAD DUP2 LT PUSH2 0x46A JUMPI PUSH2 0x469 PUSH2 0x8B5 JUMP JUMPDEST JUMPDEST PUSH1 0x20 MUL PUSH1 0x20 ADD ADD DUP2 DUP2 MSTORE POP POP DUP1 DUP1 PUSH2 0x481 SWAP1 PUSH2 0xC1A JUMP JUMPDEST SWAP2 POP POP PUSH2 0x430 JUMP JUMPDEST POP DUP1 SWAP2 POP POP SWAP1 JUMP JUMPDEST PUSH0 DUP1 DUP3 SWAP1 POP PUSH0 DUP1 PUSH1 0x1 SWAP1 POP PUSH1 0x1 DUP6 SUB PUSH2 0x4AF JUMPI PUSH0 SWAP4 POP POP POP POP PUSH2 0x521 JUMP JUMPDEST JUMPDEST PUSH1 0x1 DUP7 GT ISZERO PUSH2 0x503 JUMPI PUSH0 DUP6 DUP8 PUSH2 0x4C6 SWAP2 SWAP1 PUSH2 0xC61 JUMP JUMPDEST SWAP1 POP PUSH0 DUP7 SWAP1 POP DUP7 DUP9 PUSH2 0x4D8 SWAP2 SWAP1 PUSH2 0x9B0 JUMP JUMPDEST SWAP7 POP DUP1 SWAP8 POP DUP4 SWAP1 POP DUP4 DUP3 PUSH2 0x4EC SWAP2 SWAP1 PUSH2 0x942 JUMP JUMPDEST DUP4 PUSH2 0x4F7 SWAP2 SWAP1 PUSH2 0x90F JUMP JUMPDEST SWAP4 POP DUP1 SWAP3 POP POP POP PUSH2 0x4B0 JUMP JUMPDEST PUSH0 DUP2 LT ISZERO PUSH2 0x51A JUMPI DUP3 DUP2 PUSH2 0x517 SWAP2 SWAP1 PUSH2 0x9E0 JUMP JUMPDEST SWAP1 POP JUMPDEST DUP1 SWAP4 POP POP POP POP JUMPDEST SWAP3 SWAP2 POP POP JUMP JUMPDEST PUSH0 PUSH1 0x40 MLOAD SWAP1 POP SWAP1 JUMP JUMPDEST PUSH0 DUP1 REVERT JUMPDEST PUSH0 DUP1 REVERT JUMPDEST PUSH0 DUP1 REVERT JUMPDEST PUSH0 PUSH1 0x1F NOT PUSH1 0x1F DUP4 ADD AND SWAP1 POP SWAP2 SWAP1 POP JUMP JUMPDEST PUSH32 0x4E487B7100000000000000000000000000000000000000000000000000000000 PUSH0 MSTORE PUSH1 0x41 PUSH1 0x4 MSTORE PUSH1 0x24 PUSH0 REVERT JUMPDEST PUSH2 0x582 DUP3 PUSH2 0x53C JUMP JUMPDEST DUP2 ADD DUP2 DUP2 LT PUSH8 0xFFFFFFFFFFFFFFFF DUP3 GT OR ISZERO PUSH2 0x5A1 JUMPI PUSH2 0x5A0 PUSH2 0x54C JUMP JUMPDEST JUMPDEST DUP1 PUSH1 0x40 MSTORE POP POP POP JUMP JUMPDEST PUSH0 PUSH2 0x5B3 PUSH2 0x527 JUMP JUMPDEST SWAP1 POP PUSH2 0x5BF DUP3 DUP3 PUSH2 0x579 JUMP JUMPDEST SWAP2 SWAP1 POP JUMP JUMPDEST PUSH0 PUSH8 0xFFFFFFFFFFFFFFFF DUP3 GT ISZERO PUSH2 0x5DE JUMPI PUSH2 0x5DD PUSH2 0x54C JUMP JUMPDEST JUMPDEST PUSH1 0x20 DUP3 MUL SWAP1 POP PUSH1 0x20 DUP2 ADD SWAP1 POP SWAP2 SWAP1 POP JUMP JUMPDEST PUSH0 DUP1 REVERT JUMPDEST PUSH0 DUP2 SWAP1 POP SWAP2 SWAP1 POP JUMP JUMPDEST PUSH2 0x605 DUP2 PUSH2 0x5F3 JUMP JUMPDEST DUP2 EQ PUSH2 0x60F JUMPI PUSH0 DUP1 REVERT JUMPDEST POP JUMP JUMPDEST PUSH0 DUP2 CALLDATALOAD SWAP1 POP PUSH2 0x620 DUP2 PUSH2 0x5FC JUMP JUMPDEST SWAP3 SWAP2 POP POP JUMP JUMPDEST PUSH0 PUSH2 0x638 PUSH2 0x633 DUP5 PUSH2 0x5C4 JUMP JUMPDEST PUSH2 0x5AA JUMP JUMPDEST SWAP1 POP DUP1 DUP4 DUP3 MSTORE PUSH1 0x20 DUP3 ADD SWAP1 POP PUSH1 0x20 DUP5 MUL DUP4 ADD DUP6 DUP2 GT ISZERO PUSH2 0x65B JUMPI PUSH2 0x65A PUSH2 0x5EF JUMP JUMPDEST JUMPDEST DUP4 JUMPDEST DUP2 DUP2 LT ISZERO PUSH2 0x684 JUMPI DUP1 PUSH2 0x670 DUP9 DUP3 PUSH2 0x612 JUMP JUMPDEST DUP5 MSTORE PUSH1 0x20 DUP5 ADD SWAP4 POP POP PUSH1 0x20 DUP2 ADD SWAP1 POP PUSH2 0x65D JUMP JUMPDEST POP POP POP SWAP4 SWAP3 POP POP POP JUMP JUMPDEST PUSH0 DUP3 PUSH1 0x1F DUP4 ADD SLT PUSH2 0x6A2 JUMPI PUSH2 0x6A1 PUSH2 0x538 JUMP JUMPDEST JUMPDEST DUP2 CALLDATALOAD PUSH2 0x6B2 DUP5 DUP3 PUSH1 0x20 DUP7 ADD PUSH2 0x626 JUMP JUMPDEST SWAP2 POP POP SWAP3 SWAP2 POP POP JUMP JUMPDEST PUSH0 PUSH1 0x20 DUP3 DUP5 SUB SLT ISZERO PUSH2 0x6D0 JUMPI PUSH2 0x6CF PUSH2 0x530 JUMP JUMPDEST JUMPDEST PUSH0 DUP3 ADD CALLDATALOAD PUSH8 0xFFFFFFFFFFFFFFFF DUP2 GT ISZERO PUSH2 0x6ED JUMPI PUSH2 0x6EC PUSH2 0x534 JUMP JUMPDEST JUMPDEST PUSH2 0x6F9 DUP5 DUP3 DUP6 ADD PUSH2 0x68E JUMP JUMPDEST SWAP2 POP POP SWAP3 SWAP2 POP POP JUMP JUMPDEST PUSH2 0x70B DUP2 PUSH2 0x5F3 JUMP JUMPDEST DUP3 MSTORE POP POP JUMP JUMPDEST PUSH0 PUSH1 0x20 DUP3 ADD SWAP1 POP PUSH2 0x724 PUSH0 DUP4 ADD DUP5 PUSH2 0x702 JUMP JUMPDEST SWAP3 SWAP2 POP POP JUMP JUMPDEST PUSH0 DUP2 MLOAD SWAP1 POP SWAP2 SWAP1 POP JUMP JUMPDEST PUSH0 DUP3 DUP3 MSTORE PUSH1 0x20 DUP3 ADD SWAP1 POP SWAP3 SWAP2 POP POP JUMP JUMPDEST PUSH0 DUP2 SWAP1 POP PUSH1 0x20 DUP3 ADD SWAP1 POP SWAP2 SWAP1 POP JUMP JUMPDEST PUSH2 0x75C DUP2 PUSH2 0x5F3 JUMP JUMPDEST DUP3 MSTORE POP POP JUMP JUMPDEST PUSH0 PUSH2 0x76D DUP4 DUP4 PUSH2 0x753 JUMP JUMPDEST PUSH1 0x20 DUP4 ADD SWAP1 POP SWAP3 SWAP2 POP POP JUMP JUMPDEST PUSH0 PUSH1 0x20 DUP3 ADD SWAP1 POP SWAP2 SWAP1 POP JUMP JUMPDEST PUSH0 PUSH2 0x78F DUP3 PUSH2 0x72A JUMP JUMPDEST PUSH2 0x799 DUP2 DUP6 PUSH2 0x734 JUMP JUMPDEST SWAP4 POP PUSH2 0x7A4 DUP4 PUSH2 0x744 JUMP JUMPDEST DUP1 PUSH0 JUMPDEST DUP4 DUP2 LT ISZERO PUSH2 0x7D4 JUMPI DUP2 MLOAD PUSH2 0x7BB DUP9 DUP3 PUSH2 0x762 JUMP JUMPDEST SWAP8 POP PUSH2 0x7C6 DUP4 PUSH2 0x779 JUMP JUMPDEST SWAP3 POP POP PUSH1 0x1 DUP2 ADD SWAP1 POP PUSH2 0x7A7 JUMP JUMPDEST POP DUP6 SWAP4 POP POP POP POP SWAP3 SWAP2 POP POP JUMP JUMPDEST PUSH0 PUSH1 0x60 DUP3 ADD SWAP1 POP PUSH2 0x7F4 PUSH0 DUP4 ADD DUP7 PUSH2 0x702 JUMP JUMPDEST PUSH2 0x801 PUSH1 0x20 DUP4 ADD DUP6 PUSH2 0x702 JUMP JUMPDEST DUP2 DUP2 SUB PUSH1 0x40 DUP4 ADD MSTORE PUSH2 0x813 DUP2 DUP5 PUSH2 0x785 JUMP JUMPDEST SWAP1 POP SWAP5 SWAP4 POP POP POP POP JUMP JUMPDEST PUSH0 PUSH1 0x20 DUP3 ADD SWAP1 POP DUP2 DUP2 SUB PUSH0 DUP4 ADD MSTORE PUSH2 0x835 DUP2 DUP5 PUSH2 0x785 JUMP JUMPDEST SWAP1 POP SWAP3 SWAP2 POP POP JUMP JUMPDEST PUSH0 DUP3 DUP3 MSTORE PUSH1 0x20 DUP3 ADD SWAP1 POP SWAP3 SWAP2 POP POP JUMP JUMPDEST PUSH32 0x496E73756666696369656E74207368617265732070726F76696465642E000000 PUSH0 DUP3 ADD MSTORE POP JUMP JUMPDEST PUSH0 PUSH2 0x881 PUSH1 0x1D DUP4 PUSH2 0x83D JUMP JUMPDEST SWAP2 POP PUSH2 0x88C DUP3 PUSH2 0x84D JUMP JUMPDEST PUSH1 0x20 DUP3 ADD SWAP1 POP SWAP2 SWAP1 POP JUMP JUMPDEST PUSH0 PUSH1 0x20 DUP3 ADD SWAP1 POP DUP2 DUP2 SUB PUSH0 DUP4 ADD MSTORE PUSH2 0x8AE DUP2 PUSH2 0x875 JUMP JUMPDEST SWAP1 POP SWAP2 SWAP1 POP JUMP JUMPDEST PUSH32 0x4E487B7100000000000000000000000000000000000000000000000000000000 PUSH0 MSTORE PUSH1 0x32 PUSH1 0x4 MSTORE PUSH1 0x24 PUSH0 REVERT JUMPDEST PUSH32 0x4E487B7100000000000000000000000000000000000000000000000000000000 PUSH0 MSTORE PUSH1 0x11 PUSH1 0x4 MSTORE PUSH1 0x24 PUSH0 REVERT JUMPDEST PUSH0 PUSH2 0x919 DUP3 PUSH2 0x5F3 JUMP JUMPDEST SWAP2 POP PUSH2 0x924 DUP4 PUSH2 0x5F3 JUMP JUMPDEST SWAP3 POP DUP3 DUP3 SUB SWAP1 POP DUP2 DUP2 GT ISZERO PUSH2 0x93C JUMPI PUSH2 0x93B PUSH2 0x8E2 JUMP JUMPDEST JUMPDEST SWAP3 SWAP2 POP POP JUMP JUMPDEST PUSH0 PUSH2 0x94C DUP3 PUSH2 0x5F3 JUMP JUMPDEST SWAP2 POP PUSH2 0x957 DUP4 PUSH2 0x5F3 JUMP JUMPDEST SWAP3 POP DUP3 DUP3 MUL PUSH2 0x965 DUP2 PUSH2 0x5F3 JUMP JUMPDEST SWAP2 POP DUP3 DUP3 DIV DUP5 EQ DUP4 ISZERO OR PUSH2 0x97C JUMPI PUSH2 0x97B PUSH2 0x8E2 JUMP JUMPDEST JUMPDEST POP SWAP3 SWAP2 POP POP JUMP JUMPDEST PUSH32 0x4E487B7100000000000000000000000000000000000000000000000000000000 PUSH0 MSTORE PUSH1 0x12 PUSH1 0x4 MSTORE PUSH1 0x24 PUSH0 REVERT JUMPDEST PUSH0 PUSH2 0x9BA DUP3 PUSH2 0x5F3 JUMP JUMPDEST SWAP2 POP PUSH2 0x9C5 DUP4 PUSH2 0x5F3 JUMP JUMPDEST SWAP3 POP DUP3 PUSH2 0x9D5 JUMPI PUSH2 0x9D4 PUSH2 0x983 JUMP JUMPDEST JUMPDEST DUP3 DUP3 MOD SWAP1 POP SWAP3 SWAP2 POP POP JUMP JUMPDEST PUSH0 PUSH2 0x9EA DUP3 PUSH2 0x5F3 JUMP JUMPDEST SWAP2 POP PUSH2 0x9F5 DUP4 PUSH2 0x5F3 JUMP JUMPDEST SWAP3 POP DUP3 DUP3 ADD SWAP1 POP DUP1 DUP3 GT ISZERO PUSH2 0xA0D JUMPI PUSH2 0xA0C PUSH2 0x8E2 JUMP JUMPDEST JUMPDEST SWAP3 SWAP2 POP POP JUMP JUMPDEST PUSH32 0x45746865722076616C7565206D7573742062652067726561746572207468616E PUSH0 DUP3 ADD MSTORE PUSH32 0x2030000000000000000000000000000000000000000000000000000000000000 PUSH1 0x20 DUP3 ADD MSTORE POP JUMP JUMPDEST PUSH0 PUSH2 0xA6D PUSH1 0x22 DUP4 PUSH2 0x83D JUMP JUMPDEST SWAP2 POP PUSH2 0xA78 DUP3 PUSH2 0xA13 JUMP JUMPDEST PUSH1 0x40 DUP3 ADD SWAP1 POP SWAP2 SWAP1 POP JUMP JUMPDEST PUSH0 PUSH1 0x20 DUP3 ADD SWAP1 POP DUP2 DUP2 SUB PUSH0 DUP4 ADD MSTORE PUSH2 0xA9A DUP2 PUSH2 0xA61 JUMP JUMPDEST SWAP1 POP SWAP2 SWAP1 POP JUMP JUMPDEST PUSH0 DUP2 PUSH1 0x1 SHR SWAP1 POP SWAP2 SWAP1 POP JUMP JUMPDEST PUSH0 DUP1 DUP3 SWAP2 POP DUP4 SWAP1 POP JUMPDEST PUSH1 0x1 DUP6 GT ISZERO PUSH2 0xAF6 JUMPI DUP1 DUP7 DIV DUP2 GT ISZERO PUSH2 0xAD2 JUMPI PUSH2 0xAD1 PUSH2 0x8E2 JUMP JUMPDEST JUMPDEST PUSH1 0x1 DUP6 AND ISZERO PUSH2 0xAE1 JUMPI DUP1 DUP3 MUL SWAP2 POP JUMPDEST DUP1 DUP2 MUL SWAP1 POP PUSH2 0xAEF DUP6 PUSH2 0xAA1 JUMP JUMPDEST SWAP5 POP PUSH2 0xAB6 JUMP JUMPDEST SWAP5 POP SWAP5 SWAP3 POP POP POP JUMP JUMPDEST PUSH0 DUP3 PUSH2 0xB0E JUMPI PUSH1 0x1 SWAP1 POP PUSH2 0xBC9 JUMP JUMPDEST DUP2 PUSH2 0xB1B JUMPI PUSH0 SWAP1 POP PUSH2 0xBC9 JUMP JUMPDEST DUP2 PUSH1 0x1 DUP2 EQ PUSH2 0xB31 JUMPI PUSH1 0x2 DUP2 EQ PUSH2 0xB3B JUMPI PUSH2 0xB6A JUMP JUMPDEST PUSH1 0x1 SWAP2 POP POP PUSH2 0xBC9 JUMP JUMPDEST PUSH1 0xFF DUP5 GT ISZERO PUSH2 0xB4D JUMPI PUSH2 0xB4C PUSH2 0x8E2 JUMP JUMPDEST JUMPDEST DUP4 PUSH1 0x2 EXP SWAP2 POP DUP5 DUP3 GT ISZERO PUSH2 0xB64 JUMPI PUSH2 0xB63 PUSH2 0x8E2 JUMP JUMPDEST JUMPDEST POP PUSH2 0xBC9 JUMP JUMPDEST POP PUSH1 0x20 DUP4 LT PUSH2 0x133 DUP4 LT AND PUSH1 0x4E DUP5 LT PUSH1 0xB DUP5 LT AND OR ISZERO PUSH2 0xB9F JUMPI DUP3 DUP3 EXP SWAP1 POP DUP4 DUP2 GT ISZERO PUSH2 0xB9A JUMPI PUSH2 0xB99 PUSH2 0x8E2 JUMP JUMPDEST JUMPDEST PUSH2 0xBC9 JUMP JUMPDEST PUSH2 0xBAC DUP5 DUP5 DUP5 PUSH1 0x1 PUSH2 0xAAD JUMP JUMPDEST SWAP3 POP SWAP1 POP DUP2 DUP5 DIV DUP2 GT ISZERO PUSH2 0xBC3 JUMPI PUSH2 0xBC2 PUSH2 0x8E2 JUMP JUMPDEST JUMPDEST DUP2 DUP2 MUL SWAP1 POP JUMPDEST SWAP4 SWAP3 POP POP POP JUMP JUMPDEST PUSH0 PUSH2 0xBDA DUP3 PUSH2 0x5F3 JUMP JUMPDEST SWAP2 POP PUSH2 0xBE5 DUP4 PUSH2 0x5F3 JUMP JUMPDEST SWAP3 POP PUSH2 0xC12 PUSH32 0xFFFFFFFFFFFFFFFFFFFFFFFFFFFFFFFFFFFFFFFFFFFFFFFFFFFFFFFFFFFFFFFF DUP5 DUP5 PUSH2 0xAFF JUMP JUMPDEST SWAP1 POP SWAP3 SWAP2 POP POP JUMP JUMPDEST PUSH0 PUSH2 0xC24 DUP3 PUSH2 0x5F3 JUMP JUMPDEST SWAP2 POP PUSH32 0xFFFFFFFFFFFFFFFFFFFFFFFFFFFFFFFFFFFFFFFFFFFFFFFFFFFFFFFFFFFFFFFF DUP3 SUB PUSH2 0xC56 JUMPI PUSH2 0xC55 PUSH2 0x8E2 JUMP JUMPDEST JUMPDEST PUSH1 0x1 DUP3 ADD SWAP1 POP SWAP2 SWAP1 POP JUMP JUMPDEST PUSH0 PUSH2 0xC6B DUP3 PUSH2 0x5F3 JUMP JUMPDEST SWAP2 POP PUSH2 0xC76 DUP4 PUSH2 0x5F3 JUMP JUMPDEST SWAP3 POP DUP3 PUSH2 0xC86 JUMPI PUSH2 0xC85 PUSH2 0x983 JUMP JUMPDEST JUMPDEST DUP3 DUP3 DIV SWAP1 POP SWAP3 SWAP2 POP POP JUMP INVALID LOG2 PUSH5 0x6970667358 0x22 SLT KECCAK256 LOG3 TSTORE RETURNDATASIZE PUSH14 0x8EA4029B33F130279BFF61D52808 SMOD 0x2A SWAP15 0x23 TSTORE CALLDATASIZE RETURNDATACOPY BALANCE 0xAC DUP16 AND MUL SWAP2 0xEE PUSH5 0x736F6C6343 STOP ADDMOD XOR STOP CALLER "
		},
		"gasEstimates": {
			"creation": {
				"codeDepositCost": "654200",
				"executionCost": "infinite",
				"totalCost": "infinite"
			},
			"external": {
				"constructShare()": "infinite",
				"displayParameter()": "infinite",
				"displayShares()": "infinite",
				"reConstruction(uint256[])": "infinite"
			},
			"internal": {
				"generatePrime(uint256)": "infinite",
				"isPrime(uint256)": "infinite",
				"modInverse(uint256,uint256)": "infinite"
			}
		},
		"methodIdentifiers": {
			"constructShare()": "26ecb26c",
			"displayParameter()": "2c29fe7e",
			"displayShares()": "498edc2d",
			"reConstruction(uint256[])": "1d55bcd0"
		}
	},
	"abi": [
		{
			"inputs": [
				{
					"internalType": "uint256",
					"name": "n",
					"type": "uint256"
				},
				{
					"internalType": "uint256",
					"name": "t",
					"type": "uint256"
				},
				{
					"internalType": "uint256",
					"name": "size",
					"type": "uint256"
				}
			],
			"stateMutability": "payable",
			"type": "constructor"
		},
		{
			"inputs": [],
			"name": "constructShare",
			"outputs": [],
			"stateMutability": "payable",
			"type": "function"
		},
		{
			"inputs": [],
			"name": "displayParameter",
			"outputs": [
				{
					"internalType": "uint256",
					"name": "",
					"type": "uint256"
				},
				{
					"internalType": "uint256",
					"name": "",
					"type": "uint256"
				},
				{
					"internalType": "uint256[]",
					"name": "",
					"type": "uint256[]"
				}
			],
			"stateMutability": "view",
			"type": "function"
		},
		{
			"inputs": [],
			"name": "displayShares",
			"outputs": [
				{
					"internalType": "uint256[]",
					"name": "",
					"type": "uint256[]"
				}
			],
			"stateMutability": "view",
			"type": "function"
		},
		{
			"inputs": [
				{
					"internalType": "uint256[]",
					"name": "indices",
					"type": "uint256[]"
				}
			],
			"name": "reConstruction",
			"outputs": [
				{
					"internalType": "uint256",
					"name": "",
					"type": "uint256"
				}
			],
			"stateMutability": "view",
			"type": "function"
		}
	]
}